:020000041000EA
:1080000000200420F7800010C3800010C5800010FD
:10801000C1800010C1800010C1800010C18000101C
:10802000C1800010C1800010C1800010C780001006
:10803000C1800010C1800010C9800010CB800010EA
:10804000CD800010CD800010CD800010CD800010BC
:10805000CD800010CD800010CD800010CD800010AC
:10806000CD800010CD800010CD800010CD8000109C
:10807000CD800010CD800010CD800010CD8000108C
:10808000CD800010CD800010CD800010CD8000107C
:10809000CD800010CD800010CD800010CD8000106C
:1080A000CD800010CD800010CD800010CD8000105C
:1080B000CD800010CD800010CD800010CD8000104C
:1080C00000BE00BE00BE00BE00BE00BEEFF30580D5
:1080D000103800BEF2EB8871F02003100C21031061
:1080E0003881001090A31AE71E481F49086006C88F
:1080F00081F3088810471D480068002801D01948FE
:10810000F3E70DA40ECC002902D000F012F8F9E735
:108110001749184A002000E001C19142FCD11649DC
:108120008847164988471649884700BEFDE701C9B8
:1081300001C29A42FBD370470C210310C0000020FB
:108140005C1D0020C83D0310000004200000042036
:10815000C83D03100010042000100420000000009F
:10816000704700000000000008ED00E0000000D0B3
:10817000801D002038F60020A50B0210E51F02101C
:108180009D0B0210F8B5C04606480749091A8B1026
:10819000C90FC91810B5491003D0044B002B00D0EB
:1081A000984710BD5C1D00205C1D002000000000F1
:1081B000054B10B5002B03D00449054800E000BF73
:1081C000FFF7E2FF10BDC04600000000D0EA00202B
:1081D000B0EE02107047C0467047C046F0B5C646C4
:1081E0000D000400C16800B52868160016F0ACFD4B
:1081F0002860E76880460021381C16F0EBFD002857
:1082000033D10021381C16F0FBFD00280AD060692C
:1082100016F000FE071C011C404616F0F1FD002878
:1082200000D02F602169306816F08EFD306024691F
:10823000051C0021201C16F0E3FD002821D01C4B5A
:108240000A20185E16F0E6FD011C281C16F0D0FD71
:10825000431E98410400174B0021186803681B69EE
:108260009847200080BCB846F0BD606916F0D2FD8A
:10827000071C011C404616F0ADFD0028D2D02F602F
:10828000D0E70021201C16F0A5FD00280DD0084BDA
:108290000A20185E404216F0BDFD011C281C16F095
:1082A0009FFD431E98410400D5E70024D3E7C04654
:1082B0002C1600209003031010B5034B1022002150
:1082C000186817F03DF810BD581600207047C046DA
:1082D000FA210D4B10B51C68836A89005800C0183C
:1082E0008000C01814F06AFC0123C20F80180340FC
:1082F0009B1ADA009B1ADB00DBB21B04236063606D
:10830000A360E36010BDC046581600200B68C36030
:1083100013680361002383607047C0467047C046FE
:10832000042070477047C0467047C0467047C0463B
:108330007047C04610B50400142117F015F820004E
:1083400010BDC04610B50400142117F00DF8200030
:1083500010BDC04610B50400242117F005F8200018
:1083600010BDC04610B504001C2116F0FDFF200012
:1083700010BDC04610B504002C2116F0F5FF2000FA
:1083800010BDC04610B50400242116F0EDFF2000FA
:1083900010BDC046F0B5C646060000B5C06817005F
:1083A000884616F0BFFD04000D0002000B000020FF
:1083B000344914F072FE344A344B14F09EFE22000D
:1083C0002B0014F073FE14F06FFFF060041C306992
:1083D00016F0A8FD2E4A2F4B14F08FFE14F064FF08
:1083E0004346FA2130611C603369B0683B602A4B18
:1083F00049001F6814F0E2FB062114F0DFFB3B6824
:1084000038001B69C9B29847B3681800984614F041
:10841000EBFE0022214B14F070FE0022204B14F0E2
:108420004EFE204A204B14F068FE14F069FF002233
:108430001E4B14F062FE00221C4B14F037FE00228B
:108440001B4B14F05AFE0D00FA210400C9004046EF
:1084500014F0B4FB013014F0C7FE02000B00200042
:10846000290014F02CFE14F0FBFE3B68C1B25B68DF
:1084700038009847B36800200A33B36080BCB84620
:10848000F0BDC046008066407B14AE47E17A843F71
:10849000AE47E17A14AEEF3F900303100000F83FBF
:1084A00000408F401F85EB51B81E19400000E03F8F
:1084B00000E06F4070B5C06982B014F095FE020014
:1084C0000B0014F0F3FD0022354B14F0F8FD354B92
:1084D00000221E68002304000D0014F0E7FD324A5C
:1084E000324B14F00AFE14F00BFF00900191019B37
:1084F00000225B0059082E4B14F0FFFD14F0B0FE73
:10850000C0B200023060002220002900294B14F084
:10851000CDFD254A254B14F0F0FD14F0F1FE00903E
:108520000191019B00225B005908214B14F0E5FDED
:1085300014F096FEC0B200027060002220002900F4
:108540001D4B14F0B3FD184A184B14F0D6FD14F06F
:10855000D7FE00900191019B00225B005908144B4B
:1085600014F0CBFD14F07CFEC0B20002B06000221B
:1085700020002900114B14F099FD0B4A0B4B14F00D
:10858000BCFD14F0BDFE4B0000225908084B14F04E
:10859000B4FD14F065FEC0B20002F06002B070BD20
:1085A00000408F40581600201F85EB51B81E09402F
:1085B00000C062400000D03F0000E03F0000E83F04
:1085C00070B5C06982B014F00FFE0022354B14F074
:1085D00094FD0022344B14F072FD344B00221E68CF
:1085E000002304000D0014F061FD314A314B14F0FA
:1085F00084FD14F085FE00900191019B00225B0038
:1086000059082D4B14F079FD14F02AFE0006306055
:10861000002220002900294B14F048FD244A254B54
:1086200014F06BFD14F06CFE00900191019B002290
:108630005B005908204B14F060FD14F011FE000699
:1086400070600022200029001D4B14F02FFD184AF5
:10865000184B14F052FD14F053FE00900191019B51
:1086600000225B005908144B14F047FD14F0F8FD8C
:108670000006B060002220002900124B14F016FD05
:108680000B4A0C4B14F039FD14F03AFE4B0000225B
:108690005908094B14F031FD14F0E2FD0006F060BA
:1086A00002B070BD0000084000408F405816002006
:1086B0001F85EB51B81E094000C062400000D03F4A
:1086C0000000E03F0000E83FF0B5CE4600B50700EF
:1086D00084B08946C1688068160016F035FBB86022
:1086E00016F020FC02000B0014F0E0FC0022414BCD
:1086F00014F0D3FC04000D003F4A404B14F0FDFC85
:1087000022002B0014F0F9FC3D4A3E4B14F0CEFC45
:10871000040038690D0016F005FC02000B00200073
:10872000290014F0EAFC14F0BFFD3060B86816F0C0
:10873000F9FB354A354B14F0E0FC14F0CBFD7E69B3
:1087400002900391B86916F065FB311C16F0F9FA36
:1087500016F0E8FB029A039B04000D000020254957
:1087600014F09BFC00222A4B14F0C7FC02000B0003
:108770002000290014F0C1FC0400301C0D0016F08C
:10878000D1FB02000B002000290014F08FFC14F034
:108790008BFD4B46FE211860B868890516F030FB4A
:1087A000431E98411B4B05001868022103681B6992
:1087B0009847FC692821200014F000FA3B6A8342A4
:1087C00005D00721386214F0F9F9002906D02800F5
:1087D0000A34FC6104B080BCB946F0BDAF227B68AE
:1087E0005200586C0091962302310DF059FBFC6940
:1087F000EDE7C0460000F03F666666666666E63FE7
:10880000333333333333D33F6E861BF0F9210940C2
:108810000000E03F90030310F0B5C64616000400C8
:108820000D0000B5180014F0DFFC284A284B14F0A6
:1088300064FC3368002723612B68636114F0ECFC4F
:1088400014F0D2FC02000B000020224914F037FC87
:1088500014F02AFDA760E06025F0ACFA2B687821BF
:10886000984614F0ABF906983C390A304843142175
:1088700014F0A4F9B43016F0CDFA011C061C4046E1
:1088800016F062FA1449051C16F0BAFA002809D14C
:10889000391C281C16F09EFA002803D1281C16F05B
:1088A000DBFA05E0311C404616F04BFA16F0D4FA1C
:1088B000B4235B00984202DCC343DB170340A3618F
:1088C0000023E36180BCB846F0BDC0463333333388
:1088D0003333F33F000024400000B443F0B5D646E4
:1088E0004F4646468046C0B5180091468A4614F069
:1088F0007BFC664B04000A20185E0D0014F074FC2B
:1089000002000B0014F0D2FB0022614B14F0F5FBC7
:108910002B00220014F0D3FB14F0C6FC4346186170
:108920004B46071C00211868089E16F069FA0028BB
:1089300005D080231B069C46434667441F61700098
:10894000801940000F3016F065FA5249061C16F0E7
:1089500041FA002800D182E04F49301C16F050FA4D
:10896000002800D17DE043469E6025F023FAC3171E
:108970009B0DC0188005800DC01A14F035FC002234
:10898000464B14F0BAFB0022454B14F0B6FB002214
:10899000424B14F08BFB4346060098680F0016F01C
:1089A000C1FA0B0002003900300014F0A6FB14F0ED
:1089B00033FC4B4607000021186816F021FA002806
:1089C00005D025F0F7F901234246034013765346BC
:1089D00038001E6816F01EFA071C011C301C16F029
:1089E000B3F9391C8146301C16F0ABF92D49071C30
:1089F000484616F005FA00283CD0002342460021E4
:108A00001376381C16F0E6F900282CD1381C16F025
:108A100023FAB4235B0098421DDD180043465861D9
:108A200016F0F8F9311C16F08CF91F4916F0A3F96D
:108A300016F078FA02000B0014F038FB2B0022002D
:108A400014F03DFB14F030FC4346D860E0BCBA465D
:108A5000B146A846F0BDC343DB171840DEE70D4E14
:108A600081E70D4E7FE7012342461376484616F014
:108A7000F3F9CEE70021381C16F0ACF90028F2D14A
:108A800043461B7E002BC1D0F0E7C0462C160020C9
:108A90000000244000009642000070410000E03FCA
:108AA0000000503F0000B44300002041F0B5C6462E
:108AB000060000B5C0681700884616F033FA0400B7
:108AC0000D0002000B000020364914F0E6FA364A89
:108AD000364B14F012FB22002B0014F0E7FA14F0CE
:108AE000E3FBF060041C306916F01CFA304A314B8D
:108AF00014F003FB14F0D8FB4346FA2130611C60EC
:108B00003369B0683B602C4B49001F6814F056F87D
:108B1000062114F053F83B6838001B69C9B2984726
:108B2000B3681800984614F05FFB0022234B14F042
:108B3000E4FA0022224B14F0C2FA224A224B14F02B
:108B4000DCFA14F0DDFB0022204B14F0D6FA0022F0
:108B50001E4B14F0ABFA00221D4B14F0CEFA0D00A0
:108B6000FA210400C900404614F028F8013014F03E
:108B70003BFB02000B002000290014F0A0FA14F0C7
:108B80006FFB3B68C1B25B6838009847B368380038
:108B90000A33B3603B6801211B699847002080BC01
:108BA000B846F0BD008066407B14AE47E17A843F52
:108BB000AE47E17A14AEEF3F900303100000F83F98
:108BC00000408F401F85EB51B81E19400000E03F68
:108BD00000E06F40F0B5DE4657464E464546E0B5EC
:108BE00083B00190002876D0019BDB689946002B6A
:108BF00068D04B46DB689A46002B59D05346DB6859
:108C00009B46002B4AD05B46DC68002C32D0E568DE
:108C1000002D1DD0EB689846002B22D04346DE681D
:108C2000002E31D0F768002F09D0F868FFF7D2FF87
:108C30003800BF68142116F097FB002FF5D1B768F4
:108C40001421300016F090FB002F1DD03E00E9E704
:108C5000A5681421200016F087FB002D0AD02C00F7
:108C6000D5E7AE681421280016F07EFB002EEFD069
:108C70003500CFE75B469C681421584616F074FB1C
:108C8000002C0BD0A346BEE743469E681421404605
:108C900016F06AFB002EE4D0B046BFE753469C684E
:108CA0001421504616F060FB002C01D0A246A5E727
:108CB0004B469C681421484616F056FB002C01D008
:108CC000A14696E701981421846816F04DFB002C0C
:108CD00001D0019488E703B0F0BCBB46B246A94678
:108CE000A046F0BD70B50C4BC46F05000360002CAE
:108CF00009D0E068FFF76EFF2000A468142116F089
:108D000033FB002CF5D1E86E002802D003685B68C5
:108D10009847280070BDC04648FF021070B50E4B42
:108D2000C46F05000360002C09D0E068FFF752FF14
:108D30002000A468142116F017FB002CF5D1E86E72
:108D4000002802D003685B6898472800A02116F02D
:108D50000BFB280070BDC04648FF0210F0B5DE4690
:108D600057464E464546E0B5836B04009DB0002B48
:108D700005D1C14B616C5A6A006C914228D923001D
:108D800038335B7D002B27D1BC4BA06C1E6816F0DE
:108D900095F8BB4FC0B201023D8809180904002DA7
:108DA0000BD0962000227B7C4000834201DA9C009D
:108DB000315101320133AA42F7DB31607160B16099
:108DC000F1601DB0F0BCBB46B246A946A046F0BD5E
:108DD0009B6A834200D201E19621A94D49002A886D
:108DE000131C8A4200D9A0E019A80100A54A9BB231
:108DF000C0CAC0C112780A70002B17D000279F4E3E
:108E0000BC46326827009046962644460021A94673
:108E1000B8466A7C7600B24202DA65469700E551B0
:108E2000013101328B42F6DC44464D46A269092AE3
:108E30006BDC022251008A18815C8018E269477855
:108E4000D60FB618721066680292A936FF3672689D
:108E50008078012A6BD0002B40D0002290462D3222
:108E60003F04FF320906394392460002834A014318
:108E7000A146002744469346A84603911D000FE0F3
:108E8000534504DA5A46039912689B009950693495
:108E90000137FF34BD421FDD4B465E68A936FF3601
:108EA0002900200013F08AFE43460221595E029AEF
:108EB000411A300008F000F943465B7CDB190028BA
:108EC000DED15345E3DA5A4612689B006934013714
:108ED0009850FF34BD42DFDC4C464546E06E0368E7
:108EE0001B69984758239C46A44463460A931B7CFD
:108EF000002B00D165E7E26D2F880292052B00D987
:108F000026E1614A9B00D3589F460721226A01321D
:108F1000D6173140891822620122CE10C90F761867
:108F20003240521A0132D2B284E70B1C5CE7002BAC
:108F3000D4D0002209063F04394300020143914680
:108F4000039129002D32FF3292464C4A4D46A346EA
:108F5000984634000A924E46894612E04B465B7CA6
:108F60009B19534504DA0A9A039912689B00995099
:108F700069350136FF35B0452DDD5B465C68A934A7
:108F8000FF344146280013F019FE4B460227DF5FED
:108F9000029AC71B3900200008F08EF80028DDD1A6
:108FA0005B4639005868029AA930B431FF3008F0A6
:108FB00083F84B465B7C9B19002800D117E353458F
:108FC000D6DA2E4A039912689B006935013699500A
:108FD000FF35B045D1DC5C464D467FE7914200D07D
:108FE000FAE6CCE6029814F0FFF8284A284B14F071
:108FF00084F80022274B14F062F814F06BF9002279
:10900000254B14F053F80022244B14F076F814F09A
:1090100003F94043FF21060013F0D0FD002F14D0C8
:10902000164B00061B6896219C466B7C250000228F
:1090300004006046AC4649008B4201DA9D00445171
:10904000013201339742F7DC6446154B01211D685C
:109050002B6828001B699847FF213000490013F056
:10906000ADFD2B68C1B25B6828009847E36D0293A1
:10907000236E0393ADE2C046004005405816002021
:109080002C16002064FF0210B0EE02106E861BF05A
:10909000F9210940000044400000F03F00C05F405B
:1090A00090030310029814F09FF8984A984B14F01C
:1090B00024F80022974B14F002F814F00BF9002268
:1090C000954B13F0F3FF0022944B14F016F814F0B4
:1090D000A3F84043FF21804613F070FD904E824676
:1090E000002F17D0FF22336812049946030413405F
:1090F0009C462000962164466B7C00224D468446A7
:1091000049008B4201DA98002C500132013397421A
:10911000F7DC6446834B04211D682B6828001B691B
:109120009847FF214046490013F048FD2B68C1B223
:109130005B682800984753465F42FFB23B023268A3
:10914000DB191B04136053609360D360E36D0293DB
:10915000236E03933DE2B4210223E85E636E49006F
:10916000C018784313F02AFD236E0600029803937B
:1091700015F050FE8046039815F04CFE011C404649
:1091800015F0E5FD011C814615F0F5FD002F00D11D
:109190001FE27B00DB195B1098467B085B420C9357
:1091A00015F0C0FE02000B0000205B4913F075FFB4
:1091B00000225D4B13F0A1FF00900191484615F08D
:1091C000B1FE0022594B13F098FF534B00220E9032
:1091D0000F9113F06BFF524B109011911B68069387
:1091E0006B7C1494994600239B4643469B1B129329
:1091F000FF234E469846B9465F4696235B009E4243
:1092000000DB7BE0129B4946D81913F0D7FC0C9B7E
:10921000C818C317C018584013F0E6FF0E9A0F9BEA
:109220000890099113F039FF4B005B0805930490F7
:109230000498059902000B0013F038FF109A119B57
:1092400013F03DFF0022344B13F030FF02000B00FF
:109250000098019913F033FF13F0DEFF069AB30074
:10926000040008980999D5580B930022304B13F04D
:1092700026FF0022284B13F019FF02000B00009874
:10928000019913F01CFF13F0C7FFA04200DA200081
:10929000FF2800DDFF20434642460340280A1040D5
:1092A0000893D31AFF2158439B4613F087FC03020F
:1092B0009A465B46280E5843FF2113F07FFC534625
:1092C000000603439A46FF2C00DDFF2443461C4062
:1092D000089B2D0C63431C0043461D405B466B43BB
:1092E000FF21E01813F06AFCFF2300041B04184060
:1092F0005346034318000B9A069B985001370136DA
:10930000B94500DD79E7149C63E1C0466E861BF029
:10931000F9210940000044400000F03F00C05F40D8
:10932000581600209003031000407F4000002440A6
:1093300000003440236E029E1900984603933300C8
:109340007B43180013F03AFCB42116900223E85E28
:10935000636E4900C018784313F030FC049030006D
:1093600015F058FD061C404615F054FD011C301C3C
:1093700015F0EDFC011C061C15F0FDFCA44B1B6850
:109380009946002F00D1CEE07B00DB195B109A4696
:109390007B085B420B9315F0C5FD02000B0000201B
:1093A0009C4913F07AFE00229B4B13F0A6FE089016
:1093B0000991301C15F0B6FD0022984B0C900D91D0
:1093C00013F09BFE0022934B1290139113F06EFE4C
:1093D0000022149015910C980D99914B13F08DFE6D
:1093E0000C900D916B7C049A9B4600239846534643
:1093F0009B1A0E934B46BA46049317940E98514607
:10940000404413F0DBFB0B9BC818C317C01858402F
:1094100013F0EAFE0C9A0D9B04000D0013F03DFEC4
:109420004B005B08019300907E4B0022009801994D
:1094300013F0AEFE431E9841FF2346421E402D33DB
:109440009B4566DA129A139B2000290013F025FE33
:109450004B005B08079306900698079902000B00E3
:1094600013F024FE149A159B13F029FE0022694B79
:1094700013F01CFE02000B000898099913F01FFE60
:1094800013F0CAFE0700B04200DA37000022664B34
:109490002000290013F013FE00225E4B13F006FE9D
:1094A00002000B000898099913F009FE13F0B4FEAE
:1094B0000600B84200DA3E00FF2E00DDFF265B46C4
:1094C000049A9B0010939B58FF2199464A46FF231C
:1094D000100C9D1B1840684313F070FB4A46FF2395
:1094E0000404100A1840FF21684313F067FB0002D0
:1094F0000443FF2F00DDFF274B46180E77436843D8
:10950000FF21381813F05AFB049B109A00060443FD
:109510009C5001239C46E044E344C24500DD6DE7D6
:10952000049B179C99460521169813F047FB029B54
:1095300005001802C01A039913F040FBC343002230
:10954000DBB2A90761D1494612060A606A1C0021F4
:10955000920758D14A4609065160AA1C0021920779
:109560004FD14A460906033591600022AD0746D126
:109570004B461206DA602CE0216E029B0391CB1A57
:109580001802C01A13F01AFBFF21404313F016FB18
:109590001F4B1E68002F0FD0FF23010496200022CE
:1095A0001B0419406B7C4000834201DA9D0071511D
:1095B000013201339742F7DC029B03991802C01A6B
:1095C00013F0FCFAC343DBB21B0433607360B36077
:1095D000F360029A531CE3651300039A934201DA85
:1095E000FFF7EFFB00230A9A1374FFF7EAFB5345DA
:1095F00000DBBDE4064A9B0012689850B8E41A1CD0
:10960000B6E7191CADE7191CA4E71A1C9BE7C04676
:10961000581600200000F03F00407F40000024402A
:10962000000044400000E03F00003440F0B5C64672
:1096300000B5437E04000D00160082B0002B14D04C
:1096400007690021381C15F0DBFB0021002800D140
:109650006EE0306815F0CCFB002806D080231B0696
:109660009C460023674427616376E168286815F00B
:109670006BFB2860E76880460021381C15F0AAFBC8
:10968000002862D10021381C15F0BAFB00280AD04E
:10969000606915F0BFFB071C011C404615F0B0FBCC
:1096A000002800D02F602169306815F04DFB306034
:1096B0002669051C0021301C15F0A2FB002850D0A3
:1096C000334B0A20185E15F0A5FB011C281C15F071
:1096D0008FFB431E984106002E4B00211D682B680E
:1096E00028001B6998472B6828001B6901219847AF
:1096F000E5694B21280013F061FA236A834205D003
:109700000521206213F05AFA002906D130000A35EB
:10971000E56102B080BCB846F0BD63680221586CB8
:1097200000231D4A009332330CF0BAFBE569EDE7E4
:10973000381C15F04FFB002897D00021306815F039
:109740004FFB002800D190E788E7606915F062FBC5
:10975000071C011C404615F03DFB0028A3D02F60DC
:10976000A1E70021301C15F035FB00280DD0084B77
:109770000A20185E404215F04DFB011C281C15F014
:109780002FFB431E98410600A6E70026A4E7C0462B
:109790002C16002090030310DC050000F0B54F46A6
:1097A000DE464646C0B507008946406A84B0086078
:1097B000F968140015F0C8FA4B461860FE68051CDD
:1097C0000021301C15F006FB002800D0BDE0002170
:1097D000301C15F015FB00280BD0786915F01AFB2A
:1097E000061C011C281C15F00BFB002801D04B4661
:1097F0001E603969206815F0A7FA20603C69051CD5
:109800000021201C15F0FCFA002800D1A9E0624BD1
:109810009B460A20185E15F0FDFA011C281C15F065
:10982000E7FA431E984180465C4B00211E6833686E
:1098300030001B6998474B461B68396A7B62F869A0
:1098400015F082FAF86115F06DFB554A554B13F08F
:1098500054FC0022544B04000D0013F04EFC13F096
:109860004FFD029003912000290013F049FD0200F2
:109870000B000298039913F040FC00224B4B13F0AD
:109880003CFC4B46040018680D0015F04BFB020031
:109890000B002000290013F009FC13F005FD4449DA
:1098A000041C15F097FA00284BD00021201C15F05D
:1098B000A7FA002847D04B461C60336830001B696C
:1098C00004219847B86A642113F078F90121C30F85
:1098D000C0180140C91A5B469B7C3000594333686D
:1098E000C9B25B689847B86A13F07EFC0022314B1E
:1098F00013F003FC304A314B13F0FFFB0022304BD6
:1099000013F0DDFB13F0D0FC15F028FB2D4915F00A
:1099100032FA2D4915F018FA15F09EFA7B6802000C
:10992000586C00230221009350330CF0B9FA4046E2
:10993000BB6A0A33BB6204B0E0BCBB46B146A84672
:10994000F0BD1B4CB7E70024B5E7786915F062FA63
:10995000061C011C281C15F03DFA002800D148E720
:1099600045E70021201C15F035FA00280ED00A4BDF
:109970009B460A20185E404215F04CFA011C281C38
:1099800015F02EFA431E984180464DE70023984675
:10999000014B9B4648E7C0462C160020900303105D
:1099A0003524EEB1F42109400000084000003440A5
:1099B0000000B443000020401F85EB51B81E094051
:1099C00000408F4000007A4300002F44F0B5C646A7
:1099D000806800B513F008FC02000B0013F066FB72
:1099E00000226F4B13F06BFB0022002304000D00DC
:1099F00013F05CFB6B4A6C4B13F07FFB13F080FCA5
:109A000000226A4B13F079FB13F04EFCFE2189050E
:109A1000061C15F0DFF900285ED1FF2398460022CE
:109A2000634B2000290013F041FB5E4A5E4B13F0AC
:109A300064FB13F065FC00225C4B13F05EFB13F03B
:109A400033FCFE218905061C15F0C4F9FF27002808
:109A500000D085E00022574B2000290013F026FBA0
:109A6000504A514B13F049FB13F04AFC00224F4B74
:109A700013F043FB13F018FCFE218905061C15F0BA
:109A8000A9F9002855D1FF26002220004A4B2900C1
:109A900013F00CFB434A444B13F02FFB13F030FC44
:109AA0000022424B13F029FB13F0FEFBFE21890537
:109AB000041C15F08FF9002825D1FF2042463F4BAA
:109AC0003F061B683606120600065F609E601A603D
:109AD000D86080BCB846F0BD3949301C15F090F90B
:109AE000002856D0301C15F01DFA0022354B13F01B
:109AF000DDFA0022344B13F000FB13F0D5FB15F018
:109B0000ABF980468BE72E49201C15F079F9002827
:109B100044D0201C15F006FA00222A4B13F0C6FA96
:109B20000022294B13F0E9FA13F0BEFB15F094F96B
:109B3000C4E72349301C15F063F900282CD0301CF1
:109B400015F0F0F900221F4B13F0B0FA00221E4B63
:109B500013F0D3FA13F0A8FB15F07EF9060093E793
:109B60001749301C15F04CF90027002800D171E787
:109B7000301C15F0D7F90022124B13F097FA00228F
:109B8000114B13F0BAFA13F08FFB15F065F90700CB
:109B900060E70023984642E7002675E700208DE73E
:109BA00000408F401F85EB51B81E19400000244033
:109BB0000000D03F0000E03F0000E83F58160020C2
:109BC000000080BF0000F03F00E05F40F0B5D646E7
:109BD0004F4646468068C0B513F006FB02000B00F6
:109BE00013F064FA00227F4B13F069FA002200237D
:109BF00004000D0013F05AFA7B4A7C4B13F07DFAF7
:109C000013F07EFB00227A4B13F077FA13F04CFB33
:109C1000FE218905061C15F0DDF8FF27002800D07D
:109C20007AE00022734B2000290013F03FFA6E4ABD
:109C30006E4B13F062FA13F063FB00226C4B13F0CF
:109C40005CFA13F031FBFE218905061C15F0C2F801
:109C5000002800D0A7E0FF260022674B2000290043
:109C600013F024FA604A614B13F047FA13F048FBF3
:109C700000225F4B13F041FA13F016FBFE21890519
:109C8000804615F0A7F8002800D075E0FF2398461D
:109C900000222000594B290013F008FA524A534B76
:109CA00013F02BFA13F02CFB0022514B13F025FA82
:109CB00013F0FAFAFE218905041C15F08BF8002830
:109CC00043D1FF239A464E4B34041968FF231B04EB
:109CD0001C409C4645463B061A002D06280C224394
:109CE000024340460A603206060460461B0C0640EA
:109CF000134333434B603B0403405046120C0006B1
:109D00002B432243050C2B4302438B60CA60E0BC0B
:109D1000BA46B146A846F0BD3A49301C15F070F875
:109D20000027002800D17CE7301C15F0FBF800224A
:109D3000354B13F0BBF90022344B13F0DEF913F06E
:109D4000B3FA15F089F807006BE72E49201C15F0CF
:109D500057F800283ED0201C15F0E4F800222A4BCA
:109D600013F0A4F90022294B13F0C7F913F09CFA61
:109D700015F072F88246A6E74046224915F040F8F1
:109D800000282CD0404615F0CDF800221E4B13F0D1
:109D90008DF900221D4B13F0B0F913F085FA15F080
:109DA0005BF8804674E71749301C15F029F8002845
:109DB00013D0301C15F0B6F80022134B13F076F9CF
:109DC0000022124B13F099F913F06EFA15F044F8D3
:109DD000060041E700239A4675E700263CE700238A
:109DE000984655E700408F401F85EB51B81E19403B
:109DF000000024400000D03F0000E03F0000E83FAA
:109E000058160020000080BF0000F03F00E05F40D7
:109E1000F0B5CE4600B5040082B0180091460D00A2
:109E200013F0E2F90022664B13F067F913F0F4F92E
:109E300013F0DAF900900191624B089E0A20185E37
:109E400013F0D2F902000B0013F030F900225E4B40
:109E500013F053F9009A019B13F031F913F024FA2F
:109E60004B462061071C0021186814F0C9FF002828
:109E700004D080231B069C4667442761700080192C
:109E800040000F3014F0C6FF5049061C14F0A2FF2A
:109E9000002800D17FE04E49301C14F0B1FF0028AB
:109EA00000D17AE0A66023F085FFC3179B0DC01890
:109EB0008005800DC01A13F097F90022454B13F06E
:109EC0001CF90022444B13F018F90022414B13F007
:109ED000EDF80600A0680F0015F024F80B00020052
:109EE0003900300013F009F913F096F94B460700DA
:109EF0000021186814F084FF002804D023F05AFFD2
:109F0000012303402376380014F084FF2E68071CD9
:109F1000011C301C14F018FF391C051C301C14F0F7
:109F200010FF2E49071C281C14F06AFF00283CD0A3
:109F3000002300212376381C14F04CFF00282ED17A
:109F4000381C14F089FFB4235B0098421FDD180011
:109F5000606114F05FFF311C14F0F3FE204914F02F
:109F60000AFF14F0DFFF02000B0013F09FF8009AC5
:109F7000019B13F0A4F813F097F9012363760023F3
:109F8000E0602362E36102B080BCB946F0BDC34328
:109F9000DB171840DCE70D4E84E70D4E82E7012306
:109FA0002376281C14F058FFCDE70021381C14F04C
:109FB00011FF0028F3D1237E002BC1D0F1E7C0466A
:109FC0000000F83F2C1600200000244000009642BC
:109FD000000070410000E03F0000503F0000B4432B
:109FE00000002041F0B5D6464F4646468046C0B5F3
:109FF00018009246894613F0F7F8734A734B13F032
:10A000007CF813F009F913F0EFF8714B04000A2003
:10A01000185E0D0013F0E8F802000B0013F046F88C
:10A0200000226C4B13F069F82B00220013F047F864
:10A0300013F03AF9434618615346071C002118688B
:10A04000089E14F0DDFE002805D080231B069C46E8
:10A05000434667441F617000801940000F3014F0C0
:10A06000D9FE5D49061C14F0B5FE002800D194E02D
:10A070005A49301C14F0C4FE002800D18FE043463A
:10A080009E6023F097FEC3179B0DC0188005800DBE
:10A09000C01A13F0A9F80022514B13F02EF8002239
:10A0A000504B13F02AF800224D4B12F0FFFF4346AD
:10A0B000060098680F0014F035FF0B00020039000D
:10A0C000300013F01AF813F0A7F8534607000021E8
:10A0D000186814F095FE002805D023F06BFE0123CC
:10A0E0004246034013764B4638001E6814F092FE39
:10A0F000071C011C301C14F027FE391C8246301C42
:10A1000014F01FFE3849071C504614F079FE002851
:10A110004ED00023424600211376381C14F05AFE1C
:10A1200000283ED1381C14F097FEB4235B009842FF
:10A130002FDD18004346586114F06CFE311C14F0FA
:10A1400000FE2A4914F017FE14F0ECFE02000B008A
:10A1500012F0ACFF2B00220012F0B1FF13F0A4F8B4
:10A1600043462200D8601B492B00002012F0A7FFB5
:10A1700013F09AF84346424618620023D3614B46D7
:10A180001B68536200239362E0BCBA46B146A846FE
:10A19000F0BDC343DB171840CCE70F4E6FE70F4EFF
:10A1A0006DE7012342461376504614F055FEBCE796
:10A1B0000021381C14F00EFE0028F2D143461B7E0D
:10A1C000002BAFD0F0E7C046CDCCCCCCCCCCFC3F04
:10A1D0002C16002000002440000096420000704130
:10A1E0000000E03F0000503F0000B4430000204169
:10A1F000F8B5234B04001E680021336830005B680B
:10A2000098473368300000221B681E499847012395
:10A210007622A354013AA3540023A3601A4B1A6870
:10A220005B68A261E36122616361A262E36212F092
:10A230001BF82063616323F0BDFD050012F014F8E4
:10A2400006000F002800052112F0B8FCFA220531A3
:10A250004801401A80004018C00000239200C11736
:10A2600014F052FD801979410B008021020009068B
:10A270008B4202D30122054B5242A263E363F8BD35
:10A280009003031000003443E0070310FFFFFF7F3B
:10A290007623002210B5C254034B002118680368CE
:10A2A0005B68984710BDC0469003031076230522D3
:10A2B000C2547047F8B5DE4657464E4645467623AB
:10A2C000E0B5C35C052B47D0032B5BD09621314F03
:10A2D00049003A88161C8A4244D8B6B2012B45D0B0
:10A2E000002E54D0D4235B0098462B4B00259A4671
:10A2F00096235B009946294B00249B4680440BE043
:10A300004B4504DA5246594612689B00995069350C
:10A310000134FF35A64219DD3100280012F04EFC51
:10A320000223F95E0F22411A404606F0C5FE7B7CEF
:10A330001B190028E4D14B45E9DA524612689B000C
:10A34000693501349850FF35A642E5DC53461022AA
:10A350000021186814F0F4FFF0BCBB46B246A946D1
:10A36000A046F8BD0E1CB6B2012BB9D1A833FF33FD
:10A370009846804443465B68002BB1D1483007F0D3
:10A3800073F9E9E7006C03689B699847E4E7024BBF
:10A390009A46DBE72C16002058160020000A0AFF18
:10A3A00070B505000E00140016F0A8FD022800D0BC
:10A3B00070BD2800013CE2B2711C78300EF062FEE4
:10A3C000F6E7C046742310B5C154436C7830197257
:10A3D0000EF0C4FF10BDC046F0B5454657464E4688
:10A3E000DE46E0B506684568884634499246AA1BB1
:10A3F000040083B053108B425CD04046801B8146E2
:10A40000AE423ED0934228D8002300279B46002A24
:10A410003AD153464A461B88BB524B4602339A46B2
:10A420004346ED1A2B00BA4453440193002A1CDC26
:10A43000002D04DD2A004146504614F087FF002E0F
:10A4400019D1019B276063605B46A36003B0F0BC39
:10A45000BB46B246A946A046F0BD194B9B4658469E
:10A4600014F07AFF07008344D3E73100380023F06B
:10A47000FBF9002D0FDCA1683000891B14F074FF7C
:10A48000DFE75A1C0133E8D28023DB059A420DD264
:10A4900053009B46E3E741462A00504614F056FF1E
:10A4A000A1683000891B14F05FFFCAE70A0053005F
:10A4B0009B46D4E703481AF045F8C046FFFFFF3F2C
:10A4C000FEFFFF7FC8EE0210F0B54E464546DE4661
:10A4D0005746E0B505007835040085B028000EF039
:10A4E00099FC98230322E250043398462600A044A6
:10A4F0009D36043B474603219946FF3601E04B4613
:10A50000E1584346FA1A2800D2B2C9B20EF0F6FC5E
:10A51000431E984138700137BE42F0D1CE235B0014
:10A52000E3587268934200D07360982300279A46DC
:10A530007B1D9B46DBB2994604E07B1C9FB2DBB2DD
:10A540004B451BD04B239846B8444346DAB253469A
:10A550002800E15C0EF0D2FC0028EED043466A46AB
:10A560009BB2D3817168B26891421DD00B807B1C75
:10A5700002319FB2DBB271604B45E3D15B469FB2C3
:10A580000F2FD5D12000FFF733FE276C002F12D0FC
:10A5900020000021483007F05DF805B0F0BCBB4654
:10A5A000B246A946A046F0BD0E236B441A00300007
:10A5B000FFF712FFC1E7A02014F0CEFE2B4B0122C3
:10A5C00003602B4B8262C3600023036143619846A2
:10A5D0001E23C36100237732856044608761076270
:10A5E0008784C76207630465C766076783540200F0
:10A5F00080217832C7674250043142508822875008
:10A6000002001C49903206000868496810605160D9
:10A6100098221C20B35414F09FFE174B05000360D2
:10A62000164B446083604346C3600361F06EF56679
:10A63000002818D003685B689847F56E2B689F6800
:10A64000F368984623F0B6FB142112F0B7FA002005
:10A650000B003200310000904344280014321031C6
:10A66000B847266494E7064FEAE7C04648FF021061
:10A6700088130000E0070310A0FE0210000034421F
:10A68000DD880010F8B54546DE4657464E4603685D
:10A69000E0B5934646682F4A984605000F00F31A26
:10A6A000934253D04146791A8A46002B44D09146B2
:10A6B0005900994243D2484614F04EFE5B4652463A
:10A6C0001B7804008354012353449B46F61B002A45
:10A6D00027DC8344002E0DDC43465E44002B19D159
:10A6E0002C604C446E60AC60F0BCBB46B246A946E0
:10A6F000A046F8BD32003900584614F027FE434604
:10A700005E44002BECD005E032003900584614F0CE
:10A710001DFE5E444346A968C91A404614F024FE53
:10A72000DEE7414623F0A0F8A344002EECDC4346CC
:10A73000A9685E44C91AF0E701239946BBE7802364
:10A7400089461B069942B6D39146B4E7024819F0F0
:10A75000F9FEC046FFFFFF7FC8EE0210F0B5474686
:10A76000CE46FA2680B504000F00904687B0B600AA
:10A77000B14200DA66E13100380012F01FFA310010
:10A780000500380012F01AFA28000F00310012F00C
:10A7900015FA0E0001295EDC216A1D222000C9B2D3
:10A7A0000EF052FB00233D00632F0EDD64213800C4
:10A7B00012F004FA0D00C72F00DDCBE0216A1C2245
:10A7C0002000C9B20EF040FB0023142D36DD0A2113
:10A7D000280012F0F3F9216A0600C9B207281CD03C
:10A7E000092800D18AE0020043071B1A9B001B1AAC
:10A7F0005B001232ED182000D2B20EF025FB012DC5
:10A8000000D1BBE00B2D00D118E10123002DDCD1DC
:10A8100007B0C0BCB946B046F0BD3C3D1822200090
:10A820000EF012FB012D00D1F3E00B2DEDD1216ACA
:10A830001E222000C9B20EF007FB0123002D00D01C
:10A84000B0E00025002BE3D0216A2A002000C9B225
:10A850000EF0FAFADCE7632900DCF5E06421300051
:10A8600012F0ACF90D00C72E7EDC216A1C222000FC
:10A87000C9B20EF0E9FA0023142D20DD0A212800C8
:10A8800012F09CF9216A0600C9B2072824D00928D1
:10A8900042D0020043071B1A9B001B1A5B001232B6
:10A8A000ED182000D2B20EF0CFFA012D75D00B2D8D
:10A8B0004BD0002D00D16FE70123142DDEDC002DDD
:10A8C00036D10025002B00D166E7216A2A0020003E
:10A8D000C9B20EF0B9FA5FE73C3D182220000EF035
:10A8E000B3FA012D00D1A1E00B2DE2D1216A1E2285
:10A8F0002000C9B20EF0A8FA0123DEE7503D1A226B
:10A9000020000EF0A1FA012D3BD00B2D00D07CE7EA
:10A910000B25216AEDB298E7503D1A2220000EF077
:10A9200093FA012D3BD00B2D11D0002D00D133E730
:10A93000012D00D0CFE04346216A002BC6D01F2254
:10A940002000C9B20EF080FA26E7082ECED10B25E2
:10A950000123B2E76421380012F030F942460100C9
:10A960002000FFF7FBFE29E76421300012F026F9F2
:10A97000424601002000FFF7F1FE76E7082E00D0E6
:10A9800055E743460125216A002B00D15DE71F22D0
:10A990002000C9B20EF058FA3AE7082EA6D10125D8
:10A9A00001238AE7012DECD06B1CB2D100220023D9
:10A9B00002920393002324320493A25C02AE002A85
:10A9C00045D12533E35C002B76D12623E35C002BB5
:10A9D00000D03BE12723E35C002B00D005E1002100
:10A9E00000252823E35C002B5BD1029E8F1BB54220
:10A9F00000D1EEE023F0DEF9A91B12F007F9755C37
:10AA0000002E00D120E73900300014F0ADFC216A9F
:10AA10001BE7216A1E22C9B220000EF015FA434638
:10AA20000125216A002B00D10FE7B0E7216A1E2221
:10AA30002000C9B20EF008FA0125B1E7082E00D1B6
:10AA400066E7F4E60123AEE60D00012335E70722B1
:10AA50006A440021137030009146FFF713FE25234E
:10AA6000E35C7568B168002B00D0E5E02623E35C69
:10AA7000002B08D002234A461370A94200D1ECE013
:10AA80002B70013575602723E35C002BA9D00323CD
:10AA90004A4613708D4200D1AEE02B7001357560CF
:10AAA0009FE76B46DA1D04231370A94200D1F2E040
:10AAB0002B700135756098E707236B449946012395
:10AAC0004A460025137029004A463000FFF7DAFD98
:10AAD0007568B168CAE76B1C00D0E2E00022002371
:10AAE00002920393002324320493A25C02AE002A54
:10AAF00026D12533E35C002B5DD12623E35C002BBC
:10AB000000D0B2E02723E35C002B7DD1002100259B
:10AB10002823E35C002B3BD1029E8B1B9946AE425F
:10AB20005FD023F047F9A91B12F070F8755C002E76
:10AB300000D1CAE64946300014F016FC216AC5E689
:10AB400007226A440021137030009146FFF79AFDF6
:10AB50002523E35C7568B168002B64D12623E35C90
:10AB6000002B08D002234A4613708D4200D183E0A7
:10AB70002B70013575602723E35C002BC8D00323BD
:10AB80004A4613708D4246D02B7001357560BFE781
:10AB90006B46DA1D042313708D4275D02B7001357E
:10ABA0007560029E8B1B9946B542BAD14946280072
:10ABB00014F0DAFBF0E507236B44994601234A467B
:10ABC000002113704A463000FFF75CFD7568B168DC
:10ABD000C4E7002D00D11BE63900280014F0C4FBA7
:10ABE00016E6002D00D1D7E5E0E707236B44994630
:10ABF00003234A460025137029004A463000FFF718
:10AC000041FD7568B168ECE607236B449946032360
:10AC10004A460025137029004A463000FFF732FDEE
:10AC20007568B16874E701234A4613708D42C9D034
:10AC30002B700135756091E701234A461370A942D4
:10AC400000D140E72B70013575600FE707236B4497
:10AC5000994602234A460025137029004A463000CF
:10AC6000FFF710FD7568B1680DE707236B4499463F
:10AC700002234A460025137029004A463000FFF798
:10AC800001FD7568B16876E729003000FFF7FAFC2E
:10AC90007568B16840E73000FFF7F4FC7568B1688B
:10ACA000A3E6216AEDB211E6F0B5D6464F46464618
:10ACB0000400006CC0B5036804229968C54B86B0D7
:10ACC000994200D012E1C44BA1689B7D002B00D1BA
:10ACD000BEE08A4201DA1100A260002900D144E1FD
:10ACE00076220323A354246CBC492268D2688A428A
:10ACF00000D056E101220025A262E36225632567A8
:10AD000023F058F81E2111F059FFB54B00269C4640
:10AD10006144E160A561666123F04CF8B42149000B
:10AD200011F04CFF080014F075F820611C206768D2
:10AD300014F012FB0500AB4B47600360AA4BC660E2
:10AD400083600661E06EE566002800D111E10368CA
:10AD50005B689847E56E2B689E68E76823F02AF8E1
:10AD6000142111F02BFF0022CB19009221002200A8
:10AD7000280014321031B0479C4B00211D682B680D
:10AD800028005B6898472B68A16A9A68012900D15E
:10AD9000FDE00239481E8141890002319448824217
:10ADA00000D0BCE1280000211B6998472B682800CF
:10ADB000002221691B6898478E4B102200211868D9
:10ADC00014F0BEFAA56A012D00D119E18A49A068E4
:10ADD0000EF04EF81E232069E36114F03DF80021C7
:10ADE0000500606913F0F6FF002806D02800B421A2
:10ADF000B430490011F0E2FE0D0023000122583367
:10AE00001A74642300262366613BA363E6656566C6
:10AE1000A68411F029FA02224C23FF3220646164D7
:10AE2000E252E368FA3AD9170A40D2186368D2109E
:10AE3000586C07210023643200960BF031F86368E8
:10AE40000022586C0B21002300960BF029F847E0F4
:10AE50008A4200DB41E7220003AE0B320393FF324C
:10AE60007360B3601278002A43D123000C33FF33A0
:10AE70001B78002B00D07EE023000D33FF331B78BE
:10AE8000002B00D04FE123000E33FF331B78002B43
:10AE900000D089E00021002523000F33FF331B7809
:10AEA000002B57D1039E8F1BB54200D171E022F0D9
:10AEB00081FFA91B11F0AAFE755C002E03D039009A
:10AEC000300014F051FA98236E35E15C783420009C
:10AED000EAB20DF0B9FFFA21200089000DF0C8FF99
:10AEE00006B0E0BCBA46B146A846F0BD88470200AD
:10AEF000E9E60B276F4400213B703A003000FFF772
:10AF0000C1FB23000C33FF331B787568B168002B3D
:10AF100057D123000D33FF331B78002B07D00223BA
:10AF20003B708D4200D103E12B7001357560230029
:10AF30000E33FF331B78002BAED003233B708D42C2
:10AF400037D02B70230001350F337560FF331B782A
:10AF5000002BA7D00B2204236A4413708D4200D12A
:10AF600023E12B70013575609CE72000FFF740F965
:10AF7000B6E7224EF1E60B27012300216F443B7018
:10AF80003A003000FFF77EFB7568B168C1E7002129
:10AF900004E77834002D9ED03900280014F0E4F93D
:10AFA00099E7200090479BE70B27032300256F4478
:10AFB0003B7029003A003000FFF764FB7568B16808
:10AFC0006AE701233B708D42DAD02B700135756042
:10AFD0009FE7C046218300102C1600209DBA001068
:10AFE00088130000A0FE02100000344290030310FA
:10AFF000D981001058160020DC050000DD88001003
:10B00000A368972299460023494603AE03937360D1
:10B01000B3608A5C002A00D092E09833CB5C002BAE
:10B0200000D02CE19923CB5C002B00D06BE19A235C
:10B030004A46D35C002B00D043E100230021984610
:10B040009B234A46D35C002B00D0F2E0039D4B1BB0
:10B050009A46454500D122E122F0ACFE4346591BF9
:10B0600011F0D4FD6F5C002D03D05146280014F080
:10B070007BF94B46196A73374846FAB2C9B20DF0EC
:10B08000E3FE636800229968A068FFF767FBA06889
:10B090002522016AC9B20DF0D7FEFA21A068490045
:10B0A0000DF0E6FEA368DD22984600234146039397
:10B0B0007360B3608A5C002A00D090E0DE33CB5C22
:10B0C000002B00D0CEE0DF23CB5C002B00D029E1A9
:10B0D000E0234246D35C002B00D0E5E000210025B0
:10B0E000E1234246D35C002B66D1039E8F1BAE4208
:10B0F00000D1D0E022F05EFEA91B11F087FD755C47
:10B10000002E03D03900300014F02EF94346196A9E
:10B11000473D4046EAB2C9B20DF096FE56E6280019
:10B1200090472B683EE60B27022300256F443B70B7
:10B1300029003A003000FFF7A5FA7568B168F6E615
:10B140000B276F443A0000213B703000FFF79AFA5A
:10B1500073684A4698469823D35CB168002B00D0A8
:10B16000BEE099234A46D35C002B0BD002233B70F0
:10B17000884500D1CDE04246137001239C46E0444F
:10B18000434673609A234A46D35C002B00D157E7AD
:10B1900003233B70884500D199E042461370012398
:10B1A0009C46E044434673604AE729003000FFF7BD
:10B1B00069FA7568B16875E60B2204236A44137056
:10B1C0008D4200D1BBE02B7001357560039E8F1B53
:10B1D000AE428FD13900280014F0C6F8F6E50B27EF
:10B1E0006F443A0000213B703000FFF74BFADE233A
:10B1F0004246D35C7568B168002B7CD1DF234246A0
:10B20000D35C002B07D002233B70A94200D18EE013
:10B210002B7001357560E0234246D35C002B00D1D2
:10B220005EE703233B70A94243D02B700135756064
:10B2300056E70B2204236A441370884500D185E049
:10B2400042461370033B9C46E0444346039D7360B3
:10B250004B1B9A46454500D0FEE65146404614F049
:10B2600083F80EE70B27012300256F443B7029006C
:10B270003A003000FFF706FA7568B168BEE70B27A1
:10B2800000216F443D703A003000FFF7FBF973680E
:10B29000B168984665E7002D00D197E59AE74346E7
:10B2A000002B00D1EDE6D8E70B27032300256F44E0
:10B2B0003B7029003A003000FFF7E4F97568B16887
:10B2C0000EE70B2703236F443B700023984641464B
:10B2D0003A003000FFF7D6F97368B1689846AFE6D8
:10B2E0003D708845CFD043461D7001239C46E04405
:10B2F0004346736035E701233B70A942B7D02B70FA
:10B30000013575607AE70B2702236F443B700023F9
:10B31000984641463A003000FFF7B4F97368B168C7
:10B3200098462FE70B27022300256F443B70290026
:10B330003A003000FFF7A6F97568B1686BE729009D
:10B340003000FFF79FF97568B168CEE641463000DE
:10B35000FFF798F97368B168984677E6836AF0B5A5
:10B36000013B9D05ED1AAD00C646ED182D01ED1807
:10B37000ED00ED18AB4B00B59C4686B06D000400A7
:10B38000654422F017FD1E2111F018FC0026002351
:10B390004919A361E160666122F00CFDB421490006
:10B3A00011F00CFC080013F035FD20611C206768CB
:10B3B00013F0D2FF05009C4B476003609B4BC660B7
:10B3C00083600661E06EE566002800D188E00368CE
:10B3D0005B689847E56E2B689E68E76822F0EAFC98
:10B3E000142111F0EBFB0022CB1900922100220066
:10B3F000280014321031B0478D4B00211D682B6896
:10B4000028005B6898472B68A16A9A6801295FD079
:10B410000239481E814187488900023182425BD14E
:10B42000280000211B6998472B6828000022216909
:10B430001B689847804B10220021186813F080FF8A
:10B44000A56A012D4ED07D49A0680DF011FD1E2387
:10B450002069E36113F000FD00210500606913F02D
:10B46000B9FC002806D02800B421B430490011F0FE
:10B47000A5FB0D002300012258331A746423002613
:10B480002366613BA363E6656566A68410F0ECFE67
:10B4900002224C23FF3220646164E252E368FA3AEC
:10B4A000D9170A40D2186368D210586C07210023BC
:10B4B000643200960AF0F4FC63680022586C0B2199
:10B4C000002300960AF0ECFC06B080BCB846F0BD44
:10B4D000584800218242A3D0280090472B689FE75C
:10B4E000574E7AE700239722A768039304930593A6
:10B4F000BA5C002A00D030E19833FB5C002B00D00E
:10B50000F6E19923FB5C002B00D056E29A23FB5C0A
:10B51000002B00D00FE2002100269B23FB5C002BB8
:10B5200000D069E1039D4B1B9846B54200D1EBE189
:10B5300022F040FC711B11F069FB6E5C002D03D002
:10B540004146280013F010FF396A73363800F2B212
:10B55000C9B20DF079FC6368A6689F68FA239B0066
:10B560009846012347451ADB4146380011F026FB77
:10B5700041460500380011F021FB28000F0041462C
:10B5800011F01CFB012903DD00223000FFF7E6F873
:10B59000316A1D223000C9B20DF056FC0023632F22
:10B5A00000DC43E26421380011F008FB642180468E
:10B5B000380011F003FB336A0D00D9B2C72F05DD47
:10B5C00043463000DAB20DF03FFC336AD9B21C2298
:10B5D00030000DF039FC0023142D00DC72E10A214B
:10B5E000280011F0EBFA316A0700C9B2072800D130
:10B5F000DEE0092826D0020043071B1A9B001B1A15
:10B600005B001232ED183000D2B20DF01DFC012D9E
:10B6100000D1DFE00B2D00D1E1E0002D59D0012356
:10B62000DAE7C04688130000A0FE02100000344292
:10B6300090030310D981001058160020DC0500008B
:10B64000DD880010503D1A2230000DF0FDFB012D69
:10B6500000D1C1E00B2D00D1C3E0002D39D06B1C0F
:10B6600000D02DE100232422039304930593B25CC0
:10B67000002A00D079E12533F35C002B00D0C7E12C
:10B680002623F35C002B00D0F2E12723F35C002B90
:10B6900000D0D5E1002100252823F35C002B00D049
:10B6A00058E1039FCB1B9846BD4200D1C0E122F078
:10B6B00081FBE91B11F0AAFA7D5C002F03D0414603
:10B6C000380013F051FE316A2A003000C9B20DF083
:10B6D000BBFBA0682522016AC9B20DF0B5FBFA21B7
:10B6E000A06849000DF0C4FB0023DD22A668039387
:10B6F00004930593B25C002A00D0A7E0DE33F35C2C
:10B70000002B00D0E5E0DF23F35C002B00D070E1DC
:10B71000E023F35C002B00D0FEE000210025E123B4
:10B72000F35C002B7DD1039FCB1B9846AF4200D129
:10B73000EEE022F03FFBE91B11F068FA7D5C002F80
:10B7400003D04146380013F00FFE316A473D300008
:10B75000EAB2C9B20DF078FB75E60B226A4400210B
:10B76000137003A89046FEF78DFF9823FB5C049EA0
:10B770000599002B00D092E09923FB5C002B08D0A8
:10B780000223424613708E4200D11DE13370013610
:10B7900004969A23FB5C002B00D1BEE603234246AD
:10B7A00013708E4200D1CDE0337001360496B4E6BA
:10B7B0003C3D182230000DF047FB012D14D00B2D1D
:10B7C00000D02AE7316A1E223000C9B20DF03CFBDE
:10B7D000012301E7082FF5D101250123FCE6082FFD
:10B7E000F0D10B250123F7E6316A1E223000C9B2E1
:10B7F0000DF02AFB0125F0E70B2204236A441370A5
:10B800008E4200D1E8E0039D337001364B1B984611
:10B810000496AE4200D08BE64146300013F0A4FD02
:10B8200099E60B2204236A441370A94200D1DAE09E
:10B83000039F2B700135CB1B98460495BD4200D069
:10B8400077E74146280013F08FFDFCE50B226A44A0
:10B850000021137003A89046FEF714FFDE23F35C6B
:10B86000049D0599002B22D1DF23F35C002B08D027
:10B87000022342461370A94200D1C1E02B7001356A
:10B880000495E023F35C002B00D148E703234246F4
:10B890001370A94247D02B70013504953FE743460A
:10B8A0001D708E4229D035700136049664E701235D
:10B8B00042461370A94213D02B7001350495D3E78B
:10B8C000EDB200E7002D00D0C9E6002B00D0FAE66B
:10B8D000FFE60B236B449846012342460025137074
:10B8E0002900424603A8FEF7CDFE049D0599BBE75B
:10B8F0000B236B44984600211D70424603A8FEF7B7
:10B90000C1FE049E059937E7002E00D123E683E7A8
:10B91000002D00D197E594E70B236B449846032351
:10B920004246002513702900424603A8FEF7AAFEEE
:10B93000049D0599F3E60B236B4498460323424686
:10B94000002613703100424603A8FEF79BFE049EBA
:10B950000599E2E50B2204236A441370A94200D141
:10B9600095E02B70013504959BE60B226A4400217B
:10B97000137003A89046FEF785FE2523F35C049D13
:10B980000599002B6BD12623F35C002B07D00223F3
:10B9900042461370A94272D02B70013504952723BB
:10B9A000F35C002B00D177E60323424613708D42EF
:10B9B0004DD02B70013504956EE60B236B449846F1
:10B9C00002234246002613703100424603A8FEF7C8
:10B9D00059FE049E0599DCE6310003A8FEF752FEED
:10B9E000049E05999EE503A8FEF74CFE049D05996B
:10B9F00099E60B236B4498460223424600251370B8
:10BA00002900424603A8FEF73DFE049D059938E74C
:10BA10000B236B4498460123424600211370424693
:10BA200003A8FEF72FFE049D0599ACE73D00D3E582
:10BA3000002D00D14DE61900280013F095FC48E6D2
:10BA40000B236B44984603234246002513702900BC
:10BA5000424603A8FEF716FE049D05991CE6012345
:10BA6000424613708D42DAD02B70013504958AE777
:10BA70000B236B449846022342460025137029008D
:10BA8000424603A8FEF7FEFD049D059987E703A83B
:10BA9000FEF7F8FD049D059903E6C046F0B5C646DD
:10BAA0000123002500B58362023386B0C3620563BB
:10BAB0000567040022F07EF91E2111F07FF8A64BE5
:10BAC00000269C466144E160A561666122F072F93E
:10BAD000B421490011F072F8080013F09BF92061BD
:10BAE0001C20676813F038FC05009C4B476003601E
:10BAF0009B4BC66083600661E06EE566002800D15E
:10BB000088E003685B689847E56E2B689E68E76885
:10BB100022F050F9142111F051F80022CB190092B3
:10BB200021002200280014321031B0478D4B002133
:10BB30001D682B6828005B6898472B68A16A9A6883
:10BB400001295FD00239481E8141874889000231AE
:10BB500082425BD1280000211B6998472B6828008E
:10BB6000002221691B689847804B10220021186829
:10BB700013F0E6FBA56A012D4ED07D49A0680DF0BB
:10BB800077F91E232069E36113F066F900210500AF
:10BB9000606913F01FF9002806D02800B421B430E2
:10BBA000490011F00BF80D002300012258331A74DC
:10BBB000642300262366613BA363E6656566A6846D
:10BBC00010F052FB02224C23FF3220646164E252E7
:10BBD000E368FA3AD9170A40D2186368D210586C51
:10BBE00007210023643200960AF05AF963680022A4
:10BBF000586C0B21002300960AF052F906B080BC65
:10BC0000B846F0BD584800218242A3D02800904792
:10BC10002B689FE7574E7AE700239722A768039384
:10BC200004930593BA5C002A00D030E19833FB5CA2
:10BC3000002B00D0F6E19923FB5C002B00D056E2EC
:10BC40009A23FB5C002B00D00FE2002100269B23EF
:10BC5000FB5C002B00D069E1039D4B1B9846B5426D
:10BC600000D1EBE122F0A6F8711B10F0CFFF6E5C63
:10BC7000002D03D04146280013F076FB396A733655
:10BC80003800F2B2C9B20DF0DFF86368A6689F68A9
:10BC9000FA239B009846012347451ADB41463800AA
:10BCA00010F08CFF41460500380010F087FF280097
:10BCB0000F00414610F082FF012903DD0022300011
:10BCC000FEF74CFD316A1D223000C9B20DF0BCF800
:10BCD0000023632F00DC43E26421380010F06EFF84
:10BCE00064218046380010F069FF336A0D00D9B234
:10BCF000C72F05DD43463000DAB20DF0A5F8336AF0
:10BD0000D9B21C2230000DF09FF80023142D00DC66
:10BD100072E10A21280010F051FF316A0700C9B210
:10BD2000072800D1DEE0092826D0020043071B1AAD
:10BD30009B001B1A5B001232ED183000D2B20DF0DE
:10BD400083F8012D00D1DFE00B2D00D1E1E0002DC3
:10BD500059D00123DAE7C04688130000A0FE021084
:10BD60000000344290030310D981001058160020BF
:10BD7000DC050000DD880010503D1A2230000DF077
:10BD800063F8012D00D1C1E00B2D00D1C3E0002DDF
:10BD900039D06B1C00D02DE100232422039304939F
:10BDA0000593B25C002A00D079E12533F35C002BC7
:10BDB00000D0C7E12623F35C002B00D0F2E127235B
:10BDC000F35C002B00D0D5E1002100252823F35C93
:10BDD000002B00D058E1039FCB1B9846BD4200D1F9
:10BDE000C0E121F0E7FFE91B10F010FF7D5C002FA0
:10BDF00003D04146380013F0B7FA316A2A00300008
:10BE0000C9B20DF021F8A0682522016AC9B20DF06F
:10BE10001BF8FA21A06849000DF02AF80023DD2262
:10BE2000A668039304930593B25C002A00D0A7E0B0
:10BE3000DE33F35C002B00D0E5E0DF23F35C002B66
:10BE400000D070E1E023F35C002B00D0FEE0002185
:10BE50000025E123F35C002B7DD1039FCB1B98468B
:10BE6000AF4200D1EEE021F0A5FFE91B10F0CEFEBD
:10BE70007D5C002F03D04146380013F075FA316A1B
:10BE8000473D3000EAB2C9B20CF0DEFF75E60B2286
:10BE90006A440021137003A89046FEF7F3FB982331
:10BEA000FB5C049E0599002B00D092E09923FB5C7B
:10BEB000002B08D00223424613708E4200D11DE1B0
:10BEC0003370013604969A23FB5C002B00D1BEE64A
:10BED0000323424613708E4200D1CDE03370013609
:10BEE0000496B4E63C3D182230000CF0ADFF012D65
:10BEF00014D00B2D00D02AE7316A1E223000C9B2BF
:10BF00000CF0A2FF012301E7082FF5D10125012341
:10BF1000FCE6082FF0D10B250123F7E6316A1E223B
:10BF20003000C9B20CF090FF0125F0E70B2204238A
:10BF30006A4413708E4200D1E8E0039D33700136ED
:10BF40004B1B98460496AE4200D08BE6414630002B
:10BF500013F00AFA99E60B2204236A441370A942EB
:10BF600000D1DAE0039F2B700135CB1B9846049576
:10BF7000BD4200D077E74146280013F0F5F9FCE513
:10BF80000B226A440021137003A89046FEF77AFB47
:10BF9000DE23F35C049D0599002B22D1DF23F35CA3
:10BFA000002B08D0022342461370A94200D1C1E001
:10BFB0002B7001350495E023F35C002B00D148E79A
:10BFC000032342461370A94247D02B7001350495D4
:10BFD0003FE743461D708E4229D0357001360496E6
:10BFE00064E7012342461370A94213D02B70013538
:10BFF0000495D3E7EDB200E7002D00D0C9E6002B91
:10C0000000D0FAE6FFE60B236B4498460123424634
:10C01000002513702900424603A8FEF733FB049D58
:10C020000599BBE70B236B44984600211D704246DF
:10C0300003A8FEF727FB049E059937E7002E00D1E1
:10C0400023E683E7002D00D197E594E70B236B44AB
:10C05000984603234246002513702900424603A850
:10C06000FEF710FB049D0599F3E60B236B449846FD
:10C0700003234246002613703100424603A8FEF710
:10C0800001FB049E0599E2E50B2204236A44137028
:10C09000A94200D195E02B70013504959BE60B2257
:10C0A0006A440021137003A89046FEF7EBFA25239B
:10C0B000F35C049D0599002B6BD12623F35C002BC8
:10C0C00007D0022342461370A94272D02B7001356B
:10C0D00004952723F35C002B00D177E60323424627
:10C0E00013708D424DD02B70013504956EE60B23F5
:10C0F0006B449846022342460026137031004246A4
:10C1000003A8FEF7BFFA049E0599DCE6310003A8F8
:10C11000FEF7B8FA049E05999EE503A8FEF7B2FA69
:10C12000049D059999E60B236B44984602234246E9
:10C13000002513702900424603A8FEF7A3FA049DC8
:10C14000059938E70B236B449846012342460021AA
:10C150001370424603A8FEF795FA049D0599ACE7D3
:10C160003D00D3E5002D00D14DE61900280013F065
:10C17000FBF848E60B236B44984603234246002510
:10C1800013702900424603A8FEF77CFA049D059926
:10C190001CE60123424613708D42DAD02B70013524
:10C1A00004958AE70B236B449846022342460025F8
:10C1B00013702900424603A8FEF764FA049D05990E
:10C1C00087E703A8FEF75EFA049D059903E6C046DB
:10C1D000836AF0B5013B9D05ED1AAD00C646ED182A
:10C1E0002D01ED18ED00ED18AB4B00B59C4686B067
:10C1F0006D000400654421F0DDFD1E2110F0DEFC21
:10C20000002600234919A361E160666121F0D2FD97
:10C21000B421490010F0D2FC080012F0FBFD2061AF
:10C220001C20676813F098F805009C4B476003607A
:10C230009B4BC66083600661E06EE566002800D116
:10C2400088E003685B689847E56E2B689E68E7683E
:10C2500021F0B0FD142110F0B1FC0022CB190092A6
:10C2600021002200280014321031B0478D4B0021EC
:10C270001D682B6828005B6898472B68A16A9A683C
:10C2800001295FD00239481E814187488900023167
:10C2900082425BD1280000211B6998472B68280047
:10C2A000002221691B689847804B102200211868E2
:10C2B00013F046F8A56A012D4ED07D49A0680CF018
:10C2C000D7FD1E232069E36112F0C6FD00210500A1
:10C2D000606912F07FFD002806D02800B421B43038
:10C2E000490010F06BFC0D002300012258331A7432
:10C2F000642300262366613BA363E6656566A68426
:10C300000FF0B2FF02224C23FF3220646164E2523C
:10C31000E368FA3AD9170A40D2186368D210586C09
:10C32000072100236432009609F0BAFD63680022F9
:10C33000586C0B210023009609F0B2FD06B080BCBA
:10C34000B846F0BD584800218242A3D0280090474B
:10C350002B689FE7574E7AE700239722A76803933D
:10C3600004930593BA5C002A00D030E19833FB5C5B
:10C37000002B00D0F6E19923FB5C002B00D056E2A5
:10C380009A23FB5C002B00D00FE2002100269B23A8
:10C39000FB5C002B00D069E1039D4B1B9846B54226
:10C3A00000D1EBE121F006FD711B10F02FFC6E5C5B
:10C3B000002D03D04146280012F0D6FF396A7336AB
:10C3C0003800F2B2C9B20CF03FFD6368A6689F68FE
:10C3D000FA239B009846012347451ADB4146380063
:10C3E00010F0ECFB41460500380010F0E7FB280098
:10C3F0000F00414610F0E2FB012903DD002230006E
:10C40000FEF7ACF9316A1D223000C9B20CF01CFDF8
:10C410000023632F00DC43E26421380010F0CEFBE0
:10C4200064218046380010F0C9FB336A0D00D9B290
:10C43000C72F05DD43463000DAB20CF005FD336A44
:10C44000D9B21C2230000CF0FFFC0023142D00DCBC
:10C4500072E10A21280010F0B1FB316A0700C9B26D
:10C46000072800D1DEE0092826D0020043071B1A66
:10C470009B001B1A5B001232ED183000D2B20CF098
:10C48000E3FC012D00D1DFE00B2D00D1E1E0002D18
:10C4900059D00123DAE7C04688130000A0FE02103D
:10C4A0000000344290030310D98100105816002078
:10C4B000DC050000DD880010503D1A2230000CF031
:10C4C000C3FC012D00D1C1E00B2D00D1C3E0002D34
:10C4D00039D06B1C00D02DE1002324220393049358
:10C4E0000593B25C002A00D079E12533F35C002B80
:10C4F00000D0C7E12623F35C002B00D0F2E1272314
:10C50000F35C002B00D0D5E1002100252823F35C4B
:10C51000002B00D058E1039FCB1B9846BD4200D1B1
:10C52000C0E121F047FCE91B10F070FB7D5C002F9F
:10C5300003D04146380012F017FF316A2A0030005C
:10C54000C9B20CF081FCA0682522016AC9B20CF0C6
:10C550007BFCFA21A06849000CF08AFC0023DD2254
:10C56000A668039304930593B25C002A00D0A7E069
:10C57000DE33F35C002B00D0E5E0DF23F35C002B1F
:10C5800000D070E1E023F35C002B00D0FEE000213E
:10C590000025E123F35C002B7DD1039FCB1B984644
:10C5A000AF4200D1EEE021F005FCE91B10F02EFBBC
:10C5B0007D5C002F03D04146380012F0D5FE316A71
:10C5C000473D3000EAB2C9B20CF03EFC75E60B22E2
:10C5D0006A440021137003A89046FEF753F898238D
:10C5E000FB5C049E0599002B00D092E09923FB5C34
:10C5F000002B08D00223424613708E4200D11DE169
:10C600003370013604969A23FB5C002B00D1BEE602
:10C610000323424613708E4200D1CDE033700136C1
:10C620000496B4E63C3D182230000CF00DFC012DC0
:10C6300014D00B2D00D02AE7316A1E223000C9B277
:10C640000CF002FC012301E7082FF5D1012501239D
:10C65000FCE6082FF0D10B250123F7E6316A1E22F4
:10C660003000C9B20CF0F0FB0125F0E70B220423E7
:10C670006A4413708E4200D1E8E0039D33700136A6
:10C680004B1B98460496AE4200D08BE641463000E4
:10C6900012F06AFE99E60B2204236A441370A94241
:10C6A00000D1DAE0039F2B700135CB1B984604952F
:10C6B000BD4200D077E74146280012F055FEFCE568
:10C6C0000B226A440021137003A89046FDF7DAFF9D
:10C6D000DE23F35C049D0599002B22D1DF23F35C5C
:10C6E000002B08D0022342461370A94200D1C1E0BA
:10C6F0002B7001350495E023F35C002B00D148E753
:10C70000032342461370A94247D02B70013504958C
:10C710003FE743461D708E4229D03570013604969E
:10C7200064E7012342461370A94213D02B700135F0
:10C730000495D3E7EDB200E7002D00D0C9E6002B49
:10C7400000D0FAE6FFE60B236B44984601234246ED
:10C75000002513702900424603A8FDF793FF049DAE
:10C760000599BBE70B236B44984600211D70424698
:10C7700003A8FDF787FF049E059937E7002E00D137
:10C7800023E683E7002D00D197E594E70B236B4464
:10C79000984603234246002513702900424603A809
:10C7A000FDF770FF049D0599F3E60B236B44984653
:10C7B00003234246002613703100424603A8FDF7CA
:10C7C00061FF049E0599E2E50B2204236A4413707D
:10C7D000A94200D195E02B70013504959BE60B2210
:10C7E0006A440021137003A89046FDF74BFF2523F0
:10C7F000F35C049D0599002B6BD12623F35C002B81
:10C8000007D0022342461370A94272D02B70013523
:10C8100004952723F35C002B00D177E603234246DF
:10C8200013708D424DD02B70013504956EE60B23AD
:10C830006B4498460223424600261370310042465C
:10C8400003A8FDF71FFF049E0599DCE6310003A84D
:10C85000FDF718FF049E05999EE503A8FDF712FF5A
:10C86000049D059999E60B236B44984602234246A2
:10C87000002513702900424603A8FDF703FF049D1D
:10C88000059938E70B236B44984601234246002163
:10C890001370424603A8FDF7F5FE049D0599ACE729
:10C8A0003D00D3E5002D00D14DE61900280012F01F
:10C8B0005BFD48E60B236B44984603234246002564
:10C8C00013702900424603A8FDF7DCFE049D05997C
:10C8D0001CE60123424613708D42DAD02B700135DD
:10C8E00004958AE70B236B449846022342460025B1
:10C8F00013702900424603A8FDF7C4FE049D059964
:10C9000087E703A8FDF7BEFE049D059903E6C04630
:10C91000F0B5C64600B5836886B0002B00D1B7E0FD
:10C9200076220323046C83542268AB49D2688A427E
:10C9300000D0BAE001220025A262E36225632567E8
:10C9400021F038FA1E2110F039F9A44B00269C463C
:10C950006144E160A561666121F02CFAB4214900CF
:10C9600010F02CF9080012F055FA20611C206768BD
:10C9700012F0F2FC05009A4B47600360994BC660C9
:10C9800083600661E06EE566002800D183E00368FD
:10C990005B689847E56E2B689E68E76821F00AFAA5
:10C9A000142110F00BF90022CB1900922100220073
:10C9B000280014321031B0478B4B00211D682B68C2
:10C9C00028005B6898472B68A16A9A68012964D09F
:10C9D0000239481E8141854889000231824260D176
:10C9E000280000211B6998472B6828000022216934
:10C9F0001B6898477E4B10220021186812F0A0FC9B
:10CA0000A56A012D54D07B49A0680CF031FA1E2391
:10CA10002069E36112F020FA00210500606912F03C
:10CA2000D9F9002806D02800B421B430490010F00C
:10CA3000C5F80D002300012258331A746423002620
:10CA40002366613BA363E6656566A6840FF00CFC74
:10CA500002224C23FF3220646164E252E368FA3A16
:10CA6000D9170A40D2186368D210586C07210023E6
:10CA70006432009609F014FA63680022586C0B21A6
:10CA80000023009609F00CFA06B080BCB846F0BD51
:10CA9000FDF7AEFBF8E7584E7FE75448002182428D
:10CAA0009ED0280090472B689AE720009047EBE73C
:10CAB00000239722A768039304930593BA5C002A86
:10CAC00000D0CDE19833FB5C002B00D021E199230D
:10CAD000FB5C002B00D073E29A23FB5C002B00D0A0
:10CAE000F4E1002100269B23FB5C002B00D079E1C0
:10CAF000039D4B1B9846B54200D1DFE121F05AF966
:10CB0000711B10F083F86E5C002D03D041462800A5
:10CB100012F02AFC396A73363800F2B2C9B20CF04E
:10CB200093F96368A7689E68FA239B0098460123DF
:10CB300046451ADB4146300010F040F841460500FA
:10CB4000300010F03BF828000E00414610F036F897
:10CB5000012903DD00223800FDF700FE396A1D229D
:10CB60003800C9B20CF070F90023632E00DC4CE2EF
:10CB70006421300010F022F80D00C72E00DD01E125
:10CB8000396A1C223800C9B20CF05EF90023142D5A
:10CB900000DC7DE10A21280010F010F8396A060057
:10CBA000C9B2072800D1DBE0092827D002004307DB
:10CBB0001B1A9B001B1A5B001232ED183800D2B210
:10CBC0000CF042F9012D00D1E6E00B2D00D1E8E098
:10CBD000002D5AD00123DAE79DBA00108813000017
:10CBE000A0FE02100000344290030310D98100100F
:10CBF00058160020DC050000DD880010503D1A2288
:10CC000038000CF021F9012D00D1C7E00B2D00D127
:10CC1000C9E0002D39D06B1C00D0E6E100232422AE
:10CC2000039304930593BA5C002A00D08AE125336C
:10CC3000FB5C002B00D0DAE12623FB5C002B00D04C
:10CC400001E22723FB5C002B00D0E4E1002100255A
:10CC50002823FB5C002B00D05FE1039E8B1B9846D2
:10CC6000AE4200D1D3E121F0A5F8A91B0FF0CEFF11
:10CC7000755C002E03D04146300012F075FB396A16
:10CC80002A003800C9B20CF0DFF8A0682522016A3A
:10CC9000C9B20CF0D9F8FA21A06849000CF0E8F804
:10CCA0000023DD22A668039304930593B25C002A57
:10CCB00000D0ACE0DE33F35C002B00D0EFE0DF23EC
:10CCC000F35C002B00D065E1E023F35C002B00D087
:10CCD0000BE100210025E123F35C002B6ED1039FC3
:10CCE000CB1B9846AF4200D1ECE021F063F8E91B82
:10CCF0000FF08CFF7D5C002F03D04146380012F00E
:10CD000033FB316A473D3000EAB2C9B20CF09CF8FF
:10CD100079E60B236B44984600211D70424603A818
:10CD2000FDF7B0FC049E05999923FB5C002B08D00D
:10CD30000223424613708E4200D148E1337001361F
:10CD400004969A23FB5C002B00D1CCE603234246D9
:10CD500013708E4200D1C0E0337001360496C2E6F3
:10CD60003C3D182238000CF06FF8012D1ED00B2D21
:10CD700000D02DE7396A1E223800C9B20CF064F8E1
:10CD8000012304E7642130000FF018FF00220100A6
:10CD90003800FDF7E3FCF3E6082EEBD10125012373
:10CDA000F5E6082EE6D10B250123F0E6396A1E22AE
:10CDB0003800C9B20CF048F80125F0E70B22042333
:10CDC0006A441370A94200D109E1039F2B70013519
:10CDD000CB1B98460495BD4287D14146280012F0EE
:10CDE000C3FA10E60B2204236A4413708E4200D16A
:10CDF000DFE0039D337001364B1B98460496AE422C
:10CE000000D07BE64146300012F0AEFA89E60B22F4
:10CE10006A440021137003A89046FDF733FCDE231B
:10CE2000F35C049D0599002B6ED1DF23F35C002B8E
:10CE300008D0022342461370A94200D1B1E02B7002
:10CE400001350495E023F35C002B00D143E7032375
:10CE500042461370A9424FD02B70013504953AE732
:10CE60000B226A440021137003A89046FDF70AFCC8
:10CE70009823FB5C049E0599002B00D154E74346A0
:10CE80001D708E4200D149E73570013604964BE79C
:10CE9000002D00D0BFE6002B00D0F0E6F5E60B2316
:10CEA0006B449846012342460025137029004246F0
:10CEB00003A8FDF7E7FB049D0599B6E7002E00D116
:10CEC0002FE69FE7002D00D19DE586E70B236B44FD
:10CED000984603234246002613703100424603A8B9
:10CEE000FDF7D0FB049E0599FDE50B236B449846A6
:10CEF00003234246002513702900424603A8FDF78C
:10CF0000C1FB049D0599E6E6012342461370A94240
:10CF1000CCD02B700135049587E70B2204236A449B
:10CF200013708D4200D19DE0039E2B7001358B1B49
:10CF300098460495B54200D095E64146280012F087
:10CF400013FAA2E60B226A440021137003A890464C
:10CF5000FDF798FB2523FB5C049D0599002B69D107
:10CF60002623FB5C002B07D00223424613708D4220
:10CF700070D02B70013504952723FB5C002B00D16A
:10CF800066E60323424613708D424BD02B70013569
:10CF900004955DE60B236B44984602234246002528
:10CFA00013702900424603A8FDF76CFB049D059908
:10CFB00048E7310003A8FDF765FB049E059997E556
:10CFC0000B236B449846022342460026137031001F
:10CFD000424603A8FDF756FB049E0599B1E603A857
:10CFE000FDF750FB049D059979E6EDB247E60B236A
:10CFF0006B4498460123424600211370424603A821
:10D00000FDF740FB049D0599AAE73500BFE5002D1B
:10D0100000D13AE691E70B236B449846032342463E
:10D02000002513702900424603A8FDF72BFB049D41
:10D0300005990DE60123424613708D42DED02B7018
:10D04000013504958CE70B236B4498460223424636
:10D05000002513702900424603A8FDF713FB049D29
:10D06000059989E7290003A8FDF70CFB049D0599A4
:10D07000F3E5C046F0B5DE464E4657464546E0B5B8
:10D080000F0089B0CB49040038000FF097FDFA215A
:10D090008146890038000FF091FD3C210FF08EFD94
:10D0A0000E00FA21380089000FF088FD0800019178
:10D0B0000A210FF083FD4B460500002B00D0C6E08F
:10D0C000002E2AD1002821D00198D12800DC77E059
:10D0D00064210FF073FD216A0600C9B2072846D00B
:10D0E000092800D0D4E1503D1A2220000BF0ACFEFC
:10D0F000012D00D14FE10B2D00D14BE1002D5FD16F
:10D10000216A21222000C9B20BF09EFE09B0F0BCBA
:10D11000BB46B246A946A046F0BD142E00DC5AE13B
:10D120000A2130000FF04AFD43071B1A9B001B1A0F
:10D13000216A12305B00F618C2B2C9B220000BF0AF
:10D1400083FE012E76D00B2E00D1B6E1002EE4D165
:10D15000216A24222000C9B20BF076FE002DD5D022
:10D16000216A1E222000C9B20BF06EFEACE73C3DE6
:10D17000182220000BF068FE012D00D11EE10B2DBE
:10D1800018D0002DBCD0142D1ADD0A2128000FF074
:10D1900015FD216AC9B20728E9D043071B1A9B0075
:10D1A0001B1A5B001230ED18C2B220000BF04CFECF
:10D1B000012DE4D1216A1E222000C9B20BF044FEE9
:10D1C0006B1C00D0E7E0002200230492059304AB1F
:10D1D00098460023424693602422A25C002A00D095
:10D1E000A8E12533E35C002B00D0C2E12623E35CF9
:10D1F000002B00D069E12723E35C002B00D0CEE1B7
:10D20000002100252823E35C002B00D07DE1049E53
:10D210008F1BAE4200D1BEE120F0CCFDA91B0FF068
:10D22000F5FC755C002E00D1B6E03900300012F03C
:10D230009BF8B1E0216A1E222000C9B20BF004FE67
:10D24000216A1F222000C9B20BF0FEFD80E75A4B75
:10D250009F4200DC2FE1FA21484689000FF0AEFC26
:10D26000FA210700890048460FF0A8FC8946012FE3
:10D2700004D0012239002000FDF770FA216A1D2236
:10D280002000C9B20BF0E0FD00234F46632F1ADDEA
:10D29000642138000FF092FC6421824638000FF0C0
:10D2A0008DFC4A46236A0F00D9B2C72A05DD5346D2
:10D2B0002000DAB20BF0C8FD236AD9B21C2220008C
:10D2C0000BF0C2FD0023142F20DD0A2138000FF0DF
:10D2D00075FC216A8146C9B2072837D0092847D092
:10D2E000020043071B1A9B001B1A5B001232FF1837
:10D2F0002000D2B20BF0A8FD012F66D00B2F00D179
:10D30000B6E0002F0FD00123142FDEDC002F00D059
:10D31000B4E000229046002B05D0216A424620004E
:10D32000C9B20BF091FD216A23222000C9B20BF093
:10D330008BFD002E00D0F0E6002D00D1E6E6216A3C
:10D340001E222000C9B20BF07FFDBDE63C3F182233
:10D3500020000BF079FD012F00D181E00B2FD0D1FF
:10D36000216A1E222000C9B20BF06EFD0123CBE71B
:10D37000503F1A2220000BF067FD012F28D00B2F01
:10D38000BFD10B270123BFE70B2D00D0F9E6082EF4
:10D3900000D00FE70B25EDB2216A2A002000C9B2A8
:10D3A0000BF052FD216A21222000C9B20BF04CFD86
:10D3B000ACE6C04660EA0000FF869303216A1E22A5
:10D3C0002000C9B20BF040FDE5E74B46082BC7D162
:10D3D0000127012398E7012E00D131E7731C72D198
:10D3E000002200230492059304AB98460023424692
:10D3F00093602422A25C002A00D02DE12533E35C57
:10D40000002B00D0C2E12623E35C002B00D048E2D1
:10D410002723E35C002B00D0ECE100210026282329
:10D42000E35C002B00D061E1049B9846CB1A99463F
:10D43000B04500D1D5E120F0BDFC4346F11A0FF014
:10D44000E5FB43465E5C002B03D04946404611F0A5
:10D450008BFF216A32002000C9B20BF0F5FC77E6A1
:10D46000216A1E222000C9B20BF0EEFC0127B0E7B2
:10D470004B46082B00D073E70B2783E7012F00D022
:10D480009FE0216A1F222000C9B20BF0DDFC4AE7B1
:10D49000020043071B1A9B001B1A5B001232ED1897
:10D4A0002000D2B20BF0D0FC012D00D06CE7082E8A
:10D4B00000D170E77EE60123E7E6216A1E22200004
:10D4C000C9B20BF0C1FCF6B2C3E702AA9446072327
:10D4D0006344994602234A460025137029004A46B0
:10D4E0004046FDF7CFF843465D6899682723E35C23
:10D4F000002B00D186E603234A461370A94257D079
:10D500002B70434601355D607CE602ABDA1D0423D7
:10D510001370A94200D15DE12B704346049E013592
:10D520005D608F1BAE4200D076E63900280011F016
:10D530001BFFE5E502A98C46072262440021137017
:10D5400040469146FDF79EF843465D68996825235D
:10D55000E35C002B76D12623E35C002BC6D00223AC
:10D560004A461370A942B9D02B70434601355D601D
:10D57000BCE702AA944607236344994601234A461E
:10D580000025137029004A464046FDF77BF84346C4
:10D590005D689968DFE7002D00D1B1E5C5E702AA13
:10D5A000944607236344994603234A460025137093
:10D5B00029004A464046FDF765F843465D6899688C
:10D5C00020E67B1C00D054E1002200230492059346
:10D5D00004AB98460023424693602422A25C002AB2
:10D5E00000D09AE02533E35C002B00D0DFE0262357
:10D5F000E35C002B00D03FE12723E35C002B00D04D
:10D600000AE1002300219A462823E35C002B53D132
:10D61000049B9946CB1A9B46D14500D1E5E020F00A
:10D62000C9FB53464A46991A0FF0F0FA4B465B5C29
:10D6300098464B46002B00D16FE65946484611F0FC
:10D6400093FE6AE601234A461370A9429AD02B70D2
:10D65000434601355D607EE702A98C46072262449D
:10D660000021137040469146FDF70CF843465E6872
:10D6700099682523E35C002B00D0E2E02623E35CDD
:10D68000002B09D002234A4613708E4200D111E1CB
:10D690003370434601365E602723E35C002B00D1E4
:10D6A000BDE603234A461370B14200D1ABE03370AC
:10D6B000434601365E60B2E602ABDA1D0423137006
:10D6C0008A4500D107E152461370033B9C46E24471
:10D6D000434652465A60049B9946CB1A9B46CA451C
:10D6E0009DD15946504611F03FFE1CE602ABDA1DB3
:10D6F000042313708E4200D1E5E0337043460136B7
:10D700005E60049B9846CB1A9946464500D092E647
:10D710004946300011F028FE1AE502A98C4607227E
:10D7200062440021137040469146FCF7ABFF43462C
:10D730005B689A46434699682523E35C002B00D03A
:10D7400089E02623E35C002B0DD002234A461370A8
:10D750008A4500D19AE05246137001239C46E24468
:10D76000434652465A602723E35C002B00D14BE727
:10D7700003234A461370514558D052461370012373
:10D780009C46E244434652465A603DE702AA94460C
:10D7900007236344994601234A46002113704A46F1
:10D7A0004046FCF76FFF43465E68996866E702AA49
:10D7B000944607236344994601234A460021137087
:10D7C0004A464046FCF75EFF43465B689A4643463E
:10D7D0009968B6E74046FCF755FF43465D6899688F
:10D7E00015E5002E00D1B3E492E75346002B00D19B
:10D7F00099E576E702AA94460723634499460323F2
:10D800004A460026137031004A464046FCF73AFF6C
:10D8100043465E68996802E602AA94460723634479
:10D82000994603234A46137000239A4651464A46B6
:10D830004046FCF727FF43465B689A464346996893
:10D84000E2E601234A4613708E42A8D03370434665
:10D8500001365E6012E701234A4613708A45AFD055
:10D860005246137001239C46E244434652465A6096
:10D8700067E7FBB2984650E502AA94460723634443
:10D88000994602234A46137000239A4651464A4657
:10D890004046FCF7F7FE43465B689A464346996864
:10D8A00061E702AA944607236344994602234A4645
:10D8B0000026137031004A464046FCF7E3FE43461B
:10D8C0005E689968E8E631004046FCF7DBFE4346B7
:10D8D0005E689968A8E551464046FCF7D3FE43468A
:10D8E0005B689A464346996892E6C046F0B5CE46D4
:10D8F000474680B5B54B41685A6A040005688BB04D
:10D900000020914243D89B6AAB4245D30EF0ACFC59
:10D910000023AF4A801859410B00802102000906FC
:10D920008B4202D30122AB4B5242260025007836AF
:10D93000A935226063603000FF350BF0F1FA280052
:10D9400003F078FBA44B186803685B69984776235B
:10D95000E35C052B23D0280003F0A2FB00282AD18A
:10D960007523E35C002B1ED17623E75C9846022FDB
:10D9700000D108E12AD9032F00D120E1042F05D1DD
:10D9800030000BF09DFA002800D178E101200BB0A7
:10D99000C0BCB946B046F0BD9142B7D1F7E7752398
:10D9A000E35C002BF2D030000BF08AFA0028EDD1B6
:10D9B0007523E054D8E7894B5B7D002BD0D1606C98
:10D9C00014220D21009308F06BFAC9E7012FDDD175
:10D9D000280003F065FB002800D007E130000BF0C1
:10D9E0006FFA00286BD1794BE16B5A6AA06B9142B8
:10D9F00065D89B6A834201D2914260D0CE277F00D6
:10DA0000B846A04443465A68E3599A420FD020F0E2
:10DA1000D1F94346E7595968C91B49100FF0F6F888
:10DA2000982349007A5C3000E15C0BF00DFA0EF0AF
:10DA30001BFC002900D10BE3FA22002392000FF017
:10DA400023F98046616B206B002900D1FAE2FA22AB
:10DA5000002392000FF018F9814620F0ABF907007F
:10DA60000EF002FC43464A4602900391981A5C4924
:10DA70000FF0A4F8010096230A315B00994200DD03
:10DA8000190038000FF09AF8FA2205314801401ABF
:10DA900080004018002392000021C00011F034F9EA
:10DAA000029A039B801859410B008021020009064D
:10DAB0008B4202D30122474B5242A263E3636B685D
:10DAC000002B00D162E77623022200210020E254DD
:10DAD000002306900791611CFF310893097806AD79
