:020000041000EA
:1080000000200420F7800010C3800010C5800010FD
:10801000C1800010C1800010C1800010C18000101C
:10802000C1800010C1800010C1800010C780001006
:10803000C1800010C1800010C9800010CB800010EA
:10804000CD800010CD800010CD800010CD800010BC
:10805000CD800010CD800010CD800010CD800010AC
:10806000CD800010CD800010CD800010CD8000109C
:10807000CD800010CD800010CD800010CD8000108C
:10808000CD800010CD800010CD800010CD8000107C
:10809000CD800010CD800010CD800010CD8000106C
:1080A000CD800010CD800010CD800010CD8000105C
:1080B000CD800010CD800010CD800010CD8000104C
:1080C00000BE00BE00BE00BE00BE00BEEFF30580D5
:1080D000103800BEF2EB8871E81002100411021093
:1080E0003481001090A31AE700201F49086006C8D9
:1080F00081F3088810471D48006800282FD10DA47F
:108100000ECC002902D000F012F8F9E71849194AFC
:10811000002000E001C19142FCD11749884717496E
:1081200088471749884700BEFDE701C901C29A4246
:10813000FBD3704704110210C0000020601B002018
:10814000A42B02100000042000000420A42B021025
:1081500000100420001004200000000070470948AF
:1081600007F02EFD0047000008ED00E0000000D001
:10817000601B002054550020B1E20010B122011014
:10818000E5E300105756000006005250ABB36053B1
:1081900090E9011006005250861C0302A0E901106C
:1081A000060052505422A29DA4E90110050052502D
:1081B000DE65F468A42B0210F8B5C04606480749EE
:1081C000091A8B10C90FC91810B5491003D0044BF8
:1081D000002B00D0984710BD601B0020601B0020C2
:1081E00000000000054B10B5002B03D004490548E2
:1081F00000E000BFFFF7E2FF10BDC0460000000036
:10820000204A002050E7011010B50E210AF018FC9A
:1082100010BDC046F0B585B0040008F0E5FF0728A2
:1082200008D800282CD0072800D975E04B4A8000D8
:1082300013589F4664285BD0652821D109F010F8B7
:10824000C82009F015F80023E05E09F01DF80223AC
:10825000E05E09F019F80423E05E09F015F8062342
:10826000E05E09F011F80823E05E09F00DF80A233A
:10827000E05E09F009F8A08909F016F809F024F881
:1082800005B0F0BD08F0D4FFA081F9E708F0BAFF0F
:10829000B42160806930FF30490007F0C3FC2088BA
:1082A00000244843B421490007F0BCFC2C210023E2
:1082B0002B4A2C4DFF31984205D0013310C28B421E
:1082C000DED09842F9D1431C20C28B42F3D1D7E7CC
:1082D00008F098FFA080D3E708F094FFE080CFE794
:1082E00008F090FF2081CBE708F08CFF6081C7E7A2
:1082F000A5890422A35E0221625E218803950A26D5
:10830000A55F194802950826A55F01950625645FBB
:10831000009409F061FFB3E708F08AFF05002080B0
:108320002C20002300270E490E4EFF309D4206DD13
:1083300001330E608342A3D004319D42F8DC0A0071
:108340005C1C80C284429BD0A54203DD16600233D0
:108350000831EBE711002300F1E7C04680F501107A
:10836000B01C002000FFFFFF50E701107047C0461F
:10837000F0B55746DE4646468023C0B55B049A46B4
:108380003C4B0E000500170000249B46017E82B086
:1083900018E0002938D06B69AA689B1853453EDA6B
:1083A00001216B619B133A595A43D3179B059B0DCF
:1083B0009B1832599B12D3183351802304345B002D
:1083C0009C4250D002290AD0E3D96B69032904D119
:1083D0002A699B1A002B1EDD6B619B13E3E7534652
:1083E0006B612B6A6A6A98465B465B6A9A420FD851
:1083F0005846806A404501D29A4209D003232B7621
:1084000080230321DB00CEE7696100210023CAE756
:108410008023DB00C7E700236B612B76F5E753462B
:108420006B616B68984605F001F9FA220023009011
:10843000019192004046002108F06EFA009A019BDB
:10844000801859410B008021020009068B4202D39B
:108450000122094B52426B6202232B766B69022187
:108460002A629B139FE702B0E0BCBB46B246A84617
:10847000F0BDC04600400540FFFFFF7F10B504007F
:10848000302108F0E9FC200010BDC04670B50400A2
:108490000B4B0D005A6A616C006C914205D89B6AC7
:1084A000834200D370BD9142FCD12900201D03F00E
:1084B0006DFB20002900203003F068FBF2E7C04686
:1084C00000400540F0B5C646040000B514200D007C
:1084D00008F0BAFC23690600036123784560037045
:1084E00000238360C360E068002803D03100FFF7F9
:1084F000E9FFF060A568002D1ED0002337009846E4
:10850000142008F0A1FC2B69040003612B78037090
:1085100043468360C360B8604760E868002808D0BD
:108520002100FFF7CFFFE060AD68002D04D02700E9
:10853000E6E7AD68002DFAD1300080BCB846F0BD4A
:10854000F0B5DE46574645464E468022E0B5070068
:10855000C3B052000C0002A8002108F069FC381DCD
:1085600002A903F0E5FA20239846B84443461A7E50
:1085700080235B049A46424B02AD9B4642AE15E017
:10858000002A36D07B6BBA6A9B1853453DDA01222C
:108590007B639B1302CD5943CB179B059B0D5B1847
:1085A00021689B12CB1808C4AE4253D0022A0AD0CD
:1085B000E6D97B6B032A04D1396B5B1A002B1FDDD4
:1085C0007B639B13E6E753467B633B6C796C994670
:1085D0005B465B6A994210D85846806A484501D28A
:1085E00099420AD003234246137680230322DB00FC
:1085F000D0E77A6300220023CCE78023DB00C9E7C1
:10860000002342467B631376F4E753467B637B6A21
:10861000994605F00BF8FA22002300900191920090
:108620004846002108F078F9009A019B80185941CA
:108630000B008021020009068B4202D30122114B5C
:1086400052423A647B644246022313767B6B0222D9
:108650009B139FE7B86CFB6C0B4AC018C117430B08
:10866000C904B8641943C004002307F029FB7860EB
:1086700043B0F0BCBB46B246A946A046F0BDC046DA
:1086800000400540FFFFFF7FC05D0000F0B557468A
:10869000DE464E464546E0B507005D4B0C005A6A83
:1086A000F96C806CC5B0914200D9A6E09B6A834208
:1086B00000D29FE080220021520004A808F0B8FBFD
:1086C000380004A9543003F033FA70239946B944B2
:1086D0004B461A7E44AB9A4680235B048426984618
:1086E000CB4604AD15E0002A38D0BB59BA6F9B18B1
:1086F00043453FDA0122BB519B1302CD5943CB17AF
:108700009B059B0D5B1821689B12CB1808C4AA45DA
:1087100059D0022A0BD0E6D9BB59032A05D18021B2
:1087200079585B1A002B20DDBB519B13E5E74346CC
:10873000BB513B00903319685868354B8C46596AD9
:1087400088420FD89B6A634501D288420AD003232E
:108750005A46137680230322DB00CEE7BA5100226B
:108760000023CAE78023DB00C7E700235A46BB513A
:108770001376F4E74346BB517B6F039304F056FF37
:1087800090229146FA22002300900191920000214C
:10879000039808F0C1F8009A019B801859410B001A
:1087A00080210200B94409068B4202D30122194BF1
:1087B000524249460A604B605A4602231376BB591F
:1087C00002229B1399E798239C22F858BA588018E4
:1087D000C117F850C904430B0F4A1943C0040023C2
:1087E00007F06EFA786545B0F0BCBB46B246A946C4
:1087F000A046F0BD914200D05CE7380021000C306B
:1088000003F0C4F938002100283003F0BFF951E724
:1088100000400540FFFFFF7FC05D0000F0B5DE4671
:1088200057464E464546E0B583B00190002876D0C5
:10883000019BDB689946002B68D04B46DB689A4663
:10884000002B59D05346DB689B46002B4AD05B4631
:10885000DC68002C32D0E568002D1DD0EB6898460E
:10886000002B22D04346DE68002E31D0F768002F5F
:1088700009D0F868FFF7D2FF3800BF68142108F06C
:10888000EBFA002FF5D1B7681421300008F0E4FAB4
:10889000002F1DD03E00E9E7A5681421200008F054
:1088A000DBFA002D0AD02C00D5E7AE681421280091
:1088B00008F0D2FA002EEFD03500CFE75B469C6877
:1088C0001421584608F0C8FA002C0BD0A346BEE786
:1088D00043469E681421404608F0BEFA002EE4D0BC
:1088E000B046BFE753469C681421504608F0B4FADE
:1088F000002C01D0A246A5E74B469C6814214846AF
:1089000008F0AAFA002C01D0A14696E7019814219C
:10891000846808F0A1FA002C01D0019488E703B024
:10892000F0BCBB46B246A946A046F0BDF0B54546F0
:10893000DE4657464E469622E0B5D34B93B005939C
:108940001B8806901D1C5200934200D9151C09ABD0
:108950001900CE4AADB211CA11C112780A70069838
:108960000022016A08290EDD0721C26A0132C262B3
:10897000D017014089180122C810C90F40180240C1
:10898000521A0132D2B2002D41D0510089185A5CDE
:108990005B1859789B780904BD4C12060A431B02E8
:1089A0001A43691E6307DB0F052900D86AE1002B13
:1089B00000D165E101262260E91A48089B00E3180E
:1089C000C000C0181A605A6008339842FAD10123D7
:1089D0000B421CD099438B1999006250591C8D424F
:1089E00015DD89006250991CA94210DA8900625095
:1089F000D91CA9420BDA89006250191D8D4206DD8F
:108A00008900053362509D4201DD9B00E2500CABB2
:108A10009B4600235A461371936053619D4B0DA9E9
:108A20009846D223D160116142469B00D05800285D
:108A300000D1FEE00DA9FFF745FD04000200130080
:108A40009268002AFBD19A4622000F931100D26847
:108A5000002AFBD1D522434692009A585B465A61C0
:108A60000DAB10910E949A4500D1E0E08A4B56462A
:108A70000793874BC146029307E030000BF042F9A1
:108A80000DAB0600984200D1C5E04A463469670044
:108A90003B19DB00D2186332FF321278002AECD087
:108AA0004A462132FF32D318D96C986C002900D184
:108AB000CBE0FA220023920007F01AF9FA235B00B8
:108AC0009846804404F0B2FD002900D1B8E0FA22B3
:108AD0000023920007F00CF98045CED24B463F1997
:108AE0002133FF33FF00DB19596D186D002900D1C8
:108AF000B0E0FA220023920007F0FAF80700F537F9
:108B0000FF3704F093FD002900D1AFE0FA220023E3
:108B1000920007F0EDF88742AFD3069B21005F6A11
:108B2000079B1800984602F029FDB421FB0FDF19BE
:108B3000059B7F1002229B5E7F42C019C018023045
:108B40004900684307F06EF821000390404602F0A8
:108B500015FDB421059BC01B02229B5E490018181D
:108B6000684307F05FF80490022C00D983E04B4A79
:108B7000A400A1584A4B4B4AE358A258040003985A
:108B80000130844224DD1B06090412020B43134307
:108B90000193049B039A013B9B1A984694469623A3
:108BA0006F1CBFB267445B009A463B0000244746F7
:108BB000B0461E002900301907F034F8514503D2A1
:108BC000029B019A8900CA500134A742F2D146465D
:108BD000039B2900E81807F025F896235B009942CB
:108BE00003D200222A4B8900CA50049B2900E818AE
:108BF00007F018F896235B00994200D33DE7002266
:108C0000234B30008900CA500BF07CF80DAB0600F6
:108C1000984200D039E75B469C68002C09D0E06898
:108C2000FFF7FCFD20001421A46808F015F9002CC2
:108C3000F5D113B0F0BCBB46B246A946A046F0BD84
:108C4000FA21890007F016F846E7FA21890007F0B3
:108C500011F833E7FA21890007F00CF80700F5371F
:108C6000FF3704F0E3FC002900D04FE7FA21890028
:108C700007F000F84FE70022FF21FF2304007EE702
:108C8000002699E60023A7E64414002010F6011000
:108C9000B01C00206021002080220020ACF50110D3
:108CA000B8F50110A0F50110F0B5DE4657464E4666
:108CB0004546E0B503788DB0032B00D17EE19621C7
:108CC000C34A490004921288151C8A4200D94CE11B
:108CD000ADB2022B00D14DE1002D3CD0BD4E6A1E3D
:108CE0007307DB0F052A00D86FE1002B00D16AE182
:108CF000F022012752053260F020F021EA1A5408D0
:108D00009B00F318E400E4184005490503C3A3429F
:108D1000FCD1012313421ED09A43D319F0229900AB
:108D200052057250591C8D4215DD89007250991CF4
:108D30008D4210DD89007250D91C8D420BDD8900F7
:108D40007250191D8D4206DD8900053372509D4217
:108D500001DD9B00F250002306AA137108930B93C8
:108D60009D4B07AA9A46D223904609920A925246F0
:108D70009B00D058002800D1F0E04146FFF7A2FB4D
:108D80000400020013009268002AFBD19B462200D7
:108D900009931100D268002AFBD1D52253469200D4
:108DA0009A580A910B920894C34500D1D4E08B4B9A
:108DB0005E460593874B019306E030000AF0A2FF60
:108DC0000600404500D1BCE05246346967003B19BB
:108DD000DB00D2186332FF321278002AEDD05246FF
:108DE0002132FF32D318D96C986C002900D1D0E021
:108DF000FA220023920006F07BFFFA235B009946DB
:108E0000814404F013FC002900D1BDE0FA220023C4
:108E1000920006F06DFF8145CFD253463F192133B2
:108E2000FF33FF00DB19596D186D002900D1BFE039
:108E3000FA220023920006F05BFF0700F537FF37A8
:108E400004F0F4FB002900D1ADE0FA2200239200E7
:108E500006F04EFF8742B0D3059B210018009946CB
:108E600002F08CFBB421049F49000222BB5E18185B
:108E70001738684306F0D6FE21000290484602F0FB
:108E80007DFBB4210222BB5E1930C0186843490043
:108E900006F0C8FE0390022C00D97FE0504AA400DF
:108EA000A158504B504AE358A25804000298013090
:108EB000844224DD1B06090412020B431343009372
:108EC000039B029A013B9B1A9946944696236F1C7A
:108ED000BFB267445B009B463B0000244F46B1464F
:108EE0001E002900301906F09DFE594503D2019B52
:108EF000009A8900CA500134A742F2D14E46029B23
:108F00002900E81806F08EFE96235B00994203D2F2
:108F10000022304B8900CA50039B2900E81806F054
:108F200081FE96235B00994200D346E70022294B3D
:108F300030008900CA500AF0E5FE0600404500D026
:108F400042E7089C002C09D0E068FFF767FC20008E
:108F50001421A46807F080FF002CF5D10DB0F0BCFF
:108F6000BB46B246A946A046F0BD0D1CADB2022BD1
:108F700000D0B1E61F33FF33C358002B00D0ABE65F
:108F8000E83001F03BF8E9E7FA21890006F072FECB
:108F900041E7FA21890006F06DFE2EE70022FF214D
:108FA000FF23040082E7FA21890006F063FE51E7FF
:108FB000FA21890006F05EFE07003FE7406A036879
:108FC0001B699847CAE7002796E60023A6E6C04635
:108FD00044140020B01C00206021002080220020CA
:108FE000ACF50110B8F50110A0F5011070B5050041
:108FF0000E00140008F0F8F801280AD0022800D06A
:1090000070BD2800013CE2B2711CD03003F0B6F90B
:10901000F6E72800013CE2B2711C283002F058FE4D
:10902000EEE7C04670B53C4B3C4C002523633C4BFF
:109030008021A3634C23E5523A4B3B4AE3633B4B0D
:10904000626423666823E552394B2570A365394B6A
:109050002564635084233849A564E1500433E55006
:109060000433E250A0220433E5500433E5500433C6
:10907000E5500433E550314B2565A3500022B82359
:109080006565E5656566E5662567E2542300D422DB
:10909000D033A3502000043AA350D823E830E55041
:1090A00000F084FF8A2301225B00E2500C33E5507C
:1090B0000433E5503433E5502C320433E250D022EF
:1090C00023009200A018002100226133FF331A8090
:1090D000997018339842FAD1D12300219B00E154B2
:1090E000D3210433E250043BE31889006350043178
:1090F0006350D5239B00E250114B124A1A60124A6A
:109100005A60124A1A6100225A619A611E225A62FA
:10911000FA2292009A6270BDF0F5011060210020E1
:10912000CCF5011088880800204E0000E0B1FFFF58
:1091300011CA0800E4F50110AAAA2A00D8F5011006
:10914000D8390020FCF501108813000000003442DB
:10915000002310B500210370014801F043FC10BD4D
:109160007414002070B5084D04002800002101F09F
:1091700039FC28000022054901F050FC012323702E
:109180000023236170BDC0467414002000003443E6
:1091900070B504002830150002F086FD200029007B
:1091A000D03002F0EBFF0D4D0021280001F01AFC39
:1091B000002228000A4901F031FC0123237000231A
:1091C0002361636A002B05D020000021E83000F005
:1091D0000BFF70BD034B6362F6E7C04674140020BA
:1091E00000003443D83900202E4BF0B500254360F1
:1091F000002383B00362C560040014F0A7FAB42111
:10920000490006F00FFD080007F00CFC264B6561D5
:10921000A0600A20185E07F001F802000B0006F0BB
:109220006DFF0022214B06F090FF060060680F00E2
:1092300006F0F4FF02000B003000390006F067FF73
:1092400007F034F81A4B1B4D2361FF23A061002265
:10925000280000930021002301F0CCFB280080218E
:1092600001F0C0FB144D8A272E007F00D036652206
:109270003000E95D02F09CFF3000642102F0ACFF99
:1092800001223000E95D02F093FFFA21300049002D
:1092900002F0A2FF32236362FA239B00A36203B0B1
:1092A000F0BDC04688130000441400200000444074
:1092B000000070417414002060210020F0B5454684
:1092C000DE4657464E468046E0B54469816883B025
:1092D000201C07F041FB4346051C98600021201C20
:1092E00007F080FB002850D10021201C07F090FBE4
:1092F00000280AD04346D86907F094FB041C011CDF
:10930000281C07F085FB00284AD143469E6A9C69C9
:10931000E04B99460A229B5E9A464346DF68FA2351
:109320009B009B469E4200D187E00021201C07F055
:109330006FFB002838D0300007F074FB391C07F0B1
:1093400057FB002800D1C8E1802342461B06E318E2
:10935000936143465A46211C9A62381C07F0F9FA79
:109360004346061CD8605346584207F05BFB311C4D
:10937000071C07F045FB002800D078E0504607F0B6
:1093800051FBC54B041C9A463DE04346D86907F0A3
:1093900049FB041C011C281C07F024FB0028B4D046
:1093A0004346251C9C60B0E70021201C07F01AFBF7
:1093B000002800D1BDE1300007F034FB391C07F074
:1093C0001FFB002800D1FBE1802342461B06E31867
:1093D000936143465A46211C9A62381C07F0B9FA39
:1093E0004346061CD860504607F01CFB311C041C89
:1093F00007F0FEFA00283AD15346584207F012FB14
:10940000A54B071C9A46311C201C07F001FB0028C5
:1094100000D0341C391C201C07F0FAFA002800D1B7
:109420003C1C5046221C291C01F0F8FA03B0F0BC89
:10943000BB46B246A946A046F0BD391C201C07F029
:109440008BFA4346061CD8600021201C07F0E0FA86
:109450000028C8D10021201C07F0C4FA002800D041
:1094600081E75346584207F0DDFA071C86E7281CBF
:1094700007F0FAFA00210500301C07F0B3FA0028C3
:1094800006D02800B421B430490006F0CBFB0D0013
:10949000824BD1269A46D32352469B00B600D4581D
:1094A0005644B44200D105E157462137FF3706E064
:1094B00020000AF027FC0400B04200D1FAE0216944
:1094C000380002F05BF887239B009C46B421401BC8
:1094D0006044490006F0A6FBB439CB17C9185940BF
:1094E00043465A6AD30F9B185B109942E0DC43460F
:1094F0000021D86807F08CFA0200531E9A4100231D
:10950000674C00932000012102F0E6FD2000962127
:10951000A830490002F060FE434601241A6A013275
:1095200043461A628A2351465B00C95C002A00DC6C
:1095300050E10B2A00DD0CE15046D2B2D03002F0EF
:1095400037FE4346002C00D0CFE05E684B460A2031
:10955000185E06F063FE02000B0006F0CFFD514BD3
:10956000002206F0F2FD040030000D0006F056FE69
:10957000434606000F009869002107F049FA0028C9
:1095800000D101E180231B063200E91820003B00D6
:1095900006F0BDFD06F08AFE4346986114F0D6F849
:1095A000C3179B0DC0188005800DC01A06F036FE4B
:1095B00000223D4B06F0C9FD00223C4B06F0C5FDE4
:1095C0000022394B06F09AFD4346040018690D004D
:1095D00007F088FA02000B002000290006F0B5FD14
:1095E00006F034FE040014F0B1F8C00700D5644260
:1095F00043469D68200007F015FA291C07F0ACF9D6
:1096000007F032FAB4235B00984200DC9DE01800BA
:109610004346D86107F006FA291C07F09AF9244955
:1096200007F0B1F907F05EFA02000B0006F066FDE4
:109630004346040058680D0006F0F0FD0B000200E0
:109640002900200006F063FDFA2406F02FFE4346B1
:10965000A40058619C621B6A062B00DD9DE00E4B46
:1096600000229A46FF23002100930023504601F078
:10967000C1F943469D684B460A27DF5F380007F073
:10968000D1F94346041C7842DE6807F0CBF9071C89
:10969000B9E6C04644140020741400206021002064
:1096A00088210020000044400000E03F0000503FBF
:1096B0000000204200234B4C002220000093002198
:1096C00002F00AFD20009621A830490002F084FD36
:1096D00043461A6A0024013A22E7391C201C07F08D
:1096E0003BF94346061CD8607DE6586806F096FDB7
:1096F0003D4B3E4A06F029FD06F0A8FDFA23060080
:109700009B00984200DA1E004346394918695E60A2
:1097100007F022F93749041C07F064F9002857D0F4
:109720003549201C07F074F9002859D043461C61C4
:109730000CE7391C201C07F00FF94346061CD860C3
:10974000504607F06FF9041C56E6C343DB17184078
:109750005EE754466822D034200002F029FDFA2149
:109760002000890002F038FD244C0021200001F087
:1097700039F900222000224901F050F90123524614
:1097800013700023136151E632003B0020002900D2
:1097900006F0BDFC06F08AFDFEE613F0D7FF0521BA
:1097A00006F040FA4346002918D09B6AA34200D134
:1097B00055E7124B00229A460023FF21009355E7FC
:1097C000391C201C07F0C8F84346061CD860CAE5BF
:1097D000084CABE754466722D034BDE79962E8E70E
:1097E000054CA3E7882100203333EB3F3333333379
:1097F00000004040000070420000704174140020DE
:10980000000034430323F0B5446A03702368314AEF
:109810009B6883B0934259D12F4B0025636000238E
:10982000E560236213F092FFB421490006F0FAF9D3
:10983000080007F0F7F8294B6561A0600A20185E60
:1098400006F0ECFC02000B0006F058FC0022244B52
:1098500006F07BFC060060680F0006F0DFFC0200EB
:109860000B003000390006F052FC06F01FFD1D4BC6
:109870001D4D2361FF230022A061002128000093D9
:10988000002301F0B7F82800802101F0ABF8174D54
:109890008A272E007F00D03665223000E95D02F075
:1098A00087FC6421300002F097FC01223000E95D62
:1098B00002F07EFCFA213000490002F08DFC3223D8
:1098C0006362FA239B00A36203B0F0BD20009847B7
:1098D000FAE7C046E9910010881300004414002004
:1098E00000004440000070417414002060210020FA
:1098F000F0B505000400D035280083B002F0B0FCBC
:1099000020002130FF3001F0F9FD884BE1685A6AF0
:10991000A068914221D89B6A834220D303F086FE3F
:109920000023834A801859410B0080210200090658
:109930008B4202D301227F4B5242E3602378A26024
:10994000022B14D0032B0DD0012B06D1280002F0DE
:109950006BFC002801D10223237003B0F0BD9142BB
:10996000DCD1FAE7606A0368DB689847F5E7902383
:109970005B002269E3589A421AD003F057FE002395
:109980006D4A801859410B008021020009068B4264
:1099900002D30122674B5242E36190235B00E358FC
:1099A000A2612361002B00DD89E000232362D4E75C
:1099B0008C26FC217600A059890506F0E4FFA05111
:1099C00007F084F85D4EC1B2300001F00BF8236956
:1099D000002BC2D0554BE1695A6AA0699142BCD8AC
:1099E0009B6A834201D29142B7D0280002F01CFC4E
:1099F0000028B2D1236A01332362032B6FDD0323D6
:109A0000676A23703B684E4A9B68934200D089E0A6
:109A100000244C4BFC607B60386213F097FEB4214D
:109A2000490006F0FFF8080006F0FCFF464B7C6199
:109A3000B8600A20185E06F0F1FB02000B0006F089
:109A40005DFB0022414B06F080FB040078680D00AE
:109A500006F0E4FB02000B002000290006F057FB93
:109A600006F024FC3A4B00223B61FF23B861002141
:109A700030000093002300F0BDFF3000802100F093
:109A8000B1FF344C8A2625007600D03565222800A7
:109A9000A15D02F08DFB6421280002F09DFB0122F4
:109AA0002800A15D02F084FBFA212800490002F0A1
:109AB00093FB32237B62FA239B00BB624DE78A262D
:109AC0002800760002F09EFB2800227CA15D02F0B7
:109AD0006FFB66222800A15D02F06AFB65E70422A5
:109AE000D21A8A235B00E15CD2B2280002F060FB4C
:109AF00003F09CFD0023184A801859410B00802177
:109B0000020009068B4202D301220A4B5242E36152
:109B10008C23A261114A5B00FF213000E25000F06B
:109B200061FF1AE73800984717E7C0460040054034
:109B3000409C0000FFFFFF7FC0C62D007414002072
:109B4000E9910010881300004414002000004440F4
:109B5000000070416021002040420F0000007F4360
:109B60007047C046F8B54746CE4680B5A2271B4B86
:109B7000FF001B880600C351194BC4181C339946BB
:109B800000239846814413F0E1FDF559290006F0C1
:109B900049F8080006F046FF43462060E061A363F1
:109BA00004344C45EFD1002D14DD0E4B00249846B3
:109BB0006F007F190C367F002900200006F032F874
:109BC000032106F02FF8434689005B58063408C687
:109BD000BC42F1D1C0BCB946B046F8BD4414002027
:109BE000BC0400005414002010B50400024907F022
:109BF00033F9200010BDC04614050000F0B5DE4664
:109C00004E4645465746E0B587B00600039013F030
:109C10009DFDFA21C90006F005F8CF4BC81806F0E3
:109C2000FDFA0022CD4B06F072FA0400B0680D0078
:109C300006F058FF02000B002000290006F05EFA33
:109C400006F034FB061C06F04DFFC54AC54B040068
:109C50000D0006F0BDFA002800D175E120002900B2
:109C6000BF4AC14B06F0C2FA002800D16EE1039C46
:109C7000301C6168A66006F06FFEA223DB00E75887
:109C80006060051C380006F0CDFE2600011C041C97
:109C9000281C06F0BDFE002805D0281C211C06F05B
:109CA00058FE051C70600021281C06F09BFE002851
:109CB00006D0281C211C06F04FFE039B051C586093
:109CC000002F29DD7B1E994696235B00994500DB1A
:109CD0003EE1FF231B0400249846A44E200006F01A
:109CE000A1FE291C06F038FE06F0BEFE390005F084
:109CF00099FF039A023194468B0063445A680134F9
:109D0000130C1106090C1B060B43414612020A40B4
:109D1000134308C64C45E1DD039B954A1C0094465D
:109D200014326444944625006344059313F00EFDF9
:109D3000FA21C90005F076FF874BC81806F06EFAC5
:109D400000228C4B06F0E3F90600A86B0F0006F02A
:109D5000C9FE02000B003000390006F0CFF906F012
:109D6000A5FA041C06F0BEFE834A844B06000F00D1
:109D700006F02EFA002800D1E0E0300039007E4ADB
:109D80007F4B06F033FA002800D1DAE0211C201CBA
:109D900006F0F9FD211C06F0F6FD2968AC6306F01B
:109DA000DBFDEC692860211C804606F0D2FD06F040
:109DB00099FE6B4A734B06F0C8F90600201C0F0091
:109DC00006F090FE02000B003000390006F096F914
:109DD00006F06CFAA223039ADB00D358E861041C56
:109DE00018009A4606F01EFE061C011C404606F0AE
:109DF00007FE00280AD0311C404606F0AAFD311C9F
:109E00002860201C06F0A5FD041CE8612B680021D9
:109E1000181C994606F0E6FD00280BD04846311C78
:109E200006F09AFD311C28608146201C06F094FD46
:109E3000041CE861211C484606F0D4FD431E9841ED
:109E40004300984601235B429C464946201CE0445F
:109E500006F07FFDFE2140008905400806F07CFDEC
:109E600006F002FE834600285CDD06F0DBFD3F4B7A
:109E70000024002701900293049523E00021301C68
:109E800006F0C6FD002848D0301C06F01FFEC2B206
:109E900013029B181B029A18190C1B0A96204000EB
:109EA00085420BD2FF201B0400041206120C034053
:109EB00013430906029AAD000B43AB5001374444EB
:109EC000BB452ED0380006F0ADFD019906F047FDE8
:109ED000011CFE20800506F03CFD061C200006F05B
:109EE000A1FD494606F038FD06F0BEFD514605F0DD
:109EF00099FE0D1E00DA5544311C301C06F043FD5E
:109F0000214906F040FD2049061C06F06BFD0028A3
:109F1000B4D1FF211D4B1E4AC0E7002300210022BF
:109F2000BCE7049D059B0435AB4200D0FEE607B0BC
:109F3000F0BCBB46B246A946A046F0BD1548164C3B
:109F40002BE71648164C28E7164E90E6164E8EE67E
:109F50002C23FF339946BCE618FCFFFF0017E140B5
:109F60009A9999999999C93F9999C9BFB01C0020AC
:109F7000BC0400000088C340666666666666F63FFD
:109F80006666F6BF9999B93F00007F43FFFF000066
:109F9000FFFFFF00B29D2F403333B33FB29D2FC070
:109FA0003333B3BFCDCC4C3ECDCC4CBE002370B5CB
:109FB0000A4E050008C02822002106F039FF3000B3
:109FC00006F042FF04003200002106F031FF044B8E
:109FD00028002360034B6C60636070BD14050000B3
:109FE00024F60110000080BF10B501608900401800
:109FF00040680368DB68984710BDC046036810B529
:10A000009B00C018406803689B68984710BDC04615
:10A0100030B50B7C0C0085B0012B0DD001238A6874
:10A02000A02193408622C905D2008B5003232374BC
:10A030000020002105B030BD0868002103F0E2FED9
:10A040000223237403F0E2F8050003F0EFFA0C2278
:10A05000002312184B41802109068B4202D30122B2
:10A06000054B5242012102910449280001940091BC
:10A0700003F0D0F8DCE7C046FFFFFF7F11A000101F
:10A0800070B50400100062602160022102F0BAFA8B
:10A090001349206803F0B2FD002302220821206842
:10A0A00003F072FEA368013300D070BD012008F0F8
:10A0B00077FD21680B4B0C4DCB185A425341C2021D
:10A0C0000A332A401B04134311221343A022D20552
:10A0D0009446A06080016044E36003614160E4E76E
:10A0E00090D003000080FCBFFD7F00FF30B5836887
:10A0F0000400A020C00584469B01634419609A6057
:10A1000001230121237485B0206803F07BFE03F056
:10A110007DF8050003F08AFA6422002312184B41EF
:10A12000802109068B4202D30122064B52420121B3
:10A130000291054928000194009103F06BF8012079
:10A1400005B030BDFFFFFF7F11A00010037C0200AF
:10A15000032B03D05A425341D8B27047A021C905FE
:10A160008C46836800209B0163441B69DB01F4D4A7
:10A1700013689B691B07F0D410740130EDE7C046EB
:10A18000002303747047C04610B58168027C024802
:10A1900008F022F810BDC0466CE70110F8B5DE46A5
:10A1A00057464E464546334BE0B51C68A369DB066F
:10A1B00020D4314B10259A461978002399462F4B0D
:10A1C0002F4F98463A782F4EA3691D42FCD1206844
:10A1D000092A0CD8531CDBB2B0543B701A0000297A
:10A1E0000ED1072B03D1336843452CD00722A36936
:10A1F0001D42E9D0F0BCBB46B246A946A046F8BD18
:10A20000052BF4D13379F2781B029B189B109B46E7
:10A2100014D0B421B0787378C001C01880114900FF
:10A2200005F000FD184B1B78002B19D15B46174831
:10A230009BB24A0083520122154B5A544B463B7045
:10A2400001210022D3E78023B288DB019A42CDD1DD
:10A25000B379812BCAD15246803B13703970EFE736
:10A260000A484A00835A5B4501DC9BB2E2E75B4641
:10A270009BB2DFE72048002043550020A55A050087
:10A2800042550020744200204455002080420020A6
:10A29000244800202021074B1B689A691142FCD1F9
:10A2A000A52220211A609A691142FCD140221A602D
:10A2B0007047C046204800202021094B1A68936946
:10A2C0001942FCD1A523202113600800936918408E
:10A2D0001942FAD1034B11601870034B1870704784
:10A2E0002048002043550020425500202021074BE4
:10A2F0001B689A691142FCD1A52220211A609A6933
:10A300001142FCD125221A607047C0462048002027
:10A31000F0B557464E46DE464546264BE0B51B682F
:10A3200085B09A465B429B46234B52461B68564675
:10A330009946224B6A361B68214F0393214BFF3607
:10A340009846214B534401935B469B1A013B029371
:10A35000DA452DDB029B1D4D9C19B42120004900DC
:10A3600005F060FC49007B5A9D4200DD1D00013470
:10A37000A642F2D1A94518DA4B46E81A06F052FB7C
:10A38000039906F000FB06F06FFB4346188002239A
:10A390009C46019B0136E044B342D9D105B0F0BCE4
:10A3A000BB46B246A946A046F0BD43461D80EEE737
:10A3B000064DDFE7601400206C14002068140020B4
:10A3C00080420020A43F0020D1020000E02E0000C7
:10A3D00070B50C00E1210600164D1000C9022A607C
:10A3E00003F00CFC3000022102F00CF920000221E5
:10A3F00002F008F9104B2C689C466444631E9C4193
:10A40000143420000D4902F05DFA0121200002F011
:10A4100033FA502238212B689A635A6B3433114037
:10A4200080225201134300221960054B1A70054B1C
:10A430001A7070BD2048002000C0FCBF9DA1001014
:10A440004455002045550020F0B5DE4657464E469F
:10A450004546E0B5AA4CAB4B61685A6A206885B0A6
:10A46000914207D9002005B0F0BCBB46B246A946D0
:10A47000A046F0BD9B6A834219D303F0D7F80023AE
:10A48000A14A801859410B008021020009068B4225
:10A4900002D301229D4B524263609D4B2260039385
:10A4A0001B78052BDED89B4A9B00D3589F469142D0
:10A4B000E3D1D7E7984B994F1B689A465B429B467E
:10A4C000974B52461B6856469946964B6A361B6810
:10A4D000FF360293944B9846944B534400935B464B
:10A4E0009B1A013B0193DA4500DA04E1019B904D90
:10A4F0009C19B4212000490005F094FB49007B5AC7
:10A500009D4200DD1D000134A642F2D1A94500DBC9
:10A51000EEE04B46E81A06F085FA029906F033FAA7
:10A5200006F0A2FA4346188002239C46009B01369F
:10A53000E0449E42D7D1002220217E4B7E4C1A70EF
:10A5400023689A691142FCD1A52220211A609A69D8
:10A550001142FCD12522FA201A60400002F07AFF55
:10A560002021226893691942FCD1A5232021136080
:10A570000800936918401942FAD1704B11601870A5
:10A580006F4B039A187002236E48137007F024FE75
:10A5900068E76D4807F020FE03F048F800236B4A97
:10A5A000801859410B008021020009068B4202D31A
:10A5B0000122564B52420CC401225E4B1A700523F5
:10A5C000039A13704EE7624807F006FE03F02EF878
:10A5D0000023604A801859410B00802102000906BF
:10A5E0008B4202D30122494B52420CC40423039AEA
:10A5F000137037E7584F4C48B4243900BC46002349
:10A600000700564E454DA4000A78002A42D0EA5A67
:10A61000002A3FD0F85A90423CD9F252023301311D
:10A62000A342F1D16746B42238000021520006F05F
:10A63000FFFB4B4BB1460427DF5F4A4B1B689B4631
:10A640001D00002398466933FF3346469A46C846A4
:10A6500006E002239C460136E144013556454CD0C4
:10A660004B461B88BB42F4DA5B46002BF1DD34001D
:10A6700002E00134AC42ECD0B4212000490005F0E6
:10A68000D1FA434649005B5A9F42F2DA4B46284AC8
:10A690001A80DEE7264A0131F2520233A342B3D1D7
:10A6A000C0E72021244B1A6893691942FCD1A523E5
:10A6B000202113600800936918401942FAD11F4BFA
:10A6C000116018701E4B187002F0B0FF00231F4A73
:10A6D000801859410B008021020009068B4202D3E9
:10A6E00001220A4B52420CC40223039A1370B9E6AA
:10A6F00043461D8018E70E4D08E70120B3E6C0462B
:10A70000781B002000400540A0860100FFFFFF7F6E
:10A710004555002034F601106014002080420020CE
:10A720006C14002068140020A43F0020D102000017
:10A73000E02E000044550020204800204355002012
:10A7400042550020A8E7011098E7011040420F0091
:10A7500088E7011000093D002448002050450020F2
:10A7600044140020641400207047C046F0B5CE4663
:10A770004746040003000D00002180B587B0160095
:10A780000091021D21003848083306F0A7FD00287B
:10A7900004D107B0C0BCB946B046F0BD63682768B5
:10A7A0009846A3680124AC40994622002300414604
:10A7B000380006F031FF220023004146380006F041
:10A7C0007FFF2A4B2800F9184B1E9941063101F0F2
:10A7D00019FF80235B0202934B464A460333D201A2
:10A7E0001B031343224A052013408022D205134342
:10A7F000204A0393204B2A401343AD022B43059379
:10A800001E4B049303F092FC06F007F9041CF000C1
:10A8100006F003F9011C201C06F0A1F8051C06F047
:10A8200055F984B20023002C0ED0200006F0F5F874
:10A83000011C281C06F08DF88721C90506F0A3F835
:10A8400006F044F9C3B21B0224044A4641461C43A5
:10A85000380002AB029406F0DBFF012341468B4037
:10A860003A6813433B6094E74CF601100000E0AFF8
:10A87000FFFFFF9FFF83FFFF0000104000000C4020
:10A8800010B5046840680122030010339A406368E1
:10A890001A42FCD104308000015110BD0EC8064898
:10A8A00010B58446042482B061440448090D009424
:10A8B00007F092FC02B010BD0000E0AFB8E7011055
:10A8C00010B50378282B39D006D9292B28D0642B32
:10A8D00001D108F03FFA10BD0A2B0ED0142BFAD18B
:10A8E0008378C1781B0609040B43017942781C4C1C
:10A8F000090292000B431351EDE74378002B2BD054
:10A90000184B1A68164995200B00C00008181A60E9
:10A910005A6008339842FAD19523DB00CA50DAE72F
:10A92000837842781B021343C27812041A430379D6
:10A930001B0613430B4A1BBA1360CCE7837842789B
:10A940001B021343C27812041A4303791B061343F4
:10A95000054A1BBA1360BEE7034B1A68D2E7C0462C
:10A96000B01C002070140020C838002010B5002151
:10A97000022001F071FE0021022008F023F910BD31
:10A9800070B5134B134C5A6A6168050026680020A5
:10A99000914219D89B6AB34217D302F047FE0023B5
:10A9A0000D4A801859410B008021020009068B4294
:10A9B00002D30122094B52420CC4A84796210848F1
:10A9C000490008F087F9012070BD9142E5D1FBE70D
:10A9D00000400540701B002010270000FFFFFF7F94
:10A9E000B01C00204268024B9B1899717047C0460A
:10A9F000703A002070B504AC26784568064C65199D
:10AA00002972416861184A724268A21893724368B9
:10AA1000E418E67270BDC046703A0020F0B54646B4
:10AA20004F468846D6464549C0B506004046171CE5
:10AA300005F0D8FF002853D00021404605F0E8FF7C
:10AA4000002800D175E0404606F04CF804000D00E7
:10AA5000381C3B4905F0C6FF00284BD1C2239A465B
:10AA600028339946364F374B988905F0D7FB00229B
:10AA7000354B05F04CFB2B00220005F066FB05F082
:10AA800009FC7268314B010A9954494672689A1858
:10AA9000507072689A18D17072689B1852461A7179
:10AAA00006F0DEFB652006F0E3FB84214046C90585
:10AAB00005F069FF05F0D8FF00B206F0E5FB842140
:10AAC000381CC90505F05FFF05F0CEFF00B206F0A7
:10AAD000DBFB06F0F9FBE0BCBA46B146A846F0BD88
:10AAE000164B00249846184D1549381C05F07AFF7E
:10AAF0000028B3D01649381C05F08AFF002812D070
:10AB0000381C05F0EFFF134A134B05F01EFB134BE7
:10AB1000002205F0F3FA05F0BDFB030ADBB299460B
:10AB2000C3B29A469FE73E239A46293B9946084F6F
:10AB300099E70023002400259846D5E70000B44398
:10AB40000000B4424414002000807640703A002097
:10AB50000000B4C2ABAAAAAAAAFA72400000E04060
:10AB600010B50248FEF7A0F810BDC04660210020D5
:10AB7000F8B507F0C3FF08220A212648FEF708FBB4
:10AB80000023254DA0262B80244B254C9C46760186
:10AB90006544200005F046FF224905F0F4FE05F06B
:10ABA000ABFF214905F0EFFE05F05EFF2F190234DF
:10ABB0003880B442EDD10E2001F05EFDD024802318
:10ABC0002406DB01A362002201210E2001F032FDE8
:10ABD0000B2001F051FD80231B016362A361134B25
:10ABE000042219681248FFF74BFA052001F044FDD2
:10ABF00020236362A361FFF7B9FE0E4B0D211A6893
:10AC00000C20FFF7E5FBC82002F024FC01220A4BD0
:10AC10001A70F8BD602100200C27002000FCFFFF07
:10AC200002040000DB0FC93A00FEFF467C1400203E
:10AC30005C3A00208014002045550020F0B5D6462F
:10AC40004F464646884C894B6268596AC0B52068B1
:10AC5000914226D39B6A834257D30121844A1378B9
:10AC60004B40137059D0D02380221B0692045A61A6
:10AC7000804B1D6802F0DAFCFA2206000F00002368
:10AC800092002800002105F047FE801979410B0051
:10AC90008021020009068B4202D30122764B5242E8
:10ACA0000CC4D0231B065A6874490B68520423D580
:10ACB000002B3DDD013B0B60714B1978714B1A780D
:10ACC0008A4203D07048197007F086FAFFF7BCFB80
:10ACD000002839D16D4F3800FEF70AFE6C48FFF7A7
:10ACE0004FFE6C4C2000FFF731FA002825D1E0BC64
:10ACF000BA46B146A846F0BDFA229200934212DA53
:10AD000001330B605E4B1978D8E79142C9D001211D
:10AD1000574A13784B401370A5D1D02380221B06CD
:10AD200092049A61A4E70122554B01211A70C5E7EC
:10AD30000022534B00211A70C0E7802220005649A0
:10AD40005200FFF7D3F9D2E7544B55499846180003
:10AD500000F070FE06F084FA642006F089FA43469B
:10AD6000D322213BFF3B92009C58293AFF3A4244B0
:10AD70001F009146944206D152E0200008F0C2FF25
:10AD8000040048454CD025696E007319DB00FA18A1
:10AD90006332FF321278002AEFD04344D96C986CAA
:10ADA000002940D0FA220023920004F0A1FFFA23E8
:10ADB0005B009A46824402F039FC00293FD0FA2217
:10ADC0000023920004F094FF8245D6D23B0076190E
:10ADD0002133FF33F6009B19596D186D002933D0CC
:10ADE000FA220023920004F083FF0600F536FF36B6
:10ADF00002F01CFC002932D0FA220023920004F059
:10AE000077FF8642B9D32900404600F0B7FB80B2F5
:10AE100006F04AFA200008F075FF04004845B2D158
:10AE200006F052FA57E7FA21890004F023FFFA23CB
:10AE30005B009A46824402F0F9FB0029BFD1FA2157
:10AE4000890004F017FFBFE7FA21890004F012FF20
:10AE50000600F536FF3602F0E9FB0029CCD1FA21D5
:10AE6000890004F007FFCCE7801B0020004005406C
:10AE70003655002084140020FFFFFF7FCC390020CE
:10AE80003A5500203B550020D4E7011060210020F6
:10AE900061AB00105C3A0020703A00208022002054
:10AEA00050450020F0B585B00A0001A90C00114BF7
:10AEB000E0CBE0C40378452B08D00A2A04D90B2242
:10AEC00011F0A2FB002806D005B0F0BD411C0A48D5
:10AED00007F082F9F8E7094807F07EF9FFF706FA6C
:10AEE000FA20400002F0B6FA07F016FEFFF7E4F988
:10AEF000EAE7C046F8E70110DCE70110E4E70110DB
:10AF0000B42110B50348890007F09AFD0248FDF707
:10AF10007BF910BDA43F0020441400200122034B04
:10AF200052429A6000221A747047C0465C3A002070
:10AF3000F8B504000D0006F057F9992813D86328D6
:10AF400009D8431EDBB21D2B1AD81E2818D88C4AEC
:10AF5000800013589F466438C0B2352810D8894AFB
:10AF60008300D3589F4603003833DBB2042B07D845
:10AF70003730C0B203281ED8834B80001B589F4631
:10AF8000824807F029F9002D08D00026804FA15DE6
:10AF90003800013607F020F9AE42F8DB0A2007F04E
:10AFA000EFF807E006F044F97A4B01001A5C7A48A2
:10AFB00007F012F9F8BD06F03BF9040006F014F9A9
:10AFC000744B1855F6E706F033F905F027F900221F
:10AFD000724B05F0BAF805F069F9041C06F012F995
:10AFE00005F01CF900226D4B05F0AFF805F05EF995
:10AFF0006B4B021C211C1800FFF710FDDAE76948B3
:10B00000FFF7BEF8D6E76748FFF7BEF8D2E706F0CD
:10B01000EBF88300644A1B185B001360CAE7B9238E
:10B02000624F9B003D009C4600261435674406F0A5
:10B0300017F9152006F01CF92C00F0B206F018F9EB
:10B04000143C2088023406F02FF9AC42F9D11435B3
:10B0500006F03AF90136BD42E9D1ABE7B923544FC6
:10B060009B003D009C4600261435674406F0F8F826
:10B07000142006F0FDF82C00F0B206F0F9F8143CAC
:10B080002088023406F010F9AC42F9D1143506F0EC
:10B090001BF90136BD42E9D18CE7013D4548EAB2D2
:10B0A000611CFDF7A3FF85E7B923434F9B003D00DB
:10B0B0009C4600261435674406F0D2F8162006F0A8
:10B0C000D7F82C00F0B206F0D3F8143C20880234F4
:10B0D00006F0EAF8AC42F9D1143506F0F5F801367D
:10B0E000BD42E9D166E7013DE9B2601CFFF7E8FB2C
:10B0F00060E7013D3148EAB2611CFDF78BF859E782
:10B1000006F072F8052800D954E72D4B80001B5833
:10B110009F4603222B4B1A704CE7FFF7F9F849E7DB
:10B12000FFF7CAF80222274B1A7043E7FFF7DEF851
:10B130000022244B1A703DE7FFF7ACF83AE7FFF71F
:10B1400013FB37E707F096F834E706F071F81E4B6B
:10B1500018602FE706F06CF81C4B18602AE71548BA
:10B16000FEF700F826E71348FEF74CFB22E71148EC
:10B17000FDF7EEFF1EE706F05BF8154B186019E7C8
:10B1800070F60110ECF60110C4F7011010E8011080
:10B1900018E80110703A002004E801100000A03FF8
:10B1A000741400205C3A002084140020A43F002086
:10B1B00080420020602100205045002044140020DF
:10B1C000D4F7011045550020641400206C140020B1
:10B1D00060140020F0B5C646040000B514200D0030
:10B1E00005F032FE23690600036123784560037091
:10B1F00000238360C360E068002803D03100FFF7BC
:10B20000E9FFF060A568002D1ED0002337009846A6
:10B21000142005F019FE2B69040003612B780370DC
:10B2200043468360C360B8604760E868002808D080
:10B230002100FFF7CFFFE060AD68002D04D02700AC
:10B24000E6E7AD68002DFAD1300080BCB846F0BD0D
:10B25000F0B5DE4657464E464546E0B583B0019010
:10B26000002876D0019BDB689946002B68D04B46BE
:10B27000DB689A46002B59D05346DB689B46002B6F
:10B280004AD05B46DC68002C32D0E568002D1DD02A
:10B29000EB689846002B22D04346DE68002E31D062
:10B2A000F768002F09D0F868FFF7D2FF3800BF68B1
:10B2B000142105F0D1FD002FF5D1B768142130001D
:10B2C00005F0CAFD002F1DD03E00E9E7A568142156
:10B2D000200005F0C1FD002D0AD02C00D5E7AE6896
:10B2E0001421280005F0B8FD002EEFD03500CFE77F
:10B2F0005B469C681421584605F0AEFD002C0BD02F
:10B30000A346BEE743469E681421404605F0A4FDCF
:10B31000002EE4D0B046BFE753469C681421504647
:10B3200005F09AFD002C01D0A246A5E74B469C688B
:10B330001421484605F090FD002C01D0A14696E767
:10B3400001981421846805F087FD002C01D0019438
:10B3500088E703B0F0BCBB46B246A946A046F0BDA4
:10B360008823F0B5C6469B00C6187369070000B570
:10B37000142B5BD002000024423203E00134183267
:10B38000142C02D01578002DF8D165002D19ED0090
:10B390007D192B00012242331A70023B198002F002
:10B3A00045F989239B009C4628656965A864E96482
:10B3B000B5686744002D05D131E0AA680123002A51
:10B3C00007D015002969A142F7DCEA680023002AAA
:10B3D000F7D1002B1BD18C4215DDAF4223D02A6957
:10B3E0000123944200DB0023DBB29846142005F0D1
:10B3F0002BFD3B00010004612A00404608F0B6FC2A
:10B40000736901337361200080BCB846F0BDF368F6
:10B41000AB42E2D0280008F08DFC0169DBE7F3685D
:10B420003D009F42F6D101239846DFE701246442A4
:10B43000E9E7C046F8B588239B004E46994681440B
:10B440004B46DC6889239B00454698465746DE46B6
:10B450008044E0B50700A04524D000239A46266921
:10B460007500AB19DB00FB18596D186D00293FD032
:10B47000FA220023920004F03BFCFA231B019B46B6
:10B48000834402F0D3F8002912D0FA22002392005C
:10B4900004F02EFC834511D3200008F033FC040097
:10B4A0008045DCD1F0BCBB46B246A946A046F8BDFB
:10B4B000FA21890004F0DEFB8345EDD25346AD1935
:10B4C000ED007D1942352B70200008F01BFC414631
:10B4D0000500200008F00CFD142105F0BDFC4B46D2
:10B4E0004A465B69013B5361A845DBD02C00B6E7B7
:10B4F000FA21890004F0BEFBBFE7C046836B0268F7
:10B5000070B504009A4225D0426893420FD1174B80
:10B510008568596AC068884208D89B6AAB4222D3C2
:10B52000134B22601A685B68A260E36070BD4360E1
:10B5300002F07CF800230F4A801859410B0080214B
:10B54000020009068B4202D301220B4B5242A26039
:10B55000E360EBE7064B1A685B688260C360012317
:10B560005B424360E2E78842DAD1DFE70040054012
:10B5700090F8011060E31600FFFFFF7F13290CD83D
:10B580004B005B18DB00C018030042331B78002B14
:10B5900003D040300023C05E704701204042FBE7EB
:10B5A000F0B54546DE464E465746E0B593461E008A
:10B5B0000268436885B001929A1A121102939300AF
:10B5C0009B180D0019015B1819025B1819045B1810
:10B5D0005B009B18404A8046934200D178E0019876
:10B5E000291A8A460299884264D059008B4256D85B
:10B5F000002962D1002330249946039359465346CB
:10B6000009684B443288196001999A80A9421CD07C
:10B61000484603000A00D0CAD0C3D0CAD0C3D0CA9B
:10B62000D0C33031D0CAD0C33030A942F1D12A00C2
:10B63000019B303AD21A294B120953431B011A09B4
:10B64000DC08A418240160344C44029BAB4210D0A7
:10B650005E1B303E214B360973431B011B0901332E
:10B660005E00F618360120003200290005F0E6FBE6
:10B67000A419019A002A05D0434699681000891A36
:10B6800005F0EAFB43464A461A60039A5C609A60FA
:10B6900005B0F0BCBB46B246A946A046F0BD104C72
:10B6A000200005F0D1FB2300814604004B440393A6
:10B6B0003034A3E7591C0133F1D2914203D84B0037
:10B6C0005B181C01ECE711004B005B181C01E7E75D
:10B6D000044808F09DFDC046AAAAAA02ABAAAA0A7D
:10B6E000E0FFFF7F1CE80110F0B5DE4657464E46EE
:10B6F000454600220023E0B591B00692079300234F
:10B70000826B019008930A93002A00DC7EE10023FB
:10B71000994606000AAB0025002449461F00103652
:10B72000A94200D158E133880C608B80013430315C
:10B7300007910A940236A242F2DC069C89460A1B53
:10B7400011118B005B1818011B1818021B18180424
:10B750001B185B009B462B1BBA4600948B4402933C
:10B76000002A00DC60E18821019A890013008C46E0
:10B7700063440393DB681600984613008922920005
:10B7800094466644464521D000274A46B9461F00E4
:10B79000049205954046A58801694B00E2185B18A4
:10B7A000DB00FB1840331B88EB1AD9175B184B40A2
:10B7B000D38008F0A7FAB042EED101239C46E144C1
:10B7C0003034D945E6DB049B059D9946524600235B
:10B7D000137193605361039B0BAE9868D66000238E
:10B7E0001661002813D03100FFF7F4FC03001A00A3
:10B7F0009B68002BFBD103000D921A00DB68002B25
:10B80000FBD10E925246039B5B6953610C90009AE8
:10B81000914500D17DE00295002B6AD0009BC8467F
:10B82000002799451BD05346DB68FA259B46009BB1
:10B8300000271C009846AD00B3450DD0584602695C
:10B840005300E318DB88AB4202DA1700A0461D0064
:10B8500008F058FAB042F2D13034A145ECD1019B46
:10B860007C009C46E419E40064444246230092882C
:10B8700040331A8001F0DAFE2065616541463031BF
:10B88000494507D04B465A1A302A00DCB4E04046FE
:10B8900011F0C8FC30235B429C46E1444B460793C1
:10B8A00053469868002800D1AEE00400310002E061
:10B8B000E468002C07D02369BB42F9DBA26847DDAE
:10B8C0002100141EF7D188465346DB68434509D151
:10B8D000B04507D1FFF7BCFC52460023D660936009
:10B8E00016615361009B994569D053465B69002BF3
:10B8F00094D1029D009BEA1A1C000292994508D03F
:10B900004D46019EA18830003034FFF729FDA54245
:10B91000F8D10198FFF78EFD53469C68002C09D0A2
:10B92000E068FFF795FC2000A468142105F094FA64
:10B93000002CF5D1009B002B03D00299009805F054
:10B940008BFA11B0F0BCBB46B246A946A046F0BD8A
:10B950008846E368002A06D01169B9423ADB140030
:10B960009268002AF8D1002B0CD0414603E0190060
:10B970009B68002B05D01A69BA42F8DCDB68002B03
:10B98000F9D188465346DB689C424FD0474655461E
:10B99000A045A7D0200008F0B5F9A046310004006A
:10B9A000404608F0A5FA142105F056FA6B69013BF0
:10B9B0006B61A742EED1009BAA46994595D1029DA5
:10B9C0000198EB1A0293FFF735FD53469C68002C53
:10B9D000A6D1B2E7D268BDE733003A0006A8FFF768
:10B9E000DFFD019B01349A6B0799089D0A9402368A
:10B9F000944200DA94E6A0E6302A00D04AE74046B6
:10BA0000023A05F01BFA45E7B0465DE70023994688
:10BA1000009302930AAB9A46002503008822920005
:10BA2000944663440393D1E6019BF7E7B045ADD15B
:10BA300050E7C046F0B557464E464546DE46002321
:10BA4000E0B5B426394F83630422BB5E82460025ED
:10BA500000241A00C06B85B0760002E00134B442C5
:10BA600060D06300CB5A0135934200DA0025A8422A
:10BA7000F4DA8B466821FF3191468C4244D008228B
:10BA8000BB5E00260393B4235B0098460023002787
:10BA9000A0440293019008E0002E3CD1002501272C
:10BAA000029101360134A0452BD0B4212000490079
:10BAB00004F0B8F85A464B009B5A9945ECDC013526
:10BAC000002EEFD0019BAB4229DC53469E6B132E18
:10BAD0001ADC5246731C9363029BF80F9C46C019F4
:10BAE000039B40106044B4219C464900604404F02C
:10BAF00099F8534608367600013499530026A0453C
:10BB0000D3D15046FFF7F0FD05B0F0BCBB46B246BE
:10BB1000A946A046F0BD0025019BAB42D5DD01261C
:10BB20000137BFE791468B46A9E7C0464414002081
:10BB30008022F0B54D1C8668134CFF35120514E0C9
:10BB4000F8273F06BC46634443601F14DB175B0DB8
:10BB5000FF187F057F0DFB1A5B00E35E0F687343E0
:10BB60001B14FB1808C1A9420DD087690368DB19B3
:10BB70004768DB199342E3DA002BE5DA80273F05BB
:10BB8000BC466344E0E7F0BD0C270020802270B57E
:10BB90004C1C8568FF34120510E0F8263606B446C2
:10BBA00063440E4E4360B446DB121BB263446B43E6
:10BBB0000E681B14F31808C1A1420DD086690368F2
:10BBC0009B1946689B199342E7DA002BE9DA802635
:10BBD0003605B4466344E4E770BDC0460080FFFF0D
:10BBE0000022024B1B605B609A607047601B002064
:10BBF000F8B5CE4647461E00234B80B50700180017
:10BC000099460D00140007F08DFF204B9846002840
:10BC100022D11F4B1800994607F084FF1D4F0028C2
:10BC200026D121002A001C483E7007F005FA0121A8
:10BC30001A4C3A0020604942404607F029FA002891
:10BC40001FD00021206807F0ABFB012007F042FB6A
:10BC5000C0BCB946B046F8BD48461F6007F07EFF3D
:10BC60000B4B1800994607F05DFF0A4F0028D8D00B
:10BC7000042238000A4905F0E1F8484607F06EFF53
:10BC8000CFE7084802F0B2FBE42600209014002021
:10BC9000E826002028370020881400205C4A002075
:10BCA00038FB011038E8011010B504000B00032226
:10BCB00040210448FFF79CFF034B04481C6007F039
:10BCC00005FF10BDC05D0000EC260020C9C00010BB
:10BCD000F0B585B0040005F087FA022831D00328BA
:10BCE00015D0012811D1206804F0FCFE504A514BB8
:10BCF00004000D0004F029FA0B004F4902000094E3
:10BD000001954E48029106F067FA05B0F0BD05F0C6
:10BD10006BFA022840D0032853D00128F5D101F056
:10BD200085FC0023464A801859410B0080210200FF
:10BD300009068B4202D30122424B524222656365BF
:10BD4000E3E705F05FFA04F06DFE8A21C90504F00F
:10BD50001AFE8F21C90504F016FE3B4904F0FFFDD1
:10BD600004F082FE606105F04DFAE06105F04AFAE8
:10BD700004F058FE8A21C90504F005FE8F21C9058B
:10BD800004F001FE304904F0EAFD04F06DFE20638A
:10BD900005F038FAA063B8E780232C4A0021E2506E
:10BDA000083BE36723002A48883318605960C8209D
:10BDB0000122284900029861D9611A72264BE36575
:10BDC000A3E705F01FFA050005F01CFA060005F0D0
:10BDD00019FA80231D4A0700E250E5676D08002D1F
:10BDE00023DD802069004919C900400403F01AFFCF
:10BDF00088230022E0500433E250230001327833DC
:10BE00001A76A0233202E2501449B80303F00AFF65
:10BE1000A423F117E050C904730B19430F4A002300
:10BE2000F00403F04DFFE0656FE70125D9E7C04658
:10BE3000333333333333A33F6A0A000064E801101D
:10BE4000801A0600FFFFFF7F0080BB46222202000F
:10BE5000822D0000550D000011110000C05D000092
:10BE6000F0B5DE4657464E464546E0B58E4B8F4C04
:10BE70000700A544012118689A4607F0FDF88022C2
:10BE800003685200002106900AA85E6804F0D0FF03
:10BE900001F0CCFB864B05915A6A796D0490386DA0
:10BEA000914200D9F4E09B6A834200D2EDE0802207
:10BEB000002152004AA804F0BBFF38004AA95C30B8
:10BEC000FFF736FE8AA978238B468C219C4689464B
:10BED0008021BC4449046346884651460AAD1A7E17
:10BEE000E2464AAC09950796089118E0002A3CD032
:10BEF0004B468022FB58BA589B18434543DA4A46C2
:10BF0000BB5001229B1302CC5943CB179B059B0DC1
:10BF10005B1829689B12CB1808C55C455BD0022AC8
:10BF20000DD0E3D94B46FB58032A06D18821795816
:10BF30005B1A002B21DD49467B509B13E3E74B4600
:10BF40004146F9503B00983341CB594B596A8E42D8
:10BF500010D89B6A834201D28E420BD003235246F3
:10BF6000137680230322DB00CDE74B46FA500022F4
:10BF70000023C8E78023DB00C5E700234A46BB5007
:10BF800052461376F3E742464B46FA50FB6F3E00AB
:10BF9000039301F04BFBFA220023009001919200E1
:10BFA0000021039804F0B8FC009A019B80185941C5
:10BFB0000B0080210200983609068B4202D3012231
:10BFC0003C4B52420CC60223524613764B46FB585A
:10BFD00002229B1397E7089BA4229A46A023BA58F3
:10BFE000F858079E8018C117F850C904430B19432D
:10BFF000314A0023C00403F063FE069BF865D9684C
:10C00000002912D08020320049002C4C099D711863
:10C0100000022B68A34200DA284B834200DB284B46
:10C020001380023204358A42F3D101F0FFFA049BF7
:10C03000059C3E68C01AA14104F0F4FC311C04F0D8
:10C0400088FC04F04FFD00221E4B04F07EF8040033
:10C05000301C0D0004F046FD02000B0020002900FA
:10C0600004F04CF804F022F906993860CB688B6034
:10C070005346186806F0F2FF8B239B009D44F0BCEA
:10C08000BB46B246A946A046F0BD914200D00EE79D
:10C0900038000AA91430FFF779FD38000AA93030BA
:10C0A000FFF774FD03E7C0465C4A0020D4FDFFFFA4
:10C0B00000400540FFFFFF7FC05D00000180FFFFE3
:10C0C000FF7F00000000B03F10B5024C2068FFF772
:10C0D000C7FEFBE7EC260020D0B50400002918D0ED
:10C0E000012900D0D0BD8023002A24DD1B4A00276F
:10C0F000C250083BC3670300C82088331972184E2A
:10C10000184900021E605F609861D961164BE365B3
:10C11000E8E701F08BFA0023144A801859410B001C
:10C120008021020009068B4202D30122104B5242A9
:10C1300022656365D6E7094A0027C250083BC367FA
:10C140000300FA2088331972054E0A4980021E60E6
:10C150005F609861D961084BE365C3E72222020062
:10C16000822D0000550D000011110000801A0600FC
:10C17000FFFFFF7F00F8FFFF55550000962210B526
:10C1800007489201FEF7F2FAC822064C0649D2018E
:10C1900006482160626006F01FF80023A36010BD0E
:10C1A000144A00200C37002000381F1080E80110CE
:10C1B000836870B504000D0016001F2B0BD80C20EF
:10C1C00004F042FE290489198160210007F08EFDE8
:10C1D000A3680133A36070BD836870B504000D00CF
:10C1E0001F2B0DD80C2004F02FFEFF231B069C46AE
:10C1F00065442100856007F079FDA3680133A360E1
:10C2000070BDC04670B504680500844206D02000A9
:10C2100024680C2104F020FEAC42F8D100236D60AC
:10C220002D60AB6070BDC0460C4A30B5516A4469A0
:10C230000300056901208C4207D8926AAA4205D3FF
:10C240001868C01A431E9841C0B230BD8C42FCD061
:10C250001868C01A431E9841C0B2F6E70040054076
:10C26000F0B50400C646414B6269596A00B50069E1
:10C27000914226D39B6A834226D32568A54220D0CB
:10C28000A368AE68013BA360280007F035FD0C21D0
:10C29000280004F0E1FD330E19D0FF2B50D0FA2610
:10C2A0000027B60001F0C2F9801979410B00802106
:10C2B000020009068B4202D301222D4B5242226119
:10C2C000636180BCB846F0BD9142D6D1F9E7330C2A
:10C2D000632B40D8002B45D0DAB29046013B1F02B9
:10C2E000244D7E212800FEF7CBFAFF212800FEF71F
:10C2F000C7FA06212800FEF7C3FA0F212800FEF72F
:10C30000BFFA00212800FEF7BBFA41462800FEF7DD
:10C31000B7FA2800F1B2FEF7B3FAEF212800FEF7D2
:10C32000AFFAFF23144933408A68DB195B00002A07
:10C3300016D09B181B889800C0184000323001E0CE
:10C340003004000CFA2200230021920004F0E4FAE9
:10C3500006000F00A6E7C4276323FF019846BFE746
:10C360000A68E6E7012300279846B9E70040054040
:10C37000FFFFFF7F144A00200C370020F0B583B088
:10C38000040004F031FF0A38C0B2282828D8964AA1
:10C390008300D3589F4604F04BFF0500934C7E2149
:10C3A0002000FEF76DFAFF212000FEF769FA062152
:10C3B0002000FEF765FA03212000FEF761FA002154
:10C3C0002000FEF75DFA290AC9B22000FEF758FAEC
:10C3D000E9B22000FEF754FAEF212000FEF750FAF0
:10C3E00003B0F0BD824B60695A6A01212569904211
:10C3F00008D89B6AAB4201D2904203D02168091B46
:10C400004B1E99417B4805F0E7FEE9E77A4FBB6890
:10C41000002BE5D17C680221200004F0B1FC610012
:10C42000B860764805F0D8FE7B68002BD8D0002491
:10C430003B68B868610040180222C91804F0FEFC8D
:10C440007B6801349C42F3D3CAE704F0F1FE6B46EB
:10C450000A24694F46009D1D04F0EAFE2880B86852
:10C46000002804D002222900801904F0E7FC013CD6
:10C470000236002CF0D1B3E75F4CA368002BAFD09D
:10C48000EFF3108572B6F0231B069C4661682068A6
:10C490004900604412F014F9F0231B069C466268C0
:10C4A0002068A1685200604412F0DAF885F3108821
:10C4B000A068002800D193E704F0A2FC0023A36049
:10C4C0008EE704F0B5FE4C4A01009368002B00D1C2
:10C4D00086E042009B181A88494805F07DFE7FE7F8
:10C4E00004F082FE0500414C7E212000FEF7C8F9D1
:10C4F000FF212000FEF7C4F906212000FEF7C0F955
:10C5000006212000FEF7BCF900212000FEF7B8F953
:10C5100000212000FEF7B4F9291C1E2D4FD8C9B206
:10C5200057E73248FEF7BAF95AE704F05DFE2F4BA1
:10C5300001001800FEF7A4F952E704F055FE0500CB
:10C5400004F052FE294C7E2106002000FEF798F9E7
:10C55000FF212000FEF794F906212000FEF790F954
:10C560000F212000FEF78CF900212000FEF788F94A
:10C57000002D22D0E9B263291DD82000FEF780F9F2
:10C58000310026E704F030FE060004F03BFEA3680D
:10C59000051E17DB1F2B00D922E70C2004F054FCEA
:10C5A0003604EDB276198660210007F09FFBA36880
:10C5B0000133A36014E76321DFE70121DDE71E21DA
:10C5C000C9B206E71F2B00D90AE70C2004F03CFC97
:10C5D000FF22120694466B429BB263448360E3E7FA
:10C5E000126843009B1876E7ECF70110144A00200C
:10C5F00000400540E0E801100C370020A8E80110D9
:10C60000CCE80110094A10B59446402483006344E5
:10C610001A68C000624080341440802252011343E3
:10C620001C60034B9C466044416010BD04C0014047
:10C6300000400140074B80009C4660440368C900ED
:10C6400092000A435A400C231A4080235B010343A3
:10C650001A60704704C00140064B80009C4660444D
:10C66000036809015940802330225B010A400343DB
:10C670001A60704704C001400123D0228340120693
:10C6800093629361094A40219446830063441A6887
:10C69000C0004A408031114080225201134319608A
:10C6A000034B9C46052360444360704704C001402F
:10C6B00000400140024B18688007C00F7047C04619
:10C6C00000C00640EFF3108072B6034A1368002BD7
:10C6D000FCD0BFF35F8F70472C0100D0BFF35F8F9A
:10C6E0000022024B1A6080F3108870472C0100D0A2
:10C6F00070B5EFF3108C72B60D4D2B68002BFCD08B
:10C70000BFF35F8F0724CB08C618C05C01230C4021
:10C71000A3401C000440034207D118433070BFF30C
:10C720005F8F2C608CF3108870BD100001F05EFEEE
:10C730002C0100D0F8B54746CE46884680B5EFF3C9
:10C74000108C72B6214D2C68002CFCD0BFF35F8F8B
:10C750009A422CD8D4080727055D061901241740F2
:10C76000BC402C421FD007210127894609E0D4088C
:10C77000055D06194C4639001440A1400C002942C1
:10C7800011D001329342F2D201204042BFF35F8FB9
:10C7900000220E4B1A608CF3108800280FDBC0BCFF
:10C7A000B946B046F8BD254310003570EEE7BFF33B
:10C7B0005F8F00232B608CF310880120404243469A
:10C7C000002BECD0089801F011FEC0462C0100D0DF
:10C7D00030B5EFF3108C72B60A4C2368002BFCD0F6
:10C7E000BFF35F8F072301220B409A40CD08435DC2
:10C7F00093434355BFF35F8F002323608CF310886E
:10C8000030BDC0462C0100D00021044B044ABFF3C8
:10C810005F8F02C39342FAD17047C046000100D037
:10C82000800100D0044B9C4660448000BFF35F8FC2
:10C83000002303607047C04640000034044A10786B
:10C84000431CDBB2172B00D9102313707047C0466E
:10C850009814002010B5064B064C82B001000093DE
:10C8600018221F232000FFF765FF02B010BDC0464D
:10C87000F0E80110D039002001238340002904D0C2
:10C88000034A1360034A13607047034A1360FBE7CF
:10C8900080E200E000E100E080E100E0012282406F
:10C8A000034B1B6813405A1E9341D8B27047C046D1
:10C8B00000E100E0024B10309B688000C0587047D8
:10C8C00000ED00E070B50D00EFF3108672B60F4A70
:10C8D0001368002BFCD0BFF35F8F0D4B10309B68AB
:10C8E00084001B590B4A934203D09D4201D001F0B2
:10C8F00095FD074B9B681D51BFF35F8FBFF35F8FA3
:10C900000022024B1A6086F3108870BD240100D00B
:10C9100000ED00E0CD800010EFF3108172B60E4BF9
:10C920001A68002AFCD0BFF35F8F0C4A103092685F
:10C9300080008058BFF35F8F00221A6081F3108857
:10C94000074B984206D02F23064A821A93429B41F6
:10C95000184070470020FCE7240100D000ED00E003
:10C96000CD8000109C140020F0B557464E46DE46A0
:10C970004546E0B585B0060000911700EFF3108B37
:10C9800072B66A4A1368002BFCD0BFF35F8F002594
:10C99000674B5D579A46002D00DAA9E06B00654CA5
:10C9A00001935B199B009846A146C1444B465246F1
:10C9B0009B7910361370604BB6009B6899590B1B1E
:10C9C0002F2B33D95D4B994200D0ACE0019B4246FE
:10C9D0009C465B4B6544AD0063535A4B0232A21830
:10C9E000043B9B1A1B05584A5B0D651913436B806A
:10C9F000564B0121AB80FF23AB71009BEF71AB6005
:10CA00004B460B4319004C4B9B689951BFF35F8F0A
:10CA1000BFF35F8F0022454B1A608BF3108805B07F
:10CA2000F0BCBB46B246A946A046F0BD01200A00B4
:10CA30008243D3798C46BB4231D8454613004449E2
:10CA40001B1B5B415943090D3D4B63533D4B023565
:10CA50006519043B5B1B1B053B4D5B0D2B43AA4635
:10CA60004D466B800425AC465546E044131F4444B4
:10CA70001B1B1B055B0D1D434B46997100999D8047
:10CA800099604946DF71334B01431360BBE758009F
:10CA9000C01880002018C179B9422FD9020006239E
:10CAA000D356002BF3DA02932B4B61460393131DED
:10CAB0009A4604235B429C46E14450464B461B1A6F
:10CAC0001B055B0D9C46204B95719846634640467E
:10CAD00003439380019B5A199200039BA418A380DF
:10CAE000029B1C4AA371009B2260E771A3608AE746
:10CAF00001F094FC002553465D574FE79088029360
:10CB00004005131D9A46031561469C464046D44491
:10CB1000634604302018181AE0230005400D1B025C
:10CB200018430390C5E701F079FC4FE7240100D0DA
:10CB3000405500209C14002000ED00E0CD80001046
:10CB400000A1FFFFCC14002000E0FFFF01BDFFFFAC
:10CB5000AAAA00000148804701BD0000F0B5DE46EA
:10CB600057464E464546E0B50C0083B0EFF31088BB
:10CB700072B65D4A1368002BFCD0BFF35F8F5B4B2E
:10CB80005B499A68030010339F00D5598D4239D014
:10CB9000A5424AD0574EAA1B2F2A33D801229246CB
:10CBA000824091464846544A1268104001904846D7
:10CBB000524A1060BFF35F8FEFF305829346002A5D
:10CBC00035D0934201D001F029FC2A0053469A4304
:10CBD0009068844208D175E04B005B189B00F31805
:10CBE0009868A04234D01A00062151560029F3DA81
:10CBF000844253D0019B002B26D04A46404B1A60FA
:10CC00003D4B1A60394B9B68DD51BFF35F8FBFF31B
:10CC10005F8F0022344B1A6088F3108803B0F0BC99
:10CC2000BB46B246A946A046F0BD0D00EAE72A0081
:10CC300053469A4390688442D6D10620105613007A
:10CC4000002809DA0D0031E04A462C4B1A60D9E77A
:10CC500006201856002822DB42001118890074189B
:10CC60008A46A1689960E179D97106216156997166
:10CC7000002925DBA488F11A6405241554440919F8
:10CC8000E0240905490D24022143998013181D4A07
:10CC90009B001178F31899711070ABE71300594697
:10CCA000002914D1FF3191711749918015490A78F3
:10CCB0009A71164A9B1B5B415A43120D0A7099E701
:10CCC0001349E2E70620105613000028C4DA114A7F
:10CCD0001149D21A083A5002400D014399800F4978
:10CCE00052080A43DA8085E7240100D000ED00E015
:10CCF000CD8000109C14002000E100E080E100E005
:10CD000080E200E04055002001BDFFFFAAAA00001C
:10CD100001BD0000D614002000F0FFFF00F8FFFF67
:10CD200070B5EFF3058101240443EFF3108C72B664
:10CD3000214A1368002BFCD0BFF35F8F1F4B050007
:10CD40001F4AED1A6D416A43120D1E4D8900AE68EF
:10CD500052B27658A6421CD00621595691421CD098
:10CD600012215956914222D01E215956914220D06B
:10CD70002A2159560324914210D0134B19781A7066
:10CD80008171BFF35F8F00220B4B1A608CF3108808
:10CD900070BDAB680D4C5C50EFE7002461000919D1
:10CDA00089005B18FF21997109499980E5E7012401
:10CDB000F4E70224F2E7C046240100D09C140020CE
:10CDC000AAAA000000ED00E040550020CD80001030
:10CDD00001BDFFFF054B064A1360064A136053600E
:10CDE0009360D3601361536193617047808080804A
:10CDF00000E400E004E400E070B504000E0015005B
:10CE0000FFF71CFD0100200000F006F8A680E58079
:10CE1000BFF35F8F70BDC046024B9C4661448900E2
:10CE2000016070474000003410B50400FFF706FDB4
:10CE300001002000FFF7F0FFFF232371BFF35F8F96
:10CE400010BDC04610B50400FFF7F8FC010020003B
:10CE5000FFF7E2FFFF23A380BFF35F8F10BDC04643
:10CE600010B504000120FFF7F5FC034BC3189B002D
:10CE70002360BFF35F8F10BD4000003483680B4810
:10CE800010B58446614462441201090159189B1887
:10CE90005C684A680120944201D802D00020C0B2E8
:10CEA00010BD1A680B689A42F9D8F7E7FFFFFF0F29
:10CEB0000A4B1968EFF3108072B60A68002AFCD09A
:10CEC000BFF35F8F1B68BFF35F8F00221A6080F390
:10CED000108840BF002000217047C046F84C002059
:10CEE000F8B5574645464E46DE46E0B598460CAB8B
:10CEF0001C780DAB1B78070091469A460568002CFC
:10CF000059D1AC7B002C3BD0660029683619033E12
:10CF100089194B78AB73002B00D1EB7300238B7016
:10CF20004B700B702D4BE218BB6812019B184A46E0
:10CF30001A6042465A600A9A9A600B9ADA60002395
:10CF40008B704B700B706B7B9B46002B26D02200A6
:10CF50006B685946A86898475B465B005B442A6843
:10CF6000033B002812D058469619B070D118D35CF4
:10CF7000002B00D073705B460C706B735C450ED059
:10CF8000F0BCBB46B246A946A046F8BDD3189C707B
:10CF90009119925D002A1CD15B460B706C734A4656
:10CFA0004346387D00F0D6FB051E0AD10E9B002BB0
:10CFB000E6D01D70E4E7660029683619033E89193A
:10CFC000B0E75346002BF1D12100386800F0DAFDBC
:10CFD000ECE75A705B460B706C73E0E7FFFFFF0FE6
:10CFE000F0B5DE4657464E4645460023E0B58BB0C9
:10CFF0000893684B8200D45800239B46099000F0A8
:10D0000015FB02000B006068EFF3108A72B65646FB
:10D0100001680029FCD0B246BFF35F8F21684F7BC7
:10D020008C46002F2ED0A5685B49A94679180901C6
:10D03000894449460868496805000E00AD1A9E41BA
:10D04000002E5FDD02000B00099800F083FB002337
:10D0500000229946002306920793002398466368AE
:10D06000BFF35F8F5A461A608AF310884346002B3D
:10D0700012D10028C3D10BB0F0BCBB46B246A946C2
:10D08000A046F0BD00230022994600230692079394
:10D09000002300209846E2E7089B494618023843DF
:10D0A000C047626805000E00EFF3108A72B613687D
:10D0B000002BFCD0BFF35F8F002E41DB2B003343EE
:10D0C00002D02369002B56D12368D97B002905D0D3
:10D0D0001A68480041185218033A57709A7B002A80
:10D0E00000D19F73DF73E268013FD35D0133D355F5
:10D0F0005B4623616368BFF35F8F5A461A608AF309
:10D1000010887CE7002E02D1002D00D09AE7002184
:10D11000604600F0B5FC4B461A685B6806920793C0
:10D120004B469B6898464B46DB689946E368DB199B
:10D13000013B1B7808931B020343236100208EE709
:10D140002369002BC0D0069A079B8021521BB34154
:10D1500009068B4202D30122104B52420021049156
:10D160000131039149460191414620000297009107
:10D17000FFF7B6FEBCE700F059FA2A003300121898
:10D180004B41802109068B42E8D30122034B5242D6
:10D19000E4E7C0464C4A0020FFFFFF0FFFFFFF7F80
:10D1A00010B5144C6368002B04D00A211248FFF715
:10D1B00033FE10BD2300114A1021206800F07CFBD3
:10D1C000032000F027FA032000F02CFB03200C4979
:10D1D00000F07AFAFFF732FB0A4B9C4603232375D3
:10D1E000D0231B061B6860446375074B800060609A
:10D1F000DC60DAE7E4140020F84C00207DCE00105B
:10D20000E1CF0010400000344C4A00200048704735
:10D21000E4140020F0B557464E464546DE46E0B5DC
:10D2200085B0019310AB1B780600039300239A4648
:10D23000984600927268EFF3108B72B61368002B59
:10D24000FCD0BFF35F8F3568AC7B002C00D16EE063
:10D2500067002B683F19033FDB195A78AA73002A2D
:10D2600000D1EA73484AA118B2680901521800981F
:10D270000199106051600E9991600F99D1604246FA
:10D280009A705A701A706B7B9946002B00D16BE034
:10D2900022006B684946A86898474B465B004B44A0
:10D2A0002A68033B002856D04846D719B870D118D1
:10D2B000D35C002B00D07B704B460C706B734C45DD
:10D2C00053D0F3681B19013B18787368BFF35F8F65
:10D2D00042461A608BF310885346002B08D1000297
:10D2E000204305B0F0BCBB46B246A946A046F0BDFF
:10D2F000039B002B46D00E9B00200F9998470300FC
:10D300000B433FD004000D1E1ADA009A019B121B3A
:10D31000AB410092019380221206934204D3012371
:10D320001A4C5B4200930194039B9A4682E7736810
:10D33000BFF35F8F1C608BF3108801204042D0E761
:10D3400000F074F9802200196941120600900191E1
:10D350009142E9D3E3E7D3189C70D119D25D002A3A
:10D3600000D05A704B460B706C73307D009A019B55
:10D3700000F0F0F982460028A3D02100306800F0C8
:10D3800001FC9EE70020ACE7FFFFFF0FFFFFFF7FE0
:10D39000F0B504000D0006267642F717C64636198A
:10D3A0006F4100B584B08F4214D811D000F03EF91F
:10D3B00032003B00121A8B41002B15DC002B3ED0B3
:10D3C0002000290000F070F904B080BCB846F0BD20
:10D3D0008642EBD90026002700F028F932003B00F6
:10D3E000121A8B41002BE9DD002302930193154BA8
:10D3F0003200009314483B00FFF70CFF0028DFDBEE
:10D4000000239846BC46114A114F7B6A9C4504D8BC
:10D41000B96A8E42D4D99C45D2D11168EFF31080FD
:10D4200072B60B68002BFCD0BFF35F8F1368BFF39D
:10D430005F8F4146196080F3108820BFE5E7002A1E
:10D44000BED0D1E7B1CE0010E4140020F84C00208B
:10D450000040054070B5060000F0E8F8FA2204002C
:10D460000D00002330000021920003F055FA8023C4
:10D47000001969411B06994202D30120024940422A
:10D48000FFF786FF70BDC046FFFFFF7FF0B5EFF3EB
:10D490000583CE46474680B505000C0085B0002BBD
:10D4A00012D02A4A0020536AA34203D3926A013061
:10D4B000AA4204D305B0C0BCB946B046F0BD1B1BA0
:10D4C0005A1E9341D8B2F5E7214E02930193214BA6
:10D4D0000200009330000B00FFF79CFE031EE0DD0E
:10D4E00020BF7168EFF3108772B60A68002AFCD07B
:10D4F000BFF35F8FDAB29446FF2230681A40417B57
:10D5000061450FD0016889465100884649469044DC
:10D51000414403398978002904D13269934209D101
:10D52000316107E0F1681B0A8A18013A1278DBB210
:10D530009A4207D07368BFF35F8F00221A6087F3A7
:10D540001088AEE7614600F01DFBF3E700400540A0
:10D55000E4140020B1CE0010F0B5EFF30582D646FA
:10D560004F4646461000C0B51038EFF3108872B62B
:10D57000214C2368002BFCD0BFF35F8F01231900DF
:10D5800081401E4D1F006963AA461D4D29601D4D37
:10D590002E78AC463500C5402F402B4215D053465F
:10D5A0005F6A194B8500EB589F4218D36246174BB0
:10D5B0008E43EB581670BFF35F8F0022226088F312
:10D5C0001088002B06D0984704E0BFF35F8F2760D8
:10D5D00088F31088E0BCBA46B146A846F0BD0C4BB3
:10D5E00092009C46624413681360BFF35F8F002370
:10D5F000236088F31088EDE7280100D00040054043
:10D600003C7005404F550020044D0020B8380020E4
:10D61000D03F054010B5034B01001800024AFFF748
:10D6200067F810BD3C5500200CE90110034B596A06
:10D630000A00986A596A8A42FAD170470040054048
:10D6400070B504000D00174A536A1900966A536AB0
:10D650008B42FAD13000190024184D41AB4216D844
:10D6600013D0104B2A005B6A9D4203D90D494B6AC7
:10D670009342FCD3934207D10A4A02E0516A99428D
:10D6800002D1916AA142F9D370BDA642E9D9054BF6
:10D690005B6A1C005A1CEFD0012201246442E5178A
:10D6A0005242E3E700400540064A536A9942FCD8DB
:10D6B00007D1044B02E05A6A914202D19A6A82422F
:10D6C000F9D370470040054070B504000D00EFF33A
:10D6D000108672B61A4A1368002BFCD0BFF35F8F16
:10D6E000002D1BD02000FFF7E5F8164981420AD033
:10D6F0002000FFF7E7F801212000FFF7BDF8012324
:10D70000A340114A1360114BA400E550BFF35F8F93
:10D7100000220B4B1A6086F3108870BD0121A140D6
:10D720000A4BA200D5500A4B20001A788A430549BB
:10D730001A70FFF713FA00212000FFF79DF8E5E7C4
:10D74000280100D059D5001038600540B8380020B5
:10D750004F550020F0B54F46D6464646C0B50700A7
:10D760002B4C616A0D00A66A616AA942FAD18B420C
:10D7700008D805D00120E0BCBA46B146A846F0BDA5
:10D78000B242F7D9EFF3108A72B622480168002935
:10D79000FCD0BFF35F8F0125BD401F491C4C88465C
:10D7A000097889462943C9B28C46414660460870CB
:10D7B000391D890065630A511849B8004350216A30
:10D7C0000020294219D0616A0800A66A616A814274
:10D7D000FAD18B4219D801D1B24216D8CC450BD020
:10D7E0000B4B1F221D625D6301233A4093400C4A9C
:10D7F000136043464A461A700120BFF35F8F002230
:10D80000044B1A608AF31088B5E70020F5E7C0469C
:10D8100000400540280100D04F550020044D002055
:10D8200080E200E0EFF3108C72B60A490B68002B1F
:10D83000FCD0BFF35F8F01238340074A0748136280
:10D8400002789A430270BFF35F8F00230B608CF362
:10D8500010887047280100D0004005404F55002037
:10D8600070B506000D00140000291DD0002A12D04A
:10D8700073688068984762006B0012195B19316801
:10D88000033A033B002808D08A189570C818CB5C6F
:10D89000002B0BD10470280070BDCB189C70881829
:10D8A0008A5C002A05D105702000F5E753700470EA
:10D8B000F1E75A700570F7E710B583600023CCB22A
:10D8C00043730133426004738373C4730068421C62
:10D8D000012C05D90133DBB2137003329C42F9D11C
:10D8E000FF230B405A00D318C0180023033843709D
:10D8F00010BDC04670B505000C1E07D0630001685E
:10D900001B19033BCB185A78002A01D1200070BDA7
:10D91000500080180338091800204E784870210004
:10D9200058702800FFF79CFF310004002800FFF723
:10D93000E1FF0600002C20D00028E7D032002100B3
:10D940006B68A86898477200630092191B192968D0
:10D95000033A033B002808D08A189470C818CB5C9F
:10D96000002B00D053700670D0E7CB189E7088183B
:10D970008A5C002A00D05A7004703400C6E7C046A2
:10D98000F0B557464546DE464E46E0B50D006F0001
:10D9900001687F19033F0400C85D83B00192CA1972
:10D9A000002850D043001B18033BCB185E78B446C8
:10D9B000002E1AD1019E002E42D0E67B002E04D00C
:10D9C00073009B19CB18033B5D70A37B002B00D128
:10D9D000A573E57300282FD10023537003B0F0BC6A
:10D9E000BB46B246A946A046F0BD72006244033A67
:10D9F0008A18517888460021517089465970320042
:10DA000001002000FFF72CFF43468246002B07D081
:10DA10005B0021684344033BCB185A78002A16D197
:10DA2000424651462000FFF71BFF2168019BCA199F
:10DA3000002BC2D10028CFD043001B18033BCB18CA
:10DA400000219970C8E7019B002BB6D1C4E75000B4
:10DA5000801803380918487883464846487058703B
:10DA600041462000FFF7FCFE594680462000FFF7A4
:10DA700041FF414602002000FFF7F2FE8046CFE75B
:10DA8000F0B557464546DE464E46E0B583B00191B7
:10DA9000457B04006F0000687F19033FC15DC21918
:10DAA000002952D04B005B18033BC3185E78B44684
:10DAB000002E1CD1019E002E44D0E67B002E04D007
:10DAC00073009B19C318033B5D70A37B002B00D12F
:10DAD000A573E573002931D10023280053706173C9
