:020000041000EA
:1080000000200420F7800010C3800010C5800010FD
:10801000C1800010C1800010C1800010C18000101C
:10802000C1800010C1800010C1800010C780001006
:10803000C1800010C1800010C9800010CB800010EA
:10804000CD800010CD800010CD800010CD800010BC
:10805000CD800010CD800010CD800010CD800010AC
:10806000CD800010CD800010CD800010CD8000109C
:10807000CD800010CD800010CD800010CD8000108C
:10808000CD800010CD800010CD800010CD8000107C
:10809000CD800010CD800010CD800010CD8000106C
:1080A000CD800010CD800010CD800010CD8000105C
:1080B000CD800010CD800010CD800010CD8000104C
:1080C00000BE00BE00BE00BE00BE00BEEFF30580D5
:1080D000103800BEF2EB8871B0320210CC320210C0
:1080E0003481001090A31AE700201F49086006C8D9
:1080F00081F3088810471D48006800282FD10DA47F
:108100000ECC002902D000F012F8F9E71849194AFC
:10811000002000E001C19142FCD11749884717496E
:1081200088471749884700BEFDE701C901C29A4246
:10813000FBD37047CC320210C0000020601B00202F
:108140006C4D021000000420000004206C4D021051
:1081500000100420001004200000000070470948AF
:1081600008F0C4FF0047000008ED00E0000000D068
:10817000601B00209C650020ADF7001069420110D3
:10818000E1F800105756000006005250ABB36053A0
:108190005C0A021006005250861C03026C0A021090
:1081A000060052505422A29D700A0210050052503F
:1081B000DE65F4686C4D0210F8B5C0460648074904
:1081C000091A8B10C90FC91810B5491003D0044BF8
:1081D000002B00D0984710BD601B0020601B0020C2
:1081E00000000000054B10B5002B03D004490548E2
:1081F00000E000BFFFF7E2FF10BDC0460000000036
:108200006C5A00205807021010B50E210CF0F4FB38
:1082100010BDC046F0B585B004000AF0EDFF072898
:108220001CD8002818D0072803D84D4A80001358BE
:108230009F460BF005F84B4B20802C2401000025B5
:1082400018680023484EFF34994200DC7BE09A0016
:1082500001338650A342F7D105B0F0BD64285DD04C
:108260006528F9D10BF004F8C8200BF009F80023B9
:10827000E05E0BF011F80223E05E0BF00DF8042332
:10828000E05E0BF009F80623E05E0BF005F808232A
:10829000E05E0BF001F80A23E05E0AF0FDFFA08922
:1082A0000BF00AF80BF018F8D6E70AF0C9FFA08126
:1082B000D2E70AF0AFFFB42160806930FF30490097
:1082C00008F046FF208800254843B421490008F003
:1082D0003FFF244B2C211C680023234E8700FF31D5
:1082E000984206D09A000133A5508B42B4D09842F0
:1082F000F8D1431CE6518B42F2D1ADE70AF08AFF78
:10830000A080A9E70AF086FFE080A5E70AF082FFD7
:108310002081A1E70AF07EFF60819DE7A589042204
:10832000A35E0221625E218803950A26A55F0F489D
:1083300002950826A55F01950625645F00940BF061
:1083400027FF89E713009A0085505A1CA24200D1EA
:1083500082E79142F6DD92008650023374E7C04610
:10836000641602106814002000FFFFFF5807021077
:10837000F0B50400FF254E1C07894368FF3618003E
:108380001A007843C3172B401B1808681B121B18D0
:108390009A1A04C16360B142F1D1F0BD7047C04682
:1083A000F0B55746DE464E4645469621E0B5CD4FE0
:1083B00004003B8889B01A1C49008B4200D90A1C72
:1083C00093B298463123E55C002D00D08FE0013B4D
:1083D000E35C002B00D07FE005AD2A00C24B03CB4D
:1083E00003C21B781370236A082B5FDD4246E36AE1
:1083F0000133E362002A06D0BC4B002118689200CA
:108400000AF076FCE36A07220133D9170A40D21832
:10841000E3620123D110D20F89180B409B1A01335C
:10842000DBB2616A5A00D318EE5CEB18CD0F6D1801
:10843000AF495A7809699B786D10012900D1B2E0E3
:10844000414600292BD0360612041B0216431E4358
:10845000A64B00249946A74B9A4633002E0045466A
:10846000984604E041460134D150A54217DD63002F
:108470001B191801C01A2900C00008F069FE022368
:10848000F95E3200411A504603F062FF4A46A300EB
:1084900012680028E6D10134D050A542E7DC09B0CB
:1084A000F0BCBB46B246A946A046F0BD4346002BF1
:1084B000F5D09A008D4B0021186899460AF018FCF7
:1084C000616AAE79EA792B7ACD0F6D1888496D1003
:1084D00009690129B4D16CE0A36B676B99467B1CD9
:1084E0006363B945DBD131230022E254D7E7A36BA4
:1084F000676B9946032D00D192E000D954E1012D1C
:1085000000D103E140461900784308F021FE4346BC
:108510009B10E4D0754A96261268050092464246A2
:108520005210019242465200424492109346C218A1
:1085300002924A46B9465746A246444698467600B5
:1085400003922100280008F003FEB14203D2FF236A
:1085500089001B06CB5143462100581908F0F8FD4D
:10856000B14202D200238900CB51019B210058194E
:1085700008F0EEFDB14203D2FF2389001B06CB5168
:108580005B462100581908F0E3FDB14202D20023F6
:108590008900CB51029B0135AB42D2D1039B4F46A0
:1085A000544699469BE74146002900D177E74F4959
:1085B0008946360612041B0216431E434D4B002407
:1085C0009A462B00BB4645460196984607E04B4627
:1085D000019A1B68DA510134A54200DC5FE76300B1
:1085E0001B191801C01A2900C00008F0B1FD5B4634
:1085F00002269E5F4246861B3100504603F0A8FECD
:10860000A7000028E3D1310042465046B43103F0C0
:108610009FFE4B461B68002862D0019ADA51DAE7C8
:10862000380009F09DF8344A344B09F030F8002244
:10863000334B09F00EF809F015F90022314B08F020
:10864000FFFF314B002209F022F809F0A1F8FF21C9
:10865000404308F07DFD4346002B00D13FE7234B0C
:1086600041461D68FF2302041B041A4001396B07B1
:10867000DB0F052900D8DAE0002B00D1D3E001267A
:108680002A604146C81A41089B00EB18C900C91866
:108690001A605A6008339942FAD10123034200D18B
:1086A0001DE7984380198300411CEA50884500DC8F
:1086B00015E7ED18831C6A60984500DC0FE7C31CC2
:1086C000AA60984500DC0AE7031DEA60984500DCD3
:1086D00005E705302A61804500DC00E76A61FEE6B7
:1086E000D85178E744140020E816021068140020DE
:1086F000B01C0020081F00206E861BF0F9210940E5
:10870000000044400000F03F00C05F40DB1B180247
:10871000C01A494608F01CFDFF21404308F018FD2F
:108720004346002B00D1DAE6434B02041E68FF23C8
:108730001B041A40B3081D404346013B052B78D962
:10874000002D6DD001239C4632604346581B4108E2
:10875000AD007519C90049192A606A600835A94237
:10876000FAD10123034200D1B9E698436044830063
:10877000411CF250884500DCB1E6F618831C72609B
:10878000984500DCABE6C31CB260984500DCA6E669
:10879000031DF260984500DCA1E60530326180459A
:1087A00000DC9CE672619AE6042D00D097E6380062
:1087B00008F0D6FF214A224B08F069FF0022214B26
:1087C00008F047FF09F04EF800221F4B08F038FF71
:1087D0001E4B002208F05BFF08F0DAFFFF21404348
:1087E00008F0B6FC4346002B00D178E64146124B18
:1087F00001391D6802066B07DB0F052917D9002B0D
:1088000013D001262A604146C81A41089B00EB1884
:10881000C900C9181A605A6008339942FAD13CE776
:1088200000239C4691E700262BE70026EBE700207B
:1088300039E700209BE7C046681400206E861BF0D5
:10884000F9210940000044400000F03F00C05F40B3
:10885000F0B55746DE4646468023C0B55B049A46CF
:108860003C4B0E000500170000249B46017E82B0A1
:1088700018E0002938D06B69AA689B1853453EDA86
:1088800001216B619B133A595A43D3179B059B0DEA
:108890009B1832599B12D3183351802304345B0048
:1088A0009C4250D002290AD0E3D96B69032904D134
:1088B0002A699B1A002B1EDD6B619B13E3E753466D
:1088C0006B612B6A6A6A98465B465B6A9A420FD86C
:1088D0005846806A404501D29A4209D003232B763C
:1088E00080230321DB00CEE7696100210023CAE772
:1088F0008023DB00C7E700236B612B76F5E7534647
:108900006B616B68984606F00FF9FA22002300901D
:10891000019192004046002109F05EFF009A019B00
:10892000801859410B008021020009068B4202D3B6
:108930000122094B52426B6202232B766B690221A2
:108940002A629B139FE702B0E0BCBB46B246A84632
:10895000F0BDC04600400540FFFFFF7F084B70B5EB
:108960005A6A446A056A944205D89B6AAB4200D3AE
:1089700070BD9442FCD1043004F03AFAF8E7C046E6
:108980000040054010B504003C210AF0C5F9200064
:1089900010BDC046F8B504005746DE464E46454673
:1089A000494B8A465A6AE16CE0B5806C91420AD81C
:1089B0009B6A834205D3F0BCBB46B246A946A0469B
:1089C000F8BD9142F7D12600802250365200002196
:1089D00030000AF08DF93100201D04F009FA200062
:1089E0003100203004F004FAFF2244232700310034
:1089F0009146E35A51379C46236CFF3760464D46FB
:108A000058431A00C3172B401B1808681B128046D6
:108A100043449A1A04C123648F42EFD12B4AA823FE
:108A20009446FF22FF205B0090460132E7589346B0
:108A3000002300060CE0624543DC4146D5170D409B
:108A4000A9464A4412125146CA5004335B4509D024
:108A5000F2587A438242EEDC51461D4ACA50043332
:108A60005B45F5D116F076FE052108F071FB553116
:108A7000080009F037FF8A21C90509F0E4FE8F21BB
:108A8000C90509F0E0FE134909F0C9FE09F04CFFE1
:108A9000606016F05FFE052108F05AFB5B310800AC
:108AA00009F020FF8A21C90509F0CDFE8F21C905F3
:108AB00009F0C9FE074909F0B2FE09F035FF20624E
:108AC00079E7054ABFE7C04600400540FFFEFF00CA
:108AD0000000FFFF0080BB46FFFF0000F0B5DE4650
:108AE000574645464E468022E0B50700C3B05200C7
:108AF0000C0002A800210AF0FBF8381D02A904F0BE
:108B000049F920239846B84443461A7E80235B04E3
:108B10009A46424B02AD9B4642AE15E0002A36D043
:108B20007B6BBA6A9B1853453DDA01227B639B132A
:108B300002CD5943CB179B059B0D5B1821689B12F7
:108B4000CB1808C4AE4253D0022A0AD0E6D97B6BB8
:108B5000032A04D1396B5B1A002B1FDD7B639B1347
:108B6000E6E753467B633B6C796C99465B465B6AF0
:108B7000994210D85846806A484501D299420AD095
:108B800003234246137680230322DB00D0E77A6377
:108B900000220023CCE78023DB00C9E70023424604
:108BA0007B631376F4E753467B637B6A994605F053
:108BB000BBFFFA2200230090019192004846002159
:108BC00009F00AFE009A019B801859410B00802190
:108BD000020009068B4202D30122114B52423A6431
:108BE0007B644246022313767B6B02229B139FE732
:108BF000B86CFB6C0B4AC018C117430BC904B864AE
:108C00001943C004002308F0F1FA786043B0F0BCC7
:108C1000BB46B246A946A046F0BDC046004005404E
:108C2000FFFFFF7FC05D0000F0B54E464546DE46C3
:108C30005746E0B50600A14B88465A6A716D006D33
:108C4000C5B0914200D9B6E09B6A834200D2AFE042
:108C500080220021520004A80AF04AF83000653052
:108C600004A9FF3004F096F844AB994680233700FE
:108C70005B049B468137914BFF373A7E45469A46C7
:108C800004AC039615E0002A34D07B69BA689B18BF
:108C90005B453ADA01227B619B1302CC5943CB1727
:108CA0009B059B0D5B1829689B12CB1808C5A14535
:108CB0004ED0022A0AD0E6D97B69032A04D1396949
:108CC0005B1A002B1DDD7B619B13E6E75B467B6136
:108CD0005346796A5B6A386A99420FD85646B66A33
:108CE000864201D2994209D003233B768023032296
:108CF000DB00D2E77A6100220023CEE78023DB008D
:108D0000CBE700237B613B76F5E75B467B617E68C2
:108D100005F00AFFFA220023009001919200300032
:108D2000002109F059FD009A019B801859410B0060
:108D30008021020009068B4202D30122604B52427D
:108D40007B6202233B767B693A629B130222A4E793
:108D5000039E33006133FF33986CDA6C8018C117BF
:108D60009864C904430B574A1943C004002308F010
:108D70003DFAB2235B00F0503300B133FF33186A81
:108D8000596A4E4B5A6A91420BD89B6A834206D36A
:108D900045B0F0BCBB46B246A946A046F0BD9142E4
:108DA000F6D13000B5304146FF3004F021F8EFE74E
:108DB000914200D04CE73400802258345200002108
:108DC000200009F095FF300021000C3004F010F86D
:108DD00030002100283004F00BF83300350021006A
:108DE000FF20A44644331F895935B36CFF351C005E
:108DF0001A007C43E31703401B190C681B121B1954
:108E00009A1A04C1B364A942F1D12F4A6446944628
:108E10008022AC235200FF20924642465B00F55868
:108E2000B0460023FF27160000060AE0624543DC37
:108E3000D117394089464A441212F250043353453F
:108E400008D0E2586A438242F0DC204AF2500433F0
:108E50005345F6D133004646984616F07BFC052173
:108E600008F076F95531080009F03CFD8A21C90562
:108E700009F0E9FC8F21C90509F0E5FC144909F066
:108E8000CEFC09F051FDF06016F064FC052108F0FD
:108E90005FF95B31080009F025FD8A21C90509F059
:108EA000D2FC8F21C90509F0CEFC094909F0B7FCB5
:108EB00009F03AFDB062CBE6064ABEE70040054045
:108EC000FFFFFF7FC05D0000FFFEFF000000FFFF0F
:108ED0000080BB46FFFF0000042303707047C046BC
:108EE000F0B5D6464F4646460378C0B5042B33D07E
:108EF000032B47D09621264F49003A88161C8A42F8
:108F00002FD8B6B2022B30D0002E25D0214B002511
:108F10009946214B00249846204B9A4606E051463C
:108F200069350134D150FF35A64215DD31002800E6
:108F300008F00EF90223F95E0F22411A484603F0A9
:108F400007FA4246A30012680028E8D169350134C7
:108F5000D050FF35A642E9DCE0BCBA46B146A8468F
:108F6000F0BD0E1CB6B2022BCED196239B00C318C7
:108F70005B68002BC8D188239B009C46604401F0AD
:108F80002BF8E9E7406A03681B699847E4E7C046A5
:108F900044140020081F002068140020000A0AFF63
:108FA00070B505000E0014000AF026F901280BD058
:108FB000022800D070BD8223013C9B00E2B2711CEC
:108FC000E81804F059FCF5E72800013CE2B2711CF6
:108FD000283003F0AFFFEDE770B54C220025624C5E
:108FE000D721A552614A624BE263624A236322663B
:108FF0006822A552604A614BA265614AA363626719
:109000007C22A152C0210D32FF328900A1500432CE
:10901000A55071395B4AFF396250CA225A49520041
:10902000A150D821594B0432A5500432A350043228
:10903000A5500432636425702564A56425656565C3
:10904000E5656566E5662567A5500432A5500432DE
:10905000A5504F4A49006250E42200215200A15419
:10906000F0214C4A49006250F2224B495200A15073
:109070000432A5500432A350F8235B00E5500433BA
:10908000E5500433E5500433E5500C33E318203247
:10909000A350043AA35084239B00E5501033E018FA
:1090A00000F078FF932301229B00E2500C33E5503F
:1090B0000433E5500433E5508833E55095320433EA
:1090C000E250C3220121D200A01800220433E5504F
:1090D0000833E31849429A71996128338342FAD1DF
:1090E0002E4B2F49E2540433E2502C4BE3186350CB
:1090F000043163502B4BE250FA2204335200E25009
:10910000294A0833A0180022E31819001C319A716B
:109110001A6259629962DA6230338342F5D1234A86
:10912000234BA11800221A7030339942FBD1214BF6
:109130002149E2540433E2501E4BE31863501F49A7
:1091400063501F4BE2501F4B1F4A1A601F4A5A6060
:109150001F4A1A6100225A619A611E225A62FA223B
:1091600092009A6270BDC046B01C0020888808003A
:10917000C8160210E0B1FFFF11CA080098160210CD
:109180008C160210BC160210AAAA2A00204E00005B
:10919000B0160210A4160210555555001C0600000A
:1091A000240600002C060000F8090000140A000044
:1091B00004230020FC090000040A0000080A000043
:1091C0000C0A0000783C0020D4160210881300001E
:1091D00000003442002310B500210370014801F063
:1091E00069FC10BD6C14002070B5084D0400280007
:1091F000002101F05FFC28000022054901F076FC07
:10920000012323700023236170BDC0466C1400202D
:109210000000344370B504002830150003F076FEDA
:1092200082239B00E018290004F026FA0D4D00214E
:10923000280001F03FFC002228000B4901F056FCF9
:109240000123237000232361636A002B06D0882347
:109250009B000021E01800F0B5FE70BD034B636277
:10926000F5E7C0466C14002000003443783C002031
:10927000F0B5C646334B00B500254360002382B0ED
:109280000362C5600400984616F064FAB4214900F0
:1092900007F05EFF080009F025FB2B4B6561A0601D
:1092A0000A20185E08F05CFA02000B0008F0C8F90A
:1092B0000022264B08F0EBF9060060680F0008F06A
:1092C0004FFA02000B003000390008F0C2F908F034
:1092D000A7FA1F4B1F4D2361FF23A0610022280026
:1092E00000930021002301F0EDFB2800802101F014
:1092F000E1FB82239327184D9B00EE18BF006522E7
:109300003000E95D04F0D2F93000642104F0E2F9A4
:1093100001223000E95D04F0C9F9FA21300049006A
:1093200004F0D8F91E236362FA239B00A36243462C
:1093300063632833A363D833238602B080BCB84666
:10934000F0BDC046881300004414002000004440D3
:10935000000070416C140020B01C0020F0B547469E
:10936000CE46302380B5C35C070085B0002B00D00B
:10937000BCE145698168281C09F04EFA0021041CF3
:10938000B860281C09F08EFA002800D03EE10021C8
:10939000281C09F09DFA00280AD0F86909F0A2FA01
:1093A000051C011C201C09F093FA002800D038E1AC
:1093B000FA23BC6A9B009846BE69FD689C4200D1B6
:1093C00039E10021301C09F083FA002800D171E155
:1093D000200009F087FA291C09F06AFA002800D158
:1093E000B3E180231B069C46B4446346BB614346FD
:1093F000311CBB62281CE14609F00BFA041CF86022
:109400000021484609F04EFA002800D172E2E04BF4
:1094100099460A20185E404209F064FA011C201C9B
:1094200009F046FA002800D11FE1B86809F07CFA7B
:1094300000210500201C09F035FA002806D028007C
:10944000B421B430490007F083FE0D007B6AD14E91
:10945000DA0FD218521029003000013202F078FFE2
:10946000CD4B0400F3181B69012B00D11AE2002C2C
:1094700000D052E1C94D00230022002128000094B1
:1094800004F06CF80222312328009621FA54E130CE
:109490001D3B7C63BB63FF30490004F01BF93A6A53
:1094A000013A9323BE489B00C15C3A62002A00DC6B
:1094B00008E20B2A00DDABE182239B009C46D2B27E
:1094C000604404F0F3F8002C00D07FE17E684B4646
:1094D0000A20185E08F044F902000B0008F0B0F80A
:1094E0000022B04B08F0D3F8040030000D0008F063
:1094F00037F9029003910021B86909F0E9F90028D1
:1095000000D19CE180231B06E9182000029A039BEE
:1095100008F09FF808F084F9B86116F01BF9C3173A
:109520009B0DC0188005800DC01A08F019F90022A3
:109530009D4B08F0ACF800229C4B08F0A8F80022E4
:10954000994B08F07DF8040038690D0009F02AFAFB
:1095500002000B002000290008F099F808F018F923
:10956000040016F0F7F8C00700D56442BD6820007B
:1095700009F0B8F9291C09F04FF909F0D5F9B4231D
:109580005B00984200DCFEE01800F86109F0AAF9DF
:10959000291C09F03EF9864909F055F909F002FA4B
:1095A00002000B0008F04CF8040078680D0008F089
:1095B000D7F80B0002002900200008F04AF8FA242E
:1095C00008F02EF93B6AA4007861BC62062B00DD2E
:1095D0003EE1FF23774E009300220023002130005C
:1095E00001F070FABB6AFA22920093423ED0724AAE
:1095F0001368591C11609B0738D000230221009387
:1096000066486E4A323303F0A9FF2FE0F86909F08B
:1096100069F9051C011C201C09F044F9002800D13F
:10962000C6E6FA23BC6A9B00BD609846BE69FD6829
:109630009C4200D0C5E6291C301C09F0EDF8002141
:10964000041CF860301C09F043F9002800D14FE1F8
:109650004F4B99460A20185E09F044F9011C201C62
:1096600009F02EF9002800D0DFE6524EBB6898467C
:109670004B460A255D5F280009F034F9FF68041C99
:10968000391C09F025F9002800D03C1C684209F07B
:1096900029F9211C051C09F005F9002800D12C1C12
:1096A00041463000221C01F021FA05B0C0BCB94689
:1096B000B046F0BD0021301C09F0F4F8002859D064
:1096C000200009F00FF9291C09F0FAF8002800D150
:1096D000D3E080231B06F318BB614346311CBB62F9
:1096E000281C09F096F8041CF860B1E7344D2800F6
:1096F00004F018F8041ED8D12E4E0021300001F0DD
:10970000D9F9002230002F4901F0F0F92E4B9C4688
:10971000012365442B702C61C7E7F868002109F02C
:10972000D7F80200531E9A4100231C4D0121280046
:10973000009303F013FF28009621E130FF30490029
:1097400003F0C8FF3A6A0132ABE6291C301C09F06D
:1097500063F80F4BF8609946041C0A20185E09F064
:10976000C1F8011C201C09F0ABF8002800D05CE611
:10977000104E3CE7301C291C09F04EF8044B0D4EEE
:109780009946F86033E7C343DB171840FDE6C0464F
:1097900044140020081F0020A8FDFFFFD81C002053
:1097A000B01C0020000044400000E03F0000503F9B
:1097B000000020426C140020D0390020DC0500009D
:1097C000B81E002000003443F8FDFFFF786807F062
:1097D000C7FF4A4B4A4A07F05AFF07F0D9FFFA235E
:1097E00006009B00984200DA1E00464938697E60F8
:1097F00009F012F84449041C09F054F800285ED01E
:109800004249201C09F064F800286ED03C615EE6F5
:1098100031230322FA5400237B63C833BB634133F3
:10982000FF33C4182000653203F040FFFA21C9005D
:10983000200003F04FFF30230122FA5435E7029A4B
:10984000039B2000290007F004FF07F0E9FF63E60F
:1098500015F080FF052107F07BFC002943D0BB6A8F
:10986000A34200D1B5E60023294E00930022FF2138
:10987000300001F027F9BB6AB5E6291C301C08F05E
:10988000CBFF244BF8609946041C0A20185E404226
:1098900009F028F8211C09F013F8002800D0C4E5CD
:1098A0001B4EA4E629007B6A3000DA0FD218521052
:1098B0000132B43102F04CFD0443E4B2D7E5124C5E
:1098C0003C6104E631230422FA5400237B63C8334D
:1098D000BB634133FF33C4182000633203F0E6FE5C
:1098E000FA218900A4E7B962BDE7084C3C61EEE5C6
:1098F000B14685E5074B064E9946B7E63333EB3F55
:1099000033333333000040400000704200007041A8
:109910006C14002044140020F0B5C6460323446AAA
:1099200000B503702368364A9B6882B0934263D1C6
:10993000344B002563600023E5602362984615F0F0
:1099400009FFB421490007F003FC080008F0CAFF32
:109950002D4B6561A0600A20185E07F001FF020030
:109960000B0007F06DFE0022284B07F090FE06006A
:1099700060680F0007F0F4FE02000B0030003900B1
:1099800007F067FE07F04CFF214B224D2361FF23B8
:109990000022A061002128000093002301F092F82A
:1099A0002800802101F086F8822393271A4D9B001E
:1099B000EE18BF0065223000E95D03F077FE6421F8
:1099C000300003F087FE01223000E95D03F06EFEF7
:1099D000FA213000490003F07DFE1E236362FA2362
:1099E0009B00A362434663632833A363D833238673
:1099F00002B080BCB846F0BD20009847F8E7C046EA
:109A000071920010881300004414002000004440AC
:109A1000000070416C140020B01C0020F0B5C64658
:109A2000822300B59B00C518040082B0280003F013
:109A300095FE96239B00E618300002F01FFC904B29
:109A4000E1685A6A0020A768914222D89B6ABB420B
:109A500023D305F069F800238A4A801859410B0086
:109A60008021020009068B4202D30122864B52421A
:109A7000E3602378A260022B18D0032B10D0012BB7
:109A800006D1280003F04EFE002801D102232370E6
:109A9000012002B080BCB846F0BD9142D9D1F8E7B0
:109AA000606A0368DB6898470120F2E722697368FF
:109AB0009A4228D005F038F80023744A801859419A
:109AC0000B008021020009068B4202D301226E4B5B
:109AD0005242E3617368A2612361002B03DC00231F
:109AE00001202362D5E793262800B60003F008FE84
:109AF0002800227CA15D03F0D9FD66222800A15D2B
:109B000003F0D4FDEBE79426FC21B600A0598905AB
:109B100008F099FEA05108F039FF5D4EC1B2300047
:109B200000F0C8FF2369002BB2D0554BE1695A6A97
:109B3000A0699142ACD89B6A834201D29142A7D0DE
:109B4000280003F0EFFD071EA2D1236A0133236230
:109B5000032B6DDD03232370636A4E4A98461B680E
:109B60009B68934200D087E0424600244A4BD46071
:109B70005360106215F0EEFDB421490007F0E8FAD9
:109B8000080008F0AFFE434698605C61434B0A2032
:109B9000185E07F0E5FD02000B0007F051FD002202
:109BA0003F4B07F074FD4346040058680D0007F072
:109BB000D7FD02000B002000290007F04AFD07F046
:109BC0002FFE434642469861364B30001361FF2317
:109BD000002200210093002300F074FF3000802158
:109BE00000F068FF822393262F4C9B00E518B600F7
:109BF00065222800A15D03F059FD6421280003F0CF
:109C000069FD01222800A15D03F050FDFA21280022
:109C1000490003F05FFD42461E235362FA239B0076
:109C2000936228239363D83301205763138630E768
:109C30000422D21A93239B00E15CD2B2280003F0E5
:109C400035FD04F071FF0023184A801859410B00BC
:109C50008021020009068B4202D301220A4B5242A4
:109C6000E3619423A261124A9B003000FF21E2507D
:109C700000F020FF01200CE740469847012008E74C
:109C800000400540409C0000FFFFFF7FC0C62D0044
:109C90006C140020719200108813000044140020FE
:109CA0000000444000007041B01C002040420F0002
:109CB00000007F437047C046F8B507000500002646
:109CC000094B041D1B882037836515F043FDA96DE2
:109CD00007F03EFA080008F005FEA6632060E06188
:109CE0000434BC42F1D1F8BD4414002010B5040086
:109CF0005C2109F011F8200010BDC046F0B5DE4629
:109D000057464E464546E0B5826D87B00490002A1E
:109D10000CDD9623013A5B009A4200DB18E18E4B82
:109D2000013200211868920008F0E2FF049B1C1D1C
:109D300025001833059315F00DFDFA21C90007F031
:109D400007FA864BC81807F00BFD0022844B07F07A
:109D500080FC0600A86B0F0008F024FE02000B0038
:109D60003000390007F06CFC07F05AFD041C08F0C5
:109D700019FE7C4A7C4B06000F0007F0CBFC002844
:109D800000D1DFE030003900764A784B07F0D0FC94
:109D9000002800D1D9E0211C201C08F054FD211C12
:109DA00008F051FD2968AC6308F036FDEC692860C5
:109DB000211C804608F02DFD08F0F4FD6C4A6D4B27
:109DC00007F065FC0600201C0F0008F0EBFD020008
:109DD0000B003000390007F033FC07F021FD049B35
:109DE000E8619B6D041C18009A4608F07BFD061C78
:109DF000011C404608F064FD00280AD0311C404692
:109E000008F007FD311C2860201C08F002FD041C2E
:109E1000E8612B680021181C994608F043FD0028D2
:109E20000BD04846311C08F0F7FC311C28608146F5
:109E3000201C08F0F1FC041CE861211C484608F0D5
:109E400031FD431E98414300984601235B429C46E6
:109E50004946201CE04408F0DCFCFE214000890556
:109E6000400808F0D9FC08F05FFD834600285DDD5E
:109E7000394B00241B680027029308F033FD03953B
:109E8000019023E00021301C08F022FD002848D07A
:109E9000301C08F07BFDC2B213029B181B029A18FB
:109EA000190C1B0A9620400085420BD2FF201B0490
:109EB00000041206120C034013430906029AAD0077
:109EC0000B43AB5001374444BB452ED0380008F05B
:109ED00009FD019908F0A3FC011CFE20800508F093
:109EE00098FC061C200008F0FDFC494608F094FC94
:109EF00008F01AFD514607F02BF90D1E00DA554403
:109F0000311C301C08F09FFC1B4908F09CFC1A49CE
:109F1000061C08F0C7FC0028B4D1FF21174B184AD3
:109F2000C0E7002300210022BCE7039D059B043508
:109F3000AB4200D0FFE607B0F0BCBB46B246A94634
:109F4000A046F0BD0F48104C2CE71048104C29E7F4
:109F50002C22FF32E3E6C0466814002018FCFFFF05
:109F60000088C340666666666666F63F6666F6BF4C
:109F70009A9999999999B93F00007F43FFFF000092
:109F8000FFFFFF00B29D2F403333B33FB29D2FC080
:109F90003333B3BF002370B528220400002108C06A
:109FA00008F0A6FE5C2008F0AFFE05005C22002150
:109FB00008F09EFE024B20002B60656070BDC0461D
:109FC000FC16021010B50160890040184068036853
:109FD000DB68984710BDC046036810B59B00C018E9
:109FE000406803689B68984710BDC04630B50B7C3D
:109FF0000C0085B0012B0DD001238A68A02193406D
:10A000008622C905D2008B5003232374002000212F
:10A0100005B030BD0868002105F072F902232374F1
:10A0200004F072FB050004F07FFD0C2200231218DF
:10A030004B41802109068B4202D30122054B52423B
:10A0400001210291044928000194009104F060FB71
:10A05000DCE7C046FFFFFF7FED9F001070B50400F6
:10A06000100062602160022103F04AFD134920685C
:10A0700005F042F8002302220821206805F002F9C9
:10A08000A368013300D070BD01200AF065FD21688E
:10A090000B4B0C4DCB185A425341C2020A332A4093
:10A0A0001B04134311221343A022D2059446A0603F
:10A0B00080016044E36003614160E4E790D0030005
:10A0C0000080FCBFFD7F00FF30B583680400A02046
:10A0D000C00584469B01634419609A6001230121F5
:10A0E000237485B0206805F00BF904F00DFB050022
:10A0F00004F01AFD6422002312184B418021090646
:10A100008B4202D30122064B5242012102910549A2
:10A1100028000194009104F0FBFA012005B030BD45
:10A12000FFFFFF7FED9F0010037C0200032B03D095
:10A130005A425341D8B27047A021C9058C46836862
:10A1400000209B0163441B69DB01F4D413689B6905
:10A150001B07F0D410740130EDE7C04600230374F0
:10A160007047C04610B58168027C02480AF010F8BA
:10A1700010BDC04674070210F0B5DE4657464E4685
:10A180004546414BE0B51C6885B0A369DB0629D480
:10A190003E4B102506229B5E3D4F9A463D4B3A783A
:10A1A000197803933C4B3D4E99463D4B01933D4BF3
:10A1B000029301239846A3691D42FCD12068092A15
:10A1C0000DD8531CDBB2B0543B701A00002910D1DB
:10A1D000072B04D1344B32689A4243D00722A3693B
:10A1E0001D42E8D005B0F0BCBB46B246A946A04629
:10A1F000F0BD052BF3D1B421B0787378C001C0183D
:10A200008011490006F0A4FF3379F2781B029B18F5
:10A210009B109A4506DC002B31D100233B700121B5
:10A220000022DCE7214B00934A46525C002A14D0FE
:10A230001F4A944660464A00805A8346984221DC71
:10A240005B469BB260468352019B009898524246FF
:10A25000029B5A544B465A54DFE7154A009B9446DA
:10A260004A00EFE78023B288DB019A42B6D1B37986
:10A27000812BB3D1039A803B13703970CFE79AB228
:10A280000092D1E79B46DBE764580020441400208D
:10A290008E6500208F650020FC560020804E002037
:10A2A0008C4E002068580020A55A0500E02E0000C2
:10A2B0002C5400202021074B1B689A691142FCD1C5
:10A2C000A52220211A609A691142FCD140221A600D
:10A2D0007047C046645800202021094B1A689369D2
:10A2E0001942FCD1A523202113600800936918406E
:10A2F0001942FAD1034B11601870034B1870704764
:10A30000645800208F6500208E6500202021074BB7
:10A310001B689A691142FCD1A52220211A609A6912
:10A320001142FCD125221A607047C04664580020B3
:10A33000F0B557464E46DE464546E0B5334B87B04E
:10A340001A68334B51420192029106201B5E314F35
:10A350009846314B16001B6894469B462F4B30485D
:10A360001B686A3605932F4B60449A461300CB1A3C
:10A37000013B04933B002C4A474691469846FF36E2
:10A380000390019B029A93423DDB049B264D9C194E
:10A3900005E04D4500DD244D0134B4420FD0B42119
:10A3A0002000490006F0D4FE434649005B5A9F4214
:10A3B000EFDC9D42F0DD01341D00B442EFD1AB452E
:10A3C0001EDA5B46E81A08F08DFA059908F03BFAA8
:10A3D00008F0AAFA5346188002239C46039B0136D4
:10A3E000E2449E42CDD1B422002152000F4808F031
:10A3F0007FFC07B0F0BCBB46B246A946A046F0BD04
:10A4000053461D80E8E7084DD9E7C04654140020A4
:10A41000441400202C540020601400205C14002000
:10A42000D1020000B04B0020E02E0000FC560020BE
:10A4300070B50C00E1210600154D1000C9022A601C
:10A4400004F05AFE3000022103F05AFB20000221E2
:10A4500003F056FB0F4B2C689C466444631E9C41E2
:10A46000143420000C4903F0ABFC0121200003F060
:10A4700081FC502238212B689A635A6B3433114087
:10A4800080225201134300221960044B1A7070BDE0
:10A490006458002000C0FCBF79A100109065002026
:10A4A000F0B557464E46DE464546E0B5394B87B0D7
:10A4B0001A68394B5642039606215B5E17009A468E
:10A4C000364B374C1B686A370293364BFF3798463A
:10A4D000B4235B009B1A0093A3180193324B0492A0
:10A4E0009B46324B0594994607E002239C46009B0D
:10A4F0000136E0440137B34236D0019B9B5D002B0F
:10A50000F3D0049B039A934242DB34006934264D16
:10A51000FF3405E09D4200DD1D000134A7420FD04D
:10A52000B4212000490006F013FE4B4649005B5A57
:10A530009A45EFDD5D45F0DD01341B4DA742EFD1BB
:10A540004346029A1B88AD1A9D421BDD184A93426E
:10A550001AD842463233138002239C46009B0136B0
:10A56000E0440137B342C8D1B422059C0021200049
:10A57000520008F0BDFB07B0F0BCBB46B246A9468E
:10A58000A046F0BD0A2BB0D942460A3B1380ACE787
:10A59000054DD5E754140020441400206014002019
:10A5A000FC560020B04B0020E02E00002C54002070
:10A5B000DF2E0000F8B5DE4657464E4645467A4C3B
:10A5C0007A4B61685A6AE0B52068914206D900204A
:10A5D000F0BCBB46B246A946A046F8BD9B6A834282
:10A5E00018D304F0A1FA0023714A801859410B00D6
:10A5F0008021020009068B4202D301226D4B524298
:10A600006D4D63602B782260052BE0D86B4A9B0070
:10A61000D3589F469142E4D1D9E7FFF789FE022340
:10A6200067482B7009F0B4FDD1E7664809F0B0FD2A
:10A6300004F07AFA0023644A801859410B00802103
:10A64000020009068B4202D301225A4B52420CC42B
:10A65000B42200215D48520008F04AFB05232B700C
:10A66000B5E75B4809F094FD04F05EFA0023594A0F
:10A67000801859410B008021020009068B4202D349
:10A6800001224C4B52420CC404232B709FE7524BC7
:10A69000B4249A4606229B5E504E9946504B514D2B
:10A6A000984619000023504FA4000A78002A48D089
:10A6B000EA5A002A45D0F85A904242D9914540DAE8
:10A6C000F25202330131A342EFD1B42200215200F1
:10A6D000404608F00DFB454C23685A1C0A2B5FD0FE
:10A6E000534622600427DF5F414BB1461B689B46FF
:10A6F0001D00002398466933FF339A4608E0012382
:10A700009C460133E0449C460135E144D04545D0A8
:10A710004B461B88BB42F2DA5B46002BEFDD44461A
:10A7200002E00134AC42EAD0B4212000490006F036
:10A730000FFD4900735A9F42F3DA4B462D4A1A80A7
:10A74000DDE72C4A0131F2520233A342ADD1BCE71E
:10A750002021294B1A6893691942FCD1A523202195
:10A7600013600800936918401942FAD1234B116015
:10A770001870234B187004F0D7F90023124A801880
:10A7800059410B008021020009068B4202D30122AD
:10A79000084B52420CC402232B7018E7012017E724
:10A7A000FFF77EFE00229BE7781B0020004005405B
:10A7B000A0860100FFFFFF7F906500200C170210AC
:10A7C000B0070210A007021040420F00FC56002004
:10A7D0009007021000093D00441400205C51002045
:10A7E000685800208C4E0020B04B0020C439002057
:10A7F00058140020E02E0000645800208F650020CF
:10A800008E6500207047C046014B18707047C046E7
:10A8100090650020F0B5CE464746040003000D00C9
:10A82000002180B587B016000091021D2100384834
:10A83000083308F05BFD002804D107B0C0BCB9465E
:10A84000B046F0BD636827689846A3680124AC4011
:10A850009946220023004146380008F0E5FE220018
:10A8600023004146380008F033FF2A4B2800F9182E
:10A870004B1E9941063103F043F980235B0202939A
:10A880004B464A460333D2011B031343224A052099
:10A8900013408022D2051343204A0393204B2A40C1
:10A8A0001343AD022B4305931E4B049304F0BCFEEF
:10A8B00008F013F8041CF00008F00FF8011C201C2D
:10A8C00007F0ADFF051C08F061F884B20023002CEE
:10A8D0000ED0200008F001F8011C281C07F099FF99
:10A8E0008721C90507F0AFFF08F050F8C3B21B027B
:10A8F00024044A4641461C43380002AB029408F047
:10A900008FFF012341468B403A6813433B6094E735
:10A91000241702100000E0AFFFFFFF9FFF83FFFF3F
:10A920000000104000000C4010B50468406801228F
:10A93000030010339A4063681A42FCD1043080004F
:10A94000015110BD0EC8064810B58446042482B0DB
:10A9500061440448090D009409F01AFC02B010BDCE
:10A960000000E0AFC007021010B50378282B48D0D4
:10A9700006D9292B37D0642B01D10AF0C7F910BDB5
:10A980000A2B0FD0142BFAD1264BC1781C68837880
:10A9900009041B060B4301794278090292000B431C
:10A9A0001351ECE74378002B39D01F4B1A681D4B2D
:10A9B00019684807C30F002800DA0A602C24952084
:10A9C000FF34E41A9B00CB18C00018181A605A60B4
:10A9D00008339842FAD195235B009C42CFD095234F
:10A9E000DB00CA50CBE7837842781B021343C2785E
:10A9F00012041A4303791B0613430B4A1BBA136054
:10AA0000BDE7837842781B021343C27812041A43CD
:10AA100003791B061343054A1BBA1360AFE7034BC8
:10AA20001A68C4E76814002064140020683B002002
:10AA300010B50021022003F08DF8002102200AF059
:10AA40009DF810BD70B5164B164C5A6A616800200F
:10AA50002568914220D89B6AAB421ED304F064F86B
:10AA60000023114A801859410B0080210200090679
:10AA70008B4202D301220D4B52420CC496230C4947
:10AA8000DB00CC181A00200008F038F996212000CD
:10AA900049000AF0FBF8012070BD9142DED1FBE7CE
:10AAA00000400540701B002010270000FFFFFF7FC3
:10AAB0002C4200204268024B9B1899717047C04697
:10AAC0001C3D002070B504AC26784568064C65191D
:10AAD0002972416861184A724268A21893724368E9
:10AAE000E418E67270BDC0461C3D0020F0B5464635
:10AAF0004F468846D6464549C0B506004046171C15
:10AB000007F0D0FE002853D00021404607F0E0FEB9
:10AB1000002800D175E0404607F044FF04000D0016
:10AB2000381C3B4907F0BEFE00284BD1C2239A4691
:10AB300028339946364F374B988906F011FE00228C
:10AB4000354B06F086FD2B00220006F0A0FD06F036
:10AB500043FE7268314B010A9954494672689A184B
:10AB6000507072689A18D17072689B1852461A71A8
:10AB700008F07EFB652008F083FB84214046C90570
:10AB800007F061FE07F0D0FE00B208F085FB8421DB
:10AB9000381CC90507F057FE07F0C6FE00B208F0E2
:10ABA0007BFB08F099FBE0BCBA46B146A846F0BD75
:10ABB000164B00249846184D1549381C07F072FEB4
:10ABC0000028B3D01649381C07F082FE002812D0A6
:10ABD000381C07F0E7FE134A134B06F058FD134BE1
:10ABE000002206F02DFD06F0F7FD030ADBB29946C0
:10ABF000C3B29A469FE73E239A46293B9946084F9F
:10AC000099E70023002400259846D5E70000B443C7
:10AC10000000B44244140020008076401C3D002017
:10AC20000000B4C2ABAAAAAAAAFA72400000E0408F
:10AC300070B5541A82B005000E0001940F2C0FD885
:10AC400003681800012C08D10A781A702B680021BB
:10AC5000019A6A60995402B070BD002CF7D006E0EA
:10AC6000002201A90BF0C8FA019B2860AB6022000A
:10AC7000310008F043F82B68E9E7C046F8B509F061
:10AC800019FF08220A212648FEF7C4FA0023254DA1
:10AC9000A0262B80244B254C9C4676016544200041
:10ACA00007F020FE224907F0CEFD07F085FE21497E
:10ACB00007F0C9FD07F038FE2F1902343880B4427E
:10ACC000EDD10E2002F056FFD02480232406DB01B4
:10ACD000A362002201210E2002F02AFF0B2002F0C5
:10ACE00049FF80231B016362A361134B042219688F
:10ACF0001248FFF7B3F9052002F03CFF20236362FE
:10AD0000A361FFF795FE0E4B0D211A680C20FFF78B
:10AD10008FFBC82003F01CFE0120FFF775FDF8BD76
:10AD2000B01C0020A429002000FCFFFF020400004A
:10AD3000DB0FC93A00FEFF4674140020083D0020D6
:10AD400078140020F8B5DE464E4657464546E0B535
:10AD500008F08EFA642008F093FA08F0BDFA974ED6
:10AD6000974BF458974BF3189C4275D0984696230E
:10AD70009B009A46944BB244994605E020000AF0A5
:10AD80009DFF0400404567D0904925698C46AF007F
:10AD90007B19DB00F21862441278002AEED0C02240
:10ADA00092009446F318634403CB002900D1D5E008
:10ADB000FA220023920006F031FAFA235B009B4648
:10ADC000834403F0B1FE002900D1C2E0FA2200233F
:10ADD000920006F023FA8345D0D2C2229200944614
:10ADE0007B19DB00F318634403CB002900D1D4E0C6
:10ADF000FA220023920006F011FA0700F537FF3718
:10AE000003F092FE002900D1D3E0FA220023920041
:10AE100006F004FA8742B1D32900504601F06EFAD9
:10AE200007004845AAD008F023FA6E2008F028FA57
:10AE3000E8B208F025FA388808F03EFA788808F079
:10AE40003BFAB88808F038FA08F046FA20000AF011
:10AE500035FF0400404597D15D4BF4585D4BF31826
:10AE60009C4270D098465C4B43449A46564B994658
:10AE700005E020000AF022FF0400404563D0574956
:10AE800025698C466F007B191B01F2186244127809
:10AE9000002AEED0C822D2009446F318634403CBB4
:10AEA000002965D0FA220023920006F0B7F9FA23B0
:10AEB0005B009B46834403F037FE002953D0FA22FF
:10AEC0000023920006F0AAF98345D2D2C922D2000B
:10AED00094467B191B01F318634403CB00294CD023
:10AEE000FA220023920006F099F90700F537FF37A0
:10AEF00003F01AFE00294BD0FA220023920006F03C
:10AF00008DF98742B5D32900504601F009FA0700B0
:10AF10004845AED008F0ACF96F2008F0B1F9E8B2BE
:10AF200008F0AEF9388808F0C7F9788808F0C4F955
:10AF3000B88808F0C1F908F0CFF920000AF0BEFE89
:10AF4000040040459BD1F0BCBB46B246A946A04692
:10AF5000F8BDFA21890006F023F93CE7FA218900BF
:10AF600006F01EF929E7FA21890006F019F9ABE786
:10AF7000FA21890006F014F999E7FA21890006F010
:10AF80000FF90700F537FF3703F0CEFD0029B3D1E5
:10AF9000FA21890006F004F9B3E7FA21890006F0E6
:10AFA000FFF80700F537FF3703F0BEFD002900D09A
:10AFB0002BE7FA21890006F0F3F82BE7B01C0020FC
:10AFC000240600001C060000645A0020FE02000057
:10AFD000040A0000FC0900005CF8FFFF3E060000C8
:10AFE000F8B55A4C5A4B61685A6A2068914226D883
:10AFF0009B6A834265D30121564A13784B401370F4
:10B0000067D0D02380221B0692045A61524B1D68E0
:10B0100003F08AFDFA2206000F00002392002800A8
:10B02000002107F0D9FB801979410B008021020033
:10B0300009068B4202D30122484B52420CC4D02352
:10B040001B065A6846490B68520431D5002B4BDD6C
:10B05000013B0B60434B1978434B1A788A4203D06B
:10B060004248197008F0B4F803F05EFD404C2060CF
:10B070006160FFF79FFA002859D103F055FD3D4C60
:10B080003D4D206061602800FEF7C8FC002844D1D7
:10B0900003F04AFD394C20606160FFF7D3FC0028C3
:10B0A0002ED1374C2000FFF73FF8002821D1F8BD02
:10B0B000FA229200934212DA01330B60294B19787D
:10B0C000CAE79142BBD00121224A13784B4013704A
:10B0D00097D1D02380221B0692049A6196E7012221
:10B0E000204B01211A70B7E700221E4B00211A7075
:10B0F000B2E78022200023495200FEF7E5FFD6E7A1
:10B100002800FDF7EDFE2668676803F00DFD801B43
:10B11000B941236918182061C3E72668676803F0FE
:10B1200003FD801BB941236918182061B0E7164957
:10B13000164800F033FC2668676803F0F5FC801BB6
:10B14000B94123691818206197E7C046801B002089
:10B1500000400540826500207C140020FFFFFF7F37
:10B160006C3C00208665002087650020DC0702100B
:10B17000F0260020C0260020B01C00202027002040
:10B18000083D00201C3D00205C510020081F0020CD
:10B19000F0B585B00A0001A90C00114BE0CBE0C46A
:10B1A0000378452B08D00A2A04D90B2213F030FA71
:10B1B000002806D005B0F0BD411C0A4808F008F888
:10B1C000F8E7094807F074FEFFF7A0F8FA204000FE
:10B1D00003F0BEFB09F07CFCFFF77EF8EAE7C0460F
:10B1E000FC070210E4070210EC070210B42110B5AE
:10B1F0000348890009F000FC0248FDF705F810BD7E
:10B20000B04B002044140020F0B5070008370400BC
:10B210000E0083B00760002925D0080014F0B6FCAA
:10B220000500030001900F280CD8012807D13278BF
:10B230002272002220006360FA5403B0F0BD00289F
:10B24000F7D008E00022200001A90AF0D5FF07008E
:10B25000019B2060A36038002A00310007F04EFDFA
:10B26000019B2768E5E701480AF096FF08080210ED
:10B2700001221F4B524200B59A60002289B01A7415
:10B280001C4901AA02A8FFF7BFFF1B48029903004F
:10B29000039A1C3343618A181430FFF7C9FC02A8D3
:10B2A0000AF0C8FF01AA154902A8FFF7ADFF14482C
:10B2B00002990300039A1C3343618A181430FFF784
:10B2C000B7FC02A80AF0B6FF01AA0E4902A8FFF7D0
:10B2D0009BFF0D4802990300039A1C3343618A18AF
:10B2E0001430FFF7A5FC02A80AF0A4FF09B000BDC6
:10B2F000083D00203C0802102027002044080210CE
:10B30000F02600204C080210C0260020F8B5CE46DA
:10B31000474680B504000D0007F06EFF1E2807D9D0
:10B320006438C3B2682B0BD8CF4A9B00D3589F46D2
:10B33000002805D01E2803D8CC4A800013589F4609
:10B34000CB4807F045FF002D08D00026C94FA15D6E
:10B350003800013607F03CFFB542F8DC0A2007F060
:10B360005BFDC0BCB946B046F8BD07F045FF8300A1
:10B37000C14A1B185B001360F3E707F03DFF052887
:10B38000EFD8BE4B80001B589F46B923BC4F9B0093
:10B390003D009C4600261435674407F069FF1420E1
:10B3A00007F06EFF2C00F0B207F06AFF143C208813
:10B3B000023407F081FFAC42F9D1143507F08CFF5D
:10B3C0000136BD42E9D1CCE7B923AE4F9B003D0029
:10B3D0009C4600261435674407F04AFF152007F005
:10B3E0004FFF2C00F0B207F04BFF143C20880234D2
:10B3F00007F062FFAC42F9D1143507F06DFF01365A
:10B40000BD42E9D1ADE7A04B9846186906F0A4F912
:10B4100000229E4B06F03BF9434606009C68DD681F
:10B420000F0003F081FB001BA94106F0EDF90200BB
:10B430000B003000390006F00CF906F0F1F907F0C6
:10B44000B1FA0B004146020091484969804608F074
:10B450009FFE904B9946186906F07EF900228B4BAF
:10B4600006F015F94B4606009C68DD680F0003F0F6
:10B470005BFB001BA94106F0C7F902000B0030007E
:10B48000390006F0E6F806F0CBF907F08BFA0B006E
:10B49000494602004969404608F07AFE7E4B9946CB
:10B4A000186906F059F90022784B06F0F0F84B467F
:10B4B00006009C68DD680F0003F036FB001BA94105
:10B4C00006F0A2F902000B003000390006F0C1F8C6
:10B4D00006F0A6F907F066FA0B0049460200496932
:10B4E000404608F055FE3CE70024674D2C6103F010
:10B4F0001BFBA860E960674D2C6103F015FBA86099
:10B50000E960654D2C6103F00FFBA860E96028E756
:10B51000013D6248EAB2611CFCF77CFE21E7013D77
:10B520005F48EAB2611CFDF73BFD1AE7B9235D4FA6
:10B530009B003D009C4600261435674407F098FEAA
:10B54000162007F09DFE2C00F0B207F099FE143C87
:10B550002088023407F0B0FEAC42F9D1143507F070
:10B56000BBFE0136BD42E9D1FBE6013DE9B2601CFC
:10B57000FFF7FAF9F5E64C48FEF7F4FDF1E6484826
:10B58000FDF728FEEDE64648FDF7A6FCE9E607F0E4
:10B5900057FE464B1860E4E607F052FE444B186035
:10B5A000DFE607F04DFE434B1860DAE608F03EFE9A
:10B5B000D7E63D48FEF7D2FDD3E607F041FE3E4B0D
:10B5C00001001A5C3D4807F003FECAE607F038FEAA
:10B5D00006F0C6F800223A4B06F059F806F020F9BA
:10B5E000041C07F017FE06F0BBF80022344B06F0EF
:10B5F0004EF806F015F9334B021C211C1800FFF71A
:10B6000075FAAEE607F01CFE040007F0F5FD2A4BC4
:10B610001855A6E6FFF796FBA3E622492A4801F053
:10B6200047FA9EE61E48FDF7DFFD9AE61C48FEF746
:10B6300073F996E60320FFF7E7F892E6FEF778FE47
:10B640008FE6FEF749FE0220FFF7DEF889E6FEF7F7
:10B650005DFE0020FFF7D8F883E6FEF72BFE80E6BC
:10B66000FFF7D0F87DE6C04648170210EC1802102C
:10B6700070080210780802107C140020681902106B
:10B680008C4E0020B04B00202027002000005940A5
:10B6900054080210F0260020C02600204414002088
:10B6A000B01C00205C510020083D002054140020F4
:10B6B00058140020601400201C3D00206408021073
:10B6C0000000A03F6C140020081F0020F8B547467A
:10B6D000CE468468031D80B58846070099460D68EC
:10B6E000002C05D132E0A3680126002B07D01C00F6
:10B6F00022699542F7DBE3680026002BF7D1002E84
:10B700001CD1AA4216DAA14524D022690123954210
:10B7100000DB0023DDB2142007F0F6FA43461B6875
:10B720000100036122004B4628000AF0FBFA7B6906
:10B7300001337B61C0BCB946B046F8BDFB689C4292
:10B74000E1D020000AF0D2FA0269DAE7C3684C4679
:10B750009945F6D10125DEE7F0B5C646040000B5EF
:10B7600014200D0007F0D0FA236906000361237846
:10B770004560037000238360C360E068002803D045
:10B780003100FFF7E9FFF060A568002D1ED000230F
:10B7900037009846142007F0B7FA2B6904000361BC
:10B7A0002B78037043468360C360B8604760E868E5
:10B7B000002808D02100FFF7CFFFE060AD68002D22
:10B7C00004D02700E6E7AD68002DFAD1300080BC38
:10B7D000B846F0BDF0B5DE4657464E464546E0B5A4
:10B7E00083B00190002876D0019BDB689946002B3E
:10B7F00068D04B46DB689A46002B59D05346DB682D
:10B800009B46002B4AD05B46DC68002C32D0E568B2
:10B81000002D1DD0EB689846002B22D04346DE68F1
:10B82000002E31D0F768002F09D0F868FFF7D2FF5B
:10B830003800BF68142107F06FFA002FF5D1B76800
:10B840001421300007F068FA002F1DD03E00E9E710
:10B85000A5681421200007F05FFA002D0AD02C0003
:10B86000D5E7AE681421280007F056FA002EEFD075
:10B870003500CFE75B469C681421584607F04CFA28
:10B88000002C0BD0A346BEE743469E6814214046D9
:10B8900007F042FA002EE4D0B046BFE753469C685A
:10B8A0001421504607F038FA002C01D0A246A5E733
:10B8B0004B469C681421484607F02EFA002C01D014
:10B8C000A14696E701981421846807F025FA002C18
:10B8D00001D0019488E703B0F0BCBB46B246A9464C
:10B8E000A046F0BDF0B5C646836805009C4600B58D
:10B8F000071D002B4AD03E001C0002E0E468002C2B
:10B9000007D023699942F9DCA26812DA2600141ED6
:10B91000F7D1EB68B34209D1B74207D16046FFF7D0
:10B9200059FF0023EF60AB602F616B6180BCB846AC
:10B93000F0BDE368002A06D01069814224DC1400BF
:10B940009268002AF8D1002B06D01A69914219DAC0
:10B950001E009B68002BF8D1EB689C420FD119E0C8
:10B9600020000AF0ABF9A0463900040040460AF076
:10B970009BFA142107F0D0F96B69013B6B61B4426B
:10B98000EED1D3E7DB68DEE7D268D3E7C3689F4236
:10B99000C4D0CBE7B742F2D1C0E7C046F0B5982398
:10B9A00057464E464546DE460A00E0B5C1500021E6
:10B9B000B425083B734EC15082460027002404235F
:10B9C000F05E8DB06D0006E00137062F00D17DE0FE
:10B9D0000134AC4207D06300D35A8342F4DA013415
:10B9E0000027AC42F7D10821735E00210393B423F2
:10B9F0005B0099460023A144884602914946994636
:10BA00005346002582469346009101930AE0002D9B
:10BA100056D101230027984602910135009B01343D
:10BA20009C4235D0B4212000490005F091FB5A46D4
:10BA30004B009E5AB245EADC0137002DEED0042FB0
:10BA40003FDD4B46132B47DC42465D00019B4D44D6
:10BA50009C46D00F029A6D00654494464044039A78
:10BA600040106044B42194464900604405F070FBE6
:10BA7000C822AA83C73A9446E14429834946019BD8
:10BA80008F326E839950009B013400259C42C9D1AE
:10BA9000019B4A469A4606AB9B460023594607AE91
:10BAA0000B718B60CE600E614B61002A20DC524628
:10BAB00013600DB0F0BCBB46B246A946A046F0BD2F
:10BAC000002701239C460125E044A7E76821FF31B8
:10BAD0008C4200D087E7ECE7019B07AE9A4606ABA5
:10BAE0009B4600235A4613719360D66016615361DA
:10BAF0000023574699461837903398463B004F46E7
:10BB000099464B461D8834000595B44206D122E083
:10BB100020000AF0D3F80400B0421CD0E1239B00BF
:10BB20009C46B42120694900281A604405F010FBA6
:10BB300083396229ECD8062342469C4653469B58DB
:10BB40000137E144BB420BDD5B46DC684B461D8898
:10BB50000595B442E2D1584605A9FFF7B7FDEAE7DB
:10BB60005B4652469C685B691360002CA1D0E0687C
:10BB7000FFF730FE2000A468142107F0CDF8002C58
:10BB8000F5D196E744140020F8B5F0239B004E460B
:10BB9000994681444B46DC68F1239B004546984614
:10BBA000DE4657468044E0B50600A04525D0002378
:10BBB0009A462769BD00EB19DB00F318B03303CBBD
:10BBC000002900D172E0FA220023920005F026FB42
:10BBD000FA235B019B46834402F0A6FF002945D06F
:10BBE000FA220023920005F019FB834544D320007C
:10BBF0000AF064F804008045DBD1F423DB009946A9
:10BC0000B1444B46DC683F4B9846B044444527D08E
:10BC100000239A46FC229200944627697D00EB1986
:10BC20001B01F318634403CB002966D0FA220023DA
:10BC3000920005F0F3FAFA235B019B46834402F07D
:10BC400073FF002937D0FA220023920005F0E6FAAC
:10BC5000834536D320000AF031F804004045D9D19D
:10BC6000F0BCBB46B246A946A046F8BDFA21890001
:10BC700005F096FA8345BAD25346ED19ED007519D1
:10BC8000A6352B7020000AF019F841460500200067
:10BC90000AF00AF9142107F03FF84B464A465B695F
:10BCA000013B5361A845A8D02C0082E7FA21890006
:10BCB00005F076FA8CE7FA21890005F071FA8345E0
:10BCC000C8D2114BED199C4653462D017519654498
:10BCD0002B70200009F0F2FF4146050020000AF019
:10BCE000E3F8142107F018F84B464A465B69013B1C
:10BCF00053614545B4D02C008CE7FA21890005F04A
:10BD00004FFA98E7A4070000E6030000F023F0B51F
:10BD10004E468146DE4657464546F4219B004B443D
:10BD2000DA68F123E0B5C90093B049440E91E049C7
:10BD30009B004B4449448B4609920C93934200D19B
:10BD400032E101915FE0F82189008C4662444A4467
:10BD500090464146A0334B445E889F8818880B88E4
:10BD60009288C01A4C88009205F0FAFCD14AD24B56
:10BD700005F08DFC0022D14B05F06BFC05F072FD47
:10BD80003300734302900391180023006343C018EB
:10BD900005F0E6FC744304900591600005F0E0FCBA
:10BDA000029A039B05F073FC02000B0004980599AE
:10BDB00005F03DFC05F040FD05F0EAFC009ABB18DB
:10BDC0005B100022984202DDC01A0004020CF62328
:10BDD00049469B00CB58934200DB3FE10A99012280
:10BDE0000B0040465B44DB004B44B83352421A60C0
:10BDF0001830FFF777FD099809F060FF0C9B099058
:10BE0000834200D1CEE0099B1B699A0093464A46C3
:10BE10000A935B44DB00D218B83215686A1C0CD058
:10BE2000A748494684466A00924652191201891869
:10BE300061440978002900D085E70E9BDF68019BEB
:10BE40009F4200D16DE10A9BBA465B44DB00A03300
:10BE50004B445A880292524304921A889B88069255
:10BE60000793984B089301235B420B935B460D931A
:10BE70005346F8221B6992009B4694465B005B4444
:10BE80001B0163444B4459881888884606999A8850
:10BE9000081A009205F064FC864A874B05F0F7FB10
:10BEA0000022864B05F0D5FB05F0DCFC0600404681
:10BEB0000F00049940438C46604405F051FC040097
:10BEC00040460D0002994843400005F049FC32000D
:10BED0003B0005F0DCFB02000B002000290005F010
:10BEE000A6FB05F0A9FC05F053FC079A009B9446BD
:10BEF000634400225B10984202DDC01A0004020C69
:10BF0000F62349469B00CB58934205DD089B93429C
:10BF100002DD5B4608920B93504609F0CFFE019B71
:10BF200082468342A4D10D9B9B460B9B013300D1DB
:10BF3000F7E00A9F3C005C44E4004C442300A63335
:10BF40001B78002B00D156E70B9A4B4694465500C0
:10BF500065442D015E195A4BF3181B78002B00D154
:10BF600049E72300B8331A6002F0DEFDFE23C03437
:10BF70009B009C4620606160300011A960441197CD
:10BF8000FFF7A4FB02F0D0FDFC239B009C46664417
:10BF900030607160099809F091FE0C9B0990834212
:10BFA00000D030E7019B9B460E9BDB689B4500D190
:10BFB000B0E01D005B464E46029307E0280009F002
:10BFC0007DFE029B0500834200D1A3E02B699946C8
:10BFD0005B001C009B46FE239B009C464C442401B6
:10BFE0006444341963690193002BE7D0E068231D92
:10BFF0009A46834200D11CE100218846B4398C4620
:10C00000036900279A000692D218D200B218A03213
:10C0100012880795944461460091B4218C4694445B
:10C020006146A4464446E04604910699CB18DB00DD
:10C03000F318A2331B88A418FF1809F03FFE8245AD
:10C0400042D00369009D9900CA18D200B218A032EC
:10C050001288954225DD6932FF32E7E70A9E3400F7
:10C060005C44E4004C442300A6331B78002B00D131
:10C07000C1E602F059FDC03420606160404611A95C
:10C0800018301196FFF722FB02F04EFDFC222B0028
:10C090009200944653441B014B446344186059601A
:10C0A000A9E6049D9542C1DA693AFF3ABEE7C04667
:10C0B000A407000026E4839ECD2A09400080664044
:10C0C000E6030000E02E00004346A04601994046EA
:10C0D0001C0005F065F8B4216930FF30490005F017
:10C0E0005FF83800079D89B25B46F8224B441B017C
:10C0F000F31892009A1811805E4A61699F1805F042
:10C100004FF83880280009F0D9FD029B05008342D2
:10C1100000D05BE713B0F0BCBB46B246A946A046D0
:10C12000F0BD0A9B5B44DB004B441A00A632127838
:10C13000002A00D15FE6A83303CB002900D17BE0C1
:10C14000FA220023920005F069F80400F534FF3468
:10C1500002F0EAFC002900D17AE0FA2200239200E2
:10C1600005F05CF8844200D345E60A9B5B44DB00A3
:10C170004B44B03303CB00296FD0FA220023920046
:10C1800005F04CF80400F534FF3402F0CDFC002932
:10C190006BD0FA220023920005F040F8844200D2CE
:10C1A00029E60E9B5B69142B00D124E600230021B5
:10C1B000314A08000F9C11934A4404E001303032A8
:10C1C000142850D0040019001378002BF6D10B90DE
:10C1D0000F94002900D011940B9B01219C465C0018
:10C1E000F823644424019B00E218234B4C44E318D9
:10C1F00019700A9B4A445B44DB004B441900A03190
:10C20000098811801900A2310988A43351801B8844
:10C21000938002F089FCFC239B00E31803C3FA23FC
:10C220009B009C46644403C40E9811A9FFF74EFA84
:10C230007FE60020002157E7FA21890004F0B0FFD3
:10C240000400F534FF3402F06FFC002900D084E7CD
:10C25000FA21890004F0A4FF84E7FA21890004F0A0
:10C260009FFF04008FE70F94C5E5FA21890004F0D1
:10C2700097FF93E7E2030000E603000003684268CB
:10C2800070B504009A4225D0826893420FD1174BB3
:10C290000569596A4069884208D89B6AAB4222D333
:10C2A000134B62601A685B682261636170BD8360D2
:10C2B00002F03AFC00230F4A801859410B008021FC
:10C2C000020009068B4202D301220B4B524222612B
:10C2D0006361EBE7064B1A685B6802614361012307
:10C2E0005B428360E2E78842DAD1DFE70040054045
:10C2F000401A021060E31600FFFFFF7F132907D8E2
:10C300008B005B18DB00C218A6321278002A01D11C
:10C3100002487047A033C018FBE7C046645A0020AB
:10C32000132909D84B005B1807491B018C46C2181A
:10C3300062441278002A01D104487047F822920022
:10C3400094466344C018F8E7E6030000645A0020EE
:10C35000F8B59023C3580E001700002B1BDD5D00BD
:10C36000ED1818306D000400451902E00634A542AE
:10C3700011D0E1239B009C46B42120884900801BFA
:10C38000604404F0E5FEB439CB17C9185940B942EE
:10C39000ECDA012000E00020F8BDC046F0B55746B9
:10C3A0004546DE464E46E0B583B0076800934368D5
:10C3B0009346DA1BD2109A46D3009B180D009901C0
:10C3C0005B18DB009B18D9035B18DB009B183F4A06
:10C3D0005B428046934200D174E0EE1B574563D028
:10C3E00059008B4255D8002961D100233824994641
:10C3F00001935B461B684E449B4606223000009921
:10C4000006F07CFC5B46B36001235B42F360AF4205
:10C4100016D04E463C00210030003822383406F059
:10C420006DFC3836AC42F6D12A00383A284BD21B84
:10C43000D2085343DB00DC081C1BE40070344C447E
:10C44000AA4511D053465E1B383E214BF608734374
:10C45000DB00DB080133DE00F61AF60020003200B4
:10C46000290006F04BFCA419002F05D0434699681B
:10C470003800C91B06F050FC43464A461A60019A30
:10C480005C609A6003B0F0BCBB46B246A946A046C9
:10C49000F0BD104C200006F037FC2300814604005C
:10C4A0004B4401933834A4E7591C0133F1D2914233
:10C4B00003D8CB005B1ADC00ECE71100CB005B1A61
:10C4C000DC00E7E7044809F07FFEC04692244902F9
:10C4D000B76DDB16F0FFFF7F7C080210F8B54E4603
:10C4E00057464546DE460368E0B547681400FA1A29
:10C4F000D2109846D3009B180E0099015B18DB0000
:10C500009B18D9035B18DB009B18444A5B428146A9
:10C51000934200D17EE04146751AB84562D0590079
:10C520008B424DD800296DD121003822280006F019
:10C53000E5FB002338249B469A46B04519D0554662
:10C540004446210028003822383406F0D7FB38351D
:10C55000B442F6D132004346383AD21A304BD208B0
:10C560005343DB00DC081C1BE40070345444B74226
:10C5700010D0BF1B2A4B383FFF087B43DB00DB0892
:10C580000133DD00ED1AED0020002A00310006F035
:10C59000B5FB64194346002B06D04B4699684346C9
:10C5A0004046C91A06F0B8FB4B4652461A605A4636
:10C5B0005C609A60F0BCBB46B246A946A046F8BD96
:10C5C000184B9B46584606F09FFB824628002100E8
:10C5D00054463822504406F091FBD3443834B045D9
:10C5E000ADD1C4E7591C0133EAD2914204D8CB0043
:10C5F0005B1ADB009B46E5E71100CB005B1ADB0012
:10C600009B46DFE7914200D91100CB00591ACB00BD
:10C610009B46D7E7044809F0D7FDC046922449025B
:10C62000B76DDB16F0FFFF7F7C080210F0B54546C2
:10C63000DE4657464E46E0B500230200A1B0002179
:10C6400009900020149318931A939033D3581290A2
:10C650001391984616901791002B00DC08E2160003
:10C660001AAA002700240B92902218360125B946F9
:10C670009246370026006D424C4500D1CEE139008C
:10C680002000062206F03AFBA660E5600136383449
:10C6900013941A960637B045EEDC4F46129B0D9464
:10C6A000FA1A0E920D9A0A93D21AD110CB005B1887
:10C6B00098011B18DB005B18D8031B18DB005B1804
:10C6C0005B429846099B002A00DCD8E1F0218900F2
:10C6D0001A008C466244D76892460A9A002693460E
:10C6E000F12292009446634404935B4644460C97BF
:10C6F0000393049B0C9A934268D00399B0464B88ED
:10C70000A14605935B4306930B8807938B88089398
:10C710000C9B9B460BE0C01A0834039B6200D0526E
:10C72000584609F0CBFA049B834683424CD05B46C3
:10C73000099A1C699446A3001B19DB00A0336344CB
:10C74000188807999A88081A5D88029205F008F8F7
:10C75000CE4ACF4B04F09BFF0022CE4B04F079FF72
:10C7600005F080F8060028000F00069968438C4603
:10C77000604404F0F5FF0090019105996943480079
:10C7800004F0EEFF32003B0004F081FF02000B00DA
:10C790000098019904F04BFF05F04EF804F0F8FF03
:10C7A000089A029B944663445B109842B3DC2300D2
:10C7B0000021039A08335B005846995209F07EFA2B
:10C7C000049B83468342B2D146464C46039B0136C6
:10C7D00038330393A6428CDB00230B9A1BAF1371F3
:10C7E0009360536153469868D7600023176100280F
:10C7F00013D03900FEF7B0FF03001A009B68002B2E
:10C80000FBD103001D921A00DB68002BFBD15346BD
:10C810001E925B690B9A53611C9000220A99934601
:10C8200002920D9A8A4200D1C4E0524600920D9ABB
:10C830009246002B54D00A9B1E00534500D101E1C3
:10C840000B9B3400DB68FA2599460023A0461E00A6
:10C85000AD00B9450ED048460269130008335B00AD
:10C860001B5BAB4202DA1600A0461D0009F026FA57
:10C87000B842F1D13834A245EBD14346B0461E0050
:10C88000029B9B4500D1BFE058463822310006F09C
:10C8900035FA38239C46E3445B4617935B463100E8
:10C8A0004246383B3831DA608A4507D053465A1A37
:10C8B000382A00DCD5E0300012F0B8FC38235B42A7
:10C8C0009C46E24453460B9C414620001393FFF7DD
:10C8D00009F80A9B534500D1B7E06369002BAAD140
:10C8E00053460D93009B169D9A46029B5B1B029339
:10C8F0005D451AD02E00A8465D46099FF368308832
:10C900009C00E418E40023007188B288A033FB186F
:10C91000188059809A8002F007F93C19B0343836F3
:10C9200020606160B542E9D145460A9B0D9A1E0020
:10C9300093423ED001239846099B00279946AB4677
:10C940000F9D53465B69142B00D1A5E04946002298
:10C9500000231197A63104E001332831142B23D092
:10C960001D0010000A78002AF6D1002800D0119589
:10C970009C00E418E40023004C4422004146A63207
:10C9800011703288A0334B441A8072885A80B28862
:10C990009A8002F0C9F82300A834B03303C303C45B
:10C9A000504611A9FEF792FE0D9B38369E42C8D123
:10C9B0005D46AB46099C2000FFF7A8F92000FFF771
:10C9C000E3F80B9B9C68002C09D0E068FEF702FF9F
:10C9D0002000A468142106F09FF9002CF5D15B46D5
:10C9E000002B03D05846029906F096F90A9B002BBB
:10C9F00003D018000E9906F08FF921B0F0BCBB46A9
:10CA0000B246A946A046F0BD5946320016A8FFF727
:10CA100065FD179B9B46189B02933FE73B00210057
:10CA20000B9A12A8FFF7BAFC5246099B01369B5895
:10CA3000139C9846149B1A9699460637464500DA89
:10CA40001AE62AE6002398461AE753460D93009B00
:10CA5000169D9A46029B5B1B02935D4500D049E7F9
:10CA6000A8E7382A00D029E7300006F047F925E783
:10CA700000230E930A930D931AAB0B931300F0222D
:10CA80009200944663449A46A6E6C04626E4839EF6
:10CA9000CD2A0940008066400D9B38365D46B34282
:10CAA00000D186E70D9B3836B342FBD1AB4681E718
:10CAB000F0B5DE464E465746454698230022E0B57F
:10CAC000C150083BC2500433C35889B006901804C3
:10CAD000000C9946884604F043FE0022A44B04F063
:10CAE000D6FDA44B04900591079304229B5E00267B
:10CAF0000293FA239B00019301235B429A4616E0BE
:10CB0000B421701C490004F023FB534601335A1E24
:10CB1000934152465B421A400E009246564500D160
:10CB200099E0019B013B0193002B00D10BE14246B0
:10CB300073009F5A029BBB42E2DD380004F010FEF6
:10CB40008D4A8E4B04F0A3FD0B000200049805995A
:10CB500004F07FFD04F040FE80B243083000B421B1
:10CB600068304900FF30039304F0F2FAB14200D17B
:10CB7000EEE000231C00039BFA259B463300009641
:10CB8000AD004E4699460FE00134A3456DDD683196
:10CB9000FF310800B421490004F0DAFA49450FD00A
:10CBA000013D002D00D1C4E042464B009B5ADB1BE7
:10CBB000DA179B1853409E42E6DD00240091E6E719
:10CBC0004B46B1461E0001339B46B42158464900EE
:10CBD00004F0BEFA53460D00013330D0AA452ED0E2
:10CBE00000233200FA241E00039B290093464D4681
:10CBF000A40099460EE00136B14500DC85E0481CF2
:10CC0000B421490004F0A4FA8A4515D0013C002C57
:10CC100000D193E042464B009B5ADB1BDA179B186E
:10CC200053409D42E7DD8B46481CB4214900002655
:10CC300004F08EFA8A45E9D1A9465E460D00009BB4
:10CC4000B421F01A87239B009C464900604404F0FD
:10CC50007FFAB4291CD10698FFF7E8FC09B0F0BCB4
:10CC6000BB46B246A946A046F0BD4B460C00B421D7
:10CC7000B1461E000133180049009B4604F068FAD3
:10CC80000D00B442A1D053460133A7D1A246A5E777
:10CC9000AA46B439CB17CE185E40902206998C462E
:10CCA0008B585C00581CE418009B64008850644456
:10CCB000B4219C46834670106044490004F048FA51
:10CCC000079B0820185E0818B421490004F040FAB8
:10CCD000300021837843678304F042FD264A274BC6
:10CCE00004F0D5FC224B002204F0B3FC04F074FDE8
:10CCF0005B46A083142B37D0AA45ACD0B421681C66
:10CD0000490004F025FA0E0008E75E46009BA9469C
:10CD1000F01A87239B000D009C46B4216044490013
:10CD200004F016FAB429E7D0B439CB17CE185E4018
:10CD3000B3E71349134807F02BFA8FE7124911485C
:10CD400007F026FA8AE711490E4807F021FA85E72D
:10CD5000B421701C490004F0FBF953460D00013367
:10CD600000D178E7009639E7094807F011FA72E731
:10CD700000806640441400206E861BF0F9210940B3
:10CD8000C8080210AC080210D4080210980802105B
:10CD9000E00802108022F0B54D1C8668134CFF3568
:10CDA000120514E0F8273F06BC46634443601F1495
:10CDB000DB175B0DFF187F057F0DFB1A5B00E35E41
:10CDC0000F6873431B14FB1808C1A9420DD0876973
:10CDD0000368DB194768DB199342E3DA002BE5DAD5
:10CDE00080273F05BC466344E0E7F0BDA42900204E
:10CDF000802270B54C1C8568FF34120510E0F826BF
:10CE00003606B44663440E4E4360B446DB121BB292
:10CE100063446B430E681B14F31808C1A1420DD084
:10CE2000866903689B1946689B199342E7DA002BD1
:10CE3000E9DA80263605B4466344E4E770BDC046AF
:10CE40000080FFFF0022024B1B605B609A6070470E
:10CE5000601B0020F8B5CE4647461E00234B80B528
:10CE60000700180099460D00140008F037FE204B0B
:10CE70009846002822D11F4B1800994608F02EFE34
:10CE80001D4F002826D121002A001C483E7008F0C2
:10CE9000AFF801211A4C3A0020604942404608F0A0
:10CEA000D3F800281FD00021206808F055FA01208F
:10CEB00008F0ECF9C0BCB946B046F8BD48461F6062
:10CEC00008F028FE0B4B1800994608F007FE0A4FA1
:10CED0000028D8D0042238000A4905F00FFF484640
:10CEE00008F018FECFE7084802F0FEFC7C2900207D
:10CEF0008814002080290020C039002080140020E0
:10CF0000A85A0020E81C02100809021010B50400FD
:10CF10000B00032240210448FFF79CFF034B044809
:10CF20001C6008F0AFFD10BDC05D0000842900202A
:10CF30004DD50010F0B5C64600B584B0040006F02B
:10CF40005BF9022821D0032817D0012811D12068CD
:10CF500005F028FD8F4A904B04000D0004F097FB6C
:10CF60000B008E490200009401958D48029107F054
:10CF70000FF904B080BCB846F0BD06F03DF90528B5
:10CF8000F7D8884B80001B589F4606F043F905F000
:10CF9000A9FC8A21C90505F056FC8F21C90505F0B9
:10CFA00052FC814905F03BFC05F0BEFC606106F0D7
:10CFB00031F9E06106F02EF905F094FC8A21C905EB
:10CFC00005F041FC8F21C90505F03DFC764905F0CF
:10CFD00026FC05F0A9FC206306F01CF9A063C8E755
:10CFE00006F018F9804606F015F9070006F012F968
:10CFF000060006F00FF90500404605F073FC8A2193
:10D00000C90505F020FC8F21C90505F01CFC664907
:10D0100005F005FC05F088FCB2235B006061E75079
:10D02000300004F09DFB614A614B04F030FB0022AC
:10D03000604B04F00EFB02000B0000205E4904F080
:10D04000F6FA00225D4B04F022FB04F0C5FB021C43
:10D0500080B2FF2800D9FF2223004C331A81B0236D
:10D060005B00E55085E701F05FFD0023544A80181E
:10D0700059410B008021020009068B4202D3012294
:10D08000504B5242A265E36573E723004E4A893351
:10D09000FF339A6078225A60220000214B4899326F
:10D0A000FF3210605160C8200122494900021A76FF
:10D0B0009862D962B623474A5B00E25059E706F00E
:10D0C000A9F8050006F0A6F82700060006F0A2F869
:10D0D00089373D4BFF377D608046BB606D08002D72
:10D0E00000DC0125802069004919C900400404F0D2
:10D0F0002FF82500002369357B6101333B76FF352E
:10D1000033023861AB6443463349980304F020F896
:10D11000F117730BC904E86419432F4A0023F00484
:10D1200004F064F8B6235B00E05022E706F072F8E2
:10D13000060006F06FF80500300005F0D3FB8A21E9
:10D14000C90505F080FB8F21C90505F07CFB164958
:10D1500005F065FB05F0E8FBDE235B00E05001F025
:10D16000E3FCFA2206000F000023920028000021B1
:10D1700005F032FB801979410B008021B93402009F
:10D18000FF3409068B4202D301220E4B5242226227
:10D190006362EEE6333333333333A33F6A0A00006E
:10D1A00034090210801902100080BB466E861BF005
:10D1B000F92119400070D7400000F03F0000704096
:10D1C000801A0600FFFFFF7F22220200822D00004E
:10D1D000550D000011110000C05D0000F0B5DE46E5
:10D1E0004E4645465746E0B5CC4BCD4C0600A544CF
:10D1F00001211868049307F01BFF80220368520086
:10D200005B680021804608A8069305F071FD01F0D7
:10D210008BFCC44B03915A6AF16D0290B06D914240
:10D2200000D9FEE09B6A48AC834200D2F6E080223F
:10D2300000215200200005F05BFD300037006D300A
:10D240002100FF308937FFF7A5FDFF3708AB3A7E95
:10D25000079388AB994680235B049A46B14B08AD8F
:10D260009B464346B046059315E0002A34D07B69BF
:10D27000BA689B1853453ADA01227B619B1302CCB2
:10D280005943CB179B059B0D5B1829689B12CB1844
:10D2900008C54C454ED0022A0AD0E6D97B69032A3C
:10D2A00004D139695B1A002B1DDD7B619B13E6E716
:10D2B00053467B615B46796A5B6A386A99420FD84C
:10D2C0005E46B66A864201D2994209D003233B7674
:10D2D00080230322DB00D2E77A6100220023CEE71D
:10D2E0008023DB00CBE700237B613B76F5E75346E9
:10D2F0007B617E6801F018FCFA2200230090019106
:10D3000092003000002105F067FA009A019B801816
:10D3100059410B008021020009068B4202D30122F1
:10D32000814B52427B6202233B767B693A629B13BC
:10D330000222A4E74646059B984633006933FF3333
:10D34000986CDA6C8018C1179864C904430B774A4B
:10D350001943C004002303F049FFB6235B00F050DB
:10D360003300B933FF33186A596A6E4B5A6A9142D7
:10D370004DD89B6A834248D34346D968002912D0CE
:10D380008020069A49006A4C079D511800022B68BC
:10D39000A34200DA664B834200DB664B1380023205
:10D3A00004358A42F3D101F0BFFB029B039C37682E
:10D3B000C01AA14105F096FA391C05F02AFA05F0C9
:10D3C000F1FA00225C4B04F062F90400381C0D00F5
:10D3D00005F0E8FA02000B002000290004F030F903
:10D3E00004F01EFA43464246DB6830609360049BBB
:10D3F0004146186807F00EFE89239B009D44F0BC4F
:10D40000BB46B246A946A046F0BD9142B4D1300019
:10D41000BD3008A9FF30FFF7EBFCADE7914200D02B
:10D4200005E734008022603452000021200005F01E
:10D430005FFC300021001430FFF7DAFC30002100DF
:10D440003030FFF7D5FC33003500FF20A4464C33C5
:10D450001F896135336DFF3519001A007943CB17E9
:10D4600003405B1821681B125B189A1A04C43365C9
:10D47000A542F1D1B0235B00F558304BFF209A460E
:10D48000FF236146B1469C4608AA48AC00060AE064
:10D49000534541DC6746DE173E40F3181B1208C2B5
:10D4A0000431944208D00B686B438342F0DC244B78
:10D4B000043108C29442F6D112F04CF9052103F070
:10D4C00047FE5531080005F00DFA8A21C90505F01F
:10D4D000BAF98F21C90505F0B6F91A4905F09FF987
:10D4E00005F022FA4E46706112F034F9052103F07E
:10D4F0002FFE5B31080005F0F5F98A21C90505F01A
:10D50000A2F98F21C90505F09EF90E4905F087F9AA
:10D5100005F00AFA30638AE60B4BC0E7A85A0020F0
:10D52000DCFDFFFF00400540FFFFFF7FC05D000006
:10D530000180FFFFFF7F00000000B03FFFFEFF0003
:10D540000000FFFF0080BB46FFFF000010B5024C4B
:10D550002068FFF743FEFBE784290020F8B50400AC
:10D560001D00012940D0022913D000293BD101F030
:10D57000DBFA0023374A801859410B008021020052
:10D5800009068B4202D30122334B5242A265E36566
:10D5900029E0100005F0A6F98A21C90505F053F924
:10D5A0008F21C90505F04FF92C4905F038F905F030
:10D5B000BBF9DE235B00E05001F0B6FAFA22060068
:10D5C0000F00002392002800002105F005F98019C2
:10D5D00079410B008021B9340200FF3409068B42E7
:10D5E00033D222626362F8BD03008933FF33002A1D
:10D5F00015DD1B4A00279A6078225A600200C82075
:10D60000184E9932FF32166057601976164900029B
:10D610009862D962B623154A5B00E250E3E7104AEC
:10D6200000279A6078225A600200FA200D4E993243
:10D63000FF321660576019760D4980029862D962F0
:10D64000B6230C4A5B00E250CDE70122024B524266
:10D65000C7E7C046801A0600FFFFFF7F0080BB4679
:10D6600022220200822D0000550D00001111000041
:10D6700000F8FFFF55550000962210B507489201AB
:10D68000FDF7C8F8C822064C0649D20106482160B9
:10D69000626006F07DFD0023A36010BD585A002093
:10D6A000A439002000381F1050090210836870B59B
:10D6B00004000D0016001F2B0BD80C2005F024FBD6
:10D6C000290489198160210008F0ECFAA36801336C
:10D6D000A36070BD836870B504000D001F2B0DD8CA
:10D6E0000C2005F011FBFF231B069C46654421001E
:10D6F000856008F0D7FAA3680133A36070BDC04607
:10D7000070B504680500844206D0200024680C210E
:10D7100005F002FBAC42F8D100236D602D60AB60D8
:10D7200070BDC0460C4A30B5516A446903000569B2
:10D7300001208C4207D8926AAA4205D31868C01A01
:10D74000431E9841C0B230BD8C42FCD01868C01A4C
:10D75000431E9841C0B2F6E700400540F0B5040012
:10D76000C646414B6269596A00B50069914226D3A9
:10D770009B6A834226D32568A54220D0A368AE6861
:10D78000013BA360280008F093FA0C21280005F063
:10D79000C3FA330E19D0FF2B50D0FA260027B6005B
:10D7A00001F0C2F9801979410B00802102000906BD
:10D7B0008B4202D301222D4B52422261636180BC15
:10D7C000B846F0BD9142D6D1F9E7330C632B40D86F
:10D7D000002B45D0DAB29046013B1F02244D7E213A
:10D7E0002800FDF7A1F8FF212800FDF79DF806218C
:10D7F0002800FDF799F80F212800FDF795F8002182
:10D800002800FDF791F841462800FDF78DF8280023
:10D81000F1B2FDF789F8EF212800FDF785F8FF2325
:10D82000144933408A68DB195B00002A16D09B1824
:10D830001B889800C0184000323001E03004000C12
:10D84000FA2200230021920004F0C6FF06000F0018
:10D85000A6E7C4276323FF019846BFE70A68E6E707
:10D86000012300279846B9E700400540FFFFFF7FEE
:10D87000585A0020A4390020F0B583B0040005F008
:10D88000BBFC0A38C0B2282828D8964A8300D3584F
:10D890009F4605F0D5FC0500934C7E212000FDF746
:10D8A00043F8FF212000FDF73FF806212000FDF797
:10D8B0003BF803212000FDF737F800212000FDF799
:10D8C00033F8290AC9B22000FDF72EF8E9B220008A
:10D8D000FDF72AF8EF212000FDF726F803B0F0BD90
:10D8E000824B60695A6A01212569904208D89B6A77
:10D8F000AB4201D2904203D02168091B4B1E9941D3
:10D900007B4806F045FCE9E77A4FBB68002BE5D180
:10D910007C680221200005F093F96100B860764828
:10D9200006F036FC7B68002BD8D000243B68B86832
:10D93000610040180222C91805F0E0F97B68013443
:10D940009C42F3D3CAE705F07BFC6B460A24694F7F
:10D9500046009D1D05F074FC2880B868002804D09E
:10D9600002222900801905F0C9F9013C0236002C79
:10D97000F0D1B3E75F4CA368002BAFD0EFF3108575
:10D9800072B6F0231B069C4661682068490060441B
:10D9900012F09AFEF0231B069C4662682068A1687C
:10D9A0005200604412F060FE85F31088A0680028E1
:10D9B00000D193E705F084F90023A3608EE705F01A
:10D9C0003FFC4C4A01009368002B00D186E04200E6
:10D9D0009B181A88494806F0DBFB7FE705F00CFC32
:10D9E0000500414C7E212000FCF79EFFFF21200016
:10D9F000FCF79AFF06212000FCF796FF0621200085
:10DA0000FCF792FF00212000FCF78EFF0021200090
:10DA1000FCF78AFF291C1E2D4FD8C9B257E73248A0
:10DA2000FCF790FF5AE705F0E7FB2F4B01001800C9
:10DA3000FCF77AFF52E705F0DFFB050005F0DCFBA1
:10DA4000294C7E2106002000FCF76EFFFF212000FC
:10DA5000FCF76AFF06212000FCF766FF0F2120007B
:10DA6000FCF762FF00212000FCF75EFF002D22D0B2
:10DA7000E9B263291DD82000FCF756FF310026E7E4
:10DA800005F0BAFB060005F0C5FBA368051E17DB11
:10DA90001F2B00D922E70C2005F036F93604EDB231
:10DAA00076198660210008F0FDF8A3680133A360B1
:10DAB00014E76321DFE70121DDE71E21C9B206E794
:10DAC0001F2B00D90AE70C2005F01EF9FF221206D1
:10DAD00094466B429BB263448360E3E71268430061
