:020000041000EA
:1080000000200420F7800010C3800010C5800010FD
:10801000C1800010C1800010C1800010C18000101C
:10802000C1800010C1800010C1800010C780001006
:10803000C1800010C1800010C9800010CB800010EA
:10804000CD800010CD800010CD800010CD800010BC
:10805000CD800010CD800010CD800010CD800010AC
:10806000CD800010CD800010CD800010CD8000109C
:10807000CD800010CD800010CD800010CD8000108C
:10808000CD800010CD800010CD800010CD8000107C
:10809000CD800010CD800010CD800010CD8000106C
:1080A000CD800010CD800010CD800010CD8000105C
:1080B000CD800010CD800010CD800010CD8000104C
:1080C00000BE00BE00BE00BE00BE00BEEFF30580D5
:1080D000103800BEF2EB887114FB011030FB011068
:1080E0003481001090A31AE700201F49086006C8D9
:1080F00081F3088810471D48006800282FD10DA47F
:108100000ECC002902D000F012F8F9E71849194AFC
:10811000002000E001C19142FCD11749884717496E
:1081200088471749884700BEFDE701C901C29A4246
:10813000FBD3704730FB0110C0000020601B002003
:10814000D01502100000042000000420D0150210F9
:1081500000100420001004200000000070470948AF
:1081600006F08EFE0047000008ED00E0000000D0A1
:10817000601B00203C53002071D5001069150110D0
:10818000A5D600105756000006005250ABB36053FE
:10819000F0D4011006005250861C030200D50110D5
:1081A000060052505422A29D04D5011005005250E1
:1081B000DE65F468D0150210F8B5C04606480749D8
:1081C000091A8B10C90FC91810B5491003D0044BF8
:1081D000002B00D0984710BD601B0020601B0020C2
:1081E00000000000054B10B5002B03D004490548E2
:1081F00000E000BFFFF7E2FF10BDC0460000000036
:10820000B8470020C0D2011010B50E2109F074FD4E
:1082100010BDC046F0B585B0040008F041F907284C
:1082200008D800282CD0072800D975E04B4A8000D8
:1082300013589F4664285BD0652821D108F06CF95B
:10824000C82008F071F90023E05E08F079F90223F4
:10825000E05E08F075F90423E05E08F071F906238A
:10826000E05E08F06DF90823E05E08F069F90A2382
:10827000E05E08F065F9A08908F072F908F080F96D
:1082800005B0F0BD08F030F9A081F9E708F016F963
:10829000B42160806930FF30490006F023FE208859
:1082A00000244843B421490006F01CFE2C21002381
:1082B0002B4A2C4DFF31984205D0013310C28B421E
:1082C000DED09842F9D1431C20C28B42F3D1D7E7CC
:1082D00008F0F4F8A080D3E708F0F0F8E080CFE7EA
:1082E00008F0ECF82081CBE708F0E8F86081C7E7F8
:1082F000A5890422A35E0221625E218803950A26D5
:10830000A55F194802950826A55F01950625645FBB
:10831000009409F0BDF8B3E708F0E6F80500208006
:108320002C20002300270E490E4EFF309D4206DD13
:1083300001330E608342A3D004319D42F8DC0A0071
:108340005C1C80C284429BD0A54203DD16600233D0
:108350000831EBE711002300F1E7C0469CE0011073
:10836000B01C002000FFFFFFC0D201107047C046C4
:10837000F0B55746DE4646468023C0B55B049A46B4
:108380003C4B0E000500170000249B46017E82B086
:1083900018E0002938D06B69AA689B1853453EDA6B
:1083A00001216B619B133A595A43D3179B059B0DCF
:1083B0009B1832599B12D3183351802304345B002D
:1083C0009C4250D002290AD0E3D96B69032904D119
:1083D0002A699B1A002B1EDD6B619B13E3E7534652
:1083E0006B612B6A6A6A98465B465B6A9A420FD851
:1083F0005846806A404501D29A4209D003232B7621
:1084000080230321DB00CEE7696100210023CAE756
:108410008023DB00C7E700236B612B76F5E753462B
:108420006B616B68984604F061FAFA2200230090B1
:10843000019192004046002107F0CEFB009A019B7B
:10844000801859410B008021020009068B4202D39B
:108450000122094B52426B6202232B766B69022187
:108460002A629B139FE702B0E0BCBB46B246A84617
:10847000F0BDC04600400540FFFFFF7F70B504001F
:108480000B4B0D005A6A616C006C914205D89B6AD7
:10849000834200D370BD9142FCD12900201D02F01F
:1084A000D5FC20002900203002F0D0FCF2E7C046C5
:1084B0000040054010B50400242107F029FE2000EB
:1084C00010BDC046F0B5DE46574645464E468022B2
:1084D000E0B50700C3B052000C0002A8002107F06D
:1084E00007FE381D02A902F083FC20239846B844F9
:1084F00043461A7E80235B049A46424B02AD9B465C
:1085000042AE15E0002A36D07B6BBA6A9B18534501
:108510003DDA01227B639B1302CD5943CB179B05A8
:108520009B0D5B1821689B12CB1808C4AE4253D038
:10853000022A0AD0E6D97B6B032A04D1396B5B1A75
:10854000002B1FDD7B639B13E6E753467B633B6C8D
:10855000796C99465B465B6A994210D85846806AA6
:10856000484501D299420AD003234246137680231C
:108570000322DB00D0E77A6300220023CCE78023CC
:10858000DB00C9E7002342467B631376F4E75346DA
:108590007B637B6A994604F0A9F9FA2200230090D4
:1085A000019192004846002107F016FB009A019BBA
:1085B000801859410B008021020009068B4202D32A
:1085C0000122114B52423A647B64424602231376E5
:1085D0007B6B02229B139FE7B86CFB6C0B4AC018A5
:1085E000C117430BC904B8641943C004002306F043
:1085F000C7FC786043B0F0BCBB46B246A946A04673
:10860000F0BDC04600400540FFFFFF7FC05D000099
:10861000F0B55746DE464E464546E0B507005D4B91
:108620000C005A6AF96C806CC5B0914200D9A6E082
:108630009B6A834200D29FE080220021520004A85E
:1086400007F056FD380004A9543002F0D1FB702326
:108650009946B9444B461A7E44AB9A4680235B0444
:1086600084269846CB4604AD15E0002A38D0BB5985
:10867000BA6F9B1843453FDA0122BB519B1302CDD1
:108680005943CB179B059B0D5B1821689B12CB1898
:1086900008C4AA4559D0022A0BD0E6D9BB59032AEF
:1086A00005D1802179585B1A002B20DDBB519B132B
:1086B000E5E74346BB513B00903319685868354B9A
:1086C0008C46596A88420FD89B6A634501D288421A
:1086D0000AD003235A46137680230322DB00CEE719
:1086E000BA5100220023CAE78023DB00C7E700233A
:1086F0005A46BB511376F4E74346BB517B6F039355
:1087000004F0F4F890229146FA220023009001919F
:1087100092000021039807F05FFA009A019B8018ED
:1087200059410B0080210200B94409068B4202D353
:108730000122194B524249460A604B605A460223B5
:108740001376BB5902229B1399E798239C22F85871
:10875000BA588018C117F850C904430B0F4A19437F
:10876000C004002306F00CFC786545B0F0BCBB46A5
:10877000B246A946A046F0BD914200D05CE7380061
:1087800021000C3002F062FB38002100283002F09A
:108790005DFB51E700400540FFFFFF7FC05D00002B
:1087A000F0B5DE4657464E464546E0B5037887B0FD
:1087B000002B00D1B7E0664E3188022B00D1B9E022
:1087C000962252009146914203D88BB29946002BD3
:1087D0003ED04A465F48511E4307DB0F052900D8AB
:1087E000B2E0002B00D1B1E0F02101224905016087
:1087F0004946F024F025CF1A79089B00C318C90018
:10880000C91864056D0530C38B42FCD101233B427E
:108810001ED09F43BB18F0219C00490501515C1CF0
:10882000A14515DDA40001519C1CA14510DDA4004B
:108830000151DC1CA1450BDDA40001511C1D4C4560
:1088400006DAA400053301514B4501DA9B00C15003
:10885000414B1968002966DD404B490018684D46B8
:10886000C30F1B185B105B4203930222B35E962674
:1088700001933B4B76009A460B00534404934B46BE
:1088800001339BB20593334B9B4653461C88019B97
:10889000B4219C46039F4900E019604402306843BC
:1088A00006F020FB019BB4219C468146E01B6044FE
:1088B0006843490006F016FB4B460133029098428C
:1088C00015DD4B46471EFF1A059B00244B44984676
:1088D00043462900181906F005FBB14204D2FF22D5
:1088E0005B4689001202CA500134A742F0D14B46C0
:1088F0002900E81806F0F6FAB14203D2154B194ADE
:108900008900CA50029B2900E81806F0EBFAB14230
:1089100003D2104B134A8900CA5002239C46049B81
:10892000E2449A45B1D107B0F0BCBB46B246A94675
:10893000A046F0BD1733FF33C358002B00D03FE7EC
:10894000E83001F011F9EEE7002364E700224FE779
:1089500044140020B01C0020E44700207C140020B8
:10896000E84700200000FFFF70B505000E0014006E
:1089700007F096FD01280AD0022800D070BD28001B
:10898000013CE2B2711CD03002F058FEF6E728003C
:10899000013CE2B2711C283002F0FAFAEEE7C04660
:1089A00070B52A4B2A4C002523632A4B8021A363F0
:1089B0004C23E552284B294AE363294B6264236622
:1089C0006823E552274B2570A365274B2564635028
:1089D00084232649A564E1500433E5500433E25072
:1089E000A0220433E5500433E5500433E55004334A
:1089F000E5501F4B2565A3500022B8236565E5654A
:108A00006566E5662567E2542300D422D033A3507F
:108A10002000043AA350D823E830E55001F07CF858
:108A20008A2301225B00E2500433E5500433E55011
:108A300027320C33E2500F4B0F4A1A600F4A5A602C
:108A40000F4A1A6100225A619A6170BDE8E0011074
:108A500060210020C4E0011088880800204E00003A
:108A6000E0B1FFFF11CA0800DCE00110AAAA2A0049
:108A7000D0E00110BC4A0020F4E00110881300008F
:108A800000003442002310B500210370014801F0BA
:108A90005FFD10BD6814002070B5084D040028006B
:108AA000002101F055FD28000022054901F06CFD70
:108AB000012323700023236170BDC0466814002089
:108AC0000000344370B504002830150002F04CFA61
:108AD00020002900D03002F0B1FC0B4D002128000D
:108AE00001F036FD28000022084901F04DFD012368
:108AF0002370002320002361054B00216362E830CE
:108B000001F028F870BDC04668140020000034430E
:108B1000BC4A0020F0B5D64646464F46C0B545692A
:108B20008168040082B0281C07F076F80021804696
:108B3000A060281C07F0B6F8002848D10021281CA6
:108B400007F0C6F8002809D0E06907F0CBF8051C4B
:108B5000011C404607F0BCF8002842D1A669E16834
:108B6000301C07F059F8D94DE0600A22AB5E81460F
:108B70000021301C9A4607F0ABF8002834D050464C
:108B800007F0B0F8061C011C484607F099F80028C9
:108B90003BD15346584207F0A5F8071C4946301C04
:108BA00007F096F8002800D04E46391C301C07F01C
:108BB0008FF8002800D13E1C4146C548321C01F008
:108BC000E3FC02B0E0BCBA46B146A846F0BDE0699D
:108BD00007F088F8051C011C404607F063F80028E0
:108BE000BCD0A846A560B9E75346584207F07AF8CA
:108BF0000021071C301C07F055F8002874D04846A7
:108C0000391C07F055F800286ED0404607F08CF864
:108C100000210700484607F045F8002806D0380034
:108C2000B421B430490006F05DF90F00A94B1B6870
:108C3000002B5EDD5B009846A74AA84E1168B04441
:108C4000CA0F52185210914602E00236464550D0E3
:108C500087239B009C46B42130884900C01B604498
:108C600006F040F9B439CB17C91859404945ECDC36
:108C700001219B4808F00CFCE068002107F028F86F
:108C80000200531E9A410023964E009301213000AA
:108C900002F082FB30009621A830490002F0FCFB74
:108CA000606806F01BFC904B904A06F0AEFB06F0A5
:108CB0002DFC96236060DB00984200DAC7E08C4907
:108CC0006060206906F0A8FF8A49061C06F0EAFFEA
:108CD000002800D1B6E08849301C06F0F9FF0028D2
:108CE00000D0B0E0844EAEE0504606F0FBFF061C1C
:108CF00054E700217A4808F0CBFB0023794E00228C
:108D000000213000009302F047FB30009621A8308C
:108D1000490002F0C1FB226A013A784B226299466F
:108D20008A2349465B00C95C002A00DCC9E00B2AA3
:108D300000DDABE04846D2B2D03002F099FB002112
:108D4000A06906F0C5FF002800D182E00A23E85E92
:108D500006F0C4FB02000B0006F030FB94234A46E9
:108D60005B000600D0580F0006F0B8FB0B000200B5
:108D70003900300006F049FB802306001B06CF189F
:108D8000606806F0ABFB02000B003000390006F013
:108D90001EFB06F0EBFBA061A66813F08FFAC31769
:108DA0005B0DC0184005400DC01A554B9C466044F1
:108DB00006F098FFEA21071C8905206906F043FFA9
:108DC000011C381C06F03FFF311C06F025FF06F0A1
:108DD000ABFFB4235B00984254DD1800A368E06148
:108DE000984606F07FFF414606F013FF94234A465B
:108DF0005B00061CD05806F075FF011C301C06F005
:108E000022FF06F0CFFF02000B0006F0D7FA0600A3
:108E100060680F0006F062FB0B00020039003000B2
:108E200006F0D5FA06F0A2FB60610A23ED5E280089
:108E300006F058FFE368061C6842994606F052FFA8
:108E4000071CABE62B4E226A2661013265E718004B
:108E500035E70A23E85E06F041FB02000B0006F04E
:108E6000ADFA94234A465B000600D0580F0006F086
:108E700035FB02000B003000390006F0C6FA060090
:108E80000F007DE7C343DB171840A7E74C46682275
:108E9000D034200002F0ECFAFA212000890002F020
:108EA000FBFA0B4C0021200001F052FB00222000B5
:108EB000144901F069FB01234A4613700023136132
:108EC0007FE64C466722D034E3E7C04644140020D6
:108ED00068140020E44700207C140020E8470020AC
:108EE000DCD20110882100203333EB3F333333339E
:108EF0000000A0400000B4420000F04160210020CA
:108F000000FCFFFF00003443304BF0B50025436008
:108F1000002383B00362C560040013F0CFF9B421CD
:108F2000490005F0DFFF080006F0DCFE284B656114
:108F3000A0600A20185E06F0D1FA02000B0006F0CD
:108F40003DFA9423234D5B000600E8580F0006F01D
:108F5000C5FA02000B003000390006F056FA060090
:108F600060680F0006F0BAFA02000B00300039000A
:108F700006F02DFA06F0FAFA174BA0612361FF23E1
:108F8000164C0022200000930021002301F0E8FA93
:108F90008A2620002C007600D034802101F0D8FAF7
:108FA00065222000A95D02F063FA2000642102F02E
:108FB00073FA01222000A95D02F05AFAFA2120007A
:108FC000490002F069FA03B0F0BDC0468813000002
:108FD00044140020602100200000F04168140020AB
:108FE0000323F0B5446A03702368334A9B6883B057
:108FF00093425DD1314B002563600023E56023621D
:1090000013F05CF9B421490005F06CFF080006F08C
:1090100069FE2B4B6561A0600A20185E06F05EFABF
:1090200002000B0006F0CAF99423264D5B000600EF
:10903000E8580F0006F052FA02000B003000390029
:1090400006F0E3F9060060680F0006F047FA020038
:109050000B003000390006F0BAF906F087FA1A4B17
:10906000A0612361FF23194C0022200000210093FE
:10907000002301F075FA8A2620002C008021D034CC
:10908000760001F065FA65222000A95D02F0F0F992
:109090006421200002F000FA2000A95D012202F004
:1090A000E7F9FA212000490002F0F6F903B0F0BD1B
:1090B00020009847FAE7C046098F00108813000087
:1090C00044140020602100200000F04168140020BA
:1090D000F0B5D6464F46464605000400C0B5D0352B
:1090E000280082B002F01CFA20001930FF3001F095
:1090F0003BFEBF4BE1685A6AA068914200D971E11A
:109100009B6A834200D26AE194235B00E35898464D
:1091100003F0ECFBFA2206000F0000239200404609
:10912000002106F059FD801979410B0080210200D1
:1091300009068B4202D30122AE4B5242E3602378F0
:10914000A260012B00D1F8E1022B00D16EE1002BCF
:1091500000D147E1646AA84A2368DB68934200D0E3
:109160005BE26569A168281C06F056FD0021804677
:10917000A060281C06F096FD002800D0E6E1002142
:10918000281C06F0A5FD00280AD0E06906F0AAFD1B
:10919000051C011C404606F09BFD002800D0E0E1C4
:1091A000A669E168301C06F037FD944DE0600A22A4
:1091B000AB5E81460021301C9A4606F089FD0028EE
:1091C00000D1EAE1504606F08DFD061C011C484620
:1091D00006F076FD002800D1C6E1404606F0A4FD69
:1091E00000210700484606F05DFD002806D0380043
:1091F000B421B430490005F075FE0F00804B1B68A8
:10920000002B00DC10E25B0098467E4A7E4E11681F
:10921000B044CA0F52185210914603E00236464538
:1092200000D101E287239B009C46B421308849008D
:10923000C01B604405F056FEB439CB17C91859401D
:109240004945EBDC0121714808F022F9E068002172
:1092500006F03EFD0200531E9A4100236C4E00931F
:109260000121300002F098F830009621A830490022
:1092700002F012F9606806F031F9664B664A06F0B2
:10928000C4F806F043F996236060DB00984200DAE8
:10929000180062496060206906F0BEFC6049061C47
:1092A00006F000FD002800D0EEE15D4E226A266146
:1092B00001325C4B226299468A2349465B00C95CB5
:1092C000002A00DC02E20B2A00DDC2E14846D2B2ED
:1092D000D03002F0CDF80021A06906F0F9FC00289A
:1092E00000D1DAE10A23E85E06F0F8F802000B008C
:1092F00006F064F894234A465B000600D0580F003D
:1093000006F0ECF80B0002003900300006F07DF8A2
:10931000802306001B06CF18606806F0DFF8020005
:109320000B003000390006F052F806F01FF9A0617A
:10933000A66812F0C3FFC3175B0DC0184005400DAF
:10934000C01A394B9C46604406F0CCFCEA21071C4D
:109350008905206906F077FC011C381C06F073FCB7
:10936000311C06F059FC06F0DFFCB4235B00984288
:1093700000DC55E11800A368E061984606F0B2FCF5
:10938000414606F046FC94234A465B00061CD05832
:1093900006F0A8FC011C301C06F055FC06F002FD8E
:1093A00002000B0006F00AF8060060680F0006F0E5
:1093B00095F80B0002003900300006F008F806F0BE
:1093C000D5F860610A23ED5E280006F08BFCE368A7
:1093D000061C6842994606F085FC071CC9E09142CC
:1093E00000D091E602B0E0BCBA46B146A846F0BD56
:1093F00000400540FFFFFF7F158B00104414002044
:10940000E44700207C140020E8470020DCD2011053
:10941000882100203333EB3F333333330000A04047
:109420000000B4426021002000FCFFFF8C225200AB
:109430002369A258934200D0C6E0002BD2D0B44B8F
:10944000E1695A6AA0699142CCD89B6A834201D2F1
:109450009142C7D0280002F047F80028C2D1236A01
:1094600001332362032B00DC34E10323656A23709C
:109470002B68A84A9B68934200D046E10026A64B81
:10948000EE606B60286212F019FFB421490005F00C
:1094900029FD080006F026FCA04B6E61A8600A209A
:1094A000185E06F01BF802000B0005F087FF9423FE
:1094B0009B4A5B000600D05890460F0006F00EF85D
:1094C00002000B003000390005F09FFF06006868BD
:1094D0000F0006F003F802000B003000390005F021
:1094E00076FF06F043F88F4BA8612B61FF238E4D6A
:1094F0000022280000930021002301F031F88A2681
:1095000028008021454601F023F84346D0357600F7
:10951000995D6522280001F0ABFF2800642101F06D
:10952000BBFF43462800995D012201F0A1FFFA210B
:109530002800490001F0B0FF0CE6280001F0D4FF3C
:10954000002800D04EE7022323704BE7E06906F0C5
:10955000C9FB051C011C404606F0A4FB002800D1F5
:109560001EE6A846A5601BE65346584206F0BAFB25
:10957000071C4946301C06F0ABFB002800D04E46C5
:10958000391C301C06F0A4FB002800D13E1C4146CB
:109590006548321C00F0F8FF24E75346584206F0B5
:1095A000A1FB0021071C301C06F07CFB002806D024
:1095B0004846391C06F07CFB002800D00DE65046DA
:1095C00006F090FB061CD4E703F090F90023574AFD
:1095D000801859410B008021020009068B4202D3FA
:1095E0000122534B5242E3618C235B00E358A2619A
:1095F0002361002B0EDD8A262800760001F062FF31
:109600002800227CA15D01F033FF66222800A15DC5
:1096100001F02EFF00232362E4E620009847E1E6F4
:10962000C343DB171840A6E60021424807F030FF8D
:109630000023414E002200213000009301F0ACFED7
:1096400030009621A830490001F026FF226A013A35
:109650002FE64C466822D034200001F009FFFA21A1
:109660002000890001F018FF2F4C0021200000F09D
:109670006FFF00222000314900F086FF01234A4697
:10968000137000231361ADE62649301C06F020FB61
:10969000002800D00AE6234E08E60A23E85E05F01B
:1096A0001DFF02000B0005F089FE94234A465B0073
:1096B0000600D0580F0005F011FF02000B0030002B
:1096C000390005F0A2FE06000F0025E64C46672291
:1096D000D034C1E70422D21A8A235B00E15CD2B203
:1096E000280001F0C5FE03F001F90023144A801898
:1096F00059410B008021020009068B4202D301224E
:109700000B4B5242A261E3616CE62800984721E5C9
:1097100000400540098F0010881300004414002009
:10972000602100200000F04168140020C0C62D0018
:10973000FFFFFF7FDCD201108821002000003443AE
:1097400040420F007047C046F8B54746CE4680B548
:10975000A2271F4BFF001B880500C3511D4BC418D7
:109760001C33994600239846814412F0A7FDEE5918
:10977000310005F0B7FB080006F0B4FA434620605C
:10978000E061A3630434A145EFD1002E16DD730020
:109790009B199B009846FC239B03002401279946B4
:1097A0000C353100200005F09DFB3B0003400742D3
:1097B00008D04B460C3408C5A045F2D1C0BCB94610
:1097C000B046F8BD0C3408C5A045EAD1F6E7C0465E
:1097D00044140020BC04000010B50400024906F047
:1097E00097FC200010BDC04614050000F0B5DE4611
:1097F0004E4645465746E0B587B00600039012F046
:109800005DFDFA21C90005F06DFBB54BC81805F0E8
:1098100065FE0022B34B05F0DAFD0400B0680D00D0
:1098200006F0C0FA02000B002000290005F0C6FD7A
:1098300005F09CFE061C06F0B5FAAB4AAB4B0400E3
:109840000D0005F025FE002800D141E1200029008F
:10985000A54AA74B05F02AFE002800D13AE1039C57
:10986000301C6168A66006F0D7F9A223DB00E75838
:109870006060051C380006F035FA2600011C041C47
:10988000281C06F025FA002805D0281C211C06F00B
:10989000C0F9051C70600021281C06F003FA00289E
:1098A00006D0281C211C06F0B7F9039B051C586044
:1098B000002F29DD7B1E994696235B00994500DB2E
:1098C0000AE1FF231B04002498468A4E200006F07C
:1098D00009FA291C06F0A0F906F026FA390005F06D
:1098E00001FB039A023194468B0063445A680134A9
:1098F000130C1106090C1B060B43414612020A40C9
:10990000134308C64C45E1DD039B7B491A008C4696
:10991000624493469B22D20094465C46634405937E
:1099200012F0CCFCFA21C90005F0DCFA6C4BC81827
:1099300005F0D4FD0022714B05F049FD0600A06B37
:109940000F0006F02FFA02000B003000390005F07E
:1099500035FD05F00BFE8021C905051C06F0A2F9B6
:10996000002800D1B1E0C021281C090606F0B0F99A
:10997000002801D1C0252D062168A563281C06F00A
:109980004BF9E5692060291C834606F042F906F090
:1099900009FA554A5A4B05F038FD0600281C0F00FD
:1099A00006F000FA02000B003000390005F006FD59
:1099B00005F0DCFD011C051CE061584606F072F95B
:1099C000431E98414300984601235B429C465946FA
:1099D000281CE04406F01DF9FE21400089054008DE
:1099E00006F01AF906F0A0F98146002861DDA223ED
:1099F000039ADB00D35800279A4606F073F93D4BD3
:109A0000002601900293049423E00021281C06F014
:109A10005FF9002848D0281C06F0B8F9C2B213023A
:109A20009B181B029A18190C1B0A962040008442AE
:109A30000BD2FF201B0400041206120C0340134338
:109A40000906029AA4000B43A35001364744B145CE
:109A50002ED0300006F046F9019906F0E0F8011C1E
:109A6000FE20800506F0D5F8051C380006F03AF90E
:109A7000594606F0D1F806F057F9514605F032FA8A
:109A80000C1E00DA5444291C281C06F0DCF81D4981
:109A900006F0D9F81B49051C06F004F90028B4D1DA
:109AA000FF21194B194AC0E7002300210022BCE71F
:109AB000049C059B0434A34200D031E707B0F0BCFE
:109AC000BB46B246A946A046F0BD8025ED0553E74A
:109AD0000F4EC4E60F4EC2E62C23FF339946F0E644
:109AE00018FCFFFF0017E1409A9999999999C93F8D
:109AF0009999C9BFB01C0020BC0400000088D34065
:109B00009999B93F00007F43FFFF0000FFFFFF006E
:109B1000CDCC4C3ECDCC4CBE002370B50A4E0500DA
:109B200008C02822002106F0E3FA300006F0ECFA23
:109B300004003200002106F0DBFA044B2800236009
:109B4000034B6C60636070BD140500000CE10110F4
:109B5000000080BF10B501608900401840680368AC
:109B6000DB68984710BDC046036810B59B00C0185D
:109B7000406803689B68984710BDC04630B50B7CB1
:109B80000C0085B0012B0DD001238A68A0219340E1
:109B90008622C905D2008B500323237400200021A4
:109BA00005B030BD0868002103F08CFA022323744D
:109BB00002F08CFC050002F099FE0C220023121822
:109BC0004B41802109068B4202D30122054B5242B0
:109BD00001210291044928000194009102F07AFCCD
:109BE000DCE7C046FFFFFF7F7D9B001070B50400DF
:109BF000100062602160022101F064FE13492068B8
:109C000003F05CF9002302220821206803F01CFA0B
:109C1000A368013300D070BD012008F01DF9216850
:109C20000B4B0C4DCB185A425341C2020A332A4007
:109C30001B04134311221343A022D2059446A060B3
:109C400080016044E36003614160E4E790D0030079
:109C50000080FCBFFD7F00FF30B583680400A020BA
:109C6000C00584469B01634419609A600123012169
:109C7000237485B0206803F025FA02F027FC050064
:109C800002F034FE6422002312184B4180210906A1
:109C90008B4202D30122064B524201210291054917
:109CA00028000194009102F015FC012005B030BDA0
:109CB000FFFFFF7F7D9B0010037C0200032B03D07E
:109CC0005A425341D8B27047A021C9058C468368D7
:109CD00000209B0163441B69DB01F4D413689B697A
:109CE0001B07F0D410740130EDE7C0460023037465
:109CF0007047C04610B58168027C024807F0C8FB77
:109D000010BDC046E8D20110F8B5DE4657464E46B3
:109D10004546334BE0B51C68A369DB0620D4314BC4
:109D200010259A461978002399462F4B2F4F9846B5
:109D30003A782F4EA3691D42FCD12068092A0CD81D
:109D4000531CDBB2B0543B701A0000290ED1072B14
:109D500003D1336843452CD00722A3691D42E9D0C3
:109D6000F0BCBB46B246A946A046F8BD052BF4D1CF
:109D70003379F2781B029B189B109B4614D0B421B8
:109D8000B0787378C001C0188011490005F0AAF8B6
:109D9000184B1B78002B19D15B4617489BB24A0021
:109DA00083520122154B5A544B463B70012100222D
:109DB000D3E78023B288DB019A42CDD1B379812BDE
:109DC000CAD15246803B13703970EFE70A484A0007
:109DD000835A5B4501DC9BB2E2E75B469BB2DFE75F
:109DE000B84500202B530020A55A05002A53002017
:109DF0000C4000202C53002018400020BC450020BF
:109E00002021074B1B689A691142FCD1A522202111
:109E10001A609A691142FCD140221A607047C0460C
:109E2000B84500202021094B1A6893691942FCD1DA
:109E3000A523202113600800936918401942FAD124
:109E4000034B11601870034B18707047B845002021
:109E50002B5300202A5300202021074B1B689A69AE
:109E60001142FCD1A52220211A609A691142FCD12D
:109E700025221A607047C046B8450020F0B5574605
:109E80004E46DE464546264BE0B51B6885B09A46F1
:109E90005B429B46234B52461B6856469946224BD3
:109EA0006A361B68214F0393214BFF369846214B9E
:109EB000534401935B469B1A013B0293DA452DDB29
:109EC000029B1D4D9C19B4212000490005F00AF8A1
:109ED00049007B5A9D4200DD1D000134A642F2D1AB
:109EE000A94518DA4B46E81A05F0FCFE039905F07F
:109EF000AAFE05F019FF4346188002239C46019BE9
:109F00000136E044B342D9D105B0F0BCBB46B246FD
:109F1000A946A046F0BD43461D80EEE7064DDFE7AB
:109F200054140020601400205C140020184000200D
:109F30003C3D0020D1020000E02E000070B50C0076
:109F4000E1210600164D1000C9022A6002F0B6FF9A
:109F50003000022101F0B6FC2000022101F0B2FC29
:109F6000104B2C689C466444631E9C4114342000B2
:109F70000D4901F007FE0121200001F0DDFD502216
:109F800038212B689A635A6B343311408022520176
:109F9000134300221960054B1A70054B1A7070BDEF
:109FA000B845002000C0FCBF099D00102C530020C4
:109FB0002D530020F0B5DE4657464E464546E0B5E7
:109FC000AA4CAB4B61685A6A206885B0914207D9A8
:109FD000002005B0F0BCBB46B246A946A046F0BD85
:109FE0009B6A834219D302F081FC0023A14A8018A6
:109FF00059410B008021020009068B4202D3012245
:10A000009D4B524263609D4B226003931B78052B4E
:10A01000DED89B4A9B00D3589F469142E3D1D7E7B5
:10A02000984B994F1B689A465B429B46974B52460A
:10A030001B6856469946964B6A361B68FF36029354
:10A04000944B9846944B534400935B469B1A013BB8
:10A050000193DA4500DA04E1019B904D9C19B4218B
:10A060002000490004F03EFF49007B5A9D4200DD7C
:10A070001D000134A642F2D1A94500DBEEE04B46BB
:10A08000E81A05F02FFE029905F0DDFD05F04CFE03
:10A090004346188002239C46009B0136E0449E42C2
:10A0A000D7D1002220217E4B7E4C1A7023689A69FA
:10A0B0001142FCD1A52220211A609A691142FCD1DB
:10A0C0002522FA201A60400002F024FB2021226899
:10A0D00093691942FCD1A5232021136008009369DC
:10A0E00018401942FAD1704B116018706F4B039AE7
:10A0F000187002236E48137007F0CAF968E76D48BC
:10A1000007F0C6F902F0F2FB00236B4A80185941B0
:10A110000B008021020009068B4202D30122564B1C
:10A1200052420CC401225E4B1A700523039A13702D
:10A130004EE7624807F0ACF902F0D8FB0023604A12
:10A14000801859410B008021020009068B4202D37E
:10A150000122494B52420CC40423039A137037E77F
:10A16000584F4C48B4243900BC4600230700564ED3
:10A17000454DA4000A78002A42D0EA5A002A3FD06E
:10A18000F85A90423CD9F25202330131A342F1D144
:10A190006746B42238000021520005F0A9FF4B4B5E
:10A1A000B1460427DF5F4A4B1B689B461D00002316
:10A1B00098466933FF3346469A46C84606E002236E
:10A1C0009C460136E144013556454CD04B461B8830
:10A1D000BB42F4DA5B46002BF1DD340002E00134CF
:10A1E000AC42ECD0B4212000490004F07BFE434691
:10A1F00049005B5A9F42F2DA4B46284A1A80DEE752
:10A20000264A0131F2520233A342B3D1C0E72021E2
:10A21000244B1A6893691942FCD1A52320211360AD
:10A220000800936918401942FAD11F4B1160187049
:10A230001E4B187002F05AFB00231F4A8018594128
:10A240000B008021020009068B4202D301220A4B37
:10A2500052420CC40223039A1370B9E643461D8090
:10A2600018E70E4D08E70120B3E6C046781B002032
:10A2700000400540A0860100FFFFFF7F2D53002016
:10A280001CE101105414002018400020601400202C
:10A290005C1400203C3D0020D1020000E02E0000B4
:10A2A0002C530020B84500202B5300202A530020B7
:10A2B00024D3011014D3011040420F0004D3011025
:10A2C00000093D00BC450020E84200204414002065
:10A2D000581400207047C046F0B5CE4647460400EB
:10A2E00003000D00002180B587B016000091021D0B
:10A2F00021003848083306F04DF9002804D107B092
:10A30000C0BCB946B046F0BD636827689846A368EC
:10A310000124AC409946220023004146380006F053
:10A32000D7FA220023004146380006F025FB2A4BCD
:10A330002800F9184B1E9941063101F0C3FA802319
:10A340005B0202934B464A460333D2011B0313437D
:10A35000224A052013408022D2051343204A03934A
:10A36000204B2A401343AD022B4305931E4B04930D
:10A3700003F03CF805F0B1FC041CF00005F0ADFC66
:10A38000011C201C05F04BFC051C05F0FFFC84B2F1
:10A390000023002C0ED0200005F09FFC011C281C7F
:10A3A00005F037FC8721C90505F04DFC05F0EEFCF2
:10A3B000C3B21B0224044A4641461C43380002AB88
:10A3C000029406F081FB012341468B403A68134317
:10A3D0003B6094E734E101100000E0AFFFFFFF9F16
:10A3E000FF83FFFF0000104000000C4010B5046820
:10A3F00040680122030010339A4063681A42FCD17E
:10A4000004308000015110BD0EC8064810B58446C6
:10A41000042482B061440448090D009407F038F820
:10A4200002B010BD0000E0AF34D3011010B50378C6
:10A43000282B39D006D9292B28D0642B01D107F03D
:10A44000E5FD10BD0A2B0ED0142BFAD18378C1780C
:10A450001B0609040B43017942781C4C0902920047
:10A460000B431351EDE74378002B2BD0184B1A68A0
:10A47000164995200B00C00008181A605A6008336E
:10A480009842FAD19523DB00CA50DAE78378427804
:10A490001B021343C27812041A4303791B061343A9
:10A4A0000B4A1BBA1360CCE7837842781B02134334
:10A4B000C27812041A4303791B061343054A1BBAD8
:10A4C0001360BEE7034B1A68D2E7C046B01C0020F9
:10A4D000641400209036002010B50021022001F005
:10A4E0001BFA0021022007F0C9FC10BD70B5134B08
:10A4F000134C5A6A6168050026680020914219D8F9
:10A500009B6AB34217D302F0F1F900230D4A801879
:10A5100059410B008021020009068B4202D301221F
:10A52000094B52420CC4A84796210848490007F03D
:10A530002DFD012070BD9142E5D1FBE700400540B3
:10A54000701B002010270000FFFFFF7FB01C0020C1
:10A550004268024B9B1899717047C046083800202A
:10A5600070B504AC26784568064C651929724168B7
:10A5700061184A724268A21893724368E418E6723E
:10A5800070BDC04608380020F0B546464F468846A4
:10A59000D6464549C0B506004046171C05F082FB6B
:10A5A000002853D00021404605F092FB002800D13E
:10A5B00075E0404605F0F6FB04000D00381C3B49F1
:10A5C00005F070FB00284BD1C2239A4628339946E8
:10A5D000364F374B988904F081FF0022354B04F049
:10A5E000F6FE2B00220004F010FF04F0B3FF7268A7
:10A5F000314B010A9954494672689A185070726832
:10A600009A18D17072689B1852461A7105F084FF2F
:10A61000652005F089FF84214046C90505F013FB3C
:10A6200005F082FB00B205F08BFF8421381CC905C0
:10A6300005F009FB05F078FB00B205F081FF05F09D
:10A640009FFFE0BCBA46B146A846F0BD164B0024B9
:10A650009846184D1549381C05F024FB0028B3D046
:10A660001649381C05F034FB002812D0381C05F0C0
:10A6700099FB134A134B04F0C8FE134B002204F05D
:10A680009DFE04F067FF030ADBB29946C3B29A4607
:10A690009FE73E239A46293B9946084F99E70023B6
:10A6A000002400259846D5E70000B4430000B442DA
:10A6B0004414002000807640083800200000B4C216
:10A6C000ABAAAAAAAAFA72400000E04010B502485C
:10A6D000FEF766F810BDC04660210020F8B507F00F
:10A6E00069FB08220A212648FEF7ECF90023254DD4
:10A6F000A0262B80244B254C9C46760165442000E7
:10A7000005F0F0FA224905F09EFA05F055FB2149C3
:10A7100005F099FA05F008FB2F1902343880B4428D
:10A72000EDD10E2001F008F9D02480232406DB01AE
:10A73000A362002201210E2001F0DCF80B2001F0C1
:10A74000FBF880231B016362A361134B0422196889
:10A750001248FFF74BFA052001F0EEF82023636260
:10A76000A361FFF7B9FE0E4B0D211A680C20FFF70D
:10A77000E5FBC82001F0CEFF01220A4B1A70F8BD9C
:10A7800060210020E424002000FCFFFF0204000000
:10A79000DB0FC93A00FEFF4670140020F43700209A
:10A7A000741400202D530020F8B54A4C4A4B6168C0
:10A7B0005A6A2068914226D89B6A834252D301216B
:10A7C000464A13784B40137054D0D02380221B0686
:10A7D00092045A61424B1D6802F088F8FA22060082
:10A7E0000F00002392002800002105F0F5F98019E0
:10A7F00079410B008021020009068B4202D301221D
:10A80000384B52420CC4D0231B065A6836490B6899
:10A8100052041ED5002B38DD013B0B60334B1978F9
:10A82000334B1A788A4203D03248197006F030FE52
:10A83000FFF7C0FB002834D12F48FEF749FC2F4812
:10A84000FFF754FE2E4C2000FFF736FA002821D1E6
:10A85000F8BDFA229200934212DA01330B60234BC7
:10A860001978DDE79142CED001211C4A13784B4084
:10A870001370AAD1D02380221B0692049A61A9E703
:10A8800001221A4B01211A70CAE70022174B00213E
:10A890001A70C5E7802220001A495200FFF7DCF940
:10A8A000D6E7194800F0CEF905F036FE642005F031
:10A8B0003BFE164E3368002B09DD0024144D28881A
:10A8C00005F04EFE336801340235A342F7DC05F093
:10A8D00057FEB1E7801B0020004005401E530020BA
:10A8E00078140020FFFFFF7F9437002022530020C0
:10A8F0002353002050D3011060210020CDA600106A
:10A90000F437002008380020E8420020E447002007
:10A91000E8470020F0B585B00A0001A90C00114BF2
:10A92000E0CBE0C40378452B08D00A2A04D90B22D7
:10A9300010F022FC002806D005B0F0BD411C0A48EA
:10A9400006F0A6FDF8E7094806F0A2FDFFF784FA35
:10A95000FA20400001F0DEFE07F03AFAFFF762FA53
:10A96000EAE7C04674D3011058D3011060D3011038
:10A97000B42110B50348890007F0BEF90248FDF77D
:10A9800043FC10BD3C3D0020441400200122034B39
:10A9900052429A6000221A747047C046F437002071
:10A9A000F8B504000D0005F07BFD992813D8632845
:10A9B00009D8431EDBB21D2B1AD81E2818D88C4A82
:10A9C000800013589F466438C0B2352810D8894A91
:10A9D0008300D3589F4603003833DBB2042B07D8DB
:10A9E0003730C0B203281ED8834B80001B589F46C7
:10A9F000824806F04DFD002D08D00026804FA15D55
:10AA00003800013606F044FDAE42F8DB0A2006F0BD
:10AA100013FD07E005F068FD7A4B01001A5C7A48E7
:10AA200006F036FDF8BD05F05FFD040005F038FDC9
:10AA3000744B1855F6E705F057FD04F04FFD002262
:10AA4000724B04F0E2FC04F091FD041C05F036FDAD
:10AA500004F044FD00226D4B04F0D7FC04F086FDA9
:10AA60006B4B021C211C1800FFF78EFDDAE76948CA
:10AA7000FFF73CF9D6E76748FFF73CF9D2E705F066
:10AA80000FFD8300644A1B185B001360CAE7B923FB
:10AA9000624F9B003D009C4600261435674405F03C
:10AAA0003BFD152005F040FD2C00F0B205F03CFD0B
:10AAB000143C2088023405F053FDAC42F9D1143522
:10AAC00005F05EFD0136BD42E9D1ABE7B923544F35
:10AAD0009B003D009C4600261435674405F01CFD94
:10AAE000142005F021FD2C00F0B205F01DFD143CF2
:10AAF0002088023405F034FDAC42F9D1143505F05C
:10AB00003FFD0136BD42E9D18CE7013D4548EAB23F
:10AB1000611CFDF729FF85E7B923434F9B003D00EA
:10AB20009C4600261435674405F0F6FC162005F017
:10AB3000FBFC2C00F0B205F0F7FC143C208802343A
:10AB400005F00EFDAC42F9D1143505F019FD0136C2
:10AB5000BD42E9D166E7013DE9B2601CFFF766FC42
:10AB600060E7013D3148EAB2611CFDF753FB59E74C
:10AB700005F096FC052800D954E72D4B80001B58A2
:10AB80009F4603222B4B1A704CE7FFF777F949E7F2
:10AB9000FFF748F90222274B1A7043E7FFF75CF9E9
:10ABA0000022244B1A703DE7FFF72AF93AE7FFF736
:10ABB00091FB37E706F0BAFC34E705F095FC1E4B35
:10ABC00018602FE705F090FC1C4B18602AE7154829
:10ABD000FDF762FF26E71348FEF702FA22E7114865
:10ABE000FDF750FF1EE705F07FFC154B186019E7D5
:10ABF00058E10110D4E10110ACE201108CD3011036
:10AC000094D301100838002080D301100000A03F29
:10AC100068140020F4370020781400203C3D002008
:10AC20001840002060210020E84200204414002049
:10AC3000BCE201102D5300205814002060140020A5
:10AC400054140020F0B5DE4657464E4645460022D5
:10AC5000E0B58346B4264049404B0A6004201A5EA2
:10AC60003F489C460027002415005B46006887B0DB
:10AC7000760002E00134B4426AD062009A5A013789
:10AC8000AA4200DA0027B842F4DAAA466825FF355E
:10AC90009B466346AC424BD008229B5E314A0393ED
:10ACA000B4235B0098460023002699460025A04463
:10ACB0000293049200900193059109E0002D3ED18A
:10ACC000012300279946019101350134A0452AD07E
:10ACD000B4212000490004F005F95A464B009B5A64
:10ACE0009A45EBDC0137002DEFD0009BBB422ADCFC
:10ACF000132E18DC4B46D80F019B48449C46039BFF
:10AD000040106044B4219C464900604404F0EAF8D5
:10AD1000049B751C76009953012301342E00029385
:10AD20000025A045D4D1029B0599002B00D00E60D0
:10AD300007B0F0BCBB46B246A946A046F0BD00270E
:10AD4000009BBB42D4DD01239C460125E144BCE7C6
:10AD50009B46AA4663469FE7E44700204414002030
:10AD60007C140020E84700201C4B02681B6870B56B
:10AD700004009A4225D0426893420FD1184B85684F
:10AD8000596AC068884208D89B6AAB4222D3154BE7
:10AD900022601A685B68A260E36070BD436001F0E6
:10ADA000A5FD0023104A801859410B0080210200A4
:10ADB00009068B4202D301220C4B5242A260E3608F
:10ADC000EBE7084B1A685B688260C36001235B4253
:10ADD0004360E2E78842DAD1DFE7C046E44700207B
:10ADE0000040054078E3011060E31600FFFFFF7F9D
:10ADF0008022F0B54D1C8668134CFF35120514E017
:10AE0000F8273F06BC46634443601F14DB175B0D05
:10AE1000FF187F057F0DFB1A5B00E35E0F6873432D
:10AE20001B14FB1808C1A9420DD087690368DB1900
:10AE30004768DB199342E3DA002BE5DA80273F0508
:10AE4000BC466344E0E7F0BDE4240020802270B5F6
:10AE50004C1C8568FF34120510E0F8263606B4460F
:10AE600063440E4E4360B446DB121BB263446B4333
:10AE70000E681B14F31808C1A1420DD0866903683F
:10AE80009B1946689B199342E7DA002BE9DA802682
:10AE90003605B4466344E4E770BDC0460080FFFF5A
:10AEA0000022024B1B605B609A607047601B0020B1
:10AEB000F8B5CE4647461E00234B80B50700180064
:10AEC00099460D00140007F089FF204B9846002892
:10AED00022D11F4B1800994607F080FF1D4F002814
:10AEE00026D121002A001C483E7007F001FA0121FA
:10AEF0001A4C3A0020604942404607F025FA0028E3
:10AF00001FD00021206807F0A7FB012007F03EFBBF
:10AF1000C0BCB946B046F8BD48461F6007F07AFF8E
:10AF20000B4B1800994607F059FF0A4F0028D8D05C
:10AF3000042238000A4905F0E1F8484607F06AFFA4
:10AF4000CFE7084802F0B2FBBC24002088140020A0
:10AF5000C0240020F034002080140020204800206D
:10AF600020E6011098D3011010B504000B00032255
:10AF700040210448FFF79CFF034B04481C6007F086
:10AF800001FF10BDC05D0000C424002089B3001083
:10AF9000F0B585B0040005F083FA022831D003280B
:10AFA00015D0012811D1206804F0FCFE504A514B05
:10AFB00004000D0004F029FA0B004F490200009430
:10AFC00001954E48029106F063FA05B0F0BD05F018
:10AFD00067FA022840D0032853D00128F5D101F0A8
:10AFE00085FC0023464A801859410B00802102004D
:10AFF00009068B4202D30122424B5242226563650D
:10B00000E3E705F05BFA04F06DFE8A21C90504F060
:10B010001AFE8F21C90504F016FE3B4904F0FFFD1E
:10B0200004F082FE606105F049FAE06105F046FA3D
:10B0300004F058FE8A21C90504F005FE8F21C905D8
:10B0400004F001FE304904F0EAFD04F06DFE2063D7
:10B0500005F034FAA063B8E780232C4A0021E250BF
:10B06000083BE36723002A48883318605960C820EA
:10B070000122284900029861D9611A72264BE365C2
:10B08000A3E705F01BFA050005F018FA060005F025
:10B0900015FA80231D4A0700E250E5676D08002D70
:10B0A00023DD802069004919C900400403F01AFF1C
:10B0B00088230022E0500433E25023000132783329
:10B0C0001A76A0233202E2501449B80303F00AFFB3
:10B0D000A423F117E050C904730B19430F4A00234E
:10B0E000F00403F04DFFE0656FE70125D9E7C046A6
:10B0F000333333333333A33F6A0A0000C4D3011020
:10B10000801A0600FFFFFF7F0080BB46222202005C
:10B11000822D0000550D000011110000C05D0000DF
:10B12000F0B5DE4657464E464546E0B58E4B8F4C51
:10B130000700A544012118689A4607F0F9F8802213
:10B1400003685200002106900AA85E6804F0D0FF50
:10B1500001F0CCFB864B05915A6A796D0490386DED
:10B16000914200D9F4E09B6A834200D2EDE0802254
:10B17000002152004AA804F0BBFF38004AA95C3005
:10B18000FFF736FE8AA978238B468C219C46894698
:10B190008021BC4449046346884651460AAD1A7E64
:10B1A000E2464AAC09950796089118E0002A3CD07F
:10B1B0004B468022FB58BA589B18434543DA4A460F
:10B1C000BB5001229B1302CC5943CB179B059B0D0F
:10B1D0005B1829689B12CB1808C55C455BD0022A16
:10B1E0000DD0E3D94B46FB58032A06D18821795864
:10B1F0005B1A002B21DD49467B509B13E3E74B464E
:10B200004146F9503B00983341CB594B596A8E4225
:10B2100010D89B6A834201D28E420BD00323524640
:10B22000137680230322DB00CDE74B46FA50002241
:10B230000023C8E78023DB00C5E700234A46BB5054
:10B2400052461376F3E742464B46FA50FB6F3E00F8
:10B25000039301F04BFBFA2200230090019192002E
:10B260000021039804F0B8FC009A019B8018594112
:10B270000B0080210200983609068B4202D301227E
:10B280003C4B52420CC60223524613764B46FB58A7
:10B2900002229B1397E7089BA4229A46A023BA5840
:10B2A000F858079E8018C117F850C904430B19437A
:10B2B000314A0023C00403F063FE069BF865D96899
:10B2C000002912D08020320049002C4C099D7118B1
:10B2D00000022B68A34200DA284B834200DB284B94
:10B2E0001380023204358A42F3D101F0FFFA049B45
:10B2F000059C3E68C01AA14104F0F4FC311C04F026
:10B3000088FC04F04FFD00221E4B04F07EF8040080
:10B31000301C0D0004F046FD02000B002000290047
:10B3200004F04CF804F022F906993860CB688B6081
:10B330005346186806F0EEFF8B239B009D44F0BC3B
:10B34000BB46B246A946A046F0BD914200D00EE7EA
:10B3500038000AA91430FFF779FD38000AA9303007
:10B36000FFF774FD03E7C04620480020D4FDFFFF2F
:10B3700000400540FFFFFF7FC05D00000180FFFF30
:10B38000FF7F00000000B03F10B5024C2068FFF7BF
:10B39000C7FEFBE7C4240020D0B50400002918D064
:10B3A000012900D0D0BD8023002A24DD1B4A0027BC
:10B3B000C250083BC3670300C82088331972184E77
:10B3C000184900021E605F609861D961164BE36501
:10B3D000E8E701F08BFA0023144A801859410B006A
:10B3E0008021020009068B4202D30122104B5242F7
:10B3F00022656365D6E7094A0027C250083BC36748
:10B400000300FA2088331972054E0A4980021E6033
:10B410005F609861D961084BE365C3E722220200AF
:10B42000822D0000550D000011110000801A060049
:10B43000FFFFFF7F00F8FFFF55550000962210B573
:10B4400007489201FEF748FFC822064C0649D20180
:10B4500006482160626006F01BF80023A36010BD5F
:10B46000AC470020E434002000381F10E0D3011066
:10B47000836870B504000D0016001F2B0BD80C203C
:10B4800004F042FE290489198160210007F08AFD39
:10B49000A3680133A36070BD836870B504000D001C
:10B4A0001F2B0DD80C2004F02FFEFF231B069C46FB
:10B4B00065442100856007F075FDA3680133A36032
:10B4C00070BDC04670B504680500844206D02000F7
:10B4D00024680C2104F01CFEAC42F8D100236D60FE
:10B4E0002D60AB6070BDC0460C4A30B5516A4469EE
:10B4F0000300056901208C4207D8926AAA4205D34D
:10B500001868C01A431E9841C0B230BD8C42FCD0AE
:10B510001868C01A431E9841C0B2F6E700400540C3
:10B52000F0B50400C646414B6269596A00B500692E
:10B53000914226D39B6A834226D32568A54220D018
:10B54000A368AE68013BA360280007F031FD0C2121
:10B55000280004F0DDFD330E19D0FF2B50D0FA2661
:10B560000027B60001F0C2F9801979410B00802153
:10B57000020009068B4202D301222D4B5242226166
:10B58000636180BCB846F0BD9142D6D1F9E7330C77
:10B59000632B40D8002B45D0DAB29046013B1F0206
:10B5A000244D7E212800FEF721FFFF212800FEF711
:10B5B0001DFF06212800FEF719FF0F212800FEF7C6
:10B5C00015FF00212800FEF711FF41462800FEF775
:10B5D0000DFF2800F1B2FEF709FFEF212800FEF76A
:10B5E00005FFFF23144933408A68DB195B00002AFA
:10B5F00016D09B181B889800C0184000323001E01C
:10B600003004000CFA2200230021920004F0E4FA36
:10B6100006000F00A6E7C4276323FF019846BFE793
:10B620000A68E6E7012300279846B9E7004005408D
:10B63000FFFFFF7FAC470020E4340020F0B583B06B
:10B64000040004F02DFF0A38C0B2282828D8964AF2
:10B650008300D3589F4604F047FF0500934C7E219A
:10B660002000FEF7C3FEFF212000FEF7BFFE0621EB
:10B670002000FEF7BBFE03212000FEF7B7FE0021ED
:10B680002000FEF7B3FE290AC9B22000FEF7AEFE85
:10B69000E9B22000FEF7AAFEEF212000FEF7A6FE89
:10B6A00003B0F0BD824B60695A6A0121256990425E
:10B6B00008D89B6AAB4201D2904203D02168091B93
:10B6C0004B1E99417B4805F0E3FEE9E77A4FBB68E2
:10B6D000002BE5D17C680221200004F0B1FC610060
:10B6E000B860764805F0D4FE7B68002BD8D00024E3
:10B6F0003B68B868610040180222C91804F0FEFCDB
:10B700007B6801349C42F3D3CAE704F0EDFE6B463C
:10B710000A24694F46009D1D04F0E6FE2880B868A3
:10B72000002804D002222900801904F0E7FC013C23
:10B730000236002CF0D1B3E75F4CA368002BAFD0EA
:10B74000EFF3108572B6F0231B069C4661682068F3
:10B750004900604411F06CFDF0231B069C466268B2
:10B760002068A1685200604411F032FD85F3108812
:10B77000A068002800D193E704F0A2FC0023A36096
:10B780008EE704F0B1FE4C4A01009368002B00D113
:10B7900086E042009B181A88494805F079FE7FE749
:10B7A00004F07EFE0500414C7E212000FEF71EFEC7
:10B7B000FF212000FEF71AFE06212000FEF716FEEC
:10B7C00006212000FEF712FE00212000FEF70EFEEB
:10B7D00000212000FEF70AFE291C1E2D4FD8C9B2F9
:10B7E00057E73248FEF710FE5AE704F059FE2F4B98
:10B7F00001001800FEF7FAFD52E704F051FE0500C3
:10B8000004F04EFE294C7E2106002000FEF7EEFDDE
:10B81000FF212000FEF7EAFD06212000FEF7E6FDED
:10B820000F212000FEF7E2FD00212000FEF7DEFDE3
:10B83000002D22D0E9B263291DD82000FEF7D6FDE5
:10B84000310026E704F02CFE060004F037FEA36862
:10B85000051E17DB1F2B00D922E70C2004F054FC37
:10B860003604EDB276198660210007F09BFBA368D1
:10B870000133A36014E76321DFE70121DDE71E2127
:10B88000C9B206E71F2B00D90AE70C2004F03CFCE4
:10B89000FF22120694466B429BB263448360E3E747
:10B8A000126843009B1876E7D4E20110AC470020F1
:10B8B0000040054040D40110E434002008D40110B9
:10B8C0002CD40110094A10B59446402483006344E7
:10B8D0001A68C00062408034144080225201134331
:10B8E0001C60034B9C466044416010BD04C0014095
:10B8F00000400140074B80009C4660440368C9003B
:10B9000092000A435A400C231A4080235B010343F0
:10B910001A60704704C00140064B80009C4660449A
:10B92000036809015940802330225B010A40034328
:10B930001A60704704C001400123D02283401206E0
:10B9400093629361094A40219446830063441A68D4
:10B95000C0004A40803111408022520113431960D7
:10B96000034B9C46052360444360704704C001407C
:10B9700000400140024B18688007C00F7047C04666
:10B9800000C00640EFF3108072B6034A1368002B24
:10B99000FCD0BFF35F8F70472C0100D0BFF35F8FE7
:10B9A0000022024B1A6080F3108870472C0100D0EF
:10B9B00070B5EFF3108C72B60D4D2B68002BFCD0D8
:10B9C000BFF35F8F0724CB08C618C05C01230C406F
:10B9D000A3401C000440034207D118433070BFF35A
:10B9E0005F8F2C608CF3108870BD100001F05EFE3C
:10B9F0002C0100D0F8B54746CE46884680B5EFF317
:10BA0000108C72B6214D2C68002CFCD0BFF35F8FD8
:10BA10009A422CD8D4080727055D0619012417403F
:10BA2000BC402C421FD007210127894609E0D408D9
:10BA3000055D06194C4639001440A1400C0029420E
:10BA400011D001329342F2D201204042BFF35F8F06
:10BA500000220E4B1A608CF3108800280FDBC0BC4C
:10BA6000B946B046F8BD254310003570EEE7BFF388
:10BA70005F8F00232B608CF31088012040424346E7
:10BA8000002BECD0089801F011FEC0462C0100D02C
:10BA900030B5EFF3108C72B60A4C2368002BFCD043
:10BAA000BFF35F8F072301220B409A40CD08435D0F
:10BAB00093434355BFF35F8F002323608CF31088BB
:10BAC00030BDC0462C0100D00021044B044ABFF316
:10BAD0005F8F02C39342FAD17047C046000100D085
:10BAE000800100D0044B9C4660448000BFF35F8F10
:10BAF000002303607047C04640000034044A1078B9
:10BB0000431CDBB2172B00D9102313707047C046BB
:10BB10009014002010B5064B064C82B00100009333
:10BB200018221F232000FFF765FF02B010BDC0469A
:10BB300050D401109837002001238340002904D0FD
:10BB4000034A1360034A13607047034A1360FBE71C
:10BB500080E200E000E100E080E100E001228240BC
:10BB6000034B1B6813405A1E9341D8B27047C0461E
:10BB700000E100E0024B10309B688000C058704725
:10BB800000ED00E070B50D00EFF3108672B60F4ABD
:10BB90001368002BFCD0BFF35F8F0D4B10309B68F8
:10BBA00084001B590B4A934203D09D4201D001F0FF
:10BBB00095FD074B9B681D51BFF35F8FBFF35F8FF0
:10BBC0000022024B1A6086F3108870BD240100D059
:10BBD00000ED00E0CD800010EFF3108172B60E4B47
:10BBE0001A68002AFCD0BFF35F8F0C4A10309268AD
:10BBF00080008058BFF35F8F00221A6081F31088A5
:10BC0000074B984206D02F23064A821A93429B4143
:10BC1000184070470020FCE7240100D000ED00E050
:10BC2000CD80001094140020F0B557464E46DE46F5
:10BC30004546E0B585B0060000911700EFF3108B84
:10BC400072B66A4A1368002BFCD0BFF35F8F0025E1
:10BC5000674B5D579A46002D00DAA9E06B00654CF2
:10BC600001935B199B009846A146C1444B4652463E
:10BC70009B7910361370604BB6009B6899590B1B6B
:10BC80002F2B33D95D4B994200D0ACE0019B42464B
:10BC90009C465B4B6544AD0063535A4B0232A2187D
:10BCA000043B9B1A1B05584A5B0D651913436B80B7
:10BCB000564B0121AB80FF23AB71009BEF71AB6052
:10BCC0004B460B4319004C4B9B689951BFF35F8F58
:10BCD000BFF35F8F0022454B1A608BF3108805B0CD
:10BCE000F0BCBB46B246A946A046F0BD01200A0002
:10BCF0008243D3798C46BB4231D845461300444930
:10BD00001B1B5B415943090D3D4B63533D4B0235B2
:10BD10006519043B5B1B1B053B4D5B0D2B43AA4682
:10BD20004D466B800425AC465546E044131F444401
:10BD30001B1B1B055B0D1D434B46997100999D8094
:10BD400099604946DF71334B01431360BBE75800EC
:10BD5000C01880002018C179B9422FD902000623EB
:10BD6000D356002BF3DA02932B4B61460393131D3A
:10BD70009A4604235B429C46E14450464B461B1ABC
:10BD80001B055B0D9C46204B9571984663464046CB
:10BD900003439380019B5A199200039BA418A3802C
:10BDA000029B1C4AA371009B2260E771A3608AE793
:10BDB00001F094FC002553465D574FE790880293AD
:10BDC0004005131D9A46031561469C464046D444DF
:10BDD000634604302018181AE0230005400D1B02AA
:10BDE00018430390C5E701F079FC4FE7240100D028
:10BDF000285300209414002000ED00E0CD800010B6
:10BE000000A1FFFFC414002000E0FFFF01BDFFFF01
:10BE1000AAAA00000148804701BD0000F0B5DE4637
:10BE200057464E464546E0B50C0083B0EFF3108808
:10BE300072B65D4A1368002BFCD0BFF35F8F5B4B7B
:10BE40005B499A68030010339F00D5598D4239D061
:10BE5000A5424AD0574EAA1B2F2A33D80122924618
:10BE6000824091464846544A126810400190484624
:10BE7000524A1060BFF35F8FEFF305829346002AAA
:10BE800035D0934201D001F029FC2A0053469A4351
:10BE90009068844208D175E04B005B189B00F31852
:10BEA0009868A04234D01A00062151560029F3DACE
:10BEB000844253D0019B002B26D04A46404B1A6047
:10BEC0003D4B1A60394B9B68DD51BFF35F8FBFF369
:10BED0005F8F0022344B1A6088F3108803B0F0BCE7
:10BEE000BB46B246A946A046F0BD0D00EAE72A00CF
:10BEF00053469A4390688442D6D1062010561300C8
:10BF0000002809DA0D0031E04A462C4B1A60D9E7C7
:10BF100006201856002822DB4200111889007418E8
:10BF20008A46A1689960E179D971062161569971B3
:10BF3000002925DBA488F11A640524155444091945
:10BF4000E0240905490D24022143998013181D4A54
:10BF50009B001178F31899711070ABE713005946E4
:10BF6000002914D1FF3191711749918015490A7840
:10BF70009A71164A9B1B5B415A43120D0A7099E74E
:10BF80001349E2E70620105613000028C4DA114ACC
:10BF90001149D21A083A5002400D014399800F49C5
:10BFA00052080A43DA8085E7240100D000ED00E062
:10BFB000CD8000109414002000E100E080E100E05A
:10BFC00080E200E02853002001BDFFFFAAAA000084
:10BFD00001BD0000CE14002000F0FFFF00F8FFFFBD
:10BFE00070B5EFF3058101240443EFF3108C72B6B2
:10BFF000214A1368002BFCD0BFF35F8F1F4B050055
:10C000001F4AED1A6D416A43120D1E4D8900AE683C
:10C0100052B27658A6421CD00621595691421CD0E5
:10C0200012215956914222D01E215956914220D0B8
:10C030002A2159560324914210D0134B19781A70B3
:10C040008171BFF35F8F00220B4B1A608CF3108855
:10C0500070BDAB680D4C5C50EFE70024610009191E
:10C0600089005B18FF21997109499980E5E701244E
:10C07000F4E70224F2E7C046240100D09414002023
:10C08000AAAA000000ED00E028530020CD80001097
:10C0900001BDFFFF054B064A1360064A136053605B
:10C0A0009360D36013615361936170478080808097
:10C0B00000E400E004E400E070B504000E001500A8
:10C0C000FFF71CFD0100200000F006F8A680E580C7
:10C0D000BFF35F8F70BDC046024B9C466144890030
:10C0E000016070474000003410B50400FFF706FD02
:10C0F00001002000FFF7F0FFFF232371BFF35F8FE4
:10C1000010BDC04610B50400FFF7F8FC0100200088
:10C11000FFF7E2FFFF23A380BFF35F8F10BDC04690
:10C1200010B504000120FFF7F5FC034BC3189B007A
:10C130002360BFF35F8F10BD4000003483680B485D
:10C1400010B58446614462441201090159189B18D4
:10C150005C684A680120944201D802D00020C0B235
:10C1600010BD1A680B689A42F9D8F7E7FFFFFF0F76
:10C170000A4B1968EFF3108072B60A68002AFCD0E7
:10C18000BFF35F8F1B68BFF35F8F00221A6080F3DD
:10C19000108840BF002000217047C046E04A0020C0
:10C1A000F8B5574645464E46DE46E0B598460CABD8
:10C1B0001C780DAB1B78070091469A460568002C49
:10C1C00059D1AC7B002C3BD0660029683619033E60
:10C1D00089194B78AB73002B00D1EB7300238B7064
:10C1E0004B700B702D4BE218BB6812019B184A462E
:10C1F0001A6042465A600A9A9A600B9ADA600023E3
:10C200008B704B700B706B7B9B46002B26D02200F3
:10C210006B685946A86898475B465B005B442A6890
:10C22000033B002812D058469619B070D118D35C41
:10C23000002B00D073705B460C706B735C450ED0A6
:10C24000F0BCBB46B246A946A046F8BDD3189C70C8
:10C250009119925D002A1CD15B460B706C734A46A3
:10C260004346387D00F0D6FB051E0AD10E9B002BFD
:10C27000E6D01D70E4E7660029683619033E891987
:10C28000B0E75346002BF1D12100386800F0DAFD09
:10C29000ECE75A705B460B706C73E0E7FFFFFF0F33
:10C2A000F0B5DE4657464E4645460023E0B58BB016
:10C2B0000893684B8200D45800239B46099000F0F5
:10C2C00015FB02000B006068EFF3108A72B6564649
:10C2D00001680029FCD0B246BFF35F8F21684F7B15
:10C2E0008C46002F2ED0A5685B49A9467918090114
:10C2F000894449460868496805000E00AD1A9E4108
:10C30000002E5FDD02000B00099800F083FB002384
:10C3100000229946002306920793002398466368FB
:10C32000BFF35F8F5A461A608AF310884346002B8A
:10C3300012D10028C3D10BB0F0BCBB46B246A9460F
:10C34000A046F0BD002300229946002306920793E1
:10C35000002300209846E2E7089B4946180238432C
:10C36000C047626805000E00EFF3108A72B61368CA
:10C37000002BFCD0BFF35F8F002E41DB2B0033433B
:10C3800002D02369002B56D12368D97B002905D020
:10C390001A68480041185218033A57709A7B002ACD
:10C3A00000D19F73DF73E268013FD35D0133D35542
:10C3B0005B4623616368BFF35F8F5A461A608AF356
:10C3C00010887CE7002E02D1002D00D09AE70021D2
:10C3D000604600F0B5FC4B461A685B68069207930E
:10C3E0004B469B6898464B46DB689946E368DB19E9
:10C3F000013B1B7808931B020343236100208EE757
:10C400002369002BC0D0069A079B8021521BB341A1
:10C4100009068B4202D30122104B524200210491A3
:10C420000131039149460191414620000297009154
:10C43000FFF7B6FEBCE700F059FA2A0033001218E5
:10C440004B41802109068B42E8D30122034B524223
:10C45000E4E7C04610480020FFFFFF0FFFFFFF7F0B
:10C4600010B5144C6368002B04D00A211248FFF762
:10C4700033FE10BD2300114A1021206800F07CFB20
:10C48000032000F027FA032000F02CFB03200C49C6
:10C4900000F07AFAFFF732FB0A4B9C460323237520
:10C4A000D0231B061B6860446375074B80006060E7
:10C4B000DC60DAE7DC140020E04A00203DC1001017
:10C4C000A1C200104000003410480020004870470E
:10C4D000DC140020F0B557464E464546DE46E0B532
:10C4E00085B0019310AB1B780600039300239A4696
:10C4F000984600927268EFF3108B72B61368002BA7
:10C50000FCD0BFF35F8F3568AC7B002C00D16EE0B0
:10C5100067002B683F19033FDB195A78AA73002A7A
:10C5200000D1EA73484AA118B2680901521800986C
:10C530000199106051600E9991600F99D160424647
:10C540009A705A701A706B7B9946002B00D16BE081
:10C5500022006B684946A86898474B465B004B44ED
:10C560002A68033B002856D04846D719B870D1181E
:10C57000D35C002B00D07B704B460C706B734C452A
:10C5800053D0F3681B19013B18787368BFF35F8FB2
:10C5900042461A608BF310885346002B08D10002E4
:10C5A000204305B0F0BCBB46B246A946A046F0BD4C
:10C5B000039B002B46D00E9B00200F999847030049
:10C5C0000B433FD004000D1E1ADA009A019B121B88
:10C5D000AB410092019380221206934204D30123BF
:10C5E0001A4C5B4200930194039B9A4682E773685E
:10C5F000BFF35F8F1C608BF3108801204042D0E7AF
:10C6000000F074F98022001969411206009001912E
:10C610009142E9D3E3E7D3189C70D119D25D002A87
:10C6200000D05A704B460B706C73307D009A019BA2
:10C6300000F0F0F982460028A3D02100306800F015
:10C6400001FC9EE70020ACE7FFFFFF0FFFFFFF7F2D
:10C65000F0B504000D0006267642F717C6463619D7
:10C660006F4100B584B08F4214D811D000F03EF96C
:10C6700032003B00121A8B41002B15DC002B3ED000
:10C680002000290000F070F904B080BCB846F0BD6D
:10C690008642EBD90026002700F028F932003B0043
:10C6A000121A8B41002BE9DD002302930193154BF5
:10C6B0003200009314483B00FFF70CFF0028DFDB3B
:10C6C00000239846BC46114A114F7B6A9C4504D80A
:10C6D000B96A8E42D4D99C45D2D11168EFF310804B
:10C6E00072B60B68002BFCD0BFF35F8F1368BFF3EB
:10C6F0005F8F4146196080F3108820BFE5E7002A6C
:10C70000BED0D1E771C10010DC140020E04A002047
:10C710000040054070B5060000F0E8F8FA22040079
:10C720000D00002330000021920003F055FA802311
:10C73000001969411B06994202D301200249404277
:10C74000FFF786FF70BDC046FFFFFF7FF0B5EFF338
:10C750000583CE46474680B505000C0085B0002B0A
:10C7600012D02A4A0020536AA34203D3926A0130AE
:10C77000AA4204D305B0C0BCB946B046F0BD1B1BED
:10C780005A1E9341D8B2F5E7214E02930193214BF3
:10C790000200009330000B00FFF79CFE031EE0DD5B
:10C7A00020BF7168EFF3108772B60A68002AFCD0C8
:10C7B000BFF35F8FDAB29446FF2230681A40417BA4
:10C7C00061450FD00168894651008846494690442A
:10C7D000414403398978002904D13269934209D14F
:10C7E000316107E0F1681B0A8A18013A1278DBB25E
:10C7F0009A4207D07368BFF35F8F00221A6087F3F5
:10C800001088AEE7614600F01DFBF3E700400540ED
:10C81000DC14002071C10010F0B5EFF30582D6469C
:10C820004F4646461000C0B51038EFF3108872B678
:10C83000214C2368002BFCD0BFF35F8F012319002C
:10C8400081401E4D1F006963AA461D4D29601D4D84
:10C850002E78AC463500C5402F402B4215D05346AC
:10C860005F6A194B8500EB589F4218D36246174BFD
:10C870008E43EB581670BFF35F8F0022226088F35F
:10C880001088002B06D0984704E0BFF35F8F276025
:10C8900088F31088E0BCBA46B146A846F0BD0C4B00
:10C8A00092009C46624413681360BFF35F8F0023BD
:10C8B000236088F31088EDE7280100D00040054090
:10C8C0003C70054037530020EC4A002080360020A1
:10C8D000D03F054010B5034B01001800024AFFF796
:10C8E00067F810BD245300206CD40110034B596A23
:10C8F0000A00986A596A8A42FAD170470040054096
:10C9000070B504000D00174A536A1900966A536AFD
:10C910008B42FAD13000190024184D41AB4216D891
:10C9200013D0104B2A005B6A9D4203D90D494B6A14
:10C930009342FCD3934207D10A4A02E0516A9942DA
:10C9400002D1916AA142F9D370BDA642E9D9054B43
:10C950005B6A1C005A1CEFD0012201246442E517D7
:10C960005242E3E700400540064A536A9942FCD828
:10C9700007D1044B02E05A6A914202D19A6A82427C
:10C98000F9D370470040054070B504000D00EFF387
:10C99000108672B61A4A1368002BFCD0BFF35F8F63
:10C9A000002D1BD02000FFF7E5F8164981420AD080
:10C9B0002000FFF7E7F801212000FFF7BDF8012371
:10C9C000A340114A1360114BA400E550BFF35F8FE1
:10C9D00000220B4B1A6086F3108870BD0121A14024
:10C9E0000A4BA200D5500A4B20001A788A43054909
:10C9F0001A70FFF713FA00212000FFF79DF8E5E712
:10CA0000280100D019C80010386005408036002089
:10CA100037530020F0B54F46D6464646C0B507000E
:10CA20002B4C616A0D00A66A616AA942FAD18B4259
:10CA300008D805D00120E0BCBA46B146A846F0BDF2
:10CA4000B242F7D9EFF3108A72B622480168002982
:10CA5000FCD0BFF35F8F0125BD401F491C4C8846A9
:10CA6000097889462943C9B28C4641466046087018
:10CA7000391D890065630A511849B8004350216A7D
:10CA80000020294219D0616A0800A66A616A8142C1
:10CA9000FAD18B4219D801D1B24216D8CC450BD06D
:10CAA0000B4B1F221D625D6301233A4093400C4AE9
:10CAB000136043464A461A700120BFF35F8F00227D
:10CAC000044B1A608AF31088B5E70020F5E7C046EA
:10CAD00000400540280100D037530020EC4A0020D8
:10CAE00080E200E0EFF3108C72B60A490B68002B6D
:10CAF000FCD0BFF35F8F01238340074A07481362CE
:10CB000002789A430270BFF35F8F00230B608CF3AF
:10CB100010887047280100D000400540375300209E
:10CB200070B506000D00140000291DD0002A12D097
:10CB300073688068984762006B0012195B1931684E
:10CB4000033A033B002808D08A189570C818CB5CBC
:10CB5000002B0BD10470280070BDCB189C70881876
:10CB60008A5C002A05D105702000F5E75370047037
:10CB7000F1E75A700570F7E710B583600023CCB277
:10CB800043730133426004738373C4730068421CAF
:10CB9000012C05D90133DBB2137003329C42F9D169
:10CBA000FF230B405A00D318C018002303384370EA
:10CBB00010BDC04670B505000C1E07D063000168AB
:10CBC0001B19033BCB185A78002A01D1200070BDF5
:10CBD000500080180338091800204E784870210052
:10CBE00058702800FFF79CFF310004002800FFF771
:10CBF000E1FF0600002C20D00028E7D03200210001
:10CC00006B68A86898477200630092191B1929681D
:10CC1000033A033B002808D08A189470C818CB5CEC
:10CC2000002B00D053700670D0E7CB189E70881888
:10CC30008A5C002A00D05A7004703400C6E7C046EF
:10CC4000F0B557464546DE464E46E0B50D006F004E
:10CC500001687F19033F0400C85D83B00192CA19BF
:10CC6000002850D043001B18033BCB185E78B44615
:10CC7000002E1AD1019E002E42D0E67B002E04D059
:10CC800073009B19CB18033B5D70A37B002B00D175
:10CC9000A573E57300282FD10023537003B0F0BCB7
:10CCA000BB46B246A946A046F0BD72006244033AB4
:10CCB0008A1851788846002151708946597032008F
:10CCC00001002000FFF72CFF43468246002B07D0CF
:10CCD0005B0021684344033BCB185A78002A16D1E5
:10CCE000424651462000FFF71BFF2168019BCA19ED
:10CCF000002BC2D10028CFD043001B18033BCB1818
:10CD000000219970C8E7019B002BB6D1C4E7500001
:10CD10008018033809184878834648464870587088
:10CD200041462000FFF7FCFE594680462000FFF7F1
:10CD300041FF414602002000FFF7F2FE8046CFE7A8
:10CD4000F0B557464546DE464E46E0B583B0019104
:10CD5000457B04006F0000687F19033FC15DC21965
:10CD6000002952D04B005B18033BC3185E78B446D1
:10CD7000002E1CD1019E002E44D0E67B002E04D054
:10CD800073009B19C318033B5D70A37B002B00D17C
:10CD9000A573E573002931D1002328005370617316
:10CDA00003B0F0BCBB46B246A946A046F0BD720037
:10CDB0006244033A821850788046002050708146C1
:10CDC000587032002000FFF7ABFE43468246002B2E
:10CDD00007D05B0021684344033BCB185A78002AF4
:10CDE00017D1424651462000FFF79AFE019B0100F1
:10CDF0002068C219002BC0D10029CDD04B005B1890
:10CE0000033BC31800209870C6E7019B002BB4D1E8
:10CE1000C2E750008018033809184878834648460E
:10CE20004870587041462000FFF77AFE5946804608
:10CE30002000FFF7BFFE414602002000FFF770FE12
:10CE40008046CEE770B5050000292CD0437B8B428D
:10CE50002ED04C0000686418033C0419A278002A04
:10CE600021D053009B18033BC25CC6188A4202D1F2
:10CE70001BE0002A08D053009B18033BC3185A78C4
:10CE80008A42F6D162785A70002301222800A370EA
:10CE90006370FFF7D5FE697B02002800FFF740FEB4
:10CEA0006873012000E0002070BD63783370EBE709
:10CEB00001221900FFF7C4FEF2E7C046F8B5CE46DE
:10CEC0004746040080B506200D0000F08FFA061ECC
:10CED00053D0534B5349E3185A1E934180221204F6
:10CEE00094465B429B0D504A9B05634413604F4A36
:10CEF000136018008A689043FBD1494B4C4AE318F1
:10CF000059424B4180215B0049000620995200F0B4
:10CF10006DFA2900C00002F00DF8C30932D1402299
:10CF2000012190466162A362266BF30736D4270085
:10CF30008025E36A00232C376D013D432B600620DA
:10CF4000266300F053FA4146800001F0F3FF236BA3
:10CF500006009846DB073BD46023E26A5A400E3352
:10CF600013402B6043462363802310229B013B43E5
:10CF70001A60304B23630323A3643000C0BCB9465E
:10CF8000B046F8BD2C4A93423FD900232B492C4A86
:10CF90006162A362266B9046F307C8D52200C023C6
:10CFA00030329B011343234A06201A60656AA36A44
:10CFB000AD01ED1800F01AFA224901F0BBFFAD02F5
:10CFC0000100280001F0B6FF0021FFF799FCAEE751
:10CFD0002200C02330329B011343164A06201A60F8
:10CFE000636AA26A9B019946914400F0FFF94B469F
:10CFF00014499B02994601F09DFF0100484601F04B
:10D0000099FF0021FFF77CFCA6E77F229901884663
:10D0100002400132520819009044130082E7C046D2
:10D020000080FCBF00C0004000E0004000F0004075
:10D030001453002001030000FEFF0000FFFF00006A
:10D04000C0FF3F004E0E00000539013AF8B5D2008E
:10D050004C0105001443002B06D0013B5A425341BA
:10D060009B00234302241C432E6BF3070BD46E2238
:10D07000EB6A290063401A4080232C315B010B438B
:10D080001A602E63F8BD2A00C02330329B0113437F
:10D090000A4A06201A606F6AAB6ABF01FF1800F0E7
:10D0A000A5F9074901F046FFBF020100380001F071
:10D0B00041FF0021FFF724FCD9E7C046010300002F
:10D0C0004E0E0000F8B5056B04000E00EB070BD404
:10D0D0000121E36A22007340194080232C325B0156
:10D0E000134319602563F8BD0200C02330329B0151
:10D0F00013430A4A1A60476A836ABF010620FF1871
:10D1000000F074F9064901F015FFBF020100380074
:10D1100001F010FF0021FFF7F3FBD9E70103000046
:10D120004E0E000010B50C2082B000F0B7F9FEF7EB
:10D1300021FC002810D08B4B8B488B498B4A186000
:10D1400059609860D960186159619861D961186215
:10D1500059625A6202B010BD854CA06700F0F4F924
:10D160000122844B1A60636C012BFCD10322824B99
:10D170001A607F4A936B012BFCD1013301217F4A56
:10D180007F480093043300F037F905237D4A00936C
:10D1900001217D4800F030F97C4B5A68FF2A02D803
:10D1A000802252005A608022734B6E4C12011A602A
:10D1B0002169002907D0606901F0BCFE01304300FD
:10D1C0001B18033BFDD2E022704B714819680A40DE
:10D1D000026002221968514001320A4004210260B3
:10D1E0009A681142FCD080216A4A090111608022AC
:10D1F00052005A60684B2361684B5968FF2900D878
:10D200005A60032201215B4B1A60644A93681942F9
:10D21000FCD0E023106803406148036012680323D8
:10D220004A40022113405D4A036093681942FCD0D2
:10D2300080215C4B0901196080215B4B49005160E2
:10D2400063615A4B5A68FF2A00D859608022584BB4
:10D2500012011A60E169002907D0606901F06AFED5
:10D26000013043001B18033BFDD2E0234F4A1168F5
:10D270000B4050490B6080214F4B09011960802100
:10D28000394B49005160E3614C4B5A68FF2A00D882
:10D29000596080224A4B12011A60216A002907D086
:10D2A000606901F047FE013043001B18033BFDD2CB
:10D2B000E023424A11680B4042490B608021424BF7
:10D2C0000901196080235B0053608022264BD20243
:10D2D00023623E4B5968914200D25A6080223C4BF7
:10D2E00012011A60616A002907D0606901F022FE0C
:10D2F000013043001B18033BFDD2E023334A116881
:10D300000B4034490B608021334B090119608023A5
:10D31000DB025360154B6362304B5A68FF2A02D818
:10D32000802252005A6080222D4B12011A60A1699E
:10D33000002907D0606901F0FDFD013043001B1892
:10D34000033BFDD2E023254A11680B4025490B60C1
:10D350008021254B0901196080235B005360124B2B
:10D36000A361F7E6881B0020006CDC021BB70000FD
:10D37000008000403CB0004030B00040002F6859B1
:10D3800000800240008C864700C002403080004090
:10D390003090004030A00040001BB7003C800040AF
:10D3A0003C9000403CA0004040597307548000402E
:10D3B00054B000405490004054A0004060800040B1
:10D3C00060B000406090004060A000406C80004071
:10D3D0006CB000406C9000406CA000404880004061
:10D3E00048B000404890004048A00040014B8000F9
:10D3F000C0587047881B0020F8B5040022481E0062
:10D4000017000D0001F096FD0100380001F092FDBB
:10D41000069B36041B031E432368002B22DB1B4B99
:10D420001B49E3185A1E93418022920194465B42A5
:10D430001B0B184A1B0363441360174A13601F0039
:10D440008A689743FBD1C022231D92011A432123EE
:10D450002560A06013602368002BFCDA0823E660D7
:10D460001360F8BD3F2322681340AB42D7D1A368B5
:10D470001B051B0D8342D2D1EE22E368D20213407A
:10D48000B342CCD1EDE7C046001BB7000040FDBF62
:10D4900000C0004000E0004000F000408023024A4D
:10D4A0009B000343D36270470080054010B5802481
:10D4B0001C4BE4051C6000281AD001231A4C1843A9
:10D4C0001A4BDC611A4C44401C62596298628021FC
:10D4D000144BC9051960174817490860E021C904B1
:10D4E0001960002A07D18022144B12061A6010BD61
:10D4F0000E4BD861EBE753019B1A9B009A188023CF
:10D5000012015B049A4209D213000D490B60074BCC
:10D510005A608022094BD2051A60E8E7094B1A00CD
:10D52000F3E7C04600B00540D3C007B00080054017
:10D530002D3FF84FFCFF01000820014000A00540EE
:10D5400064470020FFFFFF00AA23064A1B01136067
:10D550002F230549D360054B19605368002BFCDA73
:10D560007047C0460040024000B0FA000060024030
:10D570002C4B2D4A70B51A602C4A2D4B2D491A6040
:10D5800014008B689C43FBD12B4D2C4EB54208D226
:10D59000013E761BB60808CD984723000134B342FC
:10D5A000F9D1FFF7BFFD264A214B1A60214A936843
:10D5B000DB43DB01DD09002BF9D14022214B224C5A
:10D5C000224E9A675A671A67DA66B44208D223680D
:10D5D0002000002B20D00834FEF794FDB442F6D38F
:10D5E0001B4C1C4EC022B168200002F087FDB460C5
:10D5F000FEF76AFAFEF74EFDFEF732FF164C174EA5
:10D60000B44208D2013E361BB60808CC98472B001E
:10D6100001359E42F9D170BD0834FEF765FDB44274
:10D62000D5D3DDE700E00040BFCDFBFEFE7F3C0030
:10D6300000F0004000C00040381B0020481B0020C4
:10D64000FFFFFF0100F00140281B0020381B0020D5
:10D650000000002000ED00E0481B0020601B0020BF
:10D6600000BEFDE7094A03001068002805D00849FC
:10D67000C3188B4207D81360704706480449C31883
:10D6800010608B42F7D901204042F5E7203D002091
:10D69000000004203C53002000207047012040423D
:10D6A0007047C04610B5FFF7DBFFC0460FB400B5AA
:10D6B000084883B002F0C6FD049B002B07D005A9E3
:10D6C0001800019101F0B6FB034802F0BBFD0120F8
:10D6D000FFF7C6FF90D40110A0D4011010B5014887
:10D6E000FFF7E4FFA4D401109A4200D28854704797
:10D6F0007047C046F8B55746DE464E464546E0B54B
:10D7000099460A9B07009A460D9B884693460B9CB8
:10D710009B073BD10C9B9C423DD21E1B0B941500DA
:10D720000C005E442A004B46013521002020B847FA
:10D73000B542F7D1A0460B9C002C20D045463619A7
:10D740005346321B013C185D29004B46B847002C5C
:10D75000F6D12B00350098460D9B9B070FD55B46F5
:10D76000EC1A0C9BA3420AD9464698462A004B461F
:10D77000310020200134B84701354445F6D3280054
:10D78000F0BCBB46B246A946A046F8BD160015003F
:10D79000002CD3D1E0E71600002CCFD11500EEE726
:10D7A000F0B54F464646D646C0B584B098460EAB57
:10D7B0001B7894469946129B0D9C109F119E9A07C8
:10D7C00025D4002E65D1BC4221D201221A409246B6
:10D7D000202C00D1E9E00C9A551E302202E0202CCA
:10D7E00000D17BE001342A55A742F8D85246002ADE
:10D7F0000DD0B4420BD20C9A551E3022202C02D1EF
:10D8000071E0202C2DD001342A55B442F9D1DA062A
:10D810003CD55A052ED4002C28D10F9A102A00D1BD
:10D82000B6E0022A00D1BCE030220C9C2270012418
:10D830004A46002A65D15A0700D499E02B220C9D54
:10D840002A55013403930C9B62460093029643468B
:10D850000194FFF74FFF04B0E0BCBA46B146A846BA
:10D86000F0BD2024DA06EDD55A0503D4A74266D0D0
:10D87000B44264D00F9A102A71D0022A57D0202CBB
:10D88000E0D02200013430250C9FBD54202CD9D08B
:10D89000CEE7012215001D40AA461A4236D04A465C
:10D8A000002A4AD10C321A4247D1BC42A1D2202CC4
:10D8B00091D1202E17D82024DA06C3D55A051BD4BF
:10D8C000202F01D0202ED5D11F220F9D102D6FD0DB
:10D8D000022DD8D162250C9FBD54D0E75246002AB4
:10D8E00079D0202EBDD92024DA06ABD55A0503D431
:10D8F000202FE9D0202EE7D00F9A102AA2D1202481
:10D90000A0E72D220C9D2A5501349BE7BC4200D391
:10D910007DE7202C00D05EE7DA06F0D55A05EED47C
:10D92000202F62D0202EEAD134001F22CDE7202CF8
:10D9300000D187E722000134CCE7013EB5E7621E43
:10D94000012CC2D10F9A102A00D06AE79A063BD563
:10D9500058220C9C2270283A6270022468E79A06CA
:10D960000ED4202CCBD078220C9D2A55013486E78A
:10D970001A0700D466E720220C9D2A55013461E77E
:10D98000202CBCD058250C9A12191570013476E75A
:10D990009A0608D558220C9C22703022627002240C
:10D9A00046E76032F7E77822F5E7002A83D1B3E74C
:10D9B000A21E013C9D0603D478250C9FBD5460E750
:10D9C00058250C9FBD545CE778220C9C2270483A85
:10D9D000627002242CE7DA0600D433E75A058BD4B0
:10D9E000202F00D044E71F226FE73C001F226CE786
:10D9F00010B5002800D110BD02F0D8FBFBE7C046EF
:10DA0000F0B557464E464546DE46E0B599B08246EB
:10DA1000894690460893229A239B1000190001F032
:10DA20004AFD002800D0CDE0229823990122D94B4D
:10DA3000524201F03BFD002800D0C3E02298239918
:10DA40000122D54B524201F023FD002800D0B9E05D
:10DA5000229823990022002301F01AFD002800D00B
:10DA6000F1E1229E239F8023269ADB001A400D922B
:10DA7000269A1A4201D1062324938023269A1B0159
:10DA80001A403B0093460996334300D0B3E0002A86
:10DA900000D0C2E1002300240A930B940023042544
:10DAA0000993259B0024AB4200D95C1B0223269AD4
:10DAB0001A400C92269A134203D06B426B415B4290
:10DAC0001C40099B002B07D00A9A0B9B30003900A1
:10DAD00001F07DFC06000F0022982399002200230C
