:020000041000EA
:1080000000200420F7800010C3800010C5800010FD
:10801000C1800010C1800010C1800010C18000101C
:10802000C1800010C1800010C1800010C780001006
:10803000C1800010C1800010C9800010CB800010EA
:10804000CD800010CD800010CD800010CD800010BC
:10805000CD800010CD800010CD800010CD800010AC
:10806000CD800010CD800010CD800010CD8000109C
:10807000CD800010CD800010CD800010CD8000108C
:10808000CD800010CD800010CD800010CD8000107C
:10809000CD800010CD800010CD800010CD8000106C
:1080A000CD800010CD800010CD800010CD8000105C
:1080B000CD800010CD800010CD800010CD8000104C
:1080C00000BE00BE00BE00BE00BE00BEEFF30580D5
:1080D000103800BEF2EB88716CD7021088D70210FE
:1080E0003481001090A31AE700201F49086006C8D9
:1080F00081F3088810471D48006800282FD10DA47F
:108100000ECC002902D000F012F8F9E71849194AFC
:10811000002000E001C19142FCD11749884717496E
:1081200088471749884700BEFDE701C901C29A4246
:10813000FBD3704788D70210C0000020581C0020D5
:1081400040F30210000004200000042040F302105D
:1081500000100420001004200000000070470948AF
:1081600011F052FE0047000008ED00E0000000D0D2
:10817000781C002070F90020C9840110CDDC0110AA
:10818000FD8501105756000006005250ABB36053F6
:1081900090AC021006005250861C0302A0AC0210E4
:1081A000060052505422A29DA4AC02100500525069
:1081B000DE65F46840F30210F8B5C046064807498A
:1081C000091A8B10C90FC91810B5491003D0044BF8
:1081D000002B00D0984710BD581C0020581C0020D0
:1081E00000000000054B10B5002B03D004490548E2
:1081F00000E000BFFFF7E2FF10BDC0460000000036
:1082000034EE002078A9021010B50E2116F026F9E0
:1082100010BDC046F0B585B0040014F01FFD07285E
:108220001CD8002818D0072803D84D4A80001358BE
:108230009F4614F037FD4B4B20802C240100002575
:1082400018680023484EFF34994200DC7BE09A0016
:1082500001338650A342F7D105B0F0BD64285DD04C
:108260006528F9D114F036FDC82014F03BFD002339
:10827000E05E14F043FD0223E05E14F03FFD0423B2
:10828000E05E14F03BFD0623E05E14F037FD0823AA
:10829000E05E14F033FD0A23E05E14F02FFDA089A8
:1082A00014F03CFD14F04AFDD6E714F0FBFCA0816D
:1082B000D2E714F0E1FCB42160806930FF3049005E
:1082C00011F0D4FD208800254843B421490011F065
:1082D000CDFD244B2C211C680023234E8700FF3149
:1082E000984206D09A000133A5508B42B4D09842F0
:1082F000F8D1431CE6518B42F2D1ADE714F0BCFC3F
:10830000A080A9E714F0B8FCE080A5E714F0B4FC65
:108310002081A1E714F0B0FC60819DE7A5890422CB
:10832000A35E0221625E218803950A26A55F0F489D
:1083300002950826A55F01950625645F009415F057
:1083400059FC89E713009A0085505A1CA24200D1BB
:1083500082E79142F6DD92008650023374E7C04610
:10836000C4B802106015002000FFFFFF78A90210BA
:10837000F8B5B8235B00C7580400806913F068FFA4
:10838000CE21890513F015FFB6235B00061C391CAE
:10839000E05813F0F4FE011C301C13F00AFF391CE6
:1083A00013F0F0FE13F076FF13F052FF8221C9059F
:1083B00013F0FFFE13F06EFF8721C90011F056FD88
:1083C0001E4D890048591E4AC117430BC904194361
:1083D000C004002311F098FD2200210080255132B5
:1083E000FF3239345769174ED0603831FF342D05CC
:1083F00015E0F8231B069C46604410610314C01767
:10840000400D1B185B055B0D1B1A5B00F35E0868D3
:108410007B43DB13C31808C1A1420DD0D068936918
:10842000C0181369C018A842E3DA0028E5DA8023EF
:108430001B059C466044E0E7F8BDC046C0A2002092
:10844000C05D0000A0B300207047C0467047C04622
:108450007047C0467047C046F0B5C6460D000400E0
:10846000816800B52868160013F08CFE2860A768A4
:1084700080460021381C13F0CBFE00282BD10021B0
:10848000381C13F0DBFE00280AD0206913F0E0FE50
:10849000071C011C404613F0D1FE002800D02F60BD
:1084A000E168306813F06EFE3060E468051C00215E
:1084B000201C13F0C3FE002819D0174B0A20185EA9
:1084C00013F0C6FE011C281C13F0B0FE431E984199
:1084D00080BCB846F0BD206913F0BAFE071C011C31
:1084E000404613F095FE0028DAD02F60D8E700212F
:1084F000201C13F08DFE00280CD0074B0A20185EBC
:10850000404213F0A5FE011C281C13F087FE431EF9
:108510009841DDE70020DBE73C1500200420704790
:1085200070B50400180013680D00E3600B68236148
:1085300011F0B4FF02000B000020184911F017FFE2
:1085400012F00CF80023A060636021F097F93C2141
:1085500011F08CFC04981E390A304843142111F0A4
:1085600085FC2D68B43006000D49281C13F050FE20
:10857000002809D0300013F06BFE291C13F002FE16
:1085800013F088FE606170BD300013F061FE011CC5
:10859000281C13F0F4FD13F07DFEF3E700002440E7
:1085A00000003443F8B5CE464746804680B51800F3
:1085B0001600894611F072FF4B4B04000A20185E2A
:1085C0000D0011F06BFF02000B0011F0C7FE00223E
:1085D000464B11F0EAFE2B00220011F0C8FE11F00C
:1085E000BDFF4346D860071C0021306813F026FE0B
:1085F000002805D080231B069C4643466744DF6065
:10860000089B9C465800604440000F3013F020FE49
:108610003749061C13F0FCFD002860D03549301C9A
:1086200013F00CFE00285CD043465E6021F026F972
:10863000C3179B0DC0188005800DC01A11F02EFFC6
:1086400000222D4B11F0B1FE00222C4B11F0ADFE9B
:108650000022294B11F082FE4346060058680F00A5
:1086600013F07EFE02000B003000390011F09DFE79
:1086700011F02CFF060021F001F9C00700D5764269
:108680004B461F68300013F0E3FD391C13F07AFDF0
:1086900013F000FEB4235B0098421CDD1800434633
:1086A000186113F0D5FD391C13F069FD144913F05E
:1086B00080FD13F055FE02000B0011F04FFE2B0061
:1086C000220011F054FE11F049FF43469860C0BCEF
:1086D000B946B046F8BDC343DB171840DFE7044E88
:1086E000A2E7044EA0E7C0463C150020000024404D
:1086F00000009642000070410000E03F0000503F43
:108700000000204110B5040021F0B8F8962149007E
:1087100011F0ACFBA423C8315B00E15021F0AEF8AE
:108720000F2111F0A3FB2C31080013F091FDB623AB
:108730005B00E05010BDC04610B5040021F09EF86B
:10874000962111F093FBA42314315B00E15021F03A
:1087500095F81E2111F08AFBB22369315B00E150CC
:1087600021F08CF80C2111F081FBB42301315B0066
:10877000E15021F083F8142111F078FB080011F08A
:108780008DFE0022124B11F0E9FD11F0E7FEBC2333
:108790005B00E05021F072F8C217920D83189B0520
:1087A0009B0D981A13F054FD0A4913F002FDEA21BB
:1087B000890513F0FEFC13F0D3FD074A074B11F0B7
:1087C000CDFD11F0CBFEBA235B00E05010BDC046DA
:1087D00000002E40E2AE5E3F9A9999999999B93F6F
:1087E00010B5040021F04AF8E121490011F03EFBE8
:1087F000A42332315B00E15021F040F80A2111F04E
:1088000035FBB22352315B00E15021F037F80621ED
:1088100011F02CFBB42301315B00E15021F02EF864
:10882000052111F023FB080011F038FE0022124B45
:1088300011F094FD11F092FEBC235B00E05021F09A
:108840001DF8C217920D83189B059B0D981A13F003
:10885000FFFC0A4913F0ADFCEA21890513F0A9FCDD
:1088600013F07EFD064A074B11F078FD11F076FEFD
:10887000BA235B00E05010BD00001440E2AE5E3F42
:108880009A9999999999B93FDC2110B5040049004A
:1088900013F074FF200010BDC02110B50400490082
:1088A00013F06CFF200010BDC02110B5040049007A
:1088B00013F064FF200010BDBC2110B50400490076
:1088C00013F05CFF200010BDF0B5CE4600B50700E8
:1088D00082B0894681684068160013F053FC7860C6
:1088E00013F03EFD02000B0011F038FD00222F4B6B
:1088F00011F02BFD04000D0000222D4B11F055FD51
:1089000022002B0011F051FD0022294B11F026FD11
:108910000400F8680D0013F023FD02000B00200096
:10892000290011F042FD11F019FE3060786813F053
:1089300017FD204A204B11F038FD11F031FE3E6941
:1089400000900191786913F083FC311C13F017FC3F
:1089500013F006FD009A019B04000D00002013494E
:1089600011F0F3FC0022124B11F01FFD02000B006E
:108970002000290011F019FD0400301C0D0013F037
:10898000EFFC02000B002000290011F0E7FC11F0C1
:10899000E5FD4B46FE2118607868890513F04EFC12
:1089A000431E984102B080BCB946F0BD0000F03FC4
:1089B0000000E03F6E861BF0F9210940F0B5454606
:1089C000DE4657464E46E0B5836A05008BB0002B65
:1089D00005D1C54B696B5A6A006B914242D92B0095
:1089E00028335B7D002B41D1C04BA86B1E88002E25
:1089F00031D0BF4B1C6813F07FFC9623C0B202023B
:108A0000121812021218701E12025B00984201DB4B
:108A10002C20FF306307DB0F062E00D8ACE2002BC2
:108A200000D1DFE1012622600121594009189B0095
:108A30004D08E318ED00ED181A605A6008339D42A6
:108A4000FAD101230B4206D099438B199900625049
:108A5000984200DD74E00BB0F0BCBB46B246A946BC
:108A6000A046F0BD9B6A834200D239E1402399467B
:108A7000A9444B469D4A1B7B90461688002B76D016
:108A80006A6C9046032B00D1B0E100D93AE1012B8A
:108A900000D10FE21000AB6C704319009B4611F03F
:108AA000E5F9B31042D0924A962712680400924624
:108AB000721002927200921992100392C2180492DC
:108AC0005A46AB4655469A467F0005923100200033
:108AD00011F0CCF9B94203D2FF2389001B064B5198
:108AE00053463100181911F0C1F9B94202D20023DE
:108AF00089004B51029B3100181911F0B7F9B942A6
:108B000003D2FF2389001B064B51039B3100181928
:108B100011F0ACF9B94202D2002389004B51049BF9
:108B20000134A342D2D1059B5D469B4643460133A7
:108B30006B64D84500DA8EE700234A4613738AE750
:108B40006418991C6260884200DA84E7D91CA2602C
:108B5000884200DA7FE7191DE260884200DA7AE78E
:108B600005332261984200DA75E7626173E7962364
:108B7000341C5B009E4200D9B0E007AF3A005D4B69
:108B8000A4B203CB03C21B7813702B69082B42DC01
:108B9000002C00D15FE7564B0021A20018689946CF
:108BA00013F0D8FD6869BE79F9793A7AC70F3F1892
:108BB000514D52487F10405901285AD0002C00D105
:108BC00049E74B4B360699464D4B09049A464346B6
:108BD0000E4312021643B04600251E0005E0414632
:108BE000D1500135AC4200DC35E76B005B19180150
:108BF000C01A2100C00011F039F90223F15E3A00D9
:108C0000411A50460AF08AFA4A46AB001268002818
:108C1000E5D1D050E5E7AB690133AB61002C06D05C
:108C2000334B00211868A20013F094FDAB690722B2
:108C30000133D9170A40D218AB610123D110D20FEA
:108C400089180B409B1A0133DBB268695A00D218AD
:108C5000BE5CBA18C70F3F18274D284851784059B5
:108C600092787F100128A9D1002C00D1F3E6204B87
:108C70009946330609040B43120213430293204B17
:108C800000259A46BB4607E04B46029A1B68DA511C
:108C90000135AC4200DCDEE66B005B191801C01A3E
:108CA0002100C00011F0E2F8434602269E5F5A46BA
:108CB000861B310050460AF031FAAF000028E3D19C
:108CC00031005A465046B4310AF028FA4B461B6828
:108CD000002800D188E0029ADA51D9E71C1C4CE741
:108CE000914200D0C2E67AE6004005403C150020E3
:108CF00060150020B8BA0210A4790000701E002090
:108D000010980020042B6AD1100011F0C7FB9E4A76
:108D10009E4B11F04AFB00229D4B11F028FB11F0F5
:108D20003FFC00229B4B11F019FB00229A4B11F0E3
:108D30003CFB11F0CBFBFF21404311F097F8002ED4
:108D40003CD0964B711E1F68962302065B00994229
:108D500000DB03E17B07DB0F062E00DC12E1002BBA
:108D600000D106E10124A4463A6001245C40641865
:108D70009B006608FB18F600F6181A605A60083364
:108D80009E42FAD10123234218D09C43230063441E
:108D90009C003A518B4211DA3F199C1C7A60A14227
:108DA0000CDBDC1CBA60A14208DB1C1DFA60A1428E
:108DB00004DB05333A61994200DB7A610022784B8B
:108DC000C1B21C682368009220009E680023B0474F
:108DD000236880215B68200098476B6C9846AB6CD9
:108DE0009B46A3E600261FE6D85151E7100011F07C
:108DF00055FB654A654B11F0D8FA0022644B11F01F
:108E0000B6FA11F0CDFB0022624B11F0A7FA002256
:108E1000614B11F0CAFA11F059FBFF21404311F0E8
:108E200025F8002E3FD05D4B01041F68FF231B0473
:108E300019409623721E5B009A4200DB8BE07B0791
:108E4000DB0F062E00DC9BE0002B00D18EE001241E
:108E5000A446396001245C40A4189B006608FB18F6
:108E6000F600F6181960596008339E42FAD10123C2
:108E7000234218D09C43230063449C003951934201
:108E800011DA3F199C1C7960A2420CDBDC1CB96032
:108E9000A24208DB1C1DF960A24204DB05333961E4
:108EA0009A4200DB796100213D4BC2B21C68236805
:108EB000009189E7AB6C9B469B1A18025946C01A71
:108EC00010F0D4FFFF21404310F0D0FF002E00D15E
:108ED0002CE6324B02041968FF231B041A40962328
:108EE000701E5B0098423CDA4B07DB0F062E45DD17
:108EF000002B39D001260A6001245C4024189B0015
:108F00006708CB18FF00FF181A605A6008339F42A9
:108F1000FAD10123234200D108E69C43A3199C0007
:108F20000A51834200DB01E609199C1C4A60844215
:108F300000DDFBE5DC1C8A60844200DDF6E51C1DDB
:108F4000CA60844200DDF1E505330A61834200DD39
:108F5000ECE54A61EAE52C22FF3270E72C21FF3173
:108F6000F8E62C20FF30BFE70026C5E70024A44622
:108F700070E70024A446F8E6002367E50023CEE767
:108F800000237AE7002303E76E861BF0F9210940EE
:108F9000000044400000F03F00C05F40601500202A
:108FA00018BB0210F0B5D64646464F46C0B51E0067
:108FB000CE235B00C358040098460D008844170078
:108FC00020F05CFCD0235B00E15810F04FFF4144DF
:108FD00008000A2900DC88E06E2900DD87E013F034
:108FE00037F9D4235B00E050280013F031F9BC239B
:108FF0005B00E050143BF50FE358AD19A7616D100D
:109000009D4200DD1D00B6235B00E358761B9946A8
:10901000B4234A465B00E358B21A90469A4200DDF8
:1090200098464346002B01DC012398462E1E00DCA7
:109030000126802071008919C900400410F016FF34
:109040004F464346E062A362002F00DC01278020E8
:109050007900C919C900400410F008FF00234644F4
:10906000A36323000122B2462833BA4460631A7511
:109070000EF0E8FB5346FA2206000F009200D917C3
:109080005046002313F05EF8801979410B008021CF
:10909000020009068B4202D30122164B5242A264FF
:1090A000E3640EF0CFFB06002800FA224044484457
:1090B0000F000023920000210A3013F043F88019BA
:1090C00079410B008021020009068B4202D3012264
:1090D000084B52426365AC23226500225B00E250DC
:1090E000E0BCBA46B146A846F0BD034879E76E2019
:1090F00075E7C046FFFFFF7F0000204170B50B4CB5
:10910000250020683C3D00280BD0A168091A13F007
:1091100035FB23000C3BAC4207D01C002068002824
:10912000F3D123000C3BAC42F7D170BD10CC002032
:1091300070B5084C2500243D0C3C2068002806D062
:10914000A168091A13F01AFBAC42F5D170BDAC420C
:10915000F2D1FBE740CC002070B5040020F08EFB7C
:10916000C3179B0DC0188005800DC01A13F070F84E
:109170008121C90513F01DF8EA21890513F019F8BA
:109180008121C90512F0FEFF051C20F077FBC217F4
:10919000920D83189B059B0D981A13F059F864499A
:1091A00013F007F8EA21890513F003F89421061C4F
:1091B000C905281C12F0FDFF5E4912F0E6FF13F00E
:1091C0009BF8FE2120818905301C13F021F800282E
:1091D00000D09CE0FA208000E08020F04FFBC31715
:1091E0009B0DC0188005800DC01A13F031F8EA21DC
:1091F000890512F0DEFF051C011C12F0DAFF291CA4
:1092000012F0D7FF13F0ACF800224B4B11F0CDF861
:1092100011F05CF9B2235B00E05020F02FFBFA2143
:10922000490010F023FEB423C8315B00E15020F068
:1092300025FBC3179B0DC0188005800DC01A13F0C5
:1092400007F8EA21890512F0B4FF011C12F0B1FF02
:1092500013F086F80022394B11F0A7F811F036F917
:10926000B6235B00E05020F009FBC3179B0DC0182C
:109270008005800DC01A12F0EBFF314912F099FF02
:10928000EA21890512F095FFB8235B00E05020F039
:10929000F5FA182110F0EAFDCE230F315B00E15002
:1092A00020F0ECFA242110F0E1FDD02301315B0025
:1092B000E15020F0E3FA142110F0D8FD080011F07D
:1092C000EDF800221F4B11F049F811F047F9D823AF
:1092D0005B00E05020F0D2FAC3179B0DC018800548
:1092E000800DC01A12F0B4FF174912F062FFEA2194
:1092F000890512F05EFF13F033F8144A144B11F095
:109300002DF811F02BF9D6235B00E05070BD002141
:10931000301C12F093FF002807D00E49301C12F0C9
:1093200048FF12F0E9FF80B256E7002054E7C0463C
:10933000CDCC4C3E0080BB46000049400000894037
:10934000E820553F0000F03FE2AE5E3F9A999999C0
:109350009999B93F00007A440300F0B5D6464F46CC
:1093600046465133FF33C0B55961A2235B00C35851
:1093700004009846A4235B00C558083BC35889469F
:109380009A46002B01DC01239A465346802059005F
:109390005144C900400410F069FD4346E060A360F9
:1093A000002D00DC0125802069004919C900400416
:1093B00010F05CFD0023A3610133237760610EF0A0
:1093C00041FA06004046FA2250440F000023920062
:1093D0000021401912F0B6FE801979410B0080215E
:1093E000020009068B4202D30122194B5242E3626A
:1093F000A0235B00E5580433E358A262ED18A423D0
:109400005B00E358ED180EF01DFAFA2206000F007B
:10941000002392002800002112F094FE8019794167
:109420000B008021020009068B4202D30122084B67
:1094300052426363A62322634A465B00E250002245
:10944000143BE250E0BCBA46B146A846F0BDC04667
:10945000FFFFFF7FF0B5B223D6464F4646465B007E
:10946000C0B5C5580400894620F008FAB4235B0053
:10947000E15810F0FBFC48190A2800DC76E0862849
:1094800000DD75E012F0E4FEB8235B00E0502C3BF9
:10949000E3589846A4235B00E558083BE3589A46F6
:1094A000002B01DC01239A46534680205900514489
:1094B000C900400410F0DAFC4346E060A360002DD0
:1094C00000DC0125802069004919C900400410F022
:1094D000CDFC0023A3610133237760610EF0B2F964
:1094E00006004046FA2250440F000023920000215B
:1094F000401912F027FE801979410B0080210200EB
:1095000009068B4202D301221A4B5242E362A02386
:109510005B00E5580433E358A262ED18A4235B0016
:10952000E358ED180EF08EF9FA2206000F00002322
:1095300092002800002112F005FE801979410B00ED
:109540008021020009068B4202D30122094B5242BC
:109550006363A62322634A465B00E2500022143B69
:10956000E250E0BCBA46B146A846F0BD02488BE7DF
:10957000862087E7FFFFFF7F00002041F0B5B22380
:10958000D6464F4646465B00C0B5C55804008946DE
:1095900020F074F9B4235B00E15810F067FC48191F
:1095A0000A2800DC76E0862800DD75E012F050FE27
:1095B000B8235B00E0502C3BE3589846A4235B00A3
:1095C000E558083BE3589A46002B01DC01239A46F4
:1095D0005346802059005144C900400410F046FC15
:1095E0004346E060A360002D00DC01258020690077
:1095F0004919C900400410F039FC0023A36101336C
:10960000237760610EF01EF906004046FA225044AE
:109610000F00002392000021401912F093FD8019E1
:1096200079410B008021020009068B4202D30122FE
:109630001A4B5242E362A0235B00E5580433E3581F
:10964000A262ED18A4235B00E358ED180EF0FAF8BF
:10965000FA2206000F00002392002800002112F0D9
:1096600071FD801979410B008021020009068B42AF
:1096700002D30122094B52426363A62322634A4666
:109680005B00E2500022143BE250E0BCBA46B14617
:10969000A846F0BD02488BE7862087E7FFFFFF7FE3
:1096A00000002041F0B5C64600B5037D04000D0062
:1096B0001600002B13D0C7680021381C12F0BEFD25
:1096C0000021002844D0306812F0B0FD002806D0F8
:1096D00080231B069C4600236744E7602375A1682E
:1096E000286812F04FFD2860A76880460021381CCA
:1096F00012F08EFD00284AD10021381C12F09EFD88
:1097000000280AD0206912F0A3FD071C011C404666
:1097100012F094FD002800D02F60E168306812F04C
:1097200031FD3060E468051C0021201C12F086FD2C
:10973000002819D01D4B0A20185E12F089FD011C6B
:10974000281C12F073FD431E984180BCB846F0BD42
:10975000381C12F05DFD0028C1D00021306812F0E5
:109760005DFD0028BBD0B3E70021201C12F050FDA6
:10977000002818D00D4B0A20185E404212F068FDF8
:10978000011C281C12F04AFD431E9841DDE72069A8
:1097900012F05EFD071C011C404612F039FD002846
:1097A000BBD02F60B9E70020CFE7C0463C150020B2
:1097B000F8B5CE464746804680B518001600894663
:1097C00010F06CFE4C4B04000A20185E0D0010F0E7
:1097D00065FE02000B0010F0C1FD0022474B10F0A7
:1097E000E4FD2B00220010F0C2FD10F0B7FE43464E
:1097F000D860071C0021306812F020FD002805D039
:1098000080231B069C4643466744DF60089B9C46BA
:109810005800604440000F3012F01AFD3849061C11
:1098200012F0F6FC002863D03649301C12F006FD19
:1098300000285FD043465E6020F020F8C3179B0DE0
:10984000C0188005800DC01A10F028FE00222E4B93
:1098500010F0ABFD00222D4B10F0A7FD00222A4B8B
:1098600010F07CFD4346060058680F0012F078FDAA
:1098700002000B003000390010F097FD10F026FEBA
:1098800006001FF0FBFFC00700D576424B461F685D
:10989000300012F0DDFC391C12F074FC12F0FAFCFE
:1098A000B4235B0098421FDD18004346186112F094
:1098B000CFFC391C12F063FC154912F07AFC12F04F
:1098C0004FFD02000B0010F049FD2B00220010F0AC
:1098D0004EFD10F043FE4346424698600123137547
:1098E000C0BCB946B046F8BDC343DB171840DCE73F
:1098F000034E9FE7034E9DE73C15002000002440E7
:1099000000009642000070410000E03F0000503F20
:1099100000002041F0B5DE4657464E464546E0B5CC
:1099200083B00190002876D0019BDB689946002B1C
:1099300068D04B46DB689A46002B59D05346DB680B
:109940009B46002B4AD05B46DC68002C32D0E56891
:10995000002D1DD0EB689846002B22D04346DE68D0
:10996000002E31D0F768002F09D0F868FFF7D2FF3A
:109970003800BF68142112F001FF002FF5D1B7683D
:109980001421300012F0FAFE002F1DD03E00E9E74E
:10999000A5681421200012F0F1FE002D0AD02C0041
:1099A000D5E7AE681421280012F0E8FE002EEFD0B3
:1099B0003500CFE75B469C681421584612F0DEFE66
:1099C000002C0BD0A346BEE743469E6814214046B8
:1099D00012F0D4FE002EE4D0B046BFE753469C6898
:1099E0001421504612F0CAFE002C01D0A246A5E771
:1099F0004B469C681421484612F0C0FE002C01D052
:109A0000A14696E701981421846812F0B7FE002C55
:109A100001D0019488E703B0F0BCBB46B246A9462A
:109A2000A046F0BD0A4B70B5036003009C339C68F0
:109A30000500002C09D0E068FFF76CFF2000A46847
:109A4000142112F09BFE002CF5D1280070BDC046F9
:109A50009CBA02100C4B70B5036003009C339C68E9
:109A60000500002C09D0E068FFF754FF2000A4682F
:109A7000142112F083FE002CF5D12800B82112F039
:109A80007DFE280070BDC0469CBA0210F0B5DE46CF
:109A90004E4645465746E0B5D226D423804676004A
:109AA00087595B0089B0C058391C12F068FB12F06E
:109AB00057FCD62342465B000400D0580D0012F03C
:109AC0004FFC02000B000020B94910F03EFC0200E0
:109AD0000B002000290010F068FC0400381C0D0069
:109AE00012F03EFC02000B002000290010F036FCB2
:109AF00010F034FD43469851D82342465B00D758B6
:109B00008146381C12F02CFCAA4AAB4B04000D0015
:109B100010F04BFC0022A64B10F020FC10F01EFDB4
:109B20000290484612F0B6FB12F092FB8221C90562
:109B300012F03FFB12F0AEFB8721C90010F096F93E
:109B4000FF209E4E89008B59DA171040C018001272
:109B500012F07EFB061C12F003FC994A994B10F0A0
:109B60006FFC002811D00021381C12F051FB002896
:109B700000D089E020002900914A924B10F060FC4F
:109B8000002800D080E0904E15E09049301C12F083
:109B900010FB8F4912F0F9FA0021061C381C12F054
:109BA00037FB00285AD120002900854A854B10F048
:109BB00047FC002852D1391C301C12F0E6FAFE2175
:109BC0008905041C12F03AFB002847D1FE20211C15
:109BD000800512F0D4FA8023071C1B06C018391C1C
:109BE00012F0E7FA211C8346201C12F0CBFA7949C7
:109BF0000390301C12F01AFB002805D07649301C67
:109C000012F00CFB002849D10020391C12F0D1FAC7
:109C1000C4235A465B00994643449A469860DA60EA
:109C2000391C051C301C12F0C4FA211C12F0AAFACF
:109C3000039912F0BEFA029912F0BBFA534618616A
:109C4000BE2342465B00D35C041C002B5AD109B0F2
:109C5000F0BCBB46B246A946A046F0BD8023DB055A
:109C600003938023FE241B065A49301C9B46002781
:109C7000A40512F0DBFA0028C6D05749301C12F0B8
:109C8000CDFA0028C0D009E08023DB0503938023B0
:109C9000FE241B069B4600274B4EA405311C301C9E
:109CA00012F087FA011C051C12F083FA8146011C90
:109CB000281C12F07EFA494912F07BFA4849824684
:109CC000484612F076FA011C504612F05BFA12F088
:109CD00047FB04900591281C12F042FB0022414BE7
:109CE00010F063FB02000B000498059910F02DFBA7
:109CF00000222F4B10F032FB10F030FC011C12F050
:109D000041FA82E78B21281CC90512F052FA12F0A1
:109D1000FFFA04918B210390C905584612F049FAC5
:109D200012F0F6FA079188210690C905201C12F05E
:109D300040FA12F0AFFA43464A46834698585346D3
:109D40005D68AC2344465B00434458340293039A55
:109D5000049BC11712F0F6F9069A06000F002800BE
:109D6000079BE91712F0EEF980197941CB171B0513
:109D70001B0D009300230193009A019B8018594109
:109D80000A05030B13435A462068C0184243D317F1
:109D9000DB05DB0D9B185B1208C44A4643469D5801
:109DA00053465D6043469850029B9C42CFD14EE79C
:109DB0000000F03F9A9999999999B93FC0A2002063
:109DC000FCA9F1D24D62503F9D922B3BD00FC94070
:109DD0000080BB46D00FC9BFD00FC93F610BB6BAD8
:109DE000ABAA2A3D0000E03FF0B54546DE465746A7
:109DF0004E46E0B5A6256D00435980468BB0002B3A
:109E000000D080E03833434407939C235B004344F5
:109E10009B46B626434676009F59B82342465B00D0
:109E2000D058391C12F0ABF912F09AFABA23424614
:109E30005B000400D0580D0012F092FA02000B00F3
:109E40000020C44910F081FA02000B002000290014
:109E500010F0ABFA0400381C0D0012F081FA020079
:109E60000B002000290010F079FA10F077FB434630
:109E70009851BC2342465B00D5588146281C12F0FD
:109E80006FFAB54AB54B06000F0010F08EFA0022AB
:109E9000B04B10F063FA10F061FB0390484612F0EB
:109EA000F9F912F0D5F98221C90512F082F912F000
:109EB000F1F98721C9000FF0D9FFFF20A84C8900D4
:109EC0000B59DA171040C018001212F0C1F9041C27
:109ED00012F046FAA34AA44B10F0B2FA002827D099
:109EE0000021281C12F094F9002800D0F0E0300086
:109EF00039009C4A9C4B10F0A3FA002800D0E7E000
:109F00009A4B02932CE0382343441C0007939C2374
:109F10005B0043441F001FF0B1FC43465E597100D3
:109F20000FF0A4FF891B02C4A742F4D1BB4670E71F
:109F30008F49201C12F03DF98E4912F026F90021BC
:109F40000290281C12F064F9002800D0A5E030002F
:109F50003900844A844B10F073FA002800D09CE04A
:109F6000291C029812F011F9FE218905071C12F034
:109F700065F9002800D090E0FE20391C800512F021
:109F8000FEF88023061C1B06C018311C12F011F9C4
:109F90008B21C905041C12F00CF912F0B9F90590D7
:109FA0000691381C391C12F0EDF8029D049072499C
:109FB000281C12F03BF9002806D07049281C12F02A
:109FC0002DF9002800D090E00021301C12F0F1F8AB
:109FD000A8235B00994643449A469860DC60051CC0
:109FE000311C029812F0E5F8391C12F0CBF80499F4
:109FF00012F0DFF8039912F0DCF853468B21186158
:10A00000041CC905281C12F0D4F812F081F904913F
:10A0100088210390C905201C12F0CBF812F03AF900
:10A0200043464A46029098585346079C5D68039AF7
:10A03000049BC11712F086F8059A06000F0028004D
:10A04000069BE91712F07EF880197941CB171B05A2
:10A050001B0D009300230193009A019B8018594126
:10A060000A05030B20681343029AC0184243D31712
:10A07000DB05DB0D9B185B1208C44A4643469D581E
:10A0800053465D6043469850A345D0D10BB0F0BC19
:10A09000BB46B246A946A046F0BD8023DB0580241E
:10A0A000FE2704930023029D3349281C00260593B4
:10A0B00006932406BF0512F0B9F8002800D183E703
:10A0C0002E49281C12F0AAF8002800D17CE70CE0E9
:10A0D000264B802402938023DB05FE270493002374
:10A0E0000026059306932406BF050299081C12F06A
:10A0F00060F8011C814612F05CF8011C824648465B
:10A1000012F057F81E4912F054F81E49051C50462B
:10A1100012F04FF8011C281C12F034F812F020F94C
:10A1200008900991484612F01BF90022164B10F0D6
:10A130003CF902000B000898099910F006F900227A
:10A14000044B10F00BF910F009FA011C12F01AF888
:10A15000011C3AE70000F03F9A9999999999C93FF3
:10A16000C0A20020FCA9F1D24D62503F9D922B3B32
:10A17000D00FC9400080BB46D00FC9BFD00FC93F28
:10A18000610BB6BAABAA2A3D0000E03FF0B54546E8
:10A19000DE4657464E46E0B5A6256D00435980463B
:10A1A0008BB0002B00D080E03833434407939C23CE
:10A1B0005B0043449B46B626434676009F59B8232E
:10A1C00042465B00D058391C11F0D9FF12F0C8F894
:10A1D000BA2342465B000400D0580D0012F0C0F8CC
:10A1E00002000B000020C44910F0AFF802000B0081
:10A1F0002000290010F0D9F80400381C0D0012F0DE
:10A20000AFF802000B002000290010F0A7F810F0B2
:10A21000A5F943469851BC2342465B00D558814678
:10A22000281C12F09DF8B54AB54B06000F0010F03F
:10A23000BCF80022B04B10F091F810F08FF90390A9
:10A24000484612F027F812F003F88221C90511F0F0
:10A25000B0FF12F01FF88721C9000FF007FEFF20A2
:10A26000A84C89000B59DA171040C018001211F0E1
:10A27000EFFF041C12F074F8A34AA44B10F0E0F8AE
:10A28000002827D00021281C11F0C2FF002800D090
:10A29000F0E0300039009C4A9C4B10F0D1F80028C7
:10A2A00000D0E7E09A4B02932CE0382343441C0093
:10A2B00007939C235B0043441F001FF0DFFA4346D3
:10A2C0005E5971000FF0D2FD891B02C4A742F4D180
:10A2D000BB4670E78F49201C11F06BFF8E4911F0CF
:10A2E00054FF00210290281C11F092FF002800D09A
:10A2F000A5E030003900844A844B10F0A1F8002812
:10A3000000D09CE0291C029811F03FFFFE21890536
:10A31000071C11F093FF002800D090E0FE20391CAC
:10A32000800511F02CFF8023061C1B06C018311C71
:10A3300011F03FFF8B21C905041C11F03AFF11F009
:10A34000E7FF05900691381C391C11F01BFF029D98
:10A3500004907249281C11F069FF002806D070494A
:10A36000281C11F05BFF002800D090E00021301C79
:10A3700011F01FFFA8235B00994643449A4698605A
:10A38000DC60051C311C029811F013FF391C11F020
:10A39000F9FE049911F00DFF039911F00AFF5346DD
:10A3A0008B211861041CC905281C11F002FF11F053
:10A3B000AFFF049188210390C905201C11F0F9FE1C
:10A3C00011F068FF43464A46029098585346079C4E
:10A3D0005D68039A049BC11711F0B4FE059A06004C
:10A3E0000F002800069BE91711F0ACFE8019794197
:10A3F000CB171B051B0D009300230193009A019BB3
:10A40000801859410A05030B20681343029AC018AB
:10A410004243D317DB05DB0D9B185B1208C44A4689
:10A4200043469D5853465D6043469850A345D0D15E
:10A430000BB0F0BCBB46B246A946A046F0BD802397
:10A44000DB058024FE2704930023029D3349281C4A
:10A450000026059306932406BF0511F0E7FE0028A9
:10A4600000D183E72E49281C11F0D8FE002800D126
:10A470007CE70CE0264B802402938023DB05FE273B
:10A48000049300230026059306932406BF05029932
:10A49000081C11F08EFE011C814611F08AFE011C81
:10A4A0008246484611F085FE1E4911F082FE1E4983
:10A4B000051C504611F07DFE011C281C11F062FEA7
:10A4C00011F04EFF08900991484611F049FF002213
:10A4D000164B0FF06AFF02000B00089809990FF065
:10A4E00034FF0022044B0FF039FF10F037F8011C45
:10A4F00011F048FE011C3AE70000F03F9A99999943
:10A500009999C93FC0A20020FCA9F1D24D62503FE9
:10A510009D922B3BD00FC9400080BB46D00FC9BFD6
:10A52000D00FC93F610BB6BAABAA2A3D0000E03F8D
:10A53000F8B5CE464746140080B58146383009F05C
:10A540006BFB264D210028000BF024FF244B2F002D
:10A5500098468026032303210024A844AB611C37BE
:10A56000760002E042461F4BD158E2B22800C9B241
:10A570000BF070FF431E984138550134B442F1D1BD
:10A58000194B00211C68236820005B6898472368EA
:10A5900000221B6815492000984701234A46494676
:10A5A0001370134A8B5400230B61124B1A685B68BB
:10A5B0000A624B628A61CB618A62CB620B6B002BB1
:10A5C00008D00D480021484406F042FBC0BCB94603
:10A5D000B046F8BD094B0B63F3E7C046F096002088
:10A5E0008087FFFF9878000018BB021000003443FA
:10A5F0007878000088BE021048780000901C002087
:10A600000F4B70B51D6804002B68280000215B68A3
:10A6100098472B68280000221B680A4998470123A5
:10A62000094A2370A35400232361084B1A685B680E
:10A6300022626362A261E361A262E36270BDC0460E
:10A6400018BB0210000034437878000088BE021066
:10A65000002310B50370034B0021186803685B6882
:10A66000984710BD18BB0210052303707047C04601
:10A67000F0B5D6464F4646460378C0B5052B33D0D5
:10A68000032B45D09621254F49003A88161C8A4253
:10A690002FD8B6B2012B30D0002E25D0204B00256C
:10A6A0009946204B002498461F4B9A4606E0514697
:10A6B00069350134D150FF35A64215DD310028003F
:10A6C0000FF0D4FB0223F95E0F22411A484608F02E
:10A6D00025FD4246A30012680028E8D169350134FF
:10A6E000D050FF35A642E9DCE0BCBA46B146A846E8
:10A6F000F0BD0E1CB6B2012BCED10C4BC3185B685B
:10A70000002BC9D10A4B9C46604406F0ABFAEBE73C
:10A71000006B03689B699847E6E7C0463C1500203C
:10A720001098002060150020000A0AFFA0790000A0
:10A730004878000070B506000D00140012F08EFA83
:10A74000012809D0022800D070BD013C0648E2B2C1
:10A75000691C0BF01FFFF7E73000013CE2B2691CF7
:10A7600038300BF0ADF9EFE7F0960020F0B5574622
:10A770004546DE464E46E0B5076846689246F21BFF
:10A7800092109B4693009B180D0019015B1819024B
:10A790005B1819045B185B009B183A4A804683B02B
:10A7A00093426BD0E91B0191B74259D059008B42BB
:10A7B0004BD8002957D100230C24994601935A46BF
:10A7C000504611680C9A00681268EB1B4B4407C393
:10A7D000AF4212D04A463B0013CB13C2AB42FBD16F
:10A7E0002A000C3A284BD21B920853439B009A082C
:10A7F0005C08A418A40018344C44AE4210D0761B58
:10A80000214B0C3EB60873439B009B0801335E004E
:10A81000F618B60020003200290011F0A1FFA4199B
:10A82000002F05D0434699683800C91B11F0A6FFD8
:10A8300043464A461A60019A5C609A6003B0F0BCD5
:10A84000BB46B246A946A046F0BD104C200011F010
:10A850008DFF2300814604004B4401930C34AEE786
:10A86000591C0133F1D2914203D84B005B189C0074
:10A87000ECE711004B005B189C00E7E7044815F07B
:10A88000EDFCC046AAAAAA0AABAAAA2AF8FFFF7F33
:10A8900094A90210F8B54546DE4657464E46036871
:10A8A000E0B5934646682F4A984605000F00F31A14
:10A8B000934253D04146791A8A46002B44D09146A0
:10A8C0005900994243D2484611F050FF5B46524628
:10A8D0001B7804008354012353449B46F61B002A33
:10A8E00027DC8344002E0DDC43465E44002B19D147
:10A8F0002C604C446E60AC60F0BCBB46B246A946CE
:10A90000A046F8BD32003900584611F029FF4346F1
:10A910005E44002BECD005E032003900584611F0BF
:10A920001FFF5E444346A968C91A404611F026FF3E
:10A93000DEE741461EF0FCFCA344002EECDC43465F
:10A94000A9685E44C91AF0E701239946BBE7802352
:10A9500089461B069942B6D39146B4E7024815F0E2
:10A960007DFCC046FFFFFF7F94A90210F8B5454665
:10A97000DE4657464E460368E0B5934646682F4A82
:10A98000984605000F00F31A934253D04146791AB6
:10A990008A46002B44D091465900994243D24846FA
:10A9A00011F0E4FE5B4652461B78040083540123F9
:10A9B00053449B46F61B002A27DC8344002E0DDC03
:10A9C00043465E44002B19D12C604C446E60AC6051
:10A9D000F0BCBB46B246A946A046F8BD32003900DD
:10A9E000584611F0BDFE43465E44002BECD005E016
:10A9F00032003900584611F0B3FE5E444346A96860
:10AA0000C91A404611F0BAFEDEE741461EF090FC3E
:10AA1000A344002EECDC4346A9685E44C91AF0E763
:10AA200001239946BBE7802389461B069942B6D38A
:10AA30009146B4E7024815F011FCC046FFFFFF7FC6
:10AA400094A90210F0B5DE46454657464E46E0B59D
:10AA50009DB005001EF012FF0C210FF007FA8B1FAE
:10AA60009846EB239B00EC184346012723665D23A1
:10AA7000E7541EF003FF3B00C20F801803409B1AEF
:10AA8000F12201339200AB5482238E4ADB00EA505C
:10AA90001EF0F4FE03210FF0E9F980230231DB0000
:10AAA000E9501EF0EBFE23210FF0E0F9864B1E313A
:10AAB000E9502B0026004546002798461EF0DEFE92
:10AAC000C3179B0DC0188005800DC01A11F0C0FB84
:10AAD0008121C90511F06DFBEA21890511F069FB9F
:10AAE0008121C90511F04EFB81461EF0C7FEC31738
:10AAF0009B0DC0188005800DC01A11F0A9FB734989
:10AB000011F057FBEA21890511F053FB942182468D
:10AB1000C905484611F04DFB6D4911F036FB11F0A7
:10AB2000EBFBFE216B4B8905E052504611F070FBA8
:10AB3000002800D0B5E0FA208000674BD136E05203
:10AB40001EF09CFEC3179B0DC0188005800DC01A17
:10AB500011F07EFBEA21890511F02BFB8146011CD7
:10AB600011F027FB494611F024FB11F0F9FB0022FC
:10AB70005A4B0FF01AFC0FF0A9FC20601EF07EFE6D
:10AB8000FA2149000FF072F9C83161601EF076FEBB
:10AB9000C3179B0DC0188005800DC01A11F058FB1B
:10ABA000EA21890511F005FB011C11F002FB11F0EF
:10ABB000D7FB00224A4B0FF0F8FB0FF087FCA06098
:10ABC0001EF05CFEC3179B0DC0188005800DC01AD7
:10ABD00011F03EFB434911F0ECFAEA21890511F02E
:10ABE000E8FAE0601EF04AFE18210FF03FF90F313D
:10ABF000A1631EF043FE24210FF038F90131E16317
:10AC00001EF03CFE14210FF031F908000FF046FC55
:10AC10000022354B0FF0A2FB0FF0A0FCE0641EF009
:10AC20002DFEC3179B0DC0188005800DC01A11F0B2
:10AC30000FFB2E4911F0BDFAEA21890511F0B9FA8E
:10AC400011F08EFB2A4A2B4B0FF088FB0FF086FC8D
:10AC50000137A064FF36042F52D000225D233566F1
:10AC6000F2541EF00BFE03210FF000F931761EF0B6
:10AC700005FE032303405A4253415C22B3541EF0A5
:10AC8000FDFD03210FF0F2F8043171651EF0F6FDB1
:10AC900028210FF0EBF8184B0A313400B1657366C8
:10ACA0000CE70021504611F0C9FA002801D100F04C
:10ACB000EEFC1249504611F07CFA11F01DFB80B2F7
:10ACC0003BE7C046F82A000004040000CDCC4C3E0F
:10ACD0000080BB46A4FEFFFFA2FEFFFF000049402C
:10ACE00000008940E820553F0000F03FE2AE5E3FA3
:10ACF0009A9999999999B93F8813000000007A446C
:10AD0000E0231B019C46D94BC44464469C46C44482
:10AD1000664645460D940B96206903681B69984763
:10AD200023686268934200D063601434B442F3D164
:10AD30001EF0A4FD64210FF099F8042000220D9E5E
:10AD40000B001691B468716818901792A14201D156
:10AD500000F0FAFC8B6008604A6017AB0C31716040
:10AD6000039318AC1EF08AFD1E210FF07FF804201B
:10AD700001220D9F0B001691BE68796818901792FA
:10AD8000B14201D100F0EDFC08604A608B600C31EB
:10AD900079601EF073FD64210FF068F80420022230
:10ADA0000D9F0B001691BE68796818901792B142FA
:10ADB00001D100F081FC08604A608B600C31796041
:10ADC0001EF05CFD64210FF051F8042003220D9F5A
:10ADD0000B001691BE68796818901792B14201D1A4
:10ADE00000F073FC08604A608B600C3179601EF0E3
:10ADF00045FD0F210FF03AF80D9B053119731EF038
:10AE00003DFD50210FF032F8082004220B0016916E
:10AE1000974918906F187968BE681792B14201D1AE
:10AE200000F05CFC08604A608B600C3179601EF0B9
:10AE300025FD14210FF01AF8012000220B001691B5
:10AE4000BE68796818901792B14201D100F04FFCAA
:10AE500008604A608B600C3179601EF00FFD28217C
:10AE60000FF004F8283139731EF008FD64210EF04C
:10AE7000FDFF10220023884616917E4918926E1815
:10AE80007168B0681793814201D100F039FC4B60C2
:10AE900043460A608B600C3171601EF0EFFC0123A9
:10AEA000424683435B421340082000227168B76822
:10AEB000189017921693B94201D100F02AFC08604D
:10AEC0004A608B600C3171601EF0D8FC0323034094
:10AED0005A42534142465B421340042000227168AB
:10AEE000B768189017921693B94201D100F01AFC76
:10AEF00008604A608B600C3171601EF0BFFC002757
:10AF0000800704D10A2140460EF0B0FF070001225D
:10AF100000237168B068189217931697814201D187
:10AF200000F009FC0A604B608F600C3171601EF00C
:10AF3000A5FC32210EF09AFF3C3131731EF09EFCCD
:10AF400006001EF09BFCFA210700490130000EF0BC
:10AF50008DFF8BB2FA21484A5B08AA18138038008B
:10AF600089010EF083FF454BEB1819801EF086FC1B
:10AF700005210EF07BFF0800022900DD8DE303218F
:10AF80000EF09CFF3E4A4B0094465B1811009B005C
:10AF9000634410938A2292009446AC4462460E9217
:10AFA000384A394B0F92394A079511928022D200C4
:10AFB0009446AC4462461492B42212019446AC44C6
:10AFC000624615958A461D0027000C930A920F9839
:10AFD00014F0AEFD002800D089E2079B0C9A11986E
:10AFE0009A6514F0A5FD002800D0F8E2079B109A9E
:10AFF00099465A655346149E1293139500230024D4
:10B0000018931994BB601EF039FC06210EF02EFF38
:10B010004B425941092249429143103105911EF09A
:10B020002DFC06210EF022FF002901D108230593F3
:10B030001EF024FC06210EF019FF002901D10C237B
:10B0400005931EF01BFC06210EF010FF002901D114
:10B0500004230593002304934B4600250893079B84
:10B06000BB460024B2462F00984645E03C0E000047
:10B07000140E0000280E000044720000467200000A
:10B080001CCC002098A20020D4CB00209CA2002041
:10B09000434642465B6D926D1D6859681268491BB4
:10B0A00010780EF0E3FE43006D5C1B189B00ED185A
:10B0B0001EF0E4FB06210EF0D9FE002900D1073571
:10B0C0001EF0DCFB06210EF0D1FE002900D10C356C
:10B0D00053460C221B6853430233039A5B195BB23D
:10B0E0001370049AA2426BD023705B4601345C60FB
:10B0F000059B01379F4270D01EF0C0FB64210EF00B
:10B10000B5FE53465B68994200DAA2E153465B7A8A
:10B11000002BBDD11EF0B2FBFA2189000EF0A6FE75
:10B1200008000FF0BBF90022D34B0FF020F90FF00D
:10B1300015FA011C11F03DF811F012F90022CF4B65
:10B140000FF033F90FF0C2F9013011F081F8061C4D
:10B150001EF094FBC00703D480231B069C46664464
:10B16000280011F075F8311C11F00CF811F092F86C
:10B1700005000E2800DC21E143460E255B6DBA0771
:10B1800000D123E15246127A002A00D01EE11A684B
:10B1900059682800891A06920EF068FE42001218BB
:10B1A0009200069B5B5C0C219B18524612684A4336
:10B1B00002329B18039A5BB21370049AA24293D195
:10B1C00011005846039AFFF7D1FB5B465C689B6809
:10B1D00001370493059B9F428ED1089B5F46994699
:10B1E0004A46996818683B68546013604B46049A55
:10B1F00056469A60002802D0091A11F0BFFA0C23B3
:10B200009C46D1360A9BFF36E144B34200D0F5E6B6
:10B210003022129B94469A46139D0597AB4657469B
:10B22000079B634499460D9B04930023002400224E
:10B2300018931994059B90469A604A4606923A00E4
:10B240000026474699469246049B30CBAC4204D137
:10B2500007E10C34A54200D103E1300021680EF073
:10B2600005FE63689942F4D11EF008FB64210EF0DC
:10B27000FDFDA3689942ECDA474500D11CE1049B2F
:10B280001B7B5BB23B704B4601375F600136102E73
:10B29000DAD1069B99465346BA461F004B464A46AA
:10B2A00099681868059B1B6813604B4652465A60A4
:10B2B00042469A60002802D0091A11F05FFA0C2366
:10B2C0009C46049B0B9A1433E14404939342ACD103
:10B2D0000C9A079B0C320C920E9A5C33BA465D4670
:10B2E000059F07939A4200D071E6159D1EF0C6FA9D
:10B2F0008D239B00EC58EB185A68121B9210930098
:10B300009B1819015B1819025B1819045918490098
:10B3100089180EF0D3FD4F007F18BF000E9AE71971
:10B3200097422FD08A2189007B683E6868589268CE
:10B3300088469C1B121AA24200D21BE20E9A526847
:10B340009446121A944200D8ABE1042A00DC2FE2A2
:10B3500031001DF0EDFF0E9B3E685B689C46434646
:10B36000E85863461A1A7B68B1185A1A042A00DC96
:10B370002DE260461DF0DCFF8A239B00EB581C1970
:10B380000E9B5C6091241023A4002B511EF076FAD2
:10B39000800701D108232B511EF070FA06210EF010
:10B3A00065FD002903D191230C229B00EA501DB0BA
:10B3B000F0BCBB46B246A946A046F0BDC343DB176E
:10B3C0001D4043465B6DBA0700D0DBE659681B6839
:10B3D0002800C91A0EF04AFD89461EF04FFA43466E
:10B3E000C0074DD49B6D1A6858684346596D944602
:10B3F000801A0A680692012800DC4BE109971700C1
:10B4000002000123484689466146A446140002E032
:10B410000133A34264D0CE5CBA5D9042F8DC64464E
:10B420004946099F069A4B6828009B1A99461900BD
:10B430000EF01CFD4B4658438519494628000EF076
:10B4400015FD420012189200002900DBA9E64944CC
:10B45000A7E68023039A1370049AA24200D043E621
:10B46000AEE68023039A1370474530D03B704B46BD
:10B4700001375F600AE7C04600408F400000084087
:10B4800041469A6D496D136852680E68D21A501E73
:10B4900006961E5C0128C5DC0698023A805D9B1862
:10B4A0008145BFDA8C46494606981E78013B825D8D
:10B4B0009142FADB6146B5E7049A390048460C32FE
:10B4C000FFF7E8F94B465F689B689846DEE639006F
:10B4D0004846FFF74BFA4B465F689B689846D5E6AF
:10B4E00064468C4662464946099FD65C9AE700242A
:10B4F00004202C606C60AC6011F038F90226220048
:10B50000047044700434031DC470286086700420E5
:10B51000AB606B60EA602A616A6111F027F9012172
:10B5200000220170417089460231817088460231E3
:10B53000031DC170E86004208B466B612B61AA611A
:10B54000EA612A6211F012F906210022031D8470BB
:10B55000C170A8610670467004202B62EB616A62BC
:10B56000AA62EA6211F002F941460022017081707C
:10B570005946031D4270C17068620420EB62AB62E1
:10B580002A636A63AA6311F0F1F849460022417008
:10B590000531031DC17004708470286304201400F9
:10B5A000AB636B63EA632A646A6411F0DFF85A469E
:10B5B000031D0270C270E8634470867089486B6432
:10B5C0002B641EF087F80F9814F0CEFA079B0C9AA4
:10B5D00011989A6514F0ACFA002800D106E5002411
:10B5E000534607201C605C609C6011F0BFF8534616
:10B5F00052461860C31D93600422022682700132F5
:10B6000051469146C2700232904602710232427136
:10B61000023204704670827107204B60CC600C616E
:10B620004C6111F0A3F84A4653465146C270424657
:10B63000D860C31D4B6103210271013293464271F0
:10B6400002320470467081708271504603618461D9
:10B65000C4610462072011F089F803215346817008
:10B66000494652469861C170C31D414613620B2280
:10B6700001715946827152460470467041715A48B0
:10B68000D3611EF027F8119814F06EFAAEE4002092
:10B69000FFF753FA63465E78C4E6544B19001093E3
:10B6A00078E4042C00DC8EE0220031001DF040FE26
:10B6B0004346EB581C1963E616AB00933800220092
:10B6C000039BFFF753F8FFF77BFB16AB00933800A3
:10B6D0002200039BFFF74AF8FFF789FB16AB0093A4
:10B6E00022003800039BFFF741F8FFF7A0FB16ABE1
:10B6F000009322003800039BFFF738F8FFF7ADFBFB
:10B7000016AB009322003000039BFFF72FF8FFF7E2
:10B71000C4FB16AB009322003000039BFFF726F812
:10B72000FFF7D2FB16AB009322003000039BFFF71C
:10B730001DF8FFF7E2FB16AB009322003000039BDD
:10B74000FFF714F8FFF7F3FB17AB1A00039318ACDD
:10B7500016AB0093300013002200FFF707F8FFF745
:10B7600001FB16AB009338002200039BFEF7FEFF9F
:10B77000FFF70FFB1E4B9C4223D8200010F0F6FF72
:10B780000700042C1ADD220031001DF0D1FD8A23B0
:10B790009B00E858002804D00E9B9968091A10F005
:10B7A000EDFF8A239B00EF500E9B3C199C60E7E560
:10B7B000042A00D0D8E531680160D5E5336803601C
:10B7C000E5E714F023FD042C08D00419D8E5042A79
:10B7D000FBD162460B6804191360D1E53368041984
:10B7E0000360CDE5FD900010319100101CCC0020CD
:10B7F000FCFFFF7FF8B54546DE4657464E460368D8
:10B80000E0B5934646682F4A984605000F00F31AA4
:10B81000934253D04146791A8A46002B44D0914630
:10B820005900994243D2484610F0A0FF5B46524669
:10B830001B7804008354012353449B46F61B002AC3
:10B8400027DC8344002E0DDC43465E44002B19D1D7
:10B850002C604C446E60AC60F0BCBB46B246A9465E
:10B86000A046F8BD32003900584610F079FF434633
:10B870005E44002BECD005E032003900584610F051
:10B880006FFF5E444346A968C91A404610F076FF30
:10B89000DEE741461DF04CFDA344002EECDC4346A0
:10B8A000A9685E44C91AF0E701239946BBE78023E3
:10B8B00089461B069942B6D39146B4E7024814F074
:10B8C000CDFCC046FFFFFF7F94A90210F0B54746AC
:10B8D000CE46FA2680B504000F00904687B0B60029
:10B8E000B14200DA59E1310038000EF0BFFA310000
:10B8F000050038000EF0BAFA28000F0031000EF0F3
:10B90000B5FA0E0001295ADC1D222000217E0AF022
:10B910005BFD00233D00632F0DDD642138000EF038
:10B92000A5FA0D00C72F00DDC5E01C222000217EF6
:10B930000AF04AFD0023142D34DD0A2128000EF000
:10B9400095FA217E060007281CD0092800D186E040
:10B95000020043071B1A9B001B1A5B001232ED18F2
:10B960002000D2B20AF030FD012D00D1B7E00B2D3E
:10B9700000D10EE10123002DDDD107B0C0BCB946D6
:10B98000B046F0BD3C3D182220000AF01DFD012DFF
:10B9900000D1EBE00B2DEDD11E222000217E0AF01C
:10B9A00013FD0123002D00D0ADE00025002BE4D0D5
:10B9B000A1692A002000C9B20AF006FDDDE763296B
:10B9C00000DCECE0642130000EF050FA0D00C72ED0
:10B9D0007BDC1C222000217E0AF0F6FC0023142DC3
:10B9E0001FDD0A2128000EF041FA217E06000728FB
:10B9F00024D0092841D0020043071B1A9B001B1AC0
:10BA00005B001232ED182000D2B20AF0DDFC012DED
:10BA100074D00B2D4AD0002D00D175E70123142DD1
:10BA2000DFDC002D35D10025002B00D16CE7A169AA
:10BA30002A002000C9B20AF0C7FC65E73C3D182285
:10BA400020000AF0C1FC012D00D19BE00B2DE2D1BA
:10BA50001E222000217E0AF0B7FC0123DFE7503DC3
:10BA60001A2220000AF0B0FC012D3BD00B2D00D093
:10BA700080E70B25A169EDB29BE7503D1A2220001B
:10BA80000AF0A2FC012D3BD00B2D11D0002D00D1CE
:10BA90003AE7012D00D0C6E04346A169002BC7D08C
:10BAA0001F222000C9B20AF08FFC2DE7082ECFD14B
:10BAB0000B250123B3E7642138000EF0D7F9424685
:10BAC00001002000FFF702FF2FE7642130000EF095
:10BAD000CDF9424601002000FFF7F8FE79E7082E75
:10BAE00000D059E743460125A169002B00D160E74A
:10BAF0001F222000C9B20AF067FC3EE7082EA7D13A
:10BB0000012501238BE7012DECD06B1CB2D1002263
:10BB100000230292039300230493227F02AE002AA3
:10BB200040D1637F002B6FD1A37F002B00D02EE18B
:10BB3000E37F002B00D0F9E0002100252023E35C07
:10BB4000002B56D1029E8F1BB54200D1E2E01DF0C2
:10BB500095FEA91B0EF0B2F9755C002E00D127E707
:10BB60003900300010F00AFEA16922E7217E1E2272
:10BB700020000AF029FC43460125A169002B00D1D1
:10BB800017E7B5E71E222000217E0AF01DFC0125E3
:10BB9000B7E7082E00D16CE7FEE60123BAE60D00F8
:10BBA00001233CE707226A440021137030009146CC
:10BBB000FFF720FE637F7568B168002B00D0DCE0E2
:10BBC000A37F002B08D002234A461370A94200D15C
:10BBD000E4E02B7001357560E37F002BAED00323CA
:10BBE0004A4613708D4200D1A7E02B700135756075
:10BBF000A4E76B46DA1D04231370A94200D1EBE0E1
:10BC00002B70013575609DE707236B44994601232E
:10BC10004A460025137029004A463000FFF7EAFD26
:10BC20007568B168CCE76B1C00D0DBE00022002314
:10BC30000292039300230493227F02AE002A23D1B1
:10BC4000637F002B58D1A37F002B00D0AEE0E37FB1
:10BC5000002B7AD1002100252023E35C002B38D172
:10BC6000029E8B1B9946AE425CD01DF007FEA91BBD
:10BC70000EF024F9755C002E00D1D8E6494630005C
:10BC800010F07CFDA169D3E607226A4400211370FD
:10BC900030009146FFF7AEFD637F7568B168002BF9
:10BCA00062D1A37F002B08D002234A4613708D4235
:10BCB00000D182E02B7001357560E37F002BCBD083
:10BCC00003234A4613708D4246D02B7001357560B0
:10BCD000C2E76B46DA1D042313708D4275D02B70BA
:10BCE00001357560029E8B1B9946B542BDD1494610
:10BCF000280010F043FD07E607236B449946012313
:10BD00004A46002113704A463000FFF773FD7568FC
:10BD1000B168C6E7002D00D12FE63900280010F0E9
:10BD20002DFD2AE6002D00D1EEE5E0E707236B4468
:10BD3000994603234A460025137029004A463000DD
:10BD4000FFF758FD7568B168F8E607236B4499461C
:10BD500003234A460025137029004A463000FFF7A6
:10BD600049FD7568B16877E701234A4613708D4233
:10BD7000C9D02B700135756093E701234A461370D3
:10BD8000A94200D147E72B700135756018E70723FA
:10BD90006B44994602234A460025137029004A46FF
:10BDA0003000FFF727FD7568B16815E707236B447E
:10BDB000994602234A460025137029004A4630005E
:10BDC000FFF718FD7568B16877E729003000FFF7C5
:10BDD00011FD7568B16843E73000FFF70BFD75682A
:10BDE000B168AFE6A169EDB222E6C046F0B5CE4635
:10BDF000474680B50569040087B0002D00D186E074
:10BE00000327046B9F4A23680770DB68934200D0C6
:10BE100034E101230026236297336762E6501DF068
:10BE20002DFD32210EF022F8974B26619C4600230F
:10BE30006144E36061601DF021FDB42149000EF012
:10BE400015F82500080010F003FA94235035A0607F
:10BE5000E550236D1B689846636899461DF00EFDFA
:10BE600014210EF003F822000B00210028000C32F0
:10BE70004B4408310096C047844B00211D682B6855
:10BE800028005B689847FF222B6800929B6800227D
:10BE90009846002100232800C047236A9846012BBA
:10BEA00051D07B4EAF21300049000AF0A1FA1E2389
:10BEB00063612300012240331A7328230025A36401
:10BEC000253BA3626564A5830BF0BCFC022307221B
:10BED000FF33A387636820636163D9170A40D218D0
:10BEE0006C4BD2109C46664400230721300064321C
:10BEF00000950AF0D3F8002300220B2130000095B2
:10BF00000AF0CCF807B0C0BCB946B046F0BD5F4BF4
:10BF100000211E68336830005B6898473368002250
:10BF20001B6830005C49984701235C4A2370A35486
:10BF30005B4B25611A685B6822626362A261E36100
:10BF4000A262E362DEE7574D574B039604960596CF
:10BF5000EB5C002B00D0F0E1544BEB5C002B00D0ED
:10BF600037E1534BEB5C002B00D0BFE2514BEB5C55
:10BF7000002B00D019E2002100264F4BEB5C002B78
:10BF800000D0C5E1039FCB1B9846B74200D104E225
:10BF90001DF074FCF11B0DF091FF7E5C002F03D0AF
:10BFA0004146380010F0EAFB444B7336E95C183B1D
:10BFB000F2B2E8180AF008FAFA239B0098462E69B4
:10BFC000012346451DDB414630000DF04FFF414641
:10BFD000070030000DF04AFF38000E0041460DF01A
:10BFE00045FF012905DDF123DB010022E818FFF7F9
:10BFF0006DFC324B1D22E95C183BE8180AF0E4F9AD
:10C000000023632E00DC90E2642130000DF02EFF4F
:10C010000F00C72E00DD1CE11D4E284B1C22E95CE1
:10C02000183BE8180AF0D0F90023244A9146142F4F
:10C0300000DC9CE10A2138000DF018FF4B468046D9
:10C04000E95C072800D1ECE0092839D043071B1A26
:10C050009B001B1A5B000200FF18F1231232DB0168
:10C06000D2B2E8180AF0B0F9012F00D1FCE00B2F92
:10C0700000D1FFE0002F70D00123D8E720009847BF
:10C0800040E7C046A9CC00108813000018BB02107E
:10C09000F0960020B887FFFF000034437878000056
:10C0A00088BE0210701E00200F7900001079000079
:10C0B00011790000127900001379000098780000CF
:10C0C000F123DB01503F1A22E8180AF07DF9012F15
:10C0D00000D1CCE00B2F00D1CFE0002F3DD07B1C56
:10C0E00000D012E20023D94A039304930593AA5C7B
:10C0F000002A00D07EE1D64BEB5C002B00D006E29C
:10C10000D44BEB5C002B00D02EE2D34BEB5C002B2E
:10C1100000D011E200210027D04BEB5C002B00D0B7
:10C12000B2E1039B9846CB1A9946B84500D1FFE18E
:10C130001DF0A4FB4346F91A0DF0C0FE43465F5CB8
:10C14000002B03D04946404610F018FBC44B3A0080
:10C15000E95C183BE8180AF037F90023C14A039359
:10C1600004930593AA5C002A00D0A7E0BE4BEB5CC9
:10C17000002B00D002E1BD4BEB5C002B00D098E11E
:10C18000BB4BEB5C002B00D01CE100230027B94A1D
:10C19000AA5C002A7CD1039A9B1A90469946BA421F
:10C1A00000D1FEE01DF06AFB4346F91A0DF086FE51
:10C1B00043465F5C002B03D04946404610F0DEFA50
:10C1C000A74B2D37E95C183BFAB2E8180AF0FCF8E7
:10C1D00068E60B2342466B44994600211A704A4692
:10C1E00003A8FFF707FB049E0599A34BEB5C002B0C
:10C1F00008D002234A4613708E4200D17DE133708D
:10C20000013604969D4BEB5C002B00D1B5E6032371
:10C210004A4613708E4200D1CCE03370013604964A
:10C22000ABE6F123DB019846A8443C3F1822404688
:10C230000AF0CAF8012F23D00B2F00D01AE70B27E2
:10C24000874B1E22E95C183BE8180AF0BDF8012371
:10C25000EDE6642130000DF009FE894E0100002258
:10C260003000FFF733FBD8E64346082BE8D101271F
:10C270000123DCE64346082BE1D10B270123D6E658
:10C280004B461E224046E95C0AF09EF80127EFE784
:10C290000B2204216A4411709F4200D118E1039AD5
:10C2A00039709B1A0137904699460497974200D0FF
:10C2B00078E74946380010F061FAF3E50B226A444A
:10C2C0001370002103A89146FFF794FA664A049F71
:10C2D000AA5C059B002A00D083E0644AAA5C002A7D
:10C2E00008D0022249460A70BB4200D1E8E03A7009
:10C2F000013704975E4AAA5C002A00D147E703226F
:10C3000049460A70BB4264D03A70013704973EE751
:10C310000B2204236A4413708E4200D1DFE0039F96
:10C3200033700136CB1B98460496BE4200D02FE6F0
:10C330004146300010F022FA3EE60B236B441E709B
:10C340001A00002103A89946FFF754FA4D4B049EAA
:10C35000EB5C0599002B00D147E74B4642461A702B
:10C360008E4200D13BE73270013604963DE7002F44
:10C3700000D0B4E6002B00D0E8E6EEE60B236B44D9
:10C38000994601234A460027137039004A4603A8FC
:10C39000FFF730FA049F059B9FE7002E00D10BE6C4
:10C3A000C6E7002F00D17DE583E70B236B44994658
:10C3B00000261F7031004A4603A8FFF71BFA049EAF
:10C3C0000599DAE50B236B44994603234A46002777
:10C3D000137039004A4603A8FFF70CFA049F059B27
:10C3E000D5E6012249460A70BB42CED03A700137E9
:10C3F000049772E70B226A440021137003A8914648
:10C40000FFF7F8F9124B049FEB5C0599002B00D065
:10C41000A1E0104BEB5C002B08D002234A461370BE
:10C420008F4200D1A7E03B70013704970A4BEB5CC9
:10C43000002B00D170E603234A4613708F4200D1CF
:10C4400081E03B700137049766E6C0469C780000A7
:10C450009D7800009E7800009F780000A078000082
:10C4600098780000C9780000CA780000CB780000F6
:10C47000CC780000CD78000011790000127900001E
:10C48000F0960020107900000B2204236A441370F8
:10C490008F4278D03B70039B01379846CB1A994660
:10C4A0000497474500D043E64946380010F066F946
:10C4B00053E60B236B44994602234A460027137028
:10C4C00039004A4603A8FFF795F9049F059B11E739
:10C4D000390003A8FFF78EF9049F059B5BE6310046
:10C4E00003A8FFF787F9049E05994BE50B236B44DE
:10C4F000994602234A460026137031004A4603A893
:10C50000FFF778F9049E05997CE6FFB21EE60B233F
:10C510006B44994601234A46002113704A4603A8FA
:10C52000FFF768F9049F059973E73700194E7CE51A
:10C53000002F00D111E6B7E70B236B449946032384
:10C540004A460027137039004A4603A8FFF752F9FC
:10C55000049F0599E0E501234A4613708F42DDD020
:10C560003B700137049754E70B236B449946022331
:10C570004A460027137039004A4603A8FFF73AF9E4
:10C58000049F059952E7390003A8FFF733F9049F88
:10C590000599C6E5F0960020036AF0B5013B9D05BC
:10C5A000C646ED1AAD01ED186D00ED18CC4B00B587
:10C5B0009C4686B0ED00654404001DF05FF9322111
:10C5C0000DF054FC002600234919E36061602661E8
:10C5D0001DF054F9B42149000DF048FC2500080075
:10C5E0000FF036FE94235035A060E55067681DF0CB
:10C5F00045F914210DF03AFC2200CB192100280046
:10C600000C3208310096FBF7CDFFB64B00211D68B8
:10C610002B6828005B689847FF222B6800929F6870
:10C620000022002300212800B847276A012F2BD0C1
:10C63000AF21AD4D4900280009F0DAFE1E236361E9
:10C640002300012240331A7328230026A364253BCC
:10C65000A3626664A6830BF0F5F802230722FF337A
:10C66000A387636820636163D9170A40D2189F4B80
:10C67000D210E818072100236432009609F00EFD5D
:10C6800006B080BCB846F0BD994D9A4B039604960F
:10C690000596EB5C002B00D04CE1974BEB5C002B3C
:10C6A00000D018E2954BEB5C002B00D077E2944B66
:10C6B000EB5C002B00D022E200210026914BEB5CCA
:10C6C000002B00D08BE1039FCB1B9846B74200D1D3
:10C6D0000DE21DF0D3F8F11B0DF0F0FB7E5C002F96
:10C6E00003D04146380010F049F8874B7336E95CB7
:10C6F000183BF2B2E81809F067FEFA239B0098464F
:10C700002F69012347451DDB414638000DF0AEFB84
:10C710004146060038000DF0A9FB30000F004146ED
:10C720000DF0A4FB012905DDF123DB010022E8184F
:10C73000FFF7CCF8744B1D22E95C183BE81809F0B0
:10C7400043FE0023632F00DC62E2642138000DF019
:10C750008DFB6421804638000DF088FB6A4B0E008B
:10C76000E95CC72F06DD4346DAB2F123DB01E818A6
:10C7700009F02AFE644B1C22E95C183BE81809F01A
:10C7800023FE0023604A9046142E00DC8DE10A212E
:10C7900030000DF06BFB43460700E95C072800D131
:10C7A000F4E0092817D043071B1A9B001B1A5B00F3
:10C7B0000200F618F1231232DB01D2B2E81809F0B8
:10C7C00003FE012E00D1F8E00B2E00D1FAE0002E7E
:10C7D0004BD00123D8E7F123DB01503E1A22E818A1
:10C7E00009F0F2FD012E00D1E9E00B2E00D1EBE0C3
:10C7F000002E3AD0731C00D055E10023434A039326
:10C8000004930593AA5C002A00D096E1404BEB5CB0
:10C81000002B00D0EEE13F4BEB5C002B00D019E287
:10C820003D4BEB5C002B00D0FCE1002100263B4B94
:10C83000EB5C002B00D0A8E1039FCB1B9846BE42C7
:10C8400000D1E7E11DF01AF8F11B0DF037FB7E5C1B
:10C85000002F03D0414638000FF090FF2A4B3200E2
:10C86000E95C183BE81809F0AFFD00232C4A03935C
:10C8700004930593AA5C002A00D0DAE0294BEB5C14
:10C88000002B00D018E1284BEB5C002B00D09BE183
:10C89000264BEB5C002B00D040E100210026244B0E
:10C8A000EB5C002B00D0AFE0039FCB1B9846B74258
:10C8B00000D120E11CF0E2FFF11B0DF0FFFA7E5CDD
:10C8C000002F03D0414638000FF058FF0E4B2D3695
:10C8D000E95C183BF2B2E81809F076FDA8E6C0461C
:10C8E0008813000018BB0210F0960020B887FFFFE5
:10C8F000701E00200F7900001079000011790000EF
:10C900001279000013790000987800009C780000EC
:10C910009D7800009E7800009F780000A0780000BD
:10C92000C9780000CA780000CB780000CC780000FD
:10C93000CD7800000B236B441E701A00002103A861
:10C940009846FEF757FFCE4B049EEB5C0599002BF3
:10C9500000D097E0CB4BEB5C002B08D00223424683
:10C960001370B14200D121E1337001360496C64BF9
:10C97000EB5C002B00D1A1E6032342461370B142C9
:10C9800000D1C3E033700136049697E6F123DB0152
:10C99000EF183C3E1822380009F016FD012E16D083
:10C9A0000B2E00D013E70B26B84B1E22E95C183B78
:10C9B000E81809F009FD0123E6E6082FF4D1012665
:10C9C0000123E1E6082FEED10B260123DCE64346E6
:10C9D0001E223800E95C09F0F7FC0126F0E70B2283
:10C9E00004236A441370B14200D1E7E0039F33701F
:10C9F0000136CB1B98460496BE4200D069E64146FC
:10CA000030000FF0BBFE78E60B2204236A4413705B
:10CA10008E4200D1E7E0039F33700136CB1B98466E
:10CA20000496BE4200D045E7414630000FF0A6FE16
:10CA3000FEE50B226A440021137003A89046FEF71E
:10CA4000D9FE934B049EEB5C0599002B22D1914BB0
:10CA5000EB5C002B08D0022342461370B14200D198
:10CA6000B9E03370013604968B4BEB5C002B00D1A0
:10CA700015E70323424613708E4256D033700136B9
:10CA800004960CE743461F708E4229D0377001365A
:10CA900004965FE7012342461370B14213D033700E
:10CAA00001360496D3E7F6B2D8E6002E00D0A1E610
:10CAB000002B00D0D2E6D8E60B236B449846012326
:10CAC0004246002613703100424603A8FEF792FE4C
:10CAD000049E0599BBE70B236B44984600211F7009
:10CAE000424603A8FEF786FE049E059932E7002E13
:10CAF00000D102E683E7002E00D199E594E70B23ED
:10CB00006B44984603234246002613703100424688
:10CB100003A8FEF76FFE049E0599CFE50B236B4437
:10CB2000984603234246002613703100424603A86C
:10CB3000FEF760FE049E0599B1E60B226A440021CF
:10CB4000137003A89046FEF755FE544B049EEB5C11
:10CB50000599002B75D1524BEB5C002B07D00223BB
:10CB6000424613708E427CD03370013604964D4B92
:10CB7000EB5C002B00D15AE60323424613708E4231
:10CB800057D033700136049651E60B2204236A44D1
:10CB90001370B1426DD03370013604964CE60B230E
:10CBA0006B449846022342460026137031004246E9
:10CBB00003A8FEF71FFE049E0599D8E603A8FEF71A
:10CBC00019FE049E05997EE50B236B4498460223CB
:10CBD0004246002613703100424603A8FEF70AFEC3
:10CBE000049E059940E7310003A8FEF703FE049E6A
:10CBF000059959E60B236B449846012342460021D0
:10CC00001370424603A8FEF7F5FD049E0599A2E7BE
:10CC10003E00B7E5002E00D127E6190030000FF0E6
:10CC2000ADFD22E60B236B449846032342460026C3
:10CC300013703100424603A8FEF7DCFD049E0599FF
:10CC4000F5E50123424613708E42DAD03370013687
:10CC5000049680E70B236B44984602234246002645
:10CC600013703100424603A8FEF7C4FD049E0599E7
:10CC70007DE703A8FEF7BEFD049E0599DCE5C046EE
:10CC800010790000117900001279000098780000F6
:10CC9000CA780000CB780000CC7800009D780000B6
:10CCA0009E7800009F780000F0B5CE4647460123ED
:10CCB00080B5002603270362973387B04762C650CA
:10CCC00004001CF0DBFD32210DF0D0F8CD4B2661C5
:10CCD0009C4600236144E36061601CF0CFFDB421F9
:10CCE00049000DF0C3F8250008000FF0B1FA9423B5
:10CCF0005035A060E550636898461CF0BFFD1421D4
:10CD00000DF0B4F822000B002100280043440C323F
:10CD100008310096FBF746FCBB4B00211D682B68D1
:10CD200028005B689847FF222B6800929B680022CE
:10CD30009846002100232800C047236A9846012B0B
:10CD400035D0AF21B14E4900300009F051FB1E2310
:10CD500063612300012240331A7328230025A36452
:10CD6000253BA3626564A5830AF06CFD02230722BC
:10CD7000FF33A387636820636163D9170A40D21821
:10CD8000A34BD2109C466644300000230721643236
:10CD9000009509F083F9002300220B213000009553
:10CDA00009F07CF907B0C0BCB946B046F0BD994D5A
:10CDB000994B039604960596EB5C002B00D04BE153
:10CDC000964BEB5C002B00D018E2954BEB5C002BF4
:10CDD00000D076E2934BEB5C002B00D023E20021E5
:10CDE0000026914BEB5C002B00D08AE1039FCB1B0C
:10CDF0009846B74200D10EE21CF040FDF11B0DF049
:10CE00005DF87E5C002F03D0414638000FF0B6FC81
:10CE1000864B7336E95C183BF2B2E81809F0D4FA95
:10CE2000FA239B0098462F69012347451DDB4146A5
:10CE300038000DF01BF84146060038000DF016F8DA
:10CE400030000F0041460DF011F8012905DDF123F6
:10CE5000DB010022E818FEF739FD744B1D22E95C66
:10CE6000183BE81809F0B0FA0023632F00DC62E2F7
:10CE7000642138000CF0FAFF6421804638000CF081
:10CE8000F5FF6A4B0E00E95CC72F06DD4346DAB2B8
:10CE9000F123DB01E81809F097FA644B1C22E95CE6
:10CEA000183BE81809F090FA0023604A9046142EC7
:10CEB00000DC8DE10A2130000CF0D8FF434607006A
:10CEC000E95C072800D1F3E0092817D043071B1AB3
:10CED0009B001B1A5B000200F618F1231232DB01E3
:10CEE000D2B2E81809F070FA012E00D1F7E00B2E4B
:10CEF00000D1F9E0002E4BD00123D8E7F123DB016C
:10CF0000503E1A22E81809F05FFA012E00D1E8E03D
:10CF10000B2E00D1EAE0002E3AD0731C00D055E170
:10CF20000023434A039304930593AA5C002A00D08C
:10CF300095E1404BEB5C002B00D0EEE13E4BEB5C0F
:10CF4000002B00D019E23D4BEB5C002B00D0FCE144
:10CF5000002100263A4BEB5C002B00D0A7E1039F99
:10CF6000CB1B9846BE4200D1E7E11CF087FCF11BC9
:10CF70000CF0A4FF7E5C002F03D0414638000FF078
:10CF8000FDFB2A4B3200E95C183BE81809F01CFA5B
:10CF900000232C4A039304930593AA5C002A00D033
:10CFA000D9E0294BEB5C002B00D018E1274BEB5C60
:10CFB000002B00D09BE1264BEB5C002B00D03FE127
:10CFC00000210026234BEB5C002B00D0AEE0039F3A
:10CFD000CB1B9846B74200D121E11CF04FFCF11B5E
:10CFE0000CF06CFF7E5C002F03D0414638000FF040
:10CFF000C5FB0E4B2D36E95C183BF2B2E81809F080
:10D00000E3F99EE68813000018BB0210F09600209A
:10D01000B887FFFF701E00200F7900001079000014
:10D02000117900001279000013790000987800004F
:10D030009C7800009D7800009E7800009F7800009A
:10D04000A0780000C9780000CA780000CB78000002
:10D05000CC780000CD7800000B236B441E701A00C2
:10D06000002103A89946FEF7C5FBCF4B049EEB5C5D
:10D070000599002B00D097E0CC4BEB5C002B08D03F
:10D0800002234A461370B14200D121E133700136C8
:10D090000496C74BEB5C002B00D1A2E603234A4663
:10D0A00013708E4200D1C3E033700136049698E6C7
:10D0B000F123DB01EF183C3E1822380009F084F917
:10D0C000012E16D00B2E00D014E70B26B94B1E22D2
:10D0D000E95C183BE81809F077F90123E7E6082F27
:10D0E000F4D101260123E2E6082FEED10B2601231D
:10D0F000DDE643461E223800E95C09F065F90126A9
:10D10000F0E70B2204236A4413708E4200D1E7E05B
:10D11000039F33700136CB1B98460496BE4200D065
:10D120006AE6414630000FF029FB79E60B22042322
:10D130006A4413708E4200D1E8E0039F33700136D9
:10D14000CB1B98460496BE4200D046E741463000CD
:10D150000FF014FBF5E50B226A440021137003A8BD
:10D160009146FEF747FB944B049EEB5C0599002B20
:10D1700023D1924BEB5C002B08D002234A4613705C
:10D18000B14200D1BAE03370013604968C4BEB5CAF
:10D19000002B00D116E703234A4613708E4256D067
:10D1A0003370013604960DE74B4642461A708E42A4
:10D1B0002AD03270013604965EE701234A46137086
:10D1C000B14213D0337001360496D2E7F6B2D8E6F6
:10D1D000002E00D0A1E6002B00D0D2E6D8E60B232B
:10D1E0006B44994601234A460026137031004A4693
:10D1F00003A8FEF7FFFA049E0599BAE70B234246FF
:10D200006B44994600211A704A4603A8FEF7F2FAC9
:10D21000049E059930E7002E00D101E681E7002E3B
:10D2200000D18EE592E70B236B44994600261F70D0
:10D2300031004A4603A8FEF7DDFA049E0599D0E5C1
:10D240000B236B44994603234A4600261370310092
:10D250004A4603A8FEF7CEFA049E0599B2E60B22D1
:10D260006A440021137003A89146FEF7C3FA554B98
:10D27000049EEB5C0599002B76D1534BEB5C002BA5
:10D2800007D002234A461370B1427DD03370013675
:10D2900004964E4BEB5C002B00D15BE603234A4621
:10D2A00013708E4258D033700136049652E60B222A
:10D2B00004236A4413708E426ED033700136049694
:10D2C0004DE60B236B44994602234A460026137011
:10D2D00031004A4603A8FEF78DFA049E0599D8E668
:10D2E000310003A8FEF786FA049E05997EE50B231C
:10D2F0006B44994602234A460026137031004A4681
:10D3000003A8FEF777FA049E05993FE7310003A8CA
:10D31000FEF770FA049E059959E60B236B44994673
:10D3200001234A46002113704A4603A8FEF762FA19
:10D33000049E0599A1E73E00B7E5002E00D127E63F
:10D34000190030000FF01AFA22E60B236B449946BD
:10D3500003234A460026137031004A4603A8FEF70D
:10D3600049FA049E0599F5E501234A4613708E4259
:10D37000DAD03370013604967FE70B236B4499466D
:10D3800002234A460026137031004A4603A8FEF7DE
:10D3900031FA049E05997CE7310003A8FEF72AFACA
:10D3A000049E0599DBE5C046107900001179000064
:10D3B0001279000098780000CA780000CB7800004D
:10D3C000CC7800009D7800009E7800009F780000D7
:10D3D000036AF0B5013B9D05C646ED1AAD01ED1897
:10D3E0006D00ED18CC4B00B59C4686B0ED00654451
:10D3F00004001CF043FA32210CF038FD0026002313
:10D400004919E360616026611CF038FAB4214900D3
:10D410000CF02CFD250008000EF01AFF9423503567
:10D42000A060E55067681CF029FA14210CF01EFD7D
:10D430002200CB19210028000C3208310096FBF79E
:10D44000B1F8B64B00211D682B6828005B6898472F
:10D45000FF222B6800929F680022002300212800F1
:10D46000B847276A012F2BD0AF21AD4D49002800C6
:10D4700008F0BEFF1E2363612300012240331A73AC
:10D4800028230026A364253BA3626664A6830AF0D2
:10D49000D9F902230722FF33A387636820636163FE
:10D4A000D9170A40D2189F4BD210E8180721002341
:10D4B0006432009608F0F2FD06B080BCB846F0BDBC
:10D4C000994D9A4B039604960596EB5C002B00D081
:10D4D0004CE1974BEB5C002B00D018E2954BEB5CDA
:10D4E000002B00D077E2944BEB5C002B00D022E2C3
:10D4F00000210026914BEB5C002B00D08BE1039FB9
:10D50000CB1B9846B74200D10DE21CF0B7F9F11BD6
:10D510000CF0D4FC7E5C002F03D0414638000FF0A5
:10D520002DF9874B7336E95C183BF2B2E81808F026
:10D530004BFFFA239B0098462F69012347451DDBCB
:10D54000414638000CF092FC4146060038000CF0D1
:10D550008DFC30000F0041460CF088FC012905DDF0
:10D56000F123DB010022E818FEF7B0F9744B1D220D
:10D57000E95C183BE81808F027FF0023632F00DC64
:10D5800062E2642138000CF071FC642180463800AE
:10D590000CF06CFC6A4B0E00E95CC72F06DD4346BD
:10D5A000DAB2F123DB01E81808F00EFF644B1C220D
:10D5B000E95C183BE81808F007FF0023604A904632
:10D5C000142E00DC8DE10A2130000CF04FFC4346A4
:10D5D0000700E95C072800D1F4E0092817D04307C9
:10D5E0001B1A9B001B1A5B000200F618F123123273
:10D5F000DB01D2B2E81808F0E7FE012E00D1F8E016
:10D600000B2E00D1FAE0002E4BD00123D8E7F123F6
:10D61000DB01503E1A22E81808F0D6FE012E00D198
:10D62000E9E00B2E00D1EBE0002E3AD0731C00D0C5
:10D6300055E10023434A039304930593AA5C002A0F
:10D6400000D096E1404BEB5C002B00D0EEE13F4B6D
:10D65000EB5C002B00D019E23D4BEB5C002B00D0C3
:10D66000FCE1002100263B4BEB5C002B00D0A8E145
:10D67000039FCB1B9846BE4200D1E7E11CF0FEF8A9
:10D68000F11B0CF01BFC7E5C002F03D041463800E0
:10D690000FF074F82A4B3200E95C183BE81808F0E8
:10D6A00093FE00232C4A039304930593AA5C002A5B
:10D6B00000D0DAE0294BEB5C002B00D018E1284BBE
:10D6C000EB5C002B00D09BE1264BEB5C002B00D0E9
:10D6D00040E100210026244BEB5C002B00D0AFE0A2
:10D6E000039FCB1B9846B74200D120E11CF0C6F83F
:10D6F000F11B0CF0E3FB7E5C002F03D041463800A9
:10D700000FF03CF80E4B2D36E95C183BF2B2E818EE
:10D7100008F05AFEA8E6C0468813000018BB0210A5
:10D72000F0960020B887FFFF701E00200F790000E0
:10D7300010790000117900001279000013790000BF
:10D74000987800009C7800009D7800009E7800008A
:10D750009F780000A0780000C9780000CA78000017
:10D76000CB780000CC780000CD7800000B236B4410
:10D770001E701A00002103A89846FEF73BF8CE4B16
:10D78000049EEB5C0599002B00D097E0CB4BEB5C43
:10D79000002B08D0022342461370B14200D121E190
:10D7A000337001360496C64BEB5C002B00D1A1E62A
:10D7B000032342461370B14200D1C3E033700136F7
:10D7C000049697E6F123DB01EF183C3E182238005F
:10D7D00008F0FAFD012E16D00B2E00D013E70B2611
:10D7E000B84B1E22E95C183BE81808F0EDFD012358
:10D7F000E6E6082FF4D101260123E1E6082FEED159
:10D800000B260123DCE643461E223800E95C08F0C3
:10D81000DBFD0126F0E70B2204236A441370B142BA
:10D8200000D1E7E0039F33700136CB1B9846049686
:10D83000BE4200D069E6414630000EF09FFF78E618
:10D840000B2204236A4413708E4200D1E7E0039F49
:10D8500033700136CB1B98460496BE4200D045E794
:10D86000414630000EF08AFFFEE50B226A4400219B
:10D87000137003A89046FDF7BDFF934B049EEB5C2D
:10D880000599002B22D1914BEB5C002B08D0022391
:10D8900042461370B14200D1B9E0337001360496AC
:10D8A0008B4BEB5C002B00D115E703234246137032
:10D8B0008E4256D03370013604960CE743461F70F3
:10D8C0008E4229D03770013604965FE70123424625
:10D8D0001370B14213D0337001360496D3E7F6B219
:10D8E000D8E6002E00D0A1E6002B00D0D2E6D8E684
:10D8F0000B236B44984601234246002613703100E7
:10D90000424603A8FDF776FF049E0599BBE70B236B
:10D910006B44984600211F70424603A8FDF76AFF3A
:10D92000049E059932E7002E00D102E683E7002E1F
:10D9300000D199E594E70B236B44984603234246B4
:10D94000002613703100424603A8FDF753FF049EE2
:10D950000599CFE50B236B449846032342460026E6
:10D9600013703100424603A8FDF744FF049E059959
:10D97000B1E60B226A440021137003A89046FDF71C
:10D9800039FF544B049EEB5C0599002B75D1524B2B
:10D99000EB5C002B07D00223424613708E427CD0F2
:10D9A0003370013604964D4BEB5C002B00D15AE6E8
:10D9B0000323424613708E4257D0337001360496CB
:10D9C00051E60B2204236A441370B1426DD03370C8
:10D9D000013604964CE60B236B44984602234246DC
:10D9E000002613703100424603A8FDF703FF049E92
:10D9F0000599D8E603A8FDF7FDFE049E05997EE58E
:10DA00000B236B44984602234246002613703100D4
:10DA1000424603A8FDF7EEFE049E059940E731005B
:10DA200003A8FDF7E7FE049E059959E60B236B4416
:10DA300098460123424600211370424603A8FDF791
:10DA4000D9FE049E0599A2E73E00B7E5002E00D15D
:10DA500027E6190030000EF091FE22E60B236B44FE
:10DA6000984603234246002613703100424603A81D
:10DA7000FDF7C0FE049E0599F5E5012342461370AB
:10DA80008E42DAD033700136049680E70B236B4464
:10DA9000984602234246002613703100424603A8EE
:10DAA000FDF7A8FE049E05997DE703A8FDF7A2FEF9
:10DAB000049E0599DCE5C04610790000117900004C
:10DAC0001279000098780000CA780000CB78000036
:10DAD000CC7800009D7800009E7800009F780000C0
