:020000041000EA
:1080000000200420F7800010C3800010C5800010FD
:10801000C1800010C1800010C1800010C18000101C
:10802000C1800010C1800010C1800010C780001006
:10803000C1800010C1800010C9800010CB800010EA
:10804000CD800010CD800010CD800010CD800010BC
:10805000CD800010CD800010CD800010CD800010AC
:10806000CD800010CD800010CD800010CD8000109C
:10807000CD800010CD800010CD800010CD8000108C
:10808000CD800010CD800010CD800010CD8000107C
:10809000CD800010CD800010CD800010CD8000106C
:1080A000CD800010CD800010CD800010CD8000105C
:1080B000CD800010CD800010CD800010CD8000104C
:1080C00000BE00BE00BE00BE00BE00BEEFF30580D5
:1080D000103800BEF2EB88712C9C0210489C0210F4
:1080E0003481001090A31AE700201F49086006C8D9
:1080F00081F3088810471D48006800282FD10DA47F
:108100000ECC002902D000F012F8F9E71849194AFC
:10811000002000E001C19142FCD11749884717496E
:1081200088471749884700BEFDE701C901C29A4246
:10813000FBD37047489C0210C0000020641B002045
:10814000ECB602100000042000000420ECB602107F
:1081500000100420001004200000000070470948AF
:108160000EF0FCFB0047000008ED00E0000000D02E
:10817000681B0020AC8800201D50011031A80110A0
:10818000515101105756000006005250ABB36053D6
:108190000C72021006005250861C03021C72021060
:1081A000060052505422A29D207202100500525027
:1081B000DE65F468ECB60210F8B5C046064807491B
:1081C000091A8B10C90FC91810B5491003D0044BF8
:1081D000002B00D0984710BD641B0020641B0020BA
:1081E00000000000054B10B5002B03D004490548E2
:1081F00000E000BFFFF7E2FF10BDC0460000000036
:108200007C7D0020C86E021010B50E2112F0D8FE41
:1082100010BDC046F0B585B0040011F0D1FA0728B2
:108220001CD8002818D0072803D84D4A80001358BE
:108230009F4611F0E9FA4B4B20802C2401000025C9
:1082400018680023484EFF34994200DC7BE09A0016
:1082500001338650A342F7D105B0F0BD64285DD04C
:108260006528F9D111F0E8FAC82011F0EDFA0023E1
:10827000E05E11F0F5FA0223E05E11F0F1FA04235A
:10828000E05E11F0EDFA0623E05E11F0E9FA082352
:10829000E05E11F0E5FA0A23E05E11F0E1FAA08950
:1082A00011F0EEFA11F0FCFAD6E711F0ADFAA08168
:1082B000D2E711F093FAB42160806930FF304900B1
:1082C0000EF07EFB208800254843B42149000EF0C3
:1082D00077FB244B2C211C680023234E8700FF31A1
:1082E000984206D09A000133A5508B42B4D09842F0
:1082F000F8D1431CE6518B42F2D1ADE711F06EFA92
:10830000A080A9E711F06AFAE080A5E711F066FA0B
:108310002081A1E711F062FA60819DE7A58904221E
:10832000A35E0221625E218803950A26A55F0F489D
:1083300002950826A55F01950625645F009412F05A
:108340000BFA89E713009A0085505A1CA24200D10B
:1083500082E79142F6DD92008650023374E7C04610
:10836000407E02106814002000FFFFFFC86E02105C
:10837000F8B5B823CE4647465B0080B50400C75821
:10838000806910F017FDCE21890510F0BCFCB623E2
:108390005B00061C391CE05810F09BFC011C301CD3
:1083A00010F0B1FC391C10F097FC10F025FD10F016
:1083B00001FD8221C90510F0A6FC10F01DFD8721EA
:1083C000C9000EF0FDFA254D89004859244AC1170D
:1083D000430BC9041943C00400230EF03FFBA8223D
:1083E0005200A050030026008020A11894462200CD
:1083F0003936000581468F681A4D3832FF3619E04C
:10840000F820000680464344181480464B60DB1772
:108410005B0D984440464005400DC31A5B00EB5E7F
:1084200010687B4380461B14434408C2B24210D0FC
:108430006346E3588869804648684344804643441D
:108440004B45DDDA002BDFDA80200005804643440F
:10845000DAE7C0BCB946B046F8BDC046083A0020CD
:10846000C05D0000E84A00207047C0467047C04623
:108470007047C0467047C046F0B5C6460D000400C0
:10848000816800B52868160010F026FC2860A768EF
:1084900080460021381C10F06DFC00282BD10021F3
:1084A000381C10F07DFC00280AD0206910F082FCF6
:1084B000071C011C404610F073FC002800D02F6000
:1084C000E168306810F008FC3060E468051C0021A9
:1084D000201C10F065FC002819D0174B0A20185EEC
:1084E00010F068FC011C281C10F052FC431E98413F
:1084F00080BCB846F0BD206910F05CFC071C011C74
:10850000404610F037FC0028DAD02F60D8E7002171
:10851000201C10F02FFC00280CD0074B0A20185EFE
:10852000404210F047FC011C281C10F029FC431E9F
:108530009841DDE70020DBE7441400207047C04687
:1085400070B50400180013680D00E3600B68236128
:108550000EF04EFD02000B00002018490EF0B1FC99
:108560000EF0A6FD0023A06063601DF037FC3C21E7
:108570000EF026FA04981E390A30484314210EF0F2
:108580001FFA2D68B43006000D49281C10F0F2FBCC
:10859000002809D0300010F00DFC291C10F09CFBC5
:1085A00010F02AFC606170BD300010F003FC011C6B
:1085B000281C10F08EFB10F01FFCF3E70000444075
:1085C00000003443F8B5CE464746804680B51800D3
:1085D000170089460EF00CFD454B04000A20185E7A
:1085E0000D000EF005FD02000B000EF061FC0022F4
:1085F000404B0EF084FC2B0022000EF062FC0EF0CB
:1086000057FD4346D860061C0021386810F0C8FBAF
:10861000002805D080231B069C4643466644DE6046
:10862000089B002B62DD98002D285DDC0F3010F0D8
:10863000C1FB434658601DF0D1FBC3179B0DC0180A
:108640008005800DC01A0EF0D3FC00222A4B0EF0DC
:1086500056FC0022294B0EF052FC0022264B0EF055
:1086600027FC4346060058680F0010F02BFC020060
:108670000B00300039000EF042FC0EF0D1FC060079
:108680001DF0ACFBC00700D576424B461F6830009A
:1086900010F090FB391C10F01FFB10F0ADFBB42361
:1086A0005B0098421CDD18004346186110F082FB05
:1086B000391C10F00EFB124910F025FB10F002FCE3
:1086C00002000B000EF0F4FB2B0022000EF0F9FB71
:1086D0000EF0EEFC43469860C0BCB946B046F8BD0B
:1086E000C343DB171840DFE72D209FE70548A0E7CD
:1086F00044140020000044400000E03F0000503FD0
:10870000000020420000704110B504001DF066FB1F
:10871000962149000EF054F9A423C8315B00E150C2
:108720001DF05CFB0F210EF04BF92C31080010F00E
:1087300041FBB6235B00E05010BDC04610B50400FD
:108740001DF04CFB96210EF03BF9A42314315B0085
:10875000E1501DF043FB1E210EF032F9B2236931C6
:108760005B00E1501DF03AFB0C210EF029F9B42317
:1087700001315B00E1501DF031FB14210EF020F9B6
:1087800008000EF035FC0022124B0EF091FB0EF0AB
:108790008FFCBC235B00E0501DF020FBC217920D44
:1087A00083189B059B0D981A10F004FB0A4910F0E2
:1087B000AAFAEA21890510F0A6FA10F083FB074A0D
:1087C000074B0EF075FB0EF073FCBA235B00E05014
:1087D00010BDC04600002E40E2AE5E3F9A999999C6
:1087E0009999B93F10B504001DF0F8FAE12149004C
:1087F0000EF0E6F8A42332315B00E1501DF0EEFAF2
:108800000A210EF0DDF8B22352315B00E1501DF079
:10881000E5FA06210EF0D4F8B42301315B00E150F3
:108820001DF0DCFA05210EF0CBF808000EF0E0FB9D
:108830000022124B0EF03CFB0EF03AFCBC235B0016
:10884000E0501DF0CBFAC217920D83189B059B0DCB
:10885000981A10F0AFFA0A4910F055FAEA21890582
:1088600010F051FA10F02EFB064A074B0EF020FBD9
:108870000EF01EFCBA235B00E05010BD0000144057
:10888000E2AE5E3F9A9999999999B93FF0B5CE4673
:1088900000B5070082B0894681684068160010F074
:1088A0001BFA786010F00EFB02000B000EF000FBCC
:1088B00000222F4B0EF0F3FA04000D0000222D4B86
:1088C0000EF01DFB22002B000EF019FB0022294B9D
:1088D0000EF0EEFA0400F8680D0010F0F3FA020052
:1088E0000B00200029000EF00AFB0EF0E1FB3060C7
:1088F000786810F0E7FA204A204B0EF000FB0EF0EB
:10890000F9FB3E6900900191786910F053FA311C2F
:1089100010F0DFF910F0D6FA009A019B04000D0068
:10892000002013490EF0BBFA0022124B0EF0E7FABA
:1089300002000B00200029000EF0E1FA0400301CB8
:108940000D0010F0BFFA02000B00200029000EF00D
:10895000AFFA0EF0ADFB4B46FE2118607868890532
:1089600010F01EFA431E984102B080BCB946F0BD1B
:108970000000F03F0000E03F6E861BF0F921094047
:10898000D82110B50400490010F0AAFC200010BD49
:10899000C02110B50400490010F0A2FC200010BD59
:1089A000C02110B50400490010F09AFC200010BD51
:1089B000BC2110B50400490010F092FC200010BD4D
:1089C00010B50400982110F08BFC200010BDC046AB
:1089D00070B5084C2500243D0C3C2068002806D0CA
:1089E000A168091A10F07CFCAC42F5D170BDAC4214
:1089F000F2D1FBE7885B0020F0B5D64646464F46ED
:108A0000C0B51E00CA235B00C358040098460D0081
:108A1000884417001DF0E2F9CC235B00E1580DF00B
:108A2000CFFF414408000A2900DC88E06E2900DD00
:108A300087E010F0BFF9D0235B00E050280010F071
:108A4000B9F9B8235B00E050143BF50FE358AD19BA
:108A5000E7606D109D4200DD1D00B2235B00E3580E
:108A6000761B9946B0234A465B00E358B21A9046FB
:108A70009A4200DD98464346002B01DC01239846CC
:108A80002E1E00DC0126802071008919C9004004D7
:108A90000DF096FF4F46434660622362002F00DCD4
:108AA000012780207900C919C90040040DF088FF12
:108AB00000234644236323000122B2462033BA44F4
:108AC000E0621A750BF068FC5346FA2206000F00AC
:108AD0009200D9175046002310F0DEF88019794132
:108AE0000B008021020009068B4202D30122164BA3
:108AF0005242226463640BF04FFC06002800FA2205
:108B0000404448440F000023920000210A3010F036
:108B1000C3F8801979410B008021020009068B42BD
:108B200002D30122084B5242E364A823A26400222C
:108B30005B00E250E0BCBA46B146A846F0BD03482F
:108B400079E76E2075E7C046FFFFFF7F00002041F8
:108B500070B50B4C250020683C3D00280BD0A16867
:108B6000091A10F0BDFB23000C3BAC4207D01C00DF
:108B700020680028F3D123000C3BAC42F7D170BD34
:108B8000585B002070B504001DF028F9C3179B0D39
:108B9000C0188005800DC01A10F00CF98121C9059C
:108BA00010F0B1F8EA21890510F0ADF88121C9056E
:108BB00010F092F8051C1DF011F9C217920D8318E0
:108BC0009B059B0D981A10F0F5F8644910F09BF87E
:108BD000EA21890510F097F89421061CC905281C84
:108BE00010F091F85E4910F07AF810F037F9FE2194
:108BF000A0828905301C10F0BDF8002800D09CE050
:108C0000FA20800060821DF0E9F8C3179B0DC018A0
:108C10008005800DC01A10F0CDF8EA21890510F00A
:108C200072F8051C011C10F06EF8291C10F06BF88E
:108C300010F048F900224B4B0EF061F90EF0F0F9FC
:108C4000AE235B00E0501DF0C9F8FA2149000DF099
:108C5000B7FEB023C8315B00E1501DF0BFF8C31769
:108C60009B0DC0188005800DC01A10F0A3F8EA21F2
:108C7000890510F048F8011C10F045F810F022F9B1
:108C80000022394B0EF03BF90EF0CAF9B2235B001B
:108C9000E0501DF0A3F8C3179B0DC0188005800D90
:108CA000C01A10F087F8314910F02DF8EA21890533
:108CB00010F029F8B4235B00E0501DF08FF8182164
:108CC0000DF07EFECA230F315B00E1501DF086F8E7
:108CD00024210DF075FECC2301315B00E1501DF025
:108CE0007DF814210DF06CFE08000EF081F90022D1
:108CF0001F4B0EF0DDF80EF0DBF9D4235B00E050E3
:108D00001DF06CF8C3179B0DC0188005800DC01AAC
:108D100010F050F817490FF0F6FFEA2189050FF01F
:108D2000F2FF10F0CFF8144A144B0EF0C1F80EF019
:108D3000BFF9D2235B00E05070BD0021301C10F061
:108D40002FF8002807D00E49301C0FF0DCFF10F080
:108D500085F880B256E7002054E7C046CDCC4C3EA3
:108D60000080BB460000494000008940E820553F94
:108D70000000F03FE2AE5E3F9A9999999999B93F08
:108D800000007A440300F0B5D6464F4646465133BC
:108D9000FF33C0B59960A2235B00C3580400984616
:108DA000A4235B00C558083BC35889469A46002B4C
:108DB00001DC01239A465346802059005144C900E2
:108DC00040040DF0FDFD4346E060A360002D00DC93
:108DD0000125802069004919C90040040DF0F0FD0B
:108DE0000023A3610133237760610BF0D5FA0600FD
:108DF0004046FA2250440F000023920000214019FF
:108E00000FF04AFF801979410B008021020009060A
:108E10008B4202D30122194B5242E362A0235B0032
:108E2000E5580433E358A262ED18A4235B00E3582D
:108E3000ED180BF0B1FAFA2206000F0000239200A1
:108E4000280000210FF028FF801979410B008021B4
:108E5000020009068B4202D30122084B524263638F
:108E6000A62322634A465B00E2500022143BE250F4
:108E7000E0BCBA46B146A846F0BDC046FFFFFF7F42
:108E8000F0B5B223D6464F4646465B00C0B5C5583E
:108E9000040089461CF0A2FFB4235B00E1580DF0EA
:108EA0008FFD48190A2800DC76E0862800DD75E091
:108EB0000FF080FFB8235B00E0502C3BE35898464E
:108EC000A4235B00E558083BE3589A46002B01DCDD
:108ED00001239A465346802059005144C90040045A
:108EE0000DF06EFD4346E060A360002D00DC01251F
:108EF000802069004919C90040040DF061FD00237C
:108F0000A3610133237760610BF046FA0600404607
:108F1000FA2250440F0000239200002140190FF064
:108F2000BBFE801979410B008021020009068B42AB
:108F300002D301221A4B5242E362A0235B00E558A0
:108F40000433E358A262ED18A4235B00E358ED1844
:108F50000BF022FAFA2206000F00002392002800EC
:108F600000210FF099FE801979410B008021020049
:108F700009068B4202D30122094B52426363A623A6
:108F800022634A465B00E2500022143BE250E0BC00
:108F9000BA46B146A846F0BD02488BE7862087E76F
:108FA000FFFFFF7F00002041F0B5B223D6464F46B9
:108FB00046465B00C0B5C558040089461CF00EFF4C
:108FC000B4235B00E1580DF0FBFC48190A2800DCD3
:108FD00076E0862800DD75E00FF0ECFEB8235B003C
:108FE000E0502C3BE3589846A4235B00E558083B2F
:108FF000E3589A46002B01DC01239A465346802011
:1090000059005144C90040040DF0DAFC4346E060C9
:10901000A360002D00DC0125802069004919C900EA
:1090200040040DF0CDFC0023A36101332377606180
:109030000BF0B2F906004046FA2250440F0000231C
:109040009200002140190FF027FE801979410B0092
:109050008021020009068B4202D301221A4B5242A0
:10906000E362A0235B00E5580433E358A262ED18E5
:10907000A4235B00E358ED180BF08EF9FA220600EA
:109080000F0000239200280000210FF005FE801938
:1090900079410B008021020009068B4202D3012294
:1090A000094B52426363A62322634A465B00E250A7
:1090B0000022143BE250E0BCBA46B146A846F0BDDF
:1090C00002488BE7862087E7FFFFFF7F00002041F3
:1090D000F0B5C64600B5037D04000D001600002B58
:1090E00013D0C7680021381C0FF05AFE0021002859
:1090F00044D030680FF04CFE002806D080231B06B9
:109100009C4600236744E7602375A16828680FF038
:10911000E3FD2860A76880460021381C0FF02AFE76
:1091200000284AD10021381C0FF03AFE00280AD04E
:1091300020690FF03FFE071C011C40460FF030FE77
:10914000002800D02F60E16830680FF0C5FD306066
:10915000E468051C0021201C0FF022FE002819D015
:109160001D4B0A20185E0FF025FE011C281C0FF075
:109170000FFE431E984180BCB846F0BD381C0FF06E
:10918000F9FD0028C1D0002130680FF0F9FD00285A
:10919000BBD0B3E70021201C0FF0ECFD002818D055
:1091A0000D4B0A20185E40420FF004FE011C281CE3
:1091B0000FF0E6FD431E9841DDE720690FF0FAFD50
:1091C000071C011C40460FF0D5FD0028BBD02F60C6
:1091D000B9E70020CFE7C04644140020F8B5CE46DA
:1091E0004746804680B51800170089460DF000FFFD
:1091F000474B04000A20185E0D000DF0F9FE020036
:109200000B000DF055FE0022424B0DF078FE2B00B6
:1092100022000DF056FE0DF04BFF4346D860061CB1
:10922000002138680FF0BCFD002805D080231B0604
:109230009C4643466644DE60089B002B65DD980033
:109240002D2860DC0F300FF0B5FD434658601CF050
:10925000C5FDC3179B0DC0188005800DC01A0DF009
:10926000C7FE00222C4B0DF04AFE00222B4B0DF0C6
:1092700046FE0022284B0DF01BFE434606005868B0
:109280000F000FF01FFE02000B00300039000DF040
:1092900036FE0DF0C5FE06001CF0A0FDC00700D58F
:1092A00076424B461F6830000FF084FD391C0FF0EA
:1092B00013FD0FF0A1FDB4235B0098421FDD1800E1
:1092C000434618610FF076FD391C0FF002FD14497A
:1092D0000FF019FD0FF0F6FD02000B000DF0E8FD98
:1092E0002B0022000DF0EDFD0DF0E2FE434642465C
:1092F000986001231375C0BCB946B046F8BDC3439E
:10930000DB171840DCE72D209CE706489DE7C046A8
:1093100044140020000044400000E03F0000503FA3
:109320000000204200007041F0B5DE464E46454642
:109330005746E0B5CE26D0238046760087595B009D
:1093400089B0C058391C0FF0C4FC0FF0BBFDD2230C
:1093500042465B000400D0580D000FF0B3FD020040
:109360000B000020B9490DF09AFD02000B0020000F
:1093700029000DF0C4FD0400381C0D000FF0A2FD03
:1093800002000B00200029000DF092FD0DF090FE70
:1093900043469851D42342465B00D7588146381C37
:1093A0000FF090FDAA4AAB4B04000D000DF0A7FD95
:1093B0000022A64B0DF07CFD0DF07AFE029048468F
:1093C0000FF01AFD0FF0F6FC8221C9050FF09BFC8F
:1093D0000FF012FD8721C9000DF0F2FAFF209E4E1A
:1093E00089008B59DA171040C01800120FF0E2FC08
:1093F000061C0FF067FD994A994B0DF0CBFD002834
:1094000011D00021381C0FF0B5FC002800D089E0F5
:1094100020002900914A924B0DF0BCFD002800D09D
:1094200080E0904E15E09049301C0FF06CFC8F49A5
:109430000FF055FC0021061C381C0FF09BFC002887
:109440005AD120002900854A854B0DF0A3FD002844
:1094500052D1391C301C0FF042FCFE218905041C3E
:109460000FF09EFC002847D1FE20211C80050FF044
:1094700030FC8023071C1B06C018391C0FF043FC6E
:10948000211C8346201C0FF027FC79490390301CD7
:109490000FF07EFC002805D07649301C0FF070FCE0
:1094A000002849D10020391C0FF02DFCC0235A465A
:1094B0005B00994643449A469860DA60391C051C63
:1094C000301C0FF020FC211C0FF006FC03990FF05C
:1094D0001AFC02990FF017FC53461861BA23424652
:1094E0005B00D35C041C002B5AD109B0F0BCBB4616
:1094F000B246A946A046F0BD8023DB050393802336
:10950000FE241B065A49301C9B460027A4050FF079
:109510003FFC0028C6D05749301C0FF031FC002812
:10952000C0D009E08023DB0503938023FE241B06C3
:109530009B4600274B4EA405311C301C0FF0E3FB6B
:10954000011C051C0FF0DFFB8146011C281C0FF0DD
:10955000DAFB49490FF0D7FB4849824648460FF0ED
:10956000D2FB011C50460FF0B7FB0FF0ABFC049090
:109570000591281C0FF0A6FC0022414B0DF0BFFC0A
:1095800002000B00049805990DF089FC00222F4B76
:109590000DF08EFC0DF08CFD011C0FF09DFB82E7A1
:1095A0008B21281CC9050FF0AEFB0FF063FC049162
:1095B0008B210390C90558460FF0A5FB0FF05AFC0C
:1095C000079188210690C905201C0FF09CFB0FF025
:1095D00013FC43464A468346985853465D68A82381
:1095E00044465B00434450340293039A049BC117E2
:1095F0000FF052FB069A06000F002800079BE917A0
:109600000FF04AFB80197941CB171B051B0D009306
:1096100000230193009A019B801859410A05030B0E
:1096200013435A462068C0184243D317DB05DB0DAD
:109630009B185B1208C44A4643469D5853465D60DA
:1096400043469850029B9C42CFD14EE70000F03F2A
:109650009A9999999999B93F083A0020FCA9F1D2B1
:109660004D62503F9D922B3BD00FC9400080BB46BE
:10967000D00FC9BFD00FC93F610BB6BAABAA2A3D04
:109680000000E03FF0B54546DE4657464E46E0B5A1
:10969000A6256D00435980468BB0002B00D080E09A
:1096A0003833434407939C235B0043449B46B626D0
:1096B000434676009F59B82342465B00D058391C78
:1096C0000FF007FB0FF0FEFBBA2342465B000400DD
:1096D000D0580D000FF0F6FB02000B000020C4492B
:1096E0000DF0DDFB02000B00200029000DF007FC4F
:1096F0000400381C0D000FF0E5FB02000B002000F9
:1097000029000DF0D5FB0DF0D3FC43469851BC2346
:1097100042465B00D5588146281C0FF0D3FBB54A62
:10972000B54B06000F000DF0EAFB0022B04B0DF028
:10973000BFFB0DF0BDFC039048460FF05DFB0FF042
:1097400039FB8221C9050FF0DEFA0FF055FB8721A6
:10975000C9000DF035F9FF20A84C89000B59DA1724
:109760001040C01800120FF025FB041C0FF0AAFBDC
:10977000A34AA44B0DF00EFC002827D00021281C82
:109780000FF0F8FA002800D0F0E0300039009C4AD1
:109790009C4B0DF0FFFB002800D0E7E09A4B0293B2
:1097A0002CE0382343441C0007939C235B00434474
:1097B0001F001CF013FB43465E5971000DF000F9C9
:1097C000891B02C4A742F4D1BB4670E78F49201C15
:1097D0000FF099FA8E490FF082FA00210290281CAE
:1097E0000FF0C8FA002800D0A5E030003900844A04
:1097F000844B0DF0CFFB002800D09CE0291C029880
:109800000FF06DFAFE218905071C0FF0C9FA002838
:1098100000D090E0FE20391C80050FF05AFA80231A
:10982000061C1B06C018311C0FF06DFA8B21C905F0
:10983000041C0FF068FA0FF01DFB05900691381C10
:10984000391C0FF049FA029D04907249281C0FF050
:109850009FFA002806D07049281C0FF091FA0028C2
:1098600000D090E00021301C0FF04DFAA8235B00DF
:10987000994643449A469860DC60051C311C029866
:109880000FF041FA391C0FF027FA04990FF03BFA58
:1098900003990FF038FA53468B211861041CC9054F
:1098A000281C0FF030FA0FF0E5FA0491882103909C
:1098B000C905201C0FF027FA0FF09EFA43464A46CE
:1098C000029098585346079C5D68039A049BC11701
:1098D0000FF0E2F9059A06000F002800069BE91731
:1098E0000FF0DAF980197941CB171B051B0D009396
:1098F00000230193009A019B801859410A05030B2C
:1099000020681343029AC0184243D317DB05DB0DCE
:109910009B185B1208C44A4643469D5853465D60F7
:1099200043469850A345D0D10BB0F0BCBB46B246DD
:10993000A946A046F0BD8023DB058024FE270493C2
:109940000023029D3349281C002605930693240614
:10995000BF050FF01DFA002800D183E72E49281C0F
:109960000FF00EFA002800D17CE70CE0264B802493
:1099700002938023DB05FE27049300230026059332
:1099800006932406BF050299081C0FF0BCF9011CC0
:1099900081460FF0B8F9011C824648460FF0B3F932
:1099A0001E490FF0B0F91E49051C50460FF0ABF9E7
:1099B000011C281C0FF090F90FF084FA089009910F
:1099C00048460FF07FFA0022164B0DF098FA02007D
:1099D0000B00089809990DF062FA0022044B0DF073
:1099E00067FA0DF065FB011C0FF076F9011C3AE7F0
:1099F0000000F03F9A9999999999C93F083A002037
:109A0000FCA9F1D24D62503F9D922B3BD00FC94033
:109A10000080BB46D00FC9BFD00FC93F610BB6BA9B
:109A2000ABAA2A3D0000E03FF0B54546DE4657466A
:109A30004E46E0B5A6256D00435980468BB0002BFD
:109A400000D080E03833434407939C235B004344B9
:109A50009B46B626434676009F59B82342465B0094
:109A6000D058391C0FF035F90FF02CFABA234246C2
:109A70005B000400D0580D000FF024FA02000B0028
:109A80000020C4490DF00BFA02000B002000290051
:109A90000DF035FA0400381C0D000FF013FA020027
:109AA0000B00200029000DF003FA0DF001FB4346E6
:109AB0009851BC2342465B00D5588146281C0FF0C4
:109AC00001FAB54AB54B06000F000DF018FA002256
:109AD000B04B0DF0EDF90DF0EBFA039048460FF0A6
:109AE0008BF90FF067F98221C9050FF00CF90FF01F
:109AF00083F98721C9000CF063FFFF20A84C89007F
:109B00000B59DA171040C01800120FF053F9041C5B
:109B10000FF0D8F9A34AA44B0DF03CFA002827D047
:109B20000021281C0FF026F9002800D0F0E03000BA
:109B300039009C4A9C4B0DF02DFA002800D0E7E03C
:109B40009A4B02932CE0382343441C0007939C2338
:109B50005B0043441F001CF041F943465E5971000D
:109B60000CF02EFF891B02C4A742F4D1BB4670E75C
:109B70008F49201C0FF0C7F88E490FF0B0F8002174
:109B80000290281C0FF0F6F8002800D0A5E0300065
:109B90003900844A844B0DF0FDF9002800D09CE088
:109BA000291C02980FF09BF8FE218905071C0FF075
:109BB000F7F8002800D090E0FE20391C80050FF057
:109BC00088F88023061C1B06C018311C0FF09BF878
:109BD0008B21C905041C0FF096F80FF04BF9059086
:109BE0000691381C391C0FF077F8029D04907249D9
:109BF000281C0FF0CDF8002806D07049281C0FF063
:109C0000BFF8002800D090E00021301C0FF07BF856
:109C1000A8235B00994643449A469860DC60051C83
:109C2000311C02980FF06FF8391C0FF055F80499A9
:109C30000FF069F803990FF066F853468B2118610D
:109C4000041CC905281C0FF05EF80FF013F90491ED
:109C500088210390C905201C0FF055F80FF0CCF8AF
:109C600043464A46029098585346079C5D68039ABB
:109C7000049BC1170FF010F8059A06000F0028008A
:109C8000069BE9170FF008F880197941CB171B05DF
:109C90001B0D009300230193009A019B80185941EA
:109CA0000A05030B20681343029AC0184243D317D6
:109CB000DB05DB0D9B185B1208C44A4643469D58E2
:109CC00053465D6043469850A345D0D10BB0F0BCDD
:109CD000BB46B246A946A046F0BD8023DB058024E2
:109CE000FE2704930023029D3349281C0026059378
:109CF00006932406BF050FF04BF8002800D183E738
:109D00002E49281C0FF03CF8002800D17CE70CE01D
:109D1000264B802402938023DB05FE270493002337
:109D20000026059306932406BF050299081C0EF031
:109D3000EAFF011C81460EF0E6FF011C8246484600
:109D40000EF0E1FF1E490EF0DEFF1E49051C5046D5
:109D50000EF0D9FF011C281C0EF0BEFF0FF0B2F868
:109D60000890099148460FF0ADF80022164B0DF00F
:109D7000C6F802000B00089809990DF090F800222F
:109D8000044B0DF095F80DF093F9011C0EF0A4FFB3
:109D9000011C3AE70000F03F9A9999999999C93FB7
:109DA000083A0020FCA9F1D24D62503F9D922B3B16
:109DB000D00FC9400080BB46D00FC9BFD00FC93FEC
:109DC000610BB6BAABAA2A3D0000E03F0423037042
:109DD0007047C046F0B5D6464F4646460378C0B5F4
:109DE000042B3DD0022B00D191E096214B4F49002E
:109DF0003A88151C8A4238D8ADB2012B00D177E0E1
:109E0000474B0021C658301C0EF0ACFF002831D063
:109E1000002D25D0434B00269946434B00249846FD
:109E2000424B9A4606E0514669360134D150FF361E
:109E3000A54215DD290030000CF0C2FD0223F95EB9
:109E40000F22411A484605F053FD4246A30012680E
:109E50000028E8D169360134D050FF36A542E9DC4C
:109E6000E0BCBA46B146A846F0BD0D1CADB2012B10
:109E7000C6D13DE0002DF3D02B4B301C1C680EF0FA
:109E8000EDFFC0B202021218120212186307691E17
:109E90001202DB0F05293FD9002B36D001262260A4
:109EA000E81A41089B00E318C900C9181A605A60F3
:109EB00008338B42FAD101230342D1D0984383194E
:109EC0009900581C62508542CADD6418991C626072
:109ED0008D42C5DDD91CA2608D42C1DD191DE26035
:109EE0008D42BDDD053322619D42B9DD6261B7E778
:109EF00091235B01C3185B68002B00D080E70C4BFB
:109F00009C46604403F0EEFAAAE70026C8E7406AE0
:109F100003685B699847A3E70023D1E74414002056
:109F200018120000602F002068140020000A0AFFA9
:109F3000E811000070B505000E0014000FF040FCA1
:109F400001280AD0022800D070BD084B013CE2B2C3
:109F5000711CE81809F0C8F8F6E72800013CE2B2E5
:109F6000711C283008F0C0FBEEE7C046D01100009D
:109F7000F0B557464546DE464E46E0B507684668AA
:109F80009246F21B92109B4693009B180D001901FC
:109F90005B1819025B1819045B185B009B183A4A9E
:109FA000804683B093426BD0E91B0191B74259D0F0
:109FB00059008B424BD8002957D100230C249946D5
:109FC00001935A46504611680C9A00681268EB1BC0
:109FD0004B4407C3AF4212D04A463B0013CB13C2D7
:109FE000AB42FBD12A000C3A284BD21B92085343B8
:109FF0009B009A085C08A418A40018344C44AE4294
:10A0000010D0761B214B0C3EB60873439B009B0877
:10A0100001335E00F618B6002000320029000FF070
:10A0200051F9A419002F05D0434699683800C91B7F
:10A030000FF056F943464A461A60019A5C609A60EE
:10A0400003B0F0BCBB46B246A946A046F0BD104CDA
:10A0500020000FF03DF92300814604004B4401939A
:10A060000C34AEE7591C0133F1D2914203D84B00B6
:10A070005B189C00ECE711004B005B189C00E7E7C5
:10A08000044812F0A5FBC046AAAAAA0AABAAAA2AAB
:10A09000F8FFFF7FE46E0210F8B54546DE465746EE
:10A0A0004E460368E0B5934646682F4A9846050039
:10A0B0000F00F31A934253D04146791A8A46002B77
:10A0C00044D091465900994243D248460FF000F9D6
:10A0D0005B4652461B7804008354012353449B463D
:10A0E000F61B002A27DC8344002E0DDC43465E4429
:10A0F000002B19D12C604C446E60AC60F0BCBB46A8
:10A10000B246A946A046F8BD3200390058460FF0C5
:10A11000D9F843465E44002BECD005E0320039000C
:10A1200058460FF0CFF85E444346A968C91A404626
:10A130000FF0D6F8DEE741461BF0B4FBA344002E37
:10A14000ECDC4346A9685E44C91AF0E7012399464E
:10A15000BBE7802389461B069942B6D39146B4E7F4
:10A16000024812F035FBC046FFFFFF7FE46E02108D
:10A17000F8B54546DE4657464E460368E0B5934679
:10A1800046682F4A984605000F00F31A934253D0B1
:10A190004146791A8A46002B44D09146590099428B
:10A1A00043D248460FF094F85B4652461B780400B1
:10A1B0008354012353449B46F61B002A27DC834427
:10A1C000002E0DDC43465E44002B19D12C604C441C
:10A1D0006E60AC60F0BCBB46B246A946A046F8BD76
:10A1E0003200390058460FF06DF843465E44002BAC
:10A1F000ECD005E03200390058460FF063F85E44B9
:10A200004346A968C91A40460FF06AF8DEE741469E
:10A210001BF048FBA344002EECDC4346A9685E44D7
:10A22000C91AF0E701239946BBE7802389461B063C
:10A230009942B6D39146B4E7024812F0C9FAC04633
:10A24000FFFFFF7FE46E0210F0B5DE46454657463D
:10A250004E46E0B59DB005001BF0C0FD0C210CF092
:10A26000AFFB8B1F9846D7239B00EC184346012772
:10A2700023665D23E7541BF0B1FDC20F83183B40FA
:10A280009B1ADD2201339200AB54F0238F4A9B00CE
:10A29000EA501BF0A3FD3B00C20F801803409B1A3D
:10A2A000EC2203339200AB501BF098FD23210CF0FD
:10A2B00087FBED231E319B00E9502B00260045460D
:10A2C000002798461BF08AFDC3179B0DC018800518
:10A2D000800DC01A0EF06EFD8121C9050EF013FD30
:10A2E000EA2189050EF00FFD8121C9050EF0F4FC6D
:10A2F00081461BF073FDC3179B0DC0188005800DB0
:10A30000C01A0EF057FD72490EF0FDFCEA218905D6
:10A310000EF0F9FC94218246C90548460EF0F3FC84
:10A320006C490EF0DCFC0EF099FDFE216A4B8905AC
:10A33000E05250460EF01EFD002800D0B5E0FA2095
:10A340008000664BC936E0521BF048FDC3179B0DD9
:10A35000C0188005800DC01A0EF02CFDEA21890579
:10A360000EF0D1FC8146011C0EF0CDFC49460EF0EA
:10A37000CAFC0EF0A7FD0022594B0CF0C0FD0CF0FA
:10A380004FFE20601BF02AFDFA2149000CF018FB5B
:10A39000C83161601BF022FDC3179B0DC0188005FA
:10A3A000800DC01A0EF006FDEA2189050EF0ABFC07
:10A3B000011C0EF0A8FC0EF085FD0022494B0CF0AC
:10A3C0009EFD0CF02DFEA0601BF008FDC3179B0D39
:10A3D000C0188005800DC01A0EF0ECFC42490EF04A
:10A3E00092FCEA2189050EF08EFCE0601BF0F6FC81
:10A3F00018210CF0E5FA0F31A1631BF0EFFC2421CA
:10A400000CF0DEFA0131E1631BF0E8FC14210CF0E2
:10A41000D7FA08000CF0ECFD0022344B0CF048FD9C
:10A420000CF046FEE0641BF0D9FCC3179B0DC0186E
:10A430008005800DC01A0EF0BDFC2D490EF063FCA6
:10A44000EA2189050EF05FFC0EF03CFD294A2A4BFB
:10A450000CF02EFD0CF02CFE0137A064FF36032F0C
:10A4600050D000225D233566F2541BF0B7FC032167
:10A470000CF0A6FA31761BF0B1FC032303405A42DC
:10A4800053415C22B3541BF0A9FC03210CF098FA51
:10A49000043171651BF0A2FC28210CF091FA174BD6
:10A4A0000A313400B16573660CE7002150460EF0A6
:10A4B00077FC002801D100F0B1FC114950460EF0A4
:10A4C00022FC0EF0CBFC80B23BE7C046F82A00002D
:10A4D000CDCC4C3E0080BB46B8FEFFFFB6FEFFFF72
:10A4E0000000494000008940E820553F0000F03F4F
:10A4F000E2AE5E3F9A9999999999B93F8813000005
:10A5000000007A44BD231B019C46BA4BC4446446F8
:10A510009C46C444664645460D940A9620690368E5
:10A520001B69984723686268934200D063601434C3
:10A53000B442F3D11BF052FC64210CF041FA042028
:10A5400000220D9E0B001691B46871681890179246
:10A55000A14201D100F0BBFC8B6008604A6017ABE0
:10A560000C317160039318AF1BF038FC1E210CF006
:10A5700027FA042001220D9E0B001691B468716821
:10A5800018901792A14201D100F0AEFC08604A6019
:10A590008B600C3171601BF021FC64210CF010FA0F
:10A5A000042002220D9E0B001691B4687168189069
:10A5B0001792A14201D100F042FC08604A608B6012
:10A5C0000C3171601BF00AFC64210CF0F9F90420D5
:10A5D00003220D9E0B001691B468716818901792B3
:10A5E000A14201D100F034FC08604A608B600C315C
:10A5F00071601BF0F3FB0F210CF0E2F90D9B0531AC
:10A6000019731BF0EBFB50210CF0DAF9082004223F
:10A610000B001691784918906C186168A66817921B
:10A62000B14201D100F01DFC08604A608B600C3122
:10A6300061601BF0D3FB14210CF0C2F90120002251
:10A640000B001691A668616818901792B14201D16B
:10A6500000F010FC08604A608B600C3161601BF0F8
:10A66000BDFB28210CF0ACF9283121731BF0B6FB9F
:10A6700064210CF0A5F9884616916049102289469C
:10A68000A944494600234C688E6818921793B44237
:10A6900001D100F0F8FB636043462260A3600C34F4
:10A6A000082200234C604146189217931691A64247
:10A6B00001D100F0FEFB63604B462260A1600C34C8
:10A6C0005C600A2140460CF07BF9012200231892BD
:10A6D00017931690A64201D100F00FFC63604B4621
:10A6E0002260A0600C345C601BF078FB32210CF01F
:10A6F00067F94B463C3119731BF070FB05210CF0D8
:10A700005FF90800022900DD84E303210CF080F9E1
:10A710003B4A4B0094465B1811009B006344109326
:10A72000F02252009446AC4462460E92354A364BB3
:10A730000F92364A07951192EC2292009446AC444F
:10A7400062461492324A15959446AC4462468A4653
:10A750001D000C930B920F9811F0A4FC002800D060
:10A7600088E2079B0C9A1198DA6411F09BFC002890
:10A7700000D0F7E2079B109A99469A645346149EBC
:10A78000129313950023002418931994BB601BF0B7
:10A7900025FB06210CF014F94B425941092249428C
:10A7A0009143103105911BF019FB06210CF008F9BB
:10A7B000002901D1082305931BF010FB06210CF0A2
:10A7C000FFF8002901D10C2305931BF007FB06219C
:10A7D0000CF0F6F8002901D104230593002304931B
:10A7E0004B4600250893079BBB460024B2462F002A
:10A7F000984643E00C0C0000E40B0000F80B00004E
:10A80000645B0020E03900201C5B0020E43900205C
:10A8100008090000434642469B6CD26C1D6859688B
:10A820001268491B10780CF0CBF843006D5C1B18C4
:10A830009B00ED181BF0D2FA06210CF0C1F800299C
:10A8400000D107351BF0CAFA06210CF0B9F800292F
:10A8500000D10C3553460C221B6853430233039A34
:10A860005B195BB21370049A94426BD023705B4601
:10A8700001345C60059B01379F4270D01BF0AEFA3B
:10A8800064210CF09DF853465B68994200DAA5E11B
:10A8900053465B7A002BBDD11BF0A0FAFA21890048
:10A8A0000CF08EF808000CF0A3FB0022D44B0CF047
:10A8B00008FB0CF0FDFB011C0EF025FA0EF002FB6C
:10A8C0000022D04B0CF01BFB0CF0AAFB01300EF069
:10A8D00071FA061C1BF082FAC00703D480231B0602
:10A8E0009C46664428000EF065FA311C0EF0F4F91F
:10A8F0000EF082FA05000E2800DC23E143460E2507
:10A900009B6CBA0700D125E15246127A002A00D08A
:10A9100020E11A6859682800891A06920CF050F84C
:10A92000420012189200069B5B5C0C219B18524659
:10A9300012684A4302329B18039A5BB21370049A5E
:10A94000944293D121005846039AFFF711FC5B46CD
:10A950005C689B6801370493059B9F428ED1089BDE
:10A960005F4699464A46996818683B685460136088
:10A970004B46049A56469A60002802D0091A0EF0F7
:10A98000AFFC0C239C46C9360B9BFF36E144B34217
:10A9900000D0F7E62422129B94469A46139D059711
:10A9A000AB465746079B634499460D9B049300238F
:10A9B0000024002218931994059B90469A604A46F9
:10A9C00099463B00002647469A460692049B30CBA8
:10A9D000AC4204D10AE10C34A54200D106E13000BA
:10A9E00021680BF0EDFF63689942F4D11BF0F6F992
:10A9F00064210BF0E5FFA3689942ECDA474500D1EA
:10AA00001EE1049B1B7B5BB23B704B4601375F60D2
:10AA10000136102EDAD1069B99465346BA461F00DE
:10AA20004B464A4699681868059B1B6813604B465D
:10AA300052465A6042469A60002802D0091A0EF027
:10AA40004FFC0C239C46049B0A9A1433E144049364
:10AA50009342ACD10C9A079B0C320C920E9A503355
:10AA6000BA465D46059F07939A4200D073E6159D4E
:10AA70001BF0B4F9F6235B00EC582B00ED33FF33E9
:10AA80005A68121B921093009B1819015B18190247
:10AA90005B1819045918490089180BF0B9FF4F00C9
:10AAA0007F18BF000E9AE71997422FD0F021490076
:10AAB0007B683E686858926888469C1B121AA242BE
:10AAC00000D224E20E9A52689446121A944200D898
:10AAD000AAE1042A00DC38E231001AF0E3FE0E9B02
:10AAE0003E685B689C464346E85863461A1A7B6892
:10AAF000B1185A1A042A00DC36E260461AF0D2FE77
:10AB0000F0235B00EB581C190E9B5C60FE241023A5
:10AB100064002B511BF062F9800701D108232B51EF
:10AB20001BF05CF906210BF04BFF002903D1FE233B
:10AB30000C225B00EA501DB0F0BCBB46B246A946F1
:10AB4000A046F0BDC343DB171D4043469B6CBA07CC
:10AB500000D0D9E659681B682800C91A0BF030FFED
:10AB600089461BF03BF94346C0074DD4DB6C1A689D
:10AB700058684346996C9446801A0A6806920128E0
:10AB800000DC4EE10997170062468C460100012364
:10AB90004846A1460C00110002E00133A34263D0F5
:10ABA000CE5CBA5D9042F8DC61464C46099F069A3D
:10ABB0004B6828009B1A994619000BF001FF4B4681
:10ABC00058438519494628000BF0FAFE4200121836
:10ABD0009200002900DBA6E64944A4E68023039AFC
:10ABE0001370049A944200D040E6ABE68023039AA7
:10ABF000137047452FD03B704B4601375F6007E726
:10AC000000408F40000008404146DA6C896C1368B0
:10AC100052680E68D21A501E06961E5C0128C6DCC9
:10AC20000698023A805D9B188145C0DA8C464946F9
:10AC300006981E78013B825D9142FADB6146B6E7D9
:10AC4000049A390048460C32FFF726FA4B465F68F3
:10AC50009B689846DCE639004846FFF789FA4B4680
:10AC60005F689B689846D3E60A004C466146099F98
:10AC7000D65C9CE7002404202C606C60AC600EF075
:10AC800027FB04262200047044700234031DC670A2
:10AC9000286084700420AB606B60EA602A616A619E
:10ACA0000EF016FB0121002201704170894602312D
:10ACB000817088460231031DC170E86004208B4614
:10ACC0006B612B61AA61EA612A620EF001FB062129
:10ACD0000022031D8670C170A861047044700420B6
:10ACE0002B62EB616A62AA62EA620EF0F1FA4146F7
:10ACF0000022017081705946031D4270C170686264
:10AD00000420EB62AB622A636A63AA630EF0E0FA86
:10AD10004946002241700531031DC17006708670DE
:10AD2000286304201600AB636B63EA632A646A64D9
:10AD30000EF0CEFA5A46031D0270C270E8634670E8
:10AD400084708F486B642B641AF07EFF0F9811F0AB
:10AD5000C5F9079B0C9A1198DA6411F0A3F9002841
:10AD600000D107E50024534607201C605C609C600E
:10AD70000EF0AEFA534652461860C31D936004228B
:10AD800002268270013251469146C27002329046CC
:10AD900002710232427102320470467082710720E1
:10ADA0004B60CC600C614C610EF092FA4A465346FF
:10ADB0005146C2704246D860C31D4B6103210271E7
:10ADC0000132934642710232047046708170827182
:10ADD000504603618461C461046207200EF078FA72
:10ADE000032153468170494652469861C170C31D84
:10ADF000414613620B22017159468271524604701A
:10AE0000467041715F48D3611AF01EFF119811F02E
:10AE100065F9AFE45C4B1900109381E40020FFF763
:10AE200090FA63465E78C2E6042C00DC98E02200CB
:10AE300031001AF037FD4346EB581C1964E616AB97
:10AE4000009330003A00039BFFF792F8FFF7BAFB3C
:10AE500016AB009330003A00039BFFF789F8FFF729
:10AE6000C8FB16AB00933A002000039BFFF780F865
:10AE7000FFF7DFFB16AB00933A002000039BFFF7C0
:10AE800077F8FFF7ECFB16AB31003A000093484629
:10AE9000039BFFF76DF84B469E683C4B08224146EA
:10AEA000EC580023189217931691A64201D0FFF791
:10AEB00002FC16AB310000933A00039B4846FFF7B3
:10AEC00057F84B469E68314BEC58FFF7FAFB17AB2F
:10AED0001A00039318AF16AB0093300013003A002A
:10AEE000FFF746F8FFF740FB16AB009330003A003F
:10AEF000039BFFF73DF8FFF74EFB16AB00933A00BC
:10AF000031004846039BFFF733F8FFF7EDFB204B7A
:10AF10009C4223D820000EF0DBF90700042C1ADD38
:10AF2000220031001AF0BEFCF0235B00E858002834
:10AF300004D00E9B9968091A0EF0D2F9F0235B0039
:10AF4000EF500E9B3C199C60DEE5042A00D0CFE553
:10AF500031680160CCE533680360E5E711F010FC6F
:10AF6000042C08D00419CFE5042AFBD162460B68F3
:10AF700004191360C8E5336804190360C4E5C046CA
:10AF8000518B0010D1890010645B0020FC0B000085
:10AF9000FCFFFF7FF0B5DE4657464E464546002390
:10AFA0004020E0B58B4ED72433528B4800213063CC
:10AFB0008A488B4A70655C2033528A488A4DF06417
:10AFC0006C20345289488A4CB0678A4893B0F06745
:10AFD00080203450C020A4248000A40030510434C8
:10AFE000335108343351043432510434335104346E
:10AFF00033530434335104343351183C3551343411
:10B0000033707363B263F3637364B3643365B365BE
:10B010003366736603963155283433510434325104
:10B02000BF229200B3500832B350335204327248F8
:10B03000B350183AB0502C327048B3500432B0506C
:10B040000432B3500432B3520432B3500432B3501A
:10B05000C6236B4A9B00F250DE222033F252694A2B
:10B060000C33F250684A0433F250684A0433F25009
:10B07000674A0C33F250674A0433F250664A04338D
:10B08000F250664A0C33F250654A0433F250654A76
:10B090000433F25000220C33F250634A0433F2506E
:10B0A000624A0433F2509622614B5200F250FC2265
:10B0B00004339205F2505F4BB825F1545E4BB44611
:10B0C00001935E4B00249B465F465D4BED0002936F
:10B0D0005C4B5D4E04935D4B6544059301982C6079
:10B0E0006C60AC60EC602C616C61AC61EC612C62FA
:10B0F0006C62AC62EC622C636C63AC63EC632C64DA
:10B100006C6410F0CFFF002800D091E30298AF6488
:10B1100010F0C8FF002800D0E0E34D4BEE6450353E
:10B12000AB42DBD1F4230025039EDB00F550494BF5
:10B130002020F5500433F5500EF0CAF806AB040099
:10B140009946202244492034089406900EF0BAF81B
:10B150004B4610205C600EF0BBF804004B461022FA
:10B160003E4910345C61D8600EF0ACF84B4640208C
:10B170001C610EF0ADF804004B46402238494034C3
:10B180001C6298610EF09EF84B462020DC610EF0A8
:10B190009FF804004B46203420223249DC6258627A
:10B1A0000EF090F84B469C62F62332002E4FDB00E7
:10B1B000F550F5512D4E3020955103920EF088F840
:10B1C0003022924682445246039B04009A51D85141
:10B1D0004E4667E0401D002088880800E0B1FFFF70
:10B1E000204E000011CA0800AAAA2A000CE4F43F6D
:10B1F00074DFAD3D85417FBF5555550010270000D8
:10B200005C8F0200CB74F33FEED67FBF0642493E0F
:10B21000BC85BD3FA4BF7FBFABF68A3F433B1B3F0E
:10B220004BAD7FBFA2F54B40F3827FBF3A23E9408D
:10B23000A4050000AC050000E4390020645B002098
:10B24000E0390020D18900101C5B0020518B0010D8
:10B25000E0240020A4070000D07E0210C07E02106F
:10B26000807E0210607E0210AC070000B407000070
:10B27000ED4B9A4200D9ACE310000EF029F880465D
:10B28000D8444346A3605B462060042B00DCA6E361
:10B290005A4639000EF016F8434663600C340C36FB
:10B2A000A24510D0376873682560DA1B9346656045
:10B2B000A560BB42DCD100239846434663600C3452
:10B2C0000C36A245EED1F6235146039ADB00D1504D
:10B2D00012AC0C3C2068002800D176E3A168091A62
:10B2E0000DF0FEFF4C45F4D1F72300241022039803
:10B2F000DB00C450CD4BCE4EC2500C33C450CD4AAF
:10B30000CD4B0125835004328450CC4ADE21845237
:10B3100004328450CA4A89468450CA4ACA4F865069
:10B32000FA26CA4AB60084541D32FF3284501032C5
:10B330008650F826C64AF6008554C64A8251C64E43
:10B340008153C649C64E88468151C649C64E8C4671
:10B350008151972109018B460436010087515846D7
:10B3600005260E50322082465646C0480E500C30FC
:10B370000B5010300C50BE48AD4E0B50BD480C5019
:10B38000BD480C5204300C50BC480C50BC480E5008
:10B39000FA26BC48B6000C54BB480C50BB480E50B3
:10B3A0004E46BB480D54BB480A50BB480E52464659
:10B3B0000C300E506646B9480E500526B8480F505E
:10B3C000B8480E505646B8480E50B848984E0B50E4
:10B3D000B7480C50B7480B5004300C50B6480C52CC
:10B3E000B6480C50B6480C50B6480E50FA26B6482F
:10B3F000B6000C541D30FF300C5010300E50B348C6
:10B40000B34E0D547538FF380A504846B14A885239
:10B410004046B14A88506046B04A88500520043200
:10B420008F5020320F0088505146AD4A0020B9504D
:10B430000C32BB50AB4A3900BC54AB4A8146BD50BC
:10B440000A22BA51A94EAA4FCE51E7260F00360163
:10B450008851A849A84E8846B951A849A84E8C469B
:10B4600060463900B8516427183E8F51A54EA64852
:10B470008C55A64E8D51A64E8A51A64E0E50FF26D3
:10B480004846360188514046A34E88516046A34E37
:10B490008851183E8F510F00A14E8C55A14E8D51F1
:10B4A000A14E8A51A14AA24E8A51A24A8C50A24A68
:10B4B0008B50A24BA24ACC50A24BCC52A24BCC50A8
:10B4C0000433CC50A14B5A49F950A14B8D21FA506D
:10B4D000A04BA14A4901FA50FA22283B9200FA50A7
:10B4E0009E4B9F4AFC509F4BFC509F4BFC5014239B
:10B4F000BB549E4A9E487A509E4A9F49BC509F4AE0
:10B50000BC509F4ABC509F4ABB549F4A7A509F4AA6
:10B51000BC509F4ABC500432BC509E4ABB549E4B08
:10B520009E4ABB50FEF790FE9D4B9E4A9E48BB50E4
:10B530009E4ABB509E4BFC5001F0B2FF96229D4BA1
:10B54000AF21FD509C4BBC46FC540433FC509B4B3C
:10B550004901FC509A4B6144FC509A4BFC509A4B69
:10B56000FA500122994B5242FC50994B9C719A61BE
:10B5700028338B42FAD10399964B974ACC54974B78
:10B58000CE20CC50964B8C468B50964A40018B5027
:10B59000FA22954B5200CC50944B6044CA50002282
:10B5A000934B19001C319A711A6259629962DA62DE
:10B5B00030339842F5D18F4A0399944600228E4B3E
:10B5C00061441A7030338B42FBD103988B4B8C490A
:10B5D000C2548C4BC2508C4B43508C4943508C4BC3
:10B5E0008C49C2508C4B5A770122196012491A6259
:10B5F00059601E21894A59611A65002288499A6555
:10B60000596599669421DA65DA661A67854A5A6639
:10B61000854ADA67854A5A5013B0F0BCBB46B24639
:10B62000A946A046F0BDC046FCFFFF7FBC07000056
:10B6300088880800CC07000088130000D4070000A9
:10B64000DC070000C4070000A8DD2A3DF407000065
:10B6500034090000F87E02103C0900000581F53F26
:10B6600048090000DD846FBF4C0900007409000028
:10B6700094090000980900009C090000A40900003A
:10B680008C090000BC090000D80A0000E80A00008C
:10B69000FC0A000088090000040B0000140B0000E5
:10B6A000180B0000380B00003C0B0000480B00009A
:10B6B000580B00005C0B0000640B0000680B0000DE
:10B6C0006C0B0000540B0000840B0000C40C000045
:10B6D0005C0E0000CC0C0000D80C0000DC0C00005C
:10B6E000040D0000340D0000580E0000147F0210FD
:10B6F000180D0000DE805DBF740E00006C4310402A
:10B70000780E0000B40E0000980E0000D80F000064
:10B71000DC0F0000307F0210F40F0000F80F000073
:10B7200034100000581100005C1100004C7F021022
:10B73000181000006C11000070110000741100005E
:10B7400000005C42781100007C11000068110000CC
:10B7500084110000881100000000A0419011000039
:10B760009C1100009411000098110000582A00203C
:10B7700000230020A4110000B4110000A811000053
:10B78000AC110000B0110000D82B0020B81100004F
:10B79000BC110000C4110000582D0020C811000089
:10B7A000102F0020D4110000282F0020D0110000FD
:10B7B000D8110000141200001C1200002412000016
:10B7C00028120000B0120000B4120000B8120000ED
:10B7D00000300020E4150000EC150000E815000022
:10B7E00024330020F0150000F4150000F8150000C7
:10B7F00040330020DC1900005C330020C419000035
:10B80000CC190000C819000004370020D01900002E
:10B81000D4190000987F0210801B0020687F02105E
:10B8200000003442787F0210887F0210D01B002075
:10B8300007203C607C60BC600DF04AFD022291460E
:10B8400042700232827001329046C27002329246D9
:10B850000271023242710232C31D8271386004707B
:10B860000720BB607B60FC603C617C610DF030FDBB
:10B8700049464170013181708B464146C170514645
:10B880000A2201710131C31D41718271F860047097
:10B8900007207B613B61BC61FC613C620DF018FDDF
:10B8A0004A4642705A4682704246C2705246082149
:10B8B00002710432C31D41718271B8610470049831
:10B8C0003B62FB611AF0C0F9019810F007FC029886
:10B8D000AF6410F0E7FB002800D11EE404203460C0
:10B8E0007460B4600DF0F4FC022293468270023260
:10B8F000031DC27030600470447004209146B36030
:10B900007360F460346174610DF0E2FC0321012284
:10B9100081708A460231031D02704270C170F0606E
:10B920000420884673613361B461F46134620DF0C0
:10B93000CFFC594601704170494681700231031DA8
:10B94000C170B06104203362F3617462B462F46266
:10B950000DF0BEFC5146017081704146031DC1705F
:10B96000706244700420F362B36234637463B4633E
:10B970000DF0AEFC49460122017081700231031DB9
:10B98000C170427030630420B3637363F463346442
:10B9900074640DF09DFC424602705A468270424625
:10B9A000031DC270F06344700598736433641AF029
:10B9B0004BF9029810F092FB0C4BEE6450359D420F
:10B9C00001D0FFF78BFBFFF7ADFB4C4500D080E4C7
:10B9D0008AE4002A01DA10F0D3FE10F0C1FE042B35
:10B9E00000D059E43B68036056E4C046E0240020E0
:10B9F000002310B500210370014802F0FDFA10BDCC
:10BA00006C14002070B5094D04002800002102F0DC
:10BA1000F3FA28000022064902F00AFB0123054A36
:10BA20002370A3540023236170BDC0466C14002012
:10BA3000000034431C12000070B5040015002830CB
:10BA400004F0D4FC104B2900E01807F04DFA0F4D1C
:10BA50000021280002F0D0FA002228000C4902F050
:10BA6000E7FA01230B4A2370A35400232361636A7E
:10BA7000002B05D0084B0021E01801F029FD70BD16
:10BA8000064B6362F6E7C046D01100006C1400203C
:10BA9000000034431C120000E8110000801B00204D
:10BAA000F0B54E46DE4657464546E0B5846A060088
:10BAB0008BB0002C05D1C34B716B5A6A006B91425D
:10BAC00043D9C14B1D88002D35D0C04BB06B1C68CD
:10BAD0000DF0C4F99623C0B2020212181202121815
:10BAE000681E12025B0098422CDA6307DB0F062DFA
:10BAF00000DCE1E1002B00D196E00126226001216B
:10BB0000594009189B004D08E318ED00ED181A6024
:10BB10005A6008339D42FAD101230B420BD099435E
:10BB20008B1999006250834205DA6418991C62608F
:10BB3000814200DC7AE00BB0F0BCBB46B246A946BD
:10BB4000A046F0BD2C20FF30CFE79B6A834200D295
:10BB500034E140239946B1444B469B4A1B7B9046B7
:10BB60001788002B73D0726C9046032B00D1F7E13D
:10BB700000D935E1012B00D1A0E11000B36C78436E
:10BB800019009A460AF01CFFBB1043D08F4A962535
:10BB90001268040093467A1002927A00D219921029
:10BBA00003921A18049252469A4633005E469B4608
:10BBB0006D000592390020000AF002FFA94203D26D
:10BBC000FF2389001B068B5153463900E0180AF009
:10BBD000F7FEA94202D2002389008B51029B390053
:10BBE00018190AF0EDFEA94203D2FF2389001B06B3
:10BBF0008B51039B390018190AF0E2FEA94202D2C8
:10BC0000002389008B51049B01349C42D2D1059BB7
:10BC10005E469A46434601337364D04500DA8AE7AC
:10BC200000234A46137386E7002668E7D91CA26002
:10BC3000814200DD7FE7191DE260814200DD7AE785
:10BC400005332261834200DD75E7626173E7962365
:10BC50003D1C5B009F4200D9AEE007AF3A005C4B51
:10BC6000ADB203CB03C21B7813703369082B41DCE0
:10BC7000002D00D15FE7554B00211868AA009946B6
:10BC80000DF01AFB7069BB79F9793A7AC70F3F1842
:10BC9000504E51487F108059012859D0002D00D1B5
:10BCA00049E71E06494B090499464C4B0E439A46F8
:10BCB000434612021643B0461E0005E04146D150ED
:10BCC0000134A54200DC36E763001B191801C01AD5
:10BCD0002900C0000AF074FE0223F15E3A00411A06
:10BCE000504603F005FE4A46A30012680028E5D13D
:10BCF000D050E5E7B3690133B361002D06D0334B73
:10BD000000211868AA000DF0D7FAB36907220133A1
:10BD1000D9170A40D218B3610123D110D20F891864
:10BD20000B409B1A0133DBB270695A00D218BB5C1E
:10BD3000BA18C70F3F18274E274851788059927874
:10BD40007F100128AAD1002D00D1F4E61F488146BA
:10BD50001B0609040B431202134302931F4BBB46FD
:10BD60009A4607E04B46029A1B68DA510134A54215
:10BD700000DCE0E663001B191801C01A2900C000AE
:10BD80000AF01EFE434602269E5F5A46861B31007D
:10BD9000504603F0ADFDA7000028E3D131005A461C
:10BDA0005046B43103F0A4FD4B461B68002800D177
:10BDB00080E0029ADA51D9E71D1C4EE7914200D08B
:10BDC000C7E67EE6004005404414002068140020C9
:10BDD000B07F021024120000401D0020602F0020C0
:10BDE000042B64D110000BF003F9924A924B0BF034
:10BDF00086F80022914B0BF064F80BF07BF90022DF
:10BE00008F4B0BF055F800228E4B0BF078F80BF0AF
:10BE100007F9FF2140430AF0D3FD002F39D08A4BA8
:10BE2000020619687B1E9C4696235B009C4500DB3E
:10BE3000F5E04B07DB0F062F15DD002B01D00124A9
:10BE40000A6001275F4067449B007D08CB18ED0026
:10BE5000ED181A605A6008339D42FAD101233B4223
:10BE600017D09F43E419A300CA50A44511DDC91897
:10BE7000A31C4A609C450CDBE31C8A609C4508DBE4
:10BE8000231DCA609C4504DB05340A61A44500DB20
:10BE90004A61002300226D4CC1B20093200002F0E1
:10BEA000B3F88021200002F0A7F8736C9846B36CB9
:10BEB0009A46AFE6D85159E7002332E6B36C9A466A
:10BEC0009B1A18025146C01A0AF07AFDFF2140431E
:10BED0000AF076FD002F00D19CE65B4B0204196846
:10BEE000FF231B041A409623781E5B00984200DB58
:10BEF00099E04B07DB0F062F16DD002B01D0012444
:10BF00000A6001275F403F189B007D08CB18ED00B9
:10BF1000ED181A605A6008339D42FAD101233B4262
:10BF200000D177E69F43E419A300CA50844200DBA6
:10BF300070E6C918A31C4A60984200DA6AE6E31C5E
:10BF40008A60984200DA65E6231DCA60984200DAEA
:10BF500060E605340A61A04200DA5BE64A6159E610
:10BF600010000BF045F8334A334B0AF0C8FF0022AB
:10BF7000324B0AF0A6FF0BF0BDF80022304B0AF05E
:10BF800097FF00222F4B0AF0BAFF0BF049F8FF2170
:10BF900040430AF015FD002F3BD02B4B01041A68DB
:10BFA000FF231B0419407B1E9C4696235B009C4587
:10BFB0003CDA5307DB0F062F15DD002B01D00124DF
:10BFC000116001275F4067449B007D08D318ED0096
:10BFD000ED181960596008339D42FAD101233B42A4
:10BFE00017D09F43E419A300D150644511DAD21849
:10BFF000A31C51609C450CDBE31C91609C4508DB55
:10C00000231DD1609C4504DB05341161A44500DB90
:10C010005161002300210D4CC2B200933EE72C2356
:10C02000FF339C4605E72C20FF3062E72C23FF33CB
:10C030009C46BEE76E861BF0F92109400000444093
:10C040000000F03F00C05F40681400206C14002026
:10C05000F0B5DE4657464E464546E0B5836A0400D5
:10C0600085B0002B00D0A4E0CB4B616B5A6A006B0B
:10C0700091424BD9A06B0CF025FFC84AC84B0AF07F
:10C080003EFF0BF015F8A0630CF0E8FEC54DC1B201
:10C09000280001F0B1FFC44806F07CFF00282ED133
:10C0A000BD4B616B5A6A206B914228D89B6A8342D0
:10C0B00001D2914223D0BD4EBD4BF358002B00D18D
:10C0C00095E0BC4BA26AF15CBB4BD2B2F01806F013
:10C0D00025FF08F061F90023B84A801859410B0088
:10C0E0008021020009068B4202D30122B44B524246
:10C0F0006363B44B2263A363A36A013BA36205B0ED
:10C10000F0BCBB46B246A946A046F0BD9B6A83423E
:10C110007FD3250028352B7D002B7ED100232B7566
:10C12000237F002B4ED19F4D8021280001F064FF1A
:10C13000942326002700E058083603680C375B6814
:10C140003A003100984764239846A044002876D1ED
:10C15000A36899469C4B0A27DF5F38000CF02AFE43
:10C16000E368061C191C9A460CF01AFE002800D041
:10C17000564678420CF01EFE311C071C0CF0FAFDEE
:10C18000002844D049462800321C01F051FF942376
:10C19000E358434500D149E17C34A34200D1E0E0BB
:10C1A000FF230022009300210023280001F02CFF30
:10C1B000A5E7806B012B00DC5CE7FC2189050CF016
:10C1C000A2FD60E7784E300006F0E4FE002896D12C
:10C1D000627F236A002A00D03FE1012B03D0636A0B
:10C1E000002B00D03CE1794B6E4D9C46664400210B
:10C1F000280001F001FF00222800754901F018FF16
:10C200000123744A3370B3540023336177E73E1C33
:10C21000B8E7914200D07CE72CE70027FA226E4E67
:10C220000023300003210097520006F015FD002383
:10C23000012206213000009706F00EFD6EE7A0688F
:10C240000CF0DAFD00218046E0680CF093FD002838
:10C2500006D04046B421B43049000AF0B1FB88460C
:10C2600063694146DA0FD2185C4B521099461800A8
:10C27000013203F03DFB5A4B82464B441B69012BB4
:10C2800000D132E15346002B00D1B3E0E068002139
:10C290000CF086FD0200531E9A414F4B0121994636
:10C2A00000234846009306F0D7FC96214D484900EC
:10C2B000484406F047FE226901322261002A00DC70
:10C2C00022E10B2A00DDEAE038483A4BD2B2C15CE9
:10C2D000394B9C46604406F021FE50239B46A34404
:10C2E0005A4644332069E250236A0290022B00D15F
:10C2F0003FE1032B00D1C4E064229046A044012B0F
:10C3000003D103210AF05CFB029052466368002AC5
:10C310000FD018000AF06CFE334A344B0AF0EFFDE0
:10C320000AF07EFEFA2203009200904200DA1DE13C
:10C3300060605A4602991268009112683100924674
:10C3400058463A00D047072263684846D9170A4042
:10C35000D2180023D21007216432009306F07CFC2F
:10C36000F6E600230022002128000093FF3301F0AD
:10C370004BFE1F4B07211868421C1A600AF020FB75
:10C38000002900D0BBE6AF2200919623124852004C
:10C39000023106F061FCB2E6004005409A99999995
:10C3A0009999E93F6C140020102F0020401D0020B7
:10C3B0002412000014120000D011000040420F00AF
:10C3C000FFFFFF7F00007F434414002030EEFFFF9B
:10C3D000000034431C120000681D0020602F002064
:10C3E000E0EDFFFFA8110000333333333333EB3F6D
:10C3F000185B0020844BC8229946534600214846CA
:10C4000000935200002306F027FC23000222403351
:10C410001A7353469621636414237C48A3644844EA
:10C42000490006F08FFD2269013A46E70024002307
:10C430000022FF212800009401F0E6FD744A1368F1
:10C44000591C11609B0700D159E6322302216E4826
:10C45000704A009406F000FC51E6042B00D1C2E6BD
:10C460006D4C0021200001F0C7FD00226B49200027
:10C4700001F0DEFD03220121694B1A70694A9954CB
:10C480003DE6642290460300A044052800DD92E0CA
:10C49000032B00DD80E09423E3589B4635E700251D
:10C4A0000023002206214846009506F0D5FB230014
:10C4B000032240331A73C8234A46544EA3645A4B8E
:10C4C000283A4E44D15C30006822656406F026FDAF
:10C4D000FA213000C90006F035FD0223FF33A383A3
:10C4E000236A25610133236209E6414663694846B0
:10C4F000DA0FD21852100132B43103F0F9F9534671
:10C500000343DBB29A46BDE6002500230022062144
:10C510004846009506F0A0FB2300042240331A731E
:10C52000C823C822A3649200002300214846656402
:10C53000009506F091FBFA21344E49004E4430003C
:10C5400006F000FD4A46384B283AD15C300067229D
:10C5500006F0E4FCFA213000890006F0F3FC012328
:10C56000A383636A2561013B6362C8E513006260CF
:10C57000DFE68446C30F63445B100393642398464D
:10C58000A044082833DC029B062B20DC9423E358CC
:10C590009B46039B0293B8E619F020FC03210AF0A6
:10C5A0000FFA002900D076E77C239B46A3445A4625
:10C5B0001833E250A9E619F011FC03210AF000FA41
:10C5C000002902D194234246E250236960E719F022
:10C5D00005FC05210AF0F4F90029D7D17C239B46FC
:10C5E000A3445A461833E250039B02938DE619F098
:10C5F000F5FB05210AF0E4F9002902D19423424613
:10C60000E25023690293BEE7681D0020A8110000D4
:10C61000145B0020DC0500006C1400200000344393
:10C62000401D00201C12000014120000F0B5C64688
:10C6300000B5070084B085480EF08EF801233B62F8
:10C6400002337B62824B7B6000233B610023FB60F3
:10C65000984619F0C3FBB42149000AF0B1F908006B
:10C660000CF0A8FB3A0094235032B860FA50786876
:10C670000AF0BEFC774B04000A20185E0D000AF099
:10C68000B7FC02000B000AF013FC0022724B0AF008
:10C6900036FC22002B000AF014FC0AF009FD41468A
:10C6A000061CF865F8680CF07BFB002804D080239A
:10C6B0001B069C466644FE65684B7B6519F08EFB45
:10C6C000C3179B0DC0188005800DC01A0AF090FC9E
:10C6D0000022634B0AF013FC0022624B0AF00FFCAD
:10C6E00000225F4B0AF0E4FB02900391786D0CF09E
:10C6F000E9FB02000B00029803990AF000FC0AF023
:10C700008FFC060019F06AFBC00700D57642BB68B3
:10C71000300098460CF04EFB41460CF0DDFA0CF070
:10C720006BFBB4235B00984200DC83E018003866A2
:10C730000CF040FB41460CF0CCFA4B490CF0E3FA0C
:10C740000CF0C0FB02000B000AF0B2FB22002B0031
:10C750000AF0B7FB0AF0ACFCFF23444CB86500229A
:10C76000002120000093002301F04EFC0021200056
:10C7700001F042FC3B6A012B66DD3D4C3D4D7A6A7F
:10C78000615D012A5AD03C4BD2B2E618300006F067
:10C79000C5FB3221300006F0D5FB6A223000615D16
:10C7A00006F0BCFBAF21354C4900200006F0CAFB67
:10C7B0002000322106F0C6FB314B2E4DE618715D8C
:10C7C0006922200006F0AAFB2000322106F0BAFB05
:10C7D0003A6A715DD2B2200006F0A0FB2000FA2177
:10C7E00006F0B0FB1E237B613B00012640331E7325
:10C7F00028230025BB64253BBB62224B7D64BB63C1
:10C80000BD8307F0C9FD3B000722283338637963F5
:10C810001E757B680095D9170A40D2181A4BD210A2
:10C82000E01807210023643206F016FA04B080BC39
:10C83000B846F0BDC343DB17184078E70E4B6A32A9
:10C84000E01806F06BFBADE70C4CB1E7006F02108F
:10C850008813000044140020000044400000704190
:10C860000000E03F0000503F000020426C14002018
:10C87000401D002014120000D0110000102F0020D5
:10C8800030EEFFFF00007F4358EEFFFFF0B5C646D5
:10C89000070000B5016A84B088480DF05DFF3A6A70
:10C8A000013A93059B1A9B019B185B009B18844AD5
:10C8B000DB00944663447B6000233B610023FB6004
:10C8C000984619F08BFAB42149000AF079F808006B
:10C8D0000CF070FA3A0094235032B860FA5078683D
:10C8E0000AF086FB774B04000A20185E0D000AF060
:10C8F0007FFB02000B000AF0DBFA0022724B0AF009
:10C90000FEFA22002B000AF0DCFA0AF0D1FB4146C5
:10C91000061CF865F8680CF043FA002804D0802360
:10C920001B069C466644FE65684B7B6519F056FA0B
:10C93000C3179B0DC0188005800DC01A0AF058FB64
:10C940000022634B0AF0DBFA0022624B0AF0D7FAAE
:10C9500000225F4B0AF0ACFA02900391786D0CF064
:10C96000B1FA02000B00029803990AF0C8FA0AF023
:10C9700057FB060019F032FAC00700D57642BB68B3
:10C98000300098460CF016FA41460CF0A5F90CF070
:10C9900033FAB4235B00984200DC83E01800386669
:10C9A0000CF008FA41460CF094F94B490CF0ABF945
:10C9B0000CF088FA02000B000AF07AFA22002B0031
:10C9C0000AF07FFA0AF074FBFF23444CB86500229A
:10C9D000002120000093002301F016FB002120001D
:10C9E00001F00AFB3B6A012B66DD3D4C3D4D7A6A46
:10C9F000615D012A5AD03C4BD2B2E618300006F0F5
:10CA00008DFA3221300006F09DFA6A223000615D15
:10CA100006F084FAAF21354C4900200006F092FA66
:10CA20002000322106F08EFA314B2E4DE618715D52
:10CA30006922200006F072FA2000322106F082FA04
:10CA40003A6A715DD2B2200006F068FA2000FA213D
:10CA500006F078FA1E237B613B00012640331E73EB
:10CA600028230025BB64253BBB62224B7D64BB634E
:10CA7000BD8307F091FC3B000722283338637963BC
:10CA80001E757B680095D9170A40D2181A4BD21030
:10CA9000E01807210023643206F0DEF804B080BC01
:10CAA000B846F0BDC343DB17184078E70E4B6A3237
:10CAB000E01806F033FAADE70C4CB1E7106F021046
:10CAC000881300004414002000004440000070411E
:10CAD0000000E03F0000503F000020426C140020A6
:10CAE000401D002014120000D0110000102F002063
:10CAF00030EEFFFF00007F4358EEFFFFF0B5C64663
:10CB000000B50569040084B0002D00D10EE10223B8
:10CB1000476A03703B68924A9B68934200D015E1D4
:10CB200090480DF019FE01233B6202337B628E4B6D
:10CB30007B6000233B610023FB60984619F04EF9AF
:10CB4000B421490009F03CFF08000CF033F93B0028
:10CB500094225033B860BB5078680AF049FA834B8E
:10CB600004000A20185E0D000AF042FA02000B00D1
:10CB70000AF09EF900227E4B0AF0C1F922002B0038
:10CB80000AF09FF90AF094FA4146061CF865F86825
:10CB90000CF006F9002804D080231B069C4666444E
:10CBA000FE65744B7B6519F019F9C3179B0DC0180E
:10CBB0008005800DC01A0AF01BFA00226E4B0AF0A5
:10CBC0009EF900226D4B0AF09AF900226A4B0AF096
:10CBD0006FF902900391786D0CF074F902000B006C
:10CBE000029803990AF08BF90AF01AFA060019F074
:10CBF000F5F8C00700D57642BB68300098460CF0C7
:10CC0000D9F841460CF068F80CF0F6F8B4235B0054
:10CC1000984200DD86E0C343DB17184038660CF00D
:10CC2000C9F841460CF055F855490CF06CF80CF079
:10CC300049F902000B000AF03BF922002B000AF030
:10CC400040F90AF035FAFF234E4CB8650022002166
:10CC500020000093002301F0D7F90021200001F00B
:10CC6000CBF93B6A012B5FDD474C484D7A6A615D29
:10CC7000012A00D16DE0464BD2B2E618300006F032
:10CC80004DF93221300006F05DF96A223000615D15
:10CC900006F044F9AF213F4C4900200006F052F95C
:10CCA0003221200006F04EF93B4B384DE618715DFD
:10CCB0006922200006F032F93221200006F042F904
:10CCC0003A6A715DD2B2200006F028F9FA212000FC
:10CCD00006F038F91E237B613B00012640331E73AA
:10CCE00028230025BB64253BBB622C4B7D64BB63C2
:10CCF000BD8307F051FB3B0007222833386379637B
:10CD00001E757B680095D9170A40D218244BD210A3
:10CD1000E01807210023643205F09EFF04B080BCB8
:10CD2000B846F0BD180079E71A4CB9E7154E002156
:10CD3000300001F061F9002230001A4901F078F961
:10CD40000123194A2370A3542561E7E73800984767
:10CD5000E4E70F4B6A32E01806F0E0F89AE7C046C5
:10CD60002DC60010006F021088130000441400202C
:10CD700000004440000070410000E03F0000503FD0
:10CD8000000020426C140020401D002014120000FE
:10CD9000D0110000102F002030EEFFFF00007F4375
:10CDA00058EEFFFF000034431C120000F0B5C646E9
:10CDB00000B5D84BC1685A6A0400856884B0002069
:10CDC00091422CD89B6AAB422DD307F0E5FA0023A1
:10CDD000D14A801859410B008021020009068B427C
:10CDE00002D30122CD4B5242E360CD4BA260E51845
:10CDF000280006F0EBF891235B01E618C94F3000DC
:10CE000002F00CFDE35D002B00D043E12378022B00
:10CE100000D147E1032B25D0012B07D0012004B01E
:10CE200080BCB846F0BD9142CFD1F8E72369726863
:10CE3000934200D03CE1002BF0D0B64BE1695A6A36
:10CE4000A0699142EAD89B6A834201D29142E5D01F
:10CE5000280006F09FF80028E0D12000FFF74EFEE2
:10CE60000120DCE7280006F095F8051ED6D12669DA
:10CE7000002E00D17CE10223676A23703B68AA4A36
:10CE8000DB68934200D086E1396AA8480DF064FC63
:10CE90003A6A3D61013A93059B1A9B019B185B001E
:10CEA0009B18A34ADB00944663447B600023FB602D
:10CEB000984618F093FFB421490009F081FD08005D
:10CEC0000BF078FF3B0094225033B860BB50786879
:10CED0000AF08EF8974B04000A20185E0D000AF045
:10CEE00087F802000B0009F0E3FF0022924B0AF0E2
:10CEF00006F822002B0009F0E4FF0AF0D9F84146B9
:10CF0000061CF865F8680BF04BFF002804D080235E
:10CF10001B069C466644FE65884B7B6518F05EFFE9
:10CF2000C3179B0DC0188005800DC01A0AF060F869
:10CF30000022834B09F0E3FF0022824B09F0DFFF60
:10CF400000227F4B09F0B4FF02900391786D0BF043
:10CF5000B9FF02000B000298039909F0D0FF0AF014
:10CF60005FF8060018F03AFFC00700D57642BB68AC
:10CF7000300098460BF01EFF41460BF0ADFE0BF063
:10CF80003BFFB4235B00984200DCBFE0180038662A
:10CF90000BF010FF41460BF09CFE6B490BF0B3FE0B
:10CFA0000BF090FF02000B0009F082FF22002B0023
:10CFB00009F087FF0AF07CF8FF23644CB865002273
:10CFC000002120000093002301F01EF80021200022
:10CFD00001F012F83B6A012B00DCDAE05C4C5D4E9C
:10CFE0007A6AA15D012A00D1D9E04D4BD2B2E51891
:10CFF000280005F093FF3221280005F0A3FF6A22E4
:10D000002800A15D05F08AFFAF21534C49002000A4
:10D0100005F098FF3221200005F094FF4F4B4D4D55
:10D02000E618715D6922200005F078FF32212000AA
:10D0300005F088FF3A6A715DD2B2200005F06EFFFC
:10D04000FA21200005F07EFF1E237B613B000126B4
:10D0500040331E7328230025BB64253BBB62404B35
:10D060007D64BB63BD8307F097F93B00072228333B
:10D07000386379631E757B680095D9170A40D2180A
:10D08000384BD210E01807210023643205F0E4FD8C
:10D090000120C4E6280005F07DFF002800D0BDE691
:10D0A000E055B3E6606A03681B6998470120B6E65D
:10D0B00007F072F900232C4A801859410B00802197
:10D0C000020009068B4202D30122144B5242E36153
:10D0D0007368A2612361002B0DDD1E4E280005F050
:10D0E00047FF2800227CA15D05F018FF662228007A
:10D0F000A15D05F013FF0023002223621B4B1348A0
:10D100000021E25000F078FF012088E6C343DB17DE
:10D1100018403CE700400540409C0000FFFFFF7FB7
:10D12000D01100001C1200008DC80010106F0210FA
:10D1300088130000441400200000444000007041A7
:10D140000000E03F0000503F000020426C1400202F
:10D15000401D002014120000102F002030EEFFFFB1
:10D1600000007F4358EEFFFFC0C62D0018120000DC
:10D170000E4D0021280000F03FFF002228000C493E
:10D1800000F056FF01230B4A23700120A3542661AF
:10D1900045E6094C3EE73800984701203FE6074B3B
:10D1A0006A32E01805F0BAFE2EE7C0466C14002083
:10D1B000000034431C120000102F0020D01100008A
:10D1C0007047C046F8B5070005000026094B041D4E
:10D1D0001B882037836518F001FEA96D09F0F0FB6C
:10D1E00008000BF0E7FDA6632060E0610434BC4258
:10D1F000F1D1F8BD4414002010B504005C210CF0FE
:10D200006FF8200010BDC046F0B5DE4657464E46CA
:10D210004546E0B5826D87B00490002A0CDD962368
:10D22000013A5B009A4200DB18E18E4B013200218B
:10D23000186892000CF040F8049B1C1D2500183360
:10D24000059318F0CBFDFA21C90009F0B9FB864B14
:10D25000C81809F0CDFE0022844B09F032FE06000A
:10D26000A86B0F000BF02EFE02000B0030003900FF
:10D2700009F01EFE09F01CFF041C0BF023FE7C4A83
:10D280007C4B06000F0009F085FE002800D1DFE08E
:10D2900030003900764A784B09F092FE002800D120
:10D2A000D9E0211C201C0BF02EFD211C0BF02BFDC6
:10D2B0002968AC630BF010FDEC692860211C8046E6
:10D2C0000BF007FD0BF0FEFD6C4A6D4B09F017FEED
:10D2D0000600201C0F000BF0F5FD02000B003000D3
:10D2E000390009F0E5FD09F0E3FE049BE8619B6D60
:10D2F000041C18009A460BF05DFD061C011C4046FC
:10D300000BF046FD00280AD0311C40460BF0E1FC32
:10D31000311C2860201C0BF0DCFC041CE8612B682D
:10D320000021181C99460BF025FD00280BD048461B
:10D33000311C0BF0D1FC311C28608146201C0BF005
:10D34000CBFC041CE861211C48460BF013FD431E76
:10D3500098414300984601235B429C464946201C65
:10D36000E0440BF0B6FCFE214000890540080BF0BC
:10D37000B3FC0BF041FD834600285DDD394B0024F2
:10D380001B68002702930BF015FD0395019023E025
:10D390000021301C0BF004FD002848D0301C0BF09D
:10D3A0005DFDC2B213029B181B029A18190C1B0ACE
:10D3B0009620400085420BD2FF201B040004120679
:10D3C000120C034013430906029AAD000B43AB5005
:10D3D00001374444BB452ED038000BF0EBFC0199DB
:10D3E0000BF07DFC011CFE2080050BF072FC061C7E
:10D3F00020000BF0DFFC49460BF06EFC0BF0FCFC50
:10D40000514609F0DDFA0D1E00DA5544311C301C7E
:10D410000BF079FC1B490BF076FC1A49061C0BF04B
:10D42000A9FC0028B4D1FF21174B184AC0E70023FC
:10D4300000210022BCE7039D059B0435AB4200D0D0
:10D44000FFE607B0F0BCBB46B246A946A046F0BD19
:10D450000F48104C2CE71048104C29E72C22FF32C3
:10D46000E3E6C0466814002018FCFFFF0088C340B4
:10D47000666666666666F63F6666F6BF9A9999992D
:10D480009999B93F00007F43FFFF0000FFFFFF00B5
:10D49000B29D2F403333B33FB29D2FC03333B3BF60
:10D4A000002370B528220400002108C00BF004FFFF
:10D4B0005C200BF00DFF05005C2200210BF0FCFE50
:10D4C000024B20002B60656070BDC046C47F021017
:10D4D00010B501608900401840680368DB68984710
:10D4E00010BDC046036810B59B00C01840680368B3
:10D4F0009B68984710BDC04630B50B7C0C0085B0CA
:10D50000012B0DD001238A68A02193408622C905F2
:10D51000D2008B50032323740020002105B030BDBE
:10D520000868002107F024FB0223237406F024FD81
:10D53000050006F031FF0C22002312184B41802118
:10D5400009068B4202D30122054B5242012102916E
:10D55000044928000194009106F012FDDCE7C04662
:10D56000FFFFFF7FF9D4001070B504001000626067
:10D570002160022105F0FCFE1349206807F0F4F950
:10D58000002302220821206807F0B4FAA3680133BF
:10D5900000D070BD01200DF0C3FD21680B4B0C4D78
:10D5A000CB185A425341C2020A332A401B04134388
:10D5B00011221343A022D2059446A060800160444A
:10D5C000E36003614160E4E790D003000080FCBFAA
:10D5D000FD7F00FF30B583680400A020C0058446AD
:10D5E0009B01634419609A6001230121237485B073
:10D5F000206807F0BDFA06F0BFFC050006F0CCFE7F
:10D600006422002312184B41802109068B4202D369
:10D610000122064B52420121029105492800019442
:10D62000009106F0ADFC012005B030BDFFFFFF7F8B
:10D63000F9D40010037C0200032B03D05A4253415B
:10D64000D8B27047A021C9058C46836800209B0191
:10D6500063441B69DB01F4D413689B691B07F0D496
:10D6600010740130EDE7C046002303747047C046D4
:10D6700010B58168027C02480DF06EF810BDC046FE
:10D680002C6F0210F0B5DE4657464E464546414BDC
:10D69000E0B51C6885B0A369DB0629D43E4B102594
:10D6A00006229B5E3D4F9A463D4B3A78197803938C
:10D6B0003C4B3D4E99463D4B01933D4B029301231C
:10D6C0009846A3691D42FCD12068092A0DD8531C35
:10D6D000DBB2B0543B701A00002910D1072B04D1E3
:10D6E000344B32689A4243D00722A3691D42E8D0E6
:10D6F00005B0F0BCBB46B246A946A046F0BD052B1E
:10D70000F3D1B421B0787378C001C01880114900FA
:10D7100009F056F93379F2781B029B189B109A4551
:10D7200006DC002B31D100233B7001210022DCE715
:10D73000214B00934A46525C002A14D01F4A94465B
:10D7400060464A00805A8346984221DC5B469BB281
:10D7500060468352019B009898524246029B5A545D
:10D760004B465A54DFE7154A009B94464A00EFE7C0
:10D770008023B288DB019A42B6D1B379812BB3D131
:10D78000039A803B13703970CFE79AB20092D1E7C9
:10D790009B46DBE7747B0020441400209E88002019
:10D7A0009F8800200C7A0020907100209C7100203E
:10D7B000787B0020A55A0500E02E00003C77002071
:10D7C0002021074B1B689A691142FCD1A522202118
:10D7D0001A609A691142FCD140221A607047C04613
:10D7E000747B00202021094B1A6893691942FCD1EF
:10D7F000A523202113600800936918401942FAD12B
:10D80000034B11601870034B18707047747B002035
:10D810009F8800209E8800202021074B1B689A6962
:10D820001142FCD1A52220211A609A691142FCD133
:10D8300025221A607047C046747B0020F0B5574619
:10D840004E46DE464546E0B5334B87B01A68334B4B
:10D8500051420192029106201B5E314F9846314B96
:10D8600016001B6894469B462F4B30481B686A364F
:10D8700005932F4B60449A461300CB1A013B049347
:10D880003B002C4A474691469846FF360390019B41
:10D89000029A93423DDB049B264D9C1905E04D45C1
:10D8A00000DD244D0134B4420FD0B42120004900E2
:10D8B00009F086F8434649005B5A9F42EFDC9D42DF
:10D8C000F0DD01341D00B442EFD1AB451EDA5B46FA
:10D8D000E81A0BF06FFA05990BF015FA0BF08CFAB9
:10D8E0005346188002239C46039B0136E2449E4225
:10D8F000CDD1B422002152000F480BF0DDFC07B05F
:10D90000F0BCBB46B246A946A046F0BD53461D80BA
:10D91000E8E7084DD9E7C04654140020441400201D
:10D920003C770020601400205C140020D10200002D
:10D93000C06E0020E02E00000C7A002070B50C00B4
:10D94000E1210600154D1000C9022A6007F00CF80D
:10D950003000022105F00CFD2000022105F008FD39
:10D960000F4B2C689C466444631E9C411434200079
:10D970000C4905F05DFE0121200005F033FE502228
:10D9800038212B689A635A6B34331140802252013C
:10D99000134300221960044B1A7070BD747B002081
:10D9A00000C0FCBF85D60010A0880020F0B5574607
:10D9B0004E46DE464546E0B5394B87B01A68394BCE
:10D9C0005642039606215B5E17009A46364B374C4B
:10D9D0001B686A370293364BFF379846B4235B00C7
:10D9E0009B1A0093A3180193324B04929B46324B2F
:10D9F0000594994607E002239C46009B0136E044CB
:10DA00000137B34236D0019B9B5D002BF3D0049BC2
:10DA1000039A934242DB34006934264DFF3405E01B
:10DA20009D4200DD1D000134A7420FD0B42120002B
:10DA3000490008F0C5FF4B4649005B5A9A45EFDDA7
:10DA40005D45F0DD01341B4DA742EFD14346029AFC
:10DA50001B88AD1A9D421BDD184A93421AD84246D4
:10DA60003233138002239C46009B0136E044013789
:10DA7000B342C8D1B422059C0021200052000BF013
:10DA80001BFC07B0F0BCBB46B246A946A046F0BDA1
:10DA90000A2BB0D942460A3B1380ACE7054DD5E7C7
:10DAA0005414002044140020601400200C7A00203C
:10DAB000C06E0020E02E00003C770020DF2E00002A
:10DAC000F8B54546DE4657464E46E0B5814D28003E
:10DAD0000EF0E8FA00282CD17F4C804B61685A6A1E
