:020000041000EA
:1080000000200420F7800010C3800010C5800010FD
:10801000C1800010C1800010C1800010C18000101C
:10802000C1800010C1800010C1800010C780001006
:10803000C1800010C1800010C9800010CB800010EA
:10804000CD800010CD800010CD800010CD800010BC
:10805000CD800010CD800010CD800010CD800010AC
:10806000CD800010CD800010CD800010CD8000109C
:10807000CD800010CD800010CD800010CD8000108C
:10808000CD800010CD800010CD800010CD8000107C
:10809000CD800010CD800010CD800010CD8000106C
:1080A000CD800010CD800010CD800010CD8000105C
:1080B000CD800010CD800010CD800010CD8000104C
:1080C00000BE00BE00BE00BE00BE00BEEFF30580D5
:1080D000103800BEF2EB887198250210B42502100A
:1080E0003481001090A31AE700201F49086006C8D9
:1080F00081F3088810471D48006800282FD10DA47F
:108100000ECC002902D000F012F8F9E71849194AFC
:10811000002000E001C19142FCD11749884717496E
:1081200088471749884700BEFDE701C901C29A4246
:10813000FBD37047B4250210C0000020501B002064
:1081400044400210000004200000042044400210BB
:1081500000100420001004200000000070470948AF
:1081600008F042FA0047000008ED00E0000000D0EF
:10817000501B0020F85A0020D9EC00105536011091
:108180000DEE00105756000006005250ABB360537E
:108190009CFD011006005250861C0302ACFD01102C
:1081A000060052505422A29DB0FD0110050052500D
:1081B000DE65F46844400210F8B5C0460648074939
:1081C000091A8B10C90FC91810B5491003D0044BF8
:1081D000002B00D0984710BD501B0020501B0020E2
:1081E00000000000054B10B5002B03D004490548E2
:1081F00000E000BFFFF7E2FF10BDC0460000000036
:10820000C44F0020F0FA011010B50E210BF0EAFD6A
:1082100010BDC046F0B585B004000AF0B7F90728D4
:1082200008D800282CD0072800D975E04B4A8000D8
:1082300013589F4664285BD0652821D10AF0E2F9E3
:10824000C8200AF0E7F90023E05E0AF0EFF9022304
:10825000E05E0AF0EBF90423E05E0AF0E7F906239A
:10826000E05E0AF0E3F90823E05E0AF0DFF90A2392
:10827000E05E0AF0DBF9A0890AF0E8F90AF0F6F905
:1082800005B0F0BD0AF0A6F9A081F9E70AF08CF973
:10829000B42160806930FF30490008F0D7F92088A8
:1082A00000244843B421490008F0D0F92C210023D0
:1082B0002B4A2C4DFF31984205D0013310C28B421E
:1082C000DED09842F9D1431C20C28B42F3D1D7E7CC
:1082D0000AF06AF9A080D3E70AF066F9E080CFE7F8
:1082E0000AF062F92081CBE70AF05EF96081C7E706
:1082F000A5890422A35E0221625E218803950A26D5
:10830000A55F194802950826A55F01950625645FBB
:1083100000940BF033F9B3E70AF05CF90500208014
:108320002C20002300270E490E4EFF309D4206DD13
:1083300001330E608342A3D004319D42F8DC0A0071
:108340005C1C80C284429BD0A54203DD16600233D0
:108350000831EBE711002300F1E7C0468C09021059
:10836000A01C002000FFFFFFF0FA01107047C0467C
:10837000F0B557464546DE464E469622E0B55C4F80
:1083800005003B8887B01C1C5200934200D9141C86
:1083900003AE3200574BA4B203CB03C21B78137059
:1083A0002B6A082B47DC002C3ED0534B00211800D1
:1083B000A2009B4609F00EFF686AB379C50F2D181D
:1083C0006810F179327A01904C48006901285FD039
:1083D000002C29D01B0609040B43120213439B46B1
:1083E000454B00269A46464B0025984606E001C3B9
:1083F000693601359A46FF36AC4215DD2100300062
:1084000008F024F90223F95E019A411A404603F06C
:10841000D5FA53460028EAD05A46693604C30135D6
:108420009A46FF36AC42E9DC07B0F0BCBB46B24628
:10843000A946A046F0BDEB6A0133EB62002C06D0E2
:108440002D4B00211800A20009F0C4FEEB6A0722A0
:108450000133D9170A40D218EB620123686AD110A0
:10846000D20F89180B40C50F9B1A2D1868100133C5
:10847000DBB2019021485A00D2180069B35CB218EF
:10848000517892780128A3D1002CCDD01A48834688
:108490001B0609040B4312021343994600239A4614
:1084A000174B002598462100504608F0CFF80223CC
:1084B000FE5E019A861B3100404603F07FFA0028D9
:1084C0000BD04B465A4608C2B4235B009C4601358C
:1084D0009346E244AC42E6DCA6E731004046019A0E
:1084E000B43103F06BFA0028EBD10023EAE7C04671
:1084F00044140020040A0210A01C00205021002077
:1085000098220020F0B55746DE4646468023C0B587
:108510005B049A463C4B0E000500170000249B4666
:10852000017E82B018E0002938D06B69AA689B18D8
:1085300053453EDA01216B619B133A595A43D317D5
:108540009B059B0D9B1832599B12D31833518023E6
:1085500004345B009C4250D002290AD0E3D96B69F5
:10856000032904D12A699B1A002B1EDD6B619B1322
:10857000E3E753466B612B6A6A6A98465B465B6A1F
:108580009A420FD85846806A404501D29A4209D093
:1085900003232B7680230321DB00CEE769610021D2
:1085A0000023CAE78023DB00C7E700236B612B763B
:1085B000F5E753466B616B68984605F04BFDFA2270
:1085C00000230090019192004046002109F076FBC3
:1085D000009A019B801859410B0080210200090676
:1085E0008B4202D30122094B52426B6202232B764B
:1085F0006B6902212A629B139FE702B0E0BCBB4675
:10860000B246A846F0BDC04600400540FFFFFF7FD0
:10861000084B70B55A6A446A056A944205D89B6A49
:10862000AB4200D370BD9442FCD1043003F016FF7E
:10863000F8E7C0460040054010B50400302109F0BD
:10864000DDFD200010BDC04670B50400224B0D00BA
:108650005A6A616C006C914205D89B6A834200D3D0
:1086600070BD9142FCD12900201D03F0F7FE2000CF
:108670002900203003F0F2FE16F03AFA1E2107F02E
:10868000E5FF5531080009F09FFB8A21C90509F073
:108690004CFB8F21C90509F048FB104909F031FB5B
:1086A00009F0B4FB606016F023FA1E2107F0CEFF3C
:1086B0005831080009F088FB8A21C90509F035FB0B
:1086C0008F21C90509F031FB044909F01AFB09F0B3
:1086D0009DFB2062C4E7C046004005400080BB46C9
:1086E000F0B5DE46574645464E468022E0B50700C7
:1086F000C3B052000C0002A8002109F06BFD381D28
:1087000002A903F07DFE20239846B84443461A7E12
:1087100080235B049A46424B02AD9B4642AE15E075
:10872000002A36D07B6BBA6A9B1853453DDA01228A
:108730007B639B1302CD5943CB179B059B0D5B18A5
:1087400021689B12CB1808C4AE4253D0022A0AD02B
:10875000E6D97B6B032A04D1396B5B1A002B1FDD32
:108760007B639B13E6E753467B633B6C796C9946CE
:108770005B465B6A994210D85846806A484501D2E8
:1087800099420AD003234246137680230322DB005A
:10879000D0E77A6300220023CCE78023DB00C9E71F
:1087A000002342467B631376F4E753467B637B6A80
:1087B000994605F04FFCFA220023009001919200A7
:1087C0004846002109F07AFA009A019B8018594125
:1087D0000B008021020009068B4202D30122114BBB
:1087E00052423A647B644246022313767B6B022238
:1087F0009B139FE7B86CFB6C0B4AC018C117430B67
:10880000C904B8641943C004002307F06DFF786001
:1088100043B0F0BCBB46B246A946A046F0BDC04638
:1088200000400540FFFFFF7FC05D0000F0B55746E8
:108830004E46DE464546E0B506007F4B8A465A6AFC
:10884000F16C806CC5B0914200D9BBE09B6A834259
:1088500000D2B4E080220021520004A809F0BAFC42
:10886000300004A9543003F0CBFD70239B46B34481
:108870005B461A7E44AB9946802355465B048427A9
:10888000984604AC039515E0002A37D0F359B26F2F
:108890009B1843453EDA0122F3519B1302CC594306
:1088A000CB179B059B0D5B1829689B12CB1808C53D
:1088B000A14558D0022A0BD0E6D9F359032A05D195
:1088C000802171585B1A002B1FDDF3519B13E5E7E4
:1088D0004346F3513300903309CB9C46564B596ABB
:1088E0008C450FD89B6A834201D28C450AD0032362
:1088F0005A46137680230322DB00CFE7F251002291
:108900000023CBE78023DB00C8E700235A46F3515E
:108910001376F4E74346F351736F029305F09AFB25
:1089200090229246FA2200230090019192000021A9
:10893000029809F0C3F9009A019B801859410B0075
:1089400080210200B24409068B4202D301223B4B34
:10895000524251460A604B605A4602231376F3593D
:1089600002229B139AE7039B9C229A469823B258B3
:10897000F0588018C117F050C904430B304A19430E
:10898000C004002307F0B0FE3300A0337065596ABD
:10899000186A294B5A6A91420BD89B6A834206D3C4
:1089A00045B0F0BCBB46B246A946A046F0BD9142D8
:1089B000F6D130005146A43003F050FDF0E791426B
:1089C00000D047E7300051460C3003F047FD30003F
:1089D0005146283003F042FD16F08AF81E2107F0B8
:1089E00035FE5531080009F0EFF98A21C90509F073
:1089F0009CF98F21C90509F098F9124909F081F90C
:108A000009F004FAF06016F073F81E2107F01EFE5C
:108A10005831080009F0D8F98A21C90509F085F90B
:108A20008F21C90509F081F9064909F06AF909F0B1
:108A3000EDF9B0620EE7C04600400540FFFFFF7F42
:108A4000C05D00000080BB46042303707047C04631
:108A5000F0B5D6464F4646460378C0B5042B2AD01B
:108A6000032B43D09621244A490090461288161CB5
:108A70008A422CD8B6B2022B2DD0002E1BD01F4B11
:108A8000002599461E4B00249A461E4F31002800AF
:108A900007F0DCFD43460221595E0F22411A484689
:108AA00002F08CFF00280BD053466935013408C70B
:108AB000FF35A642EADCE0BCBA46B146A846F0BDA6
:108AC0006935013401C7FF35A642DFDCF3E70E1C30
:108AD000B6B2022BD1D103004933FF335B68002BC0
:108AE000CBD11130FF3000F0AFFFE4E7406A0368FC
:108AF0001B699847DFE7C0464414002098220020F5
:108B0000000A0AFFA01C002070B505000E0014002A
:108B100009F03CFD01280AD0022800D070BD2800D1
:108B2000013CE2B2711CF83004F03CF9F6E7280091
:108B3000013CE2B2711C283003F032FDEEE7C04682
:108B400070B54C220025594C8021A552584A594BEA
:108B5000E263594A236322666822A552574A584B5A
:108B6000A265584AA363625084225749574BA150CB
:108B7000A0210432A5500432A3500432A55004327F
:108B8000A5500432A5500432A550514A6364625086
:108B90000021B82225702564A56425656565E56515
:108BA0006566E5662567A154D0214A4A20006250D7
:108BB000D42249491130A1500432A5500432A350A7
:108BC000E023E5500433E5500433E5500433E55029
:108BD00023002032F833A350043AA3508023FF30FF
:108BE0005B00E55000F00EFF9E2301225B00E25087
:108BF0000C33E5500433E5500433E5508833E55039
:108C000095320433E250A1220433E5502300D20010
:108C10000121A0180022E933FF3349429A7199617A
:108C200028338342FAD12D4B2D49E2540433E250CC
:108C30002A4BE3186350043163502A4BE250FA2266
:108C400004335200E250284A0833A0180022E318E7
:108C500019001C319A711A6259629962DA623033D2
:108C60008342F5D1214A224BA11800221A703033D9
:108C70009942FBD11F4B2049E2540433E2501D4B73
:108C8000E31863501D4963501D4BE2501D4B1E4AB3
:108C90001A601E4A5A601E4A1A6100225A619A617D
:108CA0001E225A62FA2292009A6270BD5021002060
:108CB00088880800E4090210E0B1FFFF11CA08002B
:108CC000B4090210D8090210AAAA2A00204E0000F6
:108CD000CC090210C0090210555555000C050000C2
:108CE000140500001C050000E8080000040900004D
:108CF00094260020EC080000F4080000F8080000AA
:108D0000FC080000743F0020F009021088130000E6
:108D100000003442002310B500210370014801F027
:108D200069FB10BD6814002070B5084D04002800D0
:108D3000002101F05FFB28000022054901F076FBCD
:108D4000012323700023236170BDC04668140020F6
:108D50000000344370B504002830150003F00CFC0B
:108D600020002900F83003F01DFF0D4D00212800E0
:108D700001F040FB002228000A4901F057FB0123C3
:108D8000237000232361636A002B06D0200011307A
:108D90000021FF3000F04EFE70BD034B6362F5E72B
:108DA0006814002000003443743F00202E4BF0B5BF
:108DB00000254360002383B00362C560040015F002
:108DC00097FEB421490007F041FC080008F0FCFFC1
:108DD000264B6561A0600A20185E07F03FFF020085
:108DE0000B0007F0ABFE0022214B07F0CEFE060081
:108DF00060680F0007F032FF02000B0030003900FE
:108E000007F0A5FE07F07EFF1A4B1B4D2361FF23E1
:108E1000A0610022280000930021002301F0F2FA53
:108E20002800802101F0E6FA144D9E272E007F00D5
:108E3000F83665223000E95D03F0CEFE3000642193
:108E400003F0DEFE01223000E95D03F0C5FEFA21E9
:108E50003000490003F0D4FE1E236362FA239B0016
:108E6000A36203B0F0BDC046881300004414002084
:108E70000000444000007041681400205021002090
:108E8000F0B5CE46474680B545698168070085B094
:108E9000281C08F033FF0021041CB860281C08F0CF
:108EA00073FF002800D039E10021281C08F082FF60
:108EB00000280AD0F86908F087FF051C011C201C57
:108EC00008F078FF002800D033E1FA26BB69BC6ABD
:108ED0009846FD68B600B44200D134E10021181C68
:108EE00008F068FF002800D16CE1200008F06CFF5A
:108EF000291C08F04FFF002800D18FE180231B06BA
:108F000043444146BB61BE62281C994608F0F3FE0B
:108F1000041CF8600021484608F036FF002800D104
:108F20004BE2DF4B99460A20185E404208F04CFFA6
:108F3000011C201C08F02EFF002800D11DE1B8689C
:108F400008F064FF00210500201C08F01DFF002828
:108F500006D02800B421B430490007F077FB0D009B
:108F60007B6AD04EDA0FD21852102900300001323D
:108F700002F024FD3300493BFF3B1B690400012B39
:108F800000D1FFE1002C00D137E1F868002108F0A2
:108F900011FF0200531E9A410023C34D01212800F6
:108FA000009303F07BFD28009621D030490003F0A8
:108FB00027FE3A6A01329E23BC4D5B00E95C3A62AF
:108FC000002A00DCEEE10B2A00DD8DE12800D2B2A0
:108FD000F83003F001FE002C00D034E17E684B46EF
:108FE0000A20185E07F03AFE02000B0007F0A6FD0B
:108FF0000022AF4B07F0C9FD040030000D0007F060
:109000002DFE029003910021B86908F0D3FE0028DC
:1090100000D183E180231B06E9182000029A039BFC
:1090200007F095FD07F06EFEB86115F061FDC317FE
:109030009B0DC0188005800DC01A07F00FFE00229E
:109040009C4B07F0A2FD00229B4B07F09EFD0022E7
:10905000984B07F073FD040038690D0008F014FF09
:1090600002000B002000290007F08FFD07F00EFE24
:10907000040015F03DFDC00700D56442BD68200026
:1090800008F0A2FE291C08F039FE08F0BFFEB42348
:109090005B00984200DC23E11800F86108F094FEC0
:1090A000291C08F028FE854908F03FFE08F0ECFE78
:1090B00002000B0007F042FD040078680D0007F085
:1090C000CDFD0B0002002900200007F040FDFA242E
:1090D00007F018FE3B6AA4007861BC62062B00DD35
:1090E00025E1FF23764E009300220023002130006B
:1090F00001F088F9BB6AFA22920093423ED0714A8D
:109100001368591C11609B0738D00023022100937B
:1091100065486D4A323303F0C1FC2FE0F86908F06E
:1091200053FE051C011C201C08F02EFE002800D157
:10913000CBE6FA26BB69BC6ABD609846FD68B600FE
:10914000B44200D0CAE6291C181C08F0D7FD002143
:10915000041CF860404608F02DFE002800D125E1EF
:109160004F4B99460A20185E08F02EFE011C201C69
:1091700008F018FE002800D0E1E6514EBB68984682
:109180004B460A255D5F280008F01EFEFF68041CA0
:10919000391C08F00FFE002800D03C1C684208F083
:1091A00013FE211C051C08F0EFFD002800D12C1C2B
:1091B00041463000221C01F039F905B0C0BCB94667
:1091C000B046F0BD0021404608F0DEFD00285ED02C
:1091D000200008F0F9FD291C08F0E4FD002800D16A
:1091E000BAE080231B0643444146BB61BE62281C93
:1091F00008F081FD041CF860B2E72B4D002200232B
:1092000000212800009403F049FC28009621D0306A
:10921000490003F0F5FC3A6A013ACCE6291C4046C5
:1092200008F06CFD1E4BF8609946041C0A20185E7D
:1092300008F0CAFD011C201C08F0B4FD002800D075
:109240007DE61F4E5BE7786807F008FD1F4B204A5C
:1092500007F09BFC07F01AFDFA2306009B009842DA
:1092600000DA1E001B4938697E6008F047FD1A4984
:10927000041C08F089FD002800D190E01749201C4B
:1092800008F098FD002800D194E03C61A7E6404634
:10929000291C08F033FD024B094E9946F8602EE771
:1092A0004414002098220020782100205021002022
:1092B000000044400000E03F0000503F000020421A
:1092C00068140020CC3C0020DC0500003333EB3F69
:1092D00033333333000040400000704200007041DF
:1092E000C343DB171840D8E62C006822F83420006E
:1092F00003F072FCFA212000890003F081FC314C5C
:109300000021200001F076F8002220002E4901F013
:109310008DF801232B7000232B614EE7029A039BEB
:109320002000290007F013FC07F0ECFC7CE615F0A8
:10933000DFFB052107F08AF9002939D0BB6AA34277
:1093400000D1CEE600231F4E00930022FF21300003
:1093500001F058F8BB6ACEE6291C404608F0CEFC66
:109360001A4BF8609946041C0A20185E404208F027
:109370002BFD011C201C08F00DFD002800D0DEE5AF
:10938000104EBCE629007B6A3000DA0FD21852106A
:109390000132B43102F012FB0443E4B2F2E50C4CAA
:1093A0003C611CE62C006722F834A0E7C146B1E519
:1093B000B962C7E7074C3C6111E6044B014E994680
:1093C000DCE6C0466814002000003443441400204A
:1093D00000007042000070410323F0B5446A03703E
:1093E0002368314A9B6883B0934259D12F4B0025A3
:1093F00063600023E560236215F07AFBB421490025
:1094000007F024F9080008F0DFFC294B6561A06033
:109410000A20185E07F022FC02000B0007F08EFB0A
:109420000022244B07F0B1FB060060680F0007F034
:1094300015FC02000B003000390007F088FB07F034
:1094400061FC1D4B1D4D2361FF230022A061002103
:1094500028000093002300F0D5FF2800802100F0B1
:10946000C9FF174D9E272E007F00F8366522300079
:10947000E95D03F0B1FB6421300003F0C1FB012280
:109480003000E95D03F0A8FBFA213000490003F049
:10949000B7FB1E236362FA239B00A36203B0F0BDF7
:1094A00020009847FAE7C046AD8D001088130000F1
:1094B0004414002000004440000070416814002063
:1094C00050210020F0B5040005002600F83549368B
:1094D000280083B0FF3603F0D7FB300002F004FA17
:1094E000844BE1685A6AA068914221D89B6A834202
:1094F00020D304F0AFFD00237F4A801859410B00B0
:109500008021020009068B4202D301227B4B52428A
:10951000E3602378A260022B14D0032B0DD0012B23
:1095200006D1280003F094FB002801D10223237008
:1095300003B0F0BD9142DCD1FAE7606A0368DB68F2
:109540009847F5E7226973689A4227D004F082FDB4
:1095500000236B4A801859410B0080210200090644
:109560008B4202D30122654B5242E3617368A261D0
:109570002361002B02DC00232362D9E79E2628000A
:10958000760003F053FB2800227CA15D03F024FB4E
:1095900066222800A15D03F01FFBECE7A026FC215A
:1095A0007600A059890508F0C0FBA05108F060FCC6
:1095B000544EC1B2300000F01DFF2369002BB7D01C
:1095C0004C4BE1695A6AA0699142B1D89B6A8342C7
:1095D00001D29142ACD0280003F03AFB0028A7D179
:1095E000236A01332362032B5EDD0323676A237042
:1095F0003B68454A9B68934279D10024434BFC6009
:109600007B60386215F074FAB421490007F01EF847
:10961000080008F0D9FB3E4B7C61B8600A20185E58
:1096200007F01CFB02000B0007F088FA0022394B00
:1096300007F0ABFA040078680D0007F00FFB02009A
:109640000B002000290007F082FA07F05BFB324B89
:1096500000223B61FF23B86100213000009300230A
:1096600000F0D0FE3000802100F0C4FE2B4C9E267E
:1096700025007600F83565222800A15D03F0ACFADC
:109680006421280003F0BCFA01222800A15D03F048
:10969000A3FAFA212800490003F0B2FA1E237B62E4
:1096A000FA239B00BB6243E70422D21A9E235B008D
:1096B000E15CD2B2280003F08FFA04F0CBFC002367
:1096C000174A801859410B008021020009068B427D
:1096D00002D30122094B5242E361A023A261114A45
:1096E0005B00FF213000E25000F084FE20E73800EC
:1096F00098471DE700400540409C0000FFFFFF7FAA
:10970000C0C62D0068140020AD8D00108813000025
:10971000441400200000444000007041502100200B
:1097200040420F0000007F437047C046F8B5070075
:1097300005000026094B041D1B882037836515F0A2
:10974000D7F9A96D06F082FF080008F03DFBA6637B
:109750002060E0610434BC42F1D1F8BD4414002023
:1097600010B504005C2108F049FD200010BDC04682
:10977000F0B5DE4657464E464546E0B5826D87B0A9
:109780000490002A0BDD9623013A5B009A4200DB2D
:1097900016E1013200218C48920008F01BFD049B69
:1097A0001C1D25001833059315F0A2F9FA21C900F4
:1097B00006F04CFF854BC81807F050FA0022844B86
:1097C00007F0C5F90600A86B0F0008F05DFB02006A
:1097D0000B003000390007F0B1F907F093FA041CD0
:1097E00008F052FB7B4A7C4B06000F0007F010FA92
:1097F000002800D1DEE030003900764A774B07F0D0
:1098000015FA002800D1D8E0211C201C08F08DFAA0
:10981000211C08F08AFA2968AC6308F06FFAEC6939
:109820002860211C804608F066FA08F02DFB6C4A7F
:109830006C4B07F0AAF90600201C0F0008F024FB6F
:1098400002000B003000390007F078F907F05AFAEF
:10985000049BE8619B6D041C18009A4608F0B4FA5A
:10986000061C011C404608F09DFA00280AD0311C55
:10987000404608F040FA311C2860201C08F03BFAF2
:10988000041CE8612B680021181C994608F07CFA3A
:1098900000280BD04846311C08F030FA311C2860F3
:1098A0008146201C08F02AFA041CE861211C484665
:1098B00008F06AFA431E98414300984601235B4230
:1098C0009C464946201CE04408F015FAFE21400061
:1098D0008905400808F012FA08F098FA8346002833
:1098E0005CDD08F071FA384B0024002701900293E8
:1098F000039523E00021301C08F05CFA002848D0D2
:10990000301C08F0B5FAC2B213029B181B029A1859
:10991000190C1B0A9620400085420BD2FF201B0425
:1099200000041206120C034013430906029AAD000C
:109930000B43AB5001374444BB452ED0380008F0F0
:1099400043FA019908F0DDF9011CFE20800508F0BA
:10995000D2F9061C200008F037FA494608F0CEF983
:1099600008F054FA514606F071FE0D1E00DA554417
:10997000311C301C08F0D9F91B4908F0D6F91A49F6
:10998000061C08F001FA0028B4D1FF21174B184A31
:10999000C0E7002300210022BCE7039D059B04359E
:1099A000AB4200D000E707B0F0BCBB46B246A946C8
:1099B000A046F0BD0F48104C2DE71048104C2AE788
:1099C0002C22FF32E5E6C046A01C002018FCFFFF59
:1099D0000088C340666666666666F63F6666F6BFE2
:1099E0009A9999999999B93F00007F43FFFF000028
:1099F000FFFFFF00B29D2F403333B33FB29D2FC016
:109A00003333B3BF002370B528220400002108C0FF
:109A100008F0E0FB5C2008F0E9FB05005C22002177
:109A200008F0D8FB024B20002B60656070BDC0467B
:109A3000180A021010B501608900401840680368D8
:109A4000DB68984710BDC046036810B59B00C0187E
:109A5000406803689B68984710BDC04630B50B7CD2
:109A60000C0085B0012B0DD001238A68A021934002
:109A70008622C905D2008B500323237400200021C5
:109A800005B030BD0868002104F0D0FE0223237425
:109A900004F0D0F8050004F0DDFA0C2200231218BF
:109AA0004B41802109068B4202D30122054B5242D1
:109AB00001210291044928000194009104F0BEF8AC
:109AC000DCE7C046FFFFFF7F5D9A001070B5040021
:109AD000100062602160022103F0A8FA1349206897
:109AE00004F0A0FD002302220821206804F060FE9B
:109AF000A368013300D070BD01200AF023FA216869
:109B00000B4B0C4DCB185A425341C2020A332A4028
:109B10001B04134311221343A022D2059446A060D4
:109B200080016044E36003614160E4E790D003009A
:109B30000080FCBFFD7F00FF30B583680400A020DB
:109B4000C00584469B01634419609A60012301218A
:109B5000237485B0206804F069FE04F06BF80500FA
:109B600004F078FA6422002312184B418021090680
:109B70008B4202D30122064B524201210291054938
:109B800028000194009104F059F8012005B030BD7F
:109B9000FFFFFF7F5D9A0010037C0200032B03D0C0
:109BA0005A425341D8B27047A021C9058C468368F8
:109BB00000209B0163441B69DB01F4D413689B699B
:109BC0001B07F0D410740130EDE7C0460023037486
:109BD0007047C04610B58168027C024809F0CEFC8F
:109BE00010BDC0460CFB0110F8B5DE4657464E4688
:109BF0004546334BE0B51C68A369DB0620D4314BE6
:109C000010259A461978002399462F4B2F4F9846D6
:109C10003A782F4EA3691D42FCD12068092A0CD83E
:109C2000531CDBB2B0543B701A0000290ED1072B35
:109C300003D1336843452CD00722A3691D42E9D0E4
:109C4000F0BCBB46B246A946A046F8BD052BF4D1F0
:109C50003379F2781B029B189B109B4614D0B421D9
:109C6000B0787378C001C0188011490006F0EEFC8E
:109C7000184B1B78002B19D15B4617489BB24A0042
:109C800083520122154B5A544B463B70012100224E
:109C9000D3E78023B288DB019A42CDD1B379812BFF
:109CA000CAD15246803B13703970EFE70A484A0028
:109CB000835A5B4501DC9BB2E2E75B469BB2DFE780
:109CC000BC4D0020E75A0020A55A0500E65A0020A6
:109CD00010480020E85A00201C480020C04D0020F9
:109CE0002021074B1B689A691142FCD1A522202133
:109CF0001A609A691142FCD140221A607047C0462E
:109D0000BC4D00202021094B1A6893691942FCD1EF
:109D1000A523202113600800936918401942FAD145
:109D2000034B11601870034B18707047BC4D002036
:109D3000E75A0020E65A00202021074B1B689A6949
:109D40001142FCD1A52220211A609A691142FCD14E
:109D500025221A607047C046BC4D0020F0B557461A
:109D60004E46DE464546264BE0B51B6885B09A4612
:109D70005B429B46234B52461B6856469946224BF4
:109D80006A361B68214F0393214BFF369846214BBF
:109D9000534401935B469B1A013B0293DA452DDB4A
:109DA000029B1D4D9C19B4212000490006F04EFC79
:109DB00049007B5A9D4200DD1D000134A642F2D1CC
:109DC000A94518DA4B46E81A07F0FEFF039907F099
:109DD000ACFF08F01BF84346188002239C46019B09
:109DE0000136E044B342D9D105B0F0BCBB46B2461F
:109DF000A946A046F0BD43461D80EEE7064DDFE7CD
:109E000054140020601400205C1400201C48002022
:109E100040450020D1020000E02E000070B50C008B
:109E2000E1210600164D1000C9022A6004F0FAFB79
:109E30003000022103F0FAF82000022103F0F6F8C6
:109E4000104B2C689C466444631E9C4114342000D3
:109E50000D4903F04BFA0121200003F021FA5022B2
:109E600038212B689A635A6B343311408022520197
:109E7000134300221960054B1A70054B1A7070BD10
:109E8000BC4D002000C0FCBFE99B0010E85A002038
:109E9000E95A0020F0B5DE4657464E464546E0B545
:109EA000984C994B61685A6A206885B0914207D9ED
:109EB000002005B0F0BCBB46B246A946A046F0BDA6
:109EC0009B6A834219D304F0C5F800238F4A801897
:109ED00059410B008021020009068B4202D3012266
:109EE0008B4B524263608B4B226003931B78052B94
:109EF000DED8894A9B00D3589F469142E3D1D7E7E9
:109F0000864B874F1B689A465B429B46854B524661
:109F10001B6856469946844B6A361B68FF36029387
:109F2000824B9846824B534400935B469B1A013BFD
:109F30000193DA4500DAE0E0019B7E4D9C19B421E3
:109F40002000490006F082FB49007B5A9D4200DD5B
:109F50001D000134A642F2D1A94500DBCAE04B4600
:109F6000E81A07F031FF029907F0DFFE07F04EFF15
:109F70004346188002239C46009B0136E0449E42E3
:109F8000D7D100226C4B6D481A700223039A1370CC
:109F900009F0F4FA8CE76A4809F0F0FA04F05AF88C
:109FA0000023684A801859410B00802102000906ED
:109FB0008B4202D30122564B52420CC401225E4B0B
:109FC0001A700523039A137072E75F4809F0D6FAF6
:109FD00004F040F800235D4A801859410B008021AD
:109FE000020009068B4202D30122494B52420CC4A3
:109FF0000423039A13705BE7554F4C48B42439008F
:10A00000BC4600230700534E454DA4000A78002AA1
:10A0100042D0EA5A002A3FD0F85A90423CD9F25234
:10A0200002330131A342F1D16746B4223800002146
:10A03000520008F0CFF8484BB1460427DF5F474B8A
:10A040001B689B461D00002398466933FF33464634
:10A050009A46C84606E002239C460136E144013593
:10A0600056454CD04B461B88BB42F4DA5B46002B6E
:10A07000F1DD340002E00134AC42ECD0B421200028
:10A08000490006F0E3FA434649005B5A9F42F2DA80
:10A090004B46284A1A80DEE7264A0131F252023343
:10A0A000A342B3D1C0E720212D4B1A68936919420E
:10A0B000FCD1A523202113600800936918401942A0
:10A0C000FAD1284B11601870274B187003F0C2FFAB
:10A0D00000231C4A801859410B0080210200090608
:10A0E0008B4202D301220A4B52420CC40223039A30
:10A0F0001370DDE643461D803CE70E4D2CE7012042
:10A10000D7E6C046681B002000400540A08601003D
:10A11000FFFFFF7FE95A0020280A02105414002094
:10A120001C480020601400205C14002040450020E2
:10A13000D1020000E02E0000E85A002048FB011088
:10A1400038FB011040420F0028FB011000093D00C0
:10A15000C04D0020EC4A0020441400205814002078
:10A16000BC4D0020E75A0020E65A00207047C04648
:10A17000014B18707047C046E95A0020F0B5CE4632
:10A180004746040003000D00002180B587B016008B
:10A190000091021D21003848083308F071FA0028A8
:10A1A00004D107B0C0BCB946B046F0BD63682768AB
:10A1B0009846A3680124AC409946220023004146FA
:10A1C000380008F0FBFB220023004146380008F06D
:10A1D00049FC2A4B2800F9184B1E9941063102F020
:10A1E00025FF80235B0202934B464A460333D2018C
:10A1F0001B031343224A052013408022D205134338
:10A20000204A0393204B2A401343AD022B4305936E
:10A210001E4B049304F09EFC07F0D1FD041CF000DB
:10A2200007F0CDFD011C201C07F06BFD051C07F09D
:10A230001FFE84B20023002C0ED0200007F0BFFDCB
:10A24000011C281C07F057FD8721C90507F06DFD8B
:10A2500007F00EFEC3B21B0224044A4641461C43CB
:10A26000380002AB029408F0A5FC012341468B4064
:10A270003A6813433B6094E7400A02100000E0AFE5
:10A28000FFFFFF9FFF83FFFF0000104000000C4016
:10A2900010B5046840680122030010339A406368D7
:10A2A0001A42FCD104308000015110BD0EC806488E
:10A2B00010B58446042482B061440448090D00941A
:10A2C00009F05CF902B010BD0000E0AF58FB0110CE
:10A2D00010B50378282B39D006D9292B28D0642B28
:10A2E00001D109F009FF10BD0A2B0ED0142BFAD1B1
:10A2F0008378C1781B0609040B43017942781C4C12
:10A30000090292000B431351EDE74378002B2BD049
:10A31000184B1A68164995200B00C00008181A60DF
:10A320005A6008339842FAD19523DB00CA50DAE725
:10A33000837842781B021343C27812041A430379CC
:10A340001B0613430B4A1BBA1360CCE78378427891
:10A350001B021343C27812041A4303791B061343EA
:10A36000054A1BBA1360BEE7034B1A68D2E7C04622
:10A37000A01C002064140020643E002010B50021C1
:10A38000022002F07DFE0021022009F0EDFD10BD4B
:10A3900070B5134B134C5A6A61680500266800209B
:10A3A000914219D89B6AB34217D303F053FE00239E
:10A3B0000D4A801859410B008021020009068B428A
:10A3C00002D30122094B52420CC4A84796210848E7
:10A3D000490009F051FE012070BD9142E5D1FBE733
:10A3E00000400540601B002010270000FFFFFF7F9A
:10A3F000A01C00204268024B9B1899717047C04610
:10A400000C40002070B504AC26784568064C6519F0
:10A410002972416861184A724268A21893724368AF
:10A42000E418E67270BDC0460C400020F0B5464608
:10A430004F468846D6464549C0B506004046171CDB
:10A4400007F0A2FC002853D00021404607F0B2FCE0
:10A45000002800D175E0404607F016FD04000D000D
:10A46000381C3B4907F090FC00284BD1C2239A4688
:10A4700028339946364F374B988906F0EFFB002278
:10A48000354B06F064FB2B00220006F07EFB06F045
:10A4900021FC7268314B010A9954494672689A1836
:10A4A000507072689A18D17072689B1852461A716F
:10A4B00008F0A8F8652008F0ADF884214046C905E9
:10A4C00007F033FC07F0A2FC00B208F0AFF88421DB
:10A4D000381CC90507F029FC07F098FC00B208F009
:10A4E000A5F808F0C3F8E0BCBA46B146A846F0BDEE
:10A4F000164B00249846184D1549381C07F044FCAB
:10A500000028B3D01649381C07F054FC002812D09C
:10A51000381C07F0B9FC134A134B06F036FB134BFB
:10A52000002206F00BFB06F0D5FB030ADBB29946CE
:10A53000C3B29A469FE73E239A46293B9946084F65
:10A5400099E70023002400259846D5E70000B4438E
:10A550000000B44244140020008076400C400020EB
:10A560000000B4C2ABAAAAAAAAFA72400000E04056
:10A5700010B50248FEF76CFA10BDC046502100200D
:10A58000F8B509F08DFC08220A212648FEF7E2FB07
:10A590000023254DA0262B80244B254C9C4676017C
:10A5A0006544200007F010FC224907F0BEFB07F0CD
:10A5B00075FC214907F0B9FB07F028FC2F1902347C
:10A5C0003880B442EDD10E2002F06AFDD024802301
:10A5D0002406DB01A362002201210E2002F03EFDD1
:10A5E0000B2002F05DFD80231B016362A361134B0E
:10A5F000042219681248FFF769FA052002F050FD9D
:10A6000020236362A361FFF7B9FE0E4B0D211A6888
:10A610000C20FFF703FCC82003F030FC0120FFF7FB
:10A62000A7FDF8BD50210020A42C002000FCFFFF56
:10A6300002040000DB0FC93A00FEFF467014002040
:10A64000F83F002074140020F8B5DE464E46574609
:10A650004546E0B507F0D6FF642007F0DBFF08F0C1
:10A6600005F8954E954BF458954BF3189C4270D0D5
:10A670009846A4235B009A46924BB244994605E063
:10A6800020000AF011FD0400404562D02569AF00AA
:10A690007B19DB00F218EF32FF321278002AEFD07C
:10A6A000F318F133FF3303CB002900D1D3E0FA22B2
:10A6B0000023920006F030F8FA235B009B468344A7
:10A6C00003F0C8FC002900D1C0E0FA220023920068
:10A6D00006F022F88345D3D27F19FF00F719F93726
:10A6E000FF3703CF002900D1D4E0FA2200239200E3
:10A6F00006F012F80700F537FF3703F0ABFC00292E
:10A7000000D1D3E0FA220023920006F005F8874238
:10A71000B6D32900504601F027F907004845AFD0CD
:10A7200007F070FF6E2007F075FFE8B207F072FFC8
:10A73000388807F08BFF788807F088FFB88807F023
:10A7400085FF07F093FF20000AF0AEFC04004045AF
:10A750009CD15D4BF4585D4BF3189C4270D09846E9
:10A760005B4B43449A46574B994605E020000AF05C
:10A770009BFC0400404563D0564925698C466F0018
:10A780007B191B01F21862441278002AEED0A6222F
:10A79000D2009446F318634403CB002965D0FA2213
:10A7A0000023920005F0B8FFFA235B009B46834428
:10A7B00003F050FC002953D0FA220023920005F048
:10A7C000ABFF8345D2D2A722D20094467B191B014E
:10A7D000F318634403CB00294CD0FA2200239200E3
:10A7E00005F09AFF0700F537FF3703F033FC002927
:10A7F0004BD0FA220023920005F08EFF8742B5D39A
:10A800002900504601F0C2F807004845AED007F0D5
:10A81000F9FE6F2007F0FEFEE8B207F0FBFE388875
:10A8200007F014FF788807F011FFB88807F00EFFD3
:10A8300007F01CFF20000AF037FC040040459BD1C4
:10A84000F0BCBB46B246A946A046F8BDFA21890035
:10A8500005F024FF3EE7FA21890005F01FFF2BE7F2
:10A86000FA21890005F01AFFABE7FA21890005F00B
:10A8700015FF99E7FA21890005F010FF0700F53769
:10A88000FF3703F0E7FB0029B3D1FA21890005F077
:10A8900005FFB3E7FA21890005F000FF0700F5374F
:10A8A000FF3703F0D7FB002900D02BE7FA218900FE
:10A8B00005F0F4FE2BE7C0465021002014050000EF
:10A8C0000C050000BC4F0020F4080000EC0800005C
:10A8D0005CF8FFFF2E050000F8B5404C404B616866
:10A8E0005A6A2068914226D89B6A834252D301213A
:10A8F0003C4A13784B40137054D0D02380221B065F
:10A9000092045A61384B1D6803F0A4FBFA2206003A
:10A910000F00002392002800002107F0CFF98019D2
:10A9200079410B008021020009068B4202D30122EB
:10A930002E4B52420CC4D0231B065A682C490B687C
:10A9400052041ED5002B38DD013B0B60294B1978D2
:10A95000294B1A788A4203D02848197008F00EFE55
:10A96000FFF798FA002834D12548FEF7ABFD2548BB
:10A97000FFF70EFD244C2000FFF70EF9002821D12F
:10A98000F8BDFA229200934212DA01330B60194BA0
:10A990001978DDE79142CED00121124A13784B405D
:10A9A0001370AAD1D02380221B0692049A61A9E7D2
:10A9B0000122104B01211A70CAE700220D4B002121
:10A9C0001A70C5E78022200010495200FFF7B4F842
:10A9D000D6E70F490F4800F017FBC5E7701B0020B2
:10A9E00000400540DA5A002078140020FFFFFF7F66
:10A9F000683F0020DE5A0020DF5A002074FB01105F
:10AA00005021002071A50010F83F00200C400020CC
:10AA1000EC4A002098220020F0B585B00A0001A978
:10AA20000C00114BE0CBE0C40378452B08D00A2A78
:10AA300004D90B2212F0BAFF002806D005B0F0BDF1
:10AA4000411C0A4808F09AFDF8E7094808F096FD0D
:10AA5000FFF772F9FA20400003F010FA09F02EFA1D
:10AA6000FFF750F9EAE7C04698FB01107CFB0110A4
:10AA700084FB0110B42110B50348890009F0B2F934
:10AA80000248FDF7C1FB10BD4045002044140020E2
:10AA90000122034B52429A6000221A747047C0464A
:10AAA000F83F0020F8B504000D0007F06FFD1E28E8
:10AAB00007D96438C3B2682B0BD88B4A9B00D35894
:10AAC0009F46002805D01E2803D8884A80001358C6
:10AAD0009F46874808F052FD002D08D00026854F7C
:10AAE000A15D3800013608F049FDAE42F8DB0A20CE
:10AAF00008F018FDF8BD07F049FD83007E4A1B18D9
:10AB00005B001360F6E707F041FD0528F2D87B4BA8
:10AB100080001B589F46B923794F9B003D009C46FF
:10AB200000261435674407F06DFD142007F072FD10
:10AB30002C00F0B207F06EFD143C2088023407F0C0
:10AB400085FDAC42F9D1143507F090FD0136BD42C8
:10AB5000E9D1CFE7B9236B4F9B003D009C4600260F
:10AB60001435674407F04EFD152007F053FD2C0007
:10AB7000F0B207F04FFD143C2088023407F066FD68
:10AB8000AC42F9D1143507F071FD0136BD42E9D16F
:10AB9000B0E7B9235C4F9B003D009C46002614356E
:10ABA000674407F02FFD162007F034FD2C00F0B2AB
:10ABB00007F030FD143C2088023407F047FDAC421A
:10ABC000F9D1143507F052FD0136BD42E9D191E7C4
:10ABD000013DE9B2601CFFF77BFB8BE7013D4B4871
:10ABE000EAB2611CFDF716FB84E7013D4848EAB272
:10ABF000611CFDF789FF7DE74648FEF7EBFF79E72B
:10AC000007F0E8FC06F02AF80022434B05F0BDFFF0
:10AC100006F078F8041C07F0C7FC06F01FF80022C5
:10AC20003D4B05F0B2FF06F06DF83C4B021C211CB9
:10AC30001800FFF7FBFB5DE707F0CCFC040007F012
:10AC4000A5FC374B185555E7FFF7FEFC52E72E4998
:10AC5000344801F063FA4DE72D48FEF765F849E7FF
:10AC60002B48FEF7B9FB45E72948FEF753F841E7C3
:10AC70002748FDF7E9FE3DE707F0ACFC2A4B1860DA
:10AC800038E707F0A7FC294B186033E707F0A2FC70
:10AC9000274B18602EE708F0BFFC2BE71D48FEF796
:10ACA00095FF27E707F096FC1D4B01001A5C214831
:10ACB00008F064FC1EE70320FFF75AFA1AE7FFF7D3
:10ACC0004DF817E7FFF71EF80220FFF751FA11E7DA
:10ACD000FFF732F80020FFF74BFA0BE7FFF700F819
:10ACE00008E7FFF743FA05E7640A0210080C0210B0
:10ACF000B0FB0110B8FB011078140020840C021086
:10AD00001C48002040450020EC4A0020441400204C
:10AD100050210020F83F00200000A03F68140020D0
:10AD20000C400020982200205414002058140020C9
:10AD300060140020A4FB0110F8B54746CE46846895
:10AD4000031D80B58846070099460D68002C05D183
:10AD500032E0A3680126002B07D01C00226995422F
:10AD6000F7DBE3680026002BF7D1002E1CD1AA42A6
:10AD700016DAA14524D022690123954200DB002385
:10AD8000DDB2142007F032FA43461B68010003616C
:10AD900022004B4628000AF0BBF97B6901337B6136
:10ADA000C0BCB946B046F8BDFB689C42E1D020006B
:10ADB0000AF092F90269DAE7C3684C469945F6D180
:10ADC0000125DEE7F0B5C646040000B514200D00ED
:10ADD00007F00CFA236906000361237845600370CD
:10ADE00000238360C360E068002803D03100FFF7D0
:10ADF000E9FFF060A568002D1ED0002337009846BB
:10AE0000142007F0F3F92B69040003612B78037019
:10AE100043468360C360B8604760E868002808D094
:10AE20002100FFF7CFFFE060AD68002D04D02700C0
:10AE3000E6E7AD68002DFAD1300080BCB846F0BD21
:10AE4000F0B5DE4657464E464546E0B583B0019024
:10AE5000002876D0019BDB689946002B68D04B46D2
:10AE6000DB689A46002B59D05346DB689B46002B83
:10AE70004AD05B46DC68002C32D0E568002D1DD03E
:10AE8000EB689846002B22D04346DE68002E31D076
:10AE9000F768002F09D0F868FFF7D2FF3800BF68C5
:10AEA000142107F0ABF9002FF5D1B7681421300059
:10AEB00007F0A4F9002F1DD03E00E9E7A568142192
:10AEC000200007F09BF9002D0AD02C00D5E7AE68D2
:10AED0001421280007F092F9002EEFD03500CFE7BB
:10AEE0005B469C681421584607F088F9002C0BD06B
:10AEF000A346BEE743469E681421404607F07EF90C
:10AF0000002EE4D0B046BFE753469C68142150465B
:10AF100007F074F9002C01D0A246A5E74B469C68C7
:10AF20001421484607F06AF9002C01D0A14696E7A3
:10AF300001981421846807F061F9002C01D0019474
:10AF400088E703B0F0BCBB46B246A946A046F0BDB8
:10AF5000F0B5C646836805009C4600B5071D002B6A
:10AF60004AD03E001C0002E0E468002C07D02369B0
:10AF70009942F9DCA26812DA2600141EF7D1EB68B8
:10AF8000B34209D1B74207D16046FFF759FF00230A
:10AF9000EF60AB602F616B6180BCB846F0BDE368C9
:10AFA000002A06D01069814224DC14009268002A2D
:10AFB000F8D1002B06D01A69914219DA1E009B685D
:10AFC000002BF8D1EB689C420FD119E020000AF069
:10AFD0006BF8A0463900040040460AF05BF91421E2
:10AFE00007F00CF96B69013B6B61B442EED1D3E71A
:10AFF000DB68DEE7D268D3E7C3689F42C4D0CBE703
:10B00000B742F2D1C0E7C046F0B5982357464E4646
:10B010004546DE460A00E0B5C1500021B425083B94
:10B02000734EC1508246002700240423F05E8DB089
:10B030006D0006E00137062F00D17DE00134AC42FF
:10B0400007D06300D35A8342F4DA01340027AC42BC
:10B05000F7D10821735E00210393B4235B00994666
:10B060000023A1448846029149469946534600254B
:10B0700082469346009101930AE0002D56D10123A8
:10B080000027984602910135009B01349C4235D03F
:10B09000B4212000490005F0D9FA5A464B009E5AC7
:10B0A000B245EADC0137002DEED0042F3FDD4B46E0
:10B0B000132B47DC42465D00019B4D449C46D00F5C
:10B0C000029A6D00654494464044039A40106044DF
:10B0D000B42194464900604405F0B8FAC822AA8316
:10B0E000C73A9446E14429834946019B8F326E83D7
:10B0F0009950009B013400259C42C9D1019B4A46CE
:10B100009A4606AB9B460023594607AE0B718B60EF
:10B11000CE600E614B61002A20DC524613600DB0F8
:10B12000F0BCBB46B246A946A046F0BD00270123AD
:10B130009C460125E044A7E76821FF318C4200D0FE
:10B1400087E7ECE7019B07AE9A4606AB9B460023D8
:10B150005A4613719360D6601661536100235746B7
:10B1600099461837903398463B004F4699464B46D0
:10B170001D8834000595B44206D122E0200009F074
:10B1800093FF0400B0421CD087239B009C46B4214F
:10B1900020694900281A604405F058FA8339622969
:10B1A000ECD8062342469C4653469B580137E1445F
:10B1B000BB420BDD5B46DC684B461D880595B442FF
:10B1C000E2D1584605A9FFF7B7FDEAE75B465246CC
:10B1D0009C685B691360002CA1D0E068FFF730FE2B
:10B1E0002000A468142107F009F8002CF5D196E797
:10B1F00044140020F8B5F0239B004E469946814444
:10B200004B46DC68F1239B0045469846DE46574690
:10B210008044E0B50600A04525D000239A46276962
:10B22000BD00EB19DB00F318B03303CB002900D1CC
:10B2300072E0FA220023920005F06EFAFA235B0115
:10B240009B46834402F006FF002945D0FA220023E2
:10B25000920005F061FA834544D3200009F024FFF1
:10B2600004008045DBD1F423DB009946B1444B4612
:10B27000DC683F4B9846B044444527D000239A46AB
:10B28000FC229200944627697D00EB191B01F318FC
:10B29000634403CB002966D0FA220023920005F014
:10B2A0003BFAFA235B019B46834402F0D3FE00295C
:10B2B00037D0FA220023920005F02EFA834536D3C8
:10B2C000200009F0F1FE04004045D9D1F0BCBB4696
:10B2D000B246A946A046F8BDFA21890005F0DEF97C
:10B2E0008345BAD25346ED19ED007519A6352B707A
:10B2F000200009F0D9FE41460500200009F0CAFFF0
:10B30000142106F07BFF4B464A465B69013B5361C3
:10B31000A845A8D02C0082E7FA21890005F0BEF9E3
:10B320008CE7FA21890005F0B9F98345C8D2114BA1
:10B33000ED199C4653462D01751965442B7020006C
:10B3400009F0B2FE41460500200009F0A3FF1421D8
:10B3500006F054FF4B464A465B69013B5361454545
:10B36000B4D02C008CE7FA21890005F097F998E712
:10B37000A4070000E6030000F023F0B54E46814626
:10B38000DE4657464546F4219B004B44DA68F123DC
:10B39000E0B5C90093B049440E91E0499B004B448D
:10B3A00049448B4609920C93934200D132E10191BA
:10B3B0005FE0F82189008C4662444A449046414649
:10B3C000A0334B445E889F8818880B889288C01AE7
:10B3D0004C88009205F042FCD14AD24B05F0D5FBD7
:10B3E0000022D14B05F0B3FB05F0AEFC33007343F4
:10B3F00002900391180023006343C01805F02EFC4F
:10B40000744304900591600005F028FC029A039BA8
:10B4100005F0BBFB02000B000498059905F085FBC5
:10B4200005F07CFC05F032FC009ABB185B10002292
:10B43000984202DDC01A0004020CF62349469B0024
:10B44000CB58934200DB3FE10A9901220B004046B2
:10B450005B44DB004B44B83352421A601830FFF7AC
:10B4600077FD099809F020FE0C9B0990834200D1DA
:10B47000CEE0099B1B699A0093464A460A935B44B7
:10B48000DB00D218B83215686A1C0CD0A7484946B0
:10B4900084466A009246521912018918614409785B
:10B4A000002900D085E70E9BDF68019B9F4200D1F9
:10B4B0006DE10A9BBA465B44DB00A0334B445A88DB
:10B4C0000292524304921A889B8806920793984BE3
:10B4D000089301235B420B935B460D935346F8227E
:10B4E0001B6992009B4694465B005B441B016344CE
:10B4F0004B4459881888884606999A88081A0092F9
:10B5000005F0ACFB864A874B05F03FFB0022864BDB
:10B5100005F01DFB05F018FC060040460F000499DD
:10B5200040438C46604405F099FB040040460D0002
:10B5300002994843400005F091FB32003B0005F0C2
:10B5400024FB02000B002000290005F0EEFA05F0B4
:10B55000E5FB05F09BFB079A009B944663440022A1
:10B560005B10984202DDC01A0004020CF623494623
:10B570009B00CB58934205DD089B934202DD5B465E
:10B5800008920B93504609F08FFD019B824683423F
:10B59000A4D10D9B9B460B9B013300D1F7E00A9F82
:10B5A0003C005C44E4004C442300A6331B78002B91
:10B5B00000D156E70B9A4B469446550065442D0141
:10B5C0005E195A4BF3181B78002B00D149E7230072
:10B5D000B8331A6002F03EFDFE23C0349B009C4647
:10B5E00020606160300011A960441197FFF7A4FB4F
:10B5F00002F030FDFC239B009C4666443060716085
:10B60000099809F051FD0C9B0990834200D030E766
:10B61000019B9B460E9BDB689B4500D1B0E01D0063
:10B620005B464E46029307E0280009F03DFD029B71
:10B630000500834200D1A3E02B6999465B001C0002
:10B640009B46FE239B009C464C44240164443419D1
:10B6500063690193002BE7D0E068231D9A4683427B
:10B6600000D11CE100218846B4398C4603690027CB
:10B670009A000692D218D200B218A032128807950A
:10B68000944461460091B4218C4694446146A4469A
:10B690004446E04604910699CB18DB00F318A23328
:10B6A0001B88A418FF1809F0FFFC824542D00369EB
:10B6B000009D9900CA18D200B218A0321288954293
:10B6C00025DD6932FF32E7E70A9E34005C44E4007E
:10B6D0004C442300A6331B78002B00D1C1E602F0B6
:10B6E000B9FCC03420606160404611A91830119641
:10B6F000FFF722FB02F0AEFCFC222B0092009446E6
:10B7000053441B014B44634418605960A9E6049DEF
:10B710009542C1DA693AFF3ABEE7C046A407000085
:10B7200026E4839ECD2A094000806640E60300009F
:10B73000E02E00004346A046019940461C0004F05C
:10B74000ADFFB4216930FF30490004F0A7FF380095
:10B75000079D89B25B46F8224B441B01F318920007
:10B760009A1811805E4A61699F1804F097FF38802B
:10B77000280009F099FC029B0500834200D05BE79A
:10B7800013B0F0BCBB46B246A946A046F0BD0A9B2A
:10B790005B44DB004B441A00A6321278002A00D129
:10B7A0005FE6A83303CB002900D17BE0FA22002317
:10B7B000920004F0B1FF0400F534FF3402F04AFCBB
:10B7C000002900D17AE0FA220023920004F0A4FFBD
:10B7D000844200D345E60A9B5B44DB004B44B03314
:10B7E00003CB00296FD0FA220023920004F094FFCB
:10B7F0000400F534FF3402F02DFC00296BD0FA224E
:10B800000023920004F088FF844200D229E60E9BB8
:10B810005B69142B00D124E600230021314A080083
:10B820000F9C11934A4404E001303032142850D068
:10B83000040019001378002BF6D10B900F94002907
:10B8400000D011940B9B01219C465C00F8236444BA
:10B8500024019B00E218234B4C44E31819700A9B07
:10B860004A445B44DB004B441900A0310988118035
:10B870001900A2310988A43351801B88938002F0FB
:10B88000E9FBFC239B00E31803C3FA239B009C46BF
:10B89000644403C40E9811A9FFF74EFA7FE6002016
:10B8A000002157E7FA21890004F0F8FE0400F5347E
:10B8B000FF3402F0CFFB002900D084E7FA21890091
:10B8C00004F0ECFE84E7FA21890004F0E7FE0400AE
:10B8D0008FE70F94C5E5FA21890004F0DFFE93E7B6
:10B8E000E2030000E60300000368426870B504004C
:10B8F0009A4225D0826893420FD1174B0569596A45
:10B900004069884208D89B6AAB4222D3134B6260DD
:10B910001A685B682261636170BD836002F09AFB04
:10B9200000230F4A801859410B00802102000906AC
:10B930008B4202D301220B4B524222616361EBE73F
:10B94000064B1A685B680261436101235B428360B6
:10B95000E2E78842DAD1DFE700400540400D0210FF
:10B9600060E31600FFFFFF7F132907D88B005B18E9
:10B97000DB00C218A6321278002A01D102487047B3
:10B98000A033C018FBE7C046BC4F0020132909D8DC
:10B990004B005B1807491B018C46C21862441278A1
:10B9A000002A01D104487047F8229200944663446B
:10B9B000C018F8E7E6030000BC4F0020F8B590235C
:10B9C000C3580E001700002B1BDD5D00ED1818306A
:10B9D0006D000400451902E00634A54211D0E123B0
:10B9E0009B009C46B42120884900801B604404F0E1
:10B9F0002DFEB439CB17C9185940B942ECDA0120F1
:10BA000000E00020F8BDC046F0B557464546DE468A
:10BA10004E46E0B583B00768009343689346DA1B4F
:10BA2000D2109A46D3009B180D0099015B18DB00D9
:10BA30009B18D9035B18DB009B183F4A5B4280468A
:10BA4000934200D174E0EE1B574563D059008B42FE
:10BA500055D8002961D100233824994601935B46CB
:10BA60001B684E449B4606223000009906F0B8FB46
:10BA70005B46B36001235B42F360AF4216D04E4693
:10BA80003C00210030003822383406F0A9FB38365B
:10BA9000AC42F6D12A00383A284BD21BD208534385
:10BAA000DB00DC081C1BE40070344C44AA4511D0B8
:10BAB00053465E1B383E214BF6087343DB00DB0820
:10BAC0000133DE00F61AF60020003200290006F0ED
:10BAD00087FBA419002F05D0434699683800C91B7D
:10BAE00006F08CFB43464A461A60019A5C609A60F5
:10BAF00003B0F0BCBB46B246A946A046F0BD104C10
:10BB0000200006F073FB2300814604004B440193A0
:10BB10003834A4E7591C0133F1D2914203D8CB0049
:10BB20005B1ADC00ECE71100CB005B1ADC00E7E7F6
:10BB3000044809F03FFDC04692244902B76DDB1668
:10BB4000F0FFFF7FBCFB0110F8B54E465746454657
:10BB5000DE460368E0B547681400FA1AD21098462A
:10BB6000D3009B180E0099015B18DB009B18D903CA
:10BB70005B18DB009B18444A5B428146934200D12C
:10BB80007EE04146751AB84562D059008B424DD8C7
:10BB900000296DD121003822280006F021FB002366
:10BBA00038249B469A46B04519D055464446210054
:10BBB00028003822383406F013FB3835B442F6D169
:10BBC00032004346383AD21A304BD2085343DB0096
:10BBD000DC081C1BE40070345444B74210D0BF1B77
:10BBE0002A4B383FFF087B43DB00DB080133DD00D5
:10BBF000ED1AED0020002A00310006F0F1FA641978
:10BC00004346002B06D04B46996843464046C91A26
:10BC100006F0F4FA4B4652461A605A465C609A6047
:10BC2000F0BCBB46B246A946A046F8BD184B9B46A1
:10BC3000584606F0DBFA8246280021005446382296
:10BC4000504406F0CDFAD3443834B045ADD1C4E702
:10BC5000591C0133EAD2914204D8CB005B1ADB00B5
:10BC60009B46E5E71100CB005B1ADB009B46DFE754
:10BC7000914200D91100CB00591ACB009B46D7E75F
:10BC8000044809F097FCC04692244902B76DDB16C0
:10BC9000F0FFFF7FBCFB0110F0B54546DE4657467E
:10BCA0004E46E0B500230200A1B00021099000201B
:10BCB000149318931A939033D35812901391984673
:10BCC00016901791002B00DC08E216001AAA002734
:10BCD00000240B92902218360125B946924637006F
:10BCE00026006D424C4500D1CEE1390020000622ED
:10BCF00006F076FAA660E5600136383413941A9699
:10BD00000637B045EEDC4F46129B0D94FA1A0E92A0
:10BD10000D9A0A93D21AD110CB005B1898011B1808
:10BD2000DB005B18D8031B18DB005B185B429846EE
:10BD3000099B002A00DCD8E1F02189001A008C461A
:10BD40006244D76892460A9A00269346F1229200EE
:10BD50009446634404935B4644460C970393049BC8
:10BD60000C9A934268D00399B0464B88A14605933C
:10BD70005B4306930B8807938B8808930C9B9B4629
:10BD80000BE0C01A0834039B6200D052584609F0F9
:10BD90008BF9049B834683424CD05B46099A1C690D
:10BDA0009446A3001B19DB00A0336344188807994D
:10BDB0009A88081A5D88029204F050FFCE4ACF4B51
:10BDC00004F0E3FE0022CE4B04F0C1FE04F0BCFF01
:10BDD000060028000F00069968438C46604404F072
:10BDE0003DFF0090019105996943480004F036FF3A
:10BDF00032003B0004F0C9FE02000B0000980199DC
:10BE000004F093FE04F08AFF04F040FF089A029BBE
:10BE1000944663445B109842B3DC23000021039AEC
:10BE200008335B005846995209F03EF9049B83465B
:10BE30008342B2D146464C46039B013638330393C6
:10BE4000A6428CDB00230B9A1BAF137193605361E6
:10BE500053469868D76000231761002813D0390033
:10BE6000FEF7B0FF03001A009B68002BFBD1030014
:10BE70001D921A00DB68002BFBD153461E925B69B2
:10BE80000B9A53611C9000220A99934602920D9AD4
:10BE90008A4200D1C4E0524600920D9A9246002B8D
:10BEA00054D00A9B1E00534500D101E10B9B340086
:10BEB000DB68FA2599460023A0461E00AD00B9456F
:10BEC0000ED048460269130008335B001B5BAB428F
:10BED00002DA1600A0461D0009F0E6F8B842F1D1DA
:10BEE0003834A245EBD14346B0461E00029B9B4529
:10BEF00000D1BFE058463822310006F071F93823EE
:10BF00009C46E3445B4617935B4631004246383B10
:10BF10003831DA608A4507D053465A1A382A00DC8D
:10BF2000D5E0300012F050FB38235B429C46E244DF
:10BF300053460B9C414620001393FFF709F80A9BD8
:10BF4000534500D1B7E06369002BAAD153460D9346
:10BF5000009B169D9A46029B5B1B02935D451AD07F
:10BF60002E00A8465D46099FF36830889C00E418BF
:10BF7000E40023007188B288A033FB181880598030
:10BF80009A8002F067F83C19B0343836206061605E
:10BF9000B542E9D145460A9B0D9A1E0093423ED018
:10BFA00001239846099B00279946AB460F9D5346AF
:10BFB0005B69142B00D1A5E04946002200231197AC
:10BFC000A63104E001332831142B23D01D001000CA
:10BFD0000A78002AF6D1002800D011959C00E418B8
:10BFE000E40023004C4422004146A63211703288FE
:10BFF000A0334B441A8072885A80B2889A8002F02B
:10C0000029F82300A834B03303C303C4504611A950
:10C01000FEF792FE0D9B38369E42C8D15D46AB4678
:10C02000099C2000FFF7A8F92000FFF7E3F80B9B1D
:10C030009C68002C09D0E068FEF702FF2000A4688D
:10C04000142106F0DBF8002CF5D15B46002B03D061
:10C050005846029906F0D2F80A9B002B03D018002C
:10C060000E9906F0CBF821B0F0BCBB46B246A9460B
:10C07000A046F0BD5946320016A8FFF765FD179B94
:10C080009B46189B02933FE73B0021000B9A12A8A6
:10C09000FFF7BAFC5246099B01369B58139C984601
:10C0A000149B1A9699460637464500DA1AE62AE6A0
:10C0B000002398461AE753460D93009B169D9A4617
:10C0C000029B5B1B02935D4500D049E7A8E7382A35
:10C0D00000D029E7300006F083F825E700230E930F
:10C0E0000A930D931AAB0B931300F022920094461F
:10C0F00063449A46A6E6C04626E4839ECD2A0940BC
:10C10000008066400D9B38365D46B34200D186E71D
:10C110000D9B3836B342FBD1AB4681E7F0B5DE4626
:10C120004E465746454698230022E0B5C150083B8D
:10C13000C2500433C35889B006901804000C9946C5
:10C14000884604F08BFD0022A44B04F01EFDA44B96
:10C1500004900591079304229B5E00260293FA2324
:10C160009B00019301235B429A4616E0B421701CA8
:10C17000490004F06BFA534601335A1E934152466C
:10C180005B421A400E009246564500D199E0019B51
:10C19000013B0193002B00D10BE1424673009F5AF3
:10C1A000029BBB42E2DD380004F058FD8D4A8E4B05
:10C1B00004F0EBFC0B0002000498059904F0C7FCA6
:10C1C00004F088FD80B243083000B4216830490093
:10C1D000FF30039304F03AFAB14200D1EEE00023BD
:10C1E0001C00039BFA259B4633000096AD004E468B
:10C1F00099460FE00134A3456DDD6831FF31080039
:10C20000B421490004F022FA49450FD0013D002D28
:10C2100000D1C4E042464B009B5ADB1BDA179B1847
:10C2200053409E42E6DD00240091E6E74B46B146CE
:10C230001E0001339B46B4215846490004F006FA1B
:10C2400053460D00013330D0AA452ED000233200D2
:10C25000FA241E00039B290093464D46A4009946EC
:10C260000EE00136B14500DC85E0481CB4214900F0
:10C2700004F0ECF98A4515D0013C002C00D193E084
:10C2800042464B009B5ADB1BDA179B1853409D42DA
:10C29000E7DD8B46481CB4214900002604F0D6F99E
:10C2A0008A45E9D1A9465E460D00009BB421F01AEB
:10C2B00087239B009C464900604404F0C7F9B429D9
:10C2C0001CD10698FFF7E8FC09B0F0BCBB46B246AB
:10C2D000A946A046F0BD4B460C00B421B1461E0055
:10C2E0000133180049009B4604F0B0F90D00B44238
:10C2F000A1D053460133A7D1A246A5E7AA46B43937
:10C30000CB17CE185E40902206998C468B585C0065
:10C31000581CE418009B640088506444B4219C4677
:10C32000834670106044490004F090F9079B082090
:10C33000185E0818B421490004F088F93000218300
:10C340007843678304F08AFC264A274B04F01DFCDF
:10C35000224B002204F0FBFB04F0BCFC5B46A083F4
:10C36000142B37D0AA45ACD0B421681C490004F086
:10C370006DF90E0008E75E46009BA946F01A872378
:10C380009B000D009C46B4216044490004F05EF916
:10C39000B429E7D0B439CB17CE185E40B3E71349C0
:10C3A000134807F0EBF88FE71249114807F0E6F859
:10C3B0008AE711490E4807F0E1F885E7B421701CBF
:10C3C000490004F043F953460D00013300D178E7EA
:10C3D000009639E7094807F0D1F872E70080664017
:10C3E000441400206E861BF0F921094008FC01105E
:10C3F000ECFB011014FC0110D8FB011020FC011013
:10C400008022F0B54D1C8668134CFF35120514E0F0
:10C41000F8273F06BC46634443601F14DB175B0DDF
:10C42000FF187F057F0DFB1A5B00E35E0F68734307
:10C430001B14FB1808C1A9420DD087690368DB19DA
:10C440004768DB199342E3DA002BE5DA80273F05E2
:10C45000BC466344E0E7F0BDA42C0020802270B508
:10C460004C1C8568FF34120510E0F8263606B446E9
:10C4700063440E4E4360B446DB121BB263446B430D
:10C480000E681B14F31808C1A1420DD08669036819
:10C490009B1946689B199342E7DA002BE9DA80265C
:10C4A0003605B4466344E4E770BDC0460080FFFF34
:10C4B0000022024B1B605B609A607047501B00209B
:10C4C000F8B5CE4647461E00234B80B5070018003E
:10C4D00099460D00140008F0F7FC204B9846002800
:10C4E00022D11F4B1800994608F0EEFC1D4F002882
:10C4F00026D121002A001C483E7007F06FFF012161
:10C500001A4C3A0020604942404607F093FF002849
:10C510001FD00021206808F015F9012008F0ACF8C0
:10C52000C0BCB946B046F8BD48461F6008F0E8FCFC
:10C530000B4B1800994608F0C7FC0A4F0028D8D0CA
:10C54000042238000A4905F04BFE484608F0D8FCA2
:10C55000CFE7084802F05EFC7C2C00208414002009
:10C56000802C0020C03C00207C14002000500020C3
:10C57000E80F021048FC011010B504000B00032264
:10C5800040210448FFF79CFF034B04481C6008F05F
:10C590006FFC10BDC05D0000842C00208DCA00100F
:10C5A000F0B585B0040005F0F1FF022836D003286D
:10C5B00015D0012811D1206805F066FC6B4A6C4B40
:10C5C00004000D0004F0E1FA0B006A490200009437
:10C5D00001956948029106F0D1FF05B0F0BD05F064
:10C5E000D5FF032845D078D8012800D1AAE0022839
:10C5F000F3D18023614A0021E250083BE367230026
:10C600005F48883318605960C82001225D490002E4
:10C610009861D9611A725C4BE365DEE705F0C4FFEF
:10C6200005F0D2FB8A21C90505F07FFB8F21C905E2
:10C6300005F07BFB554905F064FB05F0E7FB606105
:10C6400005F0B2FFE06105F0AFFF05F0BDFB8A2108
:10C65000C90505F06AFB8F21C90505F066FB4B494A
:10C6600005F04FFB05F0D2FB206305F09DFFA063B2
:10C67000B3E705F099FF050005F096FF060005F009
:10C6800093FF80233D4A0700E250E5676D08002DC7
:10C690006ADD802069004919C900400403F0D6FF13
:10C6A00088230022E0500433E25023000132783323
:10C6B0001A76A0233202E2503549B80303F0C6FFD0
:10C6C000A423F117E050C904730B1943304A002327
:10C6D000F00404F009F8E0657FE7042800D07CE767
:10C6E00005F062FF060005F05FFF0500300005F071
:10C6F0006BFB8A21C90505F018FB8F21C90505F0E0
:10C7000014FB224905F0FDFA05F080FBAC23E05054
:10C7100001F0A0FCFA2206000F000023920028007E
:10C72000002105F0CBFA801979410B00802102002D
:10C73000A83409068B4202D30122164B52422262D0
:10C7400063624AE701F086FC0023134A80185941CE
:10C750000B008021020009068B4202D301220D4BFF
:10C7600052422265636538E7012592E7333333335C
:10C770003333A33F6A0A000074FC01102222020036
:10C78000822D0000550D0000111100000080BB46F5
:10C79000C05D0000FFFFFF7F801A0600F0B5DE4697
:10C7A00057464E464546E0B5AF4BB04C0700A54452
:10C7B000012118689A4607F031FE80220368520072
:10C7C000002106900AA85E6805F004FD01F042FC15
:10C7D000A74B05915A6A796D0490386D914200D942
:10C7E00008E19B6A834200D201E1802200215200CD
:10C7F0004AA805F0EFFC38004AA95C30FFF700FEBC
:10C8000078239C46BC4463460AA91A7E09918AA9EA
:10C810008B468C21894680214904884651464AAC82
:10C82000E2460AAD0796089118E0002A3CD04B4634
:10C830008022FB58BA589B18434543DA4A46BB50FE
:10C8400001229B1302CC5943CB179B059B0D5B1810
:10C8500029689B12CB1808C55C455BD0022A0DD015
:10C86000E3D94B46FB58032A06D1882179585B1A35
:10C87000002B21DD49467B509B13E3E74B464146A5
:10C88000F9503B00983341CB794B596A8E4210D80E
:10C890009B6A834201D28E420BD003235246137609
:10C8A00080230322DB00CDE74B46FA500022002311
:10C8B000C8E78023DB00C5E700234A46BB50524649
:10C8C0001376F3E742464B46FA50FB6F3E00039364
:10C8D00001F0C0FBFA220023009001919200002198
:10C8E000039805F0EBF9009A019B801859410B0061
:10C8F00080210200983609068B4202D301225D4B4B
:10C9000052420CC60223524613764B46FB58022273
:10C910009B1397E7089BA4229A46A023BA58F8587D
:10C92000079E8018C117F850C904430B524A194397
:10C93000C004002303F0D8FE3B00A833F865596A11
:10C94000186A4B4B5A6A91424BD89B6A834246D332
:10C95000069BD968002912D0802032004900474C3C
:10C96000099D711800022B68A34200DA434B8342F1
:10C9700000DB434B1380023204358A42F3D101F0CD
:10C9800069FB049B059C3E68C01AA14105F01CFA96
:10C99000311C05F0B0F905F077FA0022394B04F0AC
:10C9A000F4F80400301C0D0005F06EFA02000B00D4
:10C9B0002000290004F0C2F804F0A4F906993860B8
:10C9C000CB688B605346186807F01AFD8B239B00D9
:10C9D0009D44F0BCBB46B246A946A046F0BD91427C
:10C9E000B6D138000AA9AC30FFF738FDB0E7914264
:10C9F00000D0FAE638000AA91430FFF72FFD3800FE
:10CA00000AA93030FFF72AFD12F072F81E2103F058
:10CA10001DFE5531080005F0D7F98A21C90505F03A
:10CA200084F98F21C90505F080F9174905F069F9E6
:10CA300005F0ECF9786112F05BF81E2103F006FEB8
:10CA40005831080005F0C0F98A21C90505F06DF9D3
:10CA50008F21C90505F069F90B4905F052F905F078
:10CA6000D5F93863C1E6C04600500020D4FDFFFF71
:10CA700000400540FFFFFF7FC05D00000180FFFF19
:10CA8000FF7F00000000B03F0080BB4610B5024CA5
:10CA90002068FFF783FEFBE7842C0020F8B5040034
:10CAA0001D0001293ED0022913D0002939D101F0FF
:10CAB000D1FA0023324A801859410B00802102002C
:10CAC00009068B4202D301222E4B52422265636536
:10CAD00027E0100005F078F98A21C90505F025F94D
:10CAE0008F21C90505F021F9274905F00AF905F05C
:10CAF0008DF9AC23E05001F0ADFAFA2206000F00E8
:10CB0000002392002800002105F0D8F8801979410F
:10CB10000B0080210200A83409068B422BD222622E
:10CB20006362F8BD8023002A12DD184A0027C25034
:10CB3000083BC3670300C82088331972144E154997
:10CB400000021E605F609861D961134BE365E8E7FE
:10CB50000E4A0027C250083BC3670300FA208833FF
:10CB600019720B4E0D4980021E605F609861D96199
:10CB70000B4BE365D5E70122024B5242CFE7C0469B
:10CB8000801A0600FFFFFF7F0080BB4622220200C2
:10CB9000822D0000550D00001111000000F8FFFF6C
:10CBA00055550000962210B507489201FDF7E6FAA8
:10CBB000C822064C0649D20106482160626006F090
:10CBC000DDFC0023A36010BDB04F0020A43C00207A
:10CBD00000381F1090FC0110836870B504000D0030
:10CBE00016001F2B0BD80C2005F000FB2904891917
:10CBF0008160210008F04CFAA3680133A36070BD86
:10CC0000836870B504000D001F2B0DD80C2005F0B3
:10CC1000EDFAFF231B069C4665442100856008F061
:10CC200037FAA3680133A36070BDC04670B50468CD
:10CC30000500844206D0200024680C2105F0DEFAAD
:10CC4000AC42F8D100236D602D60AB6070BDC04672
:10CC50000C4A30B5516A44690300056901208C42D1
:10CC600007D8926AAA4205D31868C01A431E984191
:10CC7000C0B230BD8C42FCD01868C01A431E984127
:10CC8000C0B2F6E700400540F0B50400C646414B8F
:10CC90006269596A00B50069914226D39B6A834252
:10CCA00026D32568A54220D0A368AE68013BA360C7
:10CCB000280008F0F3F90C21280005F09FFA330E44
:10CCC00019D0FF2B50D0FA260027B60001F0C2F988
:10CCD000801979410B008021020009068B4202D3A2
:10CCE00001222D4B52422261636180BCB846F0BDE7
:10CCF0009142D6D1F9E7330C632B40D8002B45D0B5
:10CD0000DAB29046013B1F02244D7E212800FDF738
:10CD1000BFFAFF212800FDF7BBFA06212800FDF726
:10CD2000B7FA0F212800FDF7B3FA00212800FDF71C
:10CD3000AFFA41462800FDF7ABFA2800F1B2FDF743
:10CD4000A7FAEF212800FDF7A3FAFF231449334087
:10CD50008A68DB195B00002A16D09B181B88980094
:10CD6000C0184000323001E03004000CFA220023E9
:10CD70000021920004F0A2FF06000F00A6E7C427DE
:10CD80006323FF019846BFE70A68E6E7012300270F
:10CD90009846B9E700400540FFFFFF7FB04F0020F5
:10CDA000A43C0020F0B583B0040005F0EFFB0A3886
:10CDB000C0B2282828D8964A8300D3589F4605F049
:10CDC00009FC0500934C7E212000FDF761FAFF214C
:10CDD0002000FDF75DFA06212000FDF759FA032136
:10CDE0002000FDF755FA00212000FDF751FA290A2D
:10CDF000C9B22000FDF74CFAE9B22000FDF748FA6D
:10CE0000EF212000FDF744FA03B0F0BD824B6069CA
:10CE10005A6A01212569904208D89B6AAB4201D227
:10CE2000904203D02168091B4B1E99417B4806F0B4
:10CE3000A5FBE9E77A4FBB68002BE5D17C680221AE
:10CE4000200005F06FF96100B860764806F096FBA7
:10CE50007B68002BD8D000243B68B868610040187C
:10CE60000222C91805F0BCF97B6801349C42F3D357
:10CE7000CAE705F0AFFB6B460A24694F46009D1DCB
:10CE800005F0A8FB2880B868002804D002222900F9
:10CE9000801905F0A5F9013C0236002CF0D1B3E76A
:10CEA0005F4CA368002BAFD0EFF3108572B6F02370
:10CEB0001B069C46616820684900604412F0D0FD62
:10CEC000F0231B069C4662682068A16852006044FB
:10CED00012F096FD85F31088A068002800D193E732
:10CEE00005F060F90023A3608EE705F073FB4C4A60
:10CEF00001009368002B00D186E042009B181A883D
:10CF0000494806F03BFB7FE705F040FB0500414C3C
:10CF10007E212000FDF7BCF9FF212000FDF7B8F9C4
:10CF200006212000FDF7B4F906212000FDF7B0F935
:10CF300000212000FDF7ACF900212000FDF7A8F941
:10CF4000291C1E2D4FD8C9B257E73248FDF7AEF95C
:10CF50005AE705F01BFB2F4B01001800FDF798F96D
:10CF600052E705F013FB050005F010FB294C7E216C
:10CF700006002000FDF78CF9FF212000FDF788F95D
:10CF800006212000FDF784F90F212000FDF780F92C
:10CF900000212000FDF77CF9002D22D0E9B26329A1
:10CFA0001DD82000FDF774F9310026E705F0EEFAF0
:10CFB000060005F0F9FAA368051E17DB1F2B00D940
:10CFC00022E70C2005F012F93604EDB276198660DE
:10CFD000210008F05DF8A3680133A36014E7632122
:10CFE000DFE70121DDE71E21C9B206E71F2B00D9CB
:10CFF0000AE70C2005F0FAF8FF22120694466B426D
:10D000009BB263448360E3E7126843009B1876E7B2
:10D010009C0C0210B04F002000400540F0FC0110B5
:10D02000A43C0020B8FC0110DCFC0110094A10B53A
:10D0300094464024830063441A68C00062408034F0
:10D0400014408022520113431C60034B9C466044F1
:10D05000416010BD04C0014000400140074B80000A
:10D060009C4660440368C90092000A435A400C235E
:10D070001A4080235B0103431A60704704C00140DB
:10D08000064B80009C466044036809015940802398
:10D0900030225B010A4003431A60704704C001401C
:10D0A0000123D0228340120693629361094A4021F2
:10D0B0009446830063441A68C0004A40803111409E
:10D0C0008022520113431960034B9C4605236044A0
:10D0D0004360704704C0014000400140024B1868A3
:10D0E0008007C00F7047C04600C00640EFF31080B5
:10D0F00072B6034A1368002BFCD0BFF35F8F7047F2
:10D100002C0100D0BFF35F8F0022024B1A6080F326
:10D11000108870472C0100D070B5EFF3108C72B6F8
:10D120000D4D2B68002BFCD0BFF35F8F0724CB087D
:10D13000C618C05C01230C40A3401C0004400342FD
:10D1400007D118433070BFF35F8F2C608CF31088C9
:10D1500070BD100001F05EFE2C0100D0F8B547460E
:10D16000CE46884680B5EFF3108C72B6214D2C6800
:10D17000002CFCD0BFF35F8F9A422CD8D40807272D
:10D18000055D061901241740BC402C421FD0072121
:10D190000127894609E0D408055D06194C46390087
:10D1A0001440A1400C00294211D001329342F2D226
:10D1B00001204042BFF35F8F00220E4B1A608CF3B8
:10D1C000108800280FDBC0BCB946B046F8BD254327
:10D1D00010003570EEE7BFF35F8F00232B608CF3F8
:10D1E0001088012040424346002BECD0089801F003
:10D1F00011FEC0462C0100D030B5EFF3108C72B692
:10D200000A4C2368002BFCD0BFF35F8F0723012259
:10D210000B409A40CD08435D93434355BFF35F8F66
:10D22000002323608CF3108830BDC0462C0100D051
:10D230000021044B044ABFF35F8F02C39342FAD12B
:10D240007047C046000100D0800100D0044B9C46CE
:10D2500060448000BFF35F8F002303607047C046C7
:10D2600040000034044A1078431CDBB2172B00D96D
:10D27000102313707047C0468C14002010B5064B65
:10D28000064C82B00100009318221F232000FFF7F4
:10D2900065FF02B010BDC04600FD01106C3F0020CC
:10D2A00001238340002904D0034A1360034A13601A
:10D2B0007047034A1360FBE780E200E000E100E012
:10D2C00080E100E001228240034B1B6813405A1E9C
:10D2D0009341D8B27047C04600E100E0024B1030E5
:10D2E0009B688000C058704700ED00E070B50D00ED
:10D2F000EFF3108672B60F4A1368002BFCD0BFF311
:10D300005F8F0D4B10309B6884001B590B4A934272
:10D3100003D09D4201D001F095FD074B9B681D5144
:10D32000BFF35F8FBFF35F8F0022024B1A6086F35B
:10D33000108870BD240100D000ED00E0CD80001009
:10D34000EFF3108172B60E4B1A68002AFCD0BFF3BF
:10D350005F8F0C4A1030926880008058BFF35F8F57
:10D3600000221A6081F31088074B984206D02F23C1
:10D37000064A821A93429B41184070470020FCE7FE
:10D38000240100D000ED00E0CD80001090140020BA
:10D39000F0B557464E46DE464546E0B585B0060038
:10D3A00000911700EFF3108B72B66A4A1368002BD6
:10D3B000FCD0BFF35F8F0025674B5D579A46002D69
:10D3C00000DAA9E06B00654C01935B199B0098465D
:10D3D000A146C1444B4652469B7910361370604BB0
:10D3E000B6009B6899590B1B2F2B33D95D4B994283
:10D3F00000D0ACE0019B42469C465B4B6544AD00CF
:10D4000063535A4B0232A218043B9B1A1B05584A1D
:10D410005B0D651913436B80564B0121AB80FF23D5
:10D42000AB71009BEF71AB604B460B4319004C4B4B
:10D430009B689951BFF35F8FBFF35F8F0022454B0D
:10D440001A608BF3108805B0F0BCBB46B246A94603
:10D45000A046F0BD01200A008243D3798C46BB422E
:10D4600031D84546130044491B1B5B415943090D04
:10D470003D4B63533D4B02356519043B5B1B1B055C
:10D480003B4D5B0D2B43AA464D466B800425AC46B5
:10D490005546E044131F44441B1B1B055B0D1D43F5
:10D4A0004B46997100999D8099604946DF71334BD5
:10D4B00001431360BBE75800C01880002018C179F1
:10D4C000B9422FD902000623D356002BF3DA029378
:10D4D0002B4B61460393131D9A4604235B429C46E3
:10D4E000E14450464B461B1A1B055B0D9C46204BE6
:10D4F000957198466346404603439380019B5A19B1
:10D500009200039BA418A380029B1C4AA371009B5A
:10D510002260E771A3608AE701F094FC002553467E
:10D520005D574FE7908802934005131D9A460315F7
:10D5300061469C464046D444634604302018181A7D
:10D54000E0230005400D1B0218430390C5E701F0DE
:10D5500079FC4FE7240100D0E45A00209014002009
:10D5600000ED00E0CD80001000A1FFFFC0140020FE
:10D5700000E0FFFF01BDFFFFAAAA000001488047AD
:10D5800001BD0000F0B5DE4657464E464546E0B5C3
:10D590000C0083B0EFF3108872B65D4A1368002B5D
:10D5A000FCD0BFF35F8F5B4B5B499A68030010337D
:10D5B0009F00D5598D4239D0A5424AD0574EAA1B5B
:10D5C0002F2A33D801229246824091464846544A37
:10D5D0001268104001904846524A1060BFF35F8FB6
:10D5E000EFF305829346002A35D0934201D001F033
:10D5F00029FC2A0053469A439068844208D175E07A
:10D600004B005B189B00F3189868A04234D01A00B6
:10D61000062151560029F3DA844253D0019B002B96
:10D6200026D04A46404B1A603D4B1A60394B9B68E6
:10D63000DD51BFF35F8FBFF35F8F0022344B1A6061
:10D6400088F3108803B0F0BCBB46B246A946A0469A
:10D65000F0BD0D00EAE72A0053469A4390688442E1
:10D66000D6D1062010561300002809DA0D0031E04B
:10D670004A462C4B1A60D9E706201856002822DBB0
:10D6800042001118890074188A46A1689960E179EE
:10D69000D971062161569971002925DBA488F11AF8
:10D6A0006405241554440919E0240905490D240290
:10D6B0002143998013181D4A9B001178F318997122
:10D6C0001070ABE713005946002914D1FF31917156
:10D6D0001749918015490A789A71164A9B1B5B413C
:10D6E0005A43120D0A7099E71349E2E706201056D3
:10D6F00013000028C4DA114A1149D21A083A50021C
:10D70000400D014399800F4952080A43DA8085E7AA
:10D71000240100D000ED00E0CD8000109014002026
:10D7200000E100E080E100E080E200E0E45A002057
:10D7300001BDFFFFAAAA000001BD0000CA1400201D
:10D7400000F0FFFF00F8FFFF70B5EFF30581012443
:10D750000443EFF3108C72B6214A1368002BFCD0FF
:10D76000BFF35F8F1F4B05001F4AED1A6D416A43DF
:10D77000120D1E4D8900AE6852B27658A6421CD0DA
:10D780000621595691421CD012215956914222D05D
:10D790001E215956914220D02A21595603249142E4
:10D7A00010D0134B19781A708171BFF35F8F00226C
:10D7B0000B4B1A608CF3108870BDAB680D4C5C503D
:10D7C000EFE700246100091989005B18FF219971B6
:10D7D00009499980E5E70124F4E70224F2E7C0460D
:10D7E000240100D090140020AAAA000000ED00E05F
:10D7F000E45A0020CD80001001BDFFFF054B064A12
:10D800001360064A136053609360D36013615361E1
:10D81000936170478080808000E400E004E400E0D1
:10D8200070B504000E001500FFF71CFD010020007C
:10D8300000F006F8A680E580BFF35F8F70BDC0469C
:10D84000024B9C46614489000160704740000034EF
:10D8500010B50400FFF706FD01002000FFF7F0FF00
:10D86000FF232371BFF35F8F10BDC04610B50400C6
:10D87000FFF7F8FC01002000FFF7E2FFFF23A38081
:10D88000BFF35F8F10BDC04610B504000120FFF745
:10D89000F5FC034BC3189B002360BFF35F8F10BDE3
:10D8A0004000003483680B4810B5844661446244EC
:10D8B0001201090159189B185C684A6801209442BA
:10D8C00001D802D00020C0B210BD1A680B689A427D
:10D8D000F9D8F7E7FFFFFF0F0A4B1968EFF3108045
:10D8E00072B60A68002AFCD0BFF35F8F1B68BFF3D3
:10D8F0005F8F00221A6080F3108840BF0020002153
:10D900007047C0469C520020F8B5574645464E46E3
:10D91000DE46E0B598460CAB1C780DAB1B780700D3
:10D9200091469A460568002C59D1AC7B002C3BD01F
:10D93000660029683619033E89194B78AB73002BB2
:10D9400000D1EB7300238B704B700B702D4BE218E2
:10D95000BB6812019B184A461A6042465A600A9AEE
:10D960009A600B9ADA6000238B704B700B706B7BA4
:10D970009B46002B26D022006B685946A868984722
:10D980005B465B005B442A68033B002812D0584684
:10D990009619B070D118D35C002B00D073705B4621
:10D9A0000C706B735C450ED0F0BCBB46B246A9460A
:10D9B000A046F8BDD3189C709119925D002A1CD125
:10D9C0005B460B706C734A464346387D00F0D6FBCD
:10D9D000051E0AD10E9B002BE6D01D70E4E7660001
:10D9E00029683619033E8919B0E75346002BF1D157
:10D9F0002100386800F0DAFDECE75A705B460B70E6
:10DA00006C73E0E7FFFFFF0FF0B5DE4657464E466A
:10DA100045460023E0B58BB00893684B8200D4588C
:10DA200000239B46099000F015FB02000B00606884
:10DA3000EFF3108A72B6564601680029FCD0B24650
:10DA4000BFF35F8F21684F7B8C46002F2ED0A568D7
:10DA50005B49A9467918090189444946086849681B
:10DA600005000E00AD1A9E41002E5FDD02000B0086
:10DA7000099800F083FB00230022994600230692B8
:10DA80000793002398466368BFF35F8F5A461A6076
:10DA90008AF310884346002B12D10028C3D10BB063
:10DAA000F0BCBB46B246A946A046F0BD002300220A
:10DAB0009946002306920793002300209846E2E748
:10DAC000089B494618023843C047626805000E00AB
:10DAD000EFF3108A72B61368002BFCD0BFF35F8F90
