:020000041000EA
:1080000000200420F7800010C3800010C5800010FD
:10801000C1800010C1800010C1800010C18000101C
:10802000C1800010C1800010C1800010C780001006
:10803000C1800010C1800010C9800010CB800010EA
:10804000CD800010CD800010CD800010CD800010BC
:10805000CD800010CD800010CD800010CD800010AC
:10806000CD800010CD800010CD800010CD8000109C
:10807000CD800010CD800010CD800010CD8000108C
:10808000CD800010CD800010CD800010CD8000107C
:10809000CD800010CD800010CD800010CD8000106C
:1080A000CD800010CD800010CD800010CD8000105C
:1080B000CD800010CD800010CD800010CD8000104C
:1080C00000BE00BE00BE00BE00BE00BEEFF30580D5
:1080D000103800BEF2EB88715CE6021078E6021000
:1080E0003481001090A31AE700201F49086006C8D9
:1080F00081F3088810471D48006800282FD10DA47F
:108100000ECC002902D000F012F8F9E71849194AFC
:10811000002000E001C19142FCD11749884717496E
:1081200088471749884700BEFDE701C901C29A4246
:10813000FBD3704778E60210C00000205C1C0020D2
:108140003402031000000420000004203402031055
:1081500000100420001004200000000070470948AF
:1081600012F082FD0047000008ED00E0000000D0A2
:10817000801C0020D4F900205993011015EA011049
:108180008D9401105756000006005250ABB3605357
:1081900034BA021006005250861C030244BA021080
:1081A000060052505422A29D48BA021005005250B7
:1081B000DE65F46834020310F8B5C0460648074986
:1081C000091A8B10C90FC91810B5491003D0044BF8
:1081D000002B00D0984710BD5C1C00205C1C0020C8
:1081E00000000000054B10B5002B03D004490548E2
:1081F00000E000BFFFF7E2FF10BDC0460000000036
:108200005CEE0020C0B6021010B50E2116F0CAFFB9
:1082100010BDC046F0B585B0040015F0A7FB0728D7
:108220001CD8002818D0072803D84D4A80001358BE
:108230009F4615F0BFFB4B4B20802C2401000025EE
:1082400018680023484EFF34994200DC7BE09A0016
:1082500001338650A342F7D105B0F0BD64285DD04C
:108260006528F9D115F0DAFBC82015F0DFFB0023F3
:10827000E05E15F0E7FB0223E05E15F0E3FB04236C
:10828000E05E15F0DFFB0623E05E15F0DBFB082364
:10829000E05E15F0D7FB0A23E05E15F0D3FBA08962
:1082A00015F0E0FB15F0EEFBD6E715F083FBA0819F
:1082B000D2E715F069FBB42160806930FF304900D6
:1082C00012F004FD208800254843B421490012F033
:1082D000FDFC244B2C211C680023234E8700FF311A
:1082E000984206D09A000133A5508B42B4D09842F0
:1082F000F8D1431CE6518B42F2D1ADE715F044FBB7
:10830000A080A9E715F040FBE080A5E715F03CFB55
:108310002081A1E715F038FB60819DE7A589042243
:10832000A35E0221625E218803950A26A55F0F489D
:1083300002950826A55F01950625645F009416F056
:10834000FDFA89E713009A0085505A1CA24200D119
:1083500082E79142F6DD92008650023374E7C04610
:1083600068C602106015002000FFFFFFC0B60210B3
:108370007047C046F0B5C6460D000400816800B5E0
:108380002868160014F02EFE2860A7688046002199
:10839000381C14F06DFE00282BD10021381C14F07D
:1083A0007DFE00280AD0206914F082FE071C011C03
:1083B000404614F073FE002800D02F60E16830685A
:1083C00014F010FE3060E468051C0021201C14F03D
:1083D00065FE002819D0174B0A20185E14F068FEBD
:1083E000011C281C14F052FE431E984180BCB84664
:1083F000F0BD206914F05CFE071C011C404614F01F
:1084000037FE0028DAD02F60D8E70021201C14F0B6
:108410002FFE00280CD0074B0A20185E404214F0B3
:1084200047FE011C281C14F029FE431E9841DDE77D
:108430000020DBE73C1500200420704770B50400E5
:10844000180013680D00E3600B68236112F056FFFB
:1084500002000B000020184912F0B9FE12F0AEFF26
:108460000023A060636022F0ADF83C2112F02EFCE6
:1084700004981E390A304843142112F027FC2D6855
:10848000B43006000D49281C14F0F2FD002809D074
:10849000300014F00DFE291C14F0A4FD14F02AFE87
:1084A000606170BD300014F003FE011C281C14F044
:1084B00096FD14F01FFEF3E7000024400000344353
:1084C000F8B5CE464746804680B518001600894666
:1084D00012F014FF4B4B04000A20185E0D0012F03E
:1084E0000DFF02000B0012F069FE0022464B12F055
:1084F0008CFE2B00220012F06AFE12F05FFF434652
:10850000D860071C0021306814F0C8FD002805D091
:1085100080231B069C4643466744DF60089B9C46BD
:108520005800604440000F3014F0C2FD3749061C6B
:1085300014F09EFD002860D03549301C14F0AEFDCB
:1085400000285CD043465E6022F03CF8C3179B0DC8
:10855000C0188005800DC01A12F0D0FE00222D4BED
:1085600012F053FE00222C4B12F04FFE0022294B3A
:1085700012F024FE4346060058680F0014F020FE57
:1085800002000B003000390012F03FFE12F0CEFE68
:10859000060022F017F8C00700D576424B461F6848
:1085A000300014F085FD391C14F01CFD14F0A2FD00
:1085B000B4235B0098421CDD18004346186114F098
:1085C00077FD391C14F00BFD144914F022FD14F052
:1085D000F7FD02000B0012F0F1FD2B00220012F05B
:1085E000F6FD12F0EBFE43469860C0BCB946B046BB
:1085F000F8BDC343DB171840DFE7044EA2E7044E83
:10860000A0E7C0463C150020000024400000964230
:10861000000070410000E03F0000503F000020419A
:10862000F0B5CE4600B5070082B089468168406843
:10863000160014F0D7FC786014F0C2FD02000B00A5
:1086400012F0BCFD00222F4B12F0AFFD04000D0014
:1086500000222D4B12F0D9FD22002B0012F0D5FD87
:108660000022294B12F0AAFD0400F8680D0014F056
:10867000A7FD02000B002000290012F0C6FD12F039
:108680009DFE3060786814F09BFD204A204B12F06C
:10869000BCFD12F0B5FE3E6900900191786914F0BE
:1086A00007FD311C14F09BFC14F08AFD009A019B1D
:1086B00004000D000020134912F077FD0022124B38
:1086C00012F0A3FD02000B002000290012F09DFD16
:1086D0000400301C0D0014F073FD02000B0020009C
:1086E000290012F06BFD12F069FE4B46FE21186066
:1086F0007868890514F0D2FC431E984102B080BC12
:10870000B946F0BD0000F03F0000E03F6E861BF070
:10871000F9210940F0B54546DE4657464E46E0B5DC
:10872000836A050089B0002B05D1C54B696B5A6A75
:10873000006B914242D92B0028335B7D002B41D145
:10874000C04BA86B1E88002E31D0BF4B1C6814F0A4
:1087500003FD9623C0B20202121812021218701EF4
:1087600012025B00984201DB2C20FF306307DB0F15
:10877000062E00D8AFE2002B00D1E2E101262260F4
:108780000121594009189B004D08E318ED00ED1830
:108790001A605A6008339D42FAD101230B4206D079
:1087A00099438B1999006250984200DD74E009B03A
:1087B000F0BCBB46B246A946A046F0BD9B6A8342C8
:1087C00000D239E140239946A9444B469D4A1B7B80
:1087D00090461688002B76D06A6C9046032B00D109
:1087E000B3E100D93AE1012B00D112E21000AB6CE9
:1087F000704319009B4612F069FAB31042D0924AB6
:108800009627126804009246721000927200921924
:1088100092100192C21802925A46AB4655469A46A9
:108820007F0003923100200012F050FAB94203D2C7
:10883000FF2389001B064B5153463100181912F0D3
:1088400045FAB94202D2002389004B51009B310006
:10885000181912F03BFAB94203D2FF2389001B0614
:108860004B51019B3100181912F030FAB94202D273
:10887000002389004B51029B0134A342D2D1039BB8
:108880005D469B46434601336B64D84500DA8EE76C
:1088900000234A4613738AE76418991C6260884271
:1088A00000DA84E7D91CA260884200DA7FE7191D4C
:1088B000E260884200DA7AE705332261984200DA02
:1088C00075E7626173E79623341C5B009E4200D912
:1088D000B0E005AF3A005D4BA4B203CB03C21B78F6
:1088E00013702B69082B42DC002C00D15FE7564B3C
:1088F0000021A2001868994614F05CFE6869BE79F0
:10890000F9793A7AC70F3F18514D52487F104059B4
:1089100001285AD0002C00D149E74B4B3606994626
:108920004D4B09049A4643460E4312021643B04685
:1089300000251E0005E04146D1500135AC4200DC67
:1089400035E76B005B191801C01A2100C00012F056
:10895000BDF90223F15E3A00411A504606F058F97B
:108960004A46AB0012680028E5D1D050E5E7AB6974
:108970000133AB61002C06D0334B00211868A200F4
:1089800014F018FEAB6907220133D9170A40D21838
:10899000AB610123D110D20F89180B409B1A013310
:1089A000DBB268695A00D218BE5CBA18C70F3F180C
:1089B000274D28485178405992787F100128A9D135
:1089C000002C00D1F3E6204B9946330609040B43F3
:1089D000120213430093204B00259A46BB4607E042
:1089E0004B46009A1B68DA510135AC4200DCDEE6EA
:1089F0006B005B191801C01A2100C00012F066F963
:108A0000434602269E5F5A46861B3100504606F0BA
:108A1000FFF8AF000028E3D131005A465046B43188
:108A200006F0F6F84B461B68002800D18BE0009A50
:108A3000DA51D9E71C1C4CE7914200D0C2E67AE635
:108A4000004005403C15002060150020DCC60210E7
:108A5000BC790000781E002030980020042B6DD1D6
:108A6000100012F04BFCA04AA04B12F0CEFB0022EB
:108A70009F4B12F0ACFB12F0C3FC00229D4B12F096
:108A80009DFB00229C4B12F0C0FB12F04FFC4043B8
:108A9000FF21040012F01AF9002E3CD0974B020679
:108AA0001F689623701E5B00984200DB05E17B0780
:108AB000DB0F062E00DC14E1002B00D108E10121C0
:108AC0008C463A600121594009189B004E08FB185A
:108AD000F600F6181A605A6008339E42FAD1012354
:108AE0000B4218D099430B00634499007A5083429B
:108AF00011DA7F18991C7A6088420CDBD91CBA60A5
:108B0000884208DB191DFA60884204DB05333A61AC
:108B1000984200DB7A610121794B1E683368DB687B
:108B200030009847FF212000490012F0CFF8336849
:108B3000C1B25B68300098476B6C9846AB6C9B4643
:108B4000A0E600261CE6D8514EE7100012F0D6FB36
:108B5000654A664B12F059FB0022654B12F037FB59
:108B600012F04EFC0022634B12F028FB0022624BF5
:108B700012F04BFB12F0DAFB4043FF21040012F02D
:108B8000A5F8002E3FD05D4B02041F68FF231B0495
:108B90001A409623701E5B00984200DB8AE07B0738
:108BA000DB0F062E00DC9AE0002B00D18DE00121C6
:108BB0008C463A600121594009189B004E08FB1869
:108BC000F600F6181A605A6008339E42FAD1012363
:108BD0000B4218D099430B00634499007A508342AA
:108BE00011DA7F18991C7A6088420CDBD91CBA60B4
:108BF000884208DB191DFA60884204DB05333A61BC
:108C0000984200DB7A613E4B04211E683368DB68C2
:108C100086E7AB6C9B469B1A18025946C01A12F0A5
:108C200055F8FF21404312F051F8002E00D129E6FB
:108C3000324B02041968FF231B041A409623701E4E
:108C40005B0098423CDA4B07DB0F062E45DD002B1C
:108C500039D001260A6001245C4024189B00670873
:108C6000CB18FF00FF181A605A6008339F42FAD1F0
:108C70000123234200D105E69C43A3199C000A511D
:108C8000834200DBFEE509199C1C4A60844200DD3A
:108C9000F8E5DC1C8A60844200DDF3E51C1DCA6037
:108CA000844200DDEEE505330A61834200DDE9E53B
:108CB0004A61E7E52C20FF3071E72C20FF30F6E613
:108CC0002C20FF30BFE70026C5E700218C4671E766
:108CD00000218C46F6E6002364E50023CEE700235E
:108CE0007BE7002301E7C0466E861BF0F9210940AF
:108CF000000044400000F03F00C05F4060150020CD
:108D000050C70210F0B5C64600B5037D04000D0043
:108D10001600002B13D0C7680021381C14F0BEF9D0
:108D20000021002844D0306814F0B0F9002806D0A3
:108D300080231B069C4600236744E7602375A168D7
:108D4000286814F04FF92860A76880460021381C75
:108D500014F08EF900284AD10021381C14F09EF935
:108D600000280AD0206914F0A3F9071C011C404612
:108D700014F094F9002800D02F60E168306814F0F6
:108D800031F93060E468051C0021201C14F086F9DC
:108D9000002819D01D4B0A20185E14F089F9011C17
:108DA000281C14F073F9431E984180BCB846F0BDEE
:108DB000381C14F05DF90028C1D00021306814F08F
:108DC0005DF90028BBD0B3E70021201C14F050F956
:108DD000002818D00D4B0A20185E404214F068F9A4
:108DE000011C281C14F04AF9431E9841DDE7206954
:108DF00014F05EF9071C011C404614F039F90028F4
:108E0000BBD02F60B9E70020CFE7C0463C1500205B
:108E1000F8B5CE464746804680B51800160089460C
:108E200012F06CFA4C4B04000A20185E0D0012F090
:108E300065FA02000B0012F0C1F90022474B12F054
:108E4000E4F92B00220012F0C2F912F0B7FA4346FF
:108E5000D860071C0021306814F020F9002805D0E4
:108E600080231B069C4643466744DF60089B9C4664
:108E70005800604440000F3014F01AF93849061CBD
:108E800014F0F6F8002863D03649301C14F006F9C7
:108E900000285FD043465E6021F094FBC3179B0D12
:108EA000C0188005800DC01A12F028FA00222E4B3F
:108EB00012F0ABF900222D4B12F0A7F900222A4B39
:108EC00012F07CF94346060058680F0014F078F958
:108ED00002000B003000390012F097F912F026FA68
:108EE000060021F06FFBC00700D576424B461F6895
:108EF000300014F0DDF8391C14F074F814F0FAF8AE
:108F0000B4235B0098421FDD18004346186114F03B
:108F1000CFF8391C14F063F8154914F07AF814F0FE
:108F20004FF902000B0012F049F92B00220012F059
:108F30004EF912F043FA43464246986001231375F6
:108F4000C0BCB946B046F8BDC343DB171840DCE7E8
:108F5000034E9FE7034E9DE73C1500200000244090
:108F600000009642000070410000E03F0000503FCA
:108F700000002041F0B5DE4657464E464546E0B576
:108F800083B00190002876D0019BDB689946002BC6
:108F900068D04B46DB689A46002B59D05346DB68B5
:108FA0009B46002B4AD05B46DC68002C32D0E5683B
:108FB000002D1DD0EB689846002B22D04346DE687A
:108FC000002E31D0F768002F09D0F868FFF7D2FFE4
:108FD0003800BF68142114F001FB002FF5D1B768E9
:108FE0001421300014F0FAFA002F1DD03E00E9E7FA
:108FF000A5681421200014F0F1FA002D0AD02C00ED
:10900000D5E7AE681421280014F0E8FA002EEFD05E
:109010003500CFE75B469C681421584614F0DEFA11
:10902000002C0BD0A346BEE743469E681421404661
:1090300014F0D4FA002EE4D0B046BFE753469C6843
:109040001421504614F0CAFA002C01D0A246A5E71C
:109050004B469C681421484614F0C0FA002C01D0FD
:10906000A14696E701981421846814F0B7FA002C01
:1090700001D0019488E703B0F0BCBB46B246A946D4
:10908000A046F0BD0A4B70B5036003009C339C689A
:109090000500002C09D0E068FFF76CFF2000A468F1
:1090A000142114F09BFA002CF5D1280070BDC046A5
:1090B000C0C602100C4B70B5036003009C339C6863
:1090C0000500002C09D0E068FFF754FF2000A468D9
:1090D000142114F083FA002CF5D12800B82114F0E3
:1090E0007DFA280070BDC046C0C60210F8B5234BFB
:1090F00004001E680021336830005B6898473368BD
:10910000300000221B681E49984701231D4A237026
:10911000A354002323611C4B1A685B6822626362BC
:10912000A261E361A262E3620FF0D4FA206361639B
:1091300021F048FA05000FF0CDFA06000F002800D4
:10914000052111F0C3FDFA2205314801401A8000C3
:109150004018C00000239200C11713F023FF8019AC
:1091600079410B008021020009068B4202D30122C3
:10917000064B5242A263E363F8BDC04650C70210DB
:10918000000034438878000078CD0210FFFFFF7F95
:10919000002310B50370034B0021186803685B6857
:1091A000984710BD50C70210052303707047C04692
:1091B000F0B5D6464F4646460378C0B5052B33D0AA
:1091C000032B45D09621254F49003A88161C8A4228
:1091D0002FD8B6B2012B30D0002E25D0204B002541
:1091E0009946204B002498461F4B9A4606E051466C
:1091F00069350134D150FF35A64215DD3100280014
:1092000011F064FD0223F95E0F22411A484605F071
:10921000FFFC4246A30012680028E8D169350134FA
:10922000D050FF35A642E9DCE0BCBA46B146A846BC
:10923000F0BD0E1CB6B2012BCED10C4BC3185B682F
:10924000002BC9D10A4B9C46604406F095FBEBE726
:10925000006C03689B699847E6E7C0463C15002010
:109260003098002060150020000A0AFFB87900003D
:109270005878000070B506000D00140014F076FB5D
:10928000012809D0022800D070BD013C0648E2B296
:10929000691C0BF051F8F7E73000013CE2B2691CA1
:1092A00048300AF0B9FAEFE708970020F0B54546D4
:1092B00057464E46DE46E0B506684568884634495E
:1092C0009246AA1B040083B053108B425CD04046E8
:1092D000801B8146AE423ED0934228D8002300270F
:1092E0009B46002A3AD153464A461B88BB524B46FE
:1092F00002339A464346ED1A2B00BA445344019375
:10930000002A1CDC002D04DD2A004146504614F0E2
:1093100057F9002E19D1019B276063605B46A3605B
:1093200003B0F0BCBB46B246A946A046F0BD194BFF
:109330009B46584614F04AF907008344D3E73100AE
:10934000380020F099FE002D0FDCA1683000891B49
:1093500014F044F9DFE75A1C0133E8D28023DB051F
:109360009A420DD253009B46E3E741462A005046FD
:1093700014F026F9A1683000891B14F02FF9CAE710
:109380000A0053009B46D4E7034817F00BFEC04683
:10939000FFFFFF3FFEFFFF7FDCB60210F0B5DE46A9
:1093A000454657464E461400E0B5834683B04830E4
:1093B00007F05CFA3D4D210028000AF0BDFE3C4B51
:1093C0002F0098468026032303210024A844AB6184
:1093D0001C37760002E04246364BD158E2B22800F4
:1093E000C9B20AF009FF431E984138550134B4420E
:1093F000F1D12F4B9C46304B6544EA582F4BE9582E
:109400008A4200D0EA504B239946053398462C4EA9
:10941000284F4B46DCB22B4B4D469A46B24405E0F2
:1094200001340135E4B2ADB2444517D022005046B4
:10943000F15D0AF0E1FE0028F2D06B46224ADD80A1
:109440001E4BB258F158914226D001340D80E4B23F
:1094500002310135F150ADB24445E7D10534E3B2F4
:1094600098464B4605339BB299465A2BD1D15C4660
:109470002000FFF73BFE236C002B14D0134B584603
:109480009C460021604406F06DFA03B0F0BCBB4678
:10949000B246A946A046F0BD074BF0186B469A1D90
:1094A000FFF704FFBCE70A4B2364E7E708970020B7
:1094B0007087FFFFA8780000AC790000B079000049
:1094C000781E002090780000B479000058780000E1
:1094D000981C0020F8B54546DE4657464E460368C0
:1094E000E0B5934646682F4A984605000F00F31AE8
:1094F000934253D04146791A8A46002B44D0914674
:109500005900994243D2484614F060F85B465246EF
:109510001B7804008354012353449B46F61B002A06
:1095200027DC8344002E0DDC43465E44002B19D11A
:109530002C604C446E60AC60F0BCBB46B246A946A1
:10954000A046F8BD32003900584614F039F84346B9
:109550005E44002BECD005E032003900584614F090
:109560002FF85E444346A968C91A404614F036F8FD
:10957000DEE7414620F080FDA344002EECDC4346AC
:10958000A9685E44C91AF0E701239946BBE7802326
:1095900089461B069942B6D39146B4E7024817F0B4
:1095A00001FDC046FFFFFF7FDCB60210F0B5474665
:1095B000CE46FA2680B504000F00904687B0B6006C
:1095C000B14200DA59E13100380011F07FFB31007F
:1095D0000500380011F07AFB28000F00310011F06F
:1095E00075FB0E0001295ADC1D222000217E0AF0A5
:1095F000BDFD00233D00632F0DDD6421380011F017
:1096000065FB0D00C72F00DDC5E01C222000217E78
:109610000AF0ACFD0023142D34DD0A21280011F0DE
:1096200055FB217E060007281CD0092800D186E0C2
:10963000020043071B1A9B001B1A5B001232ED1835
:109640002000D2B20AF092FD012D00D1B7E00B2D1F
:1096500000D10EE10123002DDDD107B0C0BCB94619
:10966000B046F0BD3C3D182220000AF07FFD012DE0
:1096700000D1EBE00B2DEDD11E222000217E0AF05F
:1096800075FD0123002D00D0ADE00025002BE4D0B6
:10969000A1692A002000C9B20AF068FDDDE763294C
:1096A00000DCECE06421300011F010FB0D00C72E4F
:1096B0007BDC1C222000217E0AF058FD0023142DA3
:1096C0001FDD0A21280011F001FB217E060007287A
:1096D00024D0092841D0020043071B1A9B001B1A03
:1096E0005B001232ED182000D2B20AF03FFD012DCE
:1096F00074D00B2D4AD0002D00D175E70123142D15
:10970000DFDC002D35D10025002B00D16CE7A169ED
:109710002A002000C9B20AF029FD65E73C3D182265
:1097200020000AF023FD012D00D19BE00B2DE2D19A
:109730001E222000217E0AF019FD0123DFE7503DA3
:109740001A2220000AF012FD012D3BD00B2D00D073
:1097500080E70B25A169EDB29BE7503D1A2220005E
:109760000AF004FD012D3BD00B2D11D0002D00D1AE
:109770003AE7012D00D0C6E04346A169002BC7D0CF
:109780001F222000C9B20AF0F1FC2DE7082ECFD12C
:109790000B250123B3E76421380011F097FA424604
:1097A00001002000FFF702FF2FE76421300011F0D5
:1097B0008DFA424601002000FFF7F8FE79E7082EF7
:1097C00000D059E743460125A169002B00D160E78D
:1097D0001F222000C9B20AF0C9FC3EE7082EA7D11B
:1097E000012501238BE7012DECD06B1CB2D10022A7
:1097F00000230292039300230493227F02AE002AE7
:1098000040D1637F002B6FD1A37F002B00D02EE1CE
:10981000E37F002B00D0F9E0002100252023E35C4A
:10982000002B56D1029E8F1BB54200D1E2E020F002
:10983000C9FEA91B11F072FA755C002E00D127E752
:109840003900300013F0CAFEA16922E7217E1E22F2
:1098500020000AF08BFC43460125A169002B00D1B2
:1098600017E7B5E71E222000217E0AF07FFC0125C4
:10987000B7E7082E00D16CE7FEE60123BAE60D003B
:1098800001233CE707226A4400211370300091460F
:10989000FFF720FE637F7568B168002B00D0DCE025
:1098A000A37F002B08D002234A461370A94200D19F
:1098B000E4E02B7001357560E37F002BAED003230D
:1098C0004A4613708D4200D1A7E02B7001357560B8
:1098D000A4E76B46DA1D04231370A94200D1EBE024
:1098E0002B70013575609DE707236B449946012372
:1098F0004A460025137029004A463000FFF7EAFD6A
:109900007568B168CCE76B1C00D0DBE00022002357
:109910000292039300230493227F02AE002A23D1F4
:10992000637F002B58D1A37F002B00D0AEE0E37FF4
:10993000002B7AD1002100252023E35C002B38D1B5
:10994000029E8B1B9946AE425CD020F03BFEA91BC9
:1099500011F0E4F9755C002E00D1D8E649463000DC
:1099600013F03CFEA169D3E607226A44002113707C
:1099700030009146FFF7AEFD637F7568B168002B3C
:1099800062D1A37F002B08D002234A4613708D4278
:1099900000D182E02B7001357560E37F002BCBD0C6
:1099A00003234A4613708D4246D02B7001357560F3
:1099B000C2E76B46DA1D042313708D4275D02B70FD
:1099C00001357560029E8B1B9946B542BDD1494653
:1099D000280013F003FE07E607236B449946012392
:1099E0004A46002113704A463000FFF773FD756840
:1099F000B168C6E7002D00D12FE63900280013F02A
:109A0000EDFD2AE6002D00D1EEE5E0E707236B44EB
:109A1000994603234A460025137029004A46300020
:109A2000FFF758FD7568B168F8E607236B4499465F
:109A300003234A460025137029004A463000FFF7E9
:109A400049FD7568B16877E701234A4613708D4276
:109A5000C9D02B700135756093E701234A46137016
:109A6000A94200D147E72B700135756018E707233D
:109A70006B44994602234A460025137029004A4642
:109A80003000FFF727FD7568B16815E707236B44C1
:109A9000994602234A460025137029004A463000A1
:109AA000FFF718FD7568B16877E729003000FFF708
:109AB00011FD7568B16843E73000FFF70BFD75686D
:109AC000B168AFE6A169EDB222E6C046F0B5CE4678
:109AD000474680B5036987B0002B00D181E003279A
:109AE000046CD44A23680770DB68934200D014E109
:109AF00001230026236297336762E65020F062FD5F
:109B0000322111F0E3F8CC4B26619C4600236144DE
:109B1000E360616020F056FDB421490011F0D6F8F1
:109B20002500080013F0C4FA94235035A060E550D6
:109B3000236D1B6898466368994620F043FD142105
:109B400011F0C4F822000B00210028000C324B4415
:109B500008310096C047B94B00211D682B682800CA
:109B60005B6898472B680021DB6828009847236AC8
:109B70009846012B38D0B24EAF21300049000AF090
:109B800009FB1E2363612300012240331A7328233B
:109B90000025A364253BA3626564A5830EF09AFDAE
:109BA00002230722FF33A387636820636163D91709
:109BB0000A40D218A34BD2109C46664400230721CA
:109BC0003000643200950AF027F9002300220B21AF
:109BD000300000950AF020F907B0C0BCB946B04685
:109BE000F0BDFFF783FAF7E7974D984B039604967D
:109BF0000596EB5C002B00D0FDE1954BEB5C002B58
:109C000000D045E1934BEB5C002B00D0ADE2924BD2
:109C1000EB5C002B00D026E2002100268F4BEB5C92
:109C2000002B00D0D2E1039FCB1B9846B74200D156
:109C300011E220F0C7FCF11B11F070F87E5C002FE0
:109C400003D04146380013F0C9FC854B7336E95CFC
:109C5000844BF2B2E8180AF089FAFA239B0098467E
:109C60002E69012346451CDB4146300011F02EF8D9
:109C700041460700300011F029F838000E00414637
:109C800011F024F8012904DD764B0022E818FFF7D3
:109C90008DFC734B1D22E95C724BE8180AF066FAE2
:109CA0000023632E00DC7FE26421300011F00EF807
:109CB0000F00C72E00DD2AE1614E694B1C22E95CD2
:109CC000684BE8180AF052FA0023654A9146142FAF
:109CD00000DCAAE10A21380010F0F8FF4B4680466C
:109CE000E95C072800D1FBE0092819D002004307EE
:109CF0001B1A9B001B1A5B00FF185A4B1232D2B280
:109D0000E8180AF033FA012F00D10BE10B2F00D134
:109D10000EE1002F50D00123D9E7200098475BE7E0
:109D2000504B503F1A22E8180AF020FA012F00D1B8
:109D3000FBE00B2F00D1FEE0002F3DD07B1C00D0BC
:109D400022E20023484A039304930593AA5C002A65
:109D500000D0ADE1454BEB5C002B00D016E2444B4C
:109D6000EB5C002B00D03EE2424BEB5C002B00D0C2
:109D700021E200210027404BEB5C002B00D0C1E129
:109D8000039B9846CB1A9946B84500D10FE220F0C4
:109D900019FC4346F91A10F0C1FF43465F5C002BE3
:109DA00003D04946404613F019FC2D4B3A00E95CBC
:109DB0002C4BE8180AF0DAF90023304A0393049395
:109DC0000593AA5C002A00D0D6E02D4BEB5C002B5B
:109DD00000D031E12B4BEB5C002B00D0A8E12A4BEB
:109DE000EB5C002B00D04BE100230027274AAA5C44
:109DF000002A00D0AAE0039A9B1A90469946BA42DC
:109E000000D12CE120F0DEFB4346F91A10F086FF6A
:109E100043465F5C002B03D04946404613F0DEFB0F
:109E20000F4B2D37E95C0F4BFAB2E8180AF09EF998
:109E3000A2E6C04649A900108813000050C70210CE
:109E400008970020B887FFFF781E00201F790000C8
:109E50002079000021790000227900002379000098
:109E6000A878000090780000AC780000AD78000081
:109E7000AE780000AF780000B0780000D97800001C
:109E8000DA780000DB780000DC780000DD78000084
:109E90000B2342466B44994600211A704A4603A898
:109EA000FFF718FB049E0599D64BEB5C002B08D0FE
:109EB00002234A4613708E4200D15DE133700136B1
:109EC0000496D14BEB5C002B00D1A7E603234A4656
:109ED00013708E4200D1CBE03370013604969DE6BC
:109EE000CA4B3C3F9846A844182240460AF03EF927
:109EF000012F23D00B2F00D00BE70B27C44B1E22C2
:109F0000E95CC24BE8180AF031F90123DFE664216D
:109F1000300010F0DBFEBF4E010000223000FFF7E2
:109F200045FBCAE64346082BE8D101270123CEE6CC
:109F30004346082BE1D10B270123C8E64B461E22DE
:109F40004046E95C0AF012F90127EFE70B220421F1
:109F50006A4411709F4200D1F9E0039A39709B1A4C
:109F60000137904699460497974200D04AE7494600
:109F7000380013F033FBFFE50B226A441370002115
:109F800003A89146FFF7A6FAA34A049FAA5C059B83
:109F9000002A00D083E0A14AAA5C002A08D002224D
:109FA00049460A70BB4200D1C9E03A7001370497B4
:109FB0009B4AAA5C002A00D118E7032249460A708E
:109FC000BB4264D03A70013704970FE70B22042399
:109FD0006A4413708E4200D1C0E0039F3370013693
:109FE000CB1B98460496BE4200D022E64146300084
:109FF00013F0F4FA31E60B236B441E701A000021B3
:10A0000003A89946FFF766FA864B049EEB5C059918
:10A01000002B00D148E74B4642461A708E4200D1D1
:10A020003CE73270013604963EE7002F00D085E60B
:10A03000002B00D0B9E6BFE60B236B449946012301
:10A040004A460027137039004A4603A8FFF742FA30
:10A05000049F059B9FE7002E00D1FEE5C6E7002F79
:10A0600000D189E583E70B236B44994600261F70D6
:10A0700031004A4603A8FFF72DFA049E0599CDE565
:10A080000B236B44994603234A460027137039007B
:10A090004A4603A8FFF71EFA049F059BA6E6012285
:10A0A00049460A70BB42CED03A700137049772E736
:10A0B0000B226A440021137003A89146FFF70AFAA5
:10A0C000594B049FEB5C0599002B00D082E0574B65
:10A0D000EB5C002B08D002234A4613708F4200D15C
:10A0E00088E03B7001370497514BEB5C002B00D1AB
:10A0F00041E603234A4613708F4263D03B70013719
:10A10000049738E60B2204236A4413708F4200D16F
:10A1100090E03B70039B01379846CB1A9946049711
:10A12000474500D033E64946380013F057FA43E676
:10A130000B236B44994602234A46002713703900CB
:10A140004A4603A8FFF7C6F9049F059B30E739008C
:10A1500003A8FFF7BFF9049F059B4CE6310003A855
:10A16000FFF7B8F9049E05995DE50B236B4499460A
:10A1700002234A460026137031004A4603A8FFF71F
:10A18000A9F9049E05999CE6FFB20EE60B236B44E9
:10A19000994601234A46002113704A4603A8FFF757
:10A1A00099F9049F059992E737001A4E8DE5002F23
:10A1B00000D101E6B7E70B236B44994603234A46D7
:10A1C0000027137039004A4603A8FFF783F9049F5C
:10A1D0000599D0E501234A4613708F42DDD03B70CC
:10A1E0000137049773E70B236B44994602234A46D1
:10A1F0000027137039004A4603A8FFF76BF9049F44
:10A20000059971E72179000022790000907800001B
:10A21000A878000008970020DA780000DB780000BA
:10A22000DC78000020790000AD780000AE780000F6
:10A23000AF780000390003A8FFF74CF9049F059997
:10A240009EE5C046036AF0B5013B9D05C646ED1A82
:10A25000AD01ED186D00ED18C84B00B59C4686B0F9
:10A26000ED006544040020F0ADF9322110F02EFD20
:10A27000002600234919E3606160266120F0A2F9FD
:10A28000B421490010F022FD2500080012F010FF53
:10A2900094235035A060E550676820F093F91421AD
:10A2A00010F014FD2200CB19210028000C320831D7
:10A2B0000096FEF705F9B24B00211D682B682800B7
:10A2C0005B6898472B6800212800DB689847276A5D
:10A2D000012F2BD0AF21AB4D4900280009F05AFFC8
:10A2E0001E2363612300012240331A7328230026B2
:10A2F000A364253BA3626664A6830EF0EBF90223F8
:10A300000722FF33A387636820636163D9170A407C
:10A31000D2189D4BD210E818072100236432009612
:10A3200009F07AFD06B080BCB846F0BD974D984B59
:10A33000039604960596EB5C002B00D04AE1954B02
:10A34000EB5C002B00D015E2934BEB5C002B00D0B4
:10A3500074E2924BEB5C002B00D01FE20021002640
:10A360008F4BEB5C002B00D088E1039FCB1B984602
:10A37000B74200D10AE220F025F9F11B10F0CEFC23
:10A380007E5C002F03D04146380013F027F9854B3F
:10A390007336E95C844BF2B2E81809F0E7FEFA2361
:10A3A0009B0098462F69012347451CDB4146380036
:10A3B00010F08CFC41460600380010F087FC30009D
:10A3C0000F00414610F082FC012904DD764B00228B
:10A3D000E818FFF7EBF8734B1D22E95C724BE818A5
:10A3E00009F0C4FE0023632F00DC60E26421380022
:10A3F00010F06CFC64218046380010F067FC694B5B
:10A400000E00E95CC72F05DD4346DAB2664BE8185B
:10A4100009F0ACFE634B1C22E95C634BE81809F0C1
:10A42000A5FE00235F4A9046142E00DC8CE10A2131
:10A43000300010F04BFC43460700E95C072800D1D0
:10A44000F4E0092816D0020043071B1A9B001B1AD0
:10A450005B00F618544B1232D2B2E81809F086FEAF
:10A46000012E00D1F8E00B2E00D1FAE0002E4AD0E8
:10A470000123D9E74C4B503E1A22E81809F076FE2A
:10A48000012E00D1EAE00B2E00D1ECE0002E3AD0F4
:10A49000731C00D056E10023444A039304930593B0
:10A4A000AA5C002A00D097E1414BEB5C002B00D066
:10A4B000EFE1404BEB5C002B00D01AE23E4BEB5C33
:10A4C000002B00D0FDE1002100263C4BEB5C002B73
:10A4D00000D0A9E1039FCB1B9846BE4200D1E8E122
:10A4E00020F070F8F11B10F019FC7E5C002F03D0F7
:10A4F0004146380013F072F82A4B3200E95C2A4BCF
:10A50000E81809F033FE00232D4A039304930593C2
:10A51000AA5C002A00D0DBE02A4BEB5C002B00D0C9
:10A5200019E1294BEB5C002B00D09CE1274BEB5C45
:10A53000002B00D041E100210026254BEB5C002BD5
:10A5400000D0B0E0039FCB1B9846B74200D121E179
:10A5500020F038F8F11B10F0E1FB7E5C002F03D0F7
:10A560004146380013F03AF80E4B2D36E95C0E4B9D
:10A57000F2B2E81809F0FAFDACE6C0468813000014
:10A5800050C7021008970020B887FFFF781E0020F0
:10A590001F79000020790000217900002279000055
:10A5A00023790000A878000090780000AC780000C3
:10A5B000AD780000AE780000AF780000B078000001
:10A5C000D9780000DA780000DB780000DC78000041
:10A5D000DD7800000B236B441E701A00002103A8D5
:10A5E0009846FEF777FFCD4B049EEB5C0599002B58
:10A5F00000D096E0CA4BEB5C002B08D00223424609
:10A600001370B14200D120E1337001360496C54B7E
:10A61000EB5C002B00D1A3E6032342461370B1424A
:10A6200000D1C2E033700136049699E6BE4B3C3E41
:10A63000EF181822380009F099FD012E16D00B2EC4
:10A6400000D013E70B26B94B1E22E95CB64BE81885
:10A6500009F08CFD0123E7E6082FF4D10126012340
:10A66000E2E6082FEED10B260123DDE643461E224B
:10A670003800E95C09F07AFD0126F0E70B2204239B
:10A680006A441370B14200D1E7E0039F3370013692
:10A69000CB1B98460496BE4200D06CE64146300083
:10A6A00012F09CFF7BE60B2204236A4413708E4257
:10A6B00000D1E7E0039F33700136CB1B9846049628
:10A6C000BE4200D044E74146300012F087FF01E669
:10A6D0000B226A440021137003A89046FEF7FAFE8D
:10A6E000934B049EEB5C0599002B22D1914BEB5CC4
:10A6F000002B08D0022342461370B14200D1B9E0CA
:10A700003370013604968C4BEB5C002B00D114E7C0
:10A710000323424613708E4256D03370013604969E
:10A720000BE743461F708E4229D0377001360496DE
:10A7300060E7012342461370B14213D033700136F3
:10A740000496D3E7F6B2D7E6002E00D0A0E6002BA1
:10A7500000D0D1E6D7E60B236B449846012342464E
:10A76000002613703100424603A8FEF7B3FE049E94
:10A770000599BBE70B236B44984600211F704246A6
:10A7800003A8FEF7A7FE049E059933E7002E00D12B
:10A7900005E683E7002E00D19CE594E70B236B448C
:10A7A000984603234246002613703100424603A810
:10A7B000FEF790FE049E0599D2E50B236B44984664
:10A7C00003234246002613703100424603A8FEF7D9
:10A7D00081FE049E0599B0E60B226A4400211370A5
:10A7E00003A89046FEF776FE544B049EEB5C059959
:10A7F000002B75D1524BEB5C002B07D00223424655
:10A8000013708E427CD03370013604964D4BEB5C56
:10A81000002B00D159E60323424613708E4257D0D5
:10A8200033700136049650E60B2204236A441370F9
:10A83000B1426DD03370013604964BE60B236B4466
:10A84000984602234246002613703100424603A870
:10A85000FEF740FE049E0599D9E603A8FEF73AFEEE
:10A86000049E059981E50B236B44984602234246DA
:10A87000002613703100424603A8FEF72BFE049E0B
:10A88000059940E7310003A8FEF724FE049E0599D0
:10A8900058E60B236B44984601234246002113706F
:10A8A000424603A8FEF716FE049E0599A2E73E0065
:10A8B000B8E5002E00D126E61900300012F08EFE19
:10A8C00021E60B236B44984603234246002613706F
:10A8D0003100424603A8FEF7FDFD049E0599F4E50C
:10A8E0000123424613708E42DAD03370013604964B
:10A8F00080E70B236B4498460223424600261370E0
:10A900003100424603A8FEF7E5FD049E05997DE768
:10A9100003A8FEF7DFFD049E0599DBE52079000022
:10A92000217900002279000090780000A8780000CA
:10A93000DA780000DB780000DC780000AD780000F9
:10A94000AE780000AF780000F0B5CE464746012350
:10A9500080B5002603270362973387B04762C6504D
:10A9600004001FF02FFE322110F0B0F9C94B266110
:10A970009C4600236144E36061601FF023FEB42124
:10A98000490010F0A3F92500080012F091FB942370
:10A990005035A060E550636898461FF013FE1421FF
:10A9A00010F094F922000B002100280043440C32DF
:10A9B00008310096FDF784FDB74B00211D682B6818
:10A9C00028005B6898472B680021DB6828009847BF
:10A9D000236A9846012B35D0AF21B04E4900300094
:10A9E00009F0D8FB1E2363612300012240331A7350
:10A9F00028230025A364253BA3626564A5830DF08D
:10AA000069FE02230722FF33A38763682063616323
:10AA1000D9170A40D218A24BD2109C466644300087
:10AA2000002307216432009509F0F6F90023002283
:10AA30000B213000009509F0EFF907B0C0BCB94612
:10AA4000B046F0BD974D984B039604960596EB5C87
:10AA5000002B00D04AE1954BEB5C002B00D016E2B6
:10AA6000934BEB5C002B00D074E2924BEB5C002B21
:10AA700000D021E2002100268F4BEB5C002B00D0A0
:10AA800088E1039FCB1B9846B74200D10CE21FF030
:10AA900099FDF11B10F042F97E5C002F03D0414676
:10AAA000380012F09BFD854B7336E95C844BF2B2A3
:10AAB000E81809F05BFBFA239B0098462F690123F5
:10AAC00047451CDB4146380010F000F941460600BE
:10AAD000380010F0FBF830000F00414610F0F6F897
:10AAE000012904DD764B0022E818FEF75FFD734B69
:10AAF0001D22E95C724BE81809F038FB0023632F34
:10AB000000DC61E26421380010F0E0F86421804646
:10AB1000380010F0DBF8694B0E00E95CC72F05DD4B
:10AB20004346DAB2664BE81809F020FB634B1C225F
:10AB3000E95C634BE81809F019FB00235F4A904673
:10AB4000142E00DC8DE10A21300010F0BFF84346DE
:10AB50000700E95C072800D1F4E0092816D00200BC
:10AB600043071B1A9B001B1A5B00F618544B12324A
:10AB7000D2B2E81809F0FAFA012E00D1F8E00B2E53
:10AB800000D1FAE0002E4AD00123D9E74C4B503EC9
:10AB90001A22E81809F0EAFA012E00D1EAE00B2E99
:10ABA00000D1ECE0002E3AD0731C00D057E1002316
:10ABB000444A039304930593AA5C002A00D097E1CA
:10ABC000414BEB5C002B00D0F0E1404BEB5C002BE9
:10ABD00000D01BE23E4BEB5C002B00D0FEE10021DD
:10ABE00000263C4BEB5C002B00D0A9E1039FCB1B64
:10ABF0009846BE4200D1E9E11FF0E4FCF11B10F0E1
:10AC00008DF87E5C002F03D04146380012F0E6FC40
:10AC10002A4B3200E95C2A4BE81809F0A7FA002316
:10AC20002D4A039304930593AA5C002A00D0DBE02D
:10AC30002A4BEB5C002B00D01AE1294BEB5C002B7C
:10AC400000D09DE1274BEB5C002B00D041E10021BF
:10AC50000026254BEB5C002B00D0B0E0039FCB1B04
:10AC60009846B74200D123E11FF0ACFCF11B10F075
:10AC700055F87E5C002F03D04146380012F0AEFC40
:10AC80000E4B2D36E95C0E4BF2B2E81809F06EFA65
:10AC9000A2E6C0468813000050C7021008970020A3
:10ACA000B887FFFF781E00201F7900002079000080
:10ACB000217900002279000023790000A8780000A3
:10ACC00090780000AC780000AD780000AE7800000D
:10ACD000AF780000B0780000D9780000DA78000082
:10ACE000DB780000DC780000DD7800000B236B448B
:10ACF0001E701A00002103A89946FEF7EBFBCE4B0D
:10AD0000049EEB5C0599002B00D096E0CB4BEB5CEE
:10AD1000002B08D002234A461370B14200D120E133
:10AD2000337001360496C64BEB5C002B00D1A3E6D2
:10AD300003234A4613708E4200D1C2E033700136BD
:10AD4000049699E6BF4B3C3EEF181822380009F0F4
:10AD50000DFA012E16D00B2E00D013E70B26BA4B9E
:10AD60001E22E95CB74BE81809F000FA0123E7E678
:10AD7000082FF4D101260123E2E6082FEED10B269D
:10AD80000123DDE643461E223800E95C09F0EEF9B6
:10AD90000126F0E70B2204236A4413708E4200D18F
:10ADA000E7E0039F33700136CB1B98460496BE4202
:10ADB00000D06CE64146300012F010FC7BE60B221E
:10ADC00004236A4413708E4200D1E8E0039F33707D
:10ADD0000136CB1B98460496BE4200D044E741465C
:10ADE000300012F0FBFBF7E50B226A4400211370E0
:10ADF00003A89146FEF76EFB944B049EEB5C05990D
:10AE0000002B23D1924BEB5C002B08D002234A4647
:10AE10001370B14200D1BAE03370013604968D4B05
:10AE2000EB5C002B00D114E703234A4613708E42DB
:10AE300056D03370013604960BE74B4642461A70E3
:10AE40008E422AD03270013604965FE701234A46CB
:10AE50001370B14213D0337001360496D2E7F6B2C4
:10AE6000D6E6002E00D09FE6002B00D0D0E6D6E636
:10AE70000B236B44994601234A4600261370310088
:10AE80004A4603A8FEF726FB049E0599BAE70B2362
:10AE900042466B44994600211A704A4603A8FEF7C1
:10AEA00019FB049E059931E7002E00D103E681E7E6
:10AEB000002E00D190E592E70B236B4499460026C3
:10AEC0001F7031004A4603A8FEF704FB049E059953
:10AED000D2E50B236B44994603234A4600261370A0
:10AEE00031004A4603A8FEF7F5FA049E0599B0E63C
:10AEF0000B226A440021137003A89146FEF7EAFA78
:10AF0000554B049EEB5C0599002B76D1534BEB5CC3
:10AF1000002B07D002234A461370B1427DD0337014
:10AF2000013604964E4BEB5C002B00D159E603230F
:10AF30004A4613708E4258D033700136049650E65C
:10AF40000B2204236A4413708E426ED03370013694
:10AF500004964BE60B236B44994602234A4600268F
:10AF6000137031004A4603A8FEF7B4FA049E05990F
:10AF7000D9E6310003A8FEF7ADFA049E059980E5F5
:10AF80000B236B44994602234A4600261370310076
:10AF90004A4603A8FEF79EFA049E05993FE7310052
:10AFA00003A8FEF797FA049E059957E60B236B4416
:10AFB000994601234A46002113704A4603A8FEF72A
:10AFC00089FA049E0599A1E73E00B7E5002E00D15D
:10AFD00025E61900300012F001FB20E60B236B443C
:10AFE000994603234A460026137031004A4603A8B7
:10AFF000FEF770FA049E0599F3E501234A461370A3
:10B000008E42DAD03370013604967FE70B236B440F
:10B01000994602234A460026137031004A4603A887
:10B02000FEF758FA049E05997CE7310003A8FEF765
:10B0300051FA049E0599D9E5207900002179000094
:10B040002279000090780000A8780000DA780000EB
:10B05000DB780000DC780000AD780000AE780000FE
:10B06000AF780000036AF0B5013B9D05C646ED1AB6
:10B07000AD01ED186D00ED18C84B00B59C4686B0CB
:10B08000ED00654404001FF09DFA32210FF01EFE12
:10B09000002600234919E360616026611FF092FADF
:10B0A000B42149000FF012FE2500080012F000F84C
:10B0B00094235035A060E55067681FF083FA14218F
:10B0C0000FF004FE2200CB19210028000C320831B9
:10B0D0000096FDF7F5F9B24B00211D682B6828009A
:10B0E0005B6898472B6800212800DB689847276A2F
:10B0F000012F2BD0AF21AB4D4900280009F04AF8B1
:10B100001E2363612300012240331A732823002683
:10B11000A364253BA3626664A6830DF0DBFA0223D9
:10B120000722FF33A387636820636163D9170A404E
:10B13000D2189D4BD210E8180721002364320096E4
:10B1400008F06AFE06B080BCB846F0BD974D984B3B
:10B15000039604960596EB5C002B00D04AE1954BD4
:10B16000EB5C002B00D015E2934BEB5C002B00D086
:10B1700074E2924BEB5C002B00D01FE20021002612
:10B180008F4BEB5C002B00D088E1039FCB1B9846D4
:10B19000B74200D10AE21FF015FAF11B0FF0BEFD15
:10B1A0007E5C002F03D04146380012F017FA854B21
:10B1B0007336E95C844BF2B2E81808F0D7FFFA2343
:10B1C0009B0098462F69012347451CDB4146380008
:10B1D0000FF07CFD4146060038000FF077FD30008F
:10B1E0000F0041460FF072FD012904DD764B00226D
:10B1F000E818FEF7DBF9734B1D22E95C724BE81887
:10B2000008F0B4FF0023632F00DC60E26421380003
:10B210000FF05CFD6421804638000FF057FD694B4C
:10B220000E00E95CC72F05DD4346DAB2664BE8182D
:10B2300008F09CFF634B1C22E95C634BE81808F0A4
:10B2400095FF00235F4A9046142E00DC8CE10A2112
:10B2500030000FF03BFD43460700E95C072800D1B2
:10B26000F4E0092816D0020043071B1A9B001B1AA2
:10B270005B00F618544B1232D2B2E81808F076FF91
:10B28000012E00D1F8E00B2E00D1FAE0002E4AD0BA
:10B290000123D9E74C4B503E1A22E81808F066FF0C
:10B2A000012E00D1EAE00B2E00D1ECE0002E3AD0C6
:10B2B000731C00D056E10023444A03930493059382
:10B2C000AA5C002A00D097E1414BEB5C002B00D038
:10B2D000EFE1404BEB5C002B00D01AE23E4BEB5C05
:10B2E000002B00D0FDE1002100263C4BEB5C002B45
:10B2F00000D0A9E1039FCB1B9846BE4200D1E8E1F4
:10B300001FF060F9F11B0FF009FD7E5C002F03D0E8
:10B310004146380012F062F92A4B3200E95C2A4BB0
:10B32000E81808F023FF00232D4A039304930593A4
:10B33000AA5C002A00D0DBE02A4BEB5C002B00D09B
:10B3400019E1294BEB5C002B00D09CE1274BEB5C17
:10B35000002B00D041E100210026254BEB5C002BA7
:10B3600000D0B0E0039FCB1B9846B74200D121E14B
:10B370001FF028F9F11B0FF0D1FC7E5C002F03D0E9
:10B380004146380012F02AF90E4B2D36E95C0E4B7F
:10B39000F2B2E81808F0EAFEACE6C04688130000F6
:10B3A00050C7021008970020B887FFFF781E0020C2
:10B3B0001F79000020790000217900002279000027
:10B3C00023790000A878000090780000AC78000095
:10B3D000AD780000AE780000AF780000B0780000D3
:10B3E000D9780000DA780000DB780000DC78000013
:10B3F000DD7800000B236B441E701A00002103A8A7
:10B400009846FEF767F8CD4B049EEB5C0599002B40
:10B4100000D096E0CA4BEB5C002B08D002234246DA
:10B420001370B14200D120E1337001360496C54B50
:10B43000EB5C002B00D1A3E6032342461370B1421C
:10B4400000D1C2E033700136049699E6BE4B3C3E13
:10B45000EF181822380008F089FE012E16D00B2EA6
:10B4600000D013E70B26B94B1E22E95CB64BE81857
:10B4700008F07CFE0123E7E6082FF4D10126012322
:10B48000E2E6082FEED10B260123DDE643461E221D
:10B490003800E95C08F06AFE0126F0E70B2204237D
:10B4A0006A441370B14200D1E7E0039F3370013664
:10B4B000CB1B98460496BE4200D06CE64146300055
:10B4C00012F08CF87BE60B2204236A4413708E4240
:10B4D00000D1E7E0039F33700136CB1B98460496FA
:10B4E000BE4200D044E74146300012F077F801E652
:10B4F0000B226A440021137003A89046FDF7EAFF6F
:10B50000934B049EEB5C0599002B22D1914BEB5C95
:10B51000002B08D0022342461370B14200D1B9E09B
:10B520003370013604968C4BEB5C002B00D114E792
:10B530000323424613708E4256D033700136049670
:10B540000BE743461F708E4229D0377001360496B0
:10B5500060E7012342461370B14213D033700136C5
:10B560000496D3E7F6B2D7E6002E00D0A0E6002B73
:10B5700000D0D1E6D7E60B236B4498460123424620
:10B58000002613703100424603A8FDF7A3FF049E76
:10B590000599BBE70B236B44984600211F70424678
:10B5A00003A8FDF797FF049E059933E7002E00D10D
:10B5B00005E683E7002E00D19CE594E70B236B445E
:10B5C000984603234246002613703100424603A8E2
:10B5D000FDF780FF049E0599D2E50B236B44984646
:10B5E00003234246002613703100424603A8FDF7AC
:10B5F00071FF049E0599B0E60B226A440021137086
:10B6000003A89046FDF766FF544B049EEB5C05993A
:10B61000002B75D1524BEB5C002B07D00223424626
:10B6200013708E427CD03370013604964D4BEB5C28
:10B63000002B00D159E60323424613708E4257D0A7
:10B6400033700136049650E60B2204236A441370CB
:10B65000B1426DD03370013604964BE60B236B4438
:10B66000984602234246002613703100424603A842
:10B67000FDF730FF049E0599D9E603A8FDF72AFFE0
:10B68000049E059981E50B236B44984602234246AC
:10B69000002613703100424603A8FDF71BFF049EED
:10B6A000059940E7310003A8FDF714FF049E0599B2
:10B6B00058E60B236B449846012342460021137041
:10B6C000424603A8FDF706FF049E0599A2E73E0047
:10B6D000B8E5002E00D126E61900300011F07EFFFB
:10B6E00021E60B236B449846032342460026137041
:10B6F0003100424603A8FDF7EDFE049E0599F4E5EE
:10B700000123424613708E42DAD03370013604961C
:10B7100080E70B236B4498460223424600261370B1
:10B720003100424603A8FDF7D5FE049E05997DE74A
:10B7300003A8FDF7CFFE049E0599DBE52079000004
:10B74000217900002279000090780000A87800009C
:10B75000DA780000DB780000DC780000AD780000CB
:10B76000AE780000AF780000F0B5CE46474680B511
:10B77000C84BC268596A0400856889B000209142AC
:10B7800044D39B6AAB4246D30CF0A4FF0023C24AC9
:10B79000801859410B008021020009068B4202D318
:10B7A0000122BE4B5242BE4FA2603800E36008F057
:10B7B00035FDBC4BE618300003F0C0F9BA4B1D68EC
:10B7C0002B6828001B699847B84B9846E35C002B10
:10B7D0003CD12378032B00D10BE11FD8012B3DD0A6
:10B7E000022B12D17368002B00D008E1A94BE16A4B
:10B7F0005A6AA06A914200D93DE19B6A834202D213
:10B80000914200D137E101232370012009B0C0BC6F
:10B81000B946B046F0BD9142B6D1F7E7042BF4D15A
:10B82000380008F0CDFC0028EFD12369002B00D1AF
:10B8300015E20323206C237003689D4A1B69934221
:10B8400000D0D9E0FFF70EFC0120DFE7380008F058
:10B85000B7FC0028D9D14346E054BAE7380008F0D5
:10B86000AFFC00286AD18B4BE16B5A6AA06B914206
:10B8700064D89B6A834201D291425FD08D4B8E4D3A
:10B880008E4F9846EA58EB599A4210D01EF09AFE15
:10B890004346EF59E958C91B49100FF03FFA884B4E
:10B8A00049007A5CE95C874BE81808F05FFC0CF013
:10B8B00011FF002900D1DDE1FA22002392000FF0F0
:10B8C0006BFA0700616B206B002900D1CCE1FA22F2
:10B8D000002392000FF060FA80461EF073FE050010
:10B8E0000CF0F8FE434600900191F81A76490FF0EB
:10B8F000EDF9010096230A315B00994200DD190041
:10B9000028000FF0E3F9FA2205314801401A8000BF
:10B910004018002392000021C00011F043FB009A60
:10B92000019B801859410B008021020009068B42BF
:10B9300002D30122594B5242A263E3637368002B86
:10B9400000D162E70021002002220023049005912B
:10B95000594E5E4922700693715C04AF002900D0F5
:10B9600052E15B4BF35C002B00D089E1594BF35C57
:10B97000002B00D0F8E1584BF35C002B00D094E191
:10B9800000210025554BF35C002B00D027E1049FDC
:10B99000CB1B9846AF4200D183E11EF013FEE91B9A
:10B9A0000FF0BCF97D5C002F03D04146380011F048
:10B9B00015FE434B6435F15C424BEAB2F01808F0D7
:10B9C000D5FB474B1A685B68A262E3620CF082FE0B
:10B9D0000023444A801859410B00802102000906C7
:10B9E0008B4202D301222D4B52420120226263621C
:10B9F0000CE7206C03685B699847012006E70CF0B0
:10BA000069FE0023384A801859410B00802102004A
:10BA100009068B4202D30122204B5242E362736833
:10BA2000A262002B00D1E1E62269934227D1194B93
:10BA3000E1695A6AA069914200D9E6E69B6A8342AD
:10BA400002D2914200D1E0E6380008F0B9FB0028AC
:10BA500000D0DAE6206C042203689968234B9942EF
:10BA600000D0DFE12369934200DD38E12000FEF7DA
:10BA70002DF80120CAE62369002B00D1C5E6380065
:10BA800008F09EFB002833D02369002BCFD1012082
:10BA9000BCE6C0460040054010270000FFFFFF7FC6
:10BAA00008970020B879000050C70210887800007D
:10BAB00045A20010B0790000781E0020AC7900008B
:10BAC000A878000090780000204E00001079000057
:10BAD0001179000012790000137900001479000038
:10BAE00078CD0210405DC60000127A003984001043
:10BAF0000CF0F0FD0023D54A801859410B0080213D
:10BB0000020009068B4202D30122D14B5242E3616B
:10BB10007368A2612361CF4B616A5A6A206A9142BD
:10BB200056D89B6A834201D2914251D00022002311
:10BB3000049205930023C84EC84A0693B25C04AF32
:10BB4000002A00D038E1C64BF35C002B00D06CE13A
:10BB5000C44BF35C002B00D03BE2C34BF35C002BE7
:10BB600000D0EBE1002300219946C04BF35C002B91
:10BB700000D008E1049FCB1B98464F4500D1F0E16F
:10BB80001EF020FD4B46D91B0FF0C8F87B5C994690
:10BB9000002F03D04146380011F020FD4F46B44B32
:10BBA0006937F15CB34BFAB2F01808F0DFFA0CF029
:10BBB00091FD0023B04A801859410B0080210200FA
:10BBC00009068B4202D30122A14B524222626362D8
:10BBD0002B68280000215B689847012016E602AB1D
:10BBE000DA1D042313708D4200D1B6E02B700135AD
:10BBF0007D60049FCB1B9846BD4200D0CDE64146F8
:10BC0000280011F0EBFCDCE602A98C460722624416
:10BC10000021137038009046FDF75CFC974B7D685F
:10BC2000F35CB968002B51D1954BF35C002B08D025
:10BC3000022342461370A94200D19CE02B700135CB
:10BC40007D60904BF35C002B00D19BE603234246C2
:10BC50001370A94232D02B7001357D6092E620002E
:10BC6000FDF744FA0120D1E5FA2189000FF056F8DA
:10BC7000804632E6FA2189000FF050F8070021E6ED
:10BC800002AA9446072363449846012342460025AE
:10BC90001370290042463800FDF71CFC7D68B96826
:10BCA000C2E7002D00D18CE6A9E702AA944607233B
:10BCB00063449846032342460025137029004246F8
:10BCC0003800FDF707FC7D68B9685BE60123424652
:10BCD0001370A942DDD02B7001357D60A4E70022EE
:10BCE00000230492059300235B4E674A0693B25CDF
:10BCF00004AF002A00D0E6E0644BF35C002B00D0D8
:10BD00000CE1634BF35C002B00D07CE10021614B24
:10BD10000C00F35C8B4200D043E15F4BF35C002BE3
:10BD200000D0BBE0049FCD1BA74200D135E11EF03F
:10BD300049FCE11B0EF0F2FF7C5C002F03D02900D0
:10BD4000380011F04BFC4A4B6E34F15C494BE2B2C7
:10BD5000F01808F00BFA012058E529003800FDF72B
:10BD6000B9FB7D68B96812E602A907238C466344D3
:10BD7000984600251A70290042463800FDF7AAFBB4
:10BD80007D68B9685DE702ABDA1D0423137089454D
:10BD900000D116E14A461370033B9C46E1444B46F2
:10BDA0007B60049FCB1B9846B94500D0E8E641462E
:10BDB000484611F013FCFAE602A98C4607226244B9
:10BDC0000021137038009046FDF784FB7B68B9684A
:10BDD0009946234BF35C002B00D0C7E0214BF35C6A
:10BDE000002B0CD0022342461370894500D1FAE0A3
:10BDF0004A46137001239C46E1444B467B601A4B34
:10BE0000F35C002B00D1B0E6032342461370894552
:10BE100000D19DE04A46137001239C46E1444B4605
:10BE20007B60A2E6884702001CE602AA944607232C
:10BE3000634498460123424600211370424638006D
:10BE4000FDF748FB7B68B9689946C7E7C0C62D0077
:10BE5000FFFFFF7F00400540781E0020157900009D
:10BE60001679000017790000187900001979000090
:10BE7000A87800009078000000127A001179000084
:10BE800012790000137900001A7900001B79000074
:10BE90001C7900001D7900001E79000002ABDA1D3C
:10BEA000042313708C4200D1A6E0237001347C601F
:10BEB000049FCD1BA74200D039E72000290011F0D4
:10BEC0008DFB0120A2E402A98C46072262440021D6
:10BED000137038009046FDF7FDFA534B7C68F35C15
:10BEE000B968002B50D1514BF35C002B08D00223D2
:10BEF000424613708C4200D18EE0237001347C6086
:10BF00004B4BF35C002B00D107E703234246137031
:10BF10008C424ED0237001347C60FEE602AA944627
:10BF2000072363449846012342460021137042468A
:10BF30003800FDF7CFFA7C68B968D4E702AA9446C6
:10BF4000072363449846032342461370002399460F
:10BF5000494642463800FDF7BDFA7B68B968994604
:10BF600003E64B46002B00D121E620E701234246A1
:10BF70001370894500D161E74A46137001239C463E
:10BF8000E1444B467B6029E70123424613708C4213
:10BF9000CDD0237001347C60A5E7002C8DD1012029
:10BFA00034E402AA94460723634498460323424696
:10BFB0001370210042463800FDF78CFA7C68B9689E
:10BFC000ABE649463800FDF785FA7B68B9689946C3
:10BFD000D0E502AA944607236344984602234246CA
:10BFE000137000239946494642463800FDF772FA1D
:10BFF0007B68B968994602E721003800FDF76AFAC4
:10C000007C68B9688EE602AA944607236344984682
:10C010000223424600241370210042463800FDF7F7
:10C0200059FA7C68B9686BE71B7900001C7900003D
:10C030001D790000F0B5DE4657464E464546E0B550
:10C04000836A04008DB0002B69D1C04B616B5A6AC2
:10C05000006B914200D9AFE09B6A834200D2A8E016
:10C06000230028331A7D002A00D093E1237F002B80
:10C0700000D0A5E19822A35826000A33A3509423A8
:10C080002700E058083603680C375B683A00310037
:10C0900098476423984682468346A044002800D0EF
:10C0A000A7E0AB4B80211D682B6828005B68984790
:10C0B0002B681B689946A3689A46A64B0A27DF5F40
:10C0C000380010F0F5FFE368061C191C9B4610F0C1
:10C0D000E5FF002800D05E46784210F0E9FF311CF1
:10C0E000071C10F0C5FF002800D13E1C5146280057
:10C0F000321CC8479423E358434500D182E12A68A3
:10C100007C34D268A34200D195E1002128009047F9
:10C110000DB0F0BCBB46B246A946A046F0BD050036
:10C1200028356A7D002A5BD18B4E894AA06B156841
:10C1300029684F68012B46DDFC21890510F069FF55
:10C14000A06311F009F8C1B22800B847300008F028
:10C1500037F80028DCD17D4B616B5A6A206B914225
:10C16000D6D89B6A834201D29142D1D07B4D7C4B81
:10C17000EB58002B00D15AE17A4B0022E818A16A53
:10C18000FDF714FA0CF0A6FA0023774A80185941FB
:10C190000B008021020009068B4202D30122734B5F
:10C1A00052426363724B2263A363A36A013BA3629F
:10C1B000AEE7914200D053E7250028356B7D002B78
:10C1C0000ED1654E624A1568A06B2B685F6810F04F
:10C1D000F7FF684A684B0FF018F80FF0EFF8AFE779
:10C1E0005D4E300007F0ECFF002800D16875A36AAF
:10C1F0009BE7A06810F07EFF00210500E06810F0CA
:10C2000037FF002800D098E063692900DA0FD218C0
:10C210005A4B521098461800013202F0F9FC584B64
:10C22000814643441B69012B00D178E14B46002B2A
:10C230006CD1C822534D00212800009352000023E6
:10C2400007F0EAFD2300022240331A734B46636471
:10C2500014239621A3644C4B4900E81807F09AFF79
:10C26000216901392161002900DCE7E10B2900DDAA
:10C27000F9E000223848FDF799F923699B465023DD
:10C280009A46A24452464433E250236A022B00D11C
:10C2900088E2032B00D19CE264229046A044012B4B
:10C2A00000D16DE14B4660680390002B0FD00FF07A
:10C2B00025F8364B364A0EF0A8FF0FF037F8FA2370
:10C2C00003909B00984200DB60E163600393534658
:10C2D0001B681B6899461EF075F914210EF0F6FCD8
:10C2E0005A46039B5046CB18009231003A00C8478B
:10C2F000072263682800D9170A40D2180023D210F9
:10C3000007216432009307F087FDCAE6E068002148
:10C3100010F0C4FE0200531E9A410023194D012162
:10C320002800009307F078FD9621174B4900E81884
:10C3300007F030FF2169013194E72800B421B430BF
:10C3400049000EF0C3FC0D005EE7C046004005400A
:10C3500050C702103C15002008970020781E0020CE
:10C36000BC7900009078000040420F00FFFFFF7F83
:10C3700000007F439A9999999999E93F3098002054
:10C380004886FFFFC01E0020487800003333EB3F93
:10C39000333333330026FA22E54D1E750321002383
:10C3A00028005200009607F037FD002301220621E5
:10C3B0002800009607F030FD237F002B00D159E6BE
:10C3C000DC4E300007F0FCFE002800D0A0E6627FC3
:10C3D000236A002A00D0B1E0012B26D0D64A636A36
:10C3E000B518002B23D0D54B00211C682E002368E4
:10C3F00020005B6898472368002220001B68D04912
:10C400009847AEE02B682800DB6801219847CD4DA6
:10C4100028212C6820000EF059FC03231A0002404A
:10C42000034273D00A342C6072E6C34BF51828001F
:10C43000FCF75CFE6CE6280002219047C24D2821E3
:10C440002C6820000EF042FC07210EF03FFC002972
:10C45000E8D1AF2200919623B5485200023107F08F
:10C46000DBFC2C68DEE700260023002206212800E2
:10C47000009607F0D1FC2300032240331A73C8232F
:10C48000A364236A66649946022B00D180E0032BE3
:10C4900000D1B1E1012B00D0ACE109AFAB4B099663
:10C4A000483D7E60BE60EB5C002B01D000F0F3FDE8
:10C4B000A74BEB5C002B01D000F0BBFEA54BEB5C67
:10C4C000002B01D001F0D4FAA34BEB5C002B01D080
:10C4D00001F024F900210026A04BEB5C002B01D0D9
:10C4E00000F0B5FD099FCB1B9846B74200D17EE115
:10C4F0001EF068F8F11B0EF011FC7E5C002F03D0DB
:10C500004146380011F06AF8783679E0009202214D
:10C510008748934A2F3307F07FFC2C6882E7290075
:10C5200063694046DA0FD21852100132B43102F07A
:10C530006FFB4B460343DBB2994677E6042B00D1F1
:10C5400073E77E4B00211C68236820005B689847D6
:10C55000236800221B68200079499847764B9C4647
:10C5600066440423012233707E4BF2547E4B1A68DA
:10C570005B6832627362B261F361B262F362C7E513
:10C580005B46DB0F5B445B109B468BE660609EE680
:10C5900009AF764B0996483D7E60BE60EB5C002B90
:10C5A00001D000F05AFC724BEB5C002B01D000F084
:10C5B0004FFE704BEB5C002B01D001F034FA6E4B58
:10C5C000EB5C002B01D001F0B9F8002100266B4B89
:10C5D000EB5C002B01D000F0ECFC099FCB1B9846D4
:10C5E000B74200D103E11DF0EDFFF11B0EF096FB09
:10C5F0007E5C002F03D04146380010F0EFFF7D36FF
:10C600005F4BF2B2E95C5F4BEE18300007F0AEFD15
:10C61000FA213000C90007F0BDFD236A002501336F
:10C6200023620223FF33A383574B0022F0180B2110
:10C630000023009507F0F0FB256169E50026636A99
:10C640000022013B6362062100232800009607F0C8
:10C65000E3FB2300042240331A73C823C822A364D7
:10C6600000210023280066649200009607F0D4FBA6
:10C67000FA21464B4900E81807F08CFD236A9946D9
:10C68000012B00D10DE3636A9946012B00D141E3F0
:10C69000022B00D176E3002B3FD109AF09937B60D9
:10C6A000BB603B4B483DEB5C002B01D000F06AFFC8
:10C6B000384BEB5C002B01D001F01AF9364BEB5CE8
:10C6C000002B01D001F072FB344BEB5C002B01D04E
:10C6D00001F082FA00210026314BEB5C002B01D0E7
:10C6E00000F0C5FE099FCB1B9846B74201D100F070
:10C6F000BFFD1DF067FFF11B0EF010FB7E5C002FED
:10C7000003D04146380010F069FF563E1C4BF2B290
:10C71000E95C1C4BE81807F029FDFA21054889005F
:10C7200007F038FD0123A38300232361F0E4C04612
:10C73000C01E0020089700207087FFFF50C702101E
:10C7400000003443F4CB0020F8CB00202479000013
:10C75000257900002679000027790000287900005B
:10C76000DC0500008878000078CD021029790000EF
:10C770002A7900002B7900002C7900002D79000027
:10C78000A878000090780000B887FFFF4878000084
:10C790005679000057790000587900005979000057
:10C7A0005A7900005B46032158000EF08FFA64238B
:10C7B00098465B460390A044082B00DD99E15B4658
:10C7C000062B00DD67E19423E3589A46039B9B46C2
:10C7D00068E564225B469046A044052B00DD7CE1C1
:10C7E000032B00DD69E19423E3589A465AE5002EB5
:10C7F00000D0F2E3C54E0BE709AFC54B0996483DA3
:10C800007E60BE60EB5C002B00D0EDE3C14BEB5CC7
:10C81000002B01D000F036FDBF4BEB5C002B01D0AC
:10C8200001F03EF9BD4BEB5C002B01D000F03EFF68
:10C8300000210026BA4BEB5C002B01D000F01CFC61
:10C84000099B9846CB1A9946464501D100F02AFD2E
:10C850001DF0B8FE4346F11A0EF060FA43465E5CE6
:10C86000002B03D04946404610F0B8FEAD4B743E55
:10C87000E95CAD4BF2B2E81807F078FC9823E65873
:10C88000AA4930000EF022FAFA21804689003000D1
:10C890000EF01CFA3C210EF019FA0491FA21300036
:10C8A00089000EF013FA08000A210EF00FFA434631
:10C8B000964E0390002B01D000F020FC0122049939
:10C8C0003000FCF773FE0023994A9A4909937B6074
:10C8D000BB608A5C002A00D032E3974B0A00CB5C35
:10C8E000002B01D000F094FC944BCB5C002B01D0CA
:10C8F00001F0F1F8924BD35C002B01D000F02EFF39
:10C900000023002199468F4BEB5C002B00D087E27F
:10C91000099B9846CB1A0493C84501D100F0BFFE8D
:10C920001DF050FE4B464246991A0EF0F7F9434669
:10C930005B5C99464346002B03D04046049910F0B7
:10C940004DFE4A46774B3C32E95C774BD2B2E81851
:10C9500007F00CFC039B002B00D04BE29823E1581E
:10C9600004339C46A022A44463469446A4446246F1
:10C970000493DB68039107930592634501D101F0AD
:10C98000EAF818000123A046A94606961C001600E6
:10C990000D0005E0013414F05FF8864200D16BE130
:10C9A00003699D42F6DA049B4D469B68A146069EAC
:10C9B00044469846002B01D101F00AF94346A446AB
:10C9C000A8460399554604E02C009868002806D034
:10C9D00003001A699142F7DB0024D868F6E7211EAC
:10C9E00045466446984600D052E1039B93421BDDC6
:10C9F000059B434508D042460399126901239142A1
:10CA000000DB0023DBB29B46142010F0DFFD9823EF
:10CA1000E358010003614246059B584614F050F864
:10CA2000049A5369013353614B46052B00DDD8E06E
:10CA30004A463C4B6B3AE95C3B4BD2B2E81807F0F4
:10CA400095FB414B0A21EB5898469823E0580EF08D
:10CA50003DF983B29A4643461B68514640469B685F
:10CA600098478146052873DC431E00D294E3DFB269
:10CA70002C4B603FE95C2C4BFAB2E81807F076FBD0
:10CA8000314B324AE8580368DB68934200D1BFE576
:10CA900051469847BCE51DF095FD05210EF016F9AD
:10CAA000002900D08FE67C239A46A24452461833D0
:10CAB000E250039B9B46FFF7F5FB1DF083FD03212E
:10CAC0000EF004F9002900D08DE67C239A46A2449A
:10CAD00052461833E250FFF7E5FB1DF073FD0321CA
:10CAE0000EF0F4F8002902D194234246E250236963
:10CAF00076E61DF067FD05210EF0E8F8002902D169
:10CB000094234246E25023699B4658E6089700204A
:10CB100038790000397900003A7900003B7900004B
:10CB20003C790000A87800009078000060EA0000DE
:10CB3000E8780000781E0020E9780000EA7800001C
:10CB4000EB780000EC780000708100007183001029
:10CB50000023DC4A09937B60BB60AA5C002A01D0F9
:10CB600000F02DFCD84BEB5C002B01D000F00AFE4E
:10CB7000D64BEB5C002B01D001F04FF9D44BEB5CB2
:10CB8000002B01D000F060FF002300219B46D14B19
:10CB9000EB5C002B01D000F04CFC099FCB1B9846AE
:10CBA0005F4501D100F076FF1DF00CFD5B46D91BFF
:10CBB0000EF0B4F87B5C9B46002F03D04146380052
:10CBC00010F00CFD5A46C44B653AE95CC34BD2B237
:10CBD000E81807F0CBFA002249463000FCF7E6FCE3
:10CBE0004EE70023BE4A09937B60BB60AA5C002A23
:10CBF00000D08FE3BB4BEB5C002B01D000F027FE95
:10CC0000B94BEB5C002B01D001F0F3F8B74BEB5CB8
:10CC1000002B01D000F083FF002300219A46B44B83
:10CC2000EB5C002B00D0ADE3099B9846CB1A9B46EA
:10CC3000D04501D100F0F1FE1DF0C4FC5346424640
:10CC4000991A0EF06BF843465B5C9A464346002BFC
:10CC500003D05946404610F0C1FC52469E4B6F3AF5
:10CC6000E95C9E4BD2B2E81807F080FA00224946F0
:10CC70003000FCF79BFCE4E6049B4D469B68A14614
:10CC8000069E44469846002B00D097E6059B9846A2
:10CC9000079B984500D1ABE6404613F0F5FE0269CC
:10CCA000A3E609AF934B0996483D7E60BE60EB5CFE
:10CCB000002B01D000F0C2FC8F4BEB5C002B01D0AD
:10CCC00000F037FE8D4BEB5C002B01D001F055F8E6
:10CCD0008B4BEB5C002B01D000F090FF0021002675
:10CCE000884BEB5C002B01D000F093FC099FCB1B21
:10CCF0009846B74200D1BBE21DF064FCF11B0EF078
:10CD00000DF87E5C002F03D04146380010F066FC21
:10CD10005B3EFBE409AF7C4B0996483D7E60BE60FC
:10CD2000EB5C002B01D000F0FBFB784BEB5C002BA5
:10CD300001D000F0EEFD764BEB5C002B01D001F052
:10CD40000AF8744BEB5C002B01D000F07BFF002154
:10CD50000026714BEB5C002B00D0CDE3099FCB1B71
:10CD60009846B74200D183E21DF02CFCF11B0DF078
:10CD7000D5FF7E5C002F03D04146380010F02EFC1A
:10CD8000793EC3E409AF654B0996483D7E60BE60BD
:10CD9000EB5C002B00D07FE3614BEB5C002B01D000
:10CDA00000F096FD5F4BEB5C002B01D001F010F81A
:10CDB0005D4BEB5C002B01D000F032FF0021002620
:10CDC0005A4BEB5C002B01D000F00FFC099FCB1BF2
:10CDD0009846B74200D14BE21DF0F4FBF11B0DF079
:10CDE0009DFF7E5C002F03D04146380010F0F6FB1B
:10CDF0007E3E8BE4384B1E22E95C9846374B9946C1
:10CE0000A944484607F0B2F9484603990022FCF7C6
:10CE1000CDFB434621224846E95C07F0A7F99DE592
:10CE200006AB9C460B22042362441370894501D152
:10CE300000F048FE4A461370033B9C46E1444B46D3
:10CE40007B60099B9846CB1A0493C84500D067E5E0
:10CE50004846049910F0C2FB7CE506AA94460B23D1
:10CE600063441E701A00002138009846FCF732FB1C
:10CE70002F4B7E68EB5CB968002B01D000F0F8FC0A
:10CE80002C4D2D4BEB5C002B09D002234246137036
:10CE90008E4201D100F0CFFD337001367E60274B0A
:10CEA000EB5C002B01D1FFF792FB0323424613708A
:10CEB0008E4201D100F049FC337001367E60FFF7ED
:10CEC00086FBC04647790000487900004979000098
:10CED0004A7900004B790000A878000090780000A3
:10CEE0003D7900003E7900003F7900004079000064
:10CEF0004179000051790000527900005379000017
:10CF0000547900005579000033790000347900002D
:10CF10003579000036790000377900002E7900005D
:10CF20002F7900003079000031790000327900005B
:10CF30002A790000781E00202B7900002C7900004F
:10CF400006A98C460B2262441370002138009046DB
:10CF5000FCF7C0FA7B68D84A9946D84BB968D35CCD
:10CF6000002B01D000F08FFCD54BEB5C002B0DD0DB
:10CF7000022342461370894501D100F0B6FD4A46AE
:10CF8000137001239C46E1444B467B60CD4BEB5C28
:10CF9000002B00D1B7E4032342461370894500D12A
:10CFA000E6E34A46137001239C46E1444B467B600E
:10CFB000A9E406AB9C460B220423624413708E4204
:10CFC00001D100F0C0FD337001367E60099FCB1B9C
:10CFD0009846BE4201D0FFF706FB3000414610F0F4
:10CFE000FDFAB94EFFF714FB06AA94460B236344DF
:10CFF0001E701A00002138009846FCF76BFAB34BFC
:10D000007E68EB5CB968002B01D000F04BFCAA4DA8
:10D01000AF4BEB5C002B09D00223424613708E42CB
:10D0200001D100F046FD337001367E60A94BEB5C08
:10D03000002B01D1FFF7FEFB0323424613708E4203
:10D0400000D13BE3337001367E60FFF7F3FB06ABA4
:10D050009C460B220423624413708E4201D100F0DF
:10D060004EFD337001367E60099FCB1B9846BE4251
:10D0700001D0FFF73DFAB0E706AB9C460B22042334
:10D08000624413708E4201D100F041FD33700136CD
:10D090007E60FFF7D5FB06AA94460B2363441E70FF
:10D0A0001A00002138009846FCF714FA8A4B7E6873
:10D0B000EB5CB968002B01D000F0FFFB7E4D874B85
:10D0C000EB5C002B09D00223424613708E4201D143
:10D0D00000F0D7FC337001367E60814BEB5C002B97
:10D0E00001D1FFF7F9F90323424613708E4200D1B4
:10D0F0001BE3337001367E60FFF7EEF901224146F3
:10D100003000FCF753FA0023764A6B4909937B60A1
:10D11000BB608A5C002A00D062E3734B0A00CB5CE0
:10D12000002B01D000F068FC704BCB5C002B01D0D1
:10D1300000F0C5FE6E4BD35C002B01D000F0D1FD9A
:10D140000023002199466B4BEB5C002B00D02AE3B7
:10D15000099B9846CB1A0593C84501D100F0B1FD53
:10D160001DF030FA4B464246991A0DF0D7FD434662
:10D170005B5C99464346002B03D04046059910F06E
:10D180002DFA4A465C4B3732E95C5C4BD2B2E81868
:10D1900006F0ECFFFFF792FB0023594A09937B60EE
:10D1A000BB60AA5C002A00D0D2E3564BEB5C002B9C
:10D1B00001D000F0DEFC544BEB5C002B01D000F002
:10D1C0009AFE0022514B0021EB5C9146002B01D0CE
:10D1D00000F09BFD4E4BEB5C002B00D0EEE3099B77
:10D1E0009846CB1A9B46C84501D100F0A0FD1DF022
:10D1F000E9F94B464246991A0DF090FD43465F5CB3
:10D20000002B00D134E45946404610F0E7F92FE4F2
:10D2100006AA94460B236344984601234246002104
:10D22000137042463800FCF755F97B68B968994697
:10D230009AE606AA94460B234A4663449846002180
:10D240001A7042463800FCF745F97E68B96835E740
:10D2500006AA94460B2363449846012342460021C4
:10D26000137042463800FCF735F97E68B96807E666
:10D27000002E01D1FFF751FA4146300010F0AEF90F
:10D28000FFF74BFA06AA94460B2363449846012302
:10D2900042460021137042463800FCF71BF97E68B5
:10D2A000B968B4E6002E01D1FFF7E8FA19003000A2
:10D2B00010F094F9FFF7E2FA781E0020E9780000F8
:10D2C000EA780000EB780000089700203979000028
:10D2D0003A7900003B7900002579000026790000AA
:10D2E00027790000E3780000E4780000E57800008A
:10D2F000E6780000E7780000A87800009078000049
:10D300004C7900004D7900004E7900004F79000003
:10D310005079000006A98C460B226244002113704C
:10D3200038009046FCF7D6F87B68B9689A46E84B17
:10D33000EB5C002B01D000F02DFCE64BEB5C002BEE
:10D340000DD00223424613708A4501D100F05BFDE7
:10D350005246137001239C46E24453467B60DE4BE9
:10D36000EB5C002B00D15AE40323424613708A453C
:10D3700000D1DEE35246137001239C46E24453463B
:10D380007B604CE406AB9C460B2204236244137082
:10D390008A4501D100F06CFD52461370033B9C4658
:10D3A000E24453467B60099B9846CB1A9B46D04586
:10D3B00000D041E45946504610F010F956E406A951
:10D3C0008C460B2262440021137038009046FCF713
:10D3D00081F87B68B9689B46C04BEB5C002B01D0A1
:10D3E00000F042FCBE4BEB5C002B0DD0022342460A
:10D3F00013708B4501D100F01AFD5A4613700123BA
:10D400009C46E3445B467B60B64BEB5C002B01D152
:10D41000FFF7BDFB0323424613708B4500D11DE38C
:10D420005A46137001239C46E3445B467B60FFF73A
:10D43000AEFB06AB9C460B220423624413708B4563
:10D4400001D100F005FD5A461370033B9C46E344AE
:10D450005B467B60099FCB1B9846BB4501D0FFF71D
:10D46000A3FB4146584610F0B9F8FFF7B4FB06ABF2
:10D470009C460B22042362441370B14201D100F098
:10D4800000FD337001367E60099FCB1B9846BE427B
:10D4900001D0FFF72EF9EFE606AA94460B2363446A
:10D4A0001E701A00002138009846FCF713F88E4BC6
:10D4B0007E68EB5CB968002B00D0E4E38B4D8C4BAD
:10D4C000EB5C002B09D0022342461370B14201D11C
:10D4D00000F086FC337001367E60864BEB5C002BDF
:10D4E00000D16DE40323424613708E4200D1A0E3C5
:10D4F000337001367E6063E406AB9C460B22042346
:10D5000062441370B14201D100F0ABFC33700136BC
:10D510007E60099FCB1B9846BE4200D024E4ABE658
:10D5200006AA94460B2363441E701A00002138009B
:10D530009846FBF7CFFF704B7E68EB5CB968002B19
:10D5400000D0B4E3694D6D4BEB5C002B09D0022396
:10D5500042461370B14201D100F006FC337001362F
:10D560007E60674BEB5C002B01D1FFF7F2FB0323DE
:10D5700042461370B14200D16DE3337001367E60D4
:10D58000FFF7E7FB06AA94460B234A4663441A704A
:10D5900000211A0038009846FBF79CFF594B7E6823
:10D5A000EB5CB968002B00D077E3504D564BEB5C39
:10D5B000002B09D0022342461370B14201D100F082
:10D5C000FEFB337001367E60504BEB5C002B01D1CB
:10D5D000FFF782F8032342461370B14200D104E3FF
:10D5E000337001367E60FFF777F806AB9C460B225E
:10D5F0000423624413708E4200D1CFE333700136AE
:10D600007E60099FCB1B9846BE4201D0FFF7E4FB2A
:10D6100032E606AB9C460B22042362441370B142EF
:10D6200001D100F00EFC337001367E60099FCB1BE8
:10D630009846BE4201D0FFF75FFB1DE606AA94465E
:10D640000B2363441E701A00002138009846FBF734
:10D6500041FF2F4B7E68EB5CB968002B00D036E3AE
:10D66000224D2C4BEB5C002B08D00223424613705A
:10D67000B14200D18AE3337001367E60264BEB5C09
:10D68000002B01D1FFF72CFB032342461370B1425C
:10D6900000D1BCE2337001367E60FFF721FB4B46C0
:10D6A000002B01D1FFF756F9FFF7D2FB06AA9446EB
:10D6B0000B234A466344984600261A7031004246BE
:10D6C0003800FBF707FF7E68B968FFF7B3F8C0467C
:10D6D0003E7900003F790000407900004879000061
:10D6E000497900004A7900002F790000781E002057
:10D6F000307900003179000034790000357900007C
:10D7000036790000577900005879000059790000F7
:10D7100052790000537900005479000006A90B23C8
:10D720008C466344984600261A7031004246380001
:10D73000FBF7D0FE7E68B968FEF7CEFE06A90B2384
:10D740008C466344984600261A70310042463800E1
:10D75000FBF7C0FE7E68B968FEF739FF06AA94465B
:10D760000B236344984603234246137000239946D3
:10D77000494642463800FBF7ADFE7B68B9689946DA
:10D78000FFF7C1F806AA94460B2363449846012389
:10D7900042460021137042463800FBF79BFE7B682F
:10D7A000B9689B461EE606AB9C460B2204236244E6
:10D7B0001370894500D179E34A461370033B9C46B8
:10D7C000E1444B467B60099B9846CB1A0593C845BC
:10D7D00000D0C5E4484605990FF000FFFFF76EF84A
:10D7E00006A98C460B226244137000213800904633
:10D7F000FBF770FE7B68EF4A9946EF4BB968D35C44
:10D80000002B00D099E2ED4BEB5C002B0CD00223F7
:10D8100042461370894500D15BE34A4613700123E9
:10D820009C46E1444B467B60E54BEB5C002B00D112
:10D8300089E4032342461370894500D15BE24A46DE
:10D84000137001239C46E1444B467B607BE406AAAF
:10D8500094460B23634498460123424600211370EB
:10D8600042463800FBF736FE7B68B9689A4664E5A5
:10D870000123424613708E4200D1F2E43370013628
:10D880007E60FFF7FDFA012342461370894500D1FF
:10D89000C7E44A46137001239C46E1444B467B6033
:10D8A000FFF762FB0123424613708E4200D1F2E47F
:10D8B000337001367E60FFF7AAFB43464A461A7072
:10D8C0008E4200D1BDE4327001367E60FFF7F6FB78
:10D8D00006AA94460B23634498460123424600213E
:10D8E000137042463800FBF7F5FD7E68B968E5E540
:10D8F00006AA94460B236344984601234246002619
:10D900001370310042463800FBF7E4FD7E68B968C9
:10D910004BE606AA94460B234A46634498460026E3
:10D920001A70310042463800FBF7D4FD7E68B968B2
:10D9300008E606AA94460B234A46634498461A70A2
:10D94000310042463800FBF7C5FD7E68B96887E6BE
:10D9500006A98C460B2262440021137038009046C1
:10D96000FBF7B8FD7B68B9689946964BEB5C002BDA
:10D9700000D08DE2944BEB5C002B0CD0022342468E
:10D980001370894500D1C0E24A46137001239C46BA
:10D99000E1444B467B608D4BEB5C002B00D119E4DE
:10D9A000032342461370894500D1B6E14A461370FD
:10D9B00001239C46E1444B467B600BE406AB9C464E
:10D9C0000B22042362441370894500D18AE24A463F
:10D9D0001370033B9C46E1444B467B60099B984691
:10D9E000CB1A9B46C84501D0FFF701FC5946484673
:10D9F0000FF0F4FDFFF744F806AA94460B236344A6
:10DA00009846012342460021137042463800FBF736
:10DA100061FD7B68B9689946F5E65346002B01D154
:10DA2000FFF724F9C6E406AA94460B234A4663444A
:10DA3000984600261A70310042463800FBF74AFD2E
:10DA40007E68B968FFF72BFA06AA94460B23634455
:10DA5000984603234246137000239B46594642468C
:10DA60003800FBF737FD7B68B9689B46FFF78FF8F6
:10DA700006AA94460B236344984602234246002696
:10DA80001370310042463800FBF724FD7E68B96808
:10DA9000FFF723FB5B46002B01D1FFF79CF8E0E486
:10DAA00006AA94460B236344984602234246002666
:10DAB0001370310042463800FBF70CFD7E68B968F0
:10DAC000FFF7B4FA49463800FBF704FD7B68B968F4
:10DAD0009946FEF71DFF06AA94460B236344984619
