:020000041000EA
:1080000000200420F7800010C3800010C5800010FD
:10801000C1800010C1800010C1800010C18000101C
:10802000C1800010C1800010C1800010C780001006
:10803000C1800010C1800010C9800010CB800010EA
:10804000CD800010CD800010CD800010CD800010BC
:10805000CD800010CD800010CD800010CD800010AC
:10806000CD800010CD800010CD800010CD8000109C
:10807000CD800010CD800010CD800010CD8000108C
:10808000CD800010CD800010CD800010CD8000107C
:10809000CD800010CD800010CD800010CD8000106C
:1080A000CD800010CD800010CD800010CD8000105C
:1080B000CD800010CD800010CD800010CD8000104C
:1080C00000BE00BE00BE00BE00BE00BEEFF30580D5
:1080D000103800BEF2EB88715CEE011078EE0110F2
:1080E0003481001090A31AE700201F49086006C8D9
:1080F00081F3088810471D48006800282FD10DA47F
:108100000ECC002902D000F012F8F9E71849194AFC
:10811000002000E001C19142FCD11749884717496E
:1081200088471749884700BEFDE701C901C29A4246
:10813000FBD3704778EE0110C0000020501B0020D8
:1081400008090210000004200000042008090210A1
:1081500000100420001004200000000070470948AF
:1081600005F08AFF0047000008ED00E0000000D0A5
:10817000501B0020AC51002069C700109907011066
:108180009DC800105756000006005250ABB3605314
:1081900018C7011006005250861C030228C70110A0
:1081A000060052505422A29D2CC7011005005250C7
:1081B000DE65F46808090210F8B5C04606480749AC
:1081C000091A8B10C90FC91810B5491003D0044BF8
:1081D000002B00D0984710BD501B0020501B0020E2
:1081E00000000000054B10B5002B03D004490548E2
:1081F00000E000BFFFF7E2FF10BDC0460000000036
:10820000304C0020F0C4011010B50E2108F08CFE97
:1082100010BDC04670B586B0040007F03DFA0728CF
:1082200007D800282BD007285ED8354A800013587D
:108230009F46642844D0652821D107F085FAC820DC
:1082400007F08AFA0023E05E07F092FA0223E05E6C
:1082500007F08EFA0423E05E07F08AFA0623E05E58
:1082600007F086FA0823E05E07F082FA0A23E05E50
:1082700007F07EFAA08907F08BFA07F099FA06B0AA
:1082800070BD07F02DFAA081F9E707F013FA00237B
:1082900005A960800A2201200B8001F0B1F9EEE708
:1082A00007F008FAA080EAE707F004FAE080E6E7C2
:1082B00007F000FA2081E2E707F0FCF96081DEE7D1
:1082C000A5890422A35E0221625E218803950A2605
:1082D000A55F0C4802950826A55F01950625645FF9
:1082E000009408F0EDF9CAE707F0FAF9B423B422D4
:1082F00005A920800B800120520001F081F9BEE722
:10830000C4D20110F0C40110F0B55746DE4646460F
:108310008023C0B55B049A463C4B0E000500170055
:1083200000249B46017E82B018E0002938D06B699A
:10833000AA689B1853453EDA01216B619B133A5999
:108340005A43D3179B059B0D9B1832599B12D31888
:108350003351802304345B009C4250D002290AD060
:10836000E3D96B69032904D12A699B1A002B1EDD0E
:108370006B619B13E3E753466B612B6A6A6A98460D
:108380005B465B6A9A420FD85846806A404501D2E4
:108390009A4209D003232B7680230321DB00CEE70A
:1083A000696100210023CAE78023DB00C7E70023BF
:1083B0006B612B76F5E753466B616B68984603F06B
:1083C00091FBFA2200230090019192004046002187
:1083D00006F0FEFC009A019B801859410B00802199
:1083E000020009068B4202D30122094B52426B6202
:1083F00002232B766B6902212A629B139FE702B04E
:10840000E0BCBB46B246A846F0BDC04600400540B1
:10841000FFFFFF7F70B504000B4B0D005A6A616CC3
:10842000006C914205D89B6A834200D370BD914293
:10843000FCD12900201D01F0A5FD200029002030DD
:1084400001F0A0FDF2E7C04600400540F0B5DE4671
:10845000574645464E468022E0B50700C3B052005D
:108460000C0002A8002106F03FFF381D02A901F010
:1084700061FD20239846B84443461A7E80235B045E
:108480009A46424B02AD9B4642AE15E0002A36D0DA
:108490007B6BBA6A9B1853453DDA01227B639B13C1
:1084A00002CD5943CB179B059B0D5B1821689B128E
:1084B000CB1808C4AE4253D0022A0AD0E6D97B6B4F
:1084C000032A04D1396B5B1A002B1FDD7B639B13DE
:1084D000E6E753467B633B6C796C99465B465B6A87
:1084E000994210D85846806A484501D299420AD02C
:1084F00003234246137680230322DB00D0E77A630E
:1085000000220023CCE78023DB00C9E7002342469A
:108510007B631376F4E753467B637B6A994603F0EB
:10852000E1FAFA22002300900191920048460021CE
:1085300006F04EFC009A019B801859410B008021E7
:10854000020009068B4202D30122114B52423A64C7
:108550007B644246022313767B6B02229B139FE7C8
:10856000B86CFB6C0B4AC018C117430BC904B86444
:108570001943C004002305F0FFFD786043B0F0BC50
:10858000BB46B246A946A046F0BDC04600400540E5
:10859000FFFFFF7FC05D0000F0B55746DE464E4648
:1085A0004546E0B507005D4B0C005A6AF96C806CDB
:1085B000C5B0914200D9A6E09B6A834200D29FE0F9
:1085C00080220021520004A806F08EFE380004A983
:1085D000543001F0AFFC70239946B9444B461A7EE3
:1085E00044AB9A4680235B0484269846CB4604AD70
:1085F00015E0002A38D0BB59BA6F9B1843453FDAC3
:108600000122BB519B1302CD5943CB179B059B0DF8
:108610005B1821689B12CB1808C4AA4559D0022ABE
:108620000BD0E6D9BB59032A05D1802179585B1AB2
:10863000002B20DDBB519B13E5E74346BB513B00BC
:10864000903319685868354B8C46596A88420FD860
:108650009B6A634501D288420AD003235A461376A7
:1086600080230322DB00CEE7BA5100220023CAE7B1
:108670008023DB00C7E700235A46BB511376F4E79B
:108680004346BB517B6F039303F02CFA9022914633
:10869000FA2200230090019192000021039806F035
:1086A00097FB009A019B801859410B008021020022
:1086B000B94409068B4202D30122194B5242494662
:1086C0000A604B605A4602231376BB5902229B1361
:1086D00099E798239C22F858BA588018C117F85087
:1086E000C904430B0F4A1943C004002305F044FD9D
:1086F000786545B0F0BCBB46B246A946A046F0BD81
:10870000914200D05CE7380021000C3001F03AFCC7
:1087100038002100283001F035FC51E700400540C9
:10872000FFFFFF7FC05D000010B5303001F0B8FCE6
:1087300010BDC0460123D0B503700023C36143625E
:10874000134B04000A20185E05F0C4FF02000B0062
:1087500005F030FF060020690F0005F0BBFF0200A6
:108760000B003000390005F04CFF060060690F0077
:1087700005F0B0FF02000B003000390005F023FFC8
:1087800005F0F0FFA062802001F03AF8D0BDC046AD
:1087900044140020002310B50370002001F030F8CD
:1087A00010BDC046F0B5D6464F4646460400C0B59B
:1087B000303082B001F094FEBE4BE1685A6AA06886
:1087C000914256D89B6A834259D3256903F08AF9AE
:1087D000FA2206000F00002392002800002106F074
:1087E000F7FA801979410B008021020009068B42BB
:1087F00002D30122B04B5242E3602378A260002BE7
:1088000037D0616AA06906F003FBA66AE169A0613E
:10881000071C301C06F0FCFAA84DE0610A22AB5E92
:1088200080460021301C9A4606F04EFB002829D0D5
:10883000504606F053FB061C011C404606F03CFB6C
:10884000002832D15346584206F048FB8146414643
:10885000301C06F039FB002800D046464946301C43
:1088600006F032FB002800D14E46311C381C00F0C7
:1088700037FF02B0E0BCBA46B146A846F0BD91420F
:10888000A3D1F6E75346584206F028FB0021814663
:10889000301C06F003FB002800D1CAE049464046E0
:1088A00006F002FB002800D1C3E0381C06F038FBBC
:1088B00000210700404606F0F1FA002806D03800F3
:1088C000B421B430490005F009FC0F007C4B1B6853
:1088D000002B00DCD6E05B0098467A4A7A4E11689D
:1088E000B044CA0F52185210914603E00236464572
:1088F00000D1C7E0B42130884900C01BB43005F076
:10890000EDFBB439CB17C91859404945EEDC0121BC
:108910006E4807F0D5FE0021E06906F0D5FA002880
:1089200000D08BE023006A4AC0339A6078225A60F4
:10893000220000216748D03210605160FA200122E5
:10894000654980021A769862D962A423634AE2508C
:108950000A23E85E05F0BEFE02000B0005F02AFEC9
:10896000060020690F0005F0B5FE02000B00300084
:10897000390005F046FE060060690F0005F0AAFE0A
:10898000009001910021A06A06F09EFA002870D0A4
:1089900080231B06F9183000009A019B05F013FE96
:1089A00005F0E0FEA062A66912F0A0FD4C4BC217D4
:1089B0009C46520D80184005400D801A604406F018
:1089C0008DFAEA2180468905206A06F038FA011CF2
:1089D000404606F034FA311C06F01AFA06F0A0FA06
:1089E000B423A7695B0098423FDD180006F076FAD1
:1089F000391C06F00AFA061C206906F06FFA011C01
:108A0000301C06F01CFA061C606906F067FA011CAF
:108A1000301C06F000FA60620A23ED5E280006F0C2
:108A20005DFAE369061C6842984606F057FA8146EB
:108A30000DE7504606F052FA061C08E72300244AC8
:108A4000C0339A6078225A60220000212148D03237
:108A500010605160C8200122224900021A769862F3
:108A6000D962A423204AE25072E7C343DB171840BF
:108A7000BCE7009A019B3000390005F0A4FD05F029
:108A800071FE8FE70021114807F01AFE03F02AF863
:108A90000023164A2600801859410B00802102004D
:108AA000983609068B4202D30122034B52420CC670
:108AB0004EE7C04600400540FFFFFF7F4414002002
:108AC000784C0020741400207C4C00200CC5011050
:108AD00022220200822D0000ABF2FFFF555500005C
:108AE00000FCFFFF550D000011110000801A060068
:108AF00070B505000E00140006F0CEFD012800D070
:108B000070BD2800013CE2B2711C303001F0E2FA85
:108B1000F6E7C04628211E4B10B51961FA2109015C
:108B200059611C4900221962002159629962190099
:108B30003031596319631849184C19651849194897
:108B400099656C215A5218491A70D96580215C5078
:108B5000A02404315A5004315A5214499A63996737
:108B600013491A661951A8215A500431585004313A
:108B70005A5004315A520F499A66DA67A432995012
:108B8000C02158660C4A5A500021D822995410BD71
:108B9000602100200000344210D30110E0B1FFFF3B
:108BA000ECD20110204E00008888080011CA08008D
:108BB00004D30110AAAA2A00F8D2011030B50B7C08
:108BC0000C0085B0012B0DD001238A68A0219340B1
:108BD0008622C905D2008B50032323740020002174
:108BE00005B030BD0868002103F068FB0223237440
:108BF00002F060FC050002F075FF0C220023121841
:108C00004B41802109068B4202D30122054B52427F
:108C100001210291044928000194009102F04EFCC8
:108C2000DCE7C046FFFFFF7FBD8B001070B504007E
:108C3000100062602160022101F02AFE13492068C1
:108C400003F038FA002302220821206803F0F8FA22
:108C5000A368013300D070BD012008F015FA216827
:108C60000B4B0C4DCB185A425341C2020A332A40D7
:108C70001B04134311221343A022D2059446A06083
:108C800080016044E36003614160E4E790D0030049
:108C90000080FCBFFD7F00FF30B583680400A0208A
:108CA000C00584469B01634419609A600123012139
:108CB000237485B0206803F001FB02F0FBFB050084
:108CC00002F010FF6422002312184B418021090694
:108CD0008B4202D30122064B5242012102910549E7
:108CE00028000194009102F0E9FB012005B030BD9D
:108CF000FFFFFF7FBD8B0010037C0200032B03D01E
:108D00005A425341D8B27047A021C9058C468368A6
:108D100000209B0163441B69DB01F4D413689B6949
:108D20001B07F0D410740130EDE7C0460023037434
:108D30007047C04610B58168027C024807F0C0FC4D
:108D400010BDC04618C50110F8B5DE4657464E4660
:108D50004546334BE0B51C68A369DB0620D4314B94
:108D600010259A461978002399462F4B2F4F984685
:108D70003A782F4EA3691D42FCD12068092A0CD8ED
:108D8000531CDBB2B0543B701A0000290ED1072BE4
:108D900003D1336843452CD00722A3691D42E9D093
:108DA000F0BCBB46B246A946A046F8BD052BF4D19F
:108DB0003379F2781B029B189B109B4614D0B42188
:108DC000B0787378C001C0188011490005F086F9A9
:108DD000184B1B78002B19D15B4617489BB24A00F1
:108DE00083520122154B5A544B463B7001210022FD
:108DF000D3E78023B288DB019A42CDD1B379812BAE
:108E0000CAD15246803B13703970EFE70A484A00D6
:108E1000835A5B4501DC9BB2E2E75B469BB2DFE72E
:108E2000304A00209B510020A55A05009A5100208D
:108E3000844400209C51002090440020344A0020AB
:108E40002021074B1B689A691142FCD1A5222021E1
:108E50001A609A691142FCD140221A607047C046DC
:108E6000304A00202021094B1A6893691942FCD12D
:108E7000A523202113600800936918401942FAD1F4
:108E8000034B11601870034B18707047304A002074
:108E90009B5100209A5100202021074B1B689A69A2
:108EA0001142FCD1A52220211A609A691142FCD1FD
:108EB00025221A607047C046304A0020F0B5574658
:108EC0004E46DE464546264BE0B51B6885B09A46C1
:108ED0005B429B46234B52461B6856469946224BA3
:108EE0006A361B68214F0393214BFF369846214B6E
:108EF000534401935B469B1A013B0293DA452DDBF9
:108F0000029B1D4D9C19B4212000490005F0E6F894
:108F100049007B5A9D4200DD1D000134A642F2D17A
:108F2000A94518DA4B46E81A05F0D8FF039905F071
:108F300086FF05F0F5FF4346188002239C46019BFF
:108F40000136E044B342D9D105B0F0BCBB46B246CD
:108F5000A946A046F0BD43461D80EEE7064DDFE77B
:108F600054140020601400205C1400209044002061
:108F7000B4410020D1020000E02E000070B50C00CA
:108F8000E1210600164D1000C9022A6003F092F894
:108F90003000022101F07CFC2000022101F078FC6D
:108FA000104B2C689C466444631E9C411434200082
:108FB0000D4901F0CDFD0121200001F0A3FD50225B
:108FC00038212B689A635A6B343311408022520146
:108FD000134300221960054B1A70054B1A7070BDBF
:108FE000304A002000C0FCBF498D00109C51002079
:108FF0009D510020F0B5DE4657464E464546E0B549
:10900000AA4CAB4B61685A6A206885B0914207D977
:10901000002005B0F0BCBB46B246A946A046F0BD54
:109020009B6A834219D302F05DFD0023A14A801898
:1090300059410B008021020009068B4202D3012214
:109040009D4B524263609D4B226003931B78052B1E
:10905000DED89B4A9B00D3589F469142E3D1D7E785
:10906000984B994F1B689A465B429B46974B5246DA
:109070001B6856469946964B6A361B68FF36029324
:10908000944B9846944B534400935B469B1A013B88
:109090000193DA4500DA04E1019B904D9C19B4215B
:1090A0002000490005F01AF849007B5A9D4200DD76
:1090B0001D000134A642F2D1A94500DBEEE04B468B
:1090C000E81A05F00BFF029905F0B9FE05F028FF3C
:1090D0004346188002239C46009B0136E0449E4292
:1090E000D7D1002220217E4B7E4C1A7023689A69CA
:1090F0001142FCD1A52220211A609A691142FCD1AB
:109100002522FA201A60400002F000FC202122688B
:1091100093691942FCD1A5232021136008009369AB
:1091200018401942FAD1704B116018706F4B039AB6
:10913000187002236E48137007F0C2FA68E76D4892
:1091400007F0BEFA02F0CEFC00236B4A80185941AA
:109150000B008021020009068B4202D30122564BEC
:1091600052420CC401225E4B1A700523039A1370FD
:109170004EE7624807F0A4FA02F0B4FC0023604A0C
:10918000801859410B008021020009068B4202D34E
:109190000122494B52420CC40423039A137037E74F
:1091A000584F4C48B4243900BC4600230700564EA3
:1091B000454DA4000A78002A42D0EA5A002A3FD03E
:1091C000F85A90423CD9F25202330131A342F1D114
:1091D0006746B42238000021520006F085F84B4B58
:1091E000B1460427DF5F4A4B1B689B461D000023E6
:1091F00098466933FF3346469A46C84606E002233E
:109200009C460136E144013556454CD04B461B88FF
:10921000BB42F4DA5B46002BF1DD340002E001349E
:10922000AC42ECD0B4212000490004F057FF434683
:1092300049005B5A9F42F2DA4B46284A1A80DEE721
:10924000264A0131F2520233A342B3D1C0E72021B2
:10925000244B1A6893691942FCD1A523202113607D
:109260000800936918401942FAD11F4B1160187019
:109270001E4B187002F036FC00231F4A801859411B
:109280000B008021020009068B4202D301220A4B07
:1092900052420CC40223039A1370B9E643461D8060
:1092A00018E70E4D08E70120B3E6C046781B002002
:1092B00000400540A0860100FFFFFF7F9D51002078
:1092C00014D3011054140020904400206014002096
:1092D0005C140020B4410020D1020000E02E000008
:1092E0009C510020304A00209B5100209A510020C0
:1092F00054C5011044C5011040420F0034C501108F
:1093000000093D00344A002060470020441400203A
:10931000581400207047C046F0B5CE4647460400BA
:1093200003000D00002180B587B016000091021DDA
:1093300021003848083306F045FA002804D107B068
:10934000C0BCB946B046F0BD636827689846A368BC
:109350000124AC409946220023004146380006F023
:10936000CFFB220023004146380006F01DFC2A4BAB
:109370002800F9184B1E9941063101F089FA802323
:109380005B0202934B464A460333D2011B0313434D
:10939000224A052013408022D2051343204A03931A
:1093A000204B2A401343AD022B4305931E4B0493DD
:1093B00003F018F905F08DFD041CF00005F089FD9F
:1093C000011C201C05F027FD051C05F0DBFD84B207
:1093D0000023002C0ED0200005F07BFD011C281C72
:1093E00005F013FD8721C90505F029FD05F0CAFD2B
:1093F000C3B21B0224044A4641461C43380002AB58
:10940000029406F079FC012341468B403A681343ED
:109410003B6094E72CD301100000E0AFFFFFFF9FFB
:10942000FF83FFFF0000104000000C4010B50468EF
:1094300040680122030010339A4063681A42FCD14D
:1094400004308000015110BD0EC8064810B5844696
:10945000042482B061440448090D009407F030F9F7
:1094600002B010BD0000E0AF64C50110F0B5C64603
:10947000184A194B14681B6800B5E418174B9C4236
:109480001FDA96235B049C466444154B154F98469F
:109490001D00154E146047442414962120004900F5
:1094A00004F01CFE89007358013408C5AF42F4D1A2
:1094B00096214046490007F081FE012080BCB84655
:1094C000F0BD96235B049C42DFDB084B9C46644462
:1094D000DBE7C046842400208C2400200100D4FE59
:1094E000E03C0020AC040000B01C00200000D4FED2
:1094F00010B50378292B1CD8092B19D90A3BDBB2EC
:109500001F2B15D82A4A9B00D3589F464378002B1F
:109510004BD0284B1A68284995200B00C00008182A
:109520001A605A6008339842FAD19523DB00CA507A
:1095300010BD642BFCD107F081FEF9E783784278F7
:109540001B021343C27812041A4303791B06134308
:10955000184A1BBA1360EBE7837842781B02134367
:10956000C27812041A4303791B061343134A1BBA29
:109570001360DDE7837842781B021343C27812043C
:109580001A4303791B0613430D4A1BBA1360CFE736
:109590008378C1781B0609040B4301794278064C95
:1095A000090292000B431351C2E7044B1A68B2E759
:1095B0003CD3011064140020B01C00205836002059
:1095C0008C24002000B5002185B0022001F08AF92A
:1095D0000021022007F06AFD01F06CFF054B064AEE
:1095E000029300230193054B0093002302F024F81B
:1095F00005B000BD601B0020204E00006D940010DF
:10960000F0B557464E46DE464546304BE0B59C46E3
:109610001E88962304000F0083B05B009E4200DD8D
:109620001E002B4B2B4D952019682B00C0002818CD
:109630001960596008339842FAD19523DB00E9504C
:10964000002C3BDDD30F9B185B105B4200936346FD
:10965000100002229B5E70439B461F4B1B6899467D
:109660001E4B98422ADBB421490004F037FD640008
:10967000BA46230080465344019353461888009B02
:10968000B4219C46604458444900704304F026FDD0
:109690003100801904F022FD00240F00E019310090
:1096A00004F01CFD4B46890001346B50A045F5DAEF
:1096B00002239C46019BE2445345DED103B0F0BC3B
:1096C000BB46B246A946A046F0BDC04644140020A1
:1096D00058360020B01C00206414002099FEFFFFC3
:1096E000F8B5CE464746884680B53C49814605F0E8
:1096F000D5FB002847D00021484605F0E5FB0028AF
:1097000067D0484605F04AFC04000D004046344945
:1097100005F0C4FB002840D1314BC226EA27984609
:10972000304B988904F0D6FF00222F4B04F04BFFFA
:109730002B00220004F065FF05F008F82B4B020A0D
:109740009870DF701E715A7005F0FEFF652006F0FC
:1097500003F884214846C90505F071FB05F0E0FBDC
:1097600000B206F005F884214046C90505F067FB04
:1097700005F0D6FB00B205F0FBFF06F019F8C0BCFF
:10978000B946B046F8BD154B00249946164D4046E3
:10979000134905F083FB0028BED04046144905F06C
:1097A00093FB002810D0404605F0F8FB114A124BFD
:1097B00004F027FF0022114B04F0FCFE04F0C6FF6A
:1097C000070AFFB2C6B2ABE7094B3E2615279846FB
:1097D000A6E70023002400259946D8E70000B443FB
:1097E0000000B4424414002000807640D0370020AE
:1097F0000000B4C2ABAAAAAAAAFA72400000E040D4
:10980000014B18727047C046D0370020F8B50822C7
:109810000A212848FEF788FF0023274DA0262B8029
:10982000264B274C9C4676016544200005F056FBEC
:10983000244905F004FB05F0BBFB234905F0FFFAC2
:1098400005F06EFB2F1902343880B442EDD11F4B66
:109850001F4A0E201A600022D0249A6001F052F8AC
:1098600080232406DB01A362002201210E2001F0E7
:1098700027F80B2001F046F880231B016362A361E7
:10988000144B042219681448FFF7D0F9052001F0A1
:1098900039F820236362A361FFF794FE0F4B0D217B
:1098A0000C201A68FFF76AFB01220D4B1A7007F0B3
:1098B00099FBF8BD60210020AC24002000FCFFFFD4
:1098C00002040000DB0FC93A00FEFF46484C0020AE
:1098D000F28B250068140020BC3700206C14002097
:1098E0009D510020F8B54C4C4C4B61685A6A206879
:1098F000914226D89B6A83424FD30121484A13786C
:109900004B40137051D0D02380221B0692045A6121
:10991000444B1D6802F0E6F8FA2206000F0000230F
:1099200092002800002105F053FA801979410B00BC
:109930008021020009068B4202D301223A4B524297
:109940000CC4D0231B065A6838490B6852041BD537
:10995000002B35DD013B0B60354B1978354B1A7800
:109960008A4203D03448197006F0AAFEFFF742FB82
:10997000002831D13148FEF715FF314C2000FFF7A8
:10998000BBF9002821D1F8BDFA229200934212DAE5
:1099900001330B60264B1978E0E79142D1D00121C9
:1099A0001F4A13784B401370ADD1D02380221B0681
:1099B00092049A61ACE701221D4B01211A70CDE798
:1099C00000221B4B00211A70C8E7802220001D498D
:1099D0005200FFF761F9D6E71B4800F0F9F905F0EE
:1099E000B3FE642005F0B8FE184E194F33683D00F1
:1099F0000024002B07DD288805F0CAFE33680134F7
:109A00000235A342F7DC05F0D3FE124B39001A6889
:109A10003068FFF7F5FDADE7801B002000400540F2
:109A20008E51002070140020FFFFFF7F5C37002064
:109A3000925100209351002080C501106021002028
:109A4000BC370020D037002060470020784C002031
:109A50007C4C002074140020F8B504000D0005F0C3
:109A60001BFE682807D800280DD068280BD89B4A11
:109A7000800013589F466A30C3B2362B03D8984AE9
:109A80009B00D3589F46974806F01AFE002D08D039
:109A90000026954FA15D3800013606F011FEAE425A
:109AA000F8DB0A2006F0E0FDF8BD9048FEF772FEF4
:109AB000FAE78E48FEF73EFEF6E705F011FE8B4B07
:109AC0005861F1E705F00CFE040005F0E5FD884B58
:109AD0001855E9E705F004FE04F0FCFD0022854B73
:109AE00004F08FFD04F03EFE041C05F0E3FD04F0DD
:109AF000F1FD00227F4B04F084FD04F033FE011CD5
:109B0000201CFFF7EDFDCFE705F0EAFD784B0100E3
:109B10001A5C794806F0D4FDC6E77848FFF706F9E5
:109B2000C2E77648FFF706F9BEE705F0B5FD83000A
:109B3000734A1B185B001360B6E705F0ADFD0528FE
:109B4000B2D8704B80001B589F46B9236E4F9B00C4
:109B50003D009C4600261435674405F0F5FD1420B1
:109B600005F0FAFD2C00F0B205F0F6FD143C20885B
:109B7000023405F00DFEAC42F9D1143505F018FEA3
:109B80000136BD42E9D18FE7B923604F9B003D000C
:109B90009C4600261435674405F0D6FD152005F0D7
:109BA000DBFD2C00F0B205F0D7FD143C2088023418
:109BB00005F0EEFDAC42F9D1143505F0F9FD0136A2
:109BC000BD42E9D170E7B923514F9B003D009C464F
:109BD00000261435674405F0B7FD162005F0BCFDDE
:109BE0002C00F0B205F0B8FD143C2088023405F0DA
:109BF000CFFDAC42F9D1143505F0DAFD0136BD4296
:109C0000E9D151E7013DE9B2601CFFF771FC4BE778
:109C1000013D4048EAB2611CFEF7FCFA44E7013D11
:109C20003248EAB2611CFEF763FF3DE705F058FDDC
:109C300005F054F98A21C90505F001F98F21C905FC
:109C400005F0FDF8344905F0E6F805F069F9334C04
:109C5000206029E705F044FD304B986024E705F0CB
:109C600057FD2E4B18601FE706F078FD1CE705F046
:109C700037FD2B4B186017E705F032FD294B1860B4
:109C800012E705F02DFD284B18600DE72024234E28
:109C9000264D300000F02EF9013C0100280006F0AE
:109CA0000FFD002CF5D1FFE60322214B1A70FBE6D5
:109CB000FFF704F9F8E6FFF7D5F802221C4B1A70FB
:109CC000F2E6FFF7E9F80022194B1A70ECE6FFF70D
:109CD000B7F8E9E6FFF71EFBE6E6C046BCD3011085
:109CE00060D501109CC50110A4C5011060210020A1
:109CF000D03700200000A03F90C50110BC370020E5
:109D0000701400203CD6011090440020B441002083
:109D100060470020441400200080BB46484C0020CF
:109D200060140020581400205414002088C501102D
:109D30009D510020F0B585B00A0001A90C00114B1F
:109D4000E0CBE0C40378452B08D00A2A04D90B22C3
:109D500010F02AFB002806D005B0F0BD411C0A48CF
:109D600006F0AEFCF8E7094806F0AAFCFFF794F805
:109D7000FA20400001F0CAFD07F042F9FFF772F83F
:109D8000EAE7C046C4C50110A8C50110B0C501105E
:109D9000B42110B50348890007F0C6F80248FEF761
:109DA00033FA10BDB4410020441400200123064AB8
:109DB0005B42936000231374044A53609360D36042
:109DC000138213607047C046BC370020484C002007
:109DD000F0B5DE4657464E4645460022E0B583467E
:109DE000B4264049404B0A6004201A5E3F489C4616
:109DF0000027002415005B46006887B0760002E06B
:109E00000134B4426AD062009A5A0137AA4200DA99
:109E10000027B842F4DAAA466825FF359B46634618
:109E2000AC424BD008229B5E314A0393B4235B00C3
:109E300098460023002699460025A04402930492E8
:109E400000900193059109E0002D3ED101230027E8
:109E50009946019101350134A0452AD0B421200052
:109E6000490004F03BF95A464B009B5A9A45EBDCFB
:109E70000137002DEFD0009BBB422ADC132E18DCEB
:109E80004B46D80F019B48449C46039B40106044BE
:109E9000B4219C464900604404F020F9049B751CE1
:109EA00076009953012301342E0002930025A0452A
:109EB000D4D1029B0599002B00D00E6007B0F0BCF6
:109EC000BB46B246A946A046F0BD0027009BBB4258
:109ED000D4DD01239C460125E144BCE79B46AA460C
:109EE00063469FE7784C002044140020741400203F
:109EF0007C4C0020826903689B1842689B18802272
:109F0000120593420CDBF822120694466344436028
:109F1000074A1B145B009B5E80685843001470471F
:109F2000002BF4DA8022120594466344EFE7C04622
:109F3000AC2400208022F0B54D1C8668104CFF3503
:109F400012050EE0F8273F06BC46634443601B142D
:109F50005B00E35E0F6873431B14FB1808C1A94242
:109F60000DD087690368DB194768DB199342E9DA8A
:109F7000002BEBDA80273F05BC466344E6E7F0BDE3
:109F8000AC240020802270B54C1C8568FF3412057B
:109F900010E0F8263606B44663440E4E4360B446DD
:109FA000DB121BB263446B430E681B14F31808C129
:109FB000A1420DD0866903689B1946689B1993429C
:109FC000E7DA002BE9DA80263605B4466344E4E795
:109FD00070BDC0460080FFFF0022024B1B605B602B
:109FE0009A607047501B0020F8B5CE4647461E00C9
:109FF000234B80B50700180099460D00140008F0A7
:10A0000005F8204B9846002822D11F4B180099468E
:10A0100007F0FCFF1D4F002826D121002A001C4814
:10A020003E7007F07DFA01211A4C3A002060494247
:10A03000404607F0A1FA00281FD00021206807F051
:10A0400023FC012007F0BAFBC0BCB946B046F8BDFE
:10A0500048461F6007F0F6FF0B4B1800994607F0C3
:10A06000D5FF0A4F0028D8D0042238000A4905F04D
:10A0700041F9484607F0E6FFCFE7084802F012FC36
:10A080007C2400208014002080240020B83400208C
:10A0900078140020B44C002068D90110D0C50110FC
:10A0A00070B5040015000B00032240210648FFF79D
:10A0B0009BFF2900200000F017FA044B04481C60A5
:10A0C00007F078FF70BDC046C05D00008824002006
:10A0D000D1A40010F0B5C64600B50B78040084B0DA
:10A0E000092B0BD805F0D8FA02281DD0032846D03A
:10A0F000012806D004B080BCB846F0BD00F09CFA40
:10A10000F8E7A06904F04AFF4E4A4F4B04000D00E7
:10A1100004F077FA0B004D490200009401954C4879
:10A12000029106F0CDFAE5E705F0C4FA04F0D6FE98
:10A130008A21C90504F083FE8F21C90504F07FFE42
:10A14000444904F068FE04F0EBFEE06205F0B2FA68
:10A15000606305F0AFFA04F0C1FE8A21C90504F07E
:10A160006EFE8F21C90504F06AFE3A4904F053FEE1
:10A1700004F0D6FEA06405F09DFA2065BAE705F06C
:10A180008BFA022848D0032813D00128B2D101F05D
:10A19000A9FC0023304A801859410B00802102009D
:10A1A00009068B4202D301222C4B5242A266E3667F
:10A1B000A0E705F07FFA050005F07CFA270006000D
:10A1C00005F078FA264B90377D608046BB606D08BD
:10A1D000002D00DC0125802069004919C9004004D8
:10A1E00003F07CFF00237B6101333B763202B733FF
:10A1F0003861E25043461B49980303F06FFFBC23CC
:10A20000F117E050C904730B1943164A0023F004F8
:10A2100003F0B2FF60676DE72300114A90339A6044
:10A2200078225A60220000210F48A032106051604D
:10A23000C82001220D4900029862D9621A760C4B9F
:10A24000636757E7333333333333A33F6A0A00007E
:10A25000FCC501100080BB46801A0600FFFFFF7F8F
:10A2600022220200C05D0000822D0000550D00007A
:10A2700011110000F0B5DE46454657464E46E0B5A2
:10A280008A4C8B4BA5440121040004901868059367
:10A2900007F066F9036800215A6880460792802219
:10A2A00008A8520005F020F801F01CFC0290039170
:10A2B000804808A9FFF73EFE7F4BE16E5A6AA06E08
:10A2C000914200D9E5E09B6A834200D2DEE0802221
:10A2D0000021520048A805F007F8049C48A9200076
:10A2E0007430FFF727FE88AB994680235B049B46BA
:10A2F000714B90349A46434608AE227E27003500C3
:10A30000B04648AC069315E0002A34D07B69BA68A1
:10A310009B185B453ADA01227B619B1302CC5943BF
:10A32000CB179B059B0D5B1829689B12CB1808C5A2
:10A330004C454ED0022A0AD0E6D97B69032A04D1C3
:10A3400039695B1A002B1DDD7B619B13E6E75B46D9
:10A350007B615346796A5B6A386A99420FD85646E0
:10A36000B66A864201D2994209D003233B76802304
:10A370000322DB00D2E77A6100220023CEE78023AC
:10A38000DB00CBE700237B613B76F5E75B467B6137
:10A390007E6801F0A7FBFA22002300900191920051
:10A3A0003000002104F014FD009A019B80185941EF
:10A3B0000B008021020009068B4202D301223F4B91
:10A3C00052427B6202233B767B693A629B130222F4
:10A3D000A4E7069B4646BC229846B823049CE05856
:10A3E000A2588018C117E050C904430B1943344ADE
:10A3F0000023C00403F0C0FE4346D968606700290B
:10A4000011D08020079A49002E4C51180002336861
:10A41000A34200DA2B4B834200DB2B4B138002322A
:10A4200004368A42F3D101F05DFB029B039C049F3A
:10A43000C01AA141BE6904F051FD311C04F0E5FCD5
:10A4400004F0ACFD0022214B04F0DBF80400301CCA
:10A450000D0004F0A3FD02000B002000290004F011
:10A46000A9F804F07FF943464246DB68B86193607F
:10A47000059B4146186807F065F889239B009D44B9
:10A48000F0BCBB46B246A946A046F0BD914200D002
:10A490001DE7049C08A920002C30FFF773FD200065
:10A4A00008A94830FFF76EFD11E7C046DCFDFFFF4D
:10A4B000B44C0020484C002000400540FFFFFF7FC7
:10A4C000C05D00000180FFFFFF7F00000000B03F83
:10A4D00010B5024C2068FFF7CDFEFBE78824002072
:10A4E00010B500F01BF810BD962210B50748920178
:10A4F000FEF712FFC822064C0649D2010648216029
:10A50000626006F0DDF80023A36010BD244C00203B
:10A51000AC34002000381F1018C60110F0B504003C
:10A52000C646414B6269596A00B50069914226D31B
:10A530009B6A834226D32568A54220D0A368AE68D3
:10A54000013BA360280007F04BFE0C21280004F01B
:10A55000DBFE330E19D0FF2B50D0FA260027B600B1
:10A5600001F0C0FA801979410B0080210200090630
:10A570008B4202D301222D4B52422261636180BC87
:10A58000B846F0BD9142D6D1F9E7330C632B40D8E1
:10A59000002B45D0DAB29046013B1F02244D7E21AC
:10A5A0002800FEF743FFFF212800FEF73FFF0621AA
:10A5B0002800FEF73BFF0F212800FEF737FF0021A0
:10A5C0002800FEF733FF41462800FEF72FFF280042
:10A5D000F1B2FEF72BFFEF212800FEF727FFFF2344
:10A5E000144933408A68DB195B00002A16D09B1897
:10A5F0001B889800C0184000323001E03004000C85
:10A60000FA2200230021920004F0E2FB06000F0072
:10A61000A6E7C4276323FF019846BFE70A68E6E779
:10A62000012300279846B9E700400540FFFFFF7F60
:10A63000244C0020AC340020F0B583B0040005F0B9
:10A640002BF80A38C0B2192828D88C4A8300D3586E
:10A650009F4605F045F80500894C7E212000FEF755
:10A66000E5FEFF212000FEF7E1FE06212000FEF7B7
:10A67000DDFE03212000FEF7D9FE00212000FEF7B9
:10A68000D5FE290AC9B22000FEF7D0FEE9B22000AB
:10A69000FEF7CCFEEF212000FEF7C8FE03B0F0BDB0
:10A6A00004F0FAFF060005F005F8A368051E00DABD
:10A6B000D1E01F2BF2D80C2004F022FE3604EDB2BC
:10A6C00076198660210007F085FDA3680133A36039
:10A6D000E4E76C4FBB68002BE0D17C6802212000CE
:10A6E00004F0AAFD6100B860674805F0E9FF7B68E7
:10A6F000002BD3D000243B68B868610040180222C8
:10A70000C91804F0F7FD7B6801349C42F3D3C5E718
:10A7100004F0E6FF6B460A245A4F46009D1D04F0E4
:10A72000DFFF2880B868002804D0022229008019A1
:10A7300004F0E0FD013C0236002CF0D1AEE7514CB4
:10A74000A368002BAAD0EFF3108572B6F0231B0686
:10A750009C46616820684900604411F081FEF02346
:10A760001B069C4662682068A1685200604411F094
:10A7700047FE85F31088A068002800D18EE704F01A
:10A780009BFD0023A36089E704F0AAFF3D4A010076
:10A790009368002B6DD042009B181A883B4805F047
:10A7A0008FFF7BE704F078FF0500354C7E21200009
:10A7B000FEF73CFEFF212000FEF738FE06212000B8
:10A7C000FEF734FE06212000FEF730FE00212000B7
:10A7D000FEF72CFE00212000FEF728FE291C1E2D6E
:10A7E00036D8C9B253E72648FEF72EFE56E704F0E6
:10A7F00053FF234B01001800FEF718FE4EE704F04C
:10A800004BFF050004F048FF1D4C7E210600200090
:10A81000FEF70CFEFF212000FEF708FE06212000B7
:10A82000FEF704FE0F212000FEF700FE00212000AD
:10A83000FEF7FCFD002D09D0E9B2632904D8200001
:10A84000FEF7F4FD310022E76321F8E70121F6E786
:10A850001E21C9B21BE71F2B00D91FE70C2004F0F3
:10A860004FFDFF22120694466B429BB26344836005
:10A8700028E7126843009B188FE7C04654D60110A2
:10A88000244C0020AC34002040C6011064C60110E6
:10A89000094A10B594464024830063441A68C000F6
:10A8A0006240803414408022520113431C60034BE9
:10A8B0009C466044416010BD04C00140004001401E
:10A8C000074B80009C4660440368C90092000A431D
:10A8D0005A400C231A4080235B0103431A607047DF
:10A8E00004C00140064B80009C4660440368090197
:10A8F0005940802330225B010A4003431A607047AD
:10A9000004C001400123D022834012069362936168
:10A91000094A40219446830063441A68C0004A40B3
:10A92000803111408022520113431960034B9C4631
:10A93000052360444360704704C00140004001406B
:10A94000024B18688007C00F7047C04600C0064021
:10A95000EFF3108072B6034A1368002BFCD0BFF3EC
:10A960005F8F70472C0100D0BFF35F8F0022024B36
:10A970001A6080F3108870472C0100D070B5EFF397
:10A98000108C72B60D4D2B68002BFCD0BFF35F8F7F
:10A990000724CB08C618C05C01230C40A3401C0050
:10A9A0000440034207D118433070BFF35F8F2C601F
:10A9B0008CF3108870BD100001F074FF2C0100D0E2
:10A9C000F8B54746CE46884680B5EFF3108C72B690
:10A9D000214D2C68002CFCD0BFF35F8F9A422CD8FD
:10A9E000D4080727055D061901241740BC402C42F6
:10A9F0001FD007210127894609E0D408055D061903
:10AA00004C4639001440A1400C00294211D00132BB
:10AA10009342F2D201204042BFF35F8F00220E4BDF
:10AA20001A608CF3108800280FDBC0BCB946B04612
:10AA3000F8BD254310003570EEE7BFF35F8F0023AC
:10AA40002B608CF31088012040424346002BECD051
:10AA5000089801F027FFC0462C0100D030B5EFF375
:10AA6000108C72B60A4C2368002BFCD0BFF35F8FAA
:10AA7000072301220B409A40CD08435D9343435581
:10AA8000BFF35F8F002323608CF3108830BDC04676
:10AA90002C0100D00021044B044ABFF35F8F02C396
:10AAA0009342FAD17047C046000100D0800100D027
:10AAB000044B9C4660448000BFF35F8F002303601B
:10AAC0007047C04640000034044A1078431CDBB293
:10AAD000172B00D9102313707047C046881400202C
:10AAE00010B5064B064C82B00100009318221F23BC
:10AAF0002000FFF765FF02B010BDC04678C6011008
:10AB00006037002001238340002904D0034A1360EA
:10AB1000034A13607047034A1360FBE780E200E0DA
:10AB200000E100E080E100E001228240034B1B686D
:10AB300013405A1E9341D8B27047C04600E100E06E
:10AB4000024B10309B688000C058704700ED00E059
:10AB500070B50D00EFF3108672B60F4A1368002B24
:10AB6000FCD0BFF35F8F0D4B10309B6884001B59E6
:10AB70000B4A934203D09D4201D001F0ABFE074B3C
:10AB80009B681D51BFF35F8FBFF35F8F0022024BA5
:10AB90001A6086F3108870BD240100D000ED00E03B
:10ABA000CD800010EFF3108172B60E4B1A68002AA8
:10ABB000FCD0BFF35F8F0C4A103092688000805841
:10ABC000BFF35F8F00221A6081F31088074B984211
:10ABD00006D02F23064A821A93429B4118407047A1
:10ABE0000020FCE7240100D000ED00E0CD80001043
:10ABF0008C140020F0B557464E46DE464546E0B57B
:10AC000085B0060000911700EFF3108B72B66A4A08
:10AC10001368002BFCD0BFF35F8F0025674B5D5797
:10AC20009A46002D00DAA9E06B00654C01935B1990
:10AC30009B009846A146C1444B4652469B7910362C
:10AC40001370604BB6009B6899590B1B2F2B33D99F
:10AC50005D4B994200D0ACE0019B42469C465B4B69
:10AC60006544AD0063535A4B0232A218043B9B1A51
:10AC70001B05584A5B0D651913436B80564B012128
:10AC8000AB80FF23AB71009BEF71AB604B460B4376
:10AC900019004C4B9B689951BFF35F8FBFF35F8FD7
:10ACA0000022454B1A608BF3108805B0F0BCBB4600
:10ACB000B246A946A046F0BD01200A008243D379DE
:10ACC0008C46BB4231D84546130044491B1B5B41AF
:10ACD0005943090D3D4B63533D4B02356519043B08
:10ACE0005B1B1B053B4D5B0D2B43AA464D466B8002
:10ACF0000425AC465546E044131F44441B1B1B056A
:10AD00005B0D1D434B46997100999D8099604946A2
:10AD1000DF71334B01431360BBE75800C01880005C
:10AD20002018C179B9422FD902000623D356002B2F
:10AD3000F3DA02932B4B61460393131D9A460423C7
:10AD40005B429C46E14450464B461B1A1B055B0D7B
:10AD50009C46204B9571984663464046034393803A
:10AD6000019B5A199200039BA418A380029B1C4AC2
:10AD7000A371009B2260E771A3608AE701F0AAFD3E
:10AD8000002553465D574FE7908802934005131DF9
:10AD90009A46031561469C464046D44463460430B7
:10ADA0002018181AE0230005400D1B0218430390D9
:10ADB000C5E701F08FFD4FE7240100D09851002036
:10ADC0008C14002000ED00E0CD80001000A1FFFFFA
:10ADD000BC14002000E0FFFF01BDFFFFAAAA000095
:10ADE0000148804701BD0000F0B5DE4657464E469B
:10ADF0004546E0B50C0083B0EFF3108872B65D4AAB
:10AE00001368002BFCD0BFF35F8F5B4B5B499A68E4
:10AE1000030010339F00D5598D4239D0A5424AD046
:10AE2000574EAA1B2F2A33D80122924682409146C0
:10AE30004846544A1268104001904846524A1060F1
:10AE4000BFF35F8FEFF305829346002A35D093421C
:10AE500001D001F03FFD2A0053469A439068844296
:10AE600008D175E04B005B189B00F3189868A0426E
:10AE700034D01A00062151560029F3DA844253D007
:10AE8000019B002B26D04A46404B1A603D4B1A606E
:10AE9000394B9B68DD51BFF35F8FBFF35F8F00229B
:10AEA000344B1A6088F3108803B0F0BCBB46B2463E
:10AEB000A946A046F0BD0D00EAE72A0053469A4392
:10AEC00090688442D6D1062010561300002809DA73
:10AED0000D0031E04A462C4B1A60D9E7062018567F
:10AEE000002822DB42001118890074188A46A168E4
:10AEF0009960E179D971062161569971002925DBA4
:10AF0000A488F11A6405241554440919E02409059C
:10AF1000490D24022143998013181D4A9B00117882
:10AF2000F31899711070ABE713005946002914D13A
:10AF3000FF3191711749918015490A789A71164A23
:10AF40009B1B5B415A43120D0A7099E71349E2E7D4
:10AF50000620105613000028C4DA114A1149D21AEB
:10AF6000083A5002400D014399800F4952080A43A4
:10AF7000DA8085E7240100D000ED00E0CD800010EC
:10AF80008C14002000E100E080E100E080E200E0BD
:10AF90009851002001BDFFFFAAAA000001BD0000DA
:10AFA000C614002000F0FFFF00F8FFFF70B5EFF3BC
:10AFB000058101240443EFF3108C72B6214A136813
:10AFC000002BFCD0BFF35F8F1F4B05001F4AED1A0B
:10AFD0006D416A43120D1E4D8900AE6852B276581B
:10AFE000A6421CD00621595691421CD01221595616
:10AFF000914222D01E215956914220D02A215956E1
:10B000000324914210D0134B19781A708171BFF349
:10B010005F8F00220B4B1A608CF3108870BDAB68F9
:10B020000D4C5C50EFE700246100091989005B18A2
:10B03000FF21997109499980E5E70124F4E7022489
:10B04000F2E7C046240100D08C140020AAAA000018
:10B0500000ED00E098510020CD80001001BDFFFF01
:10B06000054B064A1360064A136053609360D36031
:10B0700013615361936170478080808000E400E039
:10B0800004E400E070B504000E001500FFF71CFD9D
:10B090000100200000F006F8A680E580BFF35F8F76
:10B0A00070BDC046024B9C466144890001607047F8
:10B0B0004000003410B50400FFF706FD0100200039
:10B0C000FFF7F0FFFF232371BFF35F8F10BDC04672
:10B0D00010B50400FFF7F8FC01002000FFF7E2FFC5
:10B0E000FF23A380BFF35F8F10BDC04610B50400DF
:10B0F0000120FFF7F5FC034BC3189B002360BFF34F
:10B100005F8F10BD4000003483680B4810B5844643
:10B11000614462441201090159189B185C684A682D
:10B120000120944201D802D00020C0B210BD1A689C
:10B130000B689A42F9D8F7E7FFFFFF0F10B5080038
:10B140000B690C009847002802D02068616810BD88
:10B15000E06000210020FAE70A4B1968EFF3108045
:10B1600072B60A68002AFCD0BFF35F8F1B68BFF37A
:10B170005F8F00221A6080F3108840BF00200021FA
:10B180007047C046504F0020F8B5574645464E46DA
:10B19000DE46E0B598460CAB1C780DAB1B7807007B
:10B1A00091469A460568002C59D1AC7B002C3BD0C7
:10B1B000660029683619033E89194B78AB73002B5A
:10B1C00000D1EB7300238B704B700B702D4BE2188A
:10B1D000BB6812019B184A461A6042465A600A9A96
:10B1E0009A600B9ADA6000238B704B700B706B7B4C
:10B1F0009B46002B26D022006B685946A8689847CA
:10B200005B465B005B442A68033B002812D058462B
:10B210009619B070D118D35C002B00D073705B46C8
:10B220000C706B735C450ED0F0BCBB46B246A946B1
:10B23000A046F8BDD3189C709119925D002A1CD1CC
:10B240005B460B706C734A464346387D00F0DEFC6B
:10B25000051E0AD10E9B002BE6D01D70E4E76600A8
:10B2600029683619033E8919B0E75346002BF1D1FE
:10B270002100386800F0E2FEECE75A705B460B7084
:10B280006C73E0E7FFFFFF0FF0B5DE4657464E4612
:10B2900045460023E0B58BB00893684B8200D45834
:10B2A00000239B46099000F01DFC02000B00606823
:10B2B000EFF3108A72B6564601680029FCD0B246F8
:10B2C000BFF35F8F21684F7B8C46002F2ED0A5687F
:10B2D0005B49A946791809018944494608684968C3
:10B2E00005000E00AD1A9E41002E5FDD02000B002E
:10B2F000099800F08BFC0023002299460023069257
:10B300000793002398466368BFF35F8F5A461A601D
:10B310008AF310884346002B12D10028C3D10BB00A
:10B32000F0BCBB46B246A946A046F0BD00230022B1
:10B330009946002306920793002300209846E2E7EF
:10B34000089B494618023843C047626805000E0052
:10B35000EFF3108A72B61368002BFCD0BFF35F8F37
:10B36000002E41DB2B00334302D02369002B56D142
:10B370002368D97B002905D01A6848004118521863
:10B38000033A57709A7B002A00D19F73DF73E268FB
:10B39000013FD35D0133D3555B4623616368BFF33F
:10B3A0005F8F5A461A608AF310887CE7002E02D11C
:10B3B000002D00D09AE70021604600F0BDFD4B460D
:10B3C0001A685B68069207934B469B6898464B4603
:10B3D000DB689946E368DB19013B1B7808931B0285
:10B3E0000343236100208EE72369002BC0D0069A17
:10B3F000079B8021521BB34109068B4202D30122D5
:10B40000104B5242002104910131039149460191B0
:10B410004146200002970091FFF7B6FEBCE700F01E
:10B4200061FB2A00330012184B41802109068B4230
:10B43000E8D30122034B5242E4E7C046A44C00206B
:10B44000FFFFFF0FFFFFFF7F10B5144C6368002B59
:10B4500004D00A211248FFF725FE10BD2300114A2F
:10B460001021206800F084FC032000F02FFB032053
:10B4700000F034FC03200C4900F082FBFFF724FBB2
:10B480000A4B9C4603232375D0231B061B6860448C
:10B490006375074B80006060DC60DAE7D41400203D
:10B4A000504F002009B1001089B200104000003454
:10B4B000A44C002000487047D4140020F0B5574633
:10B4C0004E464546DE46E0B585B0019310AB1B788D
:10B4D0000600039300239A46984600927268EFF3A1
:10B4E000108B72B61368002BFCD0BFF35F8F3568EA
:10B4F000AC7B002C00D16EE067002B683F19033F46
:10B50000DB195A78AA73002A00D1EA73484AA118B5
:10B51000B2680901521800980199106051600E99A3
:10B5200091600F99D16042469A705A701A706B7B85
:10B530009946002B00D16BE022006B684946A86851
:10B5400098474B465B004B442A68033B002856D083
:10B550004846D719B870D118D35C002B00D07B7047
:10B560004B460C706B734C4553D0F3681B19013B71
:10B5700018787368BFF35F8F42461A608BF31088A8
:10B580005346002B08D10002204305B0F0BCBB4657
:10B59000B246A946A046F0BD039B002B46D00E9BA9
:10B5A00000200F99984703000B433FD004000D1E65
:10B5B0001ADA009A019B121BAB4100920193802280
:10B5C0001206934204D301231A4C5B420093019468
:10B5D000039B9A4682E77368BFF35F8F1C608BF30F
:10B5E000108801204042D0E700F07CFA8022001948
:10B5F00069411206009001919142E9D3E3E7D31823
:10B600009C70D119D25D002A00D05A704B460B7045
:10B610006C73307D009A019B00F0F8FA8246002896
:10B62000A3D02100306800F009FD9EE70020ACE7C0
:10B63000FFFFFF0FFFFFFF7FF0B557464E46DE4688
:10B6400045461100E0B585B006009C46109F1943A1
:10B6500000D1E9E06146DB170193009353401C00E1
:10B66000019B4B401D0000980199241A8D416346AF
:10B670000E997B600F9BBE607B6139613A6000F080
:10B6800031FA8023001969411B060090019199420B
:10B6900004D30123694C5B42009301940023984634
:10B6A000674B1097039300239946109B370046463B
:10B6B00098467A68EFF3108B72B61368002BFCD0B3
:10B6C000BFF35F8F3D68AC7B002C00D179E0630055
:10B6D0001B19033B1A00944602932B6863445A7863
:10B6E000AA73002A00D1EA73564AA118BA68090160
:10B6F0005218009801991060516003999160414679
:10B70000D1604A469A705A701A706B7B9A46002B29
:10B7100000D17BE022006B685146A86898475346E9
:10B720005B0053442A68033B002800D164E0D11831
:10B730008C465146029810188170D35C002B00D0C3
:10B74000437063461C7053466B73350054455ED09E
:10B75000FB687A681B19013B1B78BFF35F8F494672
:10B7600011608BF31088002D0CD147461B02234338
:10B7700001352800FB6005B0F0BCBB46B246A946C7
:10B78000A046F0BD434640461B699847061E24D09C
:10B7900043460CCB100018434CD014001D1E1FDA7A
:10B7A000009A019B121BAB4100920193802212066A
:10B7B000934200D27DE70123204C5B420093019429
:10B7C00077E73E0047467368BFF35F8F1C608BF3DB
:10B7D0001088012300255B42CBE747460023C8E7DA
:10B7E00000F080F980220019694112060090019151
:10B7F000914200D25DE7DEE70298D3189C701118E1
:10B80000125C002A00D05A7053460B706C73387D5E
:10B81000009A019B00F0FAF9051E00D198E721007B
:10B82000386800F00BFC93E7002301240025012277
:10B830009C461CE74746350000239AE7FFFFFF7F41
:10B840003DB10010FFFFFF0FF0B504000D0006260C
:10B850007642F717C64636196F4100B584B08F425D
:10B8600014D811D000F03EF932003B00121A8B417F
:10B87000002B15DC002B3ED02000290000F070F9D1
:10B8800004B080BCB846F0BD8642EBD90026002744
:10B8900000F028F932003B00121A8B41002BE9DD41
:10B8A000002302930193154B3200009314483B0090
:10B8B000FFF704FE0028DFDB00239846BC46114A50
:10B8C000114F7B6A9C4504D8B96A8E42D4D99C45F5
:10B8D000D2D11168EFF3108072B60B68002BFCD048
:10B8E000BFF35F8F1368BFF35F8F4146196080F32A
:10B8F000108820BFE5E7002ABED0D1E759B100107B
:10B90000D4140020504F00200040054070B50600C0
:10B9100000F0E8F8FA2204000D00002330000021B6
:10B92000920003F055FA8023001969411B069942E1
:10B9300002D3012002494042FFF786FF70BDC04696
:10B94000FFFFFF7FF0B5EFF30583CE46474680B596
:10B9500005000C0085B0002B12D02A4A0020536A43
:10B96000A34203D3926A0130AA4204D305B0C0BCFB
:10B97000B946B046F0BD1B1B5A1E9341D8B2F5E73D
:10B98000214E02930193214B0200009330000B00E3
:10B99000FFF794FD031EE0DD20BF7168EFF3108711
:10B9A00072B60A68002AFCD0BFF35F8FDAB2944601
:10B9B000FF2230681A40417B61450FD001688946FB
:10B9C000510088464946904441440339897800290A
:10B9D00004D13269934209D1316107E0F1681B0A51
:10B9E0008A18013A1278DBB29A4207D07368BFF323
:10B9F0005F8F00221A6087F31088AEE7614600F07F
:10BA00001DFBF3E700400540D414002059B100109D
:10BA1000F0B5EFF30582D6464F4646461000C0B556
:10BA20001038EFF3108872B6214C2368002BFCD03D
:10BA3000BFF35F8F0123190081401E4D1F00696312
:10BA4000AA461D4D29601D4D2E78AC463500C540D7
:10BA50002F402B4215D053465F6A194B8500EB5897
:10BA60009F4218D36246174B8E43EB581670BFF3B4
:10BA70005F8F0022226088F31088002B06D0984741
:10BA800004E0BFF35F8F276088F31088E0BCBA46FC
:10BA9000B146A846F0BD0C4B92009C466244136828
:10BAA0001360BFF35F8F0023236088F31088EDE7F6
:10BAB000280100D0004005403C700540A7510020FF
:10BAC0005C4F002048360020D03F054010B5034BA6
:10BAD00001001800024AFEF751FF10BD94510020EA
:10BAE00094C60110034B596A0A00986A596A8A423F
:10BAF000FAD170470040054070B504000D00174AA8
:10BB0000536A1900966A536A8B42FAD130001900C1
:10BB100024184D41AB4216D813D0104B2A005B6A53
:10BB20009D4203D90D494B6A9342FCD3934207D1FE
:10BB30000A4A02E0516A994202D1916AA142F9D3BC
:10BB400070BDA642E9D9054B5B6A1C005A1CEFD0B8
:10BB5000012201246442E5175242E3E70040054018
:10BB6000064A536A9942FCD807D1044B02E05A6A4C
:10BB7000914202D19A6A8242F9D37047004005404F
:10BB800070B504000D00EFF3108672B61A4A136800
:10BB9000002BFCD0BFF35F8F002D1BD02000FEF7E1
:10BBA000CFFF164981420AD02000FEF7D1FF0121C4
:10BBB0002000FEF7A7FF0123A340114A1360114B99
:10BBC000A400E550BFF35F8F00220B4B1A6086F391
:10BBD000108870BD0121A1400A4BA200D5500A4B2C
:10BBE00020001A788A4305491A70FFF7FDF80021F2
:10BBF0002000FEF787FFE5E7280100D011BA00100A
:10BC00003860054048360020A7510020F0B54F4667
:10BC1000D6464646C0B507002B4C616A0D00A66AA1
:10BC2000616AA942FAD18B4208D805D00120E0BC54
:10BC3000BA46B146A846F0BDB242F7D9EFF3108A32
:10BC400072B6224801680029FCD0BFF35F8F01253E
:10BC5000BD401F491C4C8846097889462943C9B212
:10BC60008C46414660460870391D890065630A515B
:10BC70001849B8004350216A0020294219D0616A4E
:10BC80000800A66A616A8142FAD18B4219D801D1B3
:10BC9000B24216D8CC450BD00B4B1F221D625D6300
:10BCA00001233A4093400C4A136043464A461A70B7
:10BCB0000120BFF35F8F0022044B1A608AF31088C3
:10BCC000B5E70020F5E7C04600400540280100D058
:10BCD000A75100205C4F002080E200E0EFF3108CC1
:10BCE00072B60A490B68002BFCD0BFF35F8F0123AB
:10BCF0008340074A0748136202789A430270BFF3F1
:10BD00005F8F00230B608CF310887047280100D0F0
:10BD100000400540A751002070B506000D0014003A
:10BD200000291DD0002A12D07368806898476200ED
:10BD30006B0012195B193168033A033B002808D0E5
:10BD40008A189570C818CB5C002B0BD104702800A2
:10BD500070BDCB189C7088188A5C002A05D10570CC
:10BD60002000F5E753700470F1E75A700570F7E7AB
:10BD700010B583600023CCB2437301334260047377
:10BD80008373C4730068421C012C05D90133DBB2F4
:10BD9000137003329C42F9D1FF230B405A00D31891
:10BDA000C01800230338437010BDC04670B50500AD
:10BDB0000C1E07D0630001681B19033BCB185A788F
:10BDC000002A01D1200070BD5000801803380918E6
:10BDD00000204E784870210058702800FFF79CFF23
:10BDE000310004002800FFF7E1FF0600002C20D0FE
:10BDF0000028E7D0320021006B68A86898477200DD
:10BE0000630092191B192968033A033B002808D0E4
:10BE10008A189470C818CB5C002B00D05370067041
:10BE2000D0E7CB189E7088188A5C002A00D05A7020
:10BE300004703400C6E7C046F0B557464546DE46B6
:10BE40004E46E0B50D006F0001687F19033F040006
:10BE5000C85D83B00192CA19002850D043001B1856
:10BE6000033BCB185E78B446002E1AD1019E002EFB
:10BE700042D0E67B002E04D073009B19CB18033B05
:10BE80005D70A37B002B00D1A573E57300282FD133
:10BE90000023537003B0F0BCBB46B246A946A0468F
:10BEA000F0BD72006244033A8A1851788846002136
:10BEB000517089465970320001002000FFF72CFFB5
:10BEC00043468246002B07D05B0021684344033B76
:10BED000CB185A78002A16D1424651462000FFF767
:10BEE0001BFF2168019BCA19002BC2D10028CFD0AB
:10BEF00043001B18033BCB1800219970C8E7019B36
:10BF0000002BB6D1C4E750008018033809184878D0
:10BF1000834648464870587041462000FFF7FCFEB3
:10BF2000594680462000FFF741FF414602002000AD
:10BF3000FFF7F2FE8046CFE7F0B557464546DE46AE
:10BF40004E46E0B583B00191457B04006F00006868
:10BF50007F19033FC15DC219002952D04B005B1805
:10BF6000033BC3185E78B446002E1CD1019E002E00
:10BF700044D0E67B002E04D073009B19C318033B0A
:10BF80005D70A37B002B00D1A573E573002931D12F
:10BF9000002328005370617303B0F0BCBB46B24667
:10BFA000A946A046F0BD72006244033A8218507858
:10BFB0008046002050708146587032002000FFF704
:10BFC000ABFE43468246002B07D05B00216843440A
:10BFD000033BCB185A78002A17D14246514620001D
:10BFE000FFF79AFE019B01002068C219002BC0D107
:10BFF0000029CDD04B005B18033BC318002098707C
:10C00000C6E7019B002BB4D1C2E75000801803386B
:10C0100009184878834648464870587041462000C1
:10C02000FFF77AFE594680462000FFF7BFFE4146E3
:10C0300002002000FFF770FE8046CEE770B50500D5
:10C0400000292CD0437B8B422ED04C000068641812
:10C05000033C0419A278002A21D053009B18033B0B
:10C06000C25CC6188A4202D11BE0002A08D05300E5
:10C070009B18033BC3185A788A42F6D162785A70EB
:10C08000002301222800A3706370FFF7D5FE697BAF
:10C0900002002800FFF740FE6873012000E0002046
:10C0A00070BD63783370EBE701221900FFF7C4FE1F
:10C0B000F2E7C046F8B5CE464746040080B50620F4
:10C0C0000D0000F08FFA061E53D0534B5349E3186E
:10C0D0005A1E93418022120494465B429B0D504AA3
:10C0E0009B05634413604F4A136018008A689043AD
:10C0F000FBD1494B4C4AE31859424B4180215B002C
:10C1000049000620995200F06DFA2900C00002F0A3
:10C110000DF8C30932D14022012190466162A36229
:10C12000266BF30736D427008025E36A00232C37DB
:10C130006D013D432B600620266300F053FA414613
:10C14000800001F0F3FF236B06009846DB073BD429
:10C150006023E26A5A400E3313402B604346236348
:10C16000802310229B013B431A60304B236303233F
:10C17000A3643000C0BCB946B046F8BD2C4A934217
:10C180003FD900232B492C4A6162A362266B90465B
:10C19000F307C8D52200C02330329B011343234A42
:10C1A00006201A60656AA36AAD01ED1800F01AFA5C
:10C1B000224901F0BBFFAD020100280001F0B6FFEB
:10C1C0000021FFF799FCAEE72200C02330329B012B
:10C1D0001343164A06201A60636AA26A9B019946B5
:10C1E000914400F0FFF94B4614499B02994601F037
:10C1F0009DFF0100484601F099FF0021FFF77CFCFC
:10C20000A6E77F22990188460240013252081900B0
:10C210009044130082E7C0460080FCBF00C000408D
:10C2200000E0004000F000408451002001030000C5
:10C23000FEFF0000FFFF0000C0FF3F004E0E0000A9
:10C240000539013AF8B5D2004C0105001443002B22
:10C2500006D0013B5A4253419B00234302241C4316
:10C260002E6BF3070BD46E22EB6A290063401A4051
:10C2700080232C315B010B431A602E63F8BD2A002A
:10C28000C02330329B0113430A4A06201A606F6AAA
:10C29000AB6ABF01FF1800F0A5F9074901F046FF9E
:10C2A000BF020100380001F041FF0021FFF724FC2C
:10C2B000D9E7C046010300004E0E0000F8B5056B3B
:10C2C00004000E00EB070BD40121E36A2200734047
:10C2D000194080232C325B01134319602563F8BD9C
:10C2E0000200C02330329B0113430A4A1A60476A96
:10C2F000836ABF010620FF1800F074F9064901F0B7
:10C3000015FFBF020100380001F010FF0021FFF708
:10C31000F3FBD9E7010300004E0E000010B50C201E
:10C3200082B000F0B7F9FEF70BFB002810D08B4B62
:10C330008B488B498B4A186059609860D9601861A6
:10C3400059619861D961186259625A6202B010BD90
:10C35000854CA06700F0F4F90122844B1A60636CED
:10C36000012BFCD10322824B1A607F4A936B012B75
:10C37000FCD1013301217F4A7F480093043300F050
:10C3800037F905237D4A009301217D4800F030F9FB
:10C390007C4B5A68FF2A02D8802252005A608022C1
:10C3A000734B6E4C12011A602169002907D0606935
:10C3B00001F0BCFE013043001B18033BFDD2E0221C
:10C3C000704B714819680A40026002221968514096
:10C3D00001320A40042102609A681142FCD0802197
:10C3E0006A4A09011160802252005A60684B236139
:10C3F000684B5968FF2900D85A60032201215B4B22
:10C400001A60644A93681942FCD0E0231068034024
:10C4100061480360126803234A40022113405D4AC9
:10C42000036093681942FCD080215C4B09011960BC
:10C4300080215B4B4900516063615A4B5A68FF2A67
:10C4400000D859608022584B12011A60E169002916
:10C4500007D0606901F06AFE013043001B18033BFE
:10C46000FDD2E0234F4A11680B4050490B608021F8
:10C470004F4B090119608021394B49005160E3613C
:10C480004C4B5A68FF2A00D8596080224A4B12014F
:10C490001A60216A002907D0606901F047FE013067
:10C4A00043001B18033BFDD2E023424A11680B40B6
:10C4B00042490B608021424B0901196080235B00D7
:10C4C00053608022264BD20223623E4B5968914230
:10C4D00000D25A6080223C4B12011A60616A002926
:10C4E00007D0606901F022FE013043001B18033BB6
:10C4F000FDD2E023334A11680B4034490B608021A0
:10C50000334B090119608023DB025360154B6362D2
:10C51000304B5A68FF2A02D8802252005A6080228B
:10C520002D4B12011A60A169002907D0606901F042
:10C53000FDFD013043001B18033BFDD2E023254ADB
:10C5400011680B4025490B608021254B09011960BA
:10C5500080235B005360124BA361F7E6881B002029
:10C56000006CDC021BB70000008000403CB00040C3
:10C5700030B00040002F685900800240008C864790
:10C5800000C00240308000403090004030A00040A9
:10C59000001BB7003C8000403C9000403CA00040A5
:10C5A000405973075480004054B0004054900040FC
:10C5B00054A000406080004060B0004060900040A7
:10C5C00060A000406C8000406CB000406C90004067
:10C5D0006CA000404880004048B0004048900040B7
:10C5E00048A00040014B8000C0587047881B0020C5
:10C5F000F8B5040022481E0017000D0001F096FD5A
:10C600000100380001F092FD069B36041B031E4317
:10C610002368002B22DB1B4B1B49E3185A1E934156
:10C620008022920194465B421B0B184A1B03634411
:10C630001360174A13601F008A689743FBD1C0221A
:10C64000231D92011A4321232560A06013602368F3
:10C65000002BFCDA0823E6601360F8BD3F23226854
:10C660001340AB42D7D1A3681B051B0D8342D2D127
:10C67000EE22E368D2021340B342CCD1EDE7C046CC
:10C68000001BB7000040FDBF00C0004000E00040BC
:10C6900000F000408023024A9B000343D3627047AE
:10C6A0000080054010B580241C4BE4051C60002868
:10C6B0001AD001231A4C18431A4BDC611A4C44401F
:10C6C0001C62596298628021144BC9051960174891
:10C6D00017490860E021C9041960002A07D18022A7
:10C6E000144B12061A6010BD0E4BD861EBE75301D4
:10C6F0009B1A9B009A18802312015B049A4209D26C
:10C7000013000D490B60074B5A608022094BD2057C
:10C710001A60E8E7094B1A00F3E7C04600B005408D
:10C72000D3C007B0008005402D3FF84FFCFF01004B
:10C730000820014000A00540DC4B0020FFFFFF0067
:10C74000AA23064A1B0113602F230549D360054B1A
:10C7500019605368002BFCDA7047C0460040024065
:10C7600000B0FA00006002402C4B2D4A70B51A60F0
:10C770002C4A2D4B2D491A6014008B689C43FBD129
:10C780002B4D2C4EB54208D2013E761BB60808CD83
:10C79000984723000134B342F9D1FFF7BFFD264A81
:10C7A000214B1A60214A9368DB43DB01DD09002B32
:10C7B000F9D14022214B224C224E9A675A671A67C0
:10C7C000DA66B44208D223682000002B20D0083457
:10C7D000FEF77EFCB442F6D31B4C1C4EC022B1685F
:10C7E000200002F087FDB460FEF754F9FEF738FC34
:10C7F000FEF72AFE164C174EB44208D2013E361BF5
:10C80000B60808CC98472B0001359E42F9D170BD7F
:10C810000834FEF74FFCB442D5D3DDE700E000401A
:10C82000BFCDFBFEFE7F3C0000F0004000C000409A
:10C83000281B0020381B0020FFFFFF0100F00140F3
:10C84000181B0020281B00200000002000ED00E045
:10C85000381B0020501B002000BEFDE7094A0300E2
:10C860001068002805D00849C3188B4207D8136008
:10C87000704706480449C31810608B42F7D901205D
:10C880004042F5E79841002000000420AC51002010
:10C8900000207047012040427047C04610B5FFF7A6
:10C8A000DBFFC0460FB400B5084883B002F0C6FDF8
:10C8B000049B002B07D005A91800019101F0B6FBDD
:10C8C000034802F0BBFD0120FFF7C6FFB8C6011008
:10C8D000C8C6011010B50148FFF7E4FFCCC601102F
:10C8E0009A4200D2885470477047C046F8B5574600
:10C8F000DE464E464546E0B599460A9B07009A46F5
:10C900000D9B884693460B9C9B073BD10C9B9C42FE
:10C910003DD21E1B0B9415000C005E442A004B46B2
:10C92000013521002020B847B542F7D1A0460B9C25
:10C93000002C20D0454636195346321B013C185D69
:10C9400029004B46B847002CF6D12B0035009846FD
:10C950000D9B9B070FD55B46EC1A0C9BA3420AD993
:10C96000464698462A004B46310020200134B847FD
:10C9700001354445F6D32800F0BCBB46B246A94673
:10C98000A046F8BD16001500002CD3D1E0E7160034
:10C99000002CCFD11500EEE7F0B54F464646D646FF
:10C9A000C0B584B098460EAB1B7894469946129B4E
:10C9B0000D9C109F119E9A0725D4002E65D1BC4274
:10C9C00021D201221A409246202C00D1E9E00C9A93
:10C9D000551E302202E0202C00D17BE001342A5584
:10C9E000A742F8D85246002A0DD0B4420BD20C9A76
:10C9F000551E3022202C02D171E0202C2DD0013484
:10CA00002A55B442F9D1DA063CD55A052ED4002C69
:10CA100028D10F9A102A00D1B6E0022A00D1BCE03A
:10CA200030220C9C227001244A46002A65D15A0704
:10CA300000D499E02B220C9D2A55013403930C9BC2
:10CA400062460093029643460194FFF74FFF04B0FD
:10CA5000E0BCBA46B146A846F0BD2024DA06EDD5C2
:10CA60005A0503D4A74266D0B44264D00F9A102A64
:10CA700071D0022A57D0202CE0D02200013430257A
:10CA80000C9FBD54202CD9D0CEE7012215001D40AB
:10CA9000AA461A4236D04A46002A4AD10C321A42D5
:10CAA00047D1BC42A1D2202C91D1202E17D82024CE
:10CAB000DA06C3D55A051BD4202F01D0202ED5D19C
:10CAC0001F220F9D102D6FD0022DD8D162250C9FF3
:10CAD000BD54D0E75246002A79D0202EBDD920245B
:10CAE000DA06ABD55A0503D4202FE9D0202EE7D0A3
:10CAF0000F9A102AA2D12024A0E72D220C9D2A559E
:10CB000001349BE7BC4200D37DE7202C00D05EE7D8
:10CB1000DA06F0D55A05EED4202F62D0202EEAD1C5
:10CB200034001F22CDE7202C00D187E722000134FA
:10CB3000CCE7013EB5E7621E012CC2D10F9A102A44
:10CB400000D06AE79A063BD558220C9C2270283AFE
:10CB50006270022468E79A060ED4202CCBD078228B
:10CB60000C9D2A55013486E71A0700D466E7202277
:10CB70000C9D2A55013461E7202CBCD058250C9A15
:10CB800012191570013476E79A0608D558220C9CC4
:10CB9000227030226270022446E76032F7E7782282
:10CBA000F5E7002A83D1B3E7A21E013C9D0603D41A
:10CBB00078250C9FBD5460E758250C9FBD545CE759
:10CBC00078220C9C2270483A627002242CE7DA0624
:10CBD00000D433E75A058BD4202F00D044E71F221E
:10CBE0006FE73C001F226CE710B5002800D110BD94
:10CBF00002F0D8FBFBE7C046F0B557464E46454627
:10CC0000DE46E0B599B08246894690460893229A5E
:10CC1000239B1000190001F04AFD002800D0CDE050
:10CC2000229823990122D94B524201F03BFD002862
:10CC300000D0C3E0229823990122D54B524201F043
:10CC400023FD002800D0B9E0229823990022002378
:10CC500001F01AFD002800D0F1E1229E239F8023DD
:10CC6000269ADB001A400D92269A1A4201D1062319
:10CC700024938023269A1B011A403B009346099671
:10CC8000334300D0B3E0002A00D0C2E100230024E7
:10CC90000A930B94002304250993259B0024AB429F
:10CCA00000D95C1B0223269A1A400C92269A134242
:10CCB00003D06B426B415B421C40099B002B07D0A9
:10CCC0000A9A0B9B3000390001F07DFC06000F0032
:10CCD000229823990022002301F0D6FC002803D0DB
:10CCE000802109067B181F00269AAA4B00960197FF
:10CCF0001340089E0493249B0394029342463300FE
:10CD00004946504600F0AAF90400002D67D02020C3
:10CD1000269A4946024013005A4253415B42621C24
:10CD200018400A92330022004530D047099A6F1EFE
:10CD3000D317D4185C40D30F9B46002501E0202D6B
:10CD400013D008AA94461F23200063440A2101350A
:10CD50005E1901F0EBF93031317020000A2101F049
:10CD6000E5F926000400092EE9D8052306930023DF
:10CD700004930A3303935B46089E029310AB0A9A0E
:10CD8000009349463300504605970195FFF704FE8E
:10CD90000C9A0400002A22D04246851A259AAA42FB
:10CDA0001DD9B0465746160022004346494620206A
:10CDB0000135B8470134AE42F6D810E0269B424612
:10CDC0000493259B49460393249B50460293229B40
:10CDD000239C00930194089B00F040F9040020007C
:10CDE00019B0F0BCBB46B246A946A046F0BD6A4B9E
:10CDF00078009C46400D604401F06CFC674A684B2B
:10CE000001F0FFFB674A684B01F0D4FB674A3B0324
:10CE10001B0B1A4304000D0009981100644B0022FB
:10CE200001F0BFFB634A644B01F0EBFB02000B0017
:10CE30002000290001F0BEFB01F064FC099001F024
:10CE400049FC5E4A5E4B04000D0001F0DAFB002253
:10CE50005C4B01F0AFFB01F055FC5B4A5B4B2900DA
:10CE60000C90200001F0CDFB04000C980D0001F0A7
:10CE700031FC574A574B01F0C4FB02000B00200065
:10CE8000290001F08EFB04000D0002000B000A9443
:10CE90000B9501F0B6FB04000D000A980B990200F7
:10CEA0000B0001F087FB00220E900F914A4B2000EF
:10CEB000290001F088FB0022484B01F07BFB0200B7
:10CEC0000B002000290001F07EFB0022444B01F002
:10CED00071FB02000B002000290001F074FB0A9A8C
:10CEE0000B9B0D0080210400C905002001F059FBB7
:10CEF00002000B002000290001F05CFB02000B0087
:10CF00000E980F9901F05FFB0022284B01F052FBB5
:10CF1000344B0C9C9C4664442305002201F071FBB9
:10CF200004000D0002000B00300039000A940B953C
:10CF300001F0AAFB00285DD123002A00C62509992B
:10CF400063318D42AD4159466D420435002900D10F
:10CF5000A3E6134363D030003900234A234B01F08A
:10CF600099FB002807D0002230003900204B01F047
:10CF70008BFB002853D1249B002B00D18DE60D9B09
:10CF80005A1E9341249AD31A249386E6FFFFEF7F1B
:10CF9000FFFFEFFFFFF7FFFF01FCFFFFFB799F5053
:10CFA0001344D33FB3C8608B288AC63F0000F03FCC
:10CFB0000000F83F61436F63A787D23F71A37909EF
:10CFC0004F930A400000E03F1655B5BBB16B0240DD
:10CFD000EF39FAFE422EE63F00002C4000002440CC
:10CFE00000001840FF0300002D431CEBE2361A3FFF
:10CFF00080842E41099B0022013B09932000164B9F
:10D00000290001F0E0FA0A00010003000A910B92E6
:10D0100094E7002300240A930B9400230993249A95
:10D02000099B9A4214DDD31A013B24938023269A4C
:10D03000DB001A4300230025269209932DE6802267
:10D0400012069446229B1E00239B63441F0006E6A3
:10D0500000232493EAE7C04600002440F0B545468B
:10D06000DE464E465746E0B595B08B46904699460B
:10D070001E9A1F9B0A9019001000209D01F017FBBB
:10D08000002800D0B0E11E981F990122C74B5242E0
:10D0900001F0FAFA002800D037E11E981F9901220A
:10D0A000C34B524201F0FEFA002800D0A7E01E98C0
:10D0B0001F990022BF4B01F0F5FA002800D088E04C
:10D0C0001E981F990022BC4B01F0DEFA002800D008
:10D0D0007FE01E981F990022002301F0D5FA002856
:10D0E00000D0FAE000230B938023229C229ADB00DD
:10D0F0001C401A4200D102E1092D00D87CE106A9AA
:10D100008C462C00172200233021093C6244013355
:10D11000D154EF1A202B00D132E1A342F7D10022E3
:10D12000A44B069207931E981F9901F0EBFA050095
:10D1300001F0D0FA02000B001E981F9901F031FA9D
:10D14000069A079B01F05DFA0890099101F0FEFA3A
:10D15000060001F0BBFA02000B000898099901F0E3
:10D1600020FA0022954B0890099101F09BFA0028C3
:10D1700000D1D2E00136300001F0A8FA069A079BF0
:10D1800001F088FA002801D000260135AA46002FB8
:10D1900000D098E0280001F09DFA02000B001E98D4
:10D1A0001F9901F0FEF9854B002206000F0001F0E7
:10D1B0006BFA0CAB9A46002845D1002230003900AA
:10D1C0007E4B01F06FFA00283DD1EB073BD50135CE
:10D1D00039E0229B42460493219B594603930A98C7
:10D1E0001E9B1F9C0295009301944B46FFF704FD84
:10D1F00015B0F0BCBB46B246A946A046F0BD229B86
:10D200005B0767D403226E4B229901920391219907
:10D210000291009342464B4659460A98FFF766FB37
:10D22000E6E706AA94461723280063440A2101343E
:10D230001E1900F053FF3031280031700A2100F030
:10D240004DFF051E76D0202CEBD10323229A1340EC
:10D25000012B1DD1219B002B1AD00B9B002B00D042
:10D26000BBE0229A0C33134200D0B6E0219BA342CC
:10D2700000D887E006AB9C4617223023624404E0C6
:10D280002199013413558C4259D0202CF8D12024F7
:10D29000229B01940393219B02935346B9E706AA6C
:10D2A000944617230A216344300001341D1900F00D
:10D2B0003DFF3031297030000A21013F00F036FF78
:10D2C000092E46D90600202CE9D155460CAB202466
:10D2D0009A46B8E704223B4B96E71E9A1F9B002014
:10D2E000002101F05EF901230B938023229C229AF6
:10D2F000DB001E901F911C401A4200D0FCE6002269
:10D30000314B0627069207930DE7229B0393219B3F
:10D310000293042301932D4B7BE70022089809997F
:10D32000264B01F0B1F9002800D02FE7002E4FD195
:10D3300001362BE70323229A1340012B66D0202CC1
:10D34000A6D00B9B002B1FD02D2352461355013422
:10D350009EE75546202CB9D030233A19002F08D02B
:10D36000172006A9013409180B55202CAED0944281
:10D37000F6D10CAB9A462E2352461355013462E780
:10D380002024CCE6202C83D0229B5B0708D4229B50
:10D390001B0700D47CE7202352461355013477E75E
:10D3A0002B2352461355013472E7C046FFFFEFFFAF
:10D3B000FFFFEF7F65CDCD4165CDCDC10000E03FE2
:10D3C000E0C60110D8C6011080842E41E8C60110C5
:10D3D000F30700D4DAE60136D8E6219B013B21931E
:10D3E000A34200D946E7AAE7229B0393219B02931D
:10D3F00003230193074B0CE7074BEA009B185C687B
:10D400001B682F000693079400248CE6219B002BB9
:10D4100095D022E7E4C6011068D80110F0B5574650
:10D42000DE464E464546E0B5A5B01F002E9B914610
:10D430000D93CA4ACA4B82468B461A60002900D116
:10D4400029E2002338789846002800D12BE2C54B0A
:10D4500044460C93C44B55464E460E930AE0631C5B
:10D460009846220033005946A84744463878002899
:10D4700000D187E001372528F1D108239A46043BE3
:10D480009946023B9846013B00229C460B94387813
:10D49000791C0300203BDBB2102B03D80C9C9B00B3
:10D4A000E3589F460300303B0B9C0B92092B3AD963
:10D4B000002398462A2800D1DDE000239A462E2832
:10D4C0004BD00300683BDBB2122B1ED80E9A9B0098
:10D4D000D3589F4663460F001A43D8E743460F00D0
:10D4E0001A43D4E74B460F001A43D0E710230F002E
:10D4F0001A43CCE753460F001A43C8E780235B006A
:10D500000B9A78781A430B9201310F0067284FD895
:10D510002428A4D90300253BDBB2422B9FD8934992
:10D520009B00CB589F46002398460B9B47469C4642
:10D5300000E00131BB00DB195B001F180878303FA9
:10D540000300303B092BF4D963460B930023B84604
:10D550009A460F0001312E28B3D180200B9AC000CB
:10D5600002430B9230225242944678780B00844456
:10D570006246092A00D8AAE12A2800D1B9E10F00A1
:10D5800001319EE7A046AA46B146C84503D3012310
:10D590005B424B4498464B46424659460020D04792
:10D5A000200025B0F0BCBB46B246A946A046F0BD5F
:10D5B00001006939C9B20F2900D950E701238B4016
:10D5C0009C466B4B994663464A4613400F9362460E
:10D5D0004B461A4200D068E10A2956D0072900D0EC
:10D5E0003DE70D9B02CB9846002900D092E10B9BB2
:10D5F00010211A008A43100011310843814680200F
:10D600001A00C0000240110003421CD114AB9C461A
:10D610001F220F2362440D959C4615000F9B0B940F
:10D6200002E0202B0CD0110064460C402000373063
:10D63000092C00D807380133E8540A090F29F0D81B
:10D640000B9C0D9D0F934B46082206935346059263
:10D6500008320392002204930F9B029201931CABA9
:10D6600022000093594633002800FFF795F94346FE
:10D6700004000D93FAE60D9B04CB9046002A79DB5B
:10D6800078780D930F00013117E70D9B02CB1493AF
:10D690000B789C4618005346002B00D134E100283B
:10D6A00015D05346013B013399460D940B9C894498
:10D6B0004A460B00A14601E0934203D05C78013357
:10D6C000002CF9D14A465B1A0D9C0B920F938023D4
:10D6D000DB0099460B9A13400D934B461A4204D037
:10D6E0000F9B534501D953460F93022399460B9A3A
:10D6F00013400B934B46134200D1F5E16346002BD8
:10D7000000D1D6E10D9B002B00D182E10B1BD1464D
:10D7100031009A463B00A1442E005F464D46220050
:10D720009B46894609E04B463900541CB047534696
:10D73000185D002800D192E122009542F3D14B46BA
:10D740005A46A946BB46350017001E004C460B9BA7
:10D75000002B00D0ADE1149B0D9387E61DD4001083
:10D76000B0410020C8D601100CD7011058D70110C5
:10D77000419000000B9A283802430B9242465242D5
:10D78000787890460F000D93013196E678786C28F2
:10D7900000D15DE180230B9A5B001A430B920131AB
:10D7A000B3E680239B00ABE67878682800D148E197
:10D7B00080230B9A01311A430B92A6E6672800D109
:10D7C000B2E0472800D11AE1452800D11CE10B9AAC
:10D7D0000721049242460D9B0392073352468B4326
:10D7E000190002920CC92800009201930D912200A9
:10D7F00033005946FFF700FA040037E6462800D107
:10D800008DE00B9A0721049242460D9B0392073349
:10D8100052468B43190002920CC9280000920193D2
:10D820000D91220033005946FFF718FC04001DE655
:10D83000631C98462200330059462520A8474446D9
:10D8400014E60D9B04330F93631C99460B9B9A07B8
:10D8500000D40AE10D9B2200187859463300A847EE
:10D8600043464444012B00D86FE1B0462E0025000A
:10D870004C46B9465F462200434601343900202019
:10D88000B047AC42F7D12C00BB4635004F46464668
:10D890000F9B0D93EAE5D64B38789A4600239846BD
:10D8A000002800D0D3E500246FE66F2842D000D8CE
:10D8B000FDE11023782800D19BE00B9A9A430B924C
:10D8C0000A239C46002314930A330F9338E05746EB
:10D8D0000B9AB900C919490001330F181878303F65
:10D8E000010030390929F4D9BA460B921F00591C9E
:10D8F000E7E50D9BB87804CB0237D143C9170A403E
:10D9000092460D93791CDCE5002800D1DFE6022366
:10D910005B42C8E621200B9A0243914676E620231B
:10D920000B9A1A430B926CE780230B9A1B011A4344
:10D930000B924CE708239C460023149308330F9363
:10D940000B9880230200DB001A40110002001842ED
:10D9500000D080E00C239A431000802302009B003B
:10D960001A400B92184200D0F1E0802302005B00C5
:10D970001A4091460D9A04321492184200D0C3E224
:10D98000430600D5D7E0030600D421E30D9B1B8896
:10D990000993002B00D02DE110339843002900D1CA
:10D9A00028E10023994643460593534604930F9B71
:10D9B00006900393002302934B4601931CAB220075
:10D9C0000093594633002800FEF7E6FF0400C2E644
:10D9D000582809D0622800D0E3E202239C460023A5
:10D9E000149302330F93ABE720230B9A1A430B9245
:10D9F000103B9C460023149310330F93A0E7802321
:10DA00000B9A1B011A430B9220230B9A1A430B9279
:10DA1000DDE60B1B9A460F9B99463B0037005E469E
:10DA20009B4622003B003100A84753460134185D55
:10DA30000028F6D14B460F935B46B3463E001F00CD
:10DA400085E6C0230B9AB8781A430B92F91C5CE563
:10DA5000C0239B00F6E70D239A4310007DE75B4649
:10DA60003500BB464E461F0071E64346012B66D982
:10DA7000631E434432002E001D003B00A2465F4659
:10DA800091469B4622004B46013439002020B04786
:10DA9000AC42F7D15B463500BB464E46A1465446E4
:10DAA0001F000D9B4A461878594633004444A84746
:10DAB000EEE60F9BA146984500D84CE64444E41A94
:10DAC000B0462E0025004C46B9465F46220043462C
:10DAD000013439002020B047AC42F7D12C00BB46BE
