:020000041000EA
:1080000000200420F7800010C3800010C5800010FD
:10801000C1800010C1800010C1800010C18000101C
:10802000C1800010C1800010C1800010C780001006
:10803000C1800010C1800010C9800010CB800010EA
:10804000CD800010CD800010CD800010CD800010BC
:10805000CD800010CD800010CD800010CD800010AC
:10806000CD800010CD800010CD800010CD8000109C
:10807000CD800010CD800010CD800010CD8000108C
:10808000CD800010CD800010CD800010CD8000107C
:10809000CD800010CD800010CD800010CD8000106C
:1080A000CD800010CD800010CD800010CD8000105C
:1080B000CD800010CD800010CD800010CD8000104C
:1080C00000BE00BE00BE00BE00BE00BEEFF30580D5
:1080D000103800BEF2EB887104F0011020F001109E
:1080E0003481001090A31AE700201F49086006C8D9
:1080F00081F3088810471D48006800282FD10DA47F
:108100000ECC002902D000F012F8F9E71849194AFC
:10811000002000E001C19142FCD11749884717496E
:1081200088471749884700BEFDE701C901C29A4246
:10813000FBD3704720F00110C0000020501B00202E
:10814000B00A02100000042000000420B00A02104F
:1081500000100420001004200000000070470948AF
:1081600006F00AF90047000008ED00E0000000D02A
:10817000501B0020004D002069CA0010610A011048
:108180009DCB00105756000006005250ABB3605311
:108190000CCA011006005250861C03021CCA0110B2
:1081A000060052505422A29D20CA011005005250D0
:1081B000DE65F468B00A0210F8B5C0460648074903
:1081C000091A8B10C90FC91810B5491003D0044BF8
:1081D000002B00D0984710BD501B0020501B0020E2
:1081E00000000000054B10B5002B03D004490548E2
:1081F00000E000BFFFF7E2FF10BDC0460000000036
:10820000A0470020B8C7011010B50E2108F0F0FFFC
:1082100010BDC04670B586B0040007F0BDFB07284E
:1082200007D800282BD007285ED8354A800013587D
:108230009F46642844D0652821D107F0E9FBC82077
:1082400007F0EEFB0023E05E07F0F6FB0223E05EA2
:1082500007F0F2FB0423E05E07F0EEFB0623E05E8E
:1082600007F0EAFB0823E05E07F0E6FB0A23E05E86
:1082700007F0E2FBA08907F0EFFB07F0FDFB06B07B
:1082800070BD07F0ADFBA081F9E707F093FB002379
:1082900005A960800A2201200B8001F0A3FAEEE715
:1082A00007F088FBA080EAE707F084FBE080E6E7C0
:1082B00007F080FB2081E2E707F07CFB6081DEE7CE
:1082C000A5890422A35E0221625E218803950A2605
:1082D000A55F0C4802950826A55F01950625645FF9
:1082E000009408F051FBCAE707F07AFBB423B422EC
:1082F00005A920800B800120520001F073FABEE72F
:10830000B8D50110B8C70110F0B55746DE4646464D
:108310008023C0B55B049A463C4B0E000500170055
:1083200000249B46017E82B018E0002938D06B699A
:10833000AA689B1853453EDA01216B619B133A5999
:108340005A43D3179B059B0D9B1832599B12D31888
:108350003351802304345B009C4250D002290AD060
:10836000E3D96B69032904D12A699B1A002B1EDD0E
:108370006B619B13E3E753466B612B6A6A6A98460D
:108380005B465B6A9A420FD85846806A404501D2E4
:108390009A4209D003232B7680230321DB00CEE70A
:1083A000696100210023CAE78023DB00C7E70023BF
:1083B0006B612B76F5E753466B616B68984603F06B
:1083C00011FDFA2200230090019192004046002105
:1083D00006F07EFE009A019B801859410B00802117
:1083E000020009068B4202D30122094B52426B6202
:1083F00002232B766B6902212A629B139FE702B04E
:10840000E0BCBB46B246A846F0BDC04600400540B1
:10841000FFFFFF7F70B504000B4B0D005A6A616CC3
:10842000006C914205D89B6A834200D370BD914293
:10843000FCD12900201D01F053FE2000290020302E
:1084400001F04EFEF2E7C04600400540F0B5DE46C2
:10845000574645464E468022E0B50700C3B052005D
:108460000C0002A8002107F0BFF8381D02A901F096
:1084700009FE20239846B84443461A7E80235B04B5
:108480009A46424B02AD9B4642AE15E0002A36D0DA
:108490007B6BBA6A9B1853453DDA01227B639B13C1
:1084A00002CD5943CB179B059B0D5B1821689B128E
:1084B000CB1808C4AE4253D0022A0AD0E6D97B6B4F
:1084C000032A04D1396B5B1A002B1FDD7B639B13DE
:1084D000E6E753467B633B6C796C99465B465B6A87
:1084E000994210D85846806A484501D299420AD02C
:1084F00003234246137680230322DB00D0E77A630E
:1085000000220023CCE78023DB00C9E7002342469A
:108510007B631376F4E753467B637B6A994603F0EB
:1085200061FCFA220023009001919200484600214C
:1085300006F0CEFD009A019B801859410B00802166
:10854000020009068B4202D30122114B52423A64C7
:108550007B644246022313767B6B02229B139FE7C8
:10856000B86CFB6C0B4AC018C117430BC904B86444
:108570001943C004002305F07FFF786043B0F0BCCE
:10858000BB46B246A946A046F0BDC04600400540E5
:10859000FFFFFF7FC05D0000F0B55746DE464E4648
:1085A0004546E0B507005D4B0C005A6AF96C806CDB
:1085B000C5B0914200D9A6E09B6A834200D29FE0F9
:1085C00080220021520004A807F00EF8380004A908
:1085D000543001F057FD70239946B9444B461A7E3A
:1085E00044AB9A4680235B0484269846CB4604AD70
:1085F00015E0002A38D0BB59BA6F9B1843453FDAC3
:108600000122BB519B1302CD5943CB179B059B0DF8
:108610005B1821689B12CB1808C4AA4559D0022ABE
:108620000BD0E6D9BB59032A05D1802179585B1AB2
:10863000002B20DDBB519B13E5E74346BB513B00BC
:10864000903319685868354B8C46596A88420FD860
:108650009B6A634501D288420AD003235A461376A7
:1086600080230322DB00CEE7BA5100220023CAE7B1
:108670008023DB00C7E700235A46BB511376F4E79B
:108680004346BB517B6F039303F0ACFB90229146B2
:10869000FA2200230090019192000021039806F035
:1086A00017FD009A019B801859410B0080210200A0
:1086B000B94409068B4202D30122194B5242494662
:1086C0000A604B605A4602231376BB5902229B1361
:1086D00099E798239C22F858BA588018C117F85087
:1086E000C904430B0F4A1943C004002305F0C4FE1C
:1086F000786545B0F0BCBB46B246A946A046F0BD81
:10870000914200D05CE7380021000C3001F0E8FC19
:1087100038002100283001F0E3FC51E7004005401B
:10872000FFFFFF7FC05D000010B50400303001F096
:1087300065FD002001F056F901232370044B8022CF
:10874000636100235200A3501432A35010BDC046F1
:108750008813000010B50400002001F043F9012344
:108760002370044B8022636100235200A350143213
:10877000A35010BD881300000223F0B5037000233E
:10878000C3614362234B83B004000A20185E06F0E5
:1087900021F902000B0006F08DF8060020690F0099
:1087A00006F018F902000B003000390006F0A9F8B5
:1087B000060060690F0006F00DF902000B003000A2
:1087C000390006F080F806F04DF90025A06230343B
:1087D000802001F007F92000002365220021009588
:1087E00001F02EFF2000002364220121009501F0FA
:1087F00027FF2000002301220021009501F020FF27
:10880000FA220023012120000095520001F018FFF8
:1088100003B0F0BD44140020002310B50370002005
:1088200001F0E0F810BDC046F0B5DE464E464546C4
:108830005746E0B505003035040085B0280001F04A
:10884000F7FEF022854EA25833689A4200D1A3E089
:108850002700F0377A68934200D087E0BB68F86859
:108860009C467F4B596A88426ED97D4BE268596AB3
:10887000A068914261D39B6A834200D272E027696B
:1088800003F0B0FAFA22002302900391920038001C
:10889000002106F01DFC029A039B801859410B0031
:1088A0008021020009068B4202D301226D4B524205
:1088B000E3602378A260002B3FD0012B00D179E048
:1088C000616AA06906F024FCA76AE169A06181469B
:1088D000381C06F01DFC644BE0619B460A229B5E3F
:1088E00080460021381C029306F06EFC029B002893
:1088F00000D187E018009A4606F070FC071C011CA6
:10890000404606F059FC002800D08DE053465842FE
:1089100006F064FC82464146381C06F055FC0028EF
:1089200000D047465146381C06F04EFC002800D1C6
:1089300057464846391C00F0C5FF05B0F0BCBB46A1
:10894000B246A946A046F0BD9B6A63452FD3F023EB
:108950004648E25008F018F8454B1A685B68BA6060
:10896000FB6082E7914200D089E7E6E77B604148FF
:1089700008F00AF803F036FA00233F4A80185941FC
:108980000B008021020009068B4202D30122354BE5
:108990005242BA60FB6068E7354B0122186859689B
:1089A00023005242F0339860D9605A605DE78842F4
:1089B000CDD15AE7F022FF33E358A258934200D0BA
:1089C00060E1002BB9D02700254B0937FF377968C4
:1089D0005A6A38689142B0D89B6A834201D2914268
:1089E000ABD0280001F028FE0028A6D18822520032
:1089F000A3580133A350032B00DC7AE12000FFF7DA
:108A0000BBFE5DE7584206F0E9FB00218246381CB8
:108A100006F0C4FB002800D1F5E05146404606F0C0
:108A2000C3FB002800D1EEE0484606F0F9FB002128
:108A30000700404606F0B2FB002800D0DBE03368B8
:108A4000002B00DCE8E05B0098460C4A0C4E1168F5
:108A5000B044CA0F52185210914617E0CC4700207C
:108A600000400540FFFFFF7F44140020E4C70110D1
:108A700068D80110D4C7011060E3160074140020F8
:108A8000D04700200236464500D1C5E0B4213088E9
:108A90004900C01BB43005F0A1FCB439CB17C9188C
:108AA00059404945EEDC01219F4807F06DFFE06920
:108AB000002106F089FB0200531E9A410023042185
:108AC0000093280001F0BCFD606905F083FF974B1F
:108AD000974A05F016FF05F095FF96236061DB00CD
:108AE000984200DA18008A2360615B00E258013284
:108AF0008A235B00E25000230093002A00DCF6E0AA
:108B00000B2A00DDA7E00021280001F099FD606933
:108B100005F060FF029003915B460A20185E05F0A5
:108B200059FF02000B0005F0C5FE060020690F008A
:108B300005F050FF02000B003000390005F0E1FEA7
:108B400006000F00A06A002106F03EFB002879D045
:108B500080231B06F9183000029A039B05F0B3FE30
:108B600005F080FFA062A56912F024FEA369994672
:108B7000C3175B0DC0184005400DC01A6D4B9C46D5
:108B8000604406F02BFBEA21061C8905206A06F0EA
:108B9000D6FA011C301C06F0D2FA291C06F0B8FAED
:108BA00006F03EFBB4235B00984231DD180006F06E
:108BB00015FB494606F0A9FA051C206906F00EFBD4
:108BC000011C281C06F0BBFA051C606906F006FBB8
:108BD000011C281C06F09FFA5B4660620A255D5F57
:108BE000280006F0FBFAE369071C6842984606F085
:108BF000F5FA82468FE63800B421B430490005F01A
:108C0000EDFB0F001BE7029806F0E8FA071C82E66E
:108C1000C343DB171840CAE70021434807F0B4FEFE
:108C20000023002200930321280001F009FD962370
:108C30006269DB009A4200DA63618A235B00E258D2
:108C4000013A55E7029A039B3000390005F03BFEDC
:108C500005F008FF86E768220021280001F0F0FCFB
:108C6000002000F0BFFE01232370334B802263619C
:108C700000235200A3501432A35000222F4B029223
:108C8000039349E703F0AEF800232D4A260080182D
:108C900059410B00802109360200FF3609068B423C
:108CA00002D30122274B52420CC6F0238026E35800
:108CB0007600A351002B15DD00270023002202219E
:108CC0002800009701F0BCFCA259002300212800D5
:108CD000009701F0B5FC00236622002128000097D0
:108CE00001F0AEFC882300225B00E25025E66722FB
:108CF000B2E70D3AFF3AD21A002100230090280073
:108D000001F09EFC03F06EF800230F4A80185941D1
:108D10000B008021020009068B4202D30122094B7D
:108D200052420CC709E6C046F8C701109999E93FBD
:108D30009A99999900FCFFFF881300000088B340BE
:108D4000C0C62D00FFFFFF7F40420F0070B5050039
:108D50000E00140006F020FE012800D070BD28008F
:108D6000013CE2B2711C303001F062FAF6E7C04615
:108D70002821254B10B51961244900225961244945
:108D8000244C1962002159629962190030315963EB
:108D900019632149214819652149586699656C2153
:108DA0005A5220491A70D96580215C50A0240431A0
:108DB0005A5004315A5204315A5004315A501A4907
:108DC0009A63996719491A661951A421184C9A6631
:108DD0005C5004311A675A67DA675A5004315850A8
:108DE000C02004315A5004315A5004315A500431D1
:108DF0005A50104919500020D821585418315A504F
:108E000004315A5010BDC046602100208813000074
:108E100000003442E0B1FFFF04D60110204E0000F4
:108E2000E0D501108888080011CA0800F8D50110A3
:108E3000AAAA2A00ECD5011030B50B7C0C0085B035
:108E4000012B0DD001238A68A02193408622C905F9
:108E5000D2008B50032323740020002105B030BDC5
:108E60000868002103F0AAFB0223237402F0A2FC8D
:108E7000050002F0B7FF0C22002312184B4180219D
:108E800009068B4202D30122054B52420121029175
:108E9000044928000194009102F090FCDCE7C046F0
:108EA000FFFFFF7F398E001070B504001000626074
:108EB0002160022101F06CFE1349206803F07AFA68
:108EC000002302220821206803F03AFBA368013343
:108ED00000D070BD012008F03BFA21680B4B0C4D0F
:108EE000CB185A425341C2020A332A401B0413438F
:108EF00011221343A022D2059446A0608001604451
:108F0000E36003614160E4E790D003000080FCBFB0
:108F1000FD7F00FF30B583680400A020C0058446B3
:108F20009B01634419609A6001230121237485B079
:108F3000206803F043FB02F03DFC050002F052FF05
:108F40006422002312184B41802109068B4202D370
:108F50000122064B52420121029105492800019449
:108F6000009102F02BFC012005B030BDFFFFFF7F18
:108F7000398E0010037C0200032B03D05A42534168
:108F8000D8B27047A021C9058C46836800209B0198
:108F900063441B69DB01F4D413689B691B07F0D49D
:108FA00010740130EDE7C046002303747047C046DB
:108FB00010B58168027C024807F0E6FC10BDC0468F
:108FC00004C80110F8B5DE4657464E464546334BB9
:108FD000E0B51C68A369DB0620D4314B10259A4606
:108FE0001978002399462F4B2F4F98463A782F4EE9
:108FF000A3691D42FCD12068092A0CD8531CDBB29E
:10900000B0543B701A0000290ED1072B03D13368EE
:1090100043452CD00722A3691D42E9D0F0BCBB46D2
:10902000B246A946A046F8BD052BF4D13379F278B3
:109030001B029B189B109B4614D0B421B078737808
:10904000C001C0188011490005F0C8F9184B1B7801
:10905000002B19D15B4617489BB24A00835201226C
:10906000154B5A544B463B7001210022D3E7802315
:10907000B288DB019A42CDD1B379812BCAD1524655
:10908000803B13703970EFE70A484A00835A5B450A
:1090900001DC9BB2E2E75B469BB2DFE7A045002024
:1090A000EF4C0020A55A0500EE4C0020F43F0020B4
:1090B000F04C002000400020A44500202021074B58
:1090C0001B689A691142FCD1A52220211A609A6975
:1090D0001142FCD140221A607047C046A0450020D2
:1090E0002021094B1A6893691942FCD1A52320213C
:1090F00013600800936918401942FAD1034B1160BC
:109100001870034B18707047A0450020EF4C0020EA
:10911000EE4C00202021074B1B689A691142FCD1BC
:10912000A52220211A609A691142FCD125221A60D9
:109130007047C046A0450020F0B557464E46DE4673
:109140004546264BE0B51B6885B09A465B429B4678
:10915000234B52461B6856469946224B6A361B687B
:10916000214F0393214BFF369846214B53440193E3
:109170005B469B1A013B0293DA452DDB029B1D4D9A
:109180009C19B4212000490005F028F949007B5AB8
:109190009D4200DD1D000134A642F2D1A94518DA36
:1091A0004B46E81A06F01AF8039905F0C8FF06F0D6
:1091B00037F84346188002239C46019B0136E04461
:1091C000B342D9D105B0F0BCBB46B246A946A046D1
:1091D000F0BD43461D80EEE7064DDFE75414002046
:1091E000601400205C14002000400020243D00207A
:1091F000D1020000E02E000070B50C00E121060055
:10920000164D1000C9022A6003F0D4F83000022184
:1092100001F0BEFC2000022101F0BAFC104B2C68CA
:109220009C466444631E9C41143420000D4901F0A7
:109230000FFE0121200001F0E5FD502238212B68AE
:109240009A635A6B34331140802252011343002237
:109250001960054B1A70054B1A7070BDA0450020AF
:1092600000C0FCBFC58F0010F04C0020F14C002066
:10927000F0B5DE4657464E464546E0B5AA4CAB4BE8
:1092800061685A6A206885B0914207D9002005B00C
:10929000F0BCBB46B246A946A046F0BD9B6A8342DD
:1092A00019D302F09FFD0023A14A801859410B00F9
:1092B0008021020009068B4202D301229D4B5242BB
:1092C00063609D4B226003931B78052BDED89B4A7D
:1092D0009B00D3589F469142E3D1D7E7984B994FD3
:1092E0001B689A465B429B46974B52461B68564604
:1092F0009946964B6A361B68FF360293944B984604
:10930000944B534400935B469B1A013B0193DA450F
:1093100000DA04E1019B904D9C19B4212000490022
:1093200005F05CF849007B5A9D4200DD1D000134C8
:10933000A642F2D1A94500DBEEE04B46E81A05F063
:109340004DFF029905F0FBFE05F06AFF43461880C9
:1093500002239C46009B0136E0449E42D7D1002266
:1093600020217E4B7E4C1A7023689A691142FCD1F1
:10937000A52220211A609A691142FCD12522FA20E7
:109380001A60400002F042FC2021226893691942D1
:10939000FCD1A523202113600800936918401942CD
:1093A000FAD1704B116018706F4B039A187002233A
:1093B0006E48137007F0E8FA68E76D4807F0E4FAC2
:1093C00002F010FD00236B4A801859410B008021E8
:1093D000020009068B4202D30122564B52420CC4B2
:1093E00001225E4B1A700523039A13704EE7624800
:1093F00007F0CAFA02F0F6FC0023604A80185941CF
:109400000B008021020009068B4202D30122494B46
:1094100052420CC40423039A137037E7584F4C4848
:10942000B4243900BC4600230700564E454DA40025
:109430000A78002A42D0EA5A002A3FD0F85A9042CD
:109440003CD9F25202330131A342F1D16746B42232
:1094500038000021520006F0C7F84B4BB1460427F4
:10946000DF5F4A4B1B689B461D000023984669330B
:10947000FF3346469A46C84606E002239C4601361C
:10948000E144013556454CD04B461B88BB42F4DACB
:109490005B46002BF1DD340002E00134AC42ECD03D
:1094A000B4212000490004F099FF434649005B5A6B
:1094B0009F42F2DA4B46284A1A80DEE7264A0131FB
:1094C000F2520233A342B3D1C0E72021244B1A68E1
:1094D00093691942FCD1A5232021136008009369E8
:1094E00018401942FAD11F4B116018701E4B1870AA
:1094F00002F078FC00231F4A801859410B0080219C
:10950000020009068B4202D301220A4B52420CC4CC
:109510000223039A1370B9E643461D8018E70E4DE7
:1095200008E70120B3E6C046781B00200040054054
:10953000A0860100FFFFFF7FF14C002008D601103C
:109540005414002000400020601400205C1400200F
:10955000243D0020D1020000E02E0000F04C00204D
:10956000A0450020EF4C0020EE4C002040C8011028
:1095700030C8011040420F0020C8011000093D0012
:10958000A4450020D042002044140020581400209C
:109590007047C046F0B5CE464746040003000D00B4
:1095A000002180B587B016000091021D21003848C7
:1095B000083306F06BFA002804D107B0C0BCB946E6
:1095C000B046F0BD636827689846A3680124AC40A4
:1095D0009946220023004146380006F0F5FB2200A0
:1095E00023004146380006F043FC2A4B2800F918B6
:1095F0004B1E9941063101F0CBFA80235B020293A6
:109600004B464A460333D2011B031343224A05202B
:1096100013408022D2051343204A0393204B2A4053
:109620001343AD022B4305931E4B049303F05AF9E9
:1096300005F0CFFD041CF00005F0CBFD011C201C43
:1096400005F069FD051C05F01DFE84B20023002C09
:109650000ED0200005F0BDFD011C281C05F055FDB5
:109660008721C90505F06BFD05F00CFEC3B21B0296
:1096700024044A4641461C43380002AB029406F0DB
:109680009FFC012341468B403A6813433B6094E7BB
:1096900020D601100000E0AFFFFFFF9FFF83FFFF18
:1096A0000000104000000C4010B504684068012222
:1096B000030010339A4063681A42FCD104308000E2
:1096C000015110BD0EC8064810B58446042482B06E
:1096D00061440448090D009407F056F902B010BD2A
:1096E0000000E0AF50C80110962110B502484900B3
:1096F00007F0C8FE012010BDB01C002010B5037893
:10970000282B39D006D9292B28D0642B01D107F07A
:10971000F9FE10BD0A2B0ED0142BFAD18378C17834
:109720001B0609040B43017942781C4C0902920084
:109730000B431351EDE74378002B2BD0184B1A68DD
:10974000164995200B00C00008181A605A600833AB
:109750009842FAD19523DB00CA50DAE78378427841
:109760001B021343C27812041A4303791B061343E6
:109770000B4A1BBA1360CCE7837842781B02134371
:10978000C27812041A4303791B061343054A1BBA15
:109790001360BEE7034B1A68D2E7C046B01C002036
:1097A000641400207836002000B5002185B0022026
:1097B00001F018FA0021022007F0DCFD01F0FAFFA9
:1097C000054B064A029300230193054B00930023A7
:1097D00002F0B2F805B000BD601B0020204E000072
:1097E000E9960010F0B557464E46DE464546304BEA
:1097F000E0B59C461E88962304000F0083B05B00F2
:109800009E4200DD1E002B4B2B4D952019682B002E
:10981000C00028181960596008339842FAD195237E
:10982000DB00E950002C3BDDD30F9B185B105B4243
:1098300000936346100002229B5E70439B461F4BC1
:109840001B6899461E4B98422ADBB421490004F05C
:10985000C5FD6400BA462300804653440193534635
:109860001888009BB4219C466044584449007043CA
:1098700004F0B4FD3100801904F0B0FD00240F00A5
:10988000E019310004F0AAFD4B46890001346B5009
:10989000A045F5DA02239C46019BE2445345DED104
:1098A00003B0F0BCBB46B246A946A046F0BDC046D8
:1098B0004414002078360020B01C002064140020DE
:1098C00099FEFFFFF8B5CE464746884680B53C492D
:1098D000814605F063FC002847D00021484605F08A
:1098E00073FC002867D0484605F0D8FC04000D0042
:1098F0004046344905F052FC002840D1314BC22685
:10990000EA279846304B988905F064F800222F4BDF
:1099100004F0D9FF2B00220004F0F3FF05F096F8C5
:109920002B4B020A9870DF701E715A7006F070F8A7
:10993000652006F075F884214846C90505F0FFFB4F
:1099400005F06EFC00B206F077F884214046C905A8
:1099500005F0F5FB05F064FC00B206F06DF806F0CA
:109960008BF8C0BCB946B046F8BD154B00249946EB
:10997000164D4046134905F011FC0028BED0404664
:10998000144905F021FC002810D0404605F086FC63
:10999000114A124B04F0B5FF0022114B04F08AFF6C
:1099A00005F054F8070AFFB2C6B2ABE7094B3E26F2
:1099B00015279846A6E70023002400259946D8E7F6
:1099C0000000B4430000B4424414002000807640FC
:1099D000F03700200000B4C2ABAAAAAAAAFA7240CB
:1099E0000000E040014B18727047C046F03700207D
:1099F000F8B508220A212748FEF796FE0023264DD7
:109A0000A0262B80254B264C9C46760165442000E1
:109A100005F0E4FB234905F092FB05F049FC2249DF
:109A200005F08DFB05F0FCFB2F1902343880B442A1
:109A3000EDD10E2001F0E6F8D02480232406DB01CE
:109A4000A362002201210E2001F0BAF80B2001F0E0
:109A5000D9F880231B016362A361144B04221968A7
:109A60001348FFF721FA052001F0CCF820236362A8
:109A7000A361FFF799FE0F4B0D211A680C20FFF729
:109A8000BBFBC82002F0C2F801220B4B1A7007F092
:109A90000DFCF8BD60210020CC24002000FCFFFF5D
:109AA00002040000DB0FC93A00FEFF4668140020E4
:109AB000DC3700206C140020F14C0020F8B54C4C31
:109AC0004C4B61685A6A2068914226D89B6A83424F
:109AD0004FD30121484A13784B40137051D0D02303
:109AE00080221B0692045A61444B1D6802F07AF9E9
:109AF000FA2206000F00002392002800002105F042
:109B0000E7FA801979410B008021020009068B4297
:109B100002D301223A4B52420CC4D0231B065A688E
:109B200038490B6852041BD5002B35DD013B0B6017
:109B3000354B1978354B1A788A4203D0344819705E
:109B400006F022FFFFF794FB002831D13148FEF7E1
:109B50006BFE314C2000FFF70DFA002821D1F8BD33
:109B6000FA229200934212DA01330B60264B1978E5
:109B7000E0E79142D1D001211F4A13784B40137086
:109B8000ADD1D02380221B0692049A61ACE701225A
:109B90001D4B01211A70CDE700221B4B00211A70CA
:109BA000C8E7802220001D495200FFF7B3F9D6E72D
:109BB0001B4800F0D5F905F02BFF642005F030FFBD
:109BC000184E194F33683D000024002B07DD28880C
:109BD00005F042FF336801340235A342F7DC05F09B
:109BE0004BFF124B39001A683068FFF7FBFDADE7F9
:109BF000801B002000400540E24C00207014002033
:109C0000FFFFFF7F7C370020E64C0020E74C002060
:109C10006CC8011060210020DC370020F0370020E4
:109C2000D0420020CC470020D047002074140020F0
:109C3000F8B504000D0005F0AFFE992813D863288D
:109C400009D8431EDBB21D2B1AD81E2818D88D4AFE
:109C5000800013589F466438C0B2352810D88A4A0D
:109C60008300D3589F4603003833DBB2042B07D858
:109C70003730C0B2032840D8844B80001B589F4621
:109C8000834806F081FE002D08D00026814FA15D9B
:109C90003800013606F078FEAE42F8DB0A2006F006
:109CA00047FE07E005F09CFE7B4B01001A5C7B48F9
:109CB00006F06AFEF8BD05F093FE04F08BFE00226C
:109CC000774B04F01EFE04F0CDFE041C05F072FE7E
:109CD00004F080FE0022724B04F013FE04F0C2FE7A
:109CE000011C201CFFF7EEFDE4E76E48FFF75CF96E
:109CF000E0E76C48FFF75CF9DCE705F071FE040073
:109D000005F04AFE644B1855D4E705F045FE830084
:109D1000654A1B185B001360CCE705F03DFE052883
:109D2000C8D8624B80001B589F46B923604F9B00E8
:109D30003D009C4600261435674405F069FE14205A
:109D400005F06EFE2C00F0B205F06AFE143C20888F
:109D5000023405F081FEAC42F9D1143505F08CFED9
:109D60000136BD42E9D1A5E7B923524F9B003D0022
:109D70009C4600261435674405F04AFE152005F080
:109D80004FFE2C00F0B205F04BFE143C208802344C
:109D900005F062FEAC42F9D1143505F06DFE0136D6
:109DA000BD42E9D186E7B923434F9B003D009C4665
:109DB00000261435674405F02BFE162005F030FE12
:109DC0002C00F0B205F02CFE143C2088023405F083
:109DD00043FEAC42F9D1143505F04EFE0136BD42CA
:109DE000E9D167E7013DE9B2601CFFF787FC61E755
:109DF000013D3248EAB2611CFEF70CFA5AE7013D18
:109E00002F48EAB2611CFEF7A1FF53E705F0E8FD19
:109E10002C4B18604EE72A48FEF79CFC4AE705F0F9
:109E2000DFFD294B186045E706F0FCFD42E72448BA
:109E3000FEF7F2FC3EE72248FEF79EFC3AE705F00B
:109E4000CFFD1F4B586135E705F0CAFD1F4B186069
:109E500030E703221E4B1A702CE7FFF76DF929E754
:109E6000FFF73EF902221A4B1A7023E7FFF752F967
:109E70000022174B1A701DE7FFF720F91AE7FFF7CA
:109E800087FB17E730D60110ACD6011084D701103C
:109E900080C8011088C80110F037002074C8011074
:109EA0000000A03FDC3700207014002094D7011080
:109EB00000400020243D0020D04200204414002017
:109EC0006021002054140020581400206014002049
:109ED000F14C0020F0B585B00A0001A90C00114B2F
:109EE000E0CBE0C40378452B08D00A2A04D90B2222
:109EF00010F0BEFB002806D005B0F0BD411C0A489A
:109F000006F042FDF8E7094806F03EFDFFF702F9CA
:109F1000FA20400001F07AFE07F0D6F9FFF7E0F8EA
:109F2000EAE7C046A8C801108CC8011094C8011007
:109F3000B42110B50348890007F05AF90248FEF72A
:109F400063F910BD243D0020441400200122034B7E
:109F500052429A6000221A747047C046DC370020D3
:109F6000F0B5DE4657464E4645460022E0B58346EC
:109F7000B4264049404B0A6004201A5E3F489C4684
:109F80000027002415005B46006887B0760002E0D9
:109F90000134B4426AD062009A5A0137AA4200DA08
:109FA0000027B842F4DAAA466825FF359B46634687
:109FB000AC424BD008229B5E314A0393B4235B0032
:109FC00098460023002699460025A0440293049257
:109FD00000900193059109E0002D3ED10123002757
:109FE0009946019101350134A0452AD0B4212000C1
:109FF000490004F0F3F95A464B009B5A9A45EBDCB2
:10A000000137002DEFD0009BBB422ADC132E18DC59
:10A010004B46D80F019B48449C46039B401060442C
:10A02000B4219C464900604404F0D8F9049B751C97
:10A0300076009953012301342E0002930025A04598
:10A04000D4D1029B0599002B00D00E6007B0F0BC64
:10A05000BB46B246A946A046F0BD0027009BBB42C6
:10A06000D4DD01239C460125E144BCE79B46AA467A
:10A0700063469FE7CC47002044140020741400205E
:10A08000D04700208022F0B54D1C8668134CFF3568
:10A09000120514E0F8273F06BC46634443601F14D2
:10A0A000DB175B0DFF187F057F0DFB1A5B00E35E7E
:10A0B0000F6873431B14FB1808C1A9420DD08769B0
:10A0C0000368DB194768DB199342E3DA002BE5DA12
:10A0D00080273F05BC466344E0E7F0BDCC24002068
:10A0E000802270B54C1C8568FF34120510E0F826FC
:10A0F0003606B44663440E4E4360B446DB121BB2D0
:10A1000063446B430E681B14F31808C1A1420DD0C1
:10A11000866903689B1946689B199342E7DA002B0E
:10A12000E9DA80263605B4466344E4E770BDC046EC
:10A130000080FFFF0022024B1B605B609A6070474B
:10A14000501B0020F8B5CE4647461E00234B80B575
:10A150000700180099460D00140008F0BBF8204BCA
:10A160009846002822D11F4B1800994608F0B2F8F3
:10A170001D4F002826D121002A001C483E7007F000
:10A1800033FB01211A4C3A0020604942404607F057
:10A1900057FB00281FD00021206807F0D9FC0120C0
:10A1A00007F070FCC0BCB946B046F8BD48461F6019
:10A1B00008F0ACF80B4B1800994608F08BF80A4FE2
:10A1C0000028D8D0042238000A4905F013FA48467E
:10A1D00008F09CF8CFE7084802F0E4FCA424002033
:10A1E00080140020A8240020D834002078140020F7
:10A1F0000848002010DB0110B4C8011070B504003D
:10A2000015000B00032240210648FFF79BFF2900A1
:10A21000200000F079FA044B04481C6008F02EF886
:10A2200070BDC046C05D0000AC24002021A6001017
:10A23000F0B5C64600B50B78040084B0092B0BD8E6
:10A2400005F0AAFB02281DD0032846D0012806D01D
:10A2500004B080BCB846F0BD00F056FBF8E7A0693A
:10A2600005F01CF84E4A4F4B04000D0004F049FB6A
:10A270000B004D490200009401954C48029106F0F4
:10A2800083FBE5E705F096FB04F0A8FF8A21C905EA
:10A2900004F055FF8F21C90504F051FF444904F033
:10A2A0003AFF04F0BDFFE06205F084FB606305F057
:10A2B00081FB04F093FF8A21C90504F040FF8F2140
:10A2C000C90504F03CFF3A4904F025FF04F0A8FF5B
:10A2D000A06405F06FFB2065BAE705F05DFB02287E
:10A2E00048D0032813D00128B2D101F07BFD002310
:10A2F000304A801859410B008021020009068B4228
:10A3000002D301222C4B5242A266E366A0E705F07D
:10A3100051FB050005F04EFB2700060005F04AFB47
:10A32000264B90377D608046BB606D08002D00DCB9
:10A330000125802069004919C900400404F04EF845
:10A3400000237B6101333B763202B7333861E25040
:10A3500043461B49980304F041F8BC23F117E05031
:10A36000C904730B1943164A0023F00404F084F85F
:10A3700060676DE72300114A90339A6078225A6033
:10A38000220000210F48A03210605160C820012235
:10A390000D4900029862D9621A760C4B636757E741
:10A3A000333333333333A33F6A0A0000E0C801106C
:10A3B0000080BB46801A0600FFFFFF7F22220200BA
:10A3C000C05D0000822D0000550D0000111100003D
:10A3D000F0B5DE46454657464E46E0B5884C894BBB
:10A3E000A5440121040004901868059307F01CFAA5
:10A3F000036800215A6880460792802208A852000C
:10A4000005F0F2F801F0EEFC7F4B03915A6AE16E21
:10A410000290A06E914200D9E5E09B6A834200D28F
:10A42000DEE080220021520048A805F0DDF8049CFF
:10A4300048A920007430FFF725FE88AB9946802399
:10A440005B049B46704B90349A46434608AE227E8E
:10A4500027003500B04648AC069315E0002A34D0FA
:10A460007B69BA689B185B453ADA01227B619B13D2
:10A4700002CC5943CB179B059B0D5B1829689B1297
:10A48000CB1808C54C454ED0022A0AD0E6D97B69C4
:10A49000032A04D139695B1A002B1DDD7B619B13F4
:10A4A000E6E75B467B615346796A5B6A386A9942A4
:10A4B0000FD85646B66A864201D2994209D0032384
:10A4C0003B7680230322DB00D2E77A61002200235F
:10A4D000CEE78023DB00CBE700237B613B76F5E70B
:10A4E0005B467B617E6801F07DFCFA2200230090D0
:10A4F000019192003000002104F0EAFD009A019BD6
:10A50000801859410B008021020009068B4202D3BA
:10A5100001223E4B52427B6202233B767B693A62C8
:10A520009B130222A4E7069B4646BC229846B8230A
:10A53000049CE058A2588018C117E050C904430B8E
:10A540001943334A0023C00403F096FF4346D968F9
:10A550006067002911D08020079A49002D4C5118BE
:10A5600000023368A34200DA2A4B834200DB2A4B05
:10A570001380023204368A42F3D101F033FC029B8D
:10A58000039C049FC01AA141BE6904F027FE311C40
:10A5900004F0BBFD04F082FE0022204B04F0B1F970
:10A5A0000400301C0D0004F079FE02000B002000B6
:10A5B000290004F07FF904F055FA43464246DB686F
:10A5C000B8619360059B4146186807F01FF989231D
:10A5D0009B009D44F0BCBB46B246A946A046F0BDD8
:10A5E000914200D01DE7049C08A920002C30FFF701
:10A5F00077FD200008A94830FFF772FD11E7C0463B
:10A60000DCFDFFFF0848002000400540FFFFFF7F02
:10A61000C05D00000180FFFFFF7F00000000B03F31
:10A6200010B5024C2068FFF7D3FEFBE7AC240020F6
:10A6300010B500F0DBF810BD10B500F0BBF810BD90
:10A6400010B50400042914D8264B89005B589F4696
:10A6500001F0C8FB0023244A801859410B008021D7
:10A66000020009068B4202D30122204B5242A2660D
:10A67000E36610BD03009033002A1FDD1C4A002151
:10A680009A6078225A6002001A48A0321060516025
:10A69000C8200122184900029862D9621A76174B25
:10A6A0006367E6E70121D2B200F048F8E1E791B232
:10A6B00000F058F8DDE700F06BF8DAE70C4A00210B
:10A6C0009A6078225A6002000A48A03210605160F5
:10A6D000FA2001220A4980029862D9621A76094B4F
:10A6E0006367C6E7ACD70110801A0600FFFFFF7F43
:10A6F00022220200822D0000550D000011110000E1
:10A70000ABF2FFFF55550000962210B507489201A5
:10A71000FEF740FFC822064C0649D20106482160D8
:10A72000626006F031F90023A36010BD9447002059
:10A73000CC34002000381F10FCC80110836870B5AD
:10A7400004000D0016001F2B0BD80C2004F058FF3E
:10A75000290489198160210007F0A0FEA368013354
:10A76000A36070BD836870B504000D001F2B0DD869
:10A770000C2004F045FFFF231B069C466544210086
:10A78000856007F08BFEA3680133A36070BDC046EF
:10A7900070B504680500844206D0200024680C21AE
:10A7A00004F032FFAC42F8D100236D602D60AB6045
:10A7B00070BDC0460C4A30B5516A44690300056952
:10A7C00001208C4207D8926AAA4205D31868C01AA1
:10A7D000431E9841C0B230BD8C42FCD01868C01AEC
:10A7E000431E9841C0B2F6E700400540F0B50400B2
:10A7F000C646414B6269596A00B50069914226D349
:10A800009B6A834226D32568A54220D0A368AE6800
:10A81000013BA360280007F047FE0C21280004F04C
:10A82000F3FE330E19D0FF2B50D0FA260027B600C6
:10A8300001F0D8FA801979410B0080210200090645
:10A840008B4202D301222D4B52422261636180BCB4
:10A85000B846F0BD9142D6D1F9E7330C632B40D80E
:10A86000002B45D0DAB29046013B1F02244D7E21D9
:10A870002800FEF719FFFF212800FEF715FF06212B
:10A880002800FEF711FF0F212800FEF70DFF002121
:10A890002800FEF709FF41462800FEF705FF2800C3
:10A8A000F1B2FEF701FFEF212800FEF7FDFEFF23C6
:10A8B000144933408A68DB195B00002A16D09B18C4
:10A8C0001B889800C0184000323001E03004000CB2
:10A8D000FA2200230021920004F0FAFB06000F0088
:10A8E000A6E7C4276323FF019846BFE70A68E6E7A7
:10A8F000012300279846B9E700400540FFFFFF7F8E
:10A9000094470020CC340020F0B583B0040005F05B
:10A9100043F80A38C0B2282828D8964A8300D3586A
:10A920009F4605F05DF80500934C7E212000FEF760
:10A93000BBFEFF212000FEF7B7FE06212000FEF738
:10A94000B3FE03212000FEF7AFFE00212000FEF73A
:10A95000ABFE290AC9B22000FEF7A6FEE9B220002C
:10A96000FEF7A2FEEF212000FEF79EFE03B0F0BD31
:10A97000824B60695A6A01212569904208D89B6A16
:10A98000AB4201D2904203D02168091B4B1E994172
:10A990007B4805F0F9FFE9E77A4FBB68002BE5D16A
:10A9A0007C680221200004F0C7FD6100B860764891
:10A9B00005F0EAFF7B68002BD8D000243B68B8681C
:10A9C000610040180222C91804F014FE7B680134AB
:10A9D0009C42F3D3CAE705F003F86B460A24694F9B
:10A9E00046009D1D04F0FCFF2880B868002804D0B4
:10A9F00002222900801904F0FDFD013C0236002CE2
:10AA0000F0D1B3E75F4CA368002BAFD0EFF3108514
:10AA100072B6F0231B069C466168206849006044BA
:10AA200011F082FEF0231B069C4662682068A16834
:10AA30005200604411F048FE85F31088A068002899
:10AA400000D193E704F0B8FD0023A3608EE704F083
:10AA5000C7FF4C4A01009368002B00D186E04200FA
:10AA60009B181A88494805F08FFF7FE704F094FF90
:10AA70000500414C7E212000FEF716FEFF2120003C
:10AA8000FEF712FE06212000FEF70EFE0621200032
:10AA9000FEF70AFE00212000FEF706FE002120003E
:10AAA000FEF702FE291C1E2D4FD8C9B257E73248C7
:10AAB000FEF708FE5AE704F06FFF2F4B0100180065
:10AAC000FEF7F2FD52E704F067FF050004F064FFB3
:10AAD000294C7E2106002000FEF7E6FDFF21200024
:10AAE000FEF7E2FD06212000FEF7DEFD0F2120002B
:10AAF000FEF7DAFD00212000FEF7D6FD002D22D062
:10AB0000E9B263291DD82000FEF7CEFD310026E70B
:10AB100004F042FF060004F04DFFA368051E17DB9A
:10AB20001F2B00D922E70C2004F06AFD3604EDB299
:10AB300076198660210007F0B1FCA3680133A36099
:10AB400014E76321DFE70121DDE71E21C9B206E733
:10AB50001F2B00D90AE70C2004F052FDFF22120639
:10AB600094466B429BB263448360E3E71268430000
:10AB70009B1876E7C0D7011094470020004005409D
:10AB80005CC90110CC34002024C9011048C901104F
:10AB9000094A10B594464024830063441A68C000F3
:10ABA0006240803414408022520113431C60034BE6
:10ABB0009C466044416010BD04C00140004001401B
:10ABC000074B80009C4660440368C90092000A431A
:10ABD0005A400C231A4080235B0103431A607047DC
:10ABE00004C00140064B80009C4660440368090194
:10ABF0005940802330225B010A4003431A607047AA
:10AC000004C001400123D022834012069362936165
:10AC1000094A40219446830063441A68C0004A40B0
:10AC2000803111408022520113431960034B9C462E
:10AC3000052360444360704704C001400040014068
:10AC4000024B18688007C00F7047C04600C006401E
:10AC5000EFF3108072B6034A1368002BFCD0BFF3E9
:10AC60005F8F70472C0100D0BFF35F8F0022024B33
:10AC70001A6080F3108870472C0100D070B5EFF394
:10AC8000108C72B60D4D2B68002BFCD0BFF35F8F7C
:10AC90000724CB08C618C05C01230C40A3401C004D
:10ACA0000440034207D118433070BFF35F8F2C601C
:10ACB0008CF3108870BD100001F074FF2C0100D0DF
:10ACC000F8B54746CE46884680B5EFF3108C72B68D
:10ACD000214D2C68002CFCD0BFF35F8F9A422CD8FA
:10ACE000D4080727055D061901241740BC402C42F3
:10ACF0001FD007210127894609E0D408055D061900
:10AD00004C4639001440A1400C00294211D00132B8
:10AD10009342F2D201204042BFF35F8F00220E4BDC
:10AD20001A608CF3108800280FDBC0BCB946B0460F
:10AD3000F8BD254310003570EEE7BFF35F8F0023A9
:10AD40002B608CF31088012040424346002BECD04E
:10AD5000089801F027FFC0462C0100D030B5EFF372
:10AD6000108C72B60A4C2368002BFCD0BFF35F8FA7
:10AD7000072301220B409A40CD08435D934343557E
:10AD8000BFF35F8F002323608CF3108830BDC04673
:10AD90002C0100D00021044B044ABFF35F8F02C393
:10ADA0009342FAD17047C046000100D0800100D024
:10ADB000044B9C4660448000BFF35F8F0023036018
:10ADC0007047C04640000034044A1078431CDBB290
:10ADD000172B00D9102313707047C0468814002029
:10ADE00010B5064B064C82B00100009318221F23B9
:10ADF0002000FFF765FF02B010BDC0466CC901100E
:10AE00008037002001238340002904D0034A1360C7
:10AE1000034A13607047034A1360FBE780E200E0D7
:10AE200000E100E080E100E001228240034B1B686A
:10AE300013405A1E9341D8B27047C04600E100E06B
:10AE4000024B10309B688000C058704700ED00E056
:10AE500070B50D00EFF3108672B60F4A1368002B21
:10AE6000FCD0BFF35F8F0D4B10309B6884001B59E3
:10AE70000B4A934203D09D4201D001F0ABFE074B39
:10AE80009B681D51BFF35F8FBFF35F8F0022024BA2
:10AE90001A6086F3108870BD240100D000ED00E038
:10AEA000CD800010EFF3108172B60E4B1A68002AA5
:10AEB000FCD0BFF35F8F0C4A10309268800080583E
:10AEC000BFF35F8F00221A6081F31088074B98420E
:10AED00006D02F23064A821A93429B41184070479E
:10AEE0000020FCE7240100D000ED00E0CD80001040
:10AEF0008C140020F0B557464E46DE464546E0B578
:10AF000085B0060000911700EFF3108B72B66A4A05
:10AF10001368002BFCD0BFF35F8F0025674B5D5794
:10AF20009A46002D00DAA9E06B00654C01935B198D
:10AF30009B009846A146C1444B4652469B79103629
:10AF40001370604BB6009B6899590B1B2F2B33D99C
:10AF50005D4B994200D0ACE0019B42469C465B4B66
:10AF60006544AD0063535A4B0232A218043B9B1A4E
:10AF70001B05584A5B0D651913436B80564B012125
:10AF8000AB80FF23AB71009BEF71AB604B460B4373
:10AF900019004C4B9B689951BFF35F8FBFF35F8FD4
:10AFA0000022454B1A608BF3108805B0F0BCBB46FD
:10AFB000B246A946A046F0BD01200A008243D379DB
:10AFC0008C46BB4231D84546130044491B1B5B41AC
:10AFD0005943090D3D4B63533D4B02356519043B05
:10AFE0005B1B1B053B4D5B0D2B43AA464D466B80FF
:10AFF0000425AC465546E044131F44441B1B1B0567
:10B000005B0D1D434B46997100999D80996049469F
:10B01000DF71334B01431360BBE75800C018800059
:10B020002018C179B9422FD902000623D356002B2C
:10B03000F3DA02932B4B61460393131D9A460423C4
:10B040005B429C46E14450464B461B1A1B055B0D78
:10B050009C46204B95719846634640460343938037
:10B06000019B5A199200039BA418A380029B1C4ABF
:10B07000A371009B2260E771A3608AE701F0AAFD3B
:10B08000002553465D574FE7908802934005131DF6
:10B090009A46031561469C464046D44463460430B4
:10B0A0002018181AE0230005400D1B0218430390D6
:10B0B000C5E701F08FFD4FE7240100D0EC4C0020E4
:10B0C0008C14002000ED00E0CD80001000A1FFFFF7
:10B0D000BC14002000E0FFFF01BDFFFFAAAA000092
:10B0E0000148804701BD0000F0B5DE4657464E4698
:10B0F0004546E0B50C0083B0EFF3108872B65D4AA8
:10B100001368002BFCD0BFF35F8F5B4B5B499A68E1
:10B11000030010339F00D5598D4239D0A5424AD043
:10B12000574EAA1B2F2A33D80122924682409146BD
:10B130004846544A1268104001904846524A1060EE
:10B14000BFF35F8FEFF305829346002A35D0934219
:10B1500001D001F03FFD2A0053469A439068844293
:10B1600008D175E04B005B189B00F3189868A0426B
:10B1700034D01A00062151560029F3DA844253D004
:10B18000019B002B26D04A46404B1A603D4B1A606B
:10B19000394B9B68DD51BFF35F8FBFF35F8F002298
:10B1A000344B1A6088F3108803B0F0BCBB46B2463B
:10B1B000A946A046F0BD0D00EAE72A0053469A438F
:10B1C00090688442D6D1062010561300002809DA70
:10B1D0000D0031E04A462C4B1A60D9E7062018567C
:10B1E000002822DB42001118890074188A46A168E1
:10B1F0009960E179D971062161569971002925DBA1
:10B20000A488F11A6405241554440919E024090599
:10B21000490D24022143998013181D4A9B0011787F
:10B22000F31899711070ABE713005946002914D137
:10B23000FF3191711749918015490A789A71164A20
:10B240009B1B5B415A43120D0A7099E71349E2E7D1
:10B250000620105613000028C4DA114A1149D21AE8
:10B26000083A5002400D014399800F4952080A43A1
:10B27000DA8085E7240100D000ED00E0CD800010E9
:10B280008C14002000E100E080E100E080E200E0BA
:10B29000EC4C002001BDFFFFAAAA000001BD000088
:10B2A000C614002000F0FFFF00F8FFFF70B5EFF3B9
:10B2B000058101240443EFF3108C72B6214A136810
:10B2C000002BFCD0BFF35F8F1F4B05001F4AED1A08
:10B2D0006D416A43120D1E4D8900AE6852B2765818
:10B2E000A6421CD00621595691421CD01221595613
:10B2F000914222D01E215956914220D02A215956DE
:10B300000324914210D0134B19781A708171BFF346
:10B310005F8F00220B4B1A608CF3108870BDAB68F6
:10B320000D4C5C50EFE700246100091989005B189F
:10B33000FF21997109499980E5E70124F4E7022486
:10B34000F2E7C046240100D08C140020AAAA000015
:10B3500000ED00E0EC4C0020CD80001001BDFFFFAF
:10B36000054B064A1360064A136053609360D3602E
:10B3700013615361936170478080808000E400E036
:10B3800004E400E070B504000E001500FFF71CFD9A
:10B390000100200000F006F8A680E580BFF35F8F73
:10B3A00070BDC046024B9C466144890001607047F5
:10B3B0004000003410B50400FFF706FD0100200036
:10B3C000FFF7F0FFFF232371BFF35F8F10BDC0466F
:10B3D00010B50400FFF7F8FC01002000FFF7E2FFC2
:10B3E000FF23A380BFF35F8F10BDC04610B50400DC
:10B3F0000120FFF7F5FC034BC3189B002360BFF34C
:10B400005F8F10BD4000003483680B4810B5844640
:10B41000614462441201090159189B185C684A682A
:10B420000120944201D802D00020C0B210BD1A6899
:10B430000B689A42F9D8F7E7FFFFFF0F10B5080035
:10B440000B690C009847002802D02068616810BD85
:10B45000E06000210020FAE70A4B1968EFF3108042
:10B4600072B60A68002AFCD0BFF35F8F1B68BFF377
:10B470005F8F00221A6080F3108840BF00200021F7
:10B480007047C046A44A0020F8B5574645464E4688
:10B49000DE46E0B598460CAB1C780DAB1B78070078
:10B4A00091469A460568002C59D1AC7B002C3BD0C4
:10B4B000660029683619033E89194B78AB73002B57
:10B4C00000D1EB7300238B704B700B702D4BE21887
:10B4D000BB6812019B184A461A6042465A600A9A93
:10B4E0009A600B9ADA6000238B704B700B706B7B49
:10B4F0009B46002B26D022006B685946A8689847C7
:10B500005B465B005B442A68033B002812D0584628
:10B510009619B070D118D35C002B00D073705B46C5
:10B520000C706B735C450ED0F0BCBB46B246A946AE
:10B53000A046F8BDD3189C709119925D002A1CD1C9
:10B540005B460B706C734A464346387D00F0DEFC68
:10B55000051E0AD10E9B002BE6D01D70E4E76600A5
:10B5600029683619033E8919B0E75346002BF1D1FB
:10B570002100386800F0E2FEECE75A705B460B7081
:10B580006C73E0E7FFFFFF0FF0B5DE4657464E460F
:10B5900045460023E0B58BB00893684B8200D45831
:10B5A00000239B46099000F01DFC02000B00606820
:10B5B000EFF3108A72B6564601680029FCD0B246F5
:10B5C000BFF35F8F21684F7B8C46002F2ED0A5687C
:10B5D0005B49A946791809018944494608684968C0
:10B5E00005000E00AD1A9E41002E5FDD02000B002B
:10B5F000099800F08BFC0023002299460023069254
:10B600000793002398466368BFF35F8F5A461A601A
:10B610008AF310884346002B12D10028C3D10BB007
:10B62000F0BCBB46B246A946A046F0BD00230022AE
:10B630009946002306920793002300209846E2E7EC
:10B64000089B494618023843C047626805000E004F
:10B65000EFF3108A72B61368002BFCD0BFF35F8F34
:10B66000002E41DB2B00334302D02369002B56D13F
:10B670002368D97B002905D01A6848004118521860
:10B68000033A57709A7B002A00D19F73DF73E268F8
:10B69000013FD35D0133D3555B4623616368BFF33C
:10B6A0005F8F5A461A608AF310887CE7002E02D119
:10B6B000002D00D09AE70021604600F0BDFD4B460A
:10B6C0001A685B68069207934B469B6898464B4600
:10B6D000DB689946E368DB19013B1B7808931B0282
:10B6E0000343236100208EE72369002BC0D0069A14
:10B6F000079B8021521BB34109068B4202D30122D2
:10B70000104B5242002104910131039149460191AD
:10B710004146200002970091FFF7B6FEBCE700F01B
:10B7200061FB2A00330012184B41802109068B422D
:10B73000E8D30122034B5242E4E7C046F847002019
:10B74000FFFFFF0FFFFFFF7F10B5144C6368002B56
:10B7500004D00A211248FFF725FE10BD2300114A2C
:10B760001021206800F084FC032000F02FFB032050
:10B7700000F034FC03200C4900F082FBFFF724FBAF
:10B780000A4B9C4603232375D0231B061B68604489
:10B790006375074B80006060DC60DAE7D41400203A
:10B7A000A44A002009B4001089B5001040000034FC
:10B7B000F847002000487047D4140020F0B55746E1
:10B7C0004E464546DE46E0B585B0019310AB1B788A
:10B7D0000600039300239A46984600927268EFF39E
:10B7E000108B72B61368002BFCD0BFF35F8F3568E7
:10B7F000AC7B002C00D16EE067002B683F19033F43
:10B80000DB195A78AA73002A00D1EA73484AA118B2
:10B81000B2680901521800980199106051600E99A0
:10B8200091600F99D16042469A705A701A706B7B82
:10B830009946002B00D16BE022006B684946A8684E
:10B8400098474B465B004B442A68033B002856D080
:10B850004846D719B870D118D35C002B00D07B7044
:10B860004B460C706B734C4553D0F3681B19013B6E
:10B8700018787368BFF35F8F42461A608BF31088A5
:10B880005346002B08D10002204305B0F0BCBB4654
:10B89000B246A946A046F0BD039B002B46D00E9BA6
:10B8A00000200F99984703000B433FD004000D1E62
:10B8B0001ADA009A019B121BAB410092019380227D
:10B8C0001206934204D301231A4C5B420093019465
:10B8D000039B9A4682E77368BFF35F8F1C608BF30C
:10B8E000108801204042D0E700F07CFA8022001945
:10B8F00069411206009001919142E9D3E3E7D31820
:10B900009C70D119D25D002A00D05A704B460B7042
:10B910006C73307D009A019B00F0F8FA8246002893
:10B92000A3D02100306800F009FD9EE70020ACE7BD
:10B93000FFFFFF0FFFFFFF7FF0B557464E46DE4685
:10B9400045461100E0B585B006009C46109F19439E
:10B9500000D1E9E06146DB170193009353401C00DE
:10B96000019B4B401D0000980199241A8D416346AC
:10B970000E997B600F9BBE607B6139613A6000F07D
:10B9800031FA8023001969411B0600900191994208
:10B9900004D30123694C5B42009301940023984631
:10B9A000674B1097039300239946109B3700464638
:10B9B00098467A68EFF3108B72B61368002BFCD0B0
:10B9C000BFF35F8F3D68AC7B002C00D179E0630052
:10B9D0001B19033B1A00944602932B6863445A7860
:10B9E000AA73002A00D1EA73564AA118BA6809015D
:10B9F0005218009801991060516003999160414676
:10BA0000D1604A469A705A701A706B7B9A46002B26
:10BA100000D17BE022006B685146A86898475346E6
:10BA20005B0053442A68033B002800D164E0D1182E
:10BA30008C465146029810188170D35C002B00D0C0
:10BA4000437063461C7053466B73350054455ED09B
:10BA5000FB687A681B19013B1B78BFF35F8F49466F
:10BA600011608BF31088002D0CD147461B02234335
:10BA700001352800FB6005B0F0BCBB46B246A946C4
:10BA8000A046F0BD434640461B699847061E24D099
:10BA900043460CCB100018434CD014001D1E1FDA77
:10BAA000009A019B121BAB41009201938022120667
:10BAB000934200D27DE70123204C5B420093019426
:10BAC00077E73E0047467368BFF35F8F1C608BF3D8
:10BAD0001088012300255B42CBE747460023C8E7D7
:10BAE00000F080F98022001969411206009001914E
:10BAF000914200D25DE7DEE70298D3189C701118DE
:10BB0000125C002A00D05A7053460B706C73387D5B
:10BB1000009A019B00F0FAF9051E00D198E7210078
:10BB2000386800F00BFC93E7002301240025012274
:10BB30009C461CE74746350000239AE7FFFFFF7F3E
:10BB40003DB40010FFFFFF0FF0B504000D00062606
:10BB50007642F717C64636196F4100B584B08F425A
:10BB600014D811D000F03EF932003B00121A8B417C
:10BB7000002B15DC002B3ED02000290000F070F9CE
:10BB800004B080BCB846F0BD8642EBD90026002741
:10BB900000F028F932003B00121A8B41002BE9DD3E
:10BBA000002302930193154B3200009314483B008D
:10BBB000FFF704FE0028DFDB00239846BC46114A4D
:10BBC000114F7B6A9C4504D8B96A8E42D4D99C45F2
:10BBD000D2D11168EFF3108072B60B68002BFCD045
:10BBE000BFF35F8F1368BFF35F8F4146196080F327
:10BBF000108820BFE5E7002ABED0D1E759B4001075
:10BC0000D4140020A44A00200040054070B506006E
:10BC100000F0E8F8FA2204000D00002330000021B3
:10BC2000920003F055FA8023001969411B069942DE
:10BC300002D3012002494042FFF786FF70BDC04693
:10BC4000FFFFFF7FF0B5EFF30583CE46474680B593
:10BC500005000C0085B0002B12D02A4A0020536A40
:10BC6000A34203D3926A0130AA4204D305B0C0BCF8
:10BC7000B946B046F0BD1B1B5A1E9341D8B2F5E73A
:10BC8000214E02930193214B0200009330000B00E0
:10BC9000FFF794FD031EE0DD20BF7168EFF310870E
:10BCA00072B60A68002AFCD0BFF35F8FDAB29446FE
:10BCB000FF2230681A40417B61450FD001688946F8
:10BCC0005100884649469044414403398978002907
:10BCD00004D13269934209D1316107E0F1681B0A4E
:10BCE0008A18013A1278DBB29A4207D07368BFF320
:10BCF0005F8F00221A6087F31088AEE7614600F07C
:10BD00001DFBF3E700400540D414002059B4001097
:10BD1000F0B5EFF30582D6464F4646461000C0B553
:10BD20001038EFF3108872B6214C2368002BFCD03A
:10BD3000BFF35F8F0123190081401E4D1F0069630F
:10BD4000AA461D4D29601D4D2E78AC463500C540D4
:10BD50002F402B4215D053465F6A194B8500EB5894
:10BD60009F4218D36246174B8E43EB581670BFF3B1
:10BD70005F8F0022226088F31088002B06D098473E
:10BD800004E0BFF35F8F276088F31088E0BCBA46F9
:10BD9000B146A846F0BD0C4B92009C466244136825
:10BDA0001360BFF35F8F0023236088F31088EDE7F3
:10BDB000280100D0004005403C700540FB4C0020AD
:10BDC000B04A002068360020D03F054010B5034B34
:10BDD00001001800024AFEF751FF10BDE84C002098
:10BDE00088C90110034B596A0A00986A596A8A4245
:10BDF000FAD170470040054070B504000D00174AA5
:10BE0000536A1900966A536A8B42FAD130001900BE
:10BE100024184D41AB4216D813D0104B2A005B6A50
:10BE20009D4203D90D494B6A9342FCD3934207D1FB
:10BE30000A4A02E0516A994202D1916AA142F9D3B9
:10BE400070BDA642E9D9054B5B6A1C005A1CEFD0B5
:10BE5000012201246442E5175242E3E70040054015
:10BE6000064A536A9942FCD807D1044B02E05A6A49
:10BE7000914202D19A6A8242F9D37047004005404C
:10BE800070B504000D00EFF3108672B61A4A1368FD
:10BE9000002BFCD0BFF35F8F002D1BD02000FEF7DE
:10BEA000CFFF164981420AD02000FEF7D1FF0121C1
:10BEB0002000FEF7A7FF0123A340114A1360114B96
:10BEC000A400E550BFF35F8F00220B4B1A6086F38E
:10BED000108870BD0121A1400A4BA200D5500A4B29
:10BEE00020001A788A4305491A70FFF7FDF80021EF
:10BEF0002000FEF787FFE5E7280100D011BD001004
:10BF00003860054068360020FB4C0020F0B54F46F5
:10BF1000D6464646C0B507002B4C616A0D00A66A9E
:10BF2000616AA942FAD18B4208D805D00120E0BC51
:10BF3000BA46B146A846F0BDB242F7D9EFF3108A2F
:10BF400072B6224801680029FCD0BFF35F8F01253B
:10BF5000BD401F491C4C8846097889462943C9B20F
:10BF60008C46414660460870391D890065630A5158
:10BF70001849B8004350216A0020294219D0616A4B
:10BF80000800A66A616A8142FAD18B4219D801D1B0
:10BF9000B24216D8CC450BD00B4B1F221D625D63FD
:10BFA00001233A4093400C4A136043464A461A70B4
:10BFB0000120BFF35F8F0022044B1A608AF31088C0
:10BFC000B5E70020F5E7C04600400540280100D055
:10BFD000FB4C0020B04A002080E200E0EFF3108C20
:10BFE00072B60A490B68002BFCD0BFF35F8F0123A8
:10BFF0008340074A0748136202789A430270BFF3EE
:10C000005F8F00230B608CF310887047280100D0ED
:10C0100000400540FB4C002070B506000D001400E8
:10C0200000291DD0002A12D07368806898476200EA
:10C030006B0012195B193168033A033B002808D0E2
:10C040008A189570C818CB5C002B0BD1047028009F
:10C0500070BDCB189C7088188A5C002A05D10570C9
:10C060002000F5E753700470F1E75A700570F7E7A8
:10C0700010B583600023CCB2437301334260047374
:10C080008373C4730068421C012C05D90133DBB2F1
:10C09000137003329C42F9D1FF230B405A00D3188E
:10C0A000C01800230338437010BDC04670B50500AA
:10C0B0000C1E07D0630001681B19033BCB185A788C
:10C0C000002A01D1200070BD5000801803380918E3
:10C0D00000204E784870210058702800FFF79CFF20
:10C0E000310004002800FFF7E1FF0600002C20D0FB
:10C0F0000028E7D0320021006B68A86898477200DA
:10C10000630092191B192968033A033B002808D0E1
:10C110008A189470C818CB5C002B00D0537006703E
:10C12000D0E7CB189E7088188A5C002A00D05A701D
:10C1300004703400C6E7C046F0B557464546DE46B3
:10C140004E46E0B50D006F0001687F19033F040003
:10C15000C85D83B00192CA19002850D043001B1853
:10C16000033BCB185E78B446002E1AD1019E002EF8
:10C1700042D0E67B002E04D073009B19CB18033B02
:10C180005D70A37B002B00D1A573E57300282FD130
:10C190000023537003B0F0BCBB46B246A946A0468C
:10C1A000F0BD72006244033A8A1851788846002133
:10C1B000517089465970320001002000FFF72CFFB2
:10C1C00043468246002B07D05B0021684344033B73
:10C1D000CB185A78002A16D1424651462000FFF764
:10C1E0001BFF2168019BCA19002BC2D10028CFD0A8
:10C1F00043001B18033BCB1800219970C8E7019B33
:10C20000002BB6D1C4E750008018033809184878CD
:10C21000834648464870587041462000FFF7FCFEB0
:10C22000594680462000FFF741FF414602002000AA
:10C23000FFF7F2FE8046CFE7F0B557464546DE46AB
:10C240004E46E0B583B00191457B04006F00006865
:10C250007F19033FC15DC219002952D04B005B1802
:10C26000033BC3185E78B446002E1CD1019E002EFD
:10C2700044D0E67B002E04D073009B19C318033B07
:10C280005D70A37B002B00D1A573E573002931D12C
:10C29000002328005370617303B0F0BCBB46B24664
:10C2A000A946A046F0BD72006244033A8218507855
:10C2B0008046002050708146587032002000FFF701
:10C2C000ABFE43468246002B07D05B002168434407
:10C2D000033BCB185A78002A17D14246514620001A
:10C2E000FFF79AFE019B01002068C219002BC0D104
:10C2F0000029CDD04B005B18033BC3180020987079
:10C30000C6E7019B002BB4D1C2E750008018033868
:10C3100009184878834648464870587041462000BE
:10C32000FFF77AFE594680462000FFF7BFFE4146E0
:10C3300002002000FFF770FE8046CEE770B50500D2
:10C3400000292CD0437B8B422ED04C00006864180F
:10C35000033C0419A278002A21D053009B18033B08
:10C36000C25CC6188A4202D11BE0002A08D05300E2
:10C370009B18033BC3185A788A42F6D162785A70E8
:10C38000002301222800A3706370FFF7D5FE697BAC
:10C3900002002800FFF740FE6873012000E0002043
:10C3A00070BD63783370EBE701221900FFF7C4FE1C
:10C3B000F2E7C046F8B5CE464746040080B50620F1
:10C3C0000D0000F08FFA061E53D0534B5349E3186B
:10C3D0005A1E93418022120494465B429B0D504AA0
:10C3E0009B05634413604F4A136018008A689043AA
:10C3F000FBD1494B4C4AE31859424B4180215B0029
:10C4000049000620995200F06DFA2900C00002F0A0
:10C410000DF8C30932D14022012190466162A36226
:10C42000266BF30736D427008025E36A00232C37D8
:10C430006D013D432B600620266300F053FA414610
:10C44000800001F0F3FF236B06009846DB073BD426
:10C450006023E26A5A400E3313402B604346236345
:10C46000802310229B013B431A60304B236303233C
:10C47000A3643000C0BCB946B046F8BD2C4A934214
:10C480003FD900232B492C4A6162A362266B904658
:10C49000F307C8D52200C02330329B011343234A3F
:10C4A00006201A60656AA36AAD01ED1800F01AFA59
:10C4B000224901F0BBFFAD020100280001F0B6FFE8
:10C4C0000021FFF799FCAEE72200C02330329B0128
:10C4D0001343164A06201A60636AA26A9B019946B2
:10C4E000914400F0FFF94B4614499B02994601F034
:10C4F0009DFF0100484601F099FF0021FFF77CFCF9
:10C50000A6E77F22990188460240013252081900AD
:10C510009044130082E7C0460080FCBF00C000408A
:10C5200000E0004000F00040D84C00200103000073
:10C53000FEFF0000FFFF0000C0FF3F004E0E0000A6
:10C540000539013AF8B5D2004C0105001443002B1F
:10C5500006D0013B5A4253419B00234302241C4313
:10C560002E6BF3070BD46E22EB6A290063401A404E
:10C5700080232C315B010B431A602E63F8BD2A0027
:10C58000C02330329B0113430A4A06201A606F6AA7
:10C59000AB6ABF01FF1800F0A5F9074901F046FF9B
:10C5A000BF020100380001F041FF0021FFF724FC29
:10C5B000D9E7C046010300004E0E0000F8B5056B38
:10C5C00004000E00EB070BD40121E36A2200734044
:10C5D000194080232C325B01134319602563F8BD99
:10C5E0000200C02330329B0113430A4A1A60476A93
:10C5F000836ABF010620FF1800F074F9064901F0B4
:10C6000015FFBF020100380001F010FF0021FFF705
:10C61000F3FBD9E7010300004E0E000010B50C201B
:10C6200082B000F0B7F9FEF70BFB002810D08B4B5F
:10C630008B488B498B4A186059609860D9601861A3
:10C6400059619861D961186259625A6202B010BD8D
:10C65000854CA06700F0F4F90122844B1A60636CEA
:10C66000012BFCD10322824B1A607F4A936B012B72
:10C67000FCD1013301217F4A7F480093043300F04D
:10C6800037F905237D4A009301217D4800F030F9F8
:10C690007C4B5A68FF2A02D8802252005A608022BE
:10C6A000734B6E4C12011A602169002907D0606932
:10C6B00001F0BCFE013043001B18033BFDD2E02219
:10C6C000704B714819680A40026002221968514093
:10C6D00001320A40042102609A681142FCD0802194
:10C6E0006A4A09011160802252005A60684B236136
:10C6F000684B5968FF2900D85A60032201215B4B1F
:10C700001A60644A93681942FCD0E0231068034021
:10C7100061480360126803234A40022113405D4AC6
:10C72000036093681942FCD080215C4B09011960B9
:10C7300080215B4B4900516063615A4B5A68FF2A64
:10C7400000D859608022584B12011A60E169002913
:10C7500007D0606901F06AFE013043001B18033BFB
:10C76000FDD2E0234F4A11680B4050490B608021F5
:10C770004F4B090119608021394B49005160E36139
:10C780004C4B5A68FF2A00D8596080224A4B12014C
:10C790001A60216A002907D0606901F047FE013064
:10C7A00043001B18033BFDD2E023424A11680B40B3
:10C7B00042490B608021424B0901196080235B00D4
:10C7C00053608022264BD20223623E4B596891422D
:10C7D00000D25A6080223C4B12011A60616A002923
:10C7E00007D0606901F022FE013043001B18033BB3
:10C7F000FDD2E023334A11680B4034490B6080219D
:10C80000334B090119608023DB025360154B6362CF
:10C81000304B5A68FF2A02D8802252005A60802288
:10C820002D4B12011A60A169002907D0606901F03F
:10C83000FDFD013043001B18033BFDD2E023254AD8
:10C8400011680B4025490B608021254B09011960B7
:10C8500080235B005360124BA361F7E6881B002026
:10C86000006CDC021BB70000008000403CB00040C0
:10C8700030B00040002F685900800240008C86478D
:10C8800000C00240308000403090004030A00040A6
:10C89000001BB7003C8000403C9000403CA00040A2
:10C8A000405973075480004054B0004054900040F9
:10C8B00054A000406080004060B0004060900040A4
:10C8C00060A000406C8000406CB000406C90004064
:10C8D0006CA000404880004048B0004048900040B4
:10C8E00048A00040014B8000C0587047881B0020C2
:10C8F000F8B5040022481E0017000D0001F096FD57
:10C900000100380001F092FD069B36041B031E4314
:10C910002368002B22DB1B4B1B49E3185A1E934153
:10C920008022920194465B421B0B184A1B0363440E
:10C930001360174A13601F008A689743FBD1C02217
:10C94000231D92011A4321232560A06013602368F0
:10C95000002BFCDA0823E6601360F8BD3F23226851
:10C960001340AB42D7D1A3681B051B0D8342D2D124
:10C97000EE22E368D2021340B342CCD1EDE7C046C9
:10C98000001BB7000040FDBF00C0004000E00040B9
:10C9900000F000408023024A9B000343D3627047AB
:10C9A0000080054010B580241C4BE4051C60002865
:10C9B0001AD001231A4C18431A4BDC611A4C44401C
:10C9C0001C62596298628021144BC905196017488E
:10C9D00017490860E021C9041960002A07D18022A4
:10C9E000144B12061A6010BD0E4BD861EBE75301D1
:10C9F0009B1A9B009A18802312015B049A4209D269
:10CA000013000D490B60074B5A608022094BD20579
:10CA10001A60E8E7094B1A00F3E7C04600B005408A
:10CA2000D3C007B0008005402D3FF84FFCFF010048
:10CA30000820014000A005404C470020FFFFFF00F8
:10CA4000AA23064A1B0113602F230549D360054B17
:10CA500019605368002BFCDA7047C0460040024062
:10CA600000B0FA00006002402C4B2D4A70B51A60ED
:10CA70002C4A2D4B2D491A6014008B689C43FBD126
:10CA80002B4D2C4EB54208D2013E761BB60808CD80
:10CA9000984723000134B342F9D1FFF7BFFD264A7E
:10CAA000214B1A60214A9368DB43DB01DD09002B2F
:10CAB000F9D14022214B224C224E9A675A671A67BD
:10CAC000DA66B44208D223682000002B20D0083454
:10CAD000FEF77EFCB442F6D31B4C1C4EC022B1685C
:10CAE000200002F087FDB460FEF754F9FEF738FC31
:10CAF000FEF72AFE164C174EB44208D2013E361BF2
:10CB0000B60808CC98472B0001359E42F9D170BD7C
:10CB10000834FEF74FFCB442D5D3DDE700E0004017
:10CB2000BFCDFBFEFE7F3C0000F0004000C0004097
:10CB3000281B0020381B0020FFFFFF0100F00140F0
:10CB4000181B0020281B00200000002000ED00E042
:10CB5000381B0020501B002000BEFDE7094A0300DF
:10CB60001068002805D00849C3188B4207D8136005
:10CB7000704706480449C31810608B42F7D901205A
:10CB80004042F5E7083D002000000420004D002051
:10CB900000207047012040427047C04610B5FFF7A3
:10CBA000DBFFC0460FB400B5084883B002F0C6FDF5
:10CBB000049B002B07D005A91800019101F0B6FBDA
:10CBC000034802F0BBFD0120FFF7C6FFACC901100E
:10CBD000BCC9011010B50148FFF7E4FFC0C901103E
:10CBE0009A4200D2885470477047C046F8B55746FD
:10CBF000DE464E464546E0B599460A9B07009A46F2
:10CC00000D9B884693460B9C9B073BD10C9B9C42FB
:10CC10003DD21E1B0B9415000C005E442A004B46AF
:10CC2000013521002020B847B542F7D1A0460B9C22
:10CC3000002C20D0454636195346321B013C185D66
:10CC400029004B46B847002CF6D12B0035009846FA
:10CC50000D9B9B070FD55B46EC1A0C9BA3420AD990
:10CC6000464698462A004B46310020200134B847FA
:10CC700001354445F6D32800F0BCBB46B246A94670
:10CC8000A046F8BD16001500002CD3D1E0E7160031
:10CC9000002CCFD11500EEE7F0B54F464646D646FC
:10CCA000C0B584B098460EAB1B7894469946129B4B
:10CCB0000D9C109F119E9A0725D4002E65D1BC4271
:10CCC00021D201221A409246202C00D1E9E00C9A90
:10CCD000551E302202E0202C00D17BE001342A5581
:10CCE000A742F8D85246002A0DD0B4420BD20C9A73
:10CCF000551E3022202C02D171E0202C2DD0013481
:10CD00002A55B442F9D1DA063CD55A052ED4002C66
:10CD100028D10F9A102A00D1B6E0022A00D1BCE037
:10CD200030220C9C227001244A46002A65D15A0701
:10CD300000D499E02B220C9D2A55013403930C9BBF
:10CD400062460093029643460194FFF74FFF04B0FA
:10CD5000E0BCBA46B146A846F0BD2024DA06EDD5BF
:10CD60005A0503D4A74266D0B44264D00F9A102A61
:10CD700071D0022A57D0202CE0D022000134302577
:10CD80000C9FBD54202CD9D0CEE7012215001D40A8
:10CD9000AA461A4236D04A46002A4AD10C321A42D2
:10CDA00047D1BC42A1D2202C91D1202E17D82024CB
:10CDB000DA06C3D55A051BD4202F01D0202ED5D199
:10CDC0001F220F9D102D6FD0022DD8D162250C9FF0
:10CDD000BD54D0E75246002A79D0202EBDD9202458
:10CDE000DA06ABD55A0503D4202FE9D0202EE7D0A0
:10CDF0000F9A102AA2D12024A0E72D220C9D2A559B
:10CE000001349BE7BC4200D37DE7202C00D05EE7D5
:10CE1000DA06F0D55A05EED4202F62D0202EEAD1C2
:10CE200034001F22CDE7202C00D187E722000134F7
:10CE3000CCE7013EB5E7621E012CC2D10F9A102A41
:10CE400000D06AE79A063BD558220C9C2270283AFB
:10CE50006270022468E79A060ED4202CCBD0782288
:10CE60000C9D2A55013486E71A0700D466E7202274
:10CE70000C9D2A55013461E7202CBCD058250C9A12
:10CE800012191570013476E79A0608D558220C9CC1
:10CE9000227030226270022446E76032F7E778227F
:10CEA000F5E7002A83D1B3E7A21E013C9D0603D417
:10CEB00078250C9FBD5460E758250C9FBD545CE756
:10CEC00078220C9C2270483A627002242CE7DA0621
:10CED00000D433E75A058BD4202F00D044E71F221B
:10CEE0006FE73C001F226CE710B5002800D110BD91
:10CEF00002F0D8FBFBE7C046F0B557464E46454624
:10CF0000DE46E0B599B08246894690460893229A5B
:10CF1000239B1000190001F04AFD002800D0CDE04D
:10CF2000229823990122D94B524201F03BFD00285F
:10CF300000D0C3E0229823990122D54B524201F040
:10CF400023FD002800D0B9E0229823990022002375
:10CF500001F01AFD002800D0F1E1229E239F8023DA
:10CF6000269ADB001A400D92269A1A4201D1062316
:10CF700024938023269A1B011A403B00934609966E
:10CF8000334300D0B3E0002A00D0C2E100230024E4
:10CF90000A930B94002304250993259B0024AB429C
:10CFA00000D95C1B0223269A1A400C92269A13423F
:10CFB00003D06B426B415B421C40099B002B07D0A6
:10CFC0000A9A0B9B3000390001F07DFC06000F002F
:10CFD000229823990022002301F0D6FC002803D0D8
:10CFE000802109067B181F00269AAA4B00960197FC
:10CFF0001340089E0493249B0394029342463300FB
:10D000004946504600F0AAF90400002D67D02020C0
:10D01000269A4946024013005A4253415B42621C21
:10D0200018400A92330022004530D047099A6F1EFB
:10D03000D317D4185C40D30F9B46002501E0202D68
:10D0400013D008AA94461F23200063440A21013507
:10D050005E1901F0EBF93031317020000A2101F046
:10D06000E5F926000400092EE9D8052306930023DC
:10D0700004930A3303935B46089E029310AB0A9A0B
:10D08000009349463300504605970195FFF704FE8B
:10D090000C9A0400002A22D04246851A259AAA42F8
:10D0A0001DD9B04657461600220043464946202067
:10D0B0000135B8470134AE42F6D810E0269B42460F
:10D0C0000493259B49460393249B50460293229B3D
:10D0D000239C00930194089B00F040F90400200079
:10D0E00019B0F0BCBB46B246A946A046F0BD6A4B9B
:10D0F00078009C46400D604401F06CFC674A684B28
:10D1000001F0FFFB674A684B01F0D4FB674A3B0321
:10D110001B0B1A4304000D0009981100644B0022F8
:10D1200001F0BFFB634A644B01F0EBFB02000B0014
:10D130002000290001F0BEFB01F064FC099001F021
:10D1400049FC5E4A5E4B04000D0001F0DAFB002250
:10D150005C4B01F0AFFB01F055FC5B4A5B4B2900D7
:10D160000C90200001F0CDFB04000C980D0001F0A4
:10D1700031FC574A574B01F0C4FB02000B00200062
:10D18000290001F08EFB04000D0002000B000A9440
:10D190000B9501F0B6FB04000D000A980B990200F4
:10D1A0000B0001F087FB00220E900F914A4B2000EC
:10D1B000290001F088FB0022484B01F07BFB0200B4
:10D1C0000B002000290001F07EFB0022444B01F0FF
:10D1D00071FB02000B002000290001F074FB0A9A89
:10D1E0000B9B0D0080210400C905002001F059FBB4
:10D1F00002000B002000290001F05CFB02000B0084
:10D200000E980F9901F05FFB0022284B01F052FBB2
:10D21000344B0C9C9C4664442305002201F071FBB6
:10D2200004000D0002000B00300039000A940B9539
:10D2300001F0AAFB00285DD123002A00C625099928
:10D2400063318D42AD4159466D420435002900D10C
:10D25000A3E6134363D030003900234A234B01F087
:10D2600099FB002807D0002230003900204B01F044
:10D270008BFB002853D1249B002B00D18DE60D9B06
:10D280005A1E9341249AD31A249386E6FFFFEF7F18
:10D29000FFFFEFFFFFF7FFFF01FCFFFFFB799F5050
:10D2A0001344D33FB3C8608B288AC63F0000F03FC9
:10D2B0000000F83F61436F63A787D23F71A37909EC
:10D2C0004F930A400000E03F1655B5BBB16B0240DA
:10D2D000EF39FAFE422EE63F00002C4000002440C9
:10D2E00000001840FF0300002D431CEBE2361A3FFC
:10D2F00080842E41099B0022013B09932000164B9C
:10D30000290001F0E0FA0A00010003000A910B92E3
:10D3100094E7002300240A930B9400230993249A92
:10D32000099B9A4214DDD31A013B24938023269A49
:10D33000DB001A4300230025269209932DE6802264
:10D3400012069446229B1E00239B63441F0006E6A0
:10D3500000232493EAE7C04600002440F0B5454688
:10D36000DE464E465746E0B595B08B469046994608
:10D370001E9A1F9B0A9019001000209D01F017FBB8
:10D38000002800D0B0E11E981F990122C74B5242DD
:10D3900001F0FAFA002800D037E11E981F99012207
:10D3A000C34B524201F0FEFA002800D0A7E01E98BD
:10D3B0001F990022BF4B01F0F5FA002800D088E049
:10D3C0001E981F990022BC4B01F0DEFA002800D005
:10D3D0007FE01E981F990022002301F0D5FA002853
:10D3E00000D0FAE000230B938023229C229ADB00DA
:10D3F0001C401A4200D102E1092D00D87CE106A9A7
:10D400008C462C00172200233021093C6244013352
:10D41000D154EF1A202B00D132E1A342F7D10022E0
:10D42000A44B069207931E981F9901F0EBFA050092
:10D4300001F0D0FA02000B001E981F9901F031FA9A
:10D44000069A079B01F05DFA0890099101F0FEFA37
:10D45000060001F0BBFA02000B000898099901F0E0
:10D4600020FA0022954B0890099101F09BFA0028C0
:10D4700000D1D2E00136300001F0A8FA069A079BED
:10D4800001F088FA002801D000260135AA46002FB5
:10D4900000D098E0280001F09DFA02000B001E98D1
:10D4A0001F9901F0FEF9854B002206000F0001F0E4
:10D4B0006BFA0CAB9A46002845D1002230003900A7
:10D4C0007E4B01F06FFA00283DD1EB073BD50135CB
:10D4D00039E0229B42460493219B594603930A98C4
:10D4E0001E9B1F9C0295009301944B46FFF704FD81
:10D4F00015B0F0BCBB46B246A946A046F0BD229B83
:10D500005B0767D403226E4B229901920391219904
:10D510000291009342464B4659460A98FFF766FB34
:10D52000E6E706AA94461723280063440A2101343B
:10D530001E1900F053FF3031280031700A2100F02D
:10D540004DFF051E76D0202CEBD10323229A1340E9
:10D55000012B1DD1219B002B1AD00B9B002B00D03F
:10D56000BBE0229A0C33134200D0B6E0219BA342C9
:10D5700000D887E006AB9C4617223023624404E0C3
:10D580002199013413558C4259D0202CF8D12024F4
:10D59000229B01940393219B02935346B9E706AA69
:10D5A000944617230A216344300001341D1900F00A
:10D5B0003DFF3031297030000A21013F00F036FF75
:10D5C000092E46D90600202CE9D155460CAB202463
:10D5D0009A46B8E704223B4B96E71E9A1F9B002011
:10D5E000002101F05EF901230B938023229C229AF3
:10D5F000DB001E901F911C401A4200D0FCE6002266
:10D60000314B0627069207930DE7229B0393219B3C
:10D610000293042301932D4B7BE70022089809997C
:10D62000264B01F0B1F9002800D02FE7002E4FD192
:10D6300001362BE70323229A1340012B66D0202CBE
:10D64000A6D00B9B002B1FD02D235246135501341F
:10D650009EE75546202CB9D030233A19002F08D028
:10D66000172006A9013409180B55202CAED094427E
:10D67000F6D10CAB9A462E2352461355013462E77D
:10D680002024CCE6202C83D0229B5B0708D4229B4D
:10D690001B0700D47CE7202352461355013477E75B
:10D6A0002B2352461355013472E7C046FFFFEFFFAC
:10D6B000FFFFEF7F65CDCD4165CDCDC10000E03FDF
:10D6C000D4C90110CCC9011080842E41DCC90110DD
:10D6D000F30700D4DAE60136D8E6219B013B21931B
:10D6E000A34200D946E7AAE7229B0393219B02931A
:10D6F00003230193074B0CE7074BEA009B185C6878
:10D700001B682F000693079400248CE6219B002BB6
:10D7100095D022E7D8C9011010DA0110F0B55746AC
:10D72000DE464E464546E0B5A5B01F002E9B91460D
:10D730000D93CA4ACA4B82468B461A60002900D113
:10D7400029E2002338789846002800D12BE2C54B07
:10D7500044460C93C44B55464E460E930AE0631C58
:10D760009846220033005946A84744463878002896
:10D7700000D187E001372528F1D108239A46043BE0
:10D780009946023B9846013B00229C460B94387810
:10D79000791C0300203BDBB2102B03D80C9C9B00B0
:10D7A000E3589F460300303B0B9C0B92092B3AD960
:10D7B000002398462A2800D1DDE000239A462E282F
:10D7C0004BD00300683BDBB2122B1ED80E9A9B0095
:10D7D000D3589F4663460F001A43D8E743460F00CD
:10D7E0001A43D4E74B460F001A43D0E710230F002B
:10D7F0001A43CCE753460F001A43C8E780235B0067
:10D800000B9A78781A430B9201310F0067284FD892
:10D810002428A4D90300253BDBB2422B9FD893498F
:10D820009B00CB589F46002398460B9B47469C463F
:10D8300000E00131BB00DB195B001F180878303FA6
:10D840000300303B092BF4D963460B930023B84601
:10D850009A460F0001312E28B3D180200B9AC000C8
:10D8600002430B9230225242944678780B00844453
:10D870006246092A00D8AAE12A2800D1B9E10F009E
:10D8800001319EE7A046AA46B146C84503D301230D
:10D890005B424B4498464B46424659460020D0478F
:10D8A000200025B0F0BCBB46B246A946A046F0BD5C
:10D8B00001006939C9B20F2900D950E701238B4013
:10D8C0009C466B4B994663464A4613400F9362460B
:10D8D0004B461A4200D068E10A2956D0072900D0E9
:10D8E0003DE70D9B02CB9846002900D092E10B9BAF
:10D8F00010211A008A43100011310843814680200C
:10D900001A00C0000240110003421CD114AB9C4617
:10D910001F220F2362440D959C4615000F9B0B940C
:10D9200002E0202B0CD0110064460C402000373060
:10D93000092C00D807380133E8540A090F29F0D818
:10D940000B9C0D9D0F934B46082206935346059260
:10D9500008320392002204930F9B029201931CABA6
:10D9600022000093594633002800FFF795F94346FB
:10D9700004000D93FAE60D9B04CB9046002A79DB58
:10D9800078780D930F00013117E70D9B02CB1493AC
:10D990000B789C4618005346002B00D134E1002838
:10D9A00015D05346013B013399460D940B9C894495
:10D9B0004A460B00A14601E0934203D05C78013354
:10D9C000002CF9D14A465B1A0D9C0B920F938023D1
:10D9D000DB0099460B9A13400D934B461A4204D034
:10D9E0000F9B534501D953460F93022399460B9A37
:10D9F00013400B934B46134200D1F5E16346002BD5
:10DA000000D1D6E10D9B002B00D182E10B1BD1464A
:10DA100031009A463B00A1442E005F464D4622004D
:10DA20009B46894609E04B463900541CB047534693
:10DA3000185D002800D192E122009542F3D14B46B7
:10DA40005A46A946BB46350017001E004C460B9BA4
:10DA5000002B00D0ADE1149B0D9387E61DD700107D
:10DA6000203D002070D80110B4D8011000D9011059
:10DA7000419000000B9A283802430B9242465242D2
:10DA8000787890460F000D93013196E678786C28EF
:10DA900000D15DE180230B9A5B001A430B920131A8
:10DAA000B3E680239B00ABE67878682800D148E194
:10DAB00080230B9A01311A430B92A6E6672800D106
:10DAC000B2E0472800D11AE1452800D11CE10B9AA9
:10DAD0000721049242460D9B0392073352468B4323
