:020000041000EA
:1080000000200420F7800010C3800010C5800010FD
:10801000C1800010C1800010C1800010C18000101C
:10802000C1800010C1800010C1800010C780001006
:10803000C1800010C1800010C9800010CB800010EA
:10804000CD800010CD800010CD800010CD800010BC
:10805000CD800010CD800010CD800010CD800010AC
:10806000CD800010CD800010CD800010CD8000109C
:10807000CD800010CD800010CD800010CD8000108C
:10808000CD800010CD800010CD800010CD8000107C
:10809000CD800010CD800010CD800010CD8000106C
:1080A000CD800010CD800010CD800010CD8000105C
:1080B000CD800010CD800010CD800010CD8000104C
:1080C00000BE00BE00BE00BE00BE00BEEFF30580D5
:1080D000103800BEF2EB88710854021024540210CC
:1080E0003481001090A31AE700201F49086006C8D9
:1080F00081F3088810471D48006800282FD10DA47F
:108100000ECC002902D000F012F8F9E71849194AFC
:10811000002000E001C19142FCD11749884717496E
:1081200088471749884700BEFDE701C901C29A4246
:10813000FBD3704724540210C0000020601B0020B5
:10814000C46E02100000042000000420C46E02105F
:1081500000100420001004200000000070470948AF
:108160000AF0AAFF0047000008ED00E0000000D080
:10817000601B0020B8690020791701103D630110D1
:10818000AD1801105756000006005250ABB36053B3
:108190006C2B021006005250861C03027C2B02102E
:1081A000060052505422A29D802B0210050052500E
:1081B000DE65F468C46E0210F8B5C046064807498B
:1081C000091A8B10C90FC91810B5491003D0044BF8
:1081D000002B00D0984710BD601B0020601B0020C2
:1081E00000000000054B10B5002B03D004490548E2
:1081F00000E000BFFFF7E2FF10BDC0460000000036
:10820000885E00202828021010B50E210EF05EFCBA
:1082100010BDC046F0B585B004000DF057F8072832
:108220001CD8002818D0072803D84D4A80001358BE
:108230009F460DF06FF84B4B20802C240100002549
:1082400018680023484EFF34994200DC7BE09A0016
:1082500001338650A342F7D105B0F0BD64285DD04C
:108260006528F9D10DF06EF8C8200DF073F80023E1
:10827000E05E0DF07BF80223E05E0DF077F804235A
:10828000E05E0DF073F80623E05E0DF06FF8082352
:10829000E05E0DF06BF80A23E05E0DF067F8A08950
:1082A0000DF074F80DF082F8D6E70DF033F8A081E8
:1082B000D2E70DF019F8B42160806930FF30490031
:1082C0000AF02CFF208800254843B42149000AF019
:1082D00025FF244B2C211C680023234E8700FF31EF
:1082E000984206D09A000133A5508B42B4D09842F0
:1082F000F8D1431CE6518B42F2D1ADE70CF0F4FF0C
:10830000A080A9E70CF0F0FFE080A5E70CF0ECFFFF
:108310002081A1E70CF0E8FF60819DE7A589042298
:10832000A35E0221625E218803950A26A55F0F489D
:1083300002950826A55F01950625645F00940DF05F
:1083400091FF89E713009A0085505A1CA24200D180
:1083500082E79142F6DD92008650023374E7C04610
:10836000743702106814002000FFFFFF2828021055
:10837000F0B5DE4657464E46454689468B21E0B568
:10838000804687B0C905C06892460CF042FA0CF0EE
:10839000F7FA434603918B210290C90518690CF046
:1083A00038FA0CF0EDFA4346059188210490C9058E
:1083B00058690CF02EFA0CF0A5FA53468346002BB0
:1083C0003ED04346002458689D68029A039BC1171B
:1083D0000CF0E8F9049A06000F002800059BE91745
:1083E0000CF0E0F980197941CB171B051B0D0093A8
:1083F00000230193009A019B801859410A05030B41
:108400001343524610595A46C0184243D317DB054E
:10841000DB0D9B184A4612595B12D3184A4613517A
:1084200043465D6858609D60802304345B009C4235
:10843000CBD107B0F0BCBB46B246A946A046F0BDC2
:10844000CA46BEE7F0B50400FF254E1C0789436805
:10845000FF3618001A007843C3172B401B18086812
:108460001B121B189A1A04C16360B142F1D1F0BD0E
:10847000F0B5C6460D000400816800B528681600F6
:108480000CF0B0F92860A76880460021381C0CF079
:10849000F7F900282BD10021381C0CF007FA00282E
:1084A0000AD020690CF00CFA071C011C40460CF0A5
:1084B000FDF9002800D02F60E16830680CF092F9D7
:1084C0003060E468051C0021201C0CF0EFF9002846
:1084D00019D0174B0A20185E0CF0F2F9011C281C69
:1084E0000CF0DCF9431E984180BCB846F0BD206911
:1084F0000CF0E6F9071C011C40460CF0C1F90028FD
:10850000DAD02F60D8E70021201C0CF0B9F9002840
:108510000CD0074B0A20185E40420CF0D1F9011C28
:10852000281C0CF0B3F9431E9841DDE70020DBE77F
:10853000441400207047C04670B50400180013684A
:108540000D00E3600B6823610BF0F0F802000B00F4
:10855000002018490BF063F80BF048F90023A060E5
:10856000636019F061F93C210AF0D8FD04981E39C6
:108570000A30484314210AF0D1FD2D68B4300600BA
:108580000D49281C0CF07CF9002809D030000CF0B3
:1085900097F9291C0CF026F90CF0B4F9606170BD54
:1085A00030000CF08DF9011C281C0CF018F90CF0AF
:1085B000A9F9F3E70000444000003443F8B5CE4683
:1085C0004746804680B51800170089460BF0AEF884
:1085D000454B04000A20185E0D000BF0A7F80200BE
:1085E0000B000BF013F80022404B0BF036F82B0079
:1085F00022000BF014F80BF0F9F84346D860061C83
:10860000002138680CF052F9002805D080231B06A1
:108610009C4643466644DE60089B002B62DD980062
:108620002D285DDC0F300CF04BF94346586019F0F3
:10863000FBF8C3179B0DC0188005800DC01A0BF006
:1086400075F800222A4B0BF008F80022294B0BF09A
:1086500004F80022264B0AF0D9FF4346060058686A
:108660000F000CF0B5F902000B00300039000AF0E1
:10867000F4FF0BF073F8060019F0D6F8C00700D528
:1086800076424B461F6830000CF01AF9391C0CF08A
:10869000A9F80CF037F9B4235B0098421CDD1800F0
:1086A000434618610CF00CF9391C0CF098F812498B
:1086B0000CF0AFF80CF08CF902000B000AF0A6FFEA
:1086C0002B0022000AF0ABFF0BF090F843469860B5
:1086D000C0BCB946B046F8BDC343DB171840DFE75E
:1086E0002D209FE70548A0E74414002000004440E7
:1086F0000000E03F0000503F0000204200007041B9
:10870000F0B55746DE4646468023C0B55B049A4620
:108710003C4B0E000500170000249B46017E82B0F2
:1087200018E0002938D06B69AA689B1853453EDAD7
:1087300001216B619B133A595A43D3179B059B0D3B
:108740009B1832599B12D3183351802304345B0099
:108750009C4250D002290AD0E3D96B69032904D185
:108760002A699B1A002B1EDD6B619B13E3E75346BE
:108770006B612B6A6A6A98465B465B6A9A420FD8BD
:108780005846806A404501D29A4209D003232B768D
:1087900080230321DB00CEE7696100210023CAE7C3
:1087A0008023DB00C7E700236B612B76F5E7534698
:1087B0006B616B68984608F09DF9FA2200230090DF
:1087C00001919200404600210BF0ECFF009A019BC2
:1087D000801859410B008021020009068B4202D308
:1087E0000122094B52426B6202232B766B690221F4
:1087F0002A629B139FE702B0E0BCBB46B246A84684
:10880000F0BDC04600400540FFFFFF7FF0B5CE46FB
:1088100000B5070082B089468168406816000BF0F9
:10882000E1FF78600CF0D4F802000B000AF0EEFED5
:1088300000222F4B0AF0E1FE04000D0000222D4B18
:108840000AF00BFF22002B000AF007FF0022294B41
:108850000AF0DCFE0400F8680D000CF0B9F8020024
:108860000B00200029000AF0F8FE0AF0BFFF30607C
:1088700078680CF0ADF8204A204B0AF0EEFE0AF0C2
:10888000D7FF3E690090019178690CF019F8311C0E
:108890000BF0A5FF0CF09CF8009A019B04000D0062
:1088A000002013490AF0A9FE0022124B0AF0D5FE5F
:1088B00002000B00200029000AF0CFFE0400301C4B
:1088C0000D000CF085F802000B00200029000AF0D2
:1088D0009DFE0AF08BFF4B46FE21186078688905E3
:1088E0000BF0E4FF431E984102B080BCB946F0BDD6
:1088F0000000F03F0000E03F6E861BF0F9210940C8
:10890000084B70B55A6A446A056A944205D89B6A56
:10891000AB4200D370BD9442FCD1043005F07EFF21
:10892000F8E7C0460040054010B5040098210CF05F
:108930005DFA200010BDC046F0B5C64600B5037D07
:1089400004000D001600002B13D0C7680021381C4E
:108950000BF0ACFF0021002844D030680BF09EFFE4
:10896000002806D080231B069C4600236744E7604E
:108970002375A16828680BF035FF2860A76880463A
:108980000021381C0BF07CFF00284AD10021381C44
:108990000BF08CFF00280AD020690BF091FF071C18
:1089A000011C40460BF082FF002800D02F60E168D8
:1089B00030680BF017FF3060E468051C0021201CB4
:1089C0000BF074FF002819D01D4B0A20185E0BF025
:1089D00077FF011C281C0BF061FF431E984180BCEF
:1089E000B846F0BD381C0BF04BFF0028C1D0002169
:1089F00030680BF04BFF0028BBD0B3E70021201CF0
:108A00000BF03EFF002818D00D4B0A20185E4042A4
:108A10000BF056FF011C281C0BF038FF431E984139
:108A2000DDE720690BF04CFF071C011C40460BF0F2
:108A300027FF0028BBD02F60B9E70020CFE7C04652
:108A400044140020F0B5DE46574645464E46802287
:108A5000E0B50700C3B052000C0002A800210CF0E2
:108A6000B1F9381D02A905F0ABFE20239846B844A1
:108A700043461A7E80235B049A46424B02AD9B46D6
:108A800042AE15E0002A36D07B6BBA6A9B1853457C
:108A90003DDA01227B639B1302CD5943CB179B0523
:108AA0009B0D5B1821689B12CB1808C4AE4253D0B3
:108AB000022A0AD0E6D97B6B032A04D1396B5B1AF0
:108AC000002B1FDD7B639B13E6E753467B633B6C08
:108AD000796C99465B465B6A994210D85846806A21
:108AE000484501D299420AD0032342461376802397
:108AF0000322DB00D0E77A6300220023CCE7802347
:108B0000DB00C9E7002342467B631376F4E7534654
:108B10007B637B6A994607F0EDFFFA220023009001
:108B200001919200484600210BF03CFE009A019B07
:108B3000801859410B008021020009068B4202D3A4
:108B40000122114B52423A647B644246022313765F
:108B50007B6B02229B139FE7B86CFB6C0B4AC0181F
:108B6000C117430BC904B8641943C00400230AF0B9
:108B700023FB786043B0F0BCBB46B246A946A04692
:108B8000F0BDC04600400540FFFFFF7FC05D000014
:108B9000F0B5DE46454657464E46E0B50500844BE7
:108BA0008B465A6A696E006E8BB091420BD89B6AF5
:108BB000834206D30BB0F0BCBB46B246A946A046E2
:108BC000F0BD9142F6D12F00802268372E0000219F
:108BD000520038000CF0F6F880226936FF36520059
:108BE000002130000CF0EEF83900281D05F016FECB
:108BF00028003900203005F011FE44233900FF2001
:108C0000BC46EC5A2B6C1F001A006743FB1703404D
:108C1000DB190F681B12DB199A1A04C12B648E42F0
:108C2000F1D18B21686DC90567460BF0F2FD0BF0A1
:108C3000A7FE04918B210390C905A86D0BF0E9FDF7
:108C40000BF09EFE069188210590C905E86D0BF09A
:108C5000E0FD0BF057FE2B6D010098469A239B0018
:108C60009A462A00534BE86C99465B46AA44340066
:108C700045468B469046079708960993039A049BAE
:108C8000C1170BF08FFD059A06000F002800069B08
:108C9000E9170BF087FD80197941CB171B051B0DD8
:108CA000009300230193009A019B801859410A0503
:108CB000030B13434A46A0585A46C0184243D317E1
:108CC000DB05DB0D9B1822685B12D31808C44346F2
:108CD000DD6CD8641D65A245D0D1099B45469B46F5
:108CE0009A239B00EB58FF209C46334B002298466A
:108CF000FF23994663460F24AC46079F089E000653
:108D000000930EE0434550DC4946DD170D40AA466E
:108D100053441B125D46AB50802304325B009A42E1
:108D200013D0B558EB1723405B19BD581B11AA4649
:108D3000009D53446B438342E4DC5D461F4BAB50C4
:108D4000802304325B009A42EBD1654618F06CFD3B
:108D500005210AF0E3F9553108000BF0B1FD8A2135
:108D6000C9050BF056FD8F21C9050BF052FD1449C2
:108D70000BF03BFD0BF0C6FD686018F055FD0521BA
:108D80000AF0CCF95B3108000BF09AFD8A21C90585
:108D90000BF03FFD8F21C9050BF03BFD08490BF09F
:108DA00024FD0BF0AFFD286204E7064BB2E7C04696
:108DB0000040054000FFFFFFFFFEFF000000FFFF37
:108DC0000080BB46FFFF0000F8B5CE464746804610
:108DD00080B51800170089460AF0A8FC474B04002C
:108DE0000A20185E0D000AF0A1FC02000B000AF038
:108DF0000DFC0022424B0AF030FC2B0022000AF04E
:108E00000EFC0AF0F3FC4346D860061C00213868CB
:108E10000BF04CFD002805D080231B069C464346E2
:108E20006644DE60089B002B65DD98002D2860DC21
:108E30000F300BF045FD4346586018F0F5FCC317A2
:108E40009B0DC0188005800DC01A0AF06FFC00222F
:108E50002C4B0AF002FC00222B4B0AF0FEFB0022F6
:108E6000284B0AF0D3FB4346060058680F000BF06E
:108E7000AFFD02000B00300039000AF0EEFB0AF0F3
:108E80006DFC060018F0D0FCC00700D576424B46BA
:108E90001F6830000BF014FD391C0BF0A3FC0BF025
:108EA00031FDB4235B0098421FDD18004346186172
:108EB0000BF006FD391C0BF092FC14490BF0A9FCD9
:108EC0000BF086FD02000B000AF0A0FB2B00220035
:108ED0000AF0A5FB0AF08AFC43464246986001234B
:108EE0001375C0BCB946B046F8BDC343DB17184084
:108EF000DCE72D209CE706489DE7C046441400208F
:108F0000000044400000E03F0000503F00002042CD
:108F100000007041F0B503005746DE464E46454618
:108F20009833E0B504000F0003CB074B91B05A6AA9
:108F300091420DD89B6A834208D311B0F0BCBB4666
:108F4000B246A946A046F0BD004005409142F4D18A
:108F5000250080222600A0350021520028000BF0B9
:108F600031FF8022A136FF360021520030000BF085
:108F700029FF2300903303CBE54B5A6A914200D876
:108F8000BBE12900201D05F049FC238D22009C46F1
:108F90002900636AFF206446B846AC4615001F00EE
:108FA0001A006743FB170340DB190F681B12DB191C
:108FB0009A1A04C16B628E42F1D147466446A846B4
:108FC000256818F031FCC3179B0DC0188005800D73
:108FD000C01A4543EB179B059B0D5D19AD1220C4CC
:108FE000A642EDD144468B21A06BC9050BF011FCC4
:108FF0000BF0C6FC09918B210C90C905E06B0BF0BE
:1090000008FC0BF0BDFC0B9188210A90C905206C6F
:109010000BF0FFFB0BF076FC636B82469946A823AE
:109020009B009C46A44463460893BA4BA0469B46CB
:109030000C9B206B35004C4699460D960E970F966B
:109040004A46099BC1170BF0ADFB0A9A06000F00B8
:1090500020000B9BE1170BF0A5FB80197941CB1782
:109060001B051B0D009300230193009B019CC0185E
:1090700061410A05030B13435A46A8585246C018CB
:109080004243D317DB05DB0D9B182A685B12D3180C
:1090900008C543461C6B18635C63089B9D42CFD197
:1090A00044468B21206DC9050BF0B3FB0BF068FC27
:1090B00000918B210B90C905606D0BF0AAFB0BF0A2
:1090C0005FFC0A9188210990C905A06D0BF0A1FBF6
:1090D0000BF018FCE36C0D9D99468E4B0F9E9B4642
:1090E0000B9B82460C95A06C35004C4699460E9F12
:1090F0000E960D974A46009BC1170BF053FB099A39
:1091000006000F0020000A9BE1170BF04BFB8019B3
:109110007941CB171B051B0D029300230393029B80
:10912000039CC01861410A05030B13435A46A85813
:109130005246C0184243D317DB05DB0D9B182A6843
:109140005B12D31808C543469C6C9864DC64089B8A
:109150009D42CFD144468B21A06EC9050BF059FB2F
:109160000BF00EFC00918B210A90C905E06E0BF00C
:1091700050FB0BF005FC099188210290C905206F76
:109180000BF047FB0BF0BEFB636E0C9D9946614BE9
:109190000E9E9B460A9B82460B95206E35004C46E0
:1091A00099460D9F0D960C974A46009BC1170BF0F0
:1091B000F9FA029A06000F002000099BE1170BF054
:1091C000F1FA80197941CB171B051B0D049300237D
:1091D0000593049B059CC01861410A05030B1343CA
:1091E0005A46A8585246C0184243D317DB05DB0D38
:1091F0009B182A685B12D31808C543461C6E186674
:109200005C66089B9D42CFD1444680238B21E05869
:10921000C9050BF0FEFA0BF0B3FB842300918B2100
:109220008346C905E0580BF0F4FA0BF0A9FB88233C
:10923000049188210290C905E0580BF0EAFA0BF07E
:1092400061FBE36F81469846324BA06F9A4623003C
:10925000444698460C9F0D9E0B9D09970A965A46C8
:10926000009BC1170BF09EFA029A06000F00200027
:10927000049BE1170BF096FA80197941CB171B0577
:109280001B0D069300230793069B079CC0186141A2
:109290000A05030B13435246A8584A46C0184243D6
:1092A000D317DB05DB0D9B182A685B12D31808C5A2
:1092B00043469C6F9867DC67089B9D42CFD1164A56
:1092C0000023904603229446FD329146099F0A9E50
:1092D000124C0CE0414518DC6046CA170240521897
:1092E00092105219FA5004334B4500D125E6F1583B
:1092F000FD58A142EEDA0A4AF3E79B6A834200D3A3
:1093000071E6914200D06EE63BE6064AE9E7C046C8
:109310000040054000FFFFFFFBFF01000100FEFFD2
:109320000080FFFFFF7F0000F0B54E46DE46574647
:109330004546E0B50600604BD3B00E915A6AF16E17
:10934000806E914200D9C4E29B6A834200D2BDE2A2
:1093500080220021520012A80BF034FD9F239B00B5
:10936000F01812A905F02CFAA6239B00F41852ABB2
:10937000994680235B0498464F4BB2469B46227E1B
:109380000E9D12AF15E0002A34D06369A2689B18C5
:1093900043453ADA012263619B1302CF5943CB174D
:1093A0009B059B0D5B1829689B12CB1808C54F4580
:1093B0004ED0022A0AD0E6D96369032A04D1216972
:1093C0005B1A002B1DDD63619B13E6E74346636177
:1093D0005B46616A5B6A206A99420FD85E46B66A4C
:1093E000864201D2994209D00323237680230322A7
:1093F000DB00D2E7626100220023CEE78023DB009E
:10940000CBE7002363612376F5E743466361666833
:1094100007F070FBFA2200230090019192003000C7
:1094200000210BF0BFF9009A019B801859410B00F5
:109430008021020009068B4202D301221F4B5242B7
:10944000636202232376636922629B130222A4E7EC
:109450009E2356469B00F318986CDA6C8018C1174F
:109460009864C904430B164A1943C004002309F049
:10947000A3FE9F239B00F0504C33F318186A596ADF
:109480000D4B5A6A914200D90EE29B6A834200D288
:1094900007E2E2239B00F31803CB074B5A6A914281
:1094A00012D89B6A83420DD353B0F0BCBB46B24680
:1094B000A946A046F0BDC04600400540FFFFFF7F23
:1094C000C05D00009142EFD1E42380229B00F4189C
:1094D0000021520020000BF075FC92238022DB005B
:1094E000F7180021520038000BF06CFCE0239B00C1
:1094F000F31803CBF04B5A6A914200D8DCE2BD234B
:109500009B00F018210005F089F9FF22C4232100F7
:109510009446A046B1469B00F018058943681C009C
:1095200066461A006C43E31733401B190C681B1284
:109530001B199A1A04C143608F42F0D144464E462B
:10954000256818F071F9C3179B0DC0188005800DB0
:10955000C01A4543EB179B059B0D5D19AD1220C446
:10956000A742EDD1C7239B009946B1444B468B21BE
:10957000D868C9050BF04DF90BF002FA4B460A9179
:109580008B210D90C90518690BF043F90BF0F8F920
:109590004B460C9188210B90C90558690BF039F99D
:1095A0000BF0B0F94B46824658689B683D009846E0
:1095B000B223DB009C46B44463460093BF4B444651
:1095C0009B460D9B0F9798461096119742460A9B13
:1095D000C1170BF0E7F80B9A06000F0020000C9B58
:1095E000E1170BF0DFF880197941CB171B051B0D34
:1095F000029300230393029B039CC01861410A0558
:10960000030B13435A46A8585246C0184243D31777
:10961000DB05DB0D9B182A685B12D31808C54B4687
:109620005C6858609C60009B9D42CFD1CD239B001D
:109630009946109E8B21B1444B46C905D8680BF062
:10964000E8F80BF09DF94B4602918B210C90C9056F
:1096500018690BF0DEF80BF093F94B460B9188215B
:109660000A90C90558690BF0D4F80BF04BF94B463A
:10967000824658689B680F9C9846904B119F9B466A
:109680000C9B0D943D00444698460F961097424619
:10969000029BC1170BF086F80A9A06000F00200003
:1096A0000B9BE1170BF07EF880197941CB171B0556
:1096B0001B0D049300230593049B059CC018614176
:1096C0000A05030B13435A46A8585246C018424392
:1096D000D317DB05DB0D9B182A685B12D31808C56E
:1096E0004B465C6858609C60009B9D42CFD1D32361
:1096F0009B0099460F9E8B21B1444B46C905D86803
:109700000BF087F80BF03CF94B4602918B210B9044
:10971000C90518690BF07DF80BF032F94B460A9138
:1097200088210490C90558690BF073F80BF0EAF82A
:109730004B46824658689B680D9C98465F4B109F2D
:109740009B460B9B0C943D00444698460D960F9704
:109750004246029BC1170BF025F8049A06000F0041
:1097600020000A9BE1170BF01DF880197941CB17F7
:109770001B051B0D069300230793069B079CC0182F
:1097800061410A05030B13435A46A8585246C018B4
:109790004243D317DB05DB0D9B182A685B12D318F5
:1097A00008C54B465C6858609C60009B9D42CFD1C9
:1097B000D9238B210D9E9B00F518E868C9050BF095
:1097C00028F80BF0DDF802918B218346C905286942
:1097D0000BF01FF80BF0D4F8069188210490C9050E
:1097E00068690BF016F80BF08DF8AB688146984667
:1097F000324B68689A462B00454698460F9F0C9C52
:109800000A975A46029BC1170AF0CCFF049A060039
:109810000F002800069BE9170AF0C4FF8019794160
:10982000CB171B051B0D089300230993089A099B6E
:10983000801859410A05030B13435246A0584A4663
:10984000C0184243D317DB05DB0D9B1822685B125F
:10985000D31808C443465D6858609D60009B9C42D5
:10986000CFD1174A802091460322002394460A9FB5
:10987000144C0E9E40000DE0494500DD24E1654694
:10988000CA172A40521892104244F25004338342BD
:1098900000D109E6F258F9589046A142ECDA0A4A9A
:1098A000F2E7914200D0F4E5B3239B000E99F01843
:1098B00004F0B4FFEDE5C0460040054000FFFFFFA7
:1098C000FBFF01000100FEFF0080FFFF914200D07E
:1098D0003EE535008022703534000021520028001A
:1098E0000BF070FA80227134FF3452000021200006
:1098F0000BF068FA300029000C3004F08FFF3000C4
:109900002900283004F08AFF33002900FF20AC46EC
:1099100044331F89B36C1D001A007D43EB170340CD
:109920005B190D681B125B199A1A04C1B3648C424F
:10993000F1D18B21F06DC90565460AF06AFF0BF085
:109940001FF80B918B210A90C905306E0AF061FF58
:109950000BF016F80D9188210C90C905706E0AF075
:1099600058FF0AF0CFFFB36D814698469C239B00B9
:109970009B46564B706D9A463300B34427004646CB
:1099800098460F9510940A9A0B9BC1170AF00AFF8C
:109990000C9A04000D0030000D9BF1170AF002FF35
:1099A00000196941CB171B051B0D00930023019380
:1099B000009B019CC01861410A05030B13435246EA
:1099C000B8584A46C0184243D317DB05DB0D9B1835
:1099D0003A685B12D31808C743465E6D58659E65AA
:1099E0005F45D0D19C2346469B00F358FF209C4600
:1099F000374B109C9846FF2399460E9BB246002297
:109A000066460F279C460F9D000600940EE04345D6
:109A100050DC4946DC170C40A3465B441B126446ED
:109A2000A350802304325B009A4213D0009B9C58C1
:109A3000E3173B401B19AC581B11A3465B4473430F
:109A40008342E4DC6446234BA350802304325B0052
:109A50009A42EBD117F0E8FE052109F05FFB553182
:109A600008000AF02DFF8A21C9050AF0D2FE8F21D5
:109A7000C9050AF0CEFE18490AF0B7FE0AF042FF07
:109A80005646F06017F0D0FE052109F047FB5B3128
:109A900008000AF015FF8A21C9050AF0BAFE8F21D5
:109AA000C9050AF0B6FE0C490AF09FFE0AF02AFF2B
:109AB000B0624DE4094BB2E79B6A834200D351E5A3
:109AC000914200D04EE51AE5054ADDE600FFFFFFB2
:109AD000FFFEFF000000FFFF0080BB46FFFF00000D
:109AE000FF7F0000042303707047C046F0B5D646E0
:109AF0004F4646460378C0B5042B3ED0022B00D11A
:109B000093E096214C4F49003A88151C8A4239D877
:109B1000ADB2012B00D178E0C123DB00C658002193
:109B2000301C0AF0A5FE002831D0002D25D0434B73
:109B300000269946424B00249846424B9A4606E03E
:109B4000514669360134D150FF36A54215DD290052
:109B5000300009F0E3FA0223F95E0F22411A484669
:109B600004F00CF94246A30012680028E8D16936D7
:109B70000134D050FF36A542E9DCE0BCBA46B1461C
:109B8000A846F0BD0D1CADB2012BC5D13DE0002DA6
:109B9000F3D02B4B301C1C680AF0E6FEC0B2020268
:109BA0001218120212186307691E1202DB0F052930
:109BB00040D9002B37D001262260E81A41089B00CB
:109BC000E318C900C9181A605A6008338B42FAD1E9
:109BD00001230342D1D0984383199900581C625045
:109BE0008542CADD6418991C62608D42C5DDD91CAE
:109BF000A2608D42C1DD191DE2608D42BDDD0533DD
:109C000022619D42B9DD6261B7E7C223DB00C31860
:109C10005B68002B00D07FE7BB23DB009C466044E1
:109C200001F0D2FEA9E70026C7E7406A03685B6936
:109C30009847A2E70023D0E74414002058230020CF
:109C400068140020000A0AFF70B505000E00140019
:109C50000BF03CFB01280BD0022800D070BDB823CC
:109C6000013CDB00E2B2711CE81805F0EBFDF5E702
:109C70002800013CE2B2711C283004F071FEEDE7CF
:109C8000F0B5C646964C974B00B52363964B00251E
:109C9000A363002398464C23E552944BD721E363FA
:109CA000934B944F23666823E552934BAA26A365F2
:109CB0007C23E152914B573963500C316750904FE0
:109CC000043167508F4F04316750C027A8218E4A56
:109CD0008E48BF0089006750043162646067257058
:109CE0002564A56425656565E5656566E5662567A2
:109CF00065508749B600A151AB21864E8900665058
:109D0000B22604316550043162500431655004318B
:109D1000655004316550043165507F49B600A1514A
:109D2000B821464689006654BE267C49B600A1513A
:109D3000BF217B4E8900665008316250C2229200DA
:109D4000A5500432A5500432A5500432A550754ADE
:109D50001C316250CA2274499200A5500432A150AD
:109D60000432A5500432A5520432A5506F49043282
:109D7000A550183AA150DE211C32A0500832A15241
:109D80006B490432E551A3500C32A15069490432A9
:109D9000A15069490432A15068490432A3500C32E1
:109DA000A15067490432A15066490432A150664966
:109DB0000432A3500C32A15064490432A1506449CA
:109DC0000432A1500432A350E82300229B00E25049
:109DD000604A0433E250604A0433E250B8235F4AD9
:109DE000DB00E318A350043AA350B923DB00E5508D
:109DF0001033E01801F0C6FD0122594B0121E25059
:109E00004246584B4942E25496220433E550564BA1
:109E1000E5500433E5508833E550544BE2509D2221
:109E20001201A01800220433E5500833E3189A7198
:109E3000996128339842FAD14D4B4E49E2544E4B2A
:109E4000E2504B4BE3186350043163504B4BE250EC
:109E5000FA224B4B5200E250DB221201A0180022E2
:109E60000833E31819001C319A711A625962996219
:109E7000DA6230338342F5D1424A434BA1180022C3
:109E80001A7030339942FBD1404B4149E254414B67
:109E9000E2503E4BE3186350043163503E4B3F4960
:109EA000E2503F4B5A7701221A623E4A19603E49FE
:109EB0001A65002259601E219A65DA65DA661A670A
:109EC0003A4A59613A495A663A4A596599661900B7
:109ED000DA6794225031995080BCB846F0BDC04634
:109EE000481D0020F0370210B4370210888808009F
:109EF000E0B1FFFF0CE4F43F11CA08009C370210E8
:109F000085417FBF74DF2D3E204E0000A837021030
:109F1000E4370210AAAA2A00D8370210CC37021060
:109F200055555500C0370210102700005C8F020005
:109F3000CB74F33FEED67FBF0642493EBC85BD3FA2
:109F4000A4BF7FBFABF68A3F433B1B3F4BAD7FBFF8
:109F5000A2F54B40F3827FBF3A23E940C4050000DD
:109F6000040600000C06000014060000A406000011
:109F7000D4090000DC090000D8090000E409000051
:109F8000E8090000CC0D000054270020B40D0000AB
:109F9000BC0D0000B80D0000C40D00002C380210EC
:109FA000881B0020FC370210881300000C380210B8
:109FB000000034421C380210002310B50021037049
:109FC000014802F08BFA10BD6C14002070B5094DE9
:109FD00004002800002102F081FA2800002206492E
:109FE00002F098FA0123054A2370A3540023236149
:109FF00070BDC0466C140020000034430C06000005
:10A0000070B504002830150004F096FCB823DB007E
:10A01000E018290005F016FB0E4D0021280002F083
:10A020005DFA002228000C4902F074FA01230B4A61
:10A030002370A35400232361636A002B06D0BB2343
:10A04000DB000021E01801F0B5FC70BD044B636239
:10A05000F5E7C0466C140020000034430C060000F5
:10A06000881B0020F0B54E46DE4657464546E0B513
:10A07000846A06008BB0002C05D1C34B716B5A6A01
:10A08000006B914243D9C14B1D88002D35D0C04B88
:10A09000B06B1C680AF068FC9623C0B2020212186A
:10A0A00012021218681E12025B0098422CDA630733
:10A0B000DB0F062D00DCE1E1002B00D196E001264C
:10A0C00022600121594009189B004D08E318ED005A
:10A0D000ED181A605A6008339D42FAD101230B42F1
:10A0E0000BD099438B1999006250834205DA6418AA
:10A0F000991C6260814200DC7AE00BB0F0BCBB4688
:10A10000B246A946A046F0BD2C20FF30CFE79B6A9F
:10A11000834200D234E140239946B1444B469B4AE6
:10A120001B7B90461788002B73D0726C9046032BD4
:10A1300000D1F7E100D935E1012B00D1A0E11000F9
:10A14000B36C784319009A4608F0E8FFBB1043D07F
:10A150008F4A96251268040093467A1002927A007C
:10A16000D219921003921A18049252469A4633005A
:10A170005E469B466D0005923900200008F0CEFF38
:10A18000A94203D2FF2389001B068B515346390095
:10A19000E01808F0C3FFA94202D2002389008B51C6
:10A1A000029B3900181908F0B9FFA94203D2FF2316
:10A1B00089001B068B51039B3900181908F0AEFF6C
:10A1C000A94202D2002389008B51049B01349C4296
:10A1D000D2D1059B5E469A46434601337364D0450F
:10A1E00000DA8AE700234A46137386E7002668E709
:10A1F000D91CA260814200DD7FE7191DE260814227
:10A2000000DD7AE705332261834200DD75E7626194
:10A2100073E796233D1C5B009F4200D9AEE007AF79
:10A220003A005C4BADB203CB03C21B7813703369A9
:10A23000082B41DC002D00D15FE7554B0021186849
:10A24000AA0099460AF0BEFD7069BB79F9793A7A9D
:10A25000C70F3F18504E51487F108059012859D0E0
:10A26000002D00D149E71E06494B090499464C4B85
:10A270000E439A46434612021643B0461E0005E0BE
:10A280004146D1500134A54200DC36E763001B197A
:10A290001801C01A2900C00008F040FF0223F15E37
:10A2A0003A00411A504603F069FD4A46A30012687D
:10A2B0000028E5D1D050E5E7B3690133B361002D43
:10A2C00006D0334B00211868AA000AF07BFDB36961
:10A2D00007220133D9170A40D218B3610123D110E4
:10A2E000D20F89180B409B1A0133DBB270695A00F8
:10A2F000D218BB5CBA18C70F3F18274E27485178B1
:10A30000805992787F100128AAD1002D00D1F4E65F
:10A310001F4881461B0609040B4312021343029394
:10A320001F4BBB469A4607E04B46029A1B68DA5120
:10A330000134A54200DCE0E663001B191801C01AD5
:10A340002900C00008F0EAFE434602269E5F5A46F6
:10A35000861B3100504603F011FDA7000028E3D111
:10A3600031005A465046B43103F008FD4B461B6895
:10A37000002800D180E0029ADA51D9E71D1C4EE78F
:10A38000914200D0C7E67EE600400540441400201C
:10A39000681400204438021014060000481D0020F4
:10A3A00058230020042B64D1100009F0BFF9924A11
:10A3B000924B09F052F90022914B09F030F909F063
:10A3C00037FA00228F4B09F021F900228E4B09F059
:10A3D00044F909F0C3F9FF21404308F09FFE002F24
:10A3E00039D08A4B020619687B1E9C4696235B0077
:10A3F0009C4500DBF5E04B07DB0F062F15DD002B3E
:10A4000001D001240A6001275F4067449B007D085A
:10A41000CB18ED00ED181A605A6008339D42FAD14E
:10A4200001233B4217D09F43E419A300CA50A4451F
:10A4300011DDC918A31C4A609C450CDBE31C8A6033
:10A440009C4508DB231DCA609C4504DB05340A617A
:10A45000A44500DB4A61002300226D4CC1B2009389
:10A46000200002F043F88021200002F037F8736CDE
:10A470009846B36C9A46AFE6D85159E7002332E6C6
:10A48000B36C9A469B1A18025146C01A08F046FE51
:10A49000FF21404308F042FE002F00D19CE65B4BB9
:10A4A00002041968FF231B041A409623781E5B00E0
:10A4B000984200DB99E04B07DB0F062F16DD002BDF
:10A4C00001D001240A6001275F403F189B007D08EE
:10A4D000CB18ED00ED181A605A6008339D42FAD18E
:10A4E00001233B4200D177E69F43E419A300CA5001
:10A4F000844200DB70E6C918A31C4A60984200DA67
:10A500006AE6E31C8A60984200DA65E6231DCA60A9
:10A51000984200DA60E605340A61A04200DA5BE6A0
:10A520004A6159E6100009F001F9334A334B09F04A
:10A5300094F80022324B09F072F809F079F9002200
:10A54000304B09F063F800222F4B09F086F809F030
:10A5500005F9FF21404308F0E1FD002F3BD02B4BD4
:10A5600001041A68FF231B0419407B1E9C46962396
:10A570005B009C453CDA5307DB0F062F15DD002BF3
:10A5800001D00124116001275F4067449B007D08D2
:10A59000D318ED00ED181960596008339D42FAD1C7
:10A5A00001233B4217D09F43E419A300D1506445D7
:10A5B00011DAD218A31C51609C450CDBE31C91609E
:10A5C0009C4508DB231DD1609C4504DB05341161EB
:10A5D000A44500DB5161002300210D4CC2B2009361
:10A5E0003EE72C23FF339C4605E72C20FF3062E733
:10A5F0002C23FF339C46BEE76E861BF0F9210940F1
:10A60000000044400000F03F00C05F40681400209C
:10A610006C140020F0B5DE4657464E464546E0B580
:10A62000836A040085B0002B00D0A4E0D04B616B9E
:10A630005A6A006B91424BD9A06B0AF0C9F9CD4A16
:10A64000CD4B09F00AF809F0D1F8A0630AF08CF9B3
:10A65000CA4DC1B2280001F041FFC94805F048F8D1
:10A6600000282ED1C24B616B5A6A206B914228D8C8
:10A670009B6A834201D2914223D0C24EC24BF3580F
:10A68000002B00D195E0C14BA26AF15C443BD2B2F1
:10A69000F01804F0F1FF06F02DFA0023BC4A8018F0
:10A6A00059410B008021020009068B4202D301228E
:10A6B000B84B52426363B84B2263A363A36A013B66
:10A6C000A36205B0F0BCBB46B246A946A046F0BDA9
:10A6D0009B6A83427FD3250028352B7D002B7ED1BA
:10A6E00000232B75237F002B4ED1A44D8021280001
:10A6F00001F0F4FE942326002700E0580836036892
:10A700000C375B683A003100984764239846A044B0
:10A7100000286DD1A3689946A04B0A27DF5F380057
:10A720000AF0CEF8E368061C191C9A460AF0BEF837
:10A73000002800D0564678420AF0C2F8311C071CA7
:10A740000AF09EF8002844D049462800321C01F047
:10A75000E1FE9423E358434500D133E17C34A34226
:10A7600000D1CCE0FF230022009300210023280029
:10A7700001F0BCFEA5E7806B012B00DC5CE7FC214F
:10A7800089050AF046F860E77D4E300004F0B0FF1E
:10A79000002896D1627F236A002A00D029E1012B8C
:10A7A00003D0636A002B00D026E17D4B734D9C469D
:10A7B00066440021280001F091FE0022280079491A
:10A7C00001F0A8FE0123784A3370B35400233361AB
:10A7D00077E73E1CB8E7914200D07CE72CE70023E6
:10A7E000FA22032171480093520004F05BFE77E7E0
:10A7F000A0680AF087F800218046E0680AF040F877
:10A80000002806D04046B421B430490008F086FC48
:10A81000884663694146DA0FD218654B52109A4652
:10A820001800013203F0AAFA624B814653441B69B7
:10A83000012B00D11AE14B46002B7BD0E0680021B0
:10A840000AF034F80200531E9A41584B01219846F1
:10A8500000234046009304F025FEB3209621C0005B
:10A860004044490004F01CFF226901322261002AA1
:10A8700000DC0AE14348454BC15C0B2A00DDD9E00E
:10A88000B823DB009C46D2B2604404F0F5FE236995
:10A890009A4650239B46A3445A464433E250236AC7
:10A8A000022B00D120E1032B00D1B6E064229046B8
:10A8B000A044012B04D15046032108F02FFC82460E
:10A8C0004A466368002A0FD0180008F02FFF3A4A62
:10A8D0003A4B08F0C2FE08F041FFFA220300920052
:10A8E000904200DAFDE060605A46514612680091DD
:10A8F00012683100914658463A00C8470AE70023DB
:10A900000022002128000093FF3301F0EFFD2C4BC3
:10A9100007211868421C1A6008F000FC002900D0CA
:10A92000CFE6AF220091962320485200023104F076
:10A93000B9FDC6E61D4BC82298464B46002140464D
:10A9400000935200002304F0ADFD230002224033A7
:10A950001A734B46B320636496211423C000A3648A
:10A960004044490004F09CFE2269013A7EE7C0465B
:10A97000004005409A9999999999E93F6C140020F3
:10A9800008230020481D00201406000004060000D3
:10A9900040420F00FFFFFF7F00007F434414002070
:10A9A00040FAFFFF000034430C060000701D002039
:10A9B00058230020F0F9FFFF333333333333EB3FB9
:10A9C000283E0020002400230022FF2128000094BC
:10A9D00001F08CFD6A4A1368591C11609B0700D175
:10A9E0006FE6322302216748674A009404F05AFD5B
:10A9F00067E6042B00D1D8E6644C0021200001F06A
:10AA00006DFD00226249200001F084FD0322012136
:10AA1000604B1A70604A995453E66422534690463C
:10AA2000A044052B00DD81E0032B71DC9423E35867
:10AA30009B4645E72300032240331A73C823A364CF
:10AA4000B8230026DB00C51828006532666404F0D0
:10AA500013FEFA212800C90004F022FE0223FF336E
:10AA6000A383236A2661013323622AE64146636990
:10AA70005046DA0FD21852100132B43103F07EF989
:10AA80004B460343DBB29946D5E62300042240330C
:10AA90001A730025C823C822B326A364920000239A
:10AAA000002140466564009504F0FCFCFA21F600A4
:10AAB00046443000490004F0F3FD4346374A283B42
:10AAC000995C3000672204F0D7FDFA21300089003C
:10AAD00004F0E6FD0123A383636A2561013B636201
:10AAE000EFE513006260FFE65346DB0F53445B1053
:10AAF0000393642398465346A044082B32DC534604
:10AB0000062B1FDC9423E3589B46039B9A46D7E60B
:10AB100016F08AFE032108F001FB002986D17C2370
:10AB20009B46A3445A461833E250C9E616F07CFE11
:10AB3000032108F0F3FA002902D194234246E2509F
:10AB4000236971E716F070FE052108F0E7FA002985
:10AB5000D8D17C239B46A3445A461833E250039B2A
:10AB60009A46ADE616F060FE052108F0D7FA0029F6
:10AB700002D194234246E25023699A46BFE7C04679
:10AB8000243E0020701D0020DC0500006C14002015
:10AB900000003443481D00200C060000040600009D
:10ABA000F0B5C64600B5070084B07F480BF05AFBED
:10ABB00001233B6202337B627C4B7B6000233B6161
:10ABC0000023FB60984616F02FFEB421490008F0E0
:10ABD000A5FA080009F074FE3A0094235032B860D8
:10ABE000FA50786808F0A2FD714B04000A20185E44
:10ABF0000D0008F09BFD02000B0008F007FD00228D
:10AC00006C4B08F02AFD22002B0008F008FD08F02C
:10AC1000EDFD4146061CF865F86809F047FE00287E
:10AC200004D080231B069C466644FE65624B7B6510
:10AC300016F0FAFDC3179B0DC0188005800DC01AD1
:10AC400008F074FD00225D4B08F007FD00225C4B0C
:10AC500008F003FD0022594B08F0D8FC0290039144
:10AC6000786D09F0B5FE02000B000298039908F018
:10AC7000F4FC08F073FD060016F0D6FDC00700D501
:10AC80007642BB683000984609F01AFE414609F04A
:10AC9000A9FD09F037FEB4235B00984200DC76E0A2
:10ACA0001800386609F00CFE414609F098FD454948
:10ACB00009F0AFFD09F08CFE02000B0008F0A6FCC5
:10ACC00022002B0008F0ABFC08F090FDFF233E4C67
:10ACD000B8650022002120000093002301F006FC4B
:10ACE0000021200001F0FAFB3B6A012B5ADD374CB2
:10ACF000374D7A6A615D012A4DD0B823DB00E61832
:10AD0000D2B2300004F0B8FC3221300004F0C8FCAC
:10AD10006A223000615D04F0AFFCAF212D4C490088
:10AD2000200004F0BDFC2000322104F0B9FC2A4BC5
:10AD3000274DE61869222000715D04F09DFC20007B
:10AD4000322104F0ADFC3A6A2000715DD2B204F009
:10AD500093FC2000FA2104F0A3FC1E237B613B003E
:10AD6000012440331C73002328227B64BB830333FC
:10AD7000BB621A4BBA64BB6305F0BCFE3B002833D0
:10AD8000386379631C7504B080BCB846F0BDC3431A
:10AD9000DB17184085E7B823DB00E0186A3204F0BF
:10ADA0006BFCBAE70B4CBEE7442802108813000086
:10ADB0004414002000004440000070410000E03FC7
:10ADC0000000503F000020426C140020481D00206D
:10ADD000040600000823002040FAFFFF00007F4324
:10ADE000F0B5C646070000B5016A84B082480BF092
:10ADF00039FA3A6A013A93059B1A9B019B185B004A
:10AE00009B187E4ADB00944663447B6000233B61D1
:10AE10000023FB60984616F007FDB421490008F0B6
:10AE20007DF9080009F04CFD3A0094235032B860D7
:10AE3000FA50786808F07AFC714B04000A20185E1A
:10AE40000D0008F073FC02000B0008F0DFFB00228D
:10AE50006C4B08F002FC22002B0008F0E0FB08F02D
:10AE6000C5FC4146061CF865F86809F01FFD00287E
:10AE700004D080231B069C466644FE65624B7B65BE
:10AE800016F0D2FCC3179B0DC0188005800DC01AA8
:10AE900008F04CFC00225D4B08F0DFFB00225C4B0D
:10AEA00008F0DBFB0022594B08F0B0FB0290039145
:10AEB000786D09F08DFD02000B000298039908F0EF
:10AEC000CCFB08F04BFC060016F0AEFCC00700D52A
:10AED0007642BB683000984609F0F2FC414609F022
:10AEE00081FC09F00FFDB4235B00984200DC76E0A2
:10AEF0001800386609F0E4FC414609F070FC454949
:10AF000009F087FC09F064FD02000B0008F07EFBED
:10AF100022002B0008F083FB08F068FCFF233E4C66
:10AF2000B8650022002120000093002301F0DEFA22
:10AF30000021200001F0D2FA3B6A012B5ADD374C88
:10AF4000374D7A6A615D012A4DD0B823DB00E618DF
:10AF5000D2B2300004F090FB3221300004F0A0FBAC
:10AF60006A223000615D04F087FBAF212D4C49005F
:10AF7000200004F095FB2000322104F091FB2A4BC5
:10AF8000274DE61869222000715D04F075FB200052
:10AF9000322104F085FB3A6A2000715DD2B204F0E0
:10AFA0006BFB2000FA2104F07BFB1E237B613B003E
:10AFB000012440331C73002328227B64BB830333AA
:10AFC000BB621A4BBA64BB6305F094FD3B002833A7
:10AFD000386379631C7504B080BCB846F0BDC343C8
:10AFE000DB17184085E7B823DB00E0186A3204F06D
:10AFF00043FBBAE70B4CBEE754280210881300004D
:10B000004414002000004440000070410000E03F74
:10B010000000503F000020426C140020481D00201A
:10B02000040600000823002040FAFFFF00007F43D1
:10B03000F0B5C64600B50569040084B0002D00D106
:10B04000FFE00223476A03703B688B4A9B68934288
:10B0500000D006E189480BF005F901233B62023379
:10B060007B62874B7B6000233B610023FB6098463B
:10B0700016F0DAFBB421490008F050F8080009F096
:10B080001FFC3B0094225033B860BB50786808F036
:10B090004DFB7C4B04000A20185E0D0008F046FBB7
:10B0A00002000B0008F0B2FA0022774B08F0D5FA44
:10B0B00022002B0008F0B3FA08F098FB4146061C6A
:10B0C000F865F86809F0F2FB002804D080231B061D
:10B0D0009C466644FE656D4B7B6516F0A5FBC31769
:10B0E0009B0DC0188005800DC01A08F01FFB0022C0
:10B0F000674B08F0B2FA0022664B08F0AEFA002265
:10B10000634B08F083FA02900391786D09F060FCBC
:10B1100002000B000298039908F09FFA08F01EFB4A
:10B12000060016F081FBC00700D57642BB683000F0
:10B13000984609F0C5FB414609F054FB09F0E2FBD3
:10B14000B4235B00984200DD77E0C343DB1718406F
:10B15000386609F0B5FB414609F041FB4E4909F05C
:10B1600058FB09F035FC02000B0008F04FFA2200F2
:10B170002B0008F054FA08F039FBFF23474CB86560
:10B180000022002120000093002301F0AFF90021EC
:10B19000200001F0A3F93B6A012B50DD404C414DEA
:10B1A0007A6A615D012A5FD0B823DB00E618D2B26B
:10B1B000300004F061FA3221300004F071FA6A22A2
:10B1C0003000615D04F058FAAF21374C490020008F
:10B1D00004F066FA2000322104F062FA334B314D5C
:10B1E000E61869222000715D04F046FA2000322141
:10B1F00004F056FA3A6A2000D2B2715D04F03CFACB
:10B200002000FA2104F04CFA1E237B613B0001244C
:10B2100040331C73002328227B64BB830333BB624F
:10B22000234BBA64BB6305F065FC2837B860F9604E
:10B230003C7504B080BCB846F0BD180088E71A4CD5
:10B24000C8E7164E0021300001F048F90022300016
:10B25000184901F05FF90123174A2370A3542561AF
:10B26000E7E738009847E4E7B823DB00E0186A32E4
:10B2700004F002FAA8E7C046A1AB0010442802106F
:10B280008813000044140020000044400000704176
:10B290000000E03F0000503F000020426C140020FE
:10B2A000481D0020040600000823002040FAFFFF8C
:10B2B00000007F43000034430C060000F0B5C64692
:10B2C00000B5DB4BC1685A6A0400856884B0002071
:10B2D00091422DD89B6AAB422ED305F00BFC002384
:10B2E000D44A801859410B008021020009068B4284
:10B2F00002D30122D04B5242E360B823DB00E518B1
:10B300002800A26004F010FAC223DB00E618CB4F3D
:10B31000300002F0C9FCE35D002B00D035E123785A
:10B32000022B00D139E1032B25D0012B07D00120BE
:10B3300004B080BCB846F0BD9142CED1F8E7236995
:10B340007268934200D02EE1002BF0D0B84BE16937
:10B350005A6AA0699142EAD89B6A834201D291421B
:10B36000E5D0280004F0C4F90028E0D12000FFF760
:10B370005FFE0120DCE7280004F0BAF9051ED6D1F3
:10B380002669002E00D141E10223676A23703B68E1
:10B39000AB4ADB68934200D076E1396AA9480AF0EB
:10B3A00061FF3A6A3D61013A93059B1A9B019B1824
:10B3B0005B009B18A44ADB00944663447B60002337
:10B3C000FB60984616F030FAB421490007F0A6FE5B
:10B3D000080009F075FA3B0094225033B860BB5066
:10B3E000786808F0A3F9994B04000A20185E0D0054
:10B3F00008F09CF902000B0008F008F90022944BB9
:10B4000008F02BF922002B0008F009F908F0EEF9FA
:10B410004146061CF865F86809F048FA002804D08F
:10B4200080231B069C466644FE658A4B7B6516F0AE
:10B43000FBF9C3179B0DC0188005800DC01A08F0DA
:10B4400075F90022844B08F008F90022834B08F0BC
:10B4500004F90022804B08F0D9F802900391786D2E
:10B4600009F0B6FA02000B000298039908F0F5F80B
:10B4700008F074F9060016F0D7F9C00700D5764237
:10B48000BB683000984609F01BFA414609F0AAF95A
:10B4900009F038FAB4235B00984200DCB2E01800EF
:10B4A000386609F00DFA414609F099F96C4909F03E
:10B4B000B0F909F08DFA02000B0008F0A7F822009D
:10B4C0002B0008F0ACF808F091F9FF23654CB86543
:10B4D0000022002120000093002301F007F8002142
:10B4E000200000F0FBFF3B6A012B00DCCAE05E4C51
:10B4F0005E4E7A6AA15D012A00D1C9E0B823DB0063
:10B50000E518D2B2280004F0B7F83221280004F080
:10B51000C7F86A222800A15D04F0AEF8AF21544CB0
:10B520004900200004F0BCF82000322104F0B8F8F3
:10B53000504B4E4DE61869222000715D04F09CF8D6
:10B540002000322104F0ACF83A6A2000D2B2715DDA
:10B5500004F092F82000FA2104F0A2F81E237B6187
:10B560003B00012440331C73002328227B64BB83EF
:10B570000333BB62404BBA64BB6305F0BBFA2837A8
:10B58000B860F96001203C75D2E6280004F0B0F8FC
:10B59000002800D0CBE6E055C1E6606A03681B696D
:10B5A00098470120C4E605F0A5FA0023334A801825
:10B5B00059410B008021020009068B4202D301226F
:10B5C0001D4B5242E3617368A2612361002B0DDDC4
:10B5D000264E280004F07AF82800227CA15D04F0B1
:10B5E0004BF866222800A15D04F046F80023236290
:10B5F000C1230022DB001B480021E25000F06EFF57
:10B60000012095E6C343DB17184049E7154D00219B
:10B61000280000F063FF00222800194900F07AFF9B
:10B620000123064A23700120A354266180E6C04608
:10B6300000400540409C0000FFFFFF7F0C0600001B
:10B64000E1AD0010542802108813000044140020BB
:10B6500000004440000070410000E03F0000503F07
:10B66000000020426C140020481D00200406000049
:10B670000823002040FAFFFF00007F43C0C62D00D2
:10B6800000003443064C4FE73800984701204FE64E
:10B69000B823DB00E0186A3203F0EEFF3EE7C04655
:10B6A000082300207047C046F8B5070005000026B3
:10B6B000094B041D1B882037836516F0B5F8A96D6A
:10B6C00007F02CFD080009F0FBF8A6632060E0619C
:10B6D0000434BC42F1D1F8BD4414002010B504007C
:10B6E0005C2109F083FB200010BDC046F0B5DE46AA
:10B6F00057464E464546E0B5826D87B00490002A15
:10B700000CDD9623013A5B009A4200DB18E18E4B78
:10B71000013200211868920009F054FB049B1C1DA3
:10B7200025001833059316F07FF8FA21C90007F0B9
:10B73000F5FC864BC81807F0F9FF0022844B07F090
:10B740006EFF0600A86B0F0009F042F902000B0023
:10B750003000390007F05AFF08F048F8041C09F0DF
:10B7600037F97C4A7C4B06000F0007F0B9FF002830
:10B7700000D1DFE030003900764A784B07F0BEFF99
:10B78000002800D1D9E0211C201C09F042F8211C1E
:10B7900009F03FF82968AC6309F024F8EC692860E7
:10B7A000211C804609F01BF809F012F96C4A6D4B18
:10B7B00007F053FF0600201C0F0009F009F90200F2
:10B7C0000B003000390007F021FF08F00FF8049B50
:10B7D000E8619B6D041C18009A4609F071F8061C7C
:10B7E000011C404609F05AF800280AD0311C404696
:10B7F00008F0F5FF311C2860201C08F0F0FF041C45
:10B80000E8612B680021181C994609F039F80028D6
:10B810000BD04846311C08F0E5FF311C28608146FA
:10B82000201C08F0DFFF041CE861211C484609F0D9
:10B8300027F8431E98414300984601235B429C46EB
:10B840004946201CE04408F0CAFFFE21400089055B
:10B85000400808F0C7FF09F055F8834600285DDD71
:10B86000394B00241B680027029309F029F803953F
:10B87000019023E00021301C09F018F8002848D07E
:10B88000301C09F071F8C2B213029B181B029A18FF
:10B89000190C1B0A9620400085420BD2FF201B0486
:10B8A00000041206120C034013430906029AAD006D
:10B8B0000B43AB5001374444BB452ED0380008F051
:10B8C000FFFF019908F091FF011CFE20800508F0A0
:10B8D00086FF061C200008F0F3FF494608F082FFAF
:10B8E00009F010F8514607F019FC0D1E00DA554416
:10B8F000311C301C08F08DFF1B4908F08AFF1A49E3
:10B90000061C08F0BDFF0028B4D1FF21174B184AD0
:10B91000C0E7002300210022BCE7039D059B0435FE
:10B92000AB4200D0FFE607B0F0BCBB46B246A9462A
:10B93000A046F0BD0F48104C2CE71048104C29E7EA
:10B940002C22FF32E3E6C0466814002018FCFFFFFB
:10B950000088C340666666666666F63F6666F6BF42
:10B960009A9999999999B93F00007F43FFFF000088
:10B97000FFFFFF00B29D2F403333B33FB29D2FC076
:10B980003333B3BF002370B528220400002108C060
:10B9900009F018FA5C2009F021FA05005C22002168
:10B9A00009F010FA024B20002B60656070BDC046A4
:10B9B0005838021010B501608900401840680368CB
:10B9C000DB68984710BDC046036810B59B00C018DF
:10B9D000406803689B68984710BDC04630B50B7C33
:10B9E0000C0085B0012B0DD001238A68A021934063
:10B9F0008622C905D2008B50032323740020002126
:10BA000005B030BD0868002105F060FC02232374F6
:10BA100004F060FE050005F06DF80C2200231218FA
:10BA20004B41802109068B4202D30122054B524231
:10BA300001210291044928000194009104F04EFE76
:10BA4000DCE7C046FFFFFF7FDDB9001070B50400E2
:10BA5000100062602160022104F038F81349206868
:10BA600005F030FB002302220821206805F0F0FBDE
:10BA7000A368013300D070BD01200BF0D7F8216816
:10BA80000B4B0C4DCB185A425341C2020A332A4089
:10BA90001B04134311221343A022D2059446A06035
:10BAA00080016044E36003614160E4E790D00300FB
:10BAB0000080FCBFFD7F00FF30B583680400A0203C
:10BAC000C00584469B01634419609A6001230121EB
:10BAD000237485B0206805F0F9FB04F0FBFD050038
:10BAE00005F008F86422002312184B418021090652
:10BAF0008B4202D30122064B524201210291054999
:10BB000028000194009104F0E9FD012005B030BD4A
:10BB1000FFFFFF7FDDB90010037C0200032B03D081
:10BB20005A425341D8B27047A021C9058C46836858
:10BB300000209B0163441B69DB01F4D413689B69FB
:10BB40001B07F0D410740130EDE7C04600230374E6
:10BB50007047C04610B58168027C02480AF082FB3B
:10BB600010BDC04670280210F0B5DE4657464E465E
:10BB70004546414BE0B51C6885B0A369DB0629D476
:10BB80003E4B102506229B5E3D4F9A463D4B3A7830
:10BB9000197803933C4B3D4E99463D4B01933D4BE9
:10BBA000029301239846A3691D42FCD12068092A0B
:10BBB0000DD8531CDBB2B0543B701A00002910D1D1
:10BBC000072B04D1344B32689A4243D00722A36931
:10BBD0001D42E8D005B0F0BCBB46B246A946A0461F
:10BBE000F0BD052BF3D1B421B0787378C001C01833
:10BBF0008011490007F092FA3379F2781B029B1802
:10BC00009B109A4506DC002B31D100233B700121AB
:10BC10000022DCE7214B00934A46525C002A14D0F4
:10BC20001F4A944660464A00805A8346984221DC67
:10BC30005B469BB260468352019B009898524246F5
:10BC4000029B5A544B465A54DFE7154A009B9446D0
:10BC50004A00EFE78023B288DB019A42B6D1B3797C
:10BC6000812BB3D1039A803B13703970CFE79AB21E
:10BC70000092D1E79B46DBE7805C00204414002063
:10BC8000AA690020AB690020185B00209C520020AC
:10BC9000A8520020845C0020A55A0500E02E000078
:10BCA000485800202021074B1B689A691142FCD19B
:10BCB000A52220211A609A691142FCD140221A6003
:10BCC0007047C046805C00202021094B1A689369A8
:10BCD0001942FCD1A5232021136008009369184064
:10BCE0001942FAD1034B11601870034B187070475A
:10BCF000805C0020AB690020AA6900202021074B4E
:10BD00001B689A691142FCD1A52220211A609A6908
:10BD10001142FCD125221A607047C046805C002089
:10BD2000F0B557464E46DE464546E0B5334B87B044
:10BD30001A68334B51420192029106201B5E314F2B
:10BD40009846314B16001B6894469B462F4B304853
:10BD50001B686A3605932F4B60449A461300CB1A32
:10BD6000013B04933B002C4A474691469846FF36D8
:10BD70000390019B029A93423DDB049B264D9C1944
:10BD800005E04D4500DD244D0134B4420FD0B4210F
:10BD90002000490007F0C2F9434649005B5A9F4220
:10BDA000EFDC9D42F0DD01341D00B442EFD1AB4524
:10BDB0001EDA5B46E81A08F083FD059908F029FDB4
:10BDC00008F0A0FD5346188002239C46039B0136D1
:10BDD000E2449E42CDD1B422002152000F4808F027
:10BDE000F1FF07B0F0BCBB46B246A946A046F0BD85
:10BDF00053461D80E8E7084DD9E7C046541400209B
:10BE00004414002048580020601400205C140020D6
:10BE1000D1020000CC4F0020E02E0000185B002073
:10BE200070B50C00E1210600154D1000C9022A6012
:10BE300005F048F93000022103F048FE20000221FD
:10BE400003F044FE0F4B2C689C466444631E9C41E7
:10BE5000143420000C4903F099FF0121200003F065
:10BE60006FFF502238212B689A635A6B343311408C
:10BE700080225201134300221960044B1A7070BDD6
:10BE8000805C002000C0FCBF69BB0010AC690020D2
:10BE9000F0B557464E46DE464546E0B5394B87B0CD
:10BEA0001A68394B5642039606215B5E17009A4684
:10BEB000364B374C1B686A370293364BFF37984630
:10BEC000B4235B009B1A0093A3180193324B049296
:10BED0009B46324B0594994607E002239C46009B03
:10BEE0000136E0440137B34236D0019B9B5D002B05
:10BEF000F3D0049B039A934242DB34006934264D0D
:10BF0000FF3405E09D4200DD1D000134A7420FD043
:10BF1000B4212000490007F001F94B4649005B5A63
:10BF20009A45EFDD5D45F0DD01341B4DA742EFD1B1
:10BF30004346029A1B88AD1A9D421BDD184A934264
:10BF40001AD842463233138002239C46009B0136A6
:10BF5000E0440137B342C8D1B422059C002120003F
:10BF6000520008F02FFF07B0F0BCBB46B246A9460E
:10BF7000A046F0BD0A2BB0D942460A3B1380ACE77D
:10BF8000054DD5E75414002044140020601400200F
:10BF9000185B0020CC4F0020E02E00004858002005
:10BFA000DF2E0000F8B54546DE4657464E46E0B562
:10BFB000814D28000BF0FCFD00282CD17F4C804BDC
:10BFC00061685A6A2068914206D90020F0BCBB46DD
:10BFD000B246A946A046F8BD9B6A834218D304F036
:10BFE00089FD0023774A801859410B008021020007
:10BFF00009068B4202D30122734B5242734D636098
:10C000002B782260052BE0D8714A9B00D3589F46BD
:10C010009142E4D1D9E704F06DFD684C2060616085
:10C0200028000BF0E1FDCAE7FFF77AFE022369481A
:10C030002B700AF017F9C8E767480AF013F904F003
:10C0400059FD0023654A801859410B0080210200E8
:10C0500009068B4202D301225B4B52420CC4B4222C
:10C0600000215F48520008F0ADFE05232B70ACE7BD
:10C070005C480AF0F7F804F03DFD00235A4A8018A6
:10C0800059410B008021020009068B4202D3012294
:10C090004D4B52420CC404232B7096E7534BB424EF
:10C0A0009A4606229B5E524E9946524B524D9846F6
:10C0B00019000023514FA4000A78002A48D0EA5AF8
:10C0C000002A45D0F85A904242D9914540DAF252BE
:10C0D00002330131A342EFD1B42200215200404685
:10C0E00008F070FE464C23685A1C0A2B5FD053465A
:10C0F00022600427DF5F434BB1461B689B461D004F
:10C10000002398466933FF339A4608E001239C4692
:10C110000133E0449C460135E144D04545D04B46CF
:10C120001B88BB42F2DA5B46002BEFDD444602E09F
:10C130000134AC42EAD0B4212000490006F0EEFF01
:10C140004900735A9F42F3DA4B462F4A1A80DDE7C3
:10C150002D4A0131F2520233A342ADD1BCE7202176
:10C160002A4B1A6893691942FCD1A5232021136038
:10C170000800936918401942FAD1254B11601870D4
:10C18000244B187004F0B6FC0023144A801859415F
:10C190000B008021020009068B4202D301220A4BC8
:10C1A00052420CC402232B700FE701200EE7FFF769
:10C1B0006FFE00229BE7C046D42D0020781B002094
:10C1C00000400540A0860100FFFFFF7FAC69002012
:10C1D00068380210AC2802109C28021040420F0060
:10C1E000185B00208C28021000093D004414002038
:10C1F00078550020845C0020A8520020CC4F0020FD
:10C20000183E002058140020E02E0000805C002022
:10C21000AB690020AA69002010B5034B03481978C8
:10C220000AF020F810BDC046AC690020BC280210FE
:10C23000014B18707047C046AC690020F0B5CE467F
:10C240004746040003000D00002180B587B01600AA
:10C250000091021D21003848083309F0B1F8002888
:10C2600004D107B0C0BCB946B046F0BD63682768CA
:10C270009846A3680124AC40994622002300414619
:10C28000380009F03BFA220023004146380009F04B
:10C2900089FA2A4B2800F9184B1E9941063103F000
:10C2A00015FC80235B0202934B464A460333D201BE
:10C2B0001B031343224A052013408022D205134357
:10C2C000204A0393204B2A401343AD022B4305938E
:10C2D0001E4B049305F08EF908F0EDFA041CF000F3
:10C2E00008F0E9FA011C201C08F07FFA051C08F090
:10C2F0003BFB84B20023002C0ED0200008F0DBFAB8
:10C30000011C281C08F06BFA8721C90508F081FA86
:10C3100008F02AFBC3B21B0224044A4641461C43D0
:10C32000380002AB029409F0E5FA012341468B4044
:10C330003A6813433B6094E7803802100000E0AF96
:10C34000FFFFFF9FFF83FFFF0000104000000C4035
:10C3500010B5046840680122030010339A406368F6
:10C360001A42FCD104308000015110BD0EC80648AD
:10C3700010B58446042482B061440448090D009439
:10C3800009F070FF02B010BD0000E0AFD02802102D
:10C3900010B50378282B48D006D9292B37D0642B29
:10C3A00001D10AF01DFD10BD0A2B0FD0142BFAD1BC
:10C3B000264BC1781C68837809041B060B4301795E
:10C3C0004278090292000B431351ECE74378002BAB
:10C3D00039D01F4B1A681D4B19684807C30F002836
:10C3E00000DA0A602C249520FF34E41A9B00CB1855
:10C3F000C00018181A605A6008339842FAD1952381
:10C400005B009C42CFD09523DB00CA50CBE78378FA
:10C4100042781B021343C27812041A4303791B06A5
:10C4200013430B4A1BBA1360BDE7837842781B02A3
:10C430001343C27812041A4303791B061343054AB7
:10C440001BBA1360AFE7034B1A68C4E768140020F7
:10C4500064140020C03F002010B50021022003F02A
:10C460005FFB002102200AF0F3FB10BD70B5164BF4
:10C47000164C5A6A616800202568914220D89B6A50
:10C48000AB421ED304F036FB0023114A80185941F9
:10C490000B008021020009068B4202D301220D4BC2
:10C4A00052420CC496230C49DB00CC181A00200021
:10C4B00008F08EFC9621200049000AF051FC012072
:10C4C00070BD9142DED1FBE700400540701B0020AB
:10C4D00010270000FFFFFF7F484600204268024B04
:10C4E0009B1899717047C0463841002070B504AC64
:10C4F00026784568064C65192972416861184A72A8
:10C500004268A21893724368E418E67270BDC04690
:10C5100038410020F0B546464F468846D646454944
:10C52000C0B506004046171C08F0AAF9002853D0F1
:10C530000021404608F0BAF9002800D175E04046D5
:10C5400008F046FA04000D00381C3B4908F098F941
:10C5500000284BD1C2239A4628339946364F374B91
:10C56000988907F0E3F80022354B07F058F82B00C4
:10C57000220007F072F807F015F97268314B010AD2
:10C580009954494672689A18507072689A18D17016
:10C5900072689B1852461A7108F0D4FE652008F0A4
:10C5A000D9FE84214046C90508F033F908F0AAF9FC
:10C5B00000B208F0DBFE8421381CC90508F029F917
:10C5C00008F0A0F900B208F0D1FE08F0EFFEE0BCE0
:10C5D000BA46B146A846F0BD164B00249846184D01
:10C5E0001549381C08F04CF90028B3D01649381CFE
:10C5F00008F05CF9002812D0381C08F0E9F9134A59
:10C60000134B07F02AF8134B002206F0FFFF07F048
:10C61000C9F8030ADBB29946C3B29A469FE73E23A4
:10C620009A46293B9946084F99E7002300240025A4
:10C630009846D5E70000B4430000B44244140020FB
:10C6400000807640384100200000B4C2ABAAAAAAFC
:10C65000AAFA72400000E04070B5541A82B005009A
:10C660000E0001940F2C0FD803681800012C08D17C
:10C670000A781A702B680021019A6A60995402B0F6
:10C6800070BD002CF7D006E0002201A90BF01EFEC1
:10C69000019B2860AB602200310008F099FB2B68F9
:10C6A000E9E7C046F8B50AF06FFA08220A212648E1
:10C6B000FDF7A6FC0023254DA0262B80244B254CFE
:10C6C0009C4676016544200008F0FAF8224908F0FB
:10C6D000A0F808F087F9214908F09BF808F012F952
:10C6E0002F1902343880B442EDD10E2003F028FA1D
:10C6F000D02480232406DB01A362002201210E2026
:10C7000003F0FCF90B2003F01BFA80231B0163628A
:10C71000A361134B042219681248FFF797F905200B
:10C7200003F00EFA20236362A361FFF795FE0E4B20
:10C730000D211A680C20FFF773FBC82004F0EEF8F7
:10C740000120FFF775FDF8BD481D0020F82D0020E1
:10C7500000FCFFFF02040000DB0FC93A00FEFF46A9
:10C76000741400202441002078140020F8B5DE461F
:10C770004E4657464546E0B508F0E4FD642008F013
:10C78000E9FD08F013FE974E974BF458974BF318BA
:10C790009C4275D09846C223DB009A46944BB24423
:10C7A000994605E020000BF0F3FA0400404567D0FD
:10C7B000904925698C46AF007B19DB00F218624472
:10C7C0001278002AEED0D722D2009446F3186344A0
:10C7D00003CB002900D1D4E0FA220023920006F016
:10C7E00003FDFA235B009B46834404F083F9002990
:10C7F00000D1C1E0FA220023920006F0F5FC834547
:10C80000D0D2D822D20094467B19DB00F3186344BF
:10C8100003CB002900D1D3E0FA220023920006F0D6
:10C82000E3FC0700F537FF3704F064F9002900D175
:10C83000D2E0FA220023920006F0D6FC8742B1D360
:10C840002900504601F070FA07004845AAD008F0C8
:10C8500079FD6E2008F07EFDE8B208F07BFD388897
:10C8600008F094FD788808F091FDB88808F08EFDF6
:10C8700008F09CFD20000BF08BFA0400404597D196
:10C880005D4BF4585D4BF3189C426FD098465C4B5F
:10C8900043449A46564B994605E020000BF078FA3F
:10C8A0000400404562D0574925698C466F007B19CA
:10C8B0001B01F21862441278002AEED0524AF31893
:10C8C0009446634403CB002965D0FA2200239200EA
:10C8D00006F08AFCFA235B009B46834404F00AF9C5
:10C8E000002953D0FA220023920006F07DFC8345F4
:10C8F000D3D2A022120194467B191B01F318634482
:10C9000003CB00294CD0FA220023920006F06CFCE5
:10C910000700F537FF3704F0EDF800294BD0FA2275
:10C920000023920006F060FC8742B6D329005046EF
:10C9300001F00CFA07004845AFD008F003FD6F2066
:10C9400008F008FDE8B208F005FD388808F01EFD83
:10C95000788808F01BFDB88808F018FD08F026FD5F
:10C9600020000BF015FA040040459CD1F0BCBB46FA
:10C97000B246A946A046F8BDFA21890006F0F6FBAA
:10C980003DE7FA21890006F0F1FB2AE7FA21890048
:10C9900006F0ECFBABE7FA21890006F0E7FB99E72C
:10C9A000FA21890006F0E2FB0700F537FF3704F0B3
:10C9B000A1F80029B3D1FA21890006F0D7FBB3E72B
:10C9C000FA21890006F0D2FB0700F537FF3704F0A3
:10C9D00091F8002900D02CE7FA21890006F0C6FB67
:10C9E0002CE7C046481D0020DC090000D4090000E7
:10C9F000805E0020B6060000BC0D0000B40D0000F3
:10CA00005CF8FFFFF6090000F8090000F8B55A4C81
:10CA10005A4B61685A6A2068914226D89B6A8342C1
:10CA200065D30121564A13784B40137067D0D02349
:10CA300080221B0692045A61524B1D6804F05AF87A
:10CA4000FA2206000F00002392002800002107F0C0
:10CA5000A9FE801979410B008021020009068B4252
:10CA600002D30122484B52420CC4D0231B065A6801
:10CA700046490B68520431D5002B4BDD013B0B605E
:10CA8000434B1978434B1A788A4203D042481970B5
:10CA900008F008FC04F02EF8404C20606160FFF7BD
:10CAA00081FA002859D104F025F83D4C3D4D206015
:10CAB00061602800FEF702FC002844D104F01AF857
:10CAC000394C20606160FFF7D1FC00282ED1374C33
:10CAD0002000FFF721F8002821D1F8BDFA229200AA
:10CAE000934212DA01330B60294B1978CAE791425D
:10CAF000BBD00121224A13784B40137097D1D02329
:10CB000080221B0692049A6196E70122204B0121A4
:10CB10001A70B7E700221E4B00211A70B2E780227C
:10CB2000200023495200FEF7C7FFD6E72800FCF794
:10CB3000DDFF2668676803F0DDFF801BB9412369CC
:10CB400018182061C3E72668676803F0D3FF801BCD
:10CB5000B941236918182061B0E71649164800F05A
:10CB600033FC2668676803F0C5FF801BB941236961
:10CB70001818206197E7C046801B00200040054040
:10CB80009E6900207C140020FFFFFF7FC44000202E
:10CB9000A2690020A3690020EC280210402B00208D
:10CBA000102B0020481D0020702B00202441002065
:10CBB000384100207855002058230020F0B585B07A
:10CBC0000A0001A90C00114BE0CBE0C40378452B0F
:10CBD00008D00A2A04D90B2213F084FD002806D0BD
:10CBE00005B0F0BD411C0A4808F05CFBF8E70948B5
:10CBF00008F0C8F9FFF782F8FA20400003F08EFE33
:10CC000009F0D0FFFFF760F8EAE7C0460C290210F0
:10CC1000F4280210FC280210B42110B50348890042
:10CC200009F054FF0248FBF7EFFA10BDCC4F00208B
:10CC300044140020F0B50700083704000E0083B04C
:10CC40000760002925D0080015F00AF80500030048
:10CC500001900F280CD8012807D1327822720022C7
:10CC600020006360FA5403B0F0BD0028F7D008E05C
:10CC70000022200001A90BF029FB0700019B206086
:10CC8000A36038002A00310008F0A2F8019B276851
:10CC9000E5E701480BF0EAFA1829021001221F4BC0
:10CCA000524200B59A60002289B01A741C4901AA48
:10CCB00002A8FFF7BFFF1B4802990300039A1C3329
:10CCC00043618A181430FFF7C7FC02A80BF01CFB65
:10CCD00001AA154902A8FFF7ADFF14480299030005
:10CCE000039A1C3343618A181430FFF7B5FC02A87D
:10CCF0000BF00AFB01AA0E4902A8FFF79BFF0D48A3
:10CD000002990300039A1C3343618A181430FFF719
:10CD1000A3FC02A80BF0F8FA09B000BD24410020E2
:10CD20004C290210702B002054290210402B0020A7
:10CD30005C290210102B0020F8B5CE46474680B57E
:10CD400004000D0008F0C2FA1E2807D96438C3B2E7
:10CD5000682B0BD8CF4A9B00D3589F46002805D09C
:10CD60001E2803D8CC4A800013589F46CB4808F0B1
:10CD700099FA002D08D00026C94FA15D3800013670
:10CD800008F090FAB542F8DC0A2008F0AFF8C0BC11
:10CD9000B946B046F8BD08F099FA8300C14A1B189D
:10CDA0005B001360F3E708F091FA0528EFD8BE4B5B
:10CDB00080001B589F46B923BC4F9B003D009C46FA
:10CDC00000261435674408F0BDFA142008F0C2FAB2
:10CDD0002C00F0B208F0BEFA143C2088023408F0AF
:10CDE000D5FAAC42F9D1143508F0E0FA0136BD426B
:10CDF000E9D1CCE7B923AE4F9B003D009C4600260D
:10CE00001435674408F09EFA152008F0A3FA2C00A8
:10CE1000F0B208F09FFA143C2088023408F0B6FA09
:10CE2000AC42F9D1143508F0C1FA0136BD42E9D15E
:10CE3000ADE7A04B9846186906F074FC00229E4BA3
:10CE400006F00BFC434606009C68DD680F0003F00B
:10CE500051FE001BA94106F0BDFC02000B00300092
:10CE6000390006F0DCFB06F0C1FC07F0B1FD0B0059
:10CE70004146020091484969804609F0F3F9904B18
:10CE80009946186906F04EFC00228B4B06F0E5FB34
:10CE90004B4606009C68DD680F0003F02BFE001B6C
:10CEA000A94106F097FC02000B003000390006F0A3
:10CEB000B6FB06F09BFC07F08BFD0B004946020019
:10CEC0004969404609F0CEF97E4B9946186906F04B
:10CED00029FC0022784B06F0C0FB4B4606009C68FC
:10CEE000DD680F0003F006FE001BA94106F072FC8E
:10CEF00002000B003000390006F091FB06F076FCD2
:10CF000007F066FD0B00494602004969404609F0FA
:10CF1000A9F93CE70024674D2C6103F0EBFDA86004
:10CF2000E960674D2C6103F0E5FDA860E960654D9F
:10CF30002C6103F0DFFDA860E96028E7013D62484D
:10CF4000EAB2611CFBF766F921E7013D5F48EAB2EE
:10CF5000611CFCF779FE1AE7B9235D4F9B003D0089
:10CF60009C4600261435674408F0ECF9162008F0BA
:10CF7000F1F92C00F0B208F0EDF9143C20880234ED
:10CF800008F004FAAC42F9D1143508F00FFA013672
:10CF9000BD42E9D1FBE6013DE9B2601CFFF7F8F9BB
:10CFA000F5E64C48FEF7D6FDF1E64848FDF704F8F3
:10CFB000EDE64648FCF796FDE9E608F0ABF9464B8E
:10CFC0001860E4E608F0A6F9444B1860DFE608F0C4
:10CFD000A1F9434B1860DAE609F092F9D7E63D482B
:10CFE000FEF7B4FDD3E608F095F93E4B01001A5C5C
:10CFF0003D4808F057F9CAE608F08CF906F096FBB0
:10D0000000223A4B06F029FB06F0F0FB041C08F066
:10D010006BF906F08BFB0022344B06F01EFB06F08A
:10D02000E5FB334B021C211C1800FFF773FAAEE638
:10D0300008F070F9040008F049F92A4B1855A6E6E3
:10D04000FFF794FBA3E622492A4801F047FA9EE63F
:10D050001E48FCF7BBFF9AE61C48FDF7E9FF96E681
:10D060000320FFF7E5F892E6FEF75AFE8FE6FEF79B
:10D070002BFE0220FFF7DCF889E6FEF73FFE0020DA
:10D08000FFF7D6F883E6FEF70DFE80E6FFF7C4F85B
:10D090007DE6C046A4380210483A021080290210EA
:10D0A000882902107C140020C43A0210A8520020E3
:10D0B000CC4F0020702B0020000059406429021042
:10D0C000402B0020102B002044140020481D00207D
:10D0D00078550020244100205414002058140020CA
:10D0E0006014002038410020742902100000A03F85
:10D0F0006C14002058230020F8B54746CE468468BB
:10D10000031D80B58846070099460D68002C05D19F
:10D1100032E0A3680126002B07D01C00226995424B
:10D12000F7DBE3680026002BF7D1002E1CD1AA42C2
:10D1300016DAA14524D022690123954200DB0023A1
:10D14000DDB2142007F04AFE43461B68010003616C
:10D1500022004B4628000AF04FFE7B6901337B61B9
:10D16000C0BCB946B046F8BDFB689C42E1D0200087
:10D170000AF026FE0269DAE7C3684C469945F6D103
:10D180000125DEE7F0B5C646040000B514200D0009
:10D1900007F024FE236906000361237845600370CD
:10D1A00000238360C360E068002803D03100FFF7EC
:10D1B000E9FFF060A568002D1ED0002337009846D7
:10D1C000142007F00BFE2B69040003612B78037019
:10D1D00043468360C360B8604760E868002808D0B1
:10D1E0002100FFF7CFFFE060AD68002D04D02700DD
:10D1F000E6E7AD68002DFAD1300080BCB846F0BD3E
:10D20000F0B5DE4657464E464546E0B583B0019040
:10D21000002876D0019BDB689946002B68D04B46EE
:10D22000DB689A46002B59D05346DB689B46002B9F
:10D230004AD05B46DC68002C32D0E568002D1DD05A
:10D24000EB689846002B22D04346DE68002E31D092
:10D25000F768002F09D0F868FFF7D2FF3800BF68E1
:10D26000142107F0C3FD002FF5D1B7681421300059
:10D2700007F0BCFD002F1DD03E00E9E7A568142192
:10D28000200007F0B3FD002D0AD02C00D5E7AE68D2
:10D290001421280007F0AAFD002EEFD03500CFE7BB
:10D2A0005B469C681421584607F0A0FD002C0BD06B
:10D2B000A346BEE743469E681421404607F096FD0C
:10D2C000002EE4D0B046BFE753469C681421504678
:10D2D00007F08CFD002C01D0A246A5E74B469C68C8
:10D2E0001421484607F082FD002C01D0A14696E7A4
:10D2F00001981421846807F079FD002C01D0019475
:10D3000088E703B0F0BCBB46B246A946A046F0BDD4
:10D31000F0B5C646836805009C4600B5071D002B86
:10D320004AD03E001C0002E0E468002C07D02369CC
:10D330009942F9DCA26812DA2600141EF7D1EB68D4
:10D34000B34209D1B74207D16046FFF759FF002326
:10D35000EF60AB602F616B6180BCB846F0BDE368E5
:10D36000002A06D01069814224DC14009268002A49
:10D37000F8D1002B06D01A69914219DA1E009B6879
:10D38000002BF8D1EB689C420FD119E020000AF085
:10D39000FFFCA0463900040040460AF0EFFD1421CE
:10D3A00007F024FD6B69013B6B61B442EED1D3E71A
:10D3B000DB68DEE7D268D3E7C3689F42C4D0CBE71F
:10D3C000B742F2D1C0E7C046F0B5982357464E4663
:10D3D0004546DE460A00E0B5C1500021B425083BB1
:10D3E000734EC1508246002700240423F05E8DB0A6
:10D3F0006D0006E00137062F00D17DE00134AC421C
:10D4000007D06300D35A8342F4DA01340027AC42D8
:10D41000F7D10821735E00210393B4235B00994682
:10D420000023A14488460291494699465346002567
:10D4300082469346009101930AE0002D56D10123C4
:10D440000027984602910135009B01349C4235D05B
:10D45000B4212000490005F061FE5A464B009E5A57
:10D46000B245EADC0137002DEED0042F3FDD4B46FC
:10D47000132B47DC42465D00019B4D449C46D00F78
:10D48000029A6D00654494464044039A40106044FB
:10D49000B42194464900604405F040FEC822AA83A6
:10D4A000C73A9446E14429834946019B8F326E83F3
:10D4B0009950009B013400259C42C9D1019B4A46EA
:10D4C0009A4606AB9B460023594607AE0B718B600C
:10D4D000CE600E614B61002A20DC524613600DB015
:10D4E000F0BCBB46B246A946A046F0BD00270123CA
:10D4F0009C460125E044A7E76821FF318C4200D01B
:10D5000087E7ECE7019B07AE9A4606AB9B460023F4
:10D510005A4613719360D6601661536100235746D3
:10D5200099461837903398463B004F4699464B46EC
:10D530001D8834000595B44206D122E020000AF08F
:10D5400027FC0400B0421CD0E1239B009C46B42180
:10D5500020694900281A604405F0E0FD83396229FA
:10D56000ECD8062342469C4653469B580137E1447B
:10D57000BB420BDD5B46DC684B461D880595B4421B
:10D58000E2D1584605A9FFF7B7FDEAE75B465246E8
:10D590009C685B691360002CA1D0E068FFF730FE47
:10D5A0002000A468142107F021FC002CF5D196E797
:10D5B00044140020F8B5F0239B004E469946814460
:10D5C0004B46DC68F1239B0045469846DE465746AD
:10D5D0008044E0B50600A04525D000239A4627697F
:10D5E000BD00EB19DB00F318B03303CB002900D1E9
:10D5F00072E0FA220023920005F0F6FDFA235B01A7
:10D600009B46834403F076FA002945D0FA22002392
:10D61000920005F0E9FD834544D320000AF0B8FBF1
:10D6200004008045DBD1F423DB009946B1444B462E
:10D63000DC683F4B9846B044444527D000239A46C7
:10D64000FC229200944627697D00EB191B01F31818
:10D65000634403CB002966D0FA220023920005F030
:10D66000C3FDFA235B019B46834403F043FA002980
:10D6700037D0FA220023920005F0B6FD834536D359
:10D6800020000AF085FB04004045D9D1F0BCBB4620
:10D69000B246A946A046F8BDFA21890005F066FD0C
:10D6A0008345BAD25346ED19ED007519A6352B7096
:10D6B00020000AF06DFB4146050020000AF05EFCE8
:10D6C000142107F093FB4B464A465B69013B5361CB
:10D6D000A845A8D02C0082E7FA21890005F046FD74
:10D6E0008CE7FA21890005F041FD8345C8D2114B32
:10D6F000ED199C4653462D01751965442B70200089
:10D700000AF046FB4146050020000AF037FC1421D0
:10D7100007F06CFB4B464A465B69013B536145454C
:10D72000B4D02C008CE7FA21890005F01FFD98E7A2
:10D73000A4070000E6030000F023F0B54E46814642
:10D74000DE4657464546F4219B004B44DA68F123F8
:10D75000E0B5C90093B049440E91E0499B004B44A9
:10D7600049448B4609920C93934200D132E10191D6
:10D770005FE0F82189008C4662444A449046414665
:10D78000A0334B445E889F8818880B889288C01A03
:10D790004C88009205F0CAFFD14AD24B05F05DFFDC
:10D7A0000022D14B05F03BFF06F042F833007343F3
:10D7B00002900391180023006343C01805F0B6FFE0
:10D7C000744304900591600005F0B0FF029A039B3A
:10D7D00005F043FF02000B000498059905F00DFFCA
:10D7E00006F010F805F0BAFF009ABB185B10002293
:10D7F000984202DDC01A0004020CF62349469B0041
:10D80000CB58934200DB3FE10A9901220B004046CE
:10D810005B44DB004B44B83352421A601830FFF7C8
:10D8200077FD09980AF0B4FA0C9B0990834200D165
:10D83000CEE0099B1B699A0093464A460A935B44D3
:10D84000DB00D218B83215686A1C0CD0A7484946CC
:10D8500084466A0092465219120189186144097877
:10D86000002900D085E70E9BDF68019B9F4200D115
:10D870006DE10A9BBA465B44DB00A0334B445A88F7
:10D880000292524304921A889B8806920793984BFF
:10D89000089301235B420B935B460D935346F8229A
:10D8A0001B6992009B4694465B005B441B016344EA
:10D8B0004B4459881888884606999A88081A009215
:10D8C00005F034FF864A874B05F0C7FE0022864BE1
:10D8D00005F0A5FE05F0ACFF060040460F000499D8
:10D8E00040438C46604405F021FF040040460D0093
:10D8F00002994843400005F019FF32003B0005F053
:10D90000ACFE02000B002000290005F076FE05F0B9
:10D9100079FF05F023FF079A009B94466344002299
:10D920005B10984202DDC01A0004020CF62349463F
:10D930009B00CB58934205DD089B934202DD5B467A
:10D9400008920B9350460AF023FA019B82468342C9
:10D95000A4D10D9B9B460B9B013300D1F7E00A9F9E
:10D960003C005C44E4004C442300A6331B78002BAD
:10D9700000D156E70B9A4B469446550065442D015D
:10D980005E195A4BF3181B78002B00D149E723008E
:10D99000B8331A6003F0AEF8FE23C0349B009C46F7
:10D9A00020606160300011A960441197FFF7A4FB6B
:10D9B00003F0A0F8FC239B009C4666443060716035
:10D9C00009980AF0E5F90C9B0990834200D030E7F2
:10D9D000019B9B460E9BDB689B4500D1B0E01D0080
:10D9E0005B464E46029307E028000AF0D1F9029BFD
:10D9F0000500834200D1A3E02B6999465B001C001F
:10DA00009B46FE239B009C464C44240164443419ED
:10DA100063690193002BE7D0E068231D9A46834297
:10DA200000D11CE100218846B4398C4603690027E7
:10DA30009A000692D218D200B218A0321288079526
:10DA4000944461460091B4218C4694446146A446B6
:10DA50004446E04604910699CB18DB00F318A23344
:10DA60001B88A418FF180AF093F9824542D0036975
:10DA7000009D9900CA18D200B218A03212889542AF
:10DA800025DD6932FF32E7E70A9E34005C44E4009A
:10DA90004C442300A6331B78002B00D1C1E603F0D1
:10DAA00029F8C03420606160404611A918301196F1
:10DAB000FFF722FB03F01EF8FC222B009200944695
:10DAC00053441B014B44634418605960A9E6049D0C
:10DAD0009542C1DA693AFF3ABEE7C046A4070000A2
