:020000041000EA
:1080000000200420F7800010C3800010C5800010FD
:10801000C1800010C1800010C1800010C18000101C
:10802000C1800010C1800010C1800010C780001006
:10803000C1800010C1800010C9800010CB800010EA
:10804000CD800010CD800010CD800010CD800010BC
:10805000CD800010CD800010CD800010CD800010AC
:10806000CD800010CD800010CD800010CD8000109C
:10807000CD800010CD800010CD800010CD8000108C
:10808000CD800010CD800010CD800010CD8000107C
:10809000CD800010CD800010CD800010CD8000106C
:1080A000CD800010CD800010CD800010CD8000105C
:1080B000CD800010CD800010CD800010CD8000104C
:1080C00000BE00BE00BE00BE00BE00BEEFF30580D5
:1080D000103800BEF2EB88712CDA021048DA021078
:1080E0003481001090A31AE700201F49086006C8D9
:1080F00081F3088810471D48006800282FD10DA47F
:108100000ECC002902D000F012F8F9E71849194AFC
:10811000002000E001C19142FCD11749884717496E
:1081200088471749884700BEFDE701C901C29A4246
:10813000FBD3704748DA0210C0000020581C002012
:1081400000F60210000004200000042000F60210D7
:1081500000100420001004200000000070470948AF
:1081600011F0B2FF0047000008ED00E0000000D071
:10817000781C002088F90020898701108DDF01100C
:10818000BD8801105756000006005250ABB3605333
:1081900050AF021006005250861C030260AF02105E
:1081A000060052505422A29D64AF021005005250A6
:1081B000DE65F46800F60210F8B5C04606480749C7
:1081C000091A8B10C90FC91810B5491003D0044BF8
:1081D000002B00D0984710BD581C0020581C0020D0
:1081E00000000000054B10B5002B03D004490548E2
:1081F00000E000BFFFF7E2FF10BDC0460000000036
:108200004CEE002038AC021010B50E2116F086FAA4
:1082100010BDC046F0B585B0040014F07FFE0728FD
:108220001CD8002818D0072803D84D4A80001358BE
:108230009F4614F097FE4B4B20802C240100002514
:1082400018680023484EFF34994200DC7BE09A0016
:1082500001338650A342F7D105B0F0BD64285DD04C
:108260006528F9D114F096FEC82014F09BFE002377
:10827000E05E14F0A3FE0223E05E14F09FFE0423F0
:10828000E05E14F09BFE0623E05E14F097FE0823E8
:10829000E05E14F093FE0A23E05E14F08FFEA089E6
:1082A00014F09CFE14F0AAFED6E714F05BFEA08149
:1082B000D2E714F041FEB42160806930FF304900FC
:1082C00011F034FF208800254843B421490011F003
:1082D0002DFF244B2C211C680023234E8700FF31E7
:1082E000984206D09A000133A5508B42B4D09842F0
:1082F000F8D1431CE6518B42F2D1ADE714F01CFEDD
:10830000A080A9E714F018FEE080A5E714F014FEA1
:108310002081A1E714F010FE60819DE7A589042269
:10832000A35E0221625E218803950A26A55F0F489D
:1083300002950826A55F01950625645F009415F057
:10834000B9FD89E713009A0085505A1CA24200D15A
:1083500082E79142F6DD92008650023374E7C04610
:1083600084BB02106015002000FFFFFF38AC021034
:10837000F8B5B8235B00C7580400806914F0C8F84A
:10838000CE21890514F075F8B6235B00061C391C54
:10839000E05814F054F8011C301C14F06AF8391C31
:1083A00014F050F814F0D6F814F0B2F88221C90590
:1083B00014F05FF814F0CEF88721C90011F0B6FE72
:1083C0001E4D890048591E4AC117430BC904194361
:1083D000C004002311F0F8FE220021008025513254
:1083E000FF3239345769174ED0603831FF342D05CC
:1083F00015E0F8231B069C46604410610314C01767
:10840000400D1B185B055B0D1B1A5B00F35E0868D3
:108410007B43DB13C31808C1A1420DD0D068936918
:10842000C0181369C018A842E3DA0028E5DA8023EF
:108430001B059C466044E0E7F8BDC046D8A200207A
:10844000C05D0000B8B300207047C0467047C0460A
:108450007047C0467047C046F0B5C6460D000400E0
:10846000816800B52868160013F0ECFF2860A76843
:1084700080460021381C14F02BF800282BD1002155
:10848000381C14F03BF800280AD0206914F040F89A
:10849000071C011C404614F031F8002800D02F6062
:1084A000E168306813F0CEFF3060E468051C0021FD
:1084B000201C14F023F8002819D0174B0A20185E4E
:1084C00014F026F8011C281C14F010F8431E9841E3
:1084D00080BCB846F0BD206914F01AF8071C011CD6
:1084E000404613F0F5FF0028DAD02F60D8E70021CE
:1084F000201C13F0EDFF00280CD0074B0A20185E5B
:10850000404214F005F8011C281C13F0E7FF431E3D
:108510009841DDE70020DBE73C1500200420704790
:10852000DC2110B50400490014F088FA200010BDC9
:10853000C02110B50400490014F080FA200010BDDD
:10854000C02110B50400490014F078FA200010BDD5
:10855000BC2110B50400490014F070FA200010BDD1
:1085600070B50400180013680D00E3600B68236108
:1085700012F0F4F802000B000020184912F057F82E
:1085800012F04CF90023A060636021F0D7FA3C217F
:1085900011F0CCFD04981E390A304843142111F023
:1085A000C5FD2D68B43006000D49281C13F090FF5E
:1085B000002809D0300013F0ABFF291C13F042FF54
:1085C00013F0C8FF606170BD300013F0A1FF011C03
:1085D000281C13F034FF13F0BDFFF3E70000244024
:1085E00000003443F8B5CE464746804680B51800B3
:1085F0001600894612F0B2F84B4B04000A20185EB0
:108600000D0012F0ABF802000B0012F007F8002288
:10861000464B12F02AF82B00220012F008F812F054
:10862000FDF84346D860071C0021306813F066FF50
:10863000002805D080231B069C4643466744DF6024
:10864000089B9C465800604440000F3013F060FFC8
:108650003749061C13F03CFF002860D03549301C18
:1086600013F04CFF00285CD043465E6021F066FAB0
:10867000C3179B0DC0188005800DC01A12F06EF84C
:1086800000222D4B11F0F1FF00222C4B11F0EDFFD9
:108690000022294B11F0C2FF4346060058680F0024
:1086A00013F0BEFF02000B003000390011F0DDFFB7
:1086B00012F06CF8060021F041FAC00700D57642AE
:1086C0004B461F68300013F023FF391C13F0BAFE2D
:1086D00013F040FFB4235B0098421CDD18004346B2
:1086E000186113F015FF391C13F0A9FE144913F09B
:1086F000C0FE13F095FF02000B0011F08FFF2B005E
:10870000220011F094FF12F089F843469860C0BC33
:10871000B946B046F8BDC343DB171840DFE7044E47
:10872000A2E7044EA0E7C0463C150020000024400C
:1087300000009642000070410000E03F0000503F02
:108740000000204110B5040021F0F8F996214900FD
:1087500011F0ECFCA423C8315B00E15021F0EEF9EC
:108760000F2111F0E3FC2C31080013F0D1FEB623E9
:108770005B00E05010BDC04610B5040021F0DEF9EA
:10878000962111F0D3FCA42314315B00E15021F0B9
:10879000D5F91E2111F0CAFCB22369315B00E1500A
:1087A00021F0CCF90C2111F0C1FCB42301315B00A4
:1087B000E15021F0C3F9142111F0B8FC080011F0C8
:1087C000CDFF0022124B11F029FF12F027F8BC2335
:1087D0005B00E05021F0B2F9C217920D83189B059F
:1087E0009B0D981A13F094FE0A4913F042FEEA21F9
:1087F000890513F03EFE13F013FF074A074B11F0F3
:108800000DFF12F00BF8BA235B00E05010BDC0461C
:1088100000002E40E2AE5E3F9A9999999999B93F2E
:1088200010B5040021F08AF9E121490011F07EFC25
:10883000A42332315B00E15021F080F90A2111F0CC
:1088400075FCB22352315B00E15021F077F906212B
:1088500011F06CFCB42301315B00E15021F06EF9A2
:10886000052111F063FC080011F078FF0022124B83
:1088700011F0D4FE11F0D2FFBC235B00E05021F0D8
:108880005DF9C217920D83189B059B0D981A13F082
:108890003FFE0A4913F0EDFDEA21890513F0E9FDD9
:1088A00013F0BEFE064A074B11F0B8FE11F0B6FFFA
:1088B000BA235B00E05010BD00001440E2AE5E3F02
:1088C0009A9999999999B93FF0B5CE4600B50700A4
:1088D00082B0894681684068160013F0B3FD786065
:1088E00013F09EFE02000B0011F098FE00222F4BA9
:1088F00011F08BFE04000D0000222D4B11F0B5FE8F
:1089000022002B0011F0B1FE0022294B11F086FE4F
:108910000400F8680D0013F083FE02000B00200035
:10892000290011F0A2FE11F079FF3060786813F091
:1089300077FE204A204B11F098FE11F091FF3E691E
:1089400000900191786913F0E3FD311C13F077FD7D
:1089500013F066FE009A019B04000D0000201349ED
:1089600011F053FE0022124B11F07FFE02000B00AB
:108970002000290011F079FE0400301C0D0013F0D6
:108980004FFE02000B002000290011F047FE11F0FD
:1089900045FF4B46FE2118607868890513F0AEFD4F
:1089A000431E984102B080BCB946F0BD0000F03FC4
:1089B0000000E03F6E861BF0F9210940F0B5454606
:1089C000DE4657464E46E0B5836A05008BB0002B65
:1089D00005D1C54B696B5A6A006B914242D92B0095
:1089E00028335B7D002B41D1C04BA86B1E88002E25
:1089F00031D0BF4B1C6813F0DFFD9623C0B20202DA
:108A0000121812021218701E12025B00984201DB4B
:108A10002C20FF306307DB0F062E00D8ACE2002BC2
:108A200000D1DFE1012622600121594009189B0095
:108A30004D08E318ED00ED181A605A6008339D42A6
:108A4000FAD101230B4206D099438B199900625049
:108A5000984200DD74E00BB0F0BCBB46B246A946BC
:108A6000A046F0BD9B6A834200D239E1402399467B
:108A7000A9444B469D4A1B7B90461688002B76D016
:108A80006A6C9046032B00D1B0E100D93AE1012B8A
:108A900000D10FE21000AB6C704319009B4611F03F
:108AA00045FBB31042D0924A9627126804009246C2
:108AB000721002927200921992100392C2180492DC
:108AC0005A46AB4655469A467F0005923100200033
:108AD00011F02CFBB94203D2FF2389001B064B5136
:108AE00053463100181911F021FBB94202D200237C
:108AF00089004B51029B3100181911F017FBB94244
:108B000003D2FF2389001B064B51039B3100181928
:108B100011F00CFBB94202D2002389004B51049B97
:108B20000134A342D2D1059B5D469B4643460133A7
:108B30006B64D84500DA8EE700234A4613738AE750
:108B40006418991C6260884200DA84E7D91CA2602C
:108B5000884200DA7FE7191DE260884200DA7AE78E
:108B600005332261984200DA75E7626173E7962364
:108B7000341C5B009E4200D9B0E007AF3A005D4B69
:108B8000A4B203CB03C21B7813702B69082B42DC01
:108B9000002C00D15FE7564B0021A20018689946CF
:108BA00013F038FF6869BE79F9793A7AC70F3F1830
:108BB000514D52487F10405901285AD0002C00D105
:108BC00049E74B4B360699464D4B09049A464346B6
:108BD0000E4312021643B04600251E0005E0414632
:108BE000D1500135AC4200DC35E76B005B19180150
:108BF000C01A2100C00011F099FA0223F15E3A0078
:108C0000411A504608F006FE4A46AB00126800289A
:108C1000E5D1D050E5E7AB690133AB61002C06D05C
:108C2000334B00211868A20013F0F4FEAB69072251
:108C30000133D9170A40D218AB610123D110D20FEA
:108C400089180B409B1A0133DBB268695A00D218AD
:108C5000BE5CBA18C70F3F18274D284851784059B5
:108C600092787F100128A9D1002C00D1F3E6204B87
:108C70009946330609040B43120213430293204B17
:108C800000259A46BB4607E04B46029A1B68DA511C
:108C90000135AC4200DCDEE66B005B191801C01A3E
:108CA0002100C00011F042FA434602269E5F5A4658
:108CB000861B3100504608F0ADFDAF000028E3D11F
:108CC00031005A465046B43108F0A4FD4B461B68AB
:108CD000002800D188E0029ADA51D9E71C1C4CE741
:108CE000914200D0C2E67AE6004005403C150020E3
:108CF0006015002078BD0210BC790000701E0020B5
:108D000028980020042B6AD1100011F027FD9E4AFC
:108D10009E4B11F0AAFC00229D4B11F088FC11F033
:108D20009FFD00229B4B11F079FC00229A4B11F021
:108D30009CFC11F02BFDFF21404311F0F7F9002EB0
:108D40003CD0964B711E1F68962302065B00994229
:108D500000DB03E17B07DB0F062E00DC12E1002BBA
:108D600000D106E10124A4463A6001245C40641865
:108D70009B006608FB18F600F6181A605A60083364
:108D80009E42FAD10123234218D09C43230063441E
:108D90009C003A518B4211DA3F199C1C7A60A14227
:108DA0000CDBDC1CBA60A14208DB1C1DFA60A1428E
:108DB00004DB05333A61994200DB7A610022784B8B
:108DC000C1B21C682368009220009E680023B0474F
:108DD000236880215B68200098476B6C9846AB6CD9
:108DE0009B46A3E600261FE6D85151E7100011F07C
:108DF000B5FC654A654B11F038FC0022644B11F05C
:108E000016FC11F02DFD0022624B11F007FC002230
:108E1000614B11F02AFC11F0B9FCFF21404311F025
:108E200085F9002E3FD05D4B01041F68FF231B0412
:108E300019409623721E5B009A4200DB8BE07B0791
:108E4000DB0F062E00DC9BE0002B00D18EE001241E
:108E5000A446396001245C40A4189B006608FB18F6
:108E6000F600F6181960596008339E42FAD10123C2
:108E7000234218D09C43230063449C003951934201
:108E800011DA3F199C1C7960A2420CDBDC1CB96032
:108E9000A24208DB1C1DF960A24204DB05333961E4
:108EA0009A4200DB796100213D4BC2B21C68236805
:108EB000009189E7AB6C9B469B1A18025946C01A71
:108EC00011F034F9FF21404311F030F9002E00D1A8
:108ED0002CE6324B02041968FF231B041A40962328
:108EE000701E5B0098423CDA4B07DB0F062E45DD17
:108EF000002B39D001260A6001245C4024189B0015
:108F00006708CB18FF00FF181A605A6008339F42A9
:108F1000FAD10123234200D108E69C43A3199C0007
:108F20000A51834200DB01E609199C1C4A60844215
:108F300000DDFBE5DC1C8A60844200DDF6E51C1DDB
:108F4000CA60844200DDF1E505330A61834200DD39
:108F5000ECE54A61EAE52C22FF3270E72C21FF3173
:108F6000F8E62C20FF30BFE70026C5E70024A44622
:108F700070E70024A446F8E6002367E50023CEE767
:108F800000237AE7002303E76E861BF0F9210940EE
:108F9000000044400000F03F00C05F40601500202A
:108FA000D8BD0210F0B5D64646464F46C0B51E00A5
:108FB000CE235B00C358040098460D008844170078
:108FC00020F0BCFDD0235B00E15811F0AFF8414424
:108FD00008000A2900DC88E06E2900DD87E013F034
:108FE00097FAD4235B00E050280013F091FABC23D9
:108FF0005B00E050143BF50FE358AD19A7616D100D
:109000009D4200DD1D00B6235B00E358761B9946A8
:10901000B4234A465B00E358B21A90469A4200DDF8
:1090200098464346002B01DC012398462E1E00DCA7
:109030000126802071008919C900400411F076F8DA
:109040004F464346E062A362002F00DC01278020E8
:109050007900C919C900400411F068F8002346449A
:10906000A36323000122B2462833BA4460631A7511
:109070000EF048FD5346FA2206000F009200D91761
:109080005046002313F0BEF9801979410B0080216E
:10909000020009068B4202D30122164B5242A264FF
:1090A000E3640EF02FFD06002800FA2240444844F5
:1090B0000F000023920000210A3013F0A3F9801959
:1090C00079410B008021020009068B4202D3012264
:1090D000084B52426365AC23226500225B00E250DC
:1090E000E0BCBA46B146A846F0BD034879E76E2019
:1090F00075E7C046FFFFFF7F0000204170B50B4CB5
:10910000250020683C3D00280BD0A168091A13F007
:1091100095FC23000C3BAC4207D01C0020680028C3
:10912000F3D123000C3BAC42F7D170BD28CC00201A
:1091300070B5084C2500243D0C3C2068002806D062
:10914000A168091A13F07AFCAC42F5D170BDAC42AB
:10915000F2D1FBE758CC002070B5040020F0EEFC03
:10916000C3179B0DC0188005800DC01A13F0D0F9ED
:109170008121C90513F07DF9EA21890513F079F9F8
:109180008121C90513F05EF9051C20F0D7FCC21738
:10919000920D83189B059B0D981A13F0B9F9644939
:1091A00013F067F9EA21890513F063F99421061C8D
:1091B000C905281C13F05DF95E4913F046F913F058
:1091C000FBF9FE2120818905301C13F081F900286C
:1091D00000D09CE0FA208000E08020F0AFFCC317B4
:1091E0009B0DC0188005800DC01A13F091F9EA217B
:1091F000890513F03EF9051C011C13F03AF9291CEE
:1092000013F037F913F00CFA00224B4B11F02DFA42
:1092100011F0BCFAB2235B00E05020F08FFCFA2181
:10922000490010F083FFB423C8315B00E15020F007
:1092300085FCC3179B0DC0188005800DC01A13F064
:1092400067F9EA21890513F014F9011C13F011F9EB
:1092500013F0E6F90022394B11F007FA11F096FAF3
:10926000B6235B00E05020F069FCC3179B0DC018CB
:109270008005800DC01A13F04BF9314913F0F9F84D
:10928000EA21890513F0F5F8B8235B00E05020F0DF
:1092900055FC182110F04AFFCE230F315B00E1503E
:1092A00020F04CFC242110F041FFD02301315B0061
:1092B000E15020F043FC142110F038FF080011F0B9
:1092C0004DFA00221F4B11F0A9F911F0A7FAD8238B
:1092D0005B00E05020F032FCC3179B0DC0188005E6
:1092E000800DC01A13F014F9174913F0C2F8EA21DF
:1092F000890513F0BEF813F093F9144A144B11F0DA
:109300008DF911F08BFAD6235B00E05070BD00217F
:10931000301C13F0F3F8002807D00E49301C13F06E
:10932000A8F813F049F980B256E7002054E7C04688
:10933000CDCC4C3E0080BB46000049400000894037
:10934000E820553F0000F03FE2AE5E3F9A999999C0
:109350009999B93F00007A440300F0B5D6464F46CC
:1093600046465133FF33C0B55961A2235B00C35851
:1093700004009846A4235B00C558083BC35889469F
:109380009A46002B01DC01239A465346802059005F
:109390005144C900400410F0C9FE4346E060A36098
:1093A000002D00DC0125802069004919C900400416
:1093B00010F0BCFE0023A3610133237760610EF03F
:1093C000A1FB06004046FA2250440F000023920001
:1093D0000021401913F016F8801979410B00802103
:1093E000020009068B4202D30122194B5242E3626A
:1093F000A0235B00E5580433E358A262ED18A423D0
:109400005B00E358ED180EF07DFBFA2206000F001A
:10941000002392002800002112F0F4FF8019794106
:109420000B008021020009068B4202D30122084B67
:1094300052426363A62322634A465B00E250002245
:10944000143BE250E0BCBA46B146A846F0BDC04667
:10945000FFFFFF7FF0B5B223D6464F4646465B007E
:10946000C0B5C5580400894620F068FBB4235B00F2
:10947000E15810F05BFE48190A2800DC76E08628E7
:1094800000DD75E013F044F8B8235B00E0502C3B9E
:10949000E3589846A4235B00E558083BE3589A46F6
:1094A000002B01DC01239A46534680205900514489
:1094B000C900400410F03AFE4346E060A360002D6E
:1094C00000DC0125802069004919C900400410F022
:1094D0002DFE0023A3610133237760610EF012FBA0
:1094E00006004046FA2250440F000023920000215B
:1094F000401912F087FF801979410B00802102008A
:1095000009068B4202D301221A4B5242E362A02386
:109510005B00E5580433E358A262ED18A4235B0016
:10952000E358ED180EF0EEFAFA2206000F000023C1
:1095300092002800002112F065FF801979410B008C
:109540008021020009068B4202D30122094B5242BC
:109550006363A62322634A465B00E2500022143B69
:10956000E250E0BCBA46B146A846F0BD02488BE7DF
:10957000862087E7FFFFFF7F00002041F0B5B22380
:10958000D6464F4646465B00C0B5C55804008946DE
:1095900020F0D4FAB4235B00E15810F0C7FD48195D
:1095A0000A2800DC76E0862800DD75E012F0B0FFC6
:1095B000B8235B00E0502C3BE3589846A4235B00A3
:1095C000E558083BE3589A46002B01DC01239A46F4
:1095D0005346802059005144C900400410F0A6FDB4
:1095E0004346E060A360002D00DC01258020690077
:1095F0004919C900400410F099FD0023A36101330B
:10960000237760610EF07EFA06004046FA2250444D
:109610000F00002392000021401912F0F3FE801980
:1096200079410B008021020009068B4202D30122FE
:109630001A4B5242E362A0235B00E5580433E3581F
:10964000A262ED18A4235B00E358ED180EF05AFA5D
:10965000FA2206000F00002392002800002112F0D9
:10966000D1FE801979410B008021020009068B424E
:1096700002D30122094B52426363A62322634A4666
:109680005B00E2500022143BE250E0BCBA46B14617
:10969000A846F0BD02488BE7862087E7FFFFFF7FE3
:1096A00000002041F0B5C64600B5037D04000D0062
:1096B0001600002B13D0C7680021381C12F01EFFC3
:1096C0000021002844D0306812F010FF002806D096
:1096D00080231B069C4600236744E7602375A1682E
:1096E000286812F0AFFE2860A76880460021381C69
:1096F00012F0EEFE00284AD10021381C12F0FEFEC6
:1097000000280AD0206912F003FF071C011C404604
:1097100012F0F4FE002800D02F60E168306812F0EB
:1097200091FE3060E468051C0021201C12F0E6FE6A
:10973000002819D01D4B0A20185E12F0E9FE011C0A
:10974000281C12F0D3FE431E984180BCB846F0BDE1
:10975000381C12F0BDFE0028C1D00021306812F084
:10976000BDFE0028BBD0B3E70021201C12F0B0FEE4
:10977000002818D00D4B0A20185E404212F0C8FE97
:10978000011C281C12F0AAFE431E9841DDE7206947
:1097900012F0BEFE071C011C404612F099FE002884
:1097A000BBD02F60B9E70020CFE7C0463C150020B2
:1097B000F8B5CE464746804680B518001600894663
:1097C00010F0CCFF4C4B04000A20185E0D0010F086
:1097D000C5FF02000B0010F021FF0022474B10F0E4
:1097E00044FF2B00220010F022FF11F017F843462F
:1097F000D860071C0021306812F080FE002805D0D8
:1098000080231B069C4643466744DF60089B9C46BA
:109810005800604440000F3012F07AFE3849061CB0
:1098200012F056FE002863D03649301C12F066FE56
:1098300000285FD043465E6020F080F9C3179B0D7F
:10984000C0188005800DC01A10F088FF00222E4B32
:1098500010F00BFF00222D4B10F007FF00222A4BC7
:1098600010F0DCFE4346060058680F0012F0D8FEE8
:1098700002000B003000390010F0F7FE10F086FFF8
:10988000060020F05BF9C00700D576424B461F6802
:10989000300012F03DFE391C12F0D4FD12F05AFED9
:1098A000B4235B0098421FDD18004346186112F094
:1098B0002FFE391C12F0C3FD154912F0DAFD12F02B
:1098C000AFFE02000B0010F0A9FE2B00220010F0EA
:1098D000AEFE10F0A3FF4346424698600123137585
:1098E000C0BCB946B046F8BDC343DB171840DCE73F
:1098F000034E9FE7034E9DE73C15002000002440E7
:1099000000009642000070410000E03F0000503F20
:1099100000002041F0B5DE4657464E464546E0B5CC
:1099200083B00190002876D0019BDB689946002B1C
:1099300068D04B46DB689A46002B59D05346DB680B
:109940009B46002B4AD05B46DC68002C32D0E56891
:10995000002D1DD0EB689846002B22D04346DE68D0
:10996000002E31D0F768002F09D0F868FFF7D2FF3A
:109970003800BF68142113F061F8002FF5D1B768E3
:109980001421300013F05AF8002F1DD03E00E9E7F3
:10999000A5681421200013F051F8002D0AD02C00E6
:1099A000D5E7AE681421280013F048F8002EEFD058
:1099B0003500CFE75B469C681421584613F03EF80B
:1099C000002C0BD0A346BEE743469E6814214046B8
:1099D00013F034F8002EE4D0B046BFE753469C683D
:1099E0001421504613F02AF8002C01D0A246A5E716
:1099F0004B469C681421484613F020F8002C01D0F7
:109A0000A14696E701981421846813F017F8002CFA
:109A100001D0019488E703B0F0BCBB46B246A9462A
:109A2000A046F0BD0A4B70B5036003009C339C68F0
:109A30000500002C09D0E068FFF76CFF2000A46847
:109A4000142112F0FBFF002CF5D1280070BDC04698
:109A50005CBD02100C4B70B5036003009C339C6826
:109A60000500002C09D0E068FFF754FF2000A4682F
:109A7000142112F0E3FF002CF5D12800B82112F0D8
:109A8000DDFF280070BDC0465CBD0210F0B5DE46AB
:109A90004E4645465746E0B5D226D423804676004A
:109AA00087595B0089B0C058391C12F0C8FC12F00D
:109AB000B7FDD62342465B000400D0580D0012F0DB
:109AC000AFFD02000B000020B94910F09EFD02001E
:109AD0000B002000290010F0C8FD0400381C0D0008
:109AE00012F09EFD02000B002000290010F096FDF0
:109AF00010F094FE43469851D82342465B00D75855
:109B00008146381C12F08CFDAA4AAB4B04000D00B4
:109B100010F0ABFD0022A64B10F080FD10F07EFE91
:109B20000290484612F016FD12F0F2FC8221C9059F
:109B300012F09FFC12F00EFD8721C90010F0F6FA1A
:109B4000FF209E4E89008B59DA171040C018001272
:109B500012F0DEFC061C12F063FD994A994B10F0DE
:109B6000CFFD002811D00021381C12F0B1FC0028D4
:109B700000D089E020002900914A924B10F0C0FDEE
:109B8000002800D080E0904E15E09049301C12F083
:109B900070FC8F4912F059FC0021061C381C12F091
:109BA00097FC00285AD120002900854A854B10F0E7
:109BB000A7FD002852D1391C301C12F046FCFE21B2
:109BC0008905041C12F09AFC002847D1FE20211CB4
:109BD000800512F034FC8023071C1B06C018391CBA
:109BE00012F047FC211C8346201C12F02BFC794903
:109BF0000390301C12F07AFC002805D07649301C06
:109C000012F06CFC002849D10020391C12F031FC04
:109C1000C4235A465B00994643449A469860DA60EA
:109C2000391C051C301C12F024FC211C12F00AFC0B
:109C3000039912F01EFC029912F01BFC53461861A6
:109C4000BE2342465B00D35C041C002B5AD109B0F2
:109C5000F0BCBB46B246A946A046F0BD8023DB055A
:109C600003938023FE241B065A49301C9B46002781
:109C7000A40512F03BFC0028C6D05749301C12F056
:109C80002DFC0028C0D009E08023DB05039380234E
:109C9000FE241B069B4600274B4EA405311C301C9E
:109CA00012F0E7FB011C051C12F0E3FB8146011CCE
:109CB000281C12F0DEFB494912F0DBFB48498246C2
:109CC000484612F0D6FB011C504612F0BBFB12F0C6
:109CD000A7FC04900591281C12F0A2FC0022414B25
:109CE00010F0C3FC02000B000498059910F08DFCE5
:109CF00000222F4B10F092FC10F090FD011C12F08E
:109D0000A1FB82E78B21281CC90512F0B2FB12F0DF
:109D10005FFC04918B210390C905584612F0A9FB02
:109D200012F056FC079188210690C905201C12F0FC
:109D3000A0FB12F00FFC43464A4683469858534610
:109D40005D68AC2344465B00434458340293039A55
:109D5000049BC11712F056FB069A06000F0028005C
:109D6000079BE91712F04EFB80197941CB171B05B1
:109D70001B0D009300230193009A019B8018594109
:109D80000A05030B13435A462068C0184243D317F1
:109D9000DB05DB0D9B185B1208C44A4643469D5801
:109DA00053465D6043469850029B9C42CFD14EE79C
:109DB0000000F03F9A9999999999B93FD8A200204B
:109DC000FCA9F1D24D62503F9D922B3BD00FC94070
:109DD0000080BB46D00FC9BFD00FC93F610BB6BAD8
:109DE000ABAA2A3D0000E03FF0B54546DE465746A7
:109DF0004E46E0B5A6256D00435980468BB0002B3A
:109E000000D080E03833434407939C235B004344F5
:109E10009B46B626434676009F59B82342465B00D0
:109E2000D058391C12F00BFB12F0FAFBBA23424651
:109E30005B000400D0580D0012F0F2FB02000B0092
:109E40000020C44910F0E1FB02000B0020002900B3
:109E500010F00BFC0400381C0D0012F0E1FB0200B6
:109E60000B002000290010F0D9FB10F0D7FC43466E
:109E70009851BC2342465B00D5588146281C12F0FD
:109E8000CFFBB54AB54B06000F0010F0EEFB0022E9
:109E9000B04B10F0C3FB10F0C1FC0390484612F029
:109EA00059FB12F035FB8221C90512F0E2FA12F0DB
:109EB00051FB8721C90010F039F9FF20A84C890017
:109EC0000B59DA171040C018001212F021FB041CC5
:109ED00012F0A6FBA34AA44B10F012FC002827D0D6
:109EE0000021281C12F0F4FA002800D0F0E0300025
:109EF00039009C4A9C4B10F003FC002800D0E7E09E
:109F00009A4B02932CE0382343441C0007939C2374
:109F10005B0043441F001FF011FE43465E59710071
:109F200010F004F9891B02C4A742F4D1BB4670E7C4
:109F30008F49201C12F09DFA8E4912F086FA0021FA
:109F40000290281C12F0C4FA002800D0A5E03000CE
:109F50003900844A844B10F0D3FB002800D09CE0E9
:109F6000291C029812F071FAFE218905071C12F0D3
:109F7000C5FA002800D090E0FE20391C800512F0C0
:109F80005EFA8023061C1B06C018311C12F071FA01
:109F90008B21C905041C12F06CFA12F019FB059014
:109FA0000691381C391C12F04DFA029D049072493A
:109FB000281C12F09BFA002806D07049281C12F0C9
:109FC0008DFA002800D090E00021301C12F051FAE8
:109FD000A8235B00994643449A469860DC60051CC0
:109FE000311C029812F045FA391C12F02BFA049930
:109FF00012F03FFA039912F03CFA53468B21186194
:10A00000041CC905281C12F034FA12F0E1FA04917C
:10A0100088210390C905201C12F02BFA12F09AFA3D
:10A0200043464A46029098585346079C5D68039AF7
:10A03000049BC11712F0E6F9059A06000F002800EC
:10A04000069BE91712F0DEF980197941CB171B0541
:10A050001B0D009300230193009A019B8018594126
:10A060000A05030B20681343029AC0184243D31712
:10A07000DB05DB0D9B185B1208C44A4643469D581E
:10A0800053465D6043469850A345D0D10BB0F0BC19
:10A09000BB46B246A946A046F0BD8023DB0580241E
:10A0A000FE2704930023029D3349281C00260593B4
:10A0B00006932406BF0512F019FA002800D183E7A1
:10A0C0002E49281C12F00AFA002800D17CE70CE087
:10A0D000264B802402938023DB05FE270493002374
:10A0E0000026059306932406BF050299081C12F06A
:10A0F000C0F9011C814612F0BCF9011C8246484699
:10A1000012F0B7F91E4912F0B4F91E49051C504669
:10A1100012F0AFF9011C281C12F094F912F080FA29
:10A1200008900991484612F07BFA0022164B10F075
:10A130009CFA02000B000898099910F066FA0022B8
:10A14000044B10F06BFA10F069FB011C12F07AF965
:10A15000011C3AE70000F03F9A9999999999C93FF3
:10A16000D8A20020FCA9F1D24D62503F9D922B3B1A
:10A17000D00FC9400080BB46D00FC9BFD00FC93F28
:10A18000610BB6BAABAA2A3D0000E03FF0B54546E8
:10A19000DE4657464E46E0B5A6256D00435980463B
:10A1A0008BB0002B00D080E03833434407939C23CE
:10A1B0005B0043449B46B626434676009F59B8232E
:10A1C00042465B00D058391C12F039F912F028FAD7
:10A1D000BA2342465B000400D0580D0012F020FA6A
:10A1E00002000B000020C44910F00FFA02000B001F
:10A1F0002000290010F039FA0400381C0D0012F07C
:10A200000FFA02000B002000290010F007FA10F0EE
:10A2100005FB43469851BC2342465B00D558814616
:10A22000281C12F0FDF9B54AB54B06000F0010F0DE
:10A230001CFA0022B04B10F0F1F910F0EFFA039085
:10A24000484612F087F912F063F98221C90512F02D
:10A2500010F912F07FF98721C9000FF067FFFF2086
:10A26000A84C89000B59DA171040C018001212F0E0
:10A270004FF9041C12F0D4F9A34AA44B10F040FA91
:10A28000002827D00021281C12F022F9002800D035
:10A29000F0E0300039009C4A9C4B10F031FA002865
:10A2A00000D0E7E09A4B02932CE0382343441C0093
:10A2B00007939C235B0043441F001FF03FFC434671
:10A2C0005E5971000FF032FF891B02C4A742F4D11E
:10A2D000BB4670E78F49201C12F0CBF88E4912F074
:10A2E000B4F800210290281C12F0F2F8002800D0E7
:10A2F000A5E030003900844A844B10F001FA0028B0
:10A3000000D09CE0291C029812F09FF8FE218905DC
:10A31000071C12F0F3F8002800D090E0FE20391C52
:10A32000800512F08CF88023061C1B06C018311C17
:10A3300012F09FF88B21C905041C12F09AF812F054
:10A3400047F905900691381C391C12F07BF8029DE4
:10A3500004907249281C12F0C9F8002806D07049F0
:10A36000281C12F0BBF8002800D090E00021301C1F
:10A3700012F07FF8A8235B00994643449A46986000
:10A38000DC60051C311C029812F073F8391C12F0C5
:10A3900059F8049912F06DF8039912F06AF85346CF
:10A3A0008B211861041CC905281C12F062F812F0F8
:10A3B0000FF9049188210390C905201C12F059F867
:10A3C00012F0C8F843464A46029098585346079CF4
:10A3D0005D68039A049BC11712F014F8059A0600F1
:10A3E0000F002800069BE91712F00CF8801979413C
:10A3F000CB171B051B0D009300230193009A019BB3
:10A40000801859410A05030B20681343029AC018AB
:10A410004243D317DB05DB0D9B185B1208C44A4689
:10A4200043469D5853465D6043469850A345D0D15E
:10A430000BB0F0BCBB46B246A946A046F0BD802397
:10A44000DB058024FE2704930023029D3349281C4A
:10A450000026059306932406BF0512F047F800284E
:10A4600000D183E72E49281C12F038F8002800D1CB
:10A470007CE70CE0264B802402938023DB05FE273B
:10A48000049300230026059306932406BF05029932
:10A49000081C11F0EEFF011C814611F0EAFF011CBF
:10A4A0008246484611F0E5FF1E4911F0E2FF1E49C1
:10A4B000051C504611F0DDFF011C281C11F0C2FFE5
:10A4C00012F0AEF808900991484612F0A9F800225F
:10A4D000164B10F0CAF802000B000898099910F00A
:10A4E00094F80022044B10F099F810F097F9011C31
:10A4F00011F0A8FF011C3AE70000F03F9A999999E2
:10A500009999C93FD8A20020FCA9F1D24D62503FD1
:10A510009D922B3BD00FC9400080BB46D00FC9BFD6
:10A52000D00FC93F610BB6BAABAA2A3D0000E03F8D
:10A53000F8B5234B04001E680021336830005B68C7
:10A5400098473368300000221B681E499847012352
:10A550001D4A2370A354002323611C4B1A685B68B7
:10A5600022626362A261E361A262E3620DF0CAFA51
:10A57000206361631FF0E2FA05000DF0C3FA0600E4
:10A580000F00280005210FF0D1FDFA220531480106
:10A59000401A80004018C00000239200C11711F03B
:10A5A00031FF801979410B008021020009068B429E
:10A5B00002D30122064B5242A263E363F8BDC046B8
:10A5C000D8BD0210000034438878000048C1021052
:10A5D000FFFFFF7F002310B50370034B00211868B5
:10A5E00003685B68984710BDD8BD0210052303704F
:10A5F0007047C046F0B5D6464F4646460378C0B5CC
:10A60000052B33D0032B45D09621254F49003A889E
:10A61000161C8A422FD8B6B2012B30D0002E25D07E
:10A62000204B00259946204B002498461F4B9A4604
:10A6300006E0514669350134D150FF35A64215DD9B
:10A64000310028000FF072FD0223F95E0F22411A3B
:10A65000484607F0DFF84246A30012680028E8D118
:10A6600069350134D050FF35A642E9DCE0BCBA467A
:10A67000B146A846F0BD0E1CB6B2012BCED10C4B94
:10A68000C3185B68002BC9D10A4B9C46604407F095
:10A6900075FFEBE7006C03689B699847E6E7C046E7
:10A6A0003C1500202898002060150020000A0AFFB1
:10A6B000B87900005878000070B506000D0014004D
:10A6C00012F02CFC012809D0022800D070BD013CFA
:10A6D0000648E2B2691C0BF0D9FAF7E73000013CFA
:10A6E000E2B2691C48300AF045FDEFE70097002010
:10A6F000F0B557464546DE464E46E0B50768466823
:10A700009246F21B92109B4693009B180D00190174
:10A710005B1819025B1819045B185B009B183A4A16
:10A72000804683B093426BD0E91B0191B74259D068
:10A7300059008B424BD8002957D100230C2499464D
:10A7400001935A46504611680C9A00681268EB1B38
:10A750004B4407C3AF4212D04A463B0013CB13C24F
:10A76000AB42FBD12A000C3A284BD21B9208534330
:10A770009B009A085C08A418A40018344C44AE420C
:10A7800010D0761B214B0C3EB60873439B009B08F0
:10A7900001335E00F618B60020003200290012F0E6
:10A7A0003FF9A419002F05D0434699683800C91B0A
:10A7B00012F044F943464A461A60019A5C609A6076
:10A7C00003B0F0BCBB46B246A946A046F0BD104C53
:10A7D000200012F02BF92300814604004B44019322
:10A7E0000C34AEE7591C0133F1D2914203D84B002F
:10A7F0005B189C00ECE711004B005B189C00E7E73E
:10A80000044815F08BFEC046AAAAAA0AABAAAA2A37
:10A81000F8FFFF7F54AC0210F8B54546DE465746B8
:10A820004E460368E0B5934646682F4A98460500B1
:10A830000F00F31A934253D04146791A8A46002BEF
:10A8400044D091465900994243D2484612F0EEF85E
:10A850005B4652461B7804008354012353449B46B5
:10A86000F61B002A27DC8344002E0DDC43465E44A1
:10A87000002B19D12C604C446E60AC60F0BCBB4620
:10A88000B246A946A046F8BD32003900584612F03B
:10A89000C7F843465E44002BECD005E03200390097
:10A8A000584612F0BDF85E444346A968C91A4046AE
:10A8B00012F0C4F8DEE741461EF09AFEA344002ED3
:10A8C000ECDC4346A9685E44C91AF0E701239946C7
:10A8D000BBE7802389461B069942B6D39146B4E76D
:10A8E000024815F01BFEC046FFFFFF7F54AC02106C
:10A8F000F8B54546DE4657464E460368E0B59346F2
:10A9000046682F4A984605000F00F31A934253D029
:10A910004146791A8A46002B44D091465900994203
:10A9200043D2484612F082F85B4652461B78040038
:10A930008354012353449B46F61B002A27DC83449F
:10A94000002E0DDC43465E44002B19D12C604C4494
:10A950006E60AC60F0BCBB46B246A946A046F8BDEE
:10A9600032003900584612F05BF843465E44002B33
:10A97000ECD005E032003900584612F051F85E4440
:10A980004346A968C91A404612F058F8DEE7414626
:10A990001EF02EFEA344002EECDC4346A9685E4464
:10A9A000C91AF0E701239946BBE7802389461B06B5
:10A9B0009942B6D39146B4E7024815F0AFFDC046C0
:10A9C000FFFFFF7F54AC0210F0B5DE464546574608
:10A9D0004E46E0B59DB005001FF0B0F80C210FF019
:10A9E000A5FB8B1F9846EB239B00EC1843460127E1
:10A9F00023665D23E7541FF0A1F83B00C20F8018C7
:10AA000003409B1AF12201339200AB5482238E4AF9
:10AA1000DB00EA501FF092F803210FF087FB802340
:10AA20000231DB00E9501FF089F823210FF07EFB93
:10AA3000864B1E31E9502B002600454600279846DC
:10AA40001FF07CF8C3179B0DC0188005800DC01A3D
:10AA500011F05EFD8121C90511F00BFDEA21890588
:10AA600011F007FD8121C90511F0ECFC81461FF0B2
:10AA700065F8C3179B0DC0188005800DC01A11F032
:10AA800047FD734911F0F5FCEA21890511F0F1FC4D
:10AA900094218246C905484611F0EBFC6D4911F03E
:10AAA000D4FC11F089FDFE216B4B8905E052504624
:10AAB00011F00EFD002800D0B5E0FA208000674BB1
:10AAC000D136E0521FF03AF8C3179B0DC01880052D
:10AAD000800DC01A11F01CFDEA21890511F0C9FC96
:10AAE0008146011C11F0C5FC494611F0C2FC11F071
:10AAF00097FD00225A4B0FF0B8FD0FF047FE206083
:10AB00001FF01CF8FA2149000FF010FBC8316160FA
:10AB10001FF014F8C3179B0DC0188005800DC01AD4
:10AB200011F0F6FCEA21890511F0A3FC011C11F0DB
:10AB3000A0FC11F075FD00224A4B0FF096FD0FF0BE
:10AB400025FEA0601EF0FAFFC3179B0DC0188005FC
:10AB5000800DC01A11F0DCFC434911F08AFCEA2197
:10AB6000890511F086FCE0601EF0E8FF18210FF067
:10AB7000DDFA0F31A1631EF0E1FF24210FF0D6FAB8
:10AB80000131E1631EF0DAFF14210FF0CFFA080063
:10AB90000FF0E4FD0022354B0FF040FD0FF03EFEBC
:10ABA000E0641EF0CBFFC3179B0DC0188005800D1D
:10ABB000C01A11F0ADFC2E4911F05BFCEA218905A9
:10ABC00011F057FC11F02CFD2A4A2B4B0FF026FDFB
:10ABD0000FF024FE0137A064FF36042F52D000226C
:10ABE0005D233566F2541EF0A9FF03210FF09EFA93
:10ABF00031761EF0A3FF032303405A4253415C22E7
:10AC0000B3541EF09BFF03210FF090FA04317165DD
:10AC10001EF094FF28210FF089FA184B0A313400F6
:10AC2000B16573660CE70021504611F067FC0028FF
:10AC300001D100F016FD1249504611F01AFC11F036
:10AC4000BBFC80B23BE7C046F82A000004040000C9
:10AC5000CDCC4C3E0080BB46A4FEFFFFA2FEFFFF12
:10AC60000000494000008940E820553F0000F03FC7
:10AC7000E2AE5E3F9A9999999999B93F881300007D
:10AC800000007A44E0231B019C46E94BC44464461F
:10AC90009C46C444664645460D940B96206903685D
:10ACA0001B69984723686268934200D0636014343C
:10ACB000B442F3D11EF042FF64210FF037FA0420B2
:10ACC00000220D9E0B001691B468716818901792BF
:10ACD000A14201D100F022FD8B6008604A6017ABF1
:10ACE0000C317160039318AC1EF028FF1E210FF089
:10ACF0001DFA042001220D9F0B001691BE68796891
:10AD000018901792B14201D100F015FD08604A6019
:10AD10008B600C3179601EF011FF64210FF006FA90
:10AD2000042002220D9F0B001691BE6879681890CE
:10AD30001792B14201D100F0A9FC08604A608B6013
:10AD40000C3179601EF0FAFE64210FF0EFF9042057
:10AD500003220D9F0B001691BE6879681890179218
:10AD6000B14201D100F09BFC08604A608B600C315D
:10AD700079601EF0E3FE0F210FF0D8F90D9B05312D
:10AD800019731EF0DBFE50210FF0D0F908200422C9
:10AD90000B001691A74918906F187968BE68179232
:10ADA000B14201D100F084FC08604A608B600C3134
:10ADB00079601EF0C3FE14210FF0B8F901200022C3
:10ADC0000B001691BE68796818901792B14201D1B4
:10ADD00000F077FC08604A608B600C3179601EF0EF
:10ADE000ADFE28210FF0A2F9283139731EF0A6FE1E
:10ADF00064210FF09BF910220023884616918E499A
:10AE000018926E187168B0681793814201D100F0F2
:10AE100061FC4B6043460A608B600C3171601EF030
:10AE20008DFE0123424683435B42134008200022EB
:10AE30007168B768189017921693B94201D100F063
:10AE400052FC08604A608B600C3171601EF076FE27
:10AE5000032303405A42534142465B4213400420BD
:10AE600000227168B768189017921693B94201D101
:10AE700000F042FC08604A608B600C3171601EF08B
:10AE80005DFE0027800704D10A2140460FF04EF9ED
:10AE90000700012200237168B06818921793169773
:10AEA000814201D100F031FC0A604B608F600C31AF
:10AEB00071601EF043FE32210FF038F93C313173DE
:10AEC0001EF03CFE5D490FF031F908000FF046FC22
:10AED00000225B4B0FF0ABFB0FF0A0FC011C11F04C
:10AEE000C8FA061C1EF02AFE54490FF01FF908008C
:10AEF0000FF034FC0022524B0FF099FB0FF08EFC48
:10AF00005049071C301C11F0B4FA11F055FB4E4AA1
:10AF100083B2AA185B081380391C381C11F0A9FAF7
:10AF20004A4911F0A6FA11F047FB494BEB1818807B
:10AF30001EF004FE05210FF0F9F80800022900DDDB
:10AF400095E303210FF01AF9424A4B0094465B182F
:10AF500011009B00634410938A2292009446AC44F3
:10AF600062460E923C4A3D4B0F923D4A0795119224
:10AF70008022D2009446AC4462461492B42212015C
:10AF80009446AC446246159527008A461D000C93F2
:10AF90000A920F9814F02CFF002800D091E2079B32
:10AFA0000C9A11989A6514F023FF002800D000E352
:10AFB000079B109A99465A655346149E129313950F
:10AFC0000023002418931994BB601EF0B7FD0621DE
:10AFD0000FF0ACF84B4259410922494291431031DC
:10AFE00005911EF0ABFD06210FF0A0F8002901D15C
:10AFF000082305931EF0A2FD06210FF097F8002903
:10B0000001D10C2305931EF099FD06210FF08EF857
:10B01000002901D104230593002304934B46002506
:10B020000893079BBB460024B2462F0098464DE08C
:10B030003C0E0000140E0000280E00001027000037
:10B040000088C3400000FA454472000000007A46C0
:10B050004672000034CC0020B0A20020ECCB0020CF
:10B06000B4A20020434642465B6D926D1D6859684C
:10B070001268491B10780FF059F843006D5C1B18DB
:10B080009B00ED181EF05AFD06210FF04FF8002925
:10B0900000D107351EF052FD06210FF047F80029B8
:10B0A00000D10C3553460C221B6853430233039ADC
:10B0B0005B195BB21370049AA2426BD023705B469B
:10B0C00001345C60059B01379F4270D01EF036FD55
:10B0D00064210FF02BF853465B68994200DAA2E135
:10B0E00053465B7A002BBDD11EF028FDFA21890062
:10B0F0000FF01CF808000FF031FB0022D34B0FF0CB
:10B1000096FA0FF08BFB011C11F0B3F911F088FADD
:10B110000022CF4B0FF0A9FA0FF038FB013011F0ED
:10B12000F7F9061C1EF00AFDC00703D480231B0696
:10B130009C466644280011F0EBF9311C11F082F9AD
:10B1400011F008FA05000E2800DC21E143460E2527
:10B150005B6DBA0700D123E15246127A002A00D073
:10B160001EE11A6859682800891A06920EF0DEFF5F
:10B17000420012189200069B5B5C0C219B18524601
:10B1800012684A4302329B18039A5BB21370049A06
:10B19000A24293D111005846039AFFF7A9FB5B46E0
:10B1A0005C689B6801370493059B9F428ED1089B86
:10B1B0005F4699464A46996818683B685460136030
:10B1C0004B46049A56469A60002802D0091A11F09C
:10B1D00035FC0C239C46D1360A9BFF36E144B34232
:10B1E00000D0EDE63022129B94469A46139D0597B7
:10B1F000AB465746079B634499460D9B0493002337
:10B200000024002218931994059B90469A604A46A0
:10B2100099463B00002647469A460692049B30CB4F
:10B22000AC4204D107E10C34A54200D103E1300067
:10B2300021680EF07BFF63689942F4D11EF07EFC1A
:10B2400064210EF073FFA3689942ECDA474500D100
:10B250001CE1049B1B7B5BB23B704B4601375F607C
:10B260000136102EDAD1069B99465346BA461F0086
:10B270004B464A4699681868059B1B6813604B4605
:10B2800052465A6042469A60002802D0091A11F0CC
:10B29000D5FB0C239C46049B0B9A1433E144049386
:10B2A0009342ACD10C9A079B0C320C920E9A5C33F1
:10B2B000BA465D46059F07939A4200D069E6159D00
:10B2C0001EF03CFC8D239B00EC58EB185A68121BB7
:10B2D000921093009B1819015B1819025B1819044E
:10B2E0005918490089180EF049FF4F007F18BF0018
:10B2F0000E9AE71997422FD08A2189007B683E6811
:10B300006858926888469C1B121AA24200D21BE21F
:10B310000E9A52689446121A944200D8ABE1042A5D
:10B3200000DC2FE231001EF063F90E9B3E685B6883
:10B330009C464346E85863461A1A7B68B1185A1A65
:10B34000042A00DC2DE260461EF052F98A239B009D
:10B35000EB581C190E9B5C6091241023A4002B5108
:10B360001EF0ECFB800701D108232B511EF0E6FBF9
:10B3700006210EF0DBFE002903D191230C229B0055
:10B38000EA501DB0F0BCBB46B246A946A046F0BD8F
:10B39000C343DB171D4043465B6DBA0700D0DBE6B5
:10B3A00059681B682800C91A0EF0C0FE89461EF0B5
:10B3B000C5FB4346C0074DD49B6D1A685868434689
:10B3C000596D9446801A0A680692012800DC4BE108
:10B3D0000997170002000123484689466146A446A2
:10B3E000140002E00133A34264D0CE5CBA5D904207
:10B3F000F8DC64464946099F069A4B6828009B1A68
:10B40000994619000EF092FE4B465843851949465D
:10B4100028000EF08BFE420012189200002900DB7B
:10B42000A9E64944A7E68023039A1370049AA2422E
:10B4300000D043E6AEE68023039A1370474530D030
:10B440003B704B4601375F600AE7C04600408F40C3
:10B450000000084041469A6D496D136852680E68B5
:10B46000D21A501E06961E5C0128C5DC0698023AC8
:10B47000805D9B188145BFDA8C46494606981E7848
:10B48000013B825D9142FADB6146B5E7049A3900DF
:10B4900048460C32FFF7C0F94B465F689B689846F8
:10B4A000DEE639004846FFF723FA4B465F689B68A3
:10B4B0009846D5E664468C4662464946099FD65C66
:10B4C0009AE7002404202C606C60AC6011F0AEFAA6
:10B4D00002262200047044700434031DC4702860E6
:10B4E00086700420AB606B60EA602A616A6111F0CB
:10B4F0009DFA01210022017041708946023181705C
:10B5000088460231031DC170E86004208B466B61E0
:10B510002B61AA61EA612A6211F088FA06210022F1
:10B52000031D8470C170A8610670467004202B62F0
:10B53000EB616A62AA62EA6211F078FA414600227F
:10B54000017081705946031D4270C1706862042009
:10B55000EB62AB622A636A63AA6311F067FA494639
:10B56000002241700531031DC1700470847028638E
:10B5700004201400AB636B63EA632A646A6411F00D
:10B5800055FA5A46031D0270C270E8634470867013
:10B5900089486B642B641EF0FDF90F9814F044FC8D
:10B5A000079B0C9A11989A6514F022FC002800D190
:10B5B000FEE40024534607201C605C609C6011F090
:10B5C00035FA534652461860C31D93600422022682
:10B5D0008270013251469146C27002329046027129
:10B5E00002324271023204704670827107204B6051
:10B5F000CC600C614C6111F019FA4A465346514631
:10B60000C2704246D860C31D4B61032102710132F2
:10B6100093464271023204704670817082715046C6
:10B6200003618461C4610462072011F0FFF9032102
:10B6300053468170494652469861C170C31D4146C8
:10B6400013620B2201715946827152460470467092
:10B6500041715A48D3611EF09DF9119814F0E4FB32
:10B66000A6E40020FFF72BFA63465E78C4E6544B4D
:10B670001900109370E4042C00DC8EE022003100ED
:10B680001DF0B6FF4346EB581C1963E616AB00935A
:10B6900038002200039BFFF72BF8FFF753FB16AB94
:10B6A000009338002200039BFFF722F8FFF761FBAD
:10B6B00016AB009322003800039BFFF719F8FFF741
:10B6C00078FB16AB009322003800039BFFF710F8BD
:10B6D000FFF785FB16AB009322003000039BFFF7BA
:10B6E00007F8FFF79CFB16AB009322003000039B8A
:10B6F000FEF7FEFFFFF7AAFB16AB00932200300017
:10B70000039BFEF7F5FFFFF7BAFB16AB0093220091
:10B710003000039BFEF7ECFFFFF7CBFB17AB1A00E3
:10B72000039318AC16AB0093300013002200FEF711
:10B73000DFFFFFF7D9FA16AB009338002200039B16
:10B74000FEF7D6FFFFF7E7FA1E4B9C4223D82000F6
:10B7500011F06CF90700042C1ADD220031001DF0F5
:10B7600047FF8A239B00E858002804D00E9B996865
:10B77000091A11F063F98A239B00EF500E9B3C19C4
:10B780009C60E7E5042A00D0D8E531680160D5E582
:10B7900033680360E5E714F099FE042C08D004191F
:10B7A000D8E5042AFBD162460B6804191360D1E581
:10B7B000336804190360CDE5FD900010319100104D
:10B7C00034CC0020FCFFFF7FF0B5454657464E467F
:10B7D000DE46E0B506684568884634499246AA1BAD
:10B7E000040083B053108B425CD04046801B8146DE
:10B7F000AE423ED0934228D8002300279B46002A21
:10B800003AD153464A461B88BB524B4602339A46AE
:10B810004346ED1A2B00BA4453440193002A1CDC22
:10B82000002D04DD2A004146504611F0F9F8002EA3
:10B8300019D1019B276063605B46A36003B0F0BC35
:10B84000BB46B246A946A046F0BD194B9B4658469A
:10B8500011F0ECF807008344D3E7310038001DF005
:10B86000C7FE002D0FDCA1683000891B11F0E6F83F
:10B87000DFE75A1C0133E8D28023DB059A420DD260
:10B8800053009B46E3E741462A00504611F0C8F8B2
:10B89000A1683000891B11F0D1F8CAE70A005300F3
:10B8A0009B46D4E7034814F039FEC046FFFFFF3F34
:10B8B000FEFFFF7F54AC0210F0B5DE46454657460A
:10B8C0004E461400E0B5834683B0483007F0E8FCEC
:10B8D0003D4D210028000AF0D9F83C4B2F00984636
:10B8E0008026032303210024A844AB611C37760083
:10B8F00002E04246364BD158E2B22800C9B20AF003
:10B9000025F9431E984138550134B442F1D12F4BEB
:10B910009C46304B6544EA582F4BE9588A4200D088
:10B92000EA504B239946053398462C4E284F4B46F8
:10B93000DCB22B4B4D469A46B24405E0013401354A
:10B94000E4B2ADB2444517D022005046F15D0AF092
:10B95000FDF80028F2D06B46224ADD801E4BB2581B
:10B96000F158914226D001340D80E4B20231013504
:10B97000F150ADB24445E7D10534E3B298464B46A9
:10B9800005339BB299465A2BD1D15C462000FEF775
:10B99000CFFD236C002B14D0134B58469C4600213E
:10B9A000604406F0E1FD03B0F0BCBB46B246A946D8
:10B9B000A046F0BD074BF0186B469A1DFFF704FF39
:10B9C000BCE70A4B2364E7E7009700207087FFFF7E
:10B9D000A8780000AC790000B0790000701E00204B
:10B9E00090780000B479000058780000901C002086
:10B9F000F8B54546DE4657464E460368E0B59346E1
:10BA000046682F4A984605000F00F31A934253D018
:10BA10004146791A8A46002B44D0914659009942F2
:10BA200043D2484611F002F85B4652461B780400A8
:10BA30008354012353449B46F61B002A27DC83448E
:10BA4000002E0DDC43465E44002B19D12C604C4483
:10BA50006E60AC60F0BCBB46B246A946A046F8BDDD
:10BA600032003900584610F0DBFF43465E44002B9D
:10BA7000ECD005E032003900584610F0D1FF5E44AA
:10BA80004346A968C91A404610F0D8FFDEE7414690
:10BA90001DF0AEFDA344002EECDC4346A9685E44D5
:10BAA000C91AF0E701239946BBE7802389461B06A4
:10BAB0009942B6D39146B4E7024814F02FFDC04630
:10BAC000FFFFFF7F54AC0210F0B54746CE46FA2682
:10BAD00080B504000F00904687B0B600B14200DA8E
:10BAE00059E1310038000EF021FB3100050038002B
:10BAF0000EF01CFB28000F0031000EF017FB0E00AB
:10BB000001295ADC1D222000217E09F0D9FF0023E3
:10BB10003D00632F0DDD642138000EF007FB0D00A2
:10BB2000C72F00DDC5E01C222000217E09F0C8FFE0
:10BB30000023142D34DD0A2128000EF0F7FA217EAF
:10BB4000060007281CD0092800D186E00200430720
:10BB50001B1A9B001B1A5B001232ED182000D2B298
:10BB600009F0AEFF012D00D1B7E00B2D00D10EE1A1
:10BB70000123002DDDD107B0C0BCB946B046F0BDF1
:10BB80003C3D1822200009F09BFF012D00D1EBE085
:10BB90000B2DEDD11E222000217E09F091FF012303
:10BBA000002D00D0ADE00025002BE4D0A1692A00D3
:10BBB0002000C9B209F084FFDDE7632900DCECE076
:10BBC000642130000EF0B2FA0D00C72E7BDC1C227F
:10BBD0002000217E09F074FF0023142D1FDD0A21AF
:10BBE00028000EF0A3FA217E0600072824D0092899
:10BBF00041D0020043071B1A9B001B1A5B00123244
:10BC0000ED182000D2B209F05BFF012D74D00B2D8E
:10BC10004AD0002D00D175E70123142DDFDC002D63
:10BC200035D10025002B00D16CE7A1692A00200046
:10BC3000C9B209F045FF65E73C3D1822200009F034
:10BC40003FFF012D00D19BE00B2DE2D11E222000F1
:10BC5000217E09F035FF0123DFE7503D1A22200045
:10BC600009F02EFF012D3BD00B2D00D080E70B25D6
:10BC7000A169EDB29BE7503D1A22200009F020FF98
:10BC8000012D3BD00B2D11D0002D00D13AE7012D15
:10BC900000D0C6E04346A169002BC7D01F22200078
:10BCA000C9B209F00DFF2DE7082ECFD10B250123D6
:10BCB000B3E7642138000EF039FA42460100200053
:10BCC000FFF702FF2FE7642130000EF02FFA424603
:10BCD00001002000FFF7F8FE79E7082E00D059E7B1
:10BCE00043460125A169002B00D160E71F222000F7
:10BCF000C9B209F0E5FE3EE7082EA7D101250123D0
:10BD00008BE7012DECD06B1CB2D1002200230292F4
:10BD1000039300230493227F02AE002A40D1637F65
:10BD2000002B6FD1A37F002B00D02EE1E37F002BEF
:10BD300000D0F9E0002100252023E35C002B56D140
:10BD4000029E8F1BB54200D1E2E01DF0F7FEA91B59
:10BD50000EF014FA755C002E00D127E73900300090
:10BD600010F06CFEA16922E7217E1E22200009F05E
:10BD7000A7FE43460125A169002B00D117E7B5E7CF
:10BD80001E222000217E09F09BFE0125B7E7082E28
:10BD900000D16CE7FEE60123BAE60D0001233CE783
:10BDA00007226A440021137030009146FFF720FEFD
:10BDB000637F7568B168002B00D0DCE0A37F002BA7
:10BDC00008D002234A461370A94200D1E4E02B7048
:10BDD00001357560E37F002BAED003234A46137014
:10BDE0008D4200D1A7E02B7001357560A4E76B464A
:10BDF000DA1D04231370A94200D1EBE02B7001354A
:10BE000075609DE707236B44994601234A46002548
:10BE1000137029004A463000FFF7EAFD7568B168E3
:10BE2000CCE76B1C00D0DBE00022002302920393DE
:10BE300000230493227F02AE002A23D1637F002BCC
:10BE400058D1A37F002B00D0AEE0E37F002B7AD146
:10BE5000002100252023E35C002B38D1029E8B1BA0
:10BE60009946AE425CD01DF069FEA91B0EF086F922
:10BE7000755C002E00D1D8E64946300010F0DEFD9A
:10BE8000A169D3E607226A4400211370300091466D
:10BE9000FFF7AEFD637F7568B168002B62D1A37FA9
:10BEA000002B08D002234A4613708D4200D182E055
:10BEB0002B7001357560E37F002BCBD003234A46FE
:10BEC00013708D4246D02B7001357560C2E76B460A
:10BED000DA1D042313708D4275D02B700135756007
:10BEE000029E8B1B9946B542BDD14946280010F0F1
:10BEF000A5FD07E607236B44994601234A46002126
:10BF000013704A463000FFF773FD7568B168C6E7E5
:10BF1000002D00D12FE63900280010F08FFD2AE611
:10BF2000002D00D1EEE5E0E707236B44994603239B
:10BF30004A460025137029004A463000FFF758FD95
:10BF40007568B168F8E607236B44994603234A46AF
:10BF50000025137029004A463000FFF749FD756837
:10BF6000B16877E701234A4613708D42C9D02B7020
:10BF70000135756093E701234A461370A94200D149
:10BF800047E72B700135756018E707236B44994626
:10BF900002234A460025137029004A463000FFF765
:10BFA00027FD7568B16815E707236B44994602239E
:10BFB0004A460025137029004A463000FFF718FD55
:10BFC0007568B16877E729003000FFF711FD7568E3
:10BFD000B16843E73000FFF70BFD7568B168AFE665
:10BFE000A169EDB222E6C046F0B5CE46474680B51F
:10BFF000036987B0002B00D186E00327046CD64A82
:10C0000023680770DB68934200D019E10123002602
:10C01000236297336762E6501DF090FD32210EF0E7
:10C0200085F8CE4B26619C4600236144E360616045
:10C030001DF084FDB42149000EF078F825000800B9
:10C0400010F066FA94235035A060E550236D1B680C
:10C050009846636899461DF071FD14210EF066F84C
:10C0600022000B00210028000C324B4408310096BE
:10C07000C047BB4B00211D682B6828005B689847B0
:10C08000FF222B6800929B68002298460021002323
:10C090002800C047236A9846012B38D0B14EAF2103
:10C0A0003000490009F020FD1E23636123000122B6
:10C0B00040331A7328230025A364253BA3626564DB
:10C0C000A5830BF01FFD02230722FF33A3876368BC
:10C0D00020636163D9170A40D218A34BD2109C4643
:10C0E00066440023072130006432009509F040FBCC
:10C0F000002300220B213000009509F039FB07B026
:10C10000C0BCB946B046F0BDFEF712FAF7E7974D4E
:10C11000974B039604960596EB5C002B00D0FCE150
:10C12000944BEB5C002B00D044E1934BEB5C002B79
:10C1300000D0ACE2914BEB5C002B00D025E200215B
:10C1400000268F4BEB5C002B00D0D1E1039FCB1B73
:10C150009846B74200D110E21DF0F0FCF11B0EF042
:10C160000DF87E5C002F03D04146380010F066FCCD
:10C17000844B7336E95C844BF2B2E81809F0A0FCFA
:10C18000FA239B0098462E69012346451CDB414655
:10C1900030000DF0CBFF4146070030000DF0C6FF28
:10C1A00038000E0041460DF0C1FF012904DD764B39
:10C1B0000022E818FFF788FC724B1D22E95C724BE5
:10C1C000E81809F07DFC0023632E00DC7EE2642188
:10C1D00030000DF0ABFF0F00C72E00DD29E1614EEE
:10C1E000684B1C22E95C684BE81809F069FC0023E5
:10C1F000644A9146142F00DCA9E10A2138000DF0B1
:10C2000095FF4B468046E95C072800D1FAE00928F3
:10C2100019D0020043071B1A9B001B1A5B00FF1872
:10C22000594B1232D2B2E81809F04AFC012F00D162
:10C230000AE10B2F00D10DE1002F50D00123D9E7E7
:10C24000200098475BE7504B503F1A22E81809F04E
:10C2500037FC012F00D1FAE00B2F00D1FDE0002FB9
:10C260003DD07B1C00D021E20023484A0393049375
:10C270000593AA5C002A00D0ACE1454BEB5C002B97
:10C2800000D015E2434BEB5C002B00D03DE2424B6B
:10C29000EB5C002B00D020E2002100273F4BEB5C41
:10C2A000002B00D0C0E1039B9846CB1A9946B845B5
:10C2B00000D10EE21DF042FC4346F91A0DF05EFF7C
:10C2C00043465F5C002B03D04946404610F0B6FB66
:10C2D0002C4B3A00E95C2C4BE81809F0F1FB0023E9
:10C2E0002F4A039304930593AA5C002A00D0D5E05B
:10C2F0002C4BEB5C002B00D030E12B4BEB5C002B8C
:10C3000000D0A7E1294BEB5C002B00D04AE10023D1
:10C310000027274AAA5C002A00D0A9E0039A9B1AAA
:10C3200090469946BA4200D12BE11DF007FC4346E6
:10C33000F91A0DF023FF43465F5C002B03D04946FA
:10C34000404610F07BFB0F4B2D37E95C0E4BFAB2E9
:10C35000E81809F0B5FBA2E681D5001088130000AB
:10C36000D8BD021000970020B887FFFF701E002084
:10C370001F79000020790000217900002279000057
:10C3800023790000A878000090780000AC780000C5
:10C39000AD780000AE780000AF780000B078000003
:10C3A000D9780000DA780000DB780000DC78000043
:10C3B000DD7800000B2342466B44994600211A7039
:10C3C0004A4603A8FFF714FB049E0599D64BEB5C85
:10C3D000002B08D002234A4613708E4200D15DE143
:10C3E000337001360496D14BEB5C002B00D1A8E6EC
:10C3F00003234A4613708E4200D1CBE033700136DE
:10C4000004969EE6CA4B3C3F9846A84418224046F4
:10C4100009F056FB012F23D00B2F00D00CE70B2780
:10C42000C44B1E22E95CC24BE81809F049FB01230A
:10C43000E0E6642130000DF079FEBF4E01000022DD
:10C440003000FFF741FBCBE64346082BE8D101273C
:10C450000123CFE64346082BE1D10B270123C9E690
:10C460004B461E224046E95C09F02AFB0127EFE714
:10C470000B2204216A4411709F4200D1F9E0039A13
:10C4800039709B1A0137904699460497974200D01D
:10C490004BE74946380010F0D1FA00E60B226A4417
:10C4A0001370002103A89146FFF7A2FAA34A049F44
:10C4B000AA5C059B002A00D083E0A14AAA5C002A5E
:10C4C00008D0022249460A70BB4200D1C9E03A7046
:10C4D000013704979B4AAA5C002A00D119E703227E
:10C4E00049460A70BB4264D03A700137049710E79E
:10C4F0000B2204236A4413708E4200D1C0E0039FD4
:10C5000033700136CB1B98460496BE4200D023E61A
:10C510004146300010F092FA32E60B236B441E7055
:10C520001A00002103A89946FFF762FA864B049E81
:10C53000EB5C0599002B00D148E74B4642461A7048
:10C540008E4200D13CE73270013604963EE7002F60
:10C5500000D086E6002B00D0BAE6C0E60B236B4481
:10C56000994601234A460027137039004A4603A81A
:10C57000FFF73EFA049F059B9FE7002E00D1FFE5E1
:10C58000C6E7002F00D18AE583E70B236B44994669
:10C5900000261F7031004A4603A8FFF729FA049EBF
:10C5A0000599CEE50B236B44994603234A460027A1
:10C5B000137039004A4603A8FFF71AFA049F059B37
:10C5C000A7E6012249460A70BB42CED03A70013735
:10C5D000049772E70B226A440021137003A8914666
:10C5E000FFF706FA594B049FEB5C0599002B00D02E
:10C5F00082E0574BEB5C002B08D002234A461370B5
:10C600008F4200D188E03B7001370497514BEB5CBF
:10C61000002B00D142E603234A4613708F4263D0B9
:10C620003B700137049739E60B2204236A441370E8
:10C630008F4200D190E03B70039B01379846CB1AA4
:10C6400099460497474500D034E64946380010F033
:10C65000F5F944E60B236B44994602234A4600272A
:10C66000137039004A4603A8FFF7C2F9049F059BDF
:10C6700030E7390003A8FFF7BBF9049F059B4DE69F
:10C68000310003A8FFF7B4F9049E05995EE50B237A
:10C690006B44994602234A460026137031004A46ED
:10C6A00003A8FFF7A5F9049E05999CE6FFB20FE6E3
:10C6B0000B236B44994601234A46002113704A46D6
:10C6C00003A8FFF795F9049F059992E737001A4EE2
:10C6D0008EE5002F00D102E6B7E70B236B449946A5
:10C6E00003234A460027137039004A4603A8FFF780
:10C6F0007FF9049F0599D1E501234A4613708F42C3
:10C70000DDD03B700137049773E70B236B449946E8
:10C7100002234A460027137039004A4603A8FFF750
:10C7200067F9049F059971E72179000022790000DB
:10C7300090780000A878000000970020DA780000C8
:10C74000DB780000DC78000020790000AD78000084
:10C75000AE780000AF780000390003A8FFF748F971
:10C76000049F05999FE5C046036AF0B5013B9D050E
:10C77000C646ED1AAD01ED186D00ED18CA4B00B5B7
:10C780009C4686B0ED00654404001DF0D7F93221C7
:10C790000DF0CCFC002600234919E360616026619E
:10C7A0001DF0CCF9B42149000DF0C0FC25000800B3
:10C7B0000FF0AEFE94235035A060E55067681DF081
:10C7C000BDF914210DF0B2FC2200CB192100280084
:10C7D0000C3208310096FBF705FFB44B00211D68B1
:10C7E0002B6828005B689847FF222B6800929F689F
:10C7F0000022002300212800B847276A012F2BD0F0
:10C80000AF21AB4D4900280009F06EF91E2363618A
:10C810002300012240331A7328230026A364253BFA
:10C82000A3626664A6830BF06DF902230722FF332F
:10C83000A387636820636163D9170A40D2189D4BB0
:10C84000D210E818072100236432009608F090FF08
:10C8500006B080BCB846F0BD974D984B0396049641
:10C860000596EB5C002B00D04AE1954BEB5C002B6E
:10C8700000D015E2934BEB5C002B00D074E2924B9E
:10C88000EB5C002B00D01FE2002100268F4BEB5CFD
:10C89000002B00D088E1039FCB1B9846B74200D104
:10C8A0000AE21DF04BF9F11B0DF068FC7E5C002FD5
:10C8B00003D04146380010F0C1F8854B7336E95C6F
:10C8C000844BF2B2E81809F0FBF8FA239B00984673
:10C8D0002F69012347451CDB414638000DF026FC3B
:10C8E0004146060038000DF021FC30000F004146A3
:10C8F0000DF01CFC012904DD764B0022E818FFF73F
:10C90000E3F8734B1D22E95C724BE81809F0D8F884
:10C910000023632F00DC60E2642138000DF006FC88
:10C920006421804638000DF001FC694B0E00E95C83
:10C93000C72F05DD4346DAB2664BE81809F0C0F8A8
:10C94000634B1C22E95C634BE81809F0B9F800233B
:10C950005F4A9046142E00DC8CE10A2130000DF075
:10C96000E5FB43460700E95C072800D1F4E009280D
:10C9700016D0020043071B1A9B001B1A5B00F61817
:10C98000544B1232D2B2E81809F09AF8012E00D1B5
:10C99000F8E00B2E00D1FAE0002E4AD00123D9E7AF
:10C9A0004C4B503E1A22E81809F08AF8012E00D1AB
:10C9B000EAE00B2E00D1ECE0002E3AD0731C00D040
:10C9C00056E10023444A039304930593AA5C002A8A
:10C9D00000D097E1414BEB5C002B00D0EFE1404BE6
:10C9E000EB5C002B00D01AE23E4BEB5C002B00D03E
:10C9F000FDE1002100263C4BEB5C002B00D0A9E1BF
:10CA0000039FCB1B9846BE4200D1E8E11DF096F88B
:10CA1000F11B0DF0B3FB7E5C002F03D041463800C4
:10CA200010F00CF82A4B3200E95C2A4BE81809F0A8
:10CA300047F800232D4A039304930593AA5C002A28
:10CA400000D0DBE02A4BEB5C002B00D019E1294B36
:10CA5000EB5C002B00D09CE1274BEB5C002B00D063
:10CA600041E100210026254BEB5C002B00D0B0E01B
:10CA7000039FCB1B9846B74200D121E11DF05EF821
:10CA8000F11B0DF07BFB7E5C002F03D0414638008C
:10CA90000FF0D4FF0E4B2D36E95C0E4BF2B2E818C6
:10CAA00009F00EF8ACE6C04688130000D8BD0210AD
:10CAB00000970020B887FFFF701E00201F7900003C
:10CAC00020790000217900002279000023790000FC
:10CAD000A878000090780000AC780000AD780000E5
:10CAE000AE780000AF780000B0780000D978000080
:10CAF000DA780000DB780000DC780000DD780000E8
:10CB00000B236B441E701A00002103A89846FEF701
:10CB10006FFFCD4B049EEB5C0599002B00D096E097
:10CB2000CA4BEB5C002B08D0022342461370B14283
:10CB300000D120E1337001360496C54BEB5C002B2D
:10CB400000D1A3E6032342461370B14200D1C2E0F4
:10CB500033700136049699E6BE4B3C3EEF1818221E
:10CB6000380008F0ADFF012E16D00B2E00D013E7D1
:10CB70000B26B94B1E22E95CB64BE81808F0A0FF63
:10CB80000123E7E6082FF4D101260123E2E6082F6E
:10CB9000EED10B260123DDE643461E223800E95C78
:10CBA00008F08EFF0126F0E70B2204236A4413707D
:10CBB000B14200D1E7E0039F33700136CB1B9846AA
:10CBC0000496BE4200D06CE6414630000FF036FFBE
:10CBD0007BE60B2204236A4413708E4200D1E7E007
:10CBE000039F33700136CB1B98460496BE4200D09B
:10CBF00044E7414630000FF021FF01E60B226A4472
:10CC00000021137003A89046FEF7F2FE934B049E9A
:10CC1000EB5C0599002B22D1914BEB5C002B08D0EB
:10CC2000022342461370B14200D1B9E0337001369D
:10CC300004968C4BEB5C002B00D114E70323424697
:10CC400013708E4256D03370013604960BE743467C
:10CC50001F708E4229D037700136049660E7012399
:10CC600042461370B14213D0337001360496D3E7B5
:10CC7000F6B2D7E6002E00D0A0E6002B00D0D1E619
:10CC8000D7E60B236B4498460123424600261370D7
:10CC90003100424603A8FEF7ABFE049E0599BBE7B0
:10CCA0000B236B44984600211F70424603A8FEF7F1
:10CCB0009FFE049E059933E7002E00D105E683E729
:10CCC000002E00D19CE594E70B236B449846032388
:10CCD0004246002613703100424603A8FEF788FE44
:10CCE000049E0599D2E50B236B44984603234246E4
:10CCF000002613703100424603A8FEF779FE049E19
:10CD00000599B0E60B226A440021137003A89046EF
:10CD1000FEF76EFE544B049EEB5C0599002B75D11B
:10CD2000524BEB5C002B07D00223424613708E421D
:10CD30007CD03370013604964D4BEB5C002B00D158
:10CD400059E60323424613708E4257D033700136A2
:10CD5000049650E60B2204236A441370B1426DD04E
:10CD60003370013604964BE60B236B44984602233E
:10CD70004246002613703100424603A8FEF738FEF3
:10CD8000049E0599D9E603A8FEF732FE049E059994
:10CD900081E50B236B44984602234246002613701C
:10CDA0003100424603A8FEF723FE049E059940E7A2
:10CDB000310003A8FEF71CFE049E059958E60B23DC
:10CDC0006B4498460123424600211370424603A853
:10CDD000FEF70EFE049E0599A2E73E00B8E5002E80
:10CDE00000D126E6190030000FF028FE21E60B23C3
:10CDF0006B44984603234246002613703100424696
:10CE000003A8FEF7F5FD049E0599F4E501234246CB
:10CE100013708E42DAD033700136049680E70B230C
:10CE20006B44984602234246002613703100424666
:10CE300003A8FEF7DDFD049E05997DE703A8FEF734
:10CE4000D7FD049E0599DBE52079000021790000DB
:10CE50002279000090780000A8780000DA780000BD
:10CE6000DB780000DC780000AD780000AE780000D0
:10CE7000AF780000036AF0B5013B9D05C646ED1A88
:10CE8000AD01ED186D00ED18CA4B00B59C4686B09B
:10CE9000ED00654404001CF051FE32210DF046F90E
:10CEA000002600234919E360616026611CF046FEFC
:10CEB000B42149000DF03AF9250008000FF028FBD5
:10CEC00094235035A060E55067681CF037FE1421AC
:10CED0000DF02CF92200CB19210028000C3208316A
:10CEE0000096FBF77FFBB44B00211D682B682800E0
:10CEF0005B689847FF222B6800929F6800220023FE
:10CF000000212800B847276A012F2BD0AF21AB4D55
:10CF10004900280008F0E8FD1E2363612300012278
:10CF200040331A7328230026A364253BA36266645A
:10CF3000A6830AF0E7FD02230722FF33A387636875
:10CF400020636163D9170A40D2189D4BD210E818AC
:10CF5000072100236432009608F00AFC06B080BC6A
:10CF6000B846F0BD974D984B039604960596EB5C3A
:10CF7000002B00D04AE1954BEB5C002B00D015E272
:10CF8000934BEB5C002B00D074E2924BEB5C002BDC
:10CF900000D01FE2002100268F4BEB5C002B00D05D
:10CFA00088E1039FCB1B9846B74200D10AE21CF0F0
:10CFB000C5FDF11B0DF0E2F87E5C002F03D0414669
:10CFC00038000FF03BFD854B7336E95C844BF2B2C1
:10CFD000E81808F075FDFA239B0098462F69012395
:10CFE00047451CDB414638000DF0A0F841460600DD
:10CFF00038000DF09BF830000F0041460DF096F818
:10D00000012904DD764B0022E818FEF75DFD734B25
:10D010001D22E95C724BE81808F052FD0023632FD3
:10D0200000DC60E2642138000DF080F86421804665
:10D0300038000DF07BF8694B0E00E95CC72F05DD69
:10D040004346DAB2664BE81808F03AFD634B1C22FF
:10D05000E95C634BE81808F033FD00235F4A904613
:10D06000142E00DC8CE10A2130000DF05FF84346FD
:10D070000700E95C072800D1F4E0092816D0020077
:10D0800043071B1A9B001B1A5B00F618544B123205
:10D09000D2B2E81808F014FD012E00D1F8E00B2EF2
:10D0A00000D1FAE0002E4AD00123D9E74C4B503E84
:10D0B0001A22E81808F004FD012E00D1EAE00B2E38
:10D0C00000D1ECE0002E3AD0731C00D056E10023D2
:10D0D000444A039304930593AA5C002A00D097E185
:10D0E000414BEB5C002B00D0EFE1404BEB5C002BA5
:10D0F00000D01AE23E4BEB5C002B00D0FDE100219A
:10D1000000263C4BEB5C002B00D0A9E1039FCB1B1E
:10D110009846BE4200D1E8E11CF010FDF11B0DF075
:10D120002DF87E5C002F03D0414638000FF086FCBE
:10D130002A4B3200E95C2A4BE81808F0C1FC0023B6
:10D140002D4A039304930593AA5C002A00D0DBE0E8
:10D150002A4BEB5C002B00D019E1294BEB5C002B38
:10D1600000D09CE1274BEB5C002B00D041E100217B
:10D170000026254BEB5C002B00D0B0E0039FCB1BBF
:10D180009846B74200D121E11CF0D8FCF11B0CF00D
:10D19000F5FF7E5C002F03D0414638000FF04EFCB7
:10D1A0000E4B2D36E95C0E4BF2B2E81808F088FC05
:10D1B000ACE6C04688130000D8BD021000970020DE
:10D1C000B887FFFF701E00201F7900002079000043
:10D1D000217900002279000023790000A87800005E
:10D1E00090780000AC780000AD780000AE780000C8
:10D1F000AF780000B0780000D9780000DA7800003D
:10D20000DB780000DC780000DD7800000B236B4445
:10D210001E701A00002103A89846FEF7E9FBCD4BCB
:10D22000049EEB5C0599002B00D096E0CA4BEB5CAA
:10D23000002B08D0022342461370B14200D120E1F6
:10D24000337001360496C54BEB5C002B00D1A3E68E
:10D25000032342461370B14200D1C2E0337001365D
:10D26000049699E6BE4B3C3EEF181822380008F0B1
:10D2700027FC012E16D00B2E00D013E70B26B94B3E
:10D280001E22E95CB64BE81808F01AFC0123E7E619
:10D29000082FF4D101260123E2E6082FEED10B2658
:10D2A0000123DDE643461E223800E95C08F008FC55
:10D2B0000126F0E70B2204236A441370B14200D127
:10D2C000E7E0039F33700136CB1B98460496BE42BD
:10D2D00000D06CE6414630000FF0B0FB7BE60B223D
:10D2E00004236A4413708E4200D1E7E0039F337039
:10D2F0000136CB1B98460496BE4200D044E7414617
:10D3000030000FF09BFB01E60B226A4400211370F2
:10D3100003A89046FEF76CFB934B049EEB5C0599CB
:10D32000002B22D1914BEB5C002B08D0022342460C
:10D330001370B14200D1B9E03370013604968C4BC2
:10D34000EB5C002B00D114E70323424613708E429E
:10D3500056D03370013604960BE743461F708E4259
:10D3600029D037700136049660E7012342461370D6
:10D37000B14213D0337001360496D3E7F6B2D7E644
:10D38000002E00D0A0E6002B00D0D1E6D7E60B237C
:10D390006B449846012342460026137031004246F2
:10D3A00003A8FEF725FB049E0599BBE70B236B44FE
:10D3B000984600211F70424603A8FEF719FB049E01
:10D3C000059933E7002E00D105E683E7002E00D152
:10D3D0009CE594E70B236B449846032342460026C2
:10D3E00013703100424603A8FEF702FB049E059924
:10D3F000D2E50B236B449846032342460026137064
:10D400003100424603A8FEF7F3FA049E0599B0E600
:10D410000B226A440021137003A89046FEF7E8FA35
:10D42000544B049EEB5C0599002B75D1524BEB5C81
:10D43000002B07D00223424613708E427CD03370FB
:10D44000013604964D4BEB5C002B00D159E60323CB
:10D45000424613708E4257D033700136049650E620
:10D460000B2204236A441370B1426DD0337001362D
:10D4700004964BE60B236B44984602234246002653
:10D4800013703100424603A8FEF7B2FA049E0599D4
:10D49000D9E603A8FEF7ACFA049E059981E50B23B3
:10D4A0006B449846022342460026137031004246E0
:10D4B00003A8FEF79DFA049E059940E7310003A8F2
:10D4C000FEF796FA049E059958E60B236B4498469E
:10D4D0000123424600211370424603A8FEF788FA52
:10D4E000049E0599A2E73E00B8E5002E00D126E68D
:10D4F000190030000FF0A2FA21E60B236B44984686
:10D5000003234246002613703100424603A8FEF76B
:10D510006FFA049E0599F4E50123424613708E428A
:10D52000DAD033700136049680E70B236B449846BB
:10D5300002234246002613703100424603A8FEF73C
:10D5400057FA049E05997DE703A8FEF751FA049E59
:10D550000599DBE52079000021790000227900009F
:10D5600090780000A8780000DA780000DB780000EE
:10D57000DC780000AD780000AE780000AF780000E5
:10D58000F0B5CE464746012380B500260327036247
:10D59000973387B04762C65004001CF0CFFA32219F
:10D5A0000CF0C4FDCB4B26619C4600236144E36034
:10D5B00061601CF0C3FAB42149000CF0B7FD2500EE
:10D5C00008000EF0A5FF94235035A060E550636875
:10D5D00098461CF0B3FA14210CF0A8FD22000B00B1
:10D5E0002100280043440C3208310096FAF7FAFF74
:10D5F000B94B00211D682B6828005B689847FF2203
:10D600002B6800929B680022984600210023280086
:10D61000C047236A9846012B35D0AF21AF4E490051
:10D62000300008F061FA1E236361230001224033B9
:10D630001A7328230025A364253BA3626564A58390
:10D640000AF060FA02230722FF33A387636820638E
:10D650006163D9170A40D218A14BD2109C46664488
:10D660003000002307216432009508F081F8002380
:10D6700000220B213000009508F07AF807B0C0BCFA
:10D68000B946B046F0BD974D974B03960496059664
:10D69000EB5C002B00D049E1944BEB5C002B00D0FD
:10D6A00015E2934BEB5C002B00D073E2914BEB5CEB
:10D6B000002B00D020E2002100268F4BEB5C002BDA
:10D6C00000D087E1039FCB1B9846B74200D10BE205
:10D6D0001CF034FAF11B0CF051FD7E5C002F03D0DE
:10D6E000414638000FF0AAF9844B7336E95C844B4D
:10D6F000F2B2E81808F0E4F9FA239B0098462F6983
:10D70000012347451CDB414638000CF00FFD414624
:10D71000060038000CF00AFD30000F0041460CF006
:10D7200005FD012904DD764B0022E818FEF7CCF94F
:10D73000724B1D22E95C724BE81808F0C1F9002316
:10D74000632F00DC60E2642138000CF0EFFC642100
:10D75000804638000CF0EAFC684B0E00E95CC72FED
:10D7600005DD4346DAB2664BE81808F0A9F9634BC9
:10D770001C22E95C624BE81808F0A2F900235F4A1A
:10D780009046142E00DC8CE10A2130000CF0CEFC17
:10D7900043460700E95C072800D1F3E0092816D0CA
:10D7A000020043071B1A9B001B1A5B00F618544B20
:10D7B0001232D2B2E81808F083F9012E00D1F7E056
:10D7C0000B2E00D1F9E0002E4AD00123D9E74C4BB3
:10D7D000503E1A22E81808F073F9012E00D1E9E052
:10D7E0000B2E00D1EBE0002E3AD0731C00D056E196
:10D7F0000023444A039304930593AA5C002A00D0B3
:10D8000096E1414BEB5C002B00D0EFE13F4BEB5C32
:10D81000002B00D01AE23E4BEB5C002B00D0FDE168
:10D82000002100263B4BEB5C002B00D0A8E1039FBE
:10D83000CB1B9846BE4200D1E8E11CF07FF9F11BFA
:10D840000CF09CFC7E5C002F03D0414638000FF0AA
:10D85000F5F82A4B3200E95C294BE81808F030F95A
:10D8600000232D4A039304930593AA5C002A00D059
:10D87000DAE02A4BEB5C002B00D019E1284BEB5C83
:10D88000002B00D09CE1274BEB5C002B00D040E14B
:10D8900000210026244BEB5C002B00D0AFE0039F5F
:10D8A000CB1B9846B74200D122E11CF047F9F11B8F
:10D8B0000CF064FC7E5C002F03D0414638000FF072
:10D8C000BDF80E4B2D36E95C0D4BF2B2E81808F0AE
:10D8D000F7F8A2E688130000D8BD021000970020D8
:10D8E000B887FFFF701E00201F790000207900001C
:10D8F000217900002279000023790000A878000037
:10D9000090780000AC780000AD780000AE780000A0
:10D91000AF780000B0780000D9780000DA78000015
:10D92000DB780000DC780000DD7800000B236B441E
:10D930001E701A00002103A89946FEF759F8CE4B35
:10D94000049EEB5C0599002B00D096E0CB4BEB5C82
:10D95000002B08D002234A461370B14200D120E1C7
:10D96000337001360496C64BEB5C002B00D1A4E665
:10D9700003234A4613708E4200D1C2E03370013651
:10D9800004969AE6BF4B3C3EEF181822380008F088
:10D9900097F8012E16D00B2E00D014E70B26BA4BA9
:10D9A0001E22E95CB74BE81808F08AF80123E8E684
:10D9B000082FF4D101260123E3E6082FEED10B2630
:10D9C0000123DEE643461E223800E95C08F078F8C1
:10D9D0000126F0E70B2204236A4413708E4200D123
:10D9E000E7E0039F33700136CB1B98460496BE4296
:10D9F00000D06DE6414630000FF020F87CE60B22A7
:10DA000004236A4413708E4200D1E8E0039F337010
:10DA10000136CB1B98460496BE4200D045E74146EE
:10DA200030000FF00BF8F8E50B226A440021137068
:10DA300003A89146FDF7DCFF944B049EEB5C05992F
:10DA4000002B23D1924BEB5C002B08D002234A46DB
:10DA50001370B14200D1BAE03370013604968D4B99
:10DA6000EB5C002B00D115E703234A4613708E426E
:10DA700056D03370013604960CE74B4642461A7076
:10DA80008E422AD03270013604965FE701234A465F
:10DA90001370B14213D0337001360496D2E7F6B258
:10DAA000D7E6002E00D0A0E6002B00D0D1E6D7E6C6
:10DAB0000B236B44994601234A460026137031001C
:10DAC0004A4603A8FDF794FF049E0599BAE70B2385
:10DAD00042466B44994600211A704A4603A8FDF756
