:020000041000EA
:1080000000200420F7800010C3800010C5800010FD
:10801000C1800010C1800010C1800010C18000101C
:10802000C1800010C1800010C1800010C780001006
:10803000C1800010C1800010C9800010CB800010EA
:10804000CD800010CD800010CD800010CD800010BC
:10805000CD800010CD800010CD800010CD800010AC
:10806000CD800010CD800010CD800010CD8000109C
:10807000CD800010CD800010CD800010CD8000108C
:10808000CD800010CD800010CD800010CD8000107C
:10809000CD800010CD800010CD800010CD8000106C
:1080A000CD800010CD800010CD800010CD8000105C
:1080B000CD800010CD800010CD800010CD8000104C
:1080C00000BE00BE00BE00BE00BE00BEEFF30580D5
:1080D000103800BEF2EB8871ECA1021008A2021069
:1080E0003481001090A31AE700201F49086006C8D9
:1080F00081F3088810471D48006800282FD10DA47F
:108100000ECC002902D000F012F8F9E71849194AFC
:10811000002000E001C19142FCD11749884717496E
:1081200088471749884700BEFDE701C901C29A4246
:10813000FBD3704708A20210C0000020581C00208A
:10814000C0BD02100000042000000420C0BD0210C9
:1081500000100420001004200000000070470948AF
:108160000EF084FB0047000008ED00E0000000D0A6
:10817000781C002038F800202D4F011031A7011085
:10818000615001105756000006005250ABB36053C7
:108190001C77021006005250861C03022C77021036
:1081A000060052505422A29D307702100500525012
:1081B000DE65F468C0BD0210F8B5C0460648074940
:1081C000091A8B10C90FC91810B5491003D0044BF8
:1081D000002B00D0984710BD581C0020581C0020D0
:1081E00000000000054B10B5002B03D004490548E2
:1081F00000E000BFFFF7E2FF10BDC0460000000036
:10820000FCEC0020D873021010B50E2112F058FEBD
:1082100010BDC046F0B585B0040011F051FA072832
:108220001CD8002818D0072803D84D4A80001358BE
:108230009F4611F069FA4B4B20802C240100002549
:1082400018680023484EFF34994200DC7BE09A0016
:1082500001338650A342F7D105B0F0BD64285DD04C
:108260006528F9D111F068FAC82011F06DFA0023E1
:10827000E05E11F075FA0223E05E11F071FA04235A
:10828000E05E11F06DFA0623E05E11F069FA082352
:10829000E05E11F065FA0A23E05E11F061FAA08950
:1082A00011F06EFA11F07CFAD6E711F02DFAA081E8
:1082B000D2E711F013FAB42160806930FF30490031
:1082C0000EF006FB208800254843B42149000EF03B
:1082D000FFFA244B2C211C680023234E8700FF311A
:1082E000984206D09A000133A5508B42B4D09842F0
:1082F000F8D1431CE6518B42F2D1ADE711F0EEF913
:10830000A080A9E711F0EAF9E080A5E711F0E6F90D
:108310002081A1E711F0E2F960819DE7A58904229F
:10832000A35E0221625E218803950A26A55F0F489D
:1083300002950826A55F01950625645F009412F05A
:108340008BF989E713009A0085505A1CA24200D18C
:1083500082E79142F6DD92008650023374E7C04610
:10836000508302106015002000FFFFFFD873021039
:10837000F8B5B8235B00C7580400806910F09AFC78
:10838000CE21890510F047FCB6235B00061C391C82
:10839000E05810F026FC011C301C10F03CFC391C8D
:1083A00010F022FC10F0A8FC10F084FC8221C9051A
:1083B00010F031FC10F0A0FC8721C9000EF088FA03
:1083C0001E4D890048591E4AC117430BC904194361
:1083D000C00400230EF0CAFA220021008025513289
:1083E000FF3239345769174ED0603831FF342D05CC
:1083F00015E0F8231B069C46604410610314C01767
:10840000400D1B185B055B0D1B1A5B00F35E0868D3
:108410007B43DB13C31808C1A1420DD0D068936918
:10842000C0181369C018A842E3DA0028E5DA8023EF
:108430001B059C466044E0E7F8BDC04688A10020CB
:10844000C05D000068B200207047C0467047C0465B
:108450007047C0467047C046F0B5C6460D000400E0
:10846000816800B52868160010F0BEFB2860A76878
:1084700080460021381C10F0FDFB00282BD1002184
:10848000381C10F00DFC00280AD0206910F012FCF6
:10849000071C011C404610F003FC002800D02F6090
:1084A000E168306810F0A0FB3060E468051C002132
:1084B000201C10F0F5FB002819D0174B0A20185E7D
:1084C00010F0F8FB011C281C10F0E2FB431E984141
:1084D00080BCB846F0BD206910F0ECFB071C011C05
:1084E000404610F0C7FB0028DAD02F60D8E7002103
:1084F000201C10F0BFFB00280CD0074B0A20185E90
:10850000404210F0D7FB011C281C10F0B9FB431EA1
:108510009841DDE70020DBE73C1500207047C046AE
:1085200070B50400180013680D00E3600B68236148
:108530000EF0E6FC02000B00002018490EF049FC8A
:108540000EF03EFD0023A06063601DF0C9FE3C21DB
:108550000EF0BEF904981E390A30484314210EF07B
:10856000B7F92D68B43006000D49281C10F082FBC5
:10857000002809D0300010F09DFB291C10F034FBBE
:1085800010F0BAFB606170BD300010F093FB011C6D
:10859000281C10F026FB10F0AFFBF3E7000044406E
:1085A00000003443F8B5CE464746804680B51800F3
:1085B000160089460EF0A4FC4B4B04000A20185EFE
:1085C0000D000EF09DFC02000B000EF0F9FB0022E6
:1085D000464B0EF01CFC2B0022000EF0FAFB0EF0B6
:1085E000EFFC4346D860071C0021306810F058FBB0
:1085F000002805D080231B069C4643466744DF6065
:10860000089B9C465800604440000F3010F052FB1D
:108610003749061C10F02EFB002860D03549301C6D
:1086200010F03EFB00285CD043465E601DF058FE13
:10863000C3179B0DC0188005800DC01A0EF060FC9A
:1086400000222D4B0EF0E3FB00222C4B0EF0DFFB43
:108650000022294B0EF0B4FB4346060058680F0079
:1086600010F0B0FB02000B00300039000EF0CFFB21
:108670000EF05EFC06001DF033FEC00700D576420A
:108680004B461F68300010F015FB391C10F0ACFA97
:1086900010F032FBB4235B0098421CDD1800434607
:1086A000186110F007FB391C10F09BFA144910F008
:1086B000B2FA10F087FB02000B000EF081FB2B00DA
:1086C00022000EF086FB0EF07BFC43469860C0BC97
:1086D000B946B046F8BDC343DB171840DFE7044E88
:1086E000A2E7044EA0E7C0463C150020000044402D
:1086F00000009642000070410000E03F0000503F43
:108700000000204210B504001DF0EAFD962149004A
:108710000EF0DEF8A423C8315B00E1501DF0E0FD4F
:108720000F210EF0D5F82C31080010F0C3FAB62353
:108730005B00E05010BDC04610B504001DF0D0FD38
:1087400096210EF0C5F8A42314315B00E1501DF012
:10875000C7FD1E210EF0BCF8B22369315B00E15069
:108760001DF0BEFD0C210EF0B3F8B42301315B0007
:10877000E1501DF0B5FD14210EF0AAF808000EF02E
:10878000BFFB0022124B0EF01BFB0EF019FCBC23AA
:108790005B00E0501DF0A4FDC217920D83189B05ED
:1087A0009B0D981A10F086FA0A4910F034FAEA2163
:1087B000890510F030FA10F005FB074A074B0EF060
:1087C000FFFA0EF0FDFBBA235B00E05010BDC0467F
:1087D00000002E40E2AE5E3F9A9999999999B93F6F
:1087E00010B504001DF07CFDE12149000EF070F889
:1087F000A42332315B00E1501DF072FD0A210EF01E
:1088000067F8B22352315B00E1501DF069FD06218B
:108810000EF05EF8B42301315B00E1501DF060FD05
:1088200005210EF055F808000EF06AFB0022124BED
:108830000EF0C6FA0EF0C4FBBC235B00E0501DF046
:108840004FFDC217920D83189B059B0D981A10F0CF
:1088500031FA0A4910F0DFF9EA21890510F0DBF955
:1088600010F0B0FA064A074B0EF0AAFA0EF0A8FB79
:10887000BA235B00E05010BD00001440E2AE5E3F42
:108880009A9999999999B93FF0B5CE4600B50700E4
:1088900082B0894681684068160010F0A5F97860BA
:1088A00010F090FA02000B000EF08AFA00222F4B13
:1088B0000EF07DFA04000D0000222D4B0EF0A7FAF9
:1088C00022002B000EF0A3FA0022294B0EF078FABA
:1088D0000400F8680D0010F075FA02000B0020008B
:1088E00029000EF094FA0EF06BFB3060786810F0FF
:1088F00069FA204A204B0EF08AFA0EF083FB3E699B
:1089000000900191786910F0D5F9311C10F069F9E7
:1089100010F058FA009A019B04000D000020134942
:108920000EF045FA0022124B0EF071FA02000B0015
:10893000200029000EF06BFA0400301C0D0010F02E
:1089400041FA02000B00200029000EF039FA0EF067
:1089500037FB4B46FE2118607868890510F0A0F9B6
:10896000431E984102B080BCB946F0BD0000F03F04
:108970000000E03F6E861BF0F9210940DC2110B5B4
:108980000400490010F02CFC200010BDC02110B5DF
:108990000400490010F024FC200010BDC02110B5D7
:1089A0000400490010F01CFC200010BDBC2110B5D3
:1089B0000400490010F014FC200010BD10B50400A4
:1089C000982110F00DFC200010BDC04670B5084C79
:1089D0002500243D0C3C2068002806D0A168091A17
:1089E00010F0FEFBAC42F5D170BDAC42F2D1FBE71A
:1089F00008CB0020F0B5D64646464F46C0B51E000F
:108A0000CE235B00C358040098460D00884417002D
:108A10001DF066FCD0235B00E1580DF059FF414486
:108A200008000A2900DC88E06E2900DD87E010F0EC
:108A300041F9D4235B00E050280010F03BF9BC233F
:108A40005B00E050143BF50FE358AD19A7616D10C2
:108A50009D4200DD1D00B6235B00E358761B99465E
:108A6000B4234A465B00E358B21A90469A4200DDAE
:108A700098464346002B01DC012398462E1E00DC5D
:108A80000126802071008919C90040040DF020FFE3
:108A90004F464346E062A362002F00DC012780209E
:108AA0007900C919C90040040DF012FF00234644A3
:108AB000A36323000122B2462833BA4460631A75C7
:108AC0000BF0F2FB5346FA2206000F009200D91772
:108AD0005046002310F068F8801979410B0080217E
:108AE000020009068B4202D30122164B5242A264B5
:108AF000E3640BF0D9FB06002800FA224044484406
:108B00000F000023920000210A3010F04DF8801968
:108B100079410B008021020009068B4202D3012219
:108B2000084B52426365AC23226500225B00E25091
:108B3000E0BCBA46B146A846F0BD034879E76E20CE
:108B400075E7C046FFFFFF7F0000204170B50B4C6A
:108B5000250020683C3D00280BD0A168091A10F0C0
:108B60003FFB23000C3BAC4207D01C0020680028D0
:108B7000F3D123000C3BAC42F7D170BDD8CA002022
:108B800070B504001DF0ACFBC3179B0DC018800529
:108B9000800DC01A10F08EF88121C90510F03BF845
:108BA000EA21890510F037F88121C90510F01CF879
:108BB000051C1DF095FBC217920D83189B059B0D9C
:108BC000981A10F077F8644910F025F8EA21890521
:108BD00010F021F89421061CC905281C10F01BF880
:108BE0005E4910F004F810F0B9F8FE2120818905E3
:108BF000301C10F03FF8002800D09CE0FA208000E4
:108C0000E0801DF06DFBC3179B0DC0188005800D23
:108C1000C01A10F04FF8EA2189050FF0FCFF051C7F
:108C2000011C0FF0F8FF291C0FF0F5FF10F0CAF837
:108C300000224B4B0EF0EBF80EF07AF9B2235B00FA
:108C4000E0501DF04DFBFA2149000DF041FEB42328
:108C5000C8315B00E1501DF043FBC3179B0DC018EA
:108C60008005800DC01A10F025F8EA2189050FF063
:108C7000D2FF011C0FF0CFFF10F0A4F80022394BF7
:108C80000EF0C5F80EF054F9B6235B00E0501DF06D
:108C900027FBC3179B0DC0188005800DC01A10F06C
:108CA00009F831490FF0B7FFEA2189050FF0B3FF4A
:108CB000B8235B00E0501DF013FB18210DF008FEF7
:108CC000CE230F315B00E1501DF00AFB24210DF093
:108CD000FFFDD02301315B00E1501DF001FB1421A9
:108CE0000DF0F6FD08000EF00BF900221F4B0EF000
:108CF00067F80EF065F9D8235B00E0501DF0F0FA3C
:108D0000C3179B0DC0188005800DC01A0FF0D2FF4D
:108D100017490FF080FFEA2189050FF07CFF10F062
:108D200051F8144A144B0EF04BF80EF049F9D623C3
:108D30005B00E05070BD0021301C0FF0B1FF002837
:108D400007D00E49301C0FF066FF10F007F880B214
:108D500056E7002054E7C046CDCC4C3E0080BB46D1
:108D60000000494000008940E820553F0000F03FE6
:108D7000E2AE5E3F9A9999999999B93F00007A4479
:108D80000300F0B5D6464F4646465133FF33C0B5D3
:108D90005961A2235B00C35804009846A4235B00DA
:108DA000C558083BC35889469A46002B01DC01236D
:108DB0009A465346802059005144C90040040DF0A2
:108DC00087FD4346E060A360002D00DC0125802084
:108DD00069004919C90040040DF07AFD0023A36120
:108DE0000133237760610BF05FFA06004046FA22F8
:108DF00050440F0000239200002140190FF0D4FED0
:108E0000801979410B008021020009068B4202D3B0
:108E10000122194B5242E362A0235B00E558043360
:108E2000E358A262ED18A4235B00E358ED180BF0A1
:108E30003BFAFA2206000F000023920028000021CE
:108E40000FF0B2FE801979410B0080210200090663
:108E50008B4202D30122084B52426363A623226352
:108E60004A465B00E2500022143BE250E0BCBA46A6
:108E7000B146A846F0BDC046FFFFFF7FF0B5B22364
:108E8000D6464F4646465B00C0B5C55804008946E5
:108E90001DF026FAB4235B00E1580DF019FD4819C6
:108EA0000A2800DC76E0862800DD75E00FF002FF7E
:108EB000B8235B00E0502C3BE3589846A4235B00AA
:108EC000E558083BE3589A46002B01DC01239A46FB
:108ED0005346802059005144C90040040DF0F8FC6D
:108EE0004346E060A360002D00DC0125802069007E
:108EF0004919C90040040DF0EBFC0023A3610133C4
:108F0000237760610BF0D0F906004046FA22504406
:108F10000F0000239200002140190FF045FE801938
:108F200079410B008021020009068B4202D3012205
:108F30001A4B5242E362A0235B00E5580433E35826
:108F4000A262ED18A4235B00E358ED180BF0ACF916
:108F5000FA2206000F0000239200280000210FF0E3
:108F600023FE801979410B008021020009068B4203
:108F700002D30122094B52426363A62322634A466D
:108F80005B00E2500022143BE250E0BCBA46B1461E
:108F9000A846F0BD02488BE7862087E7FFFFFF7FEA
:108FA00000002041F0B5B223D6464F4646465B004E
:108FB000C0B5C558040089461DF092F9B4235B0082
:108FC000E1580DF085FC48190A2800DC76E0862877
:108FD00000DD75E00FF06EFEB8235B00E0502C3B27
:108FE000E3589846A4235B00E558083BE3589A46AB
:108FF000002B01DC01239A4653468020590051443E
:10900000C90040040DF064FC4346E060A360002DFD
:1090100000DC0125802069004919C90040040DF0D9
:1090200057FC0023A3610133237760610BF03CF907
:1090300006004046FA2250440F000023920000210F
:1090400040190FF0B1FD801979410B008021020019
:1090500009068B4202D301221A4B5242E362A0233B
:109060005B00E5580433E358A262ED18A4235B00CB
:10907000E358ED180BF018F9FA2206000F00002350
:109080009200280000210FF08FFD801979410B001C
:109090008021020009068B4202D30122094B524271
:1090A0006363A62322634A465B00E2500022143B1E
:1090B000E250E0BCBA46B146A846F0BD02488BE794
:1090C000862087E7FFFFFF7F00002041F0B5C646FE
:1090D00000B5037D04000D001600002B13D0C768F7
:1090E0000021381C0FF0DCFD0021002844D030683E
:1090F0000FF0CEFD002806D080231B069C460023DF
:109100006744E7602375A16828680FF06DFD28604B
:10911000A76880460021381C0FF0ACFD00284AD11A
:109120000021381C0FF0BCFD00280AD020690FF088
:10913000C1FD071C011C40460FF0B2FD002800D005
:109140002F60E16830680FF04FFD3060E468051C67
:109150000021201C0FF0A4FD002819D01D4B0A206F
:10916000185E0FF0A7FD011C281C0FF091FD431E97
:10917000984180BCB846F0BD381C0FF07BFD00283C
:10918000C1D0002130680FF07BFD0028BBD0B3E7D1
:109190000021201C0FF06EFD002818D00D4B0A2076
:1091A000185E40420FF086FD011C281C0FF068FD80
:1091B000431E9841DDE720690FF07CFD071C011C70
:1091C00040460FF057FD0028BBD02F60B9E70020C4
:1091D000CFE7C0463C150020F8B5CE46474680464E
:1091E00080B51800160089460DF08AFE4C4B04002D
:1091F0000A20185E0D000DF083FE02000B000DF03A
:10920000DFFD0022474B0DF002FE2B0022000DF087
:10921000E0FD0DF0D5FE4346D860071C0021306804
:109220000FF03EFD002805D080231B069C464346D8
:109230006744DF60089B9C465800604440000F3044
:109240000FF038FD3849061C0FF014FD002863D0DC
:109250003649301C0FF024FD00285FD043465E6085
:109260001DF03EF8C3179B0DC0188005800DC01A75
:109270000DF046FE00222E4B0DF0C9FD00222D4BB5
:109280000DF0C5FD00222A4B0DF09AFD4346060065
:1092900058680F000FF096FD02000B0030003900F7
:1092A0000DF0B5FD0DF044FE06001DF019F8C007E5
:1092B00000D576424B461F6830000FF0FBFC391C8E
:1092C0000FF092FC0FF018FDB4235B0098421FDDF5
:1092D0001800434618610FF0EDFC391C0FF081FCBB
:1092E00015490FF098FC0FF06DFD02000B000DF01A
:1092F00067FD2B0022000DF06CFD0DF061FE434672
:109300004246986001231375C0BCB946B046F8BD0B
:10931000C343DB171840DCE7034E9FE7034E9DE78E
:109320003C150020000044400000964200007041BF
:109330000000E03F0000503F00002042F0B5DE4654
:109340004E4645465746E0B5D226D42380467600A1
:1093500087595B0089B0C058391C0FF042FC0FF0F0
:1093600031FDD62342465B000400D0580D000FF0BB
:1093700029FD02000B000020B9490DF018FD020084
:109380000B00200029000DF042FD0400381C0D00E8
:109390000FF018FD02000B00200029000DF010FD59
:1093A0000DF00EFE43469851D82342465B00D75835
:1093B0008146381C0FF006FDAA4AAB4B04000D0095
:1093C0000DF025FD0022A64B0DF0FAFC0DF0F8FD86
:1093D000029048460FF090FC0FF06CFC8221C9050A
:1093E0000FF019FC0FF088FC8721C9000DF070FA0E
:1093F000FF209E4E89008B59DA171040C0180012CA
:109400000FF058FC061C0FF0DDFC994A994B0DF04B
:1094100049FD002811D00021381C0FF02BFC00283A
:1094200000D089E020002900914A924B0DF03AFDCE
:10943000002800D080E0904E15E09049301C0FF0DD
:10944000EAFB8F490FF0D3FB0021061C381C0FF0FC
:1094500011FC00285AD120002900854A854B0DF0C7
:1094600021FD002852D1391C301C0FF0C0FBFE2119
:109470008905041C0FF014FC002847D1FE20211C94
:1094800080050FF0AEFB8023071C1B06C018391C9B
:109490000FF0C1FB211C8346201C0FF0A5FB79496E
:1094A0000390301C0FF0F4FB002805D07649301CE7
:1094B0000FF0E6FB002849D10020391C0FF0ABFB70
:1094C000C4235A465B00994643449A469860DA6042
:1094D000391C051C301C0FF09EFB211C0FF084FB77
:1094E00003990FF098FB02990FF095FB5346186112
:1094F000BE2342465B00D35C041C002B5AD109B04A
:10950000F0BCBB46B246A946A046F0BD8023DB05B1
:1095100003938023FE241B065A49301C9B460027D8
:10952000A4050FF0B5FB0028C6D05749301C0FF03A
:10953000A7FB0028C0D009E08023DB05039380232C
:10954000FE241B069B4600274B4EA405311C301CF5
:109550000FF061FB011C051C0FF05DFB8146011C37
:10956000281C0FF058FB49490FF055FB484982462B
:1095700048460FF050FB011C50460FF035FB0FF032
:1095800021FC04900591281C0FF01CFC0022414B8B
:109590000DF03DFC02000B00049805990DF007FC4E
:1095A00000222F4B0DF00CFC0DF00AFD011C0FF0FA
:1095B0001BFB82E78B21281CC9050FF02CFB0FF049
:1095C000D9FB04918B210390C90558460FF023FB6A
:1095D0000FF0D0FB079188210690C905201C0FF0E1
:1095E0001AFB0FF089FB43464A4683469858534678
:1095F0005D68AC2344465B00434458340293039AAD
:10960000049BC1170FF0D0FA069A06000F0028003D
:10961000079BE9170FF0C8FA80197941CB171B0592
:109620001B0D009300230193009A019B8018594160
:109630000A05030B13435A462068C0184243D31748
:10964000DB05DB0D9B185B1208C44A4643469D5858
:1096500053465D6043469850029B9C42CFD14EE7F3
:109660000000F03F9A9999999999B93F88A10020F3
:10967000FCA9F1D24D62503F9D922B3BD00FC940C7
:109680000080BB46D00FC9BFD00FC93F610BB6BA2F
:10969000ABAA2A3D0000E03FF0B54546DE465746FE
:1096A0004E46E0B5A6256D00435980468BB0002B91
:1096B00000D080E03833434407939C235B0043444D
:1096C0009B46B626434676009F59B82342465B0028
:1096D000D058391C0FF085FA0FF074FBBA234246BC
:1096E0005B000400D0580D000FF06CFB02000B0073
:1096F0000020C4490DF05BFB02000B002000290094
:109700000DF085FB0400381C0D000FF05BFB020020
:109710000B00200029000DF053FB0DF051FC4346D7
:109720009851BC2342465B00D5588146281C0FF057
:1097300049FBB54AB54B06000F000DF068FB00224F
:10974000B04B0DF03DFB0DF03BFC039048460FF095
:10975000D3FA0FF0AFFA8221C9050FF05CFA0FF0CF
:10976000CBFA8721C9000DF0B3F8FF20A84C89007F
:109770000B59DA171040C01800120FF09BFA041CA6
:109780000FF020FBA34AA44B0DF08CFB002827D040
:109790000021281C0FF06EFA002800D0F0E0300005
:1097A00039009C4A9C4B0DF07DFB002800D0E7E07F
:1097B0009A4B02932CE0382343441C0007939C23CC
:1097C0005B0043441F001CF08BFD43465E59710053
:1097D0000DF07EF8891B02C4A742F4D1BB4670E7A6
:1097E0008F49201C0FF017FA8E490FF000FA002164
:1097F0000290281C0FF03EFA002800D0A5E03000AF
:109800003900844A844B0DF04DFB002800D09CE0C9
:10981000291C02980FF0EBF9FE218905071C0FF0B7
:109820003FFA002800D090E0FE20391C80050FF0A0
:10983000D8F98023061C1B06C018311C0FF0EBF969
:109840008B21C905041C0FF0E6F90FF093FA05907F
:109850000691381C391C0FF0C7F9029D049072491B
:10986000281C0FF015FA002806D07049281C0FF0AC
:1098700007FA002800D090E00021301C0FF0CBF94F
:10988000A8235B00994643449A469860DC60051C17
:10989000311C02980FF0BFF9391C0FF0A5F904999B
:1098A0000FF0B9F903990FF0B6F953468B211861FF
:1098B000041CC905281C0FF0AEF90FF05BFA0491E7
:1098C00088210390C905201C0FF0A5F90FF014FAA8
:1098D00043464A46029098585346079C5D68039A4F
:1098E000049BC1170FF060F9059A06000F002800CD
:1098F000069BE9170FF058F980197941CB171B0522
:109900001B0D009300230193009A019B801859417D
:109910000A05030B20681343029AC0184243D31769
:10992000DB05DB0D9B185B1208C44A4643469D5875
:1099300053465D6043469850A345D0D10BB0F0BC70
:10994000BB46B246A946A046F0BD8023DB05802475
:10995000FE2704930023029D3349281C002605930B
:1099600006932406BF050FF093F9002800D183E782
:109970002E49281C0FF084F9002800D17CE70CE068
:10998000264B802402938023DB05FE2704930023CB
:109990000026059306932406BF050299081C0FF0C4
:1099A0003AF9011C81460FF036F9011C82464846FF
:1099B0000FF031F91E490FF02EF91E49051C5046D3
:1099C0000FF029F9011C281C0FF00EF90FF0FAF91D
:1099D0000890099148460FF0F5F90022164B0DF05A
:1099E00016FA02000B00089809990DF0E0F9002220
:1099F000044B0DF0E5F90DF0E3FA011C0FF0F4F85B
:109A0000011C3AE70000F03F9A9999999999C93F4A
:109A100088A10020FCA9F1D24D62503F9D922B3BC2
:109A2000D00FC9400080BB46D00FC9BFD00FC93F7F
:109A3000610BB6BAABAA2A3D0000E03FF0B545463F
:109A4000DE4657464E46E0B5A6256D004359804692
:109A50008BB0002B00D080E03833434407939C2325
:109A60005B0043449B46B626434676009F59B82385
:109A700042465B00D058391C0FF0B3F80FF0A2F942
:109A8000BA2342465B000400D0580D000FF09AF94B
:109A900002000B000020C4490DF089F902000B0000
:109AA000200029000DF0B3F90400381C0D000FF060
:109AB00089F902000B00200029000DF081F90DF05A
:109AC0007FFA43469851BC2342465B00D5588146F5
:109AD000281C0FF077F9B54AB54B06000F000DF0C2
:109AE00096F90022B04B0DF06BF90DF069FA039076
:109AF00048460FF001F90FF0DDF88221C9050FF09B
:109B00008AF80FF0F9F88721C9000CF0E1FEFF2078
:109B1000A84C89000B59DA171040C01800120FF03A
:109B2000C9F8041C0FF04EF9A34AA44B0DF0BAF982
:109B3000002827D00021281C0FF09CF8002800D016
:109B4000F0E0300039009C4A9C4B0DF0ABF9002846
:109B500000D0E7E09A4B02932CE0382343441C00EA
:109B600007939C235B0043441F001CF0B9FB434652
:109B70005E5971000CF0ACFE891B02C4A742F4D1FF
:109B8000BB4670E78F49201C0FF045F88E490FF057
:109B90002EF800210290281C0FF06CF8002800D04D
:109BA000A5E030003900844A844B0DF07BF9002891
:109BB00000D09CE0291C02980FF019F8FE218905BD
:109BC000071C0FF06DF8002800D090E0FE20391C33
:109BD00080050FF006F88023061C1B06C018311CF8
:109BE0000FF019F88B21C905041C0FF014F80FF0C1
:109BF000C1F805900691381C391C0EF0F5FF029D46
:109C000004907249281C0FF043F8002806D07049D0
:109C1000281C0FF035F8002800D090E00021301CFF
:109C20000EF0F9FFA8235B00994643449A469860DA
:109C3000DC60051C311C02980EF0EDFF391C0EF0A3
:109C4000D3FF04990EF0E7FF03990EF0E4FF5346AB
:109C50008B211861041CC905281C0EF0DCFF0FF0D5
:109C600089F8049188210390C905201C0EF0D3FFC8
:109C70000FF042F843464A46029098585346079CD4
:109C80005D68039A049BC1170EF08EFF059A0600CB
:109C90000F002800069BE9170EF086FF8019794116
:109CA000CB171B051B0D009300230193009A019B0A
:109CB000801859410A05030B20681343029AC01803
:109CC0004243D317DB05DB0D9B185B1208C44A46E1
:109CD00043469D5853465D6043469850A345D0D1B6
:109CE0000BB0F0BCBB46B246A946A046F0BD8023EF
:109CF000DB058024FE2704930023029D3349281CA2
:109D00000026059306932406BF050EF0C1FF002828
:109D100000D183E72E49281C0EF0B2FF002800D1A5
:109D20007CE70CE0264B802402938023DB05FE2792
:109D3000049300230026059306932406BF05029989
:109D4000081C0EF068FF011C81460EF064FF011C28
:109D5000824648460EF05FFF1E490EF05CFF1E492A
:109D6000051C50460EF057FF011C281C0EF03CFF4E
:109D70000FF028F80890099148460FF023F80022C8
:109D8000164B0DF044F802000B00089809990DF0ED
:109D90000EF80022044B0DF013F80DF011F9011C20
:109DA0000EF022FF011C3AE70000F03F9A999999C2
:109DB0009999C93F88A10020FCA9F1D24D62503F7A
:109DC0009D922B3BD00FC9400080BB46D00FC9BF2E
:109DD000D00FC93F610BB6BAABAA2A3D0000E03FE5
:109DE000042303707047C046F0B5D6464F4646463A
:109DF0000378C0B5042B33D0022B45D09621254FD4
:109E000049003A88161C8A422FD8B6B2012B30D0AE
:109E1000002E25D0204B00259946204B0024984643
:109E20001F4B9A4606E0514669350134D150FF3543
:109E3000A64215DD310028000CF04AFD0223F95E30
:109E40000F22411A484605F09BFE4246A3001268C5
:109E50000028E8D169350134D050FF35A642E9DC4D
:109E6000E0BCBA46B146A846F0BD0E1CB6B2012B06
:109E7000CED10C4BC3185B68002BC9D10A4B9C4652
:109E8000604403F013FCEBE7406A03685B699847A2
:109E9000E6E7C0463C150020D8960020601500205B
:109EA000000A0AFF887800005078000070B50500AD
:109EB0000E0014000FF004FC01280AD0022800D084
:109EC00070BD084B013CE2B2711CE81809F094F82F
:109ED000F6E72800013CE2B2711C283008F022FBB2
:109EE000EEE7C04638780000F0B557464546DE46F6
:109EF0004E46E0B5076846689246F21B92109B46B4
:109F000093009B180D0019015B1819025B181904C6
:109F10005B185B009B183A4A804683B093426BD033
:109F2000E91B0191B74259D059008B424BD8002907
:109F300057D100230C24994601935A465046116884
:109F40000C9A00681268EB1B4B4407C3AF4212D057
:109F50004A463B0013CB13C2AB42FBD12A000C3A5A
:109F6000284BD21B920853439B009A085C08A41804
:109F7000A40018344C44AE4210D0761B214B0C3E4A
:109F8000B60873439B009B0801335E00F618B600C9
:109F90002000320029000FF015F9A419002F05D078
:109FA000434699683800C91B0FF01AF943464A46E0
:109FB0001A60019A5C609A6003B0F0BCBB46B2467E
:109FC000A946A046F0BD104C20000FF001F9230077
:109FD000814604004B4401930C34AEE7591C013315
:109FE000F1D2914203D84B005B189C00ECE71100C2
:109FF0004B005B189C00E7E7044812F061FEC04686
:10A00000AAAAAA0AABAAAA2AF8FFFF7FF473021031
:10A01000F8B54546DE4657464E460368E0B59346DA
:10A0200046682F4A984605000F00F31A934253D012
:10A030004146791A8A46002B44D0914659009942EC
:10A0400043D248460FF0C4F85B4652461B780400E2
:10A050008354012353449B46F61B002A27DC834488
:10A06000002E0DDC43465E44002B19D12C604C447D
:10A070006E60AC60F0BCBB46B246A946A046F8BDD7
:10A080003200390058460FF09DF843465E44002BDD
:10A09000ECD005E03200390058460FF093F85E44EA
:10A0A0004346A968C91A40460FF09AF8DEE74146D0
:10A0B0001BF070FEA344002EECDC4346A9685E440E
:10A0C000C91AF0E701239946BBE7802389461B069E
:10A0D0009942B6D39146B4E7024812F0F1FDC0466A
:10A0E000FFFFFF7FF4730210F8B54546DE46574682
:10A0F0004E460368E0B5934646682F4A98460500E9
:10A100000F00F31A934253D04146791A8A46002B26
:10A1100044D091465900994243D248460FF058F82E
:10A120005B4652461B7804008354012353449B46EC
:10A13000F61B002A27DC8344002E0DDC43465E44D8
:10A14000002B19D12C604C446E60AC60F0BCBB4657
:10A15000B246A946A046F8BD3200390058460FF075
:10A1600031F843465E44002BECD005E03200390064
:10A1700058460FF027F85E444346A968C91A40467E
:10A180000FF02EF8DEE741461BF004FEA344002E3C
:10A19000ECDC4346A9685E44C91AF0E701239946FE
:10A1A000BBE7802389461B069942B6D39146B4E7A4
:10A1B000024812F085FDC046FFFFFF7FF4730210D6
:10A1C000F0B5DE46454657464E46E0B59DB0050023
:10A1D0001CF086F80C210CF07BFB8B1F9846EB23C0
:10A1E0009B00EC184346012723665D23E7541CF0CF
:10A1F00077F83B00C20F801803409B1AF12201330D
:10A200009200AB5482238E4ADB00EA501CF068F8BF
:10A2100003210CF05DFB80230231DB00E9501CF0D0
:10A220005FF823210CF054FB864B1E31E9502B00C4
:10A2300026004546002798461CF052F8C3179B0D90
:10A24000C0188005800DC01A0EF034FD8121C905AB
:10A250000EF0E1FCEA2189050EF0DDFC8121C90543
:10A260000EF0C2FC81461CF03BF8C3179B0DC018D2
:10A270008005800DC01A0EF01DFD73490EF0CBFC59
:10A28000EA2189050EF0C7FC94218246C90548469B
:10A290000EF0C1FC6D490EF0AAFC0EF05FFDFE2130
:10A2A0006B4B8905E05250460EF0E4FC002800D0CC
:10A2B000B5E0FA208000674BD136E0521CF010F870
:10A2C000C3179B0DC0188005800DC01A0EF0F2FC5C
:10A2D000EA2189050EF09FFC8146011C0EF09BFCD3
:10A2E00049460EF098FC0EF06DFD00225A4B0CF022
:10A2F0008EFD0CF01DFE20601BF0F2FFFA214900DC
:10A300000CF0E6FAC83161601BF0EAFFC3179B0D41
:10A31000C0188005800DC01A0EF0CCFCEA2189051A
:10A320000EF079FC011C0EF076FC0EF04BFD0022C5
:10A330004A4B0CF06CFD0CF0FBFDA0601BF0D0FF55
:10A34000C3179B0DC0188005800DC01A0EF0B2FC1B
:10A3500043490EF060FCEA2189050EF05CFCE060E8
:10A360001BF0BEFF18210CF0B3FA0F31A1631BF0F4
:10A37000B7FF24210CF0ACFA0131E1631BF0B0FF10
:10A3800014210CF0A5FA08000CF0BAFD0022354BA0
:10A390000CF016FD0CF014FEE0641BF0A1FFC317D7
:10A3A0009B0DC0188005800DC01A0EF083FC2E494D
:10A3B0000EF031FCEA2189050EF02DFC0EF002FDB5
:10A3C0002A4A2B4B0CF0FCFC0CF0FAFD0137A06480
:10A3D000FF36042F52D000225D233566F2541BF065
:10A3E0007FFF03210CF074FA31761BF079FF032311
:10A3F00003405A4253415C22B3541BF071FF0321C6
:10A400000CF066FA043171651BF06AFF28210CF02C
:10A410005FFA184B0A313400B16573660CE700210E
:10A4200050460EF03DFC002801D100F0EEFC124930
:10A4300050460EF0F0FB0EF091FC80B23BE7C046B8
:10A44000F82A000004040000CDCC4C3E0080BB463E
:10A45000A4FEFFFFA2FEFFFF00004940000089406C
:10A46000E820553F0000F03FE2AE5E3F9A9999998F
:10A470009999B93F8813000000007A44E0231B013A
:10A480009C46D94BC44464469C46C44466464546F3
:10A490000D940B96206903681B69984723686268CE
:10A4A000934200D063601434B442F3D11BF018FF20
:10A4B00064210CF00DFA042000220D9E0B00169171
:10A4C000B468716818901792A14201D100F0FAFCAB
:10A4D0008B6008604A6017AB0C317160039318AC55
:10A4E0001BF0FEFE1E210CF0F3F9042001220D9F4B
:10A4F0000B001691BE68796818901792B14201D18D
:10A5000000F0EDFC08604A608B600C3179601BF054
:10A51000E7FE64210CF0DCF9042002220D9F0B0001
:10A520001691BE68796818901792B14201D100F077
:10A5300081FC08604A608B600C3179601BF0D0FEB2
:10A5400064210CF0C5F9042003220D9F0B00169125
:10A55000BE68796818901792B14201D100F073FC7F
:10A5600008604A608B600C3179601BF0B9FE0F21E6
:10A570000CF0AEF90D9B053119731BF0B1FE5021A3
:10A580000CF0A6F9082004220B00169197491890A8
:10A590006F187968BE681792B14201D100F05CFC77
:10A5A00008604A608B600C3179601BF099FE1421C1
:10A5B0000CF08EF9012000220B001691BE6879681C
:10A5C00018901792B14201D100F04FFC08604A6028
:10A5D0008B600C3179601BF083FE28210CF078F938
:10A5E000283139731BF07CFE64210CF071F91022C4
:10A5F0000023884616917E4918926E187168B068DB
:10A600001793814201D100F039FC4B6043460A6048
:10A610008B600C3171601BF063FE01234246834363
:10A620005B421340082000227168B76818901792A7
:10A630001693B94201D100F02AFC08604A608B6091
:10A640000C3171601BF04CFE032303405A4253410E
:10A6500042465B421340042000227168B76818909C
:10A6600017921693B94201D100F01AFC08604A60B3
:10A670008B600C3171601BF033FE0027800704D122
:10A680000A2140460CF024F90700012200237168DA
:10A69000B068189217931697814201D100F009FC17
:10A6A0000A604B608F600C3171601BF019FE322123
:10A6B0000CF00EF93C3131731BF012FE06001BF05A
:10A6C0000FFEFA210700490130000CF001F98BB2AE
:10A6D000FA21484A5B08AA181380380089010CF057
:10A6E000F7F8454BEB1819801BF0FAFD05210CF02B
:10A6F000EFF80800022900DD8DE303210CF010F9CA
:10A700003E4A4B0094465B1811009B006344109333
:10A710008A2292009446AC4462460E92384A394BE3
:10A720000F92394A079511928022D2009446AC4488
:10A7300062461492B42212019446AC4462461595C6
:10A7400027008A461D000C930A920F9811F022FFF1
:10A75000002800D089E2079B0C9A11989A6511F0A5
:10A7600019FF002800D0F8E2079B109A99465A6515
:10A770005346149E129313950023002418931994A2
:10A78000BB601BF0ADFD06210CF0A2F84B42594115
:10A79000092249429143103105911BF0A1FD062188
:10A7A0000CF096F8002901D1082305931BF098FDC1
:10A7B00006210CF08DF8002901D10C2305931BF024
:10A7C0008FFD06210CF084F8002901D104230593A4
:10A7D000002304934B4600250893079BBB460024A7
:10A7E000B2462F00984645E03C0E0000140E0000D3
:10A7F000280E00004472000046720000E4CA0020E7
:10A8000060A100209CCA002064A10020434642466B
:10A810005B6D926D1D6859681268491B10780CF0C9
:10A8200057F843006D5C1B189B00ED181BF058FD9A
:10A8300006210CF04DF8002900D107351BF050FD22
:10A8400006210CF045F8002900D10C3553460C22A6
:10A850001B6853430233039A5B195BB21370049A6B
:10A86000A2426BD023705B4601345C60059B0137CC
:10A870009F4270D01BF034FD64210CF029F8534640
:10A880005B68994200DAA2E153465B7A002BBDD1A6
:10A890001BF026FDFA2189000CF01AF808000CF0D4
:10A8A0002FFB0022D34B0CF094FA0CF089FB011C17
:10A8B0000EF0B1F90EF086FA0022CF4B0CF0A7FA99
:10A8C0000CF036FB01300EF0F5F9061C1BF008FD0C
:10A8D000C00703D480231B069C46664428000EF064
:10A8E000E9F9311C0EF080F90EF006FA05000E2889
:10A8F00000DC21E143460E255B6DBA0700D123E160
:10A900005246127A002A00D01EE11A6859682800BF
:10A91000891A06920BF0DCFF420012189200069B87
:10A920005B5C0C219B18524612684A4302329B180A
:10A93000039A5BB21370049AA24293D11100584655
:10A94000039AFFF7D1FB5B465C689B680137049371
:10A95000059B9F428ED1089B5F4699464A4699685F
:10A9600018683B68546013604B46049A56469A60D8
:10A97000002802D0091A0EF033FC0C239C46D13675
:10A980000A9BFF36E144B34200D0F5E63022129B29
:10A9900094469A46139D0597AB465746079B6344DA
:10A9A00099460D9B049300230024002218931994C8
:10A9B000059B90469A604A4699463B0000264746CA
:10A9C0009A460692049B30CBAC4204D107E10C348A
:10A9D000A54200D103E1300021680BF079FF6368E4
:10A9E0009942F4D11BF07CFC64210BF071FFA36849
:10A9F0009942ECDA474500D11CE1049B1B7B5BB21A
:10AA00003B704B4601375F600136102EDAD1069B52
:10AA100099465346BA461F004B464A4699681868FD
:10AA2000059B1B6813604B4652465A6042469A602B
:10AA3000002802D0091A0EF0D3FB0C239C46049B7D
:10AA40000B9A1433E14404939342ACD10C9A079BC4
:10AA50000C320C920E9A5C33BA465D46059F079302
:10AA60009A4200D071E6159D1BF03AFC8D239B00A5
:10AA7000EC58EB185A68121B921093009B1819019E
:10AA80005B1819025B1819045918490089180BF052
:10AA900047FF4F007F18BF000E9AE71997422FD04B
:10AAA0008A2189007B683E686858926888469C1BAA
:10AAB000121AA24200D21BE20E9A52689446121A4F
:10AAC000944200D8ABE1042A00DC2FE231001BF0F5
:10AAD00061F90E9B3E685B689C464346E8586346B6
:10AAE0001A1A7B68B1185A1A042A00DC2DE2604653
:10AAF0001BF050F98A239B00EB581C190E9B5C60DD
:10AB000091241023A4002B511BF0EAFB800701D1F4
:10AB100008232B511BF0E4FB06210BF0D9FE002982
:10AB200003D191230C229B00EA501DB0F0BCBB4620
:10AB3000B246A946A046F0BDC343DB171D404346BD
:10AB40005B6DBA0700D0DBE659681B682800C91A9C
:10AB50000BF0BEFE89461BF0C3FB4346C0074DD435
:10AB60009B6D1A6858684346596D9446801A0A6866
:10AB70000692012800DC4BE109971700020001232F
:10AB8000484689466146A446140002E00133A342C8
:10AB900064D0CE5CBA5D9042F8DC64464946099FB9
:10ABA000069A4B6828009B1A994619000BF090FEF4
:10ABB0004B4658438519494628000BF089FE420050
:10ABC00012189200002900DBA9E64944A7E6802379
:10ABD000039A1370049AA24200D043E6AEE68023A3
:10ABE000039A1370474530D03B704B4601375F6086
:10ABF0000AE7C04600408F400000084041469A6D79
:10AC0000496D136852680E68D21A501E06961E5C73
:10AC10000128C5DC0698023A805D9B188145BFDAA1
:10AC20008C46494606981E78013B825D9142FADBCC
:10AC30006146B5E7049A390048460C32FFF7E8F957
:10AC40004B465F689B689846DEE639004846FFF74A
:10AC50004BFA4B465F689B689846D5E664468C463F
:10AC600062464946099FD65C9AE7002404202C607E
:10AC70006C60AC600EF0ACFA0226220004704470E6
:10AC80000434031DC470286086700420AB606B60C0
:10AC9000EA602A616A610EF09BFA012100220170CC
:10ACA000417089460231817088460231031DC170AE
:10ACB000E86004208B466B612B61AA61EA612A621D
:10ACC0000EF086FA06210022031D8470C170A8616F
:10ACD0000670467004202B62EB616A62AA62EA6227
:10ACE0000EF076FA41460022017081705946031D2C
:10ACF0004270C17068620420EB62AB622A636A63CF
:10AD0000AA630EF065FA4946002241700531031D21
:10AD1000C17004708470286304201400AB636B63FB
:10AD2000EA632A646A640EF053FA5A46031D0270FD
:10AD3000C270E8634470867089486B642B641BF0B2
:10AD4000FBF90F9811F042FC079B0C9A11989A6539
:10AD500011F020FC002800D106E50024534607200E
:10AD60001C605C609C600EF033FA534652461860DB
:10AD7000C31D93600422022682700132514691461F
:10AD8000C270023290460271023242710232047085
:10AD90004670827107204B60CC600C614C610EF0F4
:10ADA00017FA4A4653465146C2704246D860C31D00
:10ADB0004B610321027101329346427102320470E9
:10ADC000467081708271504603618461C46104627F
:10ADD00007200EF0FDF90321534681704946524683
:10ADE0009861C170C31D414613620B22017159461F
:10ADF000827152460470467041715A48D3611BF00B
:10AE00009BF9119811F0E2FBAEE40020FFF753FA32
:10AE100063465E78C4E6544B1900109378E4042C22
:10AE200000DC8EE0220031001AF0B4FF4346EB58FC
:10AE30001C1963E616AB009338002200039BFFF752
:10AE400053F8FFF77BFB16AB009338002200039BFF
:10AE5000FFF74AF8FFF789FB16AB00932200380092
:10AE6000039BFFF741F8FFF7A0FB16AB009322000E
:10AE70003800039BFFF738F8FFF7ADFB16AB0093E4
:10AE800022003000039BFFF72FF8FFF7C4FB16AB3F
:10AE9000009322003000039BFFF726F8FFF7D2FB58
:10AEA00016AB009322003000039BFFF71DF8FFF75D
:10AEB000E2FB16AB009322003000039BFFF714F86F
:10AEC000FFF7F3FB17AB1A00039318AC16AB009314
:10AED000300013002200FFF707F8FFF701FB16AB65
:10AEE000009338002200039BFEF7FEFFFFF70FFBE5
:10AEF0001E4B9C4223D820000EF06AF90700042C58
:10AF00001ADD220031001AF045FF8A239B00E85821
:10AF1000002804D00E9B9968091A0EF061F98A2363
:10AF20009B00EF500E9B3C199C60E7E5042A00D083
:10AF3000D8E531680160D5E533680360E5E711F0D5
:10AF400097FE042C08D00419D8E5042AFBD16246E8
:10AF50000B6804191360D1E5336804190360CDE56B
:10AF60004D8B0010CD890010E4CA0020FCFFFF7F4C
:10AF7000F0B5DE4657464E4645469E48E0B59E4EE5
:10AF80000023F063502033529C48D72430669C48FD
:10AF90000021B0656C2034529A489B4CB0679B48A6
:10AFA0009B4AF06780203450C020A4248000A40075
:10AFB00030510434335104343351043433530434A2
:10AFC00033510834335104343251924D04343351E7
:10AFD0000C3C9DB03551283433703363B386B36372
:10AFE00033647264B364F3647365F36573660396E4
:10AFF0003155335004303250C22287489200B3504A
:10B000000C3AB0501C32B3500432B3520432B35035
:10B010002434083281483351B3500434043233535A
:10B02000B050043404323351B350C9237C4A9B00DE
:10B03000F250DE221433F2527A4A0C33F2507A4A3A
:10B040000433F250794A0433F250794A0C33F25007
:10B05000784A0433F250784A0433F250774A0C337A
:10B06000F250774A0433F250764A0433F250002209
:10B070000C33F250744A0433F250744A0433F250E1
:10B080009622734B5200F250FC2204339205F25088
:10B09000704BB825F154704BB44601936F4B0024AC
:10B0A0009B465E466E4BED0002936E4B6E4F0493D3
:10B0B0006E4B6544059301982C606C60AC60EC604D
:10B0C0002C616C61AC61EC612C626C62AC62EC6214
:10B0D0002C636C63AC63EC632C646C64AC64EC64F4
:10B0E0002C6511F057FA002801D000F037FC0298C7
:10B0F0006E6511F04FFA002801D000F086FC5C4B21
:10B10000AF655C35AB42D6D100239B46FD235A4642
:10B11000039EDB00F250574B2020F2500433F250D4
:10B120000EF056F8040007AD202253492034AC60DD
:10B1300007900EF047F810206C600EF049F80400FC
:10B1400010224E4910346C61E8600EF03BF840204C
:10B150002C610EF03DF804004022494940342C6235
:10B16000A8610EF02FF82020EC610EF031F80400F9
:10B17000202244492034EC6268620EF023F840201B
:10B18000AC620EF025F8040040223F494034AC6325
:10B1900028630EF017F820206C630EF019F80400F5
:10B1A00020223A4920346C64E8630EF00BF820202A
:10B1B0002C640EF00DF804002022203434492C6554
:10B1C000A8640DF0FFFF334B5A469846324FF250B9
:10B1D00054200433EC64F250F2510DF0F9FF434671
:10B1E000F05054239A46824453460400F3512F00F2
:10B1F0006EE0C04688880800501E0020E0B1FFFFC6
:10B2000011CA08000CE4F43F74DFAD3D85417FBFF7
:10B21000204E0000AAAA2A0055555500102700000C
:10B220005C8F0200CB74F33FEED67FBF0642493EEF
:10B23000BC85BD3FA4BF7FBFABF68A3F433B1B3FEE
:10B240004BAD7FBFA2F54B40F3827FBF3A23E9406D
:10B25000A4050000AC05000064A10020E4CA0020A1
:10B2600060A10020CD8900109CCA00204D8B0010E9
:10B2700038260020EC070000608402105084021081
:10B2800010840210F0830210B08302109083021029
:10B2900070830210F4070000FC070000F74B9E4289
:10B2A00001D900F02FFC30000DF092FF8319994670
:10B2B0002060A360042E01DC00F02AFC320041462D
:10B2C0000DF080FF4B4663600C340C37A24512D062
:10B2D0003B68984642467B689E1A5A4622606260E6
:10B2E000A2604345DAD1002399464B4663600C3493
:10B2F0000C37A245ECD1FF235146039ADB00D15015
:10B300001CAC0C3C2068002801D100F0F5FBA168C2
:10B31000091A0DF065FFAC42F3D1802300241022FE
:10B32000039E1B01F450D64BFA21F250D54B012558
:10B33000F4500433F452D44B8900F450D34B052716
:10B34000F4500433F450D24BF450D24BF450FE235B
:10B350009B059A465246D04BF250D04BD04AF454FB
:10B360001D33FF33F4501033F150CE4B0192F5549E
:10B37000CD4BF250DE2399464846CC4BCC4AF05296
:10B38000CC4B98464046CC4BF050CC4B9C4660464C
:10B39000CB4BF05032200433F2502033F750C94BDE
:10B3A0005246F0509D20C84B00013350C7483450DE
:10B3B00004303452C6483450C648345004303450F7
:10B3C000C5483450C5483450C5483250C5480A00B5
:10B3D00034541D30FF30345010303150C248019980
:10B3E0003554C24831504946C14831524046C1499E
:10B3F00070506046C0497050AD48043170503800FC
:10B40000203177505746BD492D3070500C31735064
:10B41000BB490198745004317452BA497450BA4906
:10B42000745004317450B9497450B9497450B949D1
:10B430007750B94974541D31FF3174501031725036
:10B44000B6497554B64970504846B64970524046A0
:10B45000B54970506046B5497050954804317050F8
:10B46000052020317050B2492D3070500C3173508E
:10B47000B049745004317452AF497450AF4974509C
:10B4800004317450AE497450AE497450AE4977508F
:10B49000AE49AF4F74541D31FF31745010317250AA
:10B4A000AC49019A7554AC4972504946AB4AB15205
:10B4B0004146AB4AB1506146AA4AB1507C49043278
:10B4C000B15005212032B150A74A0021B0500C32B2
:10B4D000B350A64AA648B454A64A8946B5500A2293
:10B4E0003250A548F0518520642740013150A349CE
:10B4F000A34888463150A349A3488C463150A348FD
:10B50000A3493750A3483454A3483550A348F550B5
:10B510003250A34870509120494640013150414675
:10B52000A04831506146A0483150A048A04937504A
:10B53000A04832373454A0483250A04AA048325074
:10B54000A04AB450A04AB4520432B4509F4AB450F6
:10B550009F4AB3509F4BA04AF450A04BF250A04BCF
:10B56000A04AF250A04BA14AF250FA22A04B9200FE
:10B57000F2503033F4509F4B9F4AF4509F4BF4509D
:10B580001423B3549E4A72509E4A9F49B4509F4A16
:10B59000B4509F4AB4500432B3549E4A9E487250ED
:10B5A0009E4AB4509E4AB4509E4AB4509E4AB354E8
:10B5B0009E4B9F4AB3509F4B9F4AF2509F4BA04ACD
:10B5C000F450A04BF250EC239F4ADB01F2509F4A0B
:10B5D0009F4BF2509F4BF754FEF7F2FD52469E4BA5
:10B5E0009E48F4509E4BF4529E4BF4509E4BF450A8
:10B5F0009E4BF4509E4BF4509E4BF4509E4BF25099
:10B6000003229E4BF2549E4B9E4AB3509E4AB35027
:10B610009E4BF45002F028F8B44601229C4B9D4901
:10B62000F5500433F4549C4B6144F4509B4B52420C
:10B63000F4509B4BF4509B4BF4509B4BF7509B4B5F
:10B64000F4509B4B9C719A6128339942FAD103992B
:10B65000984B994ACC54994B8C46CC50984B99486E
:10B660008B50994A60448B50FA22984B5200CC5030
:10B67000974BCA500022974B2EE1C046FCFFFF7F3C
:10B68000040800000C080000140800001C0800005A
:10B6900024080000180800002808000044080000E2
:10B6A0008884021084090000080800008C0900004A
:10B6B000A8DD2A3D0581F53F98090000DD846FBFB4
:10B6C0009C090000C409000088130000DC09000088
:10B6D000E4090000EC090000F4090000E80900009A
:10B6E000F8090000140A0000540B0000D8090000FB
:10B6F0005C0B0000680B00006C0B0000940B00005A
:10B70000AC0B0000B40B0000BC0B0000C40B00002D
:10B71000B80B0000C80B0000E40B0000240D000073
:10B72000A80B00002C0D0000380D00003C0D00009F
:10B73000640D00007C0D0000840D00008C0D0000E5
:10B74000940D0000880D0000980D0000B40D00005D
:10B75000480F0000F40E0000780D0000FC0E000001
:10B76000080F00000C0F0000340F0000640F0000F1
:10B770008C10000088100000A4840210DE805DBFE1
:10B78000A41000006C431040A810000090100000AE
:10B79000C8100000E4100000081200000C120000A5
:10B7A000C0840210241200002812000010120000B1
:10B7B000D0130000641200008C130000DC8402101F
:10B7C00048120000981300009C130000A81300000A
:10B7D000AC130000B013000088880800A413000018
:10B7E000B413000000005C42B81300000000A04148
:10B7F00090130000C4130000CC130000C813000015
:10B80000982D0020D4130000E4130000D81300008A
:10B81000DC130000182F002010240020E813000083
:10B82000EC130000F0130000F41300009830002027
:10B83000F8130000FC13000093130000243B0000E9
:10B84000FF7F691D283B00000000FF7FB80B8813B5
:10B85000047800000C78000010780000A09600200A
:10B860001478000018780000207800002478000088
:10B87000287800001C7800002C7800003078000048
:10B88000889600203C78000038780000407800005E
:10B890007C780000487C0000887800008C780000EC
:10B8A00090780000187900001C79000020790000D1
:10B8B000789700204C7C0000547C0000507C0000F5
:10B8C0009C9A002028800000587C00005C7C0000CE
:10B8D000607C0000B89A002019001C319A711A622D
:10B8E00059629962DA6230339842F5D18D4A0399F0
:10B8F000944600228C4B61441A7030339942FBD13C
:10B9000003988A4B8A49C2548A4BC2508A4B43508F
:10B910008A4943508A4B8B49C2508B4B5A7701223C
:10B9200019608A491A6259601E21894A59611A654B
:10B93000002288499A65596599669421DA65DA6624
:10B940001A67854A5A66854ADA67854A5A501DB091
:10B95000F0BCBB46B246A946A046F0BD0720346005
:10B960007460B4600DF034FC0222914642700232E1
:10B97000827001329046C2700232924602710232E7
:10B9800042710232C31D8271306004700720B360BF
:10B990007360F460346174610DF01AFC49464170C3
:10B9A000013181708B464146C17051460A220171B6
:10B9B0000131C31D41718271F06004700720736111
:10B9C0003361B461F46134620DF002FC4A464270A6
:10B9D0005A4682704246C2705246082102710432B1
:10B9E000C31D41718271B061047004983362F361C8
:10B9F0001AF0A2FB019810F0E9FD02986E6510F0B4
:10BA0000C9FD002801D1FFF77AFB04203C607C606F
:10BA1000BC600DF0DDFB0222934682700232031DF2
:10BA2000C27038600470447004209146BB607B6033
:10BA3000FC603C617C610DF0CBFB03210122817035
:10BA40008A460231031D02704270C170F860042002
:10BA500088467B613B61BC61FC613C620DF0B8FBD8
:10BA6000594601704170494681700231031DC17011
:10BA7000B86104203B62FB617C62BC62FC620DF039
:10BA8000A7FB5146017081704146031DC170786269
:10BA900044700420FB62BB623C637C63BC630DF0BA
:10BAA00097FB49460122017081700231031DC1706C
:10BAB000427038630420BB637B63FC633C647C643A
:10BAC0000DF086FB424602705A4682704246031DC4
:10BAD000C270F863447005987B643B641AF02CFBD9
:10BAE000029810F073FD1F4BAF655C359D4201D08D
:10BAF000FFF7E1FAFFF708FBAC4201D0FFF701FCCA
:10BB0000FFF70BFC002E01DA11F0B2F811F0A0F8EB
:10BB1000042E01D0FFF7D6FB43461B680360FFF7F6
:10BB2000D1FBC04644800000D49A00202C80000045
:10BB300034800000308000007C9E002038800000AF
:10BB40003C80000028850210901C00208813000013
:10BB5000F884021000003442088502101885021093
:10BB6000E01C002038260020002310B500210370BF
:10BB7000014802F025FB10BD6415002070B5094D89
:10BB800004002800002102F01BFB280000220649C7
:10BB900002F032FBF1220123D2012370A3540023CF
:10BBA000236170BD641500200000344370B50400AB
:10BBB0001500283004F062FD104B2900E01807F052
:10BBC0001BF90F4D0021280002F0FAFA002228008C
:10BBD0000C4902F011FBF1220123D2012370A3547E
:10BBE00000232361636A002B05D0074B0021E01876
:10BBF00001F052FD70BD054B6362F6E73878000036
:10BC0000641500200000344350780000901C002090
:10BC1000F0B54546DE4657464E46E0B5836A050018
:10BC20008BB0002B05D1C54B696B5A6A006B9142F2
:10BC300042D92B0028335B7D002B41D1C04BA86B30
:10BC40001E88002E31D0BF4B1C680DF087F896235C
:10BC5000C0B20202121812021218701E12025B0009
:10BC6000984201DB2C20FF306307DB0F062E00D843
:10BC7000A8E2002B00D1DCE101262260012159401D
:10BC800009189B004D08E318ED00ED181A605A6082
:10BC900008339D42FAD101230B4206D099438B19F8
:10BCA00099006250984200DD74E00BB0F0BCBB46D6
:10BCB000B246A946A046F0BD9B6A834200D239E154
:10BCC00040239946A9444B469D4A1B7B90461688C3
:10BCD000002B76D06A6C9046032B00D1ADE100D9E1
:10BCE0003AE1012B00D10BE21000AB6C704319005C
:10BCF0009B460AF0EDFDB31042D0924A9627126897
:10BD000004009246721002927200921992100392ED
:10BD1000C21804925A46AB4655469A467F00059291
:10BD2000310020000AF0D4FDB94203D2FF2389007C
:10BD30001B064B515346310018190AF0C9FDB94290
:10BD400002D2002389004B51029B310018190AF0DE
:10BD5000BFFDB94203D2FF2389001B064B51039B51
:10BD6000310018190AF0B4FDB94202D2002389004B
:10BD70004B51049B0134A342D2D1059B5D469B46A7
:10BD8000434601336B64D84500DA8EE700234A4608
:10BD900013738AE76418991C6260884200DA84E7AA
:10BDA000D91CA260884200DA7FE7191DE260884250
:10BDB00000DA7AE705332261984200DA75E76261BA
:10BDC00073E79623341C5B009E4200D9B0E007AFB6
:10BDD0003A005D4BA4B203CB03C21B7813702B69EE
:10BDE000082B42DC002C00D15FE7564B0021A2005B
:10BDF000186899460DF0E0F96869BE79F9793A7AE0
:10BE0000C70F3F18514D52487F10405901285AD052
:10BE1000002C00D149E74B4B360699464D4B09049F
:10BE20009A4643460E4312021643B04600251E00B2
:10BE300005E04146D1500135AC4200DC35E76B00EE
:10BE40005B191801C01A2100C0000AF041FD02234D
:10BE5000F15E3A00411A504603F092FE4A46AB00AA
:10BE600012680028E5D1D050E5E7AB690133AB613A
:10BE7000002C06D0334B00211868A2000DF09CF96D
:10BE8000AB6907220133D9170A40D218AB610123ED
:10BE9000D110D20F89180B409B1A0133DBB26869AD
:10BEA0005A00D218BE5CBA18C70F3F18274D284851
:10BEB0005178405992787F100128A9D1002C00D1E7
:10BEC000F3E6204B9946330609040B431202134351
:10BED0000293204B00259A46BB4607E04B46029A48
:10BEE0001B68DA510135AC4200DCDEE66B005B1901
:10BEF0001801C01A2100C0000AF0EAFC43460226DD
:10BF00009E5F5A46861B3100504603F039FEAF0053
:10BF10000028E3D131005A465046B43103F030FED8
:10BF20004B461B68002800D185E0029ADA51D9E718
:10BF30001C1C4CE7914200D0C2E67AE60040054066
:10BF40003C15002060150020408502108C78000010
:10BF5000501E0020D8960020042B67D110000AF054
:10BF6000CFFF9C4A9C4B0AF052FF00229B4B0AF0E9
:10BF700030FF0BF047F80022994B0AF021FF002216
:10BF8000984B0AF044FF0AF0D3FFFF2140430AF028
:10BF90009FFC002E3CD0944B711E1F689623020616
:10BFA0005B00994200DBFFE07B07DB0F062E00DC25
:10BFB0000EE1002B00D102E10124A4463A600124E5
:10BFC0005C4064189B006608FB18F600F6181A60BF
:10BFD0005A6008339E42FAD10123234218D09C4371
:10BFE000230063449C003A518B4211DA3F199C1C98
:10BFF0007A60A1420CDBDC1CBA60A14208DB1C1D8C
:10C00000FA60A14204DB05333A61994200DB7A61B0
:10C0100000230022754CC1B20093200002F0D8F832
:10C020008021200002F0CCF86B6C9846AB6C9B46EC
:10C03000A6E6002622E6D85154E710000AF060FF79
:10C04000644A654B0AF0E3FE0022644B0AF0C1FE2D
:10C050000AF0D8FF0022624B0AF0B2FE0022614BC8
:10C060000AF0D5FE0AF064FFFF2140430AF030FCDD
:10C07000002E3FD05C4B01041F68FF231B041940B6
:10C080009623721E5B009A4200DB8AE07B07DB0F7F
:10C09000062E00DC9AE0002B00D18DE00124A4469E
:10C0A000396001245C40A4189B006608FB18F60068
:10C0B000F6181960596008339E42FAD101232342D1
:10C0C00018D09C43230063449C003951934211DAF9
:10C0D0003F199C1C7960A2420CDBDC1CB960A242B7
:10C0E00008DB1C1DF960A24204DB053339619A426A
:10C0F00000DB7961002300213C4CC2B200938CE745
:10C10000AB6C9B469B1A18025946C01A0AF0E0FB1A
:10C11000FF2140430AF0DCFB002E00D130E6324B19
:10C1200002041968FF231B041A409623701E5B004B
:10C1300098423CDA4B07DB0F062E45DD002B39D049
:10C1400001260A6001245C4024189B006708CB1874
:10C15000FF00FF181A605A6008339F42FAD101238A
:10C16000234200D10CE69C43A3199C000A51834250
:10C1700000DB05E609199C1C4A60844200DDFFE5EE
:10C18000DC1C8A60844200DDFAE51C1DCA60844222
:10C1900000DDF5E505330A61834200DDF0E54A6123
:10C1A000EEE52C22FF3271E72C21FF31FCE62C203A
:10C1B000FF30BFE70026C5E70024A44671E700244E
:10C1C000A446FCE600236BE50023CEE700237BE7D3
:10C1D000002307E76E861BF0F92109400000444068
:10C1E0000000F03F00C05F40601500206415002093
:10C1F000F0B5DE4657464E464546E0B5836A040034
:10C2000085B0002B63D1D64B616B5A6A006B9142AB
:10C2100000D9A9E09B6A834200D2A2E02300283320
:10C220001A7D002A00D05EE1237F002B00D070E150
:10C230009423E058883B9846270003680837A044B9
:10C24000424639005B689847002800D0A5E0642387
:10C250009946A144C34D8021280001F0B1FFA36895
:10C260009846C14B0A27DF5F38000CF023FDE368D6
:10C27000061C191C9A460CF013FD002800D05646E7
:10C2800078420CF017FD311C071C0CF0F3FC002861
:10C2900000D13E1C41462800321C01F0ADFF942322
:10C2A000E3584B4500D1CDE17C34A34200D181E17C
:10C2B000FF230022009300210023280001F088FFC3
:10C2C00005B0F0BCBB46B246A946A046F0BD05008D
:10C2D00028356A7D002A57D1A44EA06B012B49DD79
:10C2E000FC2189050CF097FCA0630CF037FD9D4DF7
:10C2F000C1B2280001F064FF300006F0D3FD002831
:10C30000DED1974B616B5A6A206B9142D8D89B6AF9
:10C31000834201D29142D3D0954E964BF358002BD5
:10C3200000D10CE1944BA26AF15C944BD2B2F018AC
:10C3300006F07CFD07F0B8FF0023914A80185941B0
:10C340000B008021020009068B4202D301228D4B93
:10C35000524263638C4B2263A363A36A013BA362D3
:10C36000AEE7914200D059E7250028356B7D002BC0
:10C370000AD17E4EA06B0CF025FD844A844B0AF056
:10C3800046FD0AF01DFEAFE7784E300006F08AFD4C
:10C39000002800D16875A36A9FE7A0680CF0ACFC88
:10C3A00000210600E0680CF065FC002800D092E057
:10C3B00063693100DA0FD218764B52109946180093
:10C3C000013203F0DDFB744B05004B441B69012B6C
:10C3D00000D14EE1002D65D0E06800210CF060FC3A
:10C3E0000200531E9A4100236C4E0121300000933D
:10C3F00006F086FB96216A4B4900F01806F02AFDEC
:10C40000226901322261002A00DC5CE10B2A00DD96
:10C41000EBE05748584BD2B2C15C584B9C46604445
:10C4200006F004FD23699B4650239A46A2445246D7
:10C430004433E250236A022B00D181E1032B00D167
:10C4400072E164229146A144012B00D11EE1636890
:10C45000002D10D018000AF053FD524A524B0AF03A
:10C46000D6FC0AF065FDFA2203009200904200DB40
:10C4700027E1130062605246594612680091504607
:10C48000390015684246A847072263683000D9176B
:10C490000A40D2180023D21007216432009306F01C
:10C4A0002FFBD7E6C8223D4E00230021300052006A
:10C4B000009506F025FB2300022240331A73142353
:10C4C0009621A364364B6564F018490006F0C2FC5F
:10C4D0002269013A96E73000B421B43049000AF0ED
:10C4E000F7F90E0064E70026FA222C4D1E75032191
:10C4F000002328005200009606F002FB00230122D0
:10C5000006212800009606F0FBFA237F002B00D1BD
:10C510008EE6164E300006F0C5FC002800D0CFE6AF
:10C52000627F236A002A00D0B6E0012B03D0636A41
:10C53000002B00D0B3E01D4B0A4D9C466644002101
:10C54000280001F03DFE00222800194901F054FEA8
:10C55000F1220123D2013370B35400233361AFE6DB
:10C5600000400540641500203C15002088960020FE
:10C57000501E00208C7800007C7800003878000085
:10C5800040420F00FFFFFF7F00007F439A99999977
:10C590009999E93FD89600207887FFFF781E002000
:10C5A00010780000333333333333EB3FC887FFFF5A
:10C5B0000000344300230022002128000093FF33B1
:10C5C00001F006FE844B07211868421C1A600AF02D
:10C5D0007FF9002900D073E6AF22009196237F48AF
:10C5E0005200023106F08CFA6AE600250023002290
:10C5F00006213000009506F083FA23000322403321
:10C600001A73C8233200A364754B283AD15C754B6A
:10C610006822F7183800656406F008FCFA21380033
:10C62000C90006F017FC0223FF33A383236A00220C
:10C63000013323620B2100233000009506F060FADD
:10C6400025613DE6002400230022FF2128000094FC
:10C6500001F0BEFD644A1368591C11609B0700D1AC
:10C660002EE6322302215D48604A009406F048FA23
:10C6700026E6310063694846DA0FD21852100132BB
:10C68000B43103F07DFA0543EDB2A3E65B46DB0F60
:10C690005B445B109B46DAE6042B00D14BE7544C1D
:10C6A0000021200001F08CFD00225249200001F001
:10C6B000A3FD0322504B01211A70F122D20199549B
:10C6C000FEE56060D7E60025300000230022062149
:10C6D000009506F015FA2300042240331A73C8238C
:10C6E000C8223000A36492000023002165640095F5
:10C6F00006F006FAFA213B4B4900F718380006F01D
:10C70000A9FB374B283EF15C6722380006F08EFB10
:10C71000FA213800890006F09DFB0123A383636A98
:10C720002561013B6362CBE564225B469146A144EF
:10C73000052B28DC032B18DC9423E3589A4686E665
:10C740005B46032158000AF0C3F8642399465B4610
:10C750000390A144082B32DC5B46062B1FDC94239C
:10C76000E3589A46039B9B4671E619F0B9FD0321F5
:10C770000AF0AEF80029DFD17C239A46A244524643
:10C780001833E25063E619F0ABFD03210AF0A0F87C
:10C79000002902D194234A46E2502369CAE719F0DE
:10C7A0009FFD05210AF094F80029D8D17C239A46F0
:10C7B000A24452461833E250039B9B4647E619F0C9
:10C7C0008FFD05210AF084F8002902D194234A46FE
:10C7D000E25023699B46BFE798CA0020781E0020DC
:10C7E0007C7800001078000094CA0020DC0500006E
:10C7F0006415002000003443501E0020F0B5C646EA
:10C80000070000B5016A84B087480DF025FF3A6A39
:10C81000013A93059B1A9B019B185B009B18834A66
:10C82000DB00944663447B6000233B610023FB6094
:10C83000984619F055FDB42149000AF049F808005E
:10C840000CF038FA3A0094235032B860FA50786805
:10C850000AF056FB764B04000A20185E0D000AF021
:10C860004FFB02000B000AF0ABFA0022714B0AF0FA
:10C87000CEFA22002B000AF0ACFA0AF0A1FB4146E6
:10C88000061CF865F8680CF00BFA002804D0802329
:10C890001B069C466644FE65674B7B6519F020FDD0
:10C8A000C3179B0DC0188005800DC01A0AF028FB25
:10C8B0000022624B0AF0ABFA0022614B0AF0A7FAA1
:10C8C00000225E4B0AF07CFA02900391786D0CF026
:10C8D00079FA02000B00029803990AF098FA0AF01C
:10C8E00027FB060019F0FCFCC00700D57642BB68A8
:10C8F000300098460CF0DEF941460CF075F90CF06A
:10C90000FBF9B4235B00984200DC81E01800386634
:10C910000CF0D0F941460CF064F94A490CF07BF96F
:10C920000CF050FA02000B000AF04AFA22002B0029
:10C930000AF04FFA0AF044FB434C0021B86520008E
:10C9400001F03EFCFF230022009300210023200081
:10C9500001F03EFC3B6A012B64DD3C4C3C4D7A6AA5
:10C96000615D012A58D03B4BD2B2E618300006F088
:10C970005DFA3221300006F06DFA6A223000615D06
:10C9800006F054FAAF21344C4900200006F062FA58
:10C990002000322106F05EFA304B2D4DE618715D15
:10C9A0006922200006F042FA2000322106F052FAF5
:10C9B0003A6A715D2000D2B206F038FA2000FA21FE
:10C9C00006F048FA1E237B613B00012240331A73B4
:10C9D00028230025BB64253BBB627D64BD8307F033
:10C9E00063FC02230722FF33BB877B6838637963CC
:10C9F000D9170A40D2181A4BD210E0180721002389
:10CA00006432009506F07CF804B080BCB846F0BDF6
:10CA1000C343DB1718407AE70E4B6A32E01806F082
:10CA200005FAAFE70C4CB3E710740210881300004E
:10CA30003C15002000004440000070410000E03F31
:10CA40000000503F0000204264150020501E0020CE
:10CA50007C7800003878000088960020C887FFFFA7
:10CA6000F087FFFFF0B5C64600B5070084B08948DF
:10CA70000DF0F2FD01233B6202337B62864B7B604B
:10CA800000233B610023FB60984619F029FCB42188
:10CA9000490009F01DFF08000CF00CF93A0094233E
:10CAA0005032B860FA5078680AF02AFA7B4B0400DA
:10CAB0000A20185E0D000AF023FA02000B000AF0AB
:10CAC0007FF90022764B0AF0A2F922002B000AF02F
:10CAD00080F90AF075FA4146061CF865F8680CF012
:10CAE000DFF8002804D080231B069C466644FE65C0
:10CAF0006C4B7B6519F0F4FBC3179B0DC0188005C8
:10CB0000800DC01A0AF0FCF90022674B0AF07FF989
:10CB10000022664B0AF07BF90022634B0AF050F9C1
:10CB200002900391786D0CF04DF902000B00029811
:10CB300003990AF06CF90AF0FBF9060019F0D0FB32
:10CB4000C00700D57642BB68300098460CF0B2F8BA
:10CB500041460CF049F80CF0CFF8B4235B00984242
:10CB600000DC8BE0180038660CF0A4F841460CF0AD
:10CB700038F84F490CF04FF80CF024F902000B0084
:10CB80000AF01EF922002B000AF023F90AF018FA25
:10CB9000484C0021B865200001F012FBFF23002261
:10CBA000009300210023200001F012FB3B6A012BBF
:10CBB00000DC6DE0404C414D7A6A615D012A61D034
:10CBC0003F4BD2B2E618300006F030F93221300087
:10CBD00006F040F96A223000615D06F027F9AF21C6
:10CBE000384C4900200006F035F92000322106F0CB
:10CBF00031F9354B314DE618715D6922200006F0A0
:10CC000015F92000322106F025F93A6A715D2000FD
:10CC1000D2B206F00BF92000FA2106F01BF91E2310
:10CC20007B613B00012240331A7328230025BB643B
:10CC3000253BBB627D64BD8307F036FB02230722E0
:10CC4000FF33BB877B6838637963D9170A40D218F2
:10CC50001E4BD2109C4664442000002307216432FE
:10CC6000009505F04DFF002300220B2120000095C8
:10CC700005F046FF04B080BCB846F0BDC343DB17E7
:10CC8000184070E70E4B6A32E01806F0CFF8A6E7BE
:10CC90000C4CAAE72C740210881300003C150020ED
:10CCA00000004440000070410000E03F0000503FA1
:10CCB0000000204264150020501E00207C780000F7
:10CCC0003878000088960020C887FFFFF087FFFFB4
:10CCD000F0B5C64600B50569040084B0002D00D14A
:10CCE00015E10223476A03703B68964A9B689342AA
:10CCF00000D01DE194480DF0AFFC01233B620233EC
:10CD00007B62924B7B6000233B610023FB60984673
:10CD100019F0E6FAB421490009F0DAFD08000BF039
:10CD2000C9FF3B0094225033B860BB5078680AF0CA
:10CD3000E7F8874B04000A20185E0D000AF0E0F8BF
:10CD400002000B000AF03CF80022824B0AF05FF868
:10CD500022002B000AF03DF80AF032F94146061C89
:10CD6000F865F8680BF09CFF002804D080231B06B0
:10CD70009C466644FE65784B7B6519F0B1FAC31793
:10CD80009B0DC0188005800DC01A0AF0B9F800226A
:10CD9000724B0AF03CF80022714B0AF038F800227E
:10CDA0006E4B0AF00DF802900391786D0CF00AF8C2
:10CDB00002000B00029803990AF029F80AF0B8F86B
:10CDC000060019F08DFAC00700D57642BB68300026
:10CDD00098460BF06FFF41460BF006FF0BF08CFFFF
:10CDE000B4235B00984200DD8DE0C343DB1718409D
:10CDF00038660BF05FFF41460BF0F3FE59490BF02C
:10CE00000AFF0BF0DFFF02000B0009F0D9FF220040
:10CE10002B0009F0DEFF0AF0D3F8534C0021B8656F
:10CE2000200001F0CDF9FF23002200930021002310
:10CE3000200001F0CDF93B6A012B66DD4B4C4C4DD7
:10CE40007A6A615D012A00D175E04A4BD2B2E618D8
:10CE5000300005F0EBFF3221300005F0FBFF6A22C5
:10CE60003000615D05F0E2FFAF21434C4900200036
:10CE700005F0F0FF2000322105F0ECFF3F4B3C4D68
:10CE8000E61869222000715D05F0D0FF20003221F4
:10CE900005F0E0FF3A6A2000715DD2B205F0C6FFEE
:10CEA0002000FA2105F0D6FF1E237B613B00012202
:10CEB00040331A7328230025BB64253BBB627D6485
:10CEC000BD8307F0F1F902230722FF33BB877B689C
:10CED00038637963D9170A40D218294BD2109C467F
:10CEE00064440023072120006432009505F008FE09
:10CEF000002300220B212000009505F001FE04B064
:10CF000080BCB846F0BD180072E71B4CB2E7164E65
:10CF10000021300001F054F900223000194901F0DD
:10CF20006BF9F1220123D2012370A3542561E6E7B6
:10CF300038009847E3E70F4B6A32E01805F076FFB8
:10CF400092E7C04665CA00102C74021088130000D6
:10CF50003C15002000004440000070410000E03F0C
:10CF60000000503F0000204264150020501E0020A9
:10CF70007C7800003878000088960020C887FFFF82
:10CF8000F087FFFF00003443F0B5C64600B5D64B2E
:10CF9000C1685A6A0400856884B0002091422CD888
:10CFA0009B6AAB422DD307F07FF90023CF4A80184C
:10CFB00059410B008021020009068B4202D3012255
:10CFC000CB4B5242F127E360CA4BA260E518280020
:10CFD00005F084FFC84BFF01E618300002F066FD43
:10CFE000E35D002B00D041E12378022B00D145E125
:10CFF000032B25D0012B07D0012004B080BCB846FC
:10D00000F0BD9142CFD1F8E723697268934200D016
:10D010003AE1002BF0D0B44BE1695A6AA069914221
:10D02000EAD89B6A834201D29142E5D0280005F0FC
:10D0300039FF0028E0D12000FFF74AFE0120DCE79D
:10D04000280005F02FFF051ED6D12669002E00D13D
:10D0500074E10223676A23703B68A84ADB68934245
:10D0600000D07FE1396AA6480DF0F6FA3A6A3D61D0
:10D07000013A93059B1A9B019B185B009B18A14AE0
:10D08000DB00944663447B600023FB60984619F004
:10D0900027F9B421490009F01BFC08000BF00AFE37
:10D0A0003B0094225033B860BB50786809F028FFE9
:10D0B000954B04000A20185E0D0009F021FF0200C4
:10D0C0000B0009F07DFE0022904B09F0A0FE22002B
:10D0D0002B0009F07EFE09F073FF4146061CF8653F
:10D0E000F8680BF0DDFD002804D080231B069C4669
:10D0F0006644FE65864B7B6519F0F2F8C3179B0DFD
:10D10000C0188005800DC01A09F0FAFE0022814B7C
:10D1100009F07DFE0022804B09F079FE00227D4B54
:10D1200009F04EFE02900391786D0BF04BFE020069
:10D130000B000298039909F06AFE09F0F9FE060057
:10D1400019F0CEF8C00700D57642BB68300098468B
:10D150000BF0B0FD41460BF047FD0BF0CDFDB423C5
:10D160005B00984200DCBAE0180038660BF0A2FDC4
:10D1700041460BF036FD69490BF04DFD0BF022FEE8
:10D1800002000B0009F01CFE22002B0009F021FE1A
:10D1900009F016FF624C0021B865200001F010F87C
:10D1A000FF230022009300210023200001F010F84B
:10D1B0003B6A012B00DCD3E05A4C5B4E7A6AA15DDE
:10D1C000012A00D1D2E04B4BD2B2E518280005F07D
:10D1D0002DFE3221280005F03DFE6A222800A15DC7
:10D1E00005F024FEAF21514C4900200005F032FE2D
:10D1F0003221200005F02EFE4D4B4B4DE6186922E2
:10D20000715D200005F012FE3221200005F022FEA3
:10D210003A6A715DD2B2200005F008FEFA212000C2
:10D2200005F018FE1E237B613B00012240331A7378
:10D2300028230025BB64253BBB627D64BD8307F0CA
:10D2400033F802230722FF33BB877B683863796397
:10D25000D9170A40D218374BD210E0180721002303
:10D260006432009505F04CFC0120C6E6280005F06C
:10D2700019FE002800D0BFE6E055B5E6606A0368F5
:10D280001B6998470120B8E607F00EF800232A4AE8
:10D29000801859410B008021020009068B4202D3FD
:10D2A0000122134B5242E3617368A2612361002B98
:10D2B0000DDD1D4E280005F0E3FD2800227CA15D58
:10D2C00005F0B4FD66222800A15D05F0AFFD002346
:10D2D00013480021236200F073FF01208DE6C34351
:10D2E000DB17184041E7C04600400540409C000065
:10D2F000FFFFFF7F3878000088780000FDC700102E
:10D3000010740210881300003C15002000004440F7
:10D31000000070410000E03F0000503F000020424C
:10D3200064150020501E00207C78000088960020A4
:10D33000C887FFFFF087FFFFC0C62D000E4D0021FC
:10D34000280000F03DFF002228000C4900F054FFA7
:10D35000F1220123D20123700120A35426614CE65F
:10D36000074C45E738009847012046E6054B6A32EE
:10D37000E01805F05BFD35E764150020000034433C
:10D3800088960020387800007047C046F8B507003E
:10D3900005000026094B041D1B882037836518F003
:10D3A0009FFFA96D09F094FA08000BF083FCA663B7
:10D3B0002060E0610434BC42F1D1F8BD3C1500208E
:10D3C00010B504005C210BF00BFF200010BDC0461F
:10D3D000F0B5DE4657464E464546E0B5826D87B00D
:10D3E0000490002A0CDD9623013A5B009A4200DB90
:10D3F00018E18E4B01320021186892000BF0DCFE20
:10D40000049B1C1D25001833059318F069FFFA21B1
:10D41000C90009F05DFA864BC81809F071FD0022B9
:10D42000844B09F0D6FC0600A86B0F000BF0CAFC79
:10D4300002000B003000390009F0C2FC09F0C0FD09
:10D44000041C0BF0BFFC7C4A7C4B06000F0009F06B
:10D4500029FD002800D1DFE030003900764A784B02
:10D4600009F036FD002800D1D9E0211C201C0BF06A
:10D47000D2FB211C0BF0CFFB2968AC630BF0B4FB93
:10D48000EC692860211C80460BF0ABFB0BF09AFC8A
:10D490006C4A6D4B09F0BBFC0600201C0F000BF022
:10D4A00091FC02000B003000390009F089FC09F002
:10D4B00087FD049BE8619B6D041C18009A460BF0E5
:10D4C000F9FB061C011C40460BF0E2FB00280AD0C9
:10D4D000311C40460BF085FB311C2860201C0BF0F2
:10D4E00080FB041CE8612B680021181C99460BF096
:10D4F000C1FB00280BD04846311C0BF075FB311CDA
:10D5000028608146201C0BF06FFB041CE861211C85
:10D5100048460BF0AFFB431E984143009846012359
:10D520005B429C464946201CE0440BF05AFBFE211E
:10D530004000890540080BF057FB0BF0DDFB8346EC
:10D5400000285DDD394B00241B68002702930BF097
:10D55000B1FB0395019023E00021301C0BF0A0FBF0
:10D56000002848D0301C0BF0F9FBC2B213029B1804
:10D570001B029A18190C1B0A9620400085420BD2F8
:10D58000FF201B0400041206120C0340134309067B
:10D59000029AAD000B43AB5001374444BB452ED03B
:10D5A00038000BF087FB01990BF021FB011CFE20DA
:10D5B00080050BF016FB061C20000BF07BFB494698
:10D5C0000BF012FB0BF098FB514609F081F90D1E90
:10D5D00000DA5544311C301C0BF01DFB1B490BF0CD
:10D5E0001AFB1A49061C0BF045FB0028B4D1FF2199
:10D5F000174B184AC0E7002300210022BCE7039D17
:10D60000059B0435AB4200D0FFE607B0F0BCBB463B
:10D61000B246A946A046F0BD0F48104C2CE7104872
:10D62000104C29E72C22FF32E3E6C04660150020AB
:10D6300018FCFFFF0088C340666666666666F63FB4
:10D640006666F6BF9A9999999999B93F00007F4308
:10D65000FFFF0000FFFFFF00B29D2F403333B33FB9
:10D66000B29D2FC03333B3BF002370B5282204000E
:10D67000002108C00BF0A0FD5C200BF0A9FD050007
:10D680005C2200210BF098FD024B20002B606560AE
:10D6900070BDC0465485021010B501608900401865
:10D6A00040680368DB68984710BDC046036810B542
:10D6B0009B00C018406803689B68984710BDC0462F
:10D6C00030B50B7C0C0085B0012B0DD001238A688E
:10D6D000A02193408622C905D2008B5003232374D6
:10D6E0000020002105B030BD0868002107F0C8F90E
:10D6F0000223237406F0C8FB050006F0D5FD0C22BA
:10D70000002312184B41802109068B4202D30122CB
:10D71000054B5242012102910449280001940091D5
:10D7200006F0B6FBDCE7C046FFFFFF7FC1D6001066
:10D7300070B50400100062602160022105F0A0FDB8
:10D740001349206807F098F8002302220821206876
:10D7500007F058F9A368013300D070BD01200DF027
:10D760007DFC21680B4B0C4DCB185A425341C20231
:10D770000A332A401B04134311221343A022D2056B
:10D780009446A06080016044E36003614160E4E787
:10D7900090D003000080FCBFFD7F00FF30B58368A0
:10D7A0000400A020C00584469B01634419609A6070
:10D7B00001230121237485B0206807F061F906F088
:10D7C00063FB050006F070FD6422002312184B4134
:10D7D000802109068B4202D30122064B52420121CD
:10D7E0000291054928000194009106F051FB0120A7
:10D7F00005B030BDFFFFFF7FC1D60010037C0200E3
:10D80000032B03D05A425341D8B27047A021C90517
:10D810008C46836800209B0163441B69DB01F4D4C0
:10D8200013689B691B07F0D410740130EDE7C04604
:10D83000002303747047C04610B58168027C02481B
:10D840000CF00AFF10BDC0463C740210F0B5DE4675
:10D8500057464E464546414BE0B51C6885B0A36926
:10D86000DB0629D43E4B102506229B5E3D4F9A468F
:10D870003D4B3A78197803933C4B3D4E99463D4BCE
:10D8800001933D4B029301239846A3691D42FCD1AD
:10D890002068092A0DD8531CDBB2B0543B701A0023
:10D8A000002910D1072B04D1344B32689A4243D05F
:10D8B0000722A3691D42E8D005B0F0BCBB46B246C2
:10D8C000A946A046F0BD052BF3D1B421B0787378FA
:10D8D000C001C0188011490008F0FAFF3379F278CE
:10D8E0001B029B189B109A4506DC002B31D10023AC
:10D8F0003B7001210022DCE7214B00934A46525C39
:10D90000002A14D01F4A944660464A00805A834633
:10D91000984221DC5B469BB260468352019B009893
:10D9200098524246029B5A544B465A54DFE7154AD6
:10D93000009B94464A00EFE78023B288DB019A42BD
:10D94000B6D1B379812BB3D1039A803B1370397070
:10D95000CFE79AB20092D1E79B46DBE7F4EA0020DA
:10D960003C15002028F8002029F800208CE9002030
:10D9700010E100201CE10020F8EA0020A55A050073
:10D98000E02E0000BCE600202021074B1B689A69AE
:10D990001142FCD1A52220211A609A691142FCD1C2
:10D9A00040221A607047C046F4EA00202021094B4B
:10D9B0001A6893691942FCD1A5232021136008003D
:10D9C000936918401942FAD1034B11601870034B48
:10D9D00018707047F4EA002029F8002028F8002089
:10D9E0002021074B1B689A691142FCD1A5222021F6
:10D9F0001A609A691142FCD125221A607047C0460C
:10DA0000F4EA0020F0B557464E46DE464546E0B5FE
:10DA1000334B87B01A68334B514201920291062072
:10DA20001B5E314F9846314B16001B6894469B464F
:10DA30002F4B30481B686A3605932F4B60449A463B
:10DA40001300CB1A013B04933B002C4A47469146F6
:10DA50009846FF360390019B029A93423DDB049B5C
:10DA6000264D9C1905E04D4500DD244D0134B4429E
:10DA70000FD0B4212000490008F02AFF4346490096
:10DA80005B5A9F42EFDC9D42F0DD01341D00B44241
:10DA9000EFD1AB451EDA5B46E81A0BF00BF905999E
:10DAA0000BF0B9F80BF028F95346188002239C4676
:10DAB000039B0136E2449E42CDD1B42200215200A4
:10DAC0000F480BF079FB07B0F0BCBB46B246A94645
:10DAD000A046F0BD53461D80E8E7084DD9E7C04693
