:020000041000EA
:1080000000200420F7800010C3800010C5800010FD
:10801000C1800010C1800010C1800010C18000101C
:10802000C1800010C1800010C1800010C780001006
:10803000C1800010C1800010C9800010CB800010EA
:10804000CD800010CD800010CD800010CD800010BC
:10805000CD800010CD800010CD800010CD800010AC
:10806000CD800010CD800010CD800010CD8000109C
:10807000CD800010CD800010CD800010CD8000108C
:10808000CD800010CD800010CD800010CD8000107C
:10809000CD800010CD800010CD800010CD8000106C
:1080A000CD800010CD800010CD800010CD8000105C
:1080B000CD800010CD800010CD800010CD8000104C
:1080C00000BE00BE00BE00BE00BE00BEEFF30580D5
:1080D000103800BEF2EB887184D60210A0D60210D0
:1080E0003481001090A31AE700201F49086006C8D9
:1080F00081F3088810471D48006800282FD10DA47F
:108100000ECC002902D000F012F8F9E71849194AFC
:10811000002000E001C19142FCD11749884717496E
:1081200088471749884700BEFDE701C901C29A4246
:10813000FBD37047A0D60210C0000020581C0020BE
:1081400058F20210000004200000042058F202102F
:1081500000100420001004200000000070470948AF
:1081600011F0E0FD0047000008ED00E0000000D045
:10817000781C002070F90020E5830110E9DB011074
:10818000198501105756000006005250ABB36053DA
:10819000A8AB021006005250861C0302B8AB0210B6
:1081A000060052505422A29DBCAB02100500525052
:1081B000DE65F46858F20210F8B5C0460648074973
:1081C000091A8B10C90FC91810B5491003D0044BF8
:1081D000002B00D0984710BD581C0020581C0020D0
:1081E00000000000054B10B5002B03D004490548E2
:1081F00000E000BFFFF7E2FF10BDC0460000000036
:1082000034EE002090A8021010B50E2116F0B4F83C
:1082100010BDC046F0B585B0040014F0ADFC0728D1
:108220001CD8002818D0072803D84D4A80001358BE
:108230009F4614F0C5FC4B4B20802C2401000025E8
:1082400018680023484EFF34994200DC7BE09A0016
:1082500001338650A342F7D105B0F0BD64285DD04C
:108260006528F9D114F0C4FCC82014F0C9FC00231F
:10827000E05E14F0D1FC0223E05E14F0CDFC042398
:10828000E05E14F0C9FC0623E05E14F0C5FC082390
:10829000E05E14F0C1FC0A23E05E14F0BDFCA0898E
:1082A00014F0CAFC14F0D8FCD6E714F089FCA081C5
:1082B000D2E714F06FFCB42160806930FF304900D0
:1082C00011F062FD208800254843B421490011F0D7
:1082D0005BFD244B2C211C680023234E8700FF31BB
:1082E000984206D09A000133A5508B42B4D09842F0
:1082F000F8D1431CE6518B42F2D1ADE714F04AFCB1
:10830000A080A9E714F046FCE080A5E714F042FC49
:108310002081A1E714F03EFC60819DE7A58904223D
:10832000A35E0221625E218803950A26A55F0F489D
:1083300002950826A55F01950625645F009415F057
:10834000E7FB89E713009A0085505A1CA24200D12E
:1083500082E79142F6DD92008650023374E7C04610
:10836000DCB702106015002000FFFFFF90A802108C
:10837000F8B5B8235B00C7580400806913F0F6FE17
:10838000CE21890513F0A3FEB6235B00061C391C21
:10839000E05813F082FE011C301C13F098FE391CCB
:1083A00013F07EFE13F004FF13F0E0FE8221C905F6
:1083B00013F08DFE13F0FCFE8721C90011F0E4FCE0
:1083C0001E4D890048591E4AC117430BC904194361
:1083D000C004002311F026FD220021008025513227
:1083E000FF3239345769174ED0603831FF342D05CC
:1083F00015E0F8231B069C46604410610314C01767
:10840000400D1B185B055B0D1B1A5B00F35E0868D3
:108410007B43DB13C31808C1A1420DD0D068936918
:10842000C0181369C018A842E3DA0028E5DA8023EF
:108430001B059C466044E0E7F8BDC046C0A2002092
:10844000C05D0000A0B300207047C0467047C04622
:108450007047C0467047C046F0B5C6460D000400E0
:10846000816800B52868160013F01AFE2860A76816
:1084700080460021381C13F059FE00282BD1002122
:10848000381C13F069FE00280AD0206913F06EFE34
:10849000071C011C404613F05FFE002800D02F602F
:1084A000E168306813F0FCFD3060E468051C0021D1
:1084B000201C13F051FE002819D0174B0A20185E1B
:1084C00013F054FE011C281C13F03EFE431E98417D
:1084D00080BCB846F0BD206913F048FE071C011CA3
:1084E000404613F023FE0028DAD02F60D8E70021A1
:1084F000201C13F01BFE00280CD0074B0A20185E2E
:10850000404213F033FE011C281C13F015FE431EDD
:108510009841DDE70020DBE73C1500200420704790
:1085200070B50400180013680D00E3600B68236148
:1085300011F042FF02000B000020184911F0A5FEC7
:1085400011F09AFF0023A060636021F025F93C211F
:1085500011F01AFC04981E390A304843142111F016
:1085600013FC2D68B43006000D49281C13F0DEFD05
:10857000002809D0300013F0F9FD291C13F090FDFC
:1085800013F016FE606170BD300013F0EFFD011CAA
:10859000281C13F082FD13F00BFEF3E700002440CB
:1085A00000003443F8B5CE464746804680B51800F3
:1085B0001600894611F000FF4B4B04000A20185E9C
:1085C0000D0011F0F9FE02000B0011F055FE002223
:1085D000464B11F078FE2B00220011F056FE11F0F0
:1085E0004BFF4346D860071C0021306813F0B4FDF0
:1085F000002805D080231B069C4643466744DF6065
:10860000089B9C465800604440000F3013F0AEFDBC
:108610003749061C13F08AFD002860D03549301C0C
:1086200013F09AFD00285CD043465E6021F0B4F858
:10863000C3179B0DC0188005800DC01A11F0BCFE39
:1086400000222D4B11F03FFE00222C4B11F03BFE7F
:108650000022294B11F010FE4346060058680F0017
:1086600013F00CFE02000B003000390011F02BFE5D
:1086700011F0BAFE060021F08FF8C00700D576424F
:108680004B461F68300013F071FD391C13F008FDD4
:1086900013F08EFDB4235B0098421CDD18004346A6
:1086A000186113F063FD391C13F0F7FC144913F043
:1086B0000EFD13F0E3FD02000B0011F0DDFD2B00B9
:1086C000220011F0E2FD11F0D7FE43469860C0BCD5
:1086D000B946B046F8BDC343DB171840DFE7044E88
:1086E000A2E7044EA0E7C0463C150020000024404D
:1086F00000009642000070410000E03F0000503F43
:108700000000204110B5040021F046F896214900F0
:1087100011F03AFBA423C8315B00E15021F03CF892
:108720000F2111F031FB2C31080013F01FFDB6238F
:108730005B00E05010BDC04610B5040021F02CF8DD
:10874000962111F021FBA42314315B00E15021F0AC
:1087500023F81E2111F018FBB22369315B00E150B0
:1087600021F01AF80C2111F00FFBB42301315B004A
:10877000E15021F011F8142111F006FB080011F06E
:108780001BFE0022124B11F077FD11F075FEBC2389
:108790005B00E05021F000F8C217920D83189B0592
:1087A0009B0D981A13F0E2FC0A4913F090FCEA21A1
:1087B000890513F08CFC13F061FD074A074B11F09B
:1087C0005BFD11F059FEBA235B00E05010BDC046BE
:1087D00000002E40E2AE5E3F9A9999999999B93F6F
:1087E00010B5040020F0D8FFE121490011F0CCFAC7
:1087F000A42332315B00E15020F0CEFF0A2111F0BA
:10880000C3FAB22352315B00E15020F0C5FF0621CC
:1088100011F0BAFAB42301315B00E15020F0BCFF43
:10882000052111F0B1FA080011F0C6FD0022124B2B
:1088300011F022FD11F020FEBC235B00E05020F07F
:10884000ABFFC217920D83189B059B0D981A13F06E
:108850008DFC0A4913F03BFCEA21890513F037FC33
:1088600013F00CFD064A074B11F006FD11F004FE53
:10887000BA235B00E05010BD00001440E2AE5E3F42
:108880009A9999999999B93FDC2110B5040049004A
:1088900013F002FF200010BDC02110B504004900F4
:1088A00013F0FAFE200010BDC02110B504004900ED
:1088B00013F0F2FE200010BDBC2110B504004900E9
:1088C00013F0EAFE200010BDF0B5CE4600B507005B
:1088D00082B0894681684068160013F0E1FB786039
:1088E00013F0CCFC02000B0011F0C6FC00222F4B51
:1088F00011F0B9FC04000D0000222D4B11F0E3FC37
:1089000022002B0011F0DFFC0022294B11F0B4FCF7
:108910000400F8680D0013F0B1FC02000B00200009
:10892000290011F0D0FC11F0A7FD3060786813F039
:10893000A5FC204A204B11F0C6FC11F0BFFD3E699A
:1089400000900191786913F011FC311C13F0A5FB24
:1089500013F094FC009A019B04000D0000201349C1
:1089600011F081FC0022124B11F0ADFC02000B0053
:108970002000290011F0A7FC0400301C0D0013F0AA
:108980007DFC02000B002000290011F075FC11F0A5
:1089900073FD4B46FE2118607868890513F0DCFBF7
:1089A000431E984102B080BCB946F0BD0000F03FC4
:1089B0000000E03F6E861BF0F9210940F0B5454606
:1089C000DE4657464E46E0B5836A05008BB0002B65
:1089D00005D1C54B696B5A6A006B914242D92B0095
:1089E00028335B7D002B41D1C04BA86B1E88002E25
:1089F00031D0BF4B1C6813F00DFC9623C0B20202AD
:108A0000121812021218701E12025B00984201DB4B
:108A10002C20FF306307DB0F062E00D8ACE2002BC2
:108A200000D1DFE1012622600121594009189B0095
:108A30004D08E318ED00ED181A605A6008339D42A6
:108A4000FAD101230B4206D099438B199900625049
:108A5000984200DD74E00BB0F0BCBB46B246A946BC
:108A6000A046F0BD9B6A834200D239E1402399467B
:108A7000A9444B469D4A1B7B90461688002B76D016
:108A80006A6C9046032B00D1B0E100D93AE1012B8A
:108A900000D10FE21000AB6C704319009B4611F03F
:108AA00073F9B31042D0924A962712680400924696
:108AB000721002927200921992100392C2180492DC
:108AC0005A46AB4655469A467F0005923100200033
:108AD00011F05AF9B94203D2FF2389001B064B510A
:108AE00053463100181911F04FF9B94202D2002350
:108AF00089004B51029B3100181911F045F9B94218
:108B000003D2FF2389001B064B51039B3100181928
:108B100011F03AF9B94202D2002389004B51049B6B
:108B20000134A342D2D1059B5D469B4643460133A7
:108B30006B64D84500DA8EE700234A4613738AE750
:108B40006418991C6260884200DA84E7D91CA2602C
:108B5000884200DA7FE7191DE260884200DA7AE78E
:108B600005332261984200DA75E7626173E7962364
:108B7000341C5B009E4200D9B0E007AF3A005D4B69
:108B8000A4B203CB03C21B7813702B69082B42DC01
:108B9000002C00D15FE7564B0021A20018689946CF
:108BA00013F066FD6869BE79F9793A7AC70F3F1804
:108BB000514D52487F10405901285AD0002C00D105
:108BC00049E74B4B360699464D4B09049A464346B6
:108BD0000E4312021643B04600251E0005E0414632
:108BE000D1500135AC4200DC35E76B005B19180150
:108BF000C01A2100C00011F0C7F80223F15E3A004C
:108C0000411A50460AF018FA4A46AB00126800288A
:108C1000E5D1D050E5E7AB690133AB61002C06D05C
:108C2000334B00211868A20013F022FDAB69072224
:108C30000133D9170A40D218AB610123D110D20FEA
:108C400089180B409B1A0133DBB268695A00D218AD
:108C5000BE5CBA18C70F3F18274D284851784059B5
:108C600092787F100128A9D1002C00D1F3E6204B87
:108C70009946330609040B43120213430293204B17
:108C800000259A46BB4607E04B46029A1B68DA511C
:108C90000135AC4200DCDEE66B005B191801C01A3E
:108CA0002100C00011F070F8434602269E5F5A462C
:108CB000861B310050460AF0BFF9AF000028E3D10F
:108CC00031005A465046B4310AF0B6F94B461B689B
:108CD000002800D188E0029ADA51D9E71C1C4CE741
:108CE000914200D0C2E67AE6004005403C150020E3
:108CF00060150020D0B90210A4790000701E002079
:108D000010980020042B6AD1100011F055FB9E4AE8
:108D10009E4B11F0D8FA00229D4B11F0B6FA11F0DB
:108D2000CDFB00229B4B11F0A7FA00229A4B11F0C9
:108D3000CAFA11F059FBFF21404311F025F8002E2B
:108D40003CD0964B711E1F68962302065B00994229
:108D500000DB03E17B07DB0F062E00DC12E1002BBA
:108D600000D106E10124A4463A6001245C40641865
:108D70009B006608FB18F600F6181A605A60083364
:108D80009E42FAD10123234218D09C43230063441E
:108D90009C003A518B4211DA3F199C1C7A60A14227
:108DA0000CDBDC1CBA60A14208DB1C1DFA60A1428E
:108DB00004DB05333A61994200DB7A610022784B8B
:108DC000C1B21C682368009220009E680023B0474F
:108DD000236880215B68200098476B6C9846AB6CD9
:108DE0009B46A3E600261FE6D85151E7100011F07C
:108DF000E3FA654A654B11F066FA0022644B11F004
:108E000044FA11F05BFB0022624B11F035FA0022AC
:108E1000614B11F058FA11F0E7FAFF21404310F0CE
:108E2000B3FF002E3FD05D4B01041F68FF231B04DE
:108E300019409623721E5B009A4200DB8BE07B0791
:108E4000DB0F062E00DC9BE0002B00D18EE001241E
:108E5000A446396001245C40A4189B006608FB18F6
:108E6000F600F6181960596008339E42FAD10123C2
:108E7000234218D09C43230063449C003951934201
:108E800011DA3F199C1C7960A2420CDBDC1CB96032
:108E9000A24208DB1C1DF960A24204DB05333961E4
:108EA0009A4200DB796100213D4BC2B21C68236805
:108EB000009189E7AB6C9B469B1A18025946C01A71
:108EC00010F062FFFF21404310F05EFF002E00D142
:108ED0002CE6324B02041968FF231B041A40962328
:108EE000701E5B0098423CDA4B07DB0F062E45DD17
:108EF000002B39D001260A6001245C4024189B0015
:108F00006708CB18FF00FF181A605A6008339F42A9
:108F1000FAD10123234200D108E69C43A3199C0007
:108F20000A51834200DB01E609199C1C4A60844215
:108F300000DDFBE5DC1C8A60844200DDF6E51C1DDB
:108F4000CA60844200DDF1E505330A61834200DD39
:108F5000ECE54A61EAE52C22FF3270E72C21FF3173
:108F6000F8E62C20FF30BFE70026C5E70024A44622
:108F700070E70024A446F8E6002367E50023CEE767
:108F800000237AE7002303E76E861BF0F9210940EE
:108F9000000044400000F03F00C05F40601500202A
:108FA00030BA0210F0B5D64646464F46C0B51E0050
:108FB000CE235B00C358040098460D008844170078
:108FC00020F0EAFBD0235B00E15810F0DDFE4144C5
:108FD00008000A2900DC88E06E2900DD87E013F034
:108FE000C5F8D4235B00E050280013F0BFF8BC2381
:108FF0005B00E050143BF50FE358AD19A7616D100D
:109000009D4200DD1D00B6235B00E358761B9946A8
:10901000B4234A465B00E358B21A90469A4200DDF8
:1090200098464346002B01DC012398462E1E00DCA7
:109030000126802071008919C900400410F0A4FEA7
:109040004F464346E062A362002F00DC01278020E8
:109050007900C919C900400410F096FE0023464467
:10906000A36323000122B2462833BA4460631A7511
:109070000EF076FB5346FA2206000F009200D91735
:109080005046002312F0ECFF801979410B0080213B
:10909000020009068B4202D30122164B5242A264FF
:1090A000E3640EF05DFB06002800FA2240444844C9
:1090B0000F000023920000210A3012F0D1FF801926
:1090C00079410B008021020009068B4202D3012264
:1090D000084B52426365AC23226500225B00E250DC
:1090E000E0BCBA46B146A846F0BD034879E76E2019
:1090F00075E7C046FFFFFF7F0000204170B50B4CB5
:10910000250020683C3D00280BD0A168091A13F007
:10911000C3FA23000C3BAC4207D01C002068002897
:10912000F3D123000C3BAC42F7D170BD10CC002032
:1091300070B5084C2500243D0C3C2068002806D062
:10914000A168091A13F0A8FAAC42F5D170BDAC427F
:10915000F2D1FBE740CC002070B5040020F01CFBEE
:10916000C3179B0DC0188005800DC01A12F0FEFFBA
:109170008121C90512F0ABFFEA21890512F0A7FF92
:109180008121C90512F08CFF051C20F005FBC217D8
:10919000920D83189B059B0D981A12F0E7FF644906
:1091A00012F095FFEA21890512F091FF9421061C27
:1091B000C905281C12F08BFF5E4912F074FF13F0F2
:1091C00029F8FE2120818905301C12F0AFFF00280C
:1091D00000D09CE0FA208000E08020F0DDFAC31788
:1091E0009B0DC0188005800DC01A12F0BFFFEA2148
:1091F000890512F06CFF051C011C12F068FF291C88
:1092000012F065FF13F03AF800224B4B11F05BF8B7
:1092100011F0EAF8B2235B00E05020F0BDFAFA2129
:10922000490010F0B1FDB423C8315B00E15020F0DB
:10923000B3FAC3179B0DC0188005800DC01A12F039
:1092400095FFEA21890512F042FF011C12F03FFF51
:1092500013F014F80022394B11F035F811F0C4F86E
:10926000B6235B00E05020F097FAC3179B0DC0189F
:109270008005800DC01A12F079FF314912F027FFE6
:10928000EA21890512F023FFB8235B00E05020F0AB
:1092900083FA182110F078FDCE230F315B00E150E6
:1092A00020F07AFA242110F06FFDD02301315B0009
:1092B000E15020F071FA142110F066FD080011F061
:1092C0007BF800221F4B10F0D7FF11F0D5F8D82300
:1092D0005B00E05020F060FAC3179B0DC0188005BA
:1092E000800DC01A12F042FF174912F0F0FEEA2179
:1092F000890512F0ECFE12F0C1FF144A144B10F075
:10930000BBFF11F0B9F8D6235B00E05070BD00211F
:10931000301C12F021FF002807D00E49301C12F03B
:10932000D6FE12F077FF80B256E7002054E7C04621
:10933000CDCC4C3E0080BB46000049400000894037
:10934000E820553F0000F03FE2AE5E3F9A999999C0
:109350009999B93F00007A440300F0B5D6464F46CC
:1093600046465133FF33C0B55961A2235B00C35851
:1093700004009846A4235B00C558083BC35889469F
:109380009A46002B01DC01239A465346802059005F
:109390005144C900400410F0F7FC4346E060A3606C
:1093A000002D00DC0125802069004919C900400416
:1093B00010F0EAFC0023A3610133237760610EF013
:1093C000CFF906004046FA2250440F0000239200D5
:1093D0000021401912F044FE801979410B008021D0
:1093E000020009068B4202D30122194B5242E3626A
:1093F000A0235B00E5580433E358A262ED18A423D0
:109400005B00E358ED180EF0ABF9FA2206000F00EE
:10941000002392002800002112F022FE80197941D9
:109420000B008021020009068B4202D30122084B67
:1094300052426363A62322634A465B00E250002245
:10944000143BE250E0BCBA46B146A846F0BDC04667
:10945000FFFFFF7FF0B5B223D6464F4646465B007E
:10946000C0B5C5580400894620F096F9B4235B00C6
:10947000E15810F089FC48190A2800DC76E08628BB
:1094800000DD75E012F072FEB8235B00E0502C3B6B
:10949000E3589846A4235B00E558083BE3589A46F6
:1094A000002B01DC01239A46534680205900514489
:1094B000C900400410F068FC4346E060A360002D42
:1094C00000DC0125802069004919C900400410F022
:1094D0005BFC0023A3610133237760610EF040F948
:1094E00006004046FA2250440F000023920000215B
:1094F000401912F0B5FD801979410B00802102005E
:1095000009068B4202D301221A4B5242E362A02386
:109510005B00E5580433E358A262ED18A4235B0016
:10952000E358ED180EF01CF9FA2206000F00002394
:1095300092002800002112F093FD801979410B0060
:109540008021020009068B4202D30122094B5242BC
:109550006363A62322634A465B00E2500022143B69
:10956000E250E0BCBA46B146A846F0BD02488BE7DF
:10957000862087E7FFFFFF7F00002041F0B5B22380
:10958000D6464F4646465B00C0B5C55804008946DE
:1095900020F002F9B4235B00E15810F0F5FB481904
:1095A0000A2800DC76E0862800DD75E012F0DEFD9A
:1095B000B8235B00E0502C3BE3589846A4235B00A3
:1095C000E558083BE3589A46002B01DC01239A46F4
:1095D0005346802059005144C900400410F0D4FB88
:1095E0004346E060A360002D00DC01258020690077
:1095F0004919C900400410F0C7FB0023A3610133DF
:10960000237760610EF0ACF806004046FA22504421
:109610000F00002392000021401912F021FD801953
:1096200079410B008021020009068B4202D30122FE
:109630001A4B5242E362A0235B00E5580433E3581F
:10964000A262ED18A4235B00E358ED180EF088F831
:10965000FA2206000F00002392002800002112F0D9
:10966000FFFC801979410B008021020009068B4222
:1096700002D30122094B52426363A62322634A4666
:109680005B00E2500022143BE250E0BCBA46B14617
:10969000A846F0BD02488BE7862087E7FFFFFF7FE3
:1096A00000002041F0B5C64600B5037D04000D0062
:1096B0001600002B13D0C7680021381C12F04CFD97
:1096C0000021002844D0306812F03EFD002806D06A
:1096D00080231B069C4600236744E7602375A1682E
:1096E000286812F0DDFC2860A76880460021381C3D
:1096F00012F01CFD00284AD10021381C12F02CFD6C
:1097000000280AD0206912F031FD071C011C4046D8
:1097100012F022FD002800D02F60E168306812F0BE
:10972000BFFC3060E468051C0021201C12F014FD11
:10973000002819D01D4B0A20185E12F017FD011CDD
:10974000281C12F001FD431E984180BCB846F0BDB4
:10975000381C12F0EBFC0028C1D00021306812F058
:10976000EBFC0028BBD0B3E70021201C12F0DEFC8C
:10977000002818D00D4B0A20185E404212F0F6FC6B
:10978000011C281C12F0D8FC431E9841DDE720691B
:1097900012F0ECFC071C011C404612F0C7FC00282C
:1097A000BBD02F60B9E70020CFE7C0463C150020B2
:1097B000F8B5CE464746804680B518001600894663
:1097C00010F0FAFD4C4B04000A20185E0D0010F05A
:1097D000F3FD02000B0010F04FFD0022474B10F08C
:1097E00072FD2B00220010F050FD10F045FE4346A4
:1097F000D860071C0021306812F0AEFC002805D0AC
:1098000080231B069C4643466744DF60089B9C46BA
:109810005800604440000F3012F0A8FC3849061C84
:1098200012F084FC002863D03649301C12F094FCFE
:1098300000285FD043465E601FF0AEFFC3179B0D4C
:10984000C0188005800DC01A10F0B6FD00222E4B06
:1098500010F039FD00222D4B10F035FD00222A4B6F
:1098600010F00AFD4346060058680F0012F006FD8E
:1098700002000B003000390010F025FD10F0B4FD9F
:1098800006001FF089FFC00700D576424B461F68CF
:10989000300012F06BFC391C12F002FC12F088FC54
:1098A000B4235B0098421FDD18004346186112F094
:1098B0005DFC391C12F0F1FB154912F008FC12F0A6
:1098C000DDFC02000B0010F0D7FC2B00220010F092
:1098D000DCFC10F0D1FD434642469860012313752D
:1098E000C0BCB946B046F8BDC343DB171840DCE73F
:1098F000034E9FE7034E9DE73C15002000002440E7
:1099000000009642000070410000E03F0000503F20
:1099100000002041F0B5DE4657464E464546E0B5CC
:1099200083B00190002876D0019BDB689946002B1C
:1099300068D04B46DB689A46002B59D05346DB680B
:109940009B46002B4AD05B46DC68002C32D0E56891
:10995000002D1DD0EB689846002B22D04346DE68D0
:10996000002E31D0F768002F09D0F868FFF7D2FF3A
:109970003800BF68142112F08FFE002FF5D1B768B0
:109980001421300012F088FE002F1DD03E00E9E7C0
:10999000A5681421200012F07FFE002D0AD02C00B3
:1099A000D5E7AE681421280012F076FE002EEFD025
:1099B0003500CFE75B469C681421584612F06CFED8
:1099C000002C0BD0A346BEE743469E6814214046B8
:1099D00012F062FE002EE4D0B046BFE753469C680A
:1099E0001421504612F058FE002C01D0A246A5E7E3
:1099F0004B469C681421484612F04EFE002C01D0C4
:109A0000A14696E701981421846812F045FE002CC7
:109A100001D0019488E703B0F0BCBB46B246A9462A
:109A2000A046F0BD0A4B70B5036003009C339C68F0
:109A30000500002C09D0E068FFF76CFF2000A46847
:109A4000142112F029FE002CF5D1280070BDC0466B
:109A5000B4B902100C4B70B5036003009C339C68D2
:109A60000500002C09D0E068FFF754FF2000A4682F
:109A7000142112F011FE002CF5D12800B82112F0AB
:109A80000BFE280070BDC046B4B90210F0B5DE462A
:109A90004E4645465746E0B5D226D423804676004A
:109AA00087595B0089B0C058391C12F0F6FA12F0E1
:109AB000E5FBD62342465B000400D0580D0012F0AF
:109AC000DDFB02000B000020B94910F0CCFB0200C6
:109AD0000B002000290010F0F6FB0400381C0D00DC
:109AE00012F0CCFB02000B002000290010F0C4FB98
:109AF00010F0C2FC43469851D82342465B00D75829
:109B00008146381C12F0BAFBAA4AAB4B04000D0088
:109B100010F0D9FB0022A64B10F0AEFB10F0ACFC0D
:109B20000290484612F044FB12F020FB8221C90546
:109B300012F0CDFA12F03CFB8721C90010F024F995
:109B4000FF209E4E89008B59DA171040C018001272
:109B500012F00CFB061C12F091FB994A994B10F085
:109B6000FDFB002811D00021381C12F0DFFA00287C
:109B700000D089E020002900914A924B10F0EEFBC2
:109B8000002800D080E0904E15E09049301C12F083
:109B90009EFA8F4912F087FA0021061C381C12F039
:109BA000C5FA00285AD120002900854A854B10F0BB
:109BB000D5FB002852D1391C301C12F074FAFE215A
:109BC0008905041C12F0C8FA002847D1FE20211C88
:109BD000800512F062FA8023071C1B06C018391C8E
:109BE00012F075FA211C8346201C12F059FA7949AB
:109BF0000390301C12F0A8FA002805D07649301CDA
:109C000012F09AFA002849D10020391C12F05FFAAC
:109C1000C4235A465B00994643449A469860DA60EA
:109C2000391C051C301C12F052FA211C12F038FAB3
:109C3000039912F04CFA029912F049FA534618614E
:109C4000BE2342465B00D35C041C002B5AD109B0F2
:109C5000F0BCBB46B246A946A046F0BD8023DB055A
:109C600003938023FE241B065A49301C9B46002781
:109C7000A40512F069FA0028C6D05749301C12F02A
:109C80005BFA0028C0D009E08023DB050393802322
:109C9000FE241B069B4600274B4EA405311C301C9E
:109CA00012F015FA011C051C12F011FA8146011C74
:109CB000281C12F00CFA494912F009FA4849824668
:109CC000484612F004FA011C504612F0E9F912F06D
:109CD000D5FA04900591281C12F0D0FA0022414BCD
:109CE00010F0F1FA02000B000498059910F0BBFA8D
:109CF00000222F4B10F0C0FA10F0BEFB011C12F036
:109D0000CFF982E78B21281CC90512F0E0F912F087
:109D10008DFA04918B210390C905584612F0D7F9AA
:109D200012F084FA079188210690C905201C12F0D0
:109D3000CEF912F03DFA43464A46834698585346B8
:109D40005D68AC2344465B00434458340293039A55
:109D5000049BC11712F084F9069A06000F00280030
:109D6000079BE91712F07CF980197941CB171B0585
:109D70001B0D009300230193009A019B8018594109
:109D80000A05030B13435A462068C0184243D317F1
:109D9000DB05DB0D9B185B1208C44A4643469D5801
:109DA00053465D6043469850029B9C42CFD14EE79C
:109DB0000000F03F9A9999999999B93FC0A2002063
:109DC000FCA9F1D24D62503F9D922B3BD00FC94070
:109DD0000080BB46D00FC9BFD00FC93F610BB6BAD8
:109DE000ABAA2A3D0000E03FF0B54546DE465746A7
:109DF0004E46E0B5A6256D00435980468BB0002B3A
:109E000000D080E03833434407939C235B004344F5
:109E10009B46B626434676009F59B82342465B00D0
:109E2000D058391C12F039F912F028FABA234246F8
:109E30005B000400D0580D0012F020FA02000B0065
:109E40000020C44910F00FFA02000B002000290086
:109E500010F039FA0400381C0D0012F00FFA02005D
:109E60000B002000290010F007FA10F005FB434614
:109E70009851BC2342465B00D5588146281C12F0FD
:109E8000FDF9B54AB54B06000F0010F01CFA002290
:109E9000B04B10F0F1F910F0EFFA0390484612F0D1
:109EA00087F912F063F98221C90512F010F912F056
:109EB0007FF98721C9000FF067FFFF20A84C8900B8
:109EC0000B59DA171040C018001212F04FF9041C99
:109ED00012F0D4F9A34AA44B10F040FA002827D07E
:109EE0000021281C12F022F9002800D0F0E03000F8
:109EF00039009C4A9C4B10F031FA002800D0E7E072
:109F00009A4B02932CE0382343441C0007939C2374
:109F10005B0043441F001FF03FFC43465E59710045
:109F20000FF032FF891B02C4A742F4D1BB4670E791
:109F30008F49201C12F0CBF88E4912F0B4F80021A2
:109F40000290281C12F0F2F8002800D0A5E03000A2
:109F50003900844A844B10F001FA002800D09CE0BC
:109F6000291C029812F09FF8FE218905071C12F0A7
:109F7000F3F8002800D090E0FE20391C800512F094
:109F80008CF88023061C1B06C018311C12F09FF8A9
:109F90008B21C905041C12F09AF812F047F90590BC
:109FA0000691381C391C12F07BF8029D049072490E
:109FB000281C12F0C9F8002806D07049281C12F09D
:109FC000BBF8002800D090E00021301C12F07FF890
:109FD000A8235B00994643449A469860DC60051CC0
:109FE000311C029812F073F8391C12F059F80499D8
:109FF00012F06DF8039912F06AF853468B2118613C
:10A00000041CC905281C12F062F812F00FF9049123
:10A0100088210390C905201C12F059F812F0C8F8E5
:10A0200043464A46029098585346079C5D68039AF7
:10A03000049BC11712F014F8059A06000F002800BF
:10A04000069BE91712F00CF880197941CB171B0514
:10A050001B0D009300230193009A019B8018594126
:10A060000A05030B20681343029AC0184243D31712
:10A07000DB05DB0D9B185B1208C44A4643469D581E
:10A0800053465D6043469850A345D0D10BB0F0BC19
:10A09000BB46B246A946A046F0BD8023DB0580241E
:10A0A000FE2704930023029D3349281C00260593B4
:10A0B00006932406BF0512F047F8002800D183E775
:10A0C0002E49281C12F038F8002800D17CE70CE05B
:10A0D000264B802402938023DB05FE270493002374
:10A0E0000026059306932406BF050299081C11F06B
:10A0F000EEFF011C814611F0EAFF011C8246484632
:10A1000011F0E5FF1E4911F0E2FF1E49051C504603
:10A1100011F0DDFF011C281C11F0C2FF12F0AEF897
:10A1200008900991484612F0A9F80022164B10F049
:10A13000CAF802000B000898099910F094F8002260
:10A14000044B10F099F810F097F9011C11F0A8FFDA
:10A15000011C3AE70000F03F9A9999999999C93FF3
:10A16000C0A20020FCA9F1D24D62503F9D922B3B32
:10A17000D00FC9400080BB46D00FC9BFD00FC93F28
:10A18000610BB6BAABAA2A3D0000E03FF0B54546E8
:10A19000DE4657464E46E0B5A6256D00435980463B
:10A1A0008BB0002B00D080E03833434407939C23CE
:10A1B0005B0043449B46B626434676009F59B8232E
:10A1C00042465B00D058391C11F067FF12F056F878
:10A1D000BA2342465B000400D0580D0012F04EF83E
:10A1E00002000B000020C44910F03DF802000B00F3
:10A1F0002000290010F067F80400381C0D0012F050
:10A200003DF802000B002000290010F035F810F096
:10A2100033F943469851BC2342465B00D5588146EA
:10A22000281C12F02BF8B54AB54B06000F0010F0B1
:10A230004AF80022B04B10F01FF810F01DF90390FF
:10A24000484611F0B5FF11F091FF8221C90511F0C8
:10A250003EFF11F0ADFF8721C9000FF095FDFF20F3
:10A26000A84C89000B59DA171040C018001211F0E1
:10A270007DFF041C12F002F8A34AA44B10F06EF804
:10A28000002827D00021281C11F050FF002800D002
:10A29000F0E0300039009C4A9C4B10F05FF8002839
:10A2A00000D0E7E09A4B02932CE0382343441C0093
:10A2B00007939C235B0043441F001FF06DFA434645
:10A2C0005E5971000FF060FD891B02C4A742F4D1F2
:10A2D000BB4670E78F49201C11F0F9FE8E4911F042
:10A2E000E2FE00210290281C11F020FF002800D07F
:10A2F000A5E030003900844A844B10F02FF8002884
:10A3000000D09CE0291C029811F0CDFEFE218905A9
:10A31000071C11F021FF002800D090E0FE20391C1E
:10A32000800511F0BAFE8023061C1B06C018311CE4
:10A3300011F0CDFE8B21C905041C11F0C8FE11F0EF
:10A3400075FF05900691381C391C11F0A9FE029D7D
:10A3500004907249281C11F0F7FE002806D07049BD
:10A36000281C11F0E9FE002800D090E00021301CEC
:10A3700011F0ADFEA8235B00994643449A469860CD
:10A38000DC60051C311C029811F0A1FE391C11F093
:10A3900087FE049911F09BFE039911F098FE534635
:10A3A0008B211861041CC905281C11F090FE11F0C6
:10A3B0003DFF049188210390C905201C11F087FE00
:10A3C00011F0F6FE43464A46029098585346079CC1
:10A3D0005D68039A049BC11711F042FE059A0600BE
:10A3E0000F002800069BE91711F03AFE8019794109
:10A3F000CB171B051B0D009300230193009A019BB3
:10A40000801859410A05030B20681343029AC018AB
:10A410004243D317DB05DB0D9B185B1208C44A4689
:10A4200043469D5853465D6043469850A345D0D15E
:10A430000BB0F0BCBB46B246A946A046F0BD802397
:10A44000DB058024FE2704930023029D3349281C4A
:10A450000026059306932406BF0511F075FE00281B
:10A4600000D183E72E49281C11F066FE002800D198
:10A470007CE70CE0264B802402938023DB05FE273B
:10A48000049300230026059306932406BF05029932
:10A49000081C11F01CFE011C814611F018FE011C65
:10A4A0008246484611F013FE1E4911F010FE1E4967
:10A4B000051C504611F00BFE011C281C11F0F0FD8C
:10A4C00011F0DCFE08900991484611F0D7FE0022F9
:10A4D000164B0FF0F8FE02000B00089809990FF0D8
:10A4E000C2FE0022044B0FF0C7FE0FF0C5FF011C97
:10A4F00011F0D6FD011C3AE70000F03F9A999999B6
:10A500009999C93FC0A20020FCA9F1D24D62503FE9
:10A510009D922B3BD00FC9400080BB46D00FC9BFD6
:10A52000D00FC93F610BB6BAABAA2A3D0000E03F8D
:10A53000F8B5CE464746140080B58146383009F05C
:10A54000F9FA264D210028000BF0B2FE244B2F0013
:10A5500098468026022302210024A844AB611C37C0
:10A56000760002E042461F4BD158E2B22800C9B241
:10A570000BF0FEFE431E984138550134B442F1D130
:10A58000194B00211C68236820005B6898472368EA
:10A5900000221B6815492000984701234A46494676
:10A5A0001370134A8B5400230B61124B1A685B68BB
:10A5B0000A624B628A61CB618A62CB620B6B002BB1
:10A5C00008D00D480021484406F0D2FAC0BCB94674
:10A5D000B046F8BD094B0B63F3E7C046F096002088
:10A5E0008087FFFF9878000030BA021000003443E3
:10A5F00078780000A0BD021048780000901C002070
:10A600000F4B70B51D6804002B68280000215B68A3
:10A6100098472B68280000221B680A4998470123A5
:10A62000094A2370A35400232361084B1A685B680E
:10A6300022626362A261E361A262E36270BDC0460E
:10A6400030BA02100000344378780000A0BD021038
:10A65000002310B50370034B0021186803685B6882
:10A66000984710BD30BA0210052303707047C046EA
:10A67000F0B5D6464F4646460378C0B5052B33D0D5
:10A68000032B45D09621254F49003A88161C8A4253
:10A690002FD8B6B2012B30D0002E25D0204B00256C
:10A6A0009946204B002498461F4B9A4606E0514697
:10A6B00069350134D150FF35A64215DD310028003F
:10A6C0000FF062FB0223F95E0F22411A484608F0A0
:10A6D000B3FC4246A30012680028E8D16935013472
:10A6E000D050FF35A642E9DCE0BCBA46B146A846E8
:10A6F000F0BD0E1CB6B2012BCED10C4BC3185B685B
:10A70000002BC9D10A4B9C46604406F03BFAEBE7AC
:10A71000006B03689B699847E6E7C0463C1500203C
:10A720001098002060150020000A0AFFA0790000A0
:10A730004878000070B506000D00140012F01CFAF5
:10A74000012809D0022800D070BD013C0648E2B2C1
:10A75000691C0BF0ADFEF7E73000013CE2B2691C6A
:10A7600038300BF03BF9EFE7F0960020F0B5574694
:10A770004546DE464E46E0B5076846689246F21BFF
:10A7800092109B4693009B180D0019015B1819024B
:10A790005B1819045B185B009B183A4A804683B02B
:10A7A00093426BD0E91B0191B74259D059008B42BB
:10A7B0004BD8002957D100230C24994601935A46BF
:10A7C000504611680C9A00681268EB1B4B4407C393
:10A7D000AF4212D04A463B0013CB13C2AB42FBD16F
:10A7E0002A000C3A284BD21B920853439B009A082C
:10A7F0005C08A418A40018344C44AE4210D0761B58
:10A80000214B0C3EB60873439B009B0801335E004E
:10A81000F618B60020003200290011F02FFFA4190D
:10A82000002F05D0434699683800C91B11F034FF4A
:10A8300043464A461A60019A5C609A6003B0F0BCD5
:10A84000BB46B246A946A046F0BD104C200011F010
:10A850001BFF2300814604004B4401930C34AEE7F8
:10A86000591C0133F1D2914203D84B005B189C0074
:10A87000ECE711004B005B189C00E7E7044815F07B
:10A880007BFCC046AAAAAA0AABAAAA2AF8FFFF7FA5
:10A89000ACA80210F8B54546DE4657464E4603685A
:10A8A000E0B5934646682F4A984605000F00F31A14
:10A8B000934253D04146791A8A46002B44D09146A0
:10A8C0005900994243D2484611F0DEFE5B4652469B
:10A8D0001B7804008354012353449B46F61B002A33
:10A8E00027DC8344002E0DDC43465E44002B19D147
:10A8F0002C604C446E60AC60F0BCBB46B246A946CE
:10A90000A046F8BD32003900584611F0B7FE434664
:10A910005E44002BECD005E032003900584611F0BF
:10A92000ADFE5E444346A968C91A404611F0B4FE24
:10A93000DEE741461EF08AFCA344002EECDC4346D1
:10A94000A9685E44C91AF0E701239946BBE7802352
:10A9500089461B069942B6D39146B4E7024815F0E2
:10A960000BFCC046FFFFFF7FACA80210F8B54546C0
:10A97000DE4657464E460368E0B5934646682F4A82
:10A98000984605000F00F31A934253D04146791AB6
:10A990008A46002B44D091465900994243D24846FA
:10A9A00011F072FE5B4652461B780400835401236B
:10A9B00053449B46F61B002A27DC8344002E0DDC03
:10A9C00043465E44002B19D12C604C446E60AC6051
:10A9D000F0BCBB46B246A946A046F8BD32003900DD
:10A9E000584611F04BFE43465E44002BECD005E088
:10A9F00032003900584611F041FE5E444346A968D2
:10AA0000C91A404611F048FEDEE741461EF01EFC22
:10AA1000A344002EECDC4346A9685E44C91AF0E763
:10AA200001239946BBE7802389461B069942B6D38A
:10AA30009146B4E7024815F09FFBC046FFFFFF7F39
:10AA4000ACA80210F0B5DE46454657464E46E0B586
:10AA50009DB005001EF0A0FE0C210FF095F98B1F94
:10AA60009846EB239B00EC184346012723665D23A1
:10AA7000E7541EF091FE3B00C20F801803409B1A62
:10AA8000F12201339200AB5482238E4ADB00EA505C
:10AA90001EF082FE03210FF077F980230231DB00E4
:10AAA000E9501EF079FE23210FF06EF9864B1E311E
:10AAB000E9502B0026004546002798461EF06CFE04
:10AAC000C3179B0DC0188005800DC01A11F04EFBF6
:10AAD0008121C90511F0FBFAEA21890511F0F7FA85
:10AAE0008121C90511F0DCFA81461EF055FEC3171D
:10AAF0009B0DC0188005800DC01A11F037FB7349FB
:10AB000011F0E5FAEA21890511F0E1FA9421824673
:10AB1000C905484611F0DBFA6D4911F0C4FA11F08D
:10AB200079FBFE216B4B8905E052504611F0FEFA8D
:10AB3000002800D0B5E0FA208000674BD136E05203
:10AB40001EF02AFEC3179B0DC0188005800DC01A89
:10AB500011F00CFBEA21890511F0B9FA8146011CBC
:10AB600011F0B5FA494611F0B2FA11F087FB002254
:10AB70005A4B0FF0A8FB0FF037FC20601EF00CFEC4
:10AB8000FA2149000FF000F9C83161601EF004FE9F
:10AB9000C3179B0DC0188005800DC01A11F0E6FA8E
:10ABA000EA21890511F093FA011C11F090FA11F0D5
:10ABB00065FB00224A4B0FF086FB0FF015FCA060EE
:10ABC0001EF0EAFDC3179B0DC0188005800DC01A4A
:10ABD00011F0CCFA434911F07AFAEA21890511F013
:10ABE00076FAE0601EF0D8FD18210FF0CDF80F3195
:10ABF000A1631EF0D1FD24210FF0C6F80131E163FD
:10AC00001EF0CAFD14210FF0BFF808000FF0D4FBAE
:10AC10000022354B0FF030FB0FF02EFCE0641EF0ED
:10AC2000BBFDC3179B0DC0188005800DC01A11F025
:10AC30009DFA2E4911F04BFAEA21890511F047FAE5
:10AC400011F01CFB2A4A2B4B0FF016FB0FF014FCE3
:10AC50000137A064FF36042F52D000225D233566F1
:10AC6000F2541EF099FD03210FF08EF831761EF09C
:10AC700093FD032303405A4253415C22B3541EF018
:10AC80008BFD03210FF080F8043171651EF084FD07
:10AC900028210FF079F8184B0A313400B16573663A
:10ACA0000CE70021504611F057FA002801D100F0BE
:10ACB000EEFC1249504611F00AFA11F0ABFA80B2DC
:10ACC0003BE7C046F82A000004040000CDCC4C3E0F
:10ACD0000080BB46A4FEFFFFA2FEFFFF000049402C
:10ACE00000008940E820553F0000F03FE2AE5E3FA3
:10ACF0009A9999999999B93F8813000000007A446C
:10AD0000E0231B019C46D94BC44464469C46C44482
:10AD1000664645460D940B96206903681B69984763
:10AD200023686268934200D063601434B442F3D164
:10AD30001EF032FD64210FF027F8042000220D9E42
:10AD40000B001691B468716818901792A14201D156
:10AD500000F0FAFC8B6008604A6017AB0C31716040
:10AD6000039318AC1EF018FD1E210FF00DF80420FF
:10AD700001220D9F0B001691BE68796818901792FA
:10AD8000B14201D100F0EDFC08604A608B600C31EB
:10AD900079601EF001FD64210EF0F6FF042002220E
:10ADA0000D9F0B001691BE68796818901792B142FA
:10ADB00001D100F081FC08604A608B600C31796041
:10ADC0001EF0EAFC64210EF0DFFF042003220D9F39
:10ADD0000B001691BE68796818901792B14201D1A4
:10ADE00000F073FC08604A608B600C3179601EF0E3
:10ADF000D3FC0F210EF0C8FF0D9B053119731EF017
:10AE0000CBFC50210EF0C0FF082004220B0016914D
:10AE1000974918906F187968BE681792B14201D1AE
:10AE200000F05CFC08604A608B600C3179601EF0B9
:10AE3000B3FC14210EF0A8FF012000220B00169194
:10AE4000BE68796818901792B14201D100F04FFCAA
:10AE500008604A608B600C3179601EF09DFC2821EF
:10AE60000EF092FF283139731EF096FC64210EF02B
:10AE70008BFF10220023884616917E4918926E1887
:10AE80007168B0681793814201D100F039FC4B60C2
:10AE900043460A608B600C3171601EF07DFC01231B
:10AEA000424683435B421340082000227168B76822
:10AEB000189017921693B94201D100F02AFC08604D
:10AEC0004A608B600C3171601EF066FC0323034006
:10AED0005A42534142465B421340042000227168AB
:10AEE000B768189017921693B94201D100F01AFC76
:10AEF00008604A608B600C3171601EF04DFC0027C9
:10AF0000800704D10A2140460EF03EFF07000122CF
:10AF100000237168B068189217931697814201D187
:10AF200000F009FC0A604B608F600C3171601EF00C
:10AF300033FC32210EF028FF3C3131731EF02CFC23
:10AF400006001EF029FCFA210700490130000EF02E
:10AF50001BFF8BB2FA21484A5B08AA1813803800FD
:10AF600089010EF011FF454BEB1819801EF014FCFF
:10AF700005210EF009FF0800022900DD8DE3032101
:10AF80000EF02AFF3E4A4B0094465B1811009B00CE
:10AF9000634410938A2292009446AC4462460E9217
:10AFA000384A394B0F92394A079511928022D200C4
:10AFB0009446AC4462461492B42212019446AC44C6
:10AFC000624615958A461D0027000C930A920F9839
:10AFD00014F03CFD002800D089E2079B0C9A1198E0
:10AFE0009A6514F033FD002800D0F8E2079B109A10
:10AFF00099465A655346149E1293139500230024D4
:10B0000018931994BB601EF0C7FB06210EF0BCFE1E
:10B010004B425941092249429143103105911EF09A
:10B02000BBFB06210EF0B0FE002901D108230593D9
:10B030001EF0B2FB06210EF0A7FE002901D10C2361
:10B0400005931EF0A9FB06210EF09EFE002901D1FA
:10B0500004230593002304934B4600250893079B84
:10B06000BB460024B2462F00984645E03C0E000047
:10B07000140E0000280E000044720000467200000A
:10B080001CCC002098A20020D4CB00209CA2002041
:10B09000434642465B6D926D1D6859681268491BB4
:10B0A00010780EF071FE43006D5C1B189B00ED18CC
:10B0B0001EF072FB06210EF067FE002900D1073555
:10B0C0001EF06AFB06210EF05FFE002900D10C3550
:10B0D00053460C221B6853430233039A5B195BB23D
:10B0E0001370049AA2426BD023705B4601345C60FB
:10B0F000059B01379F4270D01EF04EFB64210EF07D
:10B1000043FE53465B68994200DAA2E153465B7AFC
:10B11000002BBDD11EF040FBFA2189000EF034FE59
:10B1200008000FF049F90022D34B0FF0AEF80FF0F2
:10B13000A3F9011C10F0CBFF11F0A0F80022CF4BB7
:10B140000FF0C1F80FF050F9013011F00FF8061CA4
:10B150001EF022FBC00703D480231B069C466644D6
:10B16000280011F003F8311C10F09AFF11F020F8BC
:10B1700005000E2800DC21E143460E255B6DBA0771
:10B1800000D123E15246127A002A00D01EE11A684B
:10B1900059682800891A06920EF0F6FD420012182E
:10B1A0009200069B5B5C0C219B18524612684A4336
:10B1B00002329B18039A5BB21370049AA24293D195
:10B1C00011005846039AFFF7D1FB5B465C689B6809
:10B1D00001370493059B9F428ED1089B5F46994699
:10B1E0004A46996818683B68546013604B46049A55
:10B1F00056469A60002802D0091A11F04DFA0C2325
:10B200009C46D1360A9BFF36E144B34200D0F5E6B6
:10B210003022129B94469A46139D0597AB4657469B
:10B22000079B634499460D9B04930023002400224E
:10B2300018931994059B90469A604A4606923A00E4
:10B240000026474699469246049B30CBAC4204D137
:10B2500007E10C34A54200D103E1300021680EF073
:10B2600093FD63689942F4D11EF096FA64210EF0C2
:10B270008BFDA3689942ECDA474500D11CE1049BA1
:10B280001B7B5BB23B704B4601375F600136102E73
:10B29000DAD1069B99465346BA461F004B464A46AA
:10B2A00099681868059B1B6813604B4652465A60A4
:10B2B00042469A60002802D0091A11F0EDF90C23D9
:10B2C0009C46049B0B9A1433E14404939342ACD103
:10B2D0000C9A079B0C320C920E9A5C33BA465D4670
:10B2E000059F07939A4200D071E6159D1EF054FA0F
:10B2F0008D239B00EC58EB185A68121B9210930098
:10B300009B1819015B1819025B1819045918490098
:10B3100089180EF061FD4F007F18BF000E9AE719E3
:10B3200097422FD08A2189007B683E6868589268CE
:10B3300088469C1B121AA24200D21BE20E9A526847
:10B340009446121A944200D8ABE1042A00DC2FE2A2
:10B3500031001DF07BFF0E9B3E685B689C464346B8
:10B36000E85863461A1A7B68B1185A1A042A00DC96
:10B370002DE260461DF06AFF8A239B00EB581C19E2
:10B380000E9B5C6091241023A4002B511EF004FA44
:10B39000800701D108232B511EF0FEF906210EF083
:10B3A000F3FC002903D191230C229B00EA501DB02D
:10B3B000F0BCBB46B246A946A046F0BDC343DB176E
:10B3C0001D4043465B6DBA0700D0DBE659681B6839
:10B3D0002800C91A0EF0D8FC89461EF0DDF9434654
:10B3E000C0074DD49B6D1A6858684346596D944602
:10B3F000801A0A680692012800DC4BE109971700C1
:10B4000002000123484689466146A446140002E032
:10B410000133A34264D0CE5CBA5D9042F8DC64464E
:10B420004946099F069A4B6828009B1A99461900BD
:10B430000EF0AAFC4B4658438519494628000EF0E9
:10B44000A3FC420012189200002900DBA9E649443F
:10B45000A7E68023039A1370049AA24200D043E621
:10B46000AEE68023039A1370474530D03B704B46BD
:10B4700001375F600AE7C04600408F400000084087
:10B4800041469A6D496D136852680E68D21A501E73
:10B4900006961E5C0128C5DC0698023A805D9B1862
:10B4A0008145BFDA8C46494606981E78013B825D8D
:10B4B0009142FADB6146B5E7049A390048460C32FE
:10B4C000FFF7E8F94B465F689B689846DEE639006F
:10B4D0004846FFF74BFA4B465F689B689846D5E6AF
:10B4E00064468C4662464946099FD65C9AE700242A
:10B4F00004202C606C60AC6011F0C6F802262200BB
:10B50000047044700434031DC470286086700420E5
:10B51000AB606B60EA602A616A6111F0B5F80121E5
:10B5200000220170417089460231817088460231E3
:10B53000031DC170E86004208B466B612B61AA611A
:10B54000EA612A6211F0A0F806210022031D84702E
:10B55000C170A8610670467004202B62EB616A62BC
:10B56000AA62EA6211F090F84146002201708170EF
:10B570005946031D4270C17068620420EB62AB62E1
:10B580002A636A63AA6311F07FF84946002241707A
:10B590000531031DC17004708470286304201400F9
:10B5A000AB636B63EA632A646A6411F06DF85A4610
:10B5B000031D0270C270E8634470867089486B6432
:10B5C0002B641EF015F80F9814F05CFA079B0C9A88
:10B5D00011989A6514F03AFA002800D106E5002483
:10B5E000534607201C605C609C6011F04DF8534688
:10B5F00052461860C31D93600422022682700132F5
:10B6000051469146C2700232904602710232427136
:10B61000023204704670827107204B60CC600C616E
:10B620004C6111F031F84A4653465146C2704246C9
:10B63000D860C31D4B6103210271013293464271F0
:10B6400002320470467081708271504603618461D9
:10B65000C4610462072011F017F80321534681707A
:10B66000494652469861C170C31D414613620B2280
:10B6700001715946827152460470467041715A48B0
:10B68000D3611DF0B5FF119814F0FCF9AEE4002071
:10B69000FFF753FA63465E78C4E6544B19001093E3
:10B6A00078E4042C00DC8EE0220031001DF0CEFD99
:10B6B0004346EB581C1963E616AB00933800220092
:10B6C000039BFFF753F8FFF77BFB16AB00933800A3
:10B6D0002200039BFFF74AF8FFF789FB16AB0093A4
:10B6E00022003800039BFFF741F8FFF7A0FB16ABE1
:10B6F000009322003800039BFFF738F8FFF7ADFBFB
:10B7000016AB009322003000039BFFF72FF8FFF7E2
:10B71000C4FB16AB009322003000039BFFF726F812
:10B72000FFF7D2FB16AB009322003000039BFFF71C
:10B730001DF8FFF7E2FB16AB009322003000039BDD
:10B74000FFF714F8FFF7F3FB17AB1A00039318ACDD
:10B7500016AB0093300013002200FFF707F8FFF745
:10B7600001FB16AB009338002200039BFEF7FEFF9F
:10B77000FFF70FFB1E4B9C4223D8200010F084FFE4
:10B780000700042C1ADD220031001DF05FFD8A2322
:10B790009B00E858002804D00E9B9968091A10F005
:10B7A0007BFF8A239B00EF500E9B3C199C60E7E5D2
:10B7B000042A00D0D8E531680160D5E5336803601C
:10B7C000E5E714F0B1FC042C08D00419D8E5042AEC
:10B7D000FBD162460B6804191360D1E53368041984
:10B7E0000360CDE5FD900010319100101CCC0020CD
:10B7F000FCFFFF7FF8B54546DE4657464E460368D8
:10B80000E0B5934646682F4A984605000F00F31AA4
:10B81000934253D04146791A8A46002B44D0914630
:10B820005900994243D2484610F02EFF5B465246DB
:10B830001B7804008354012353449B46F61B002AC3
:10B8400027DC8344002E0DDC43465E44002B19D1D7
:10B850002C604C446E60AC60F0BCBB46B246A9465E
:10B86000A046F8BD32003900584610F007FF4346A5
:10B870005E44002BECD005E032003900584610F051
:10B88000FDFE5E444346A968C91A404610F004FF15
:10B89000DEE741461DF0DAFCA344002EECDC434613
:10B8A000A9685E44C91AF0E701239946BBE78023E3
:10B8B00089461B069942B6D39146B4E7024814F074
:10B8C0005BFCC046FFFFFF7FACA80210F0B55746F7
:10B8D0004E46DE464546E0B5FA2681460F009246C2
:10B8E0008BB0B600B14200DA16E3310038000EF03A
:10B8F0004BFA3100040038000EF046FA20000F0029
:10B9000031000EF041FA012903DD52464846FFF7A7
:10B91000DDFF0022002306920793002349463932B7
:10B9200008938A5C06AE002A00D0AAE13A33CB5CC9
:10B93000002B00D045E23B23CB5C002B00D0F3E290
:10B940003C234A46D35C002B00D0ACE2002100240B
:10B950003D234A46D35C002B00D07EE1069E8D1B22
:10B96000A64200D18EE21DF017FFA11B0EF034FAA3
:10B97000745C002E03D02900300010F08DFE4B4681
:10B980001D344846197EE2B20AF0ACFC0023B846EA
:10B99000632F45DD642138000EF0F6F98846C72F85
:10B9A00000DDDDE1002200230692079300234946D3
:10B9B000383208938A5C06AE002A00D0A4E13933FD
:10B9C000CB5C002B00D0EFE13A23CB5C002B00D006
:10B9D000B7E23B234A46D35C002B00D056E2002757
:10B9E00000243C234A46D35C002B00D075E1069E20
:10B9F000BF1BB44200D17FE11DF0CEFEA11B0EF0B3
:10BA0000EBF9745C002E03D03900300010F044FED6
:10BA10004B461C344846197EE2B20AF063FC002310
:10BA200046464D46142E00DCD8E10A2130000EF0C7
:10BA3000ABF90700072800D186E0092800D1E1E032
:10BA400012229346013294468444624600921422A4
:10BA50009446844462460392152294468444624686
:10BA60000192162294468444624643071B1A9B00A7
:10BA70001B1A5B00834402920024F61800230693ED
:10BA8000079406AB98465B460022EB181B7F089292
:10BA9000002B66D1009BEB181B7F002B00D0CBE066
:10BAA000039BEB181B7F002B00D01BE2019BEB18C4
:10BAB0001B7F002B00D065E100210024029BEB18C6
:10BAC0001B7F002B00D086E0069B9846CB1A994638
:10BAD000A04500D14EE11DF05FFE4346E11A0EF095
:10BAE0007BF943465C5C002B03D04946404610F08E
:10BAF000D3FD22005A442800297ED2B20AF0F2FB7C
:10BB0000012E0CD00B2E00D189E00123002E89D10B
:10BB10000BB0F0BCBB46B246A946A046F0BDA94654
:10BB2000082F04D01E222800297E0AF0DBFB4B469A
:10BB3000996953460024002B00D0EFE122004846CB
:10BB4000C9B20AF0CFFBE3E71C230293013B019348
:10BB5000013B0393013B0093013B9B460627543B6B
:10BB60008AE704AA94460723002263441A7000213E
:10BB70001A0040469946FFF73DFE43465C689968C7
:10BB8000009BEB181B7F002B00D070E1039BEB1890
:10BB90001B7F002B09D002234A4613708C4200D130
:10BBA000A9E12370434601345C60019BEB181B7FC5
:10BBB000002B00D182E703234A4613708C4200D148
:10BBC000E9E02370434601345C60029BEB181B7F65
:10BBD000002B00D178E704ABDA1D042313708C42EC
:10BBE00000D191E12370434601345C60069B984686
:10BBF000CB1A9946444500D06DE74946200010F025
:10BC00004BFD7DE71E230293013B0193013B039310
:10BC1000013B0093013B9B4608276A3B2CE7A94662
:10BC2000082F00D0E1E000244B46996922004846E5
:10BC3000C9B20AF057FB6BE704AA94460723634492
:10BC4000994601234A46002113704A464046FFF7B1
:10BC5000D1FD43465C68996898E704ABDA1D04237C
:10BC60001370A14200D180E1237001347460069EFC
:10BC70008D1BA64200D076E62900200010F00CFDB6
:10BC800084E604AAD51D2A0000212B703000FFF79E
:10BC9000B1FD3A234A46D35C7468B168002B00D0EA
:10BCA00017E13B234A46D35C002B07D002232B70BD
:10BCB0008C4200D13DE12370013474603C234A463C
:10BCC000D35C002B00D143E603232B70A14200D1AB
:10BCD000EEE02370013474603AE604ABDA1D04230D
:10BCE0001370BC4200D139E1237001347460069EA8
:10BCF000BF1BB44200D07FE6002C00D18FE6390094
:10BD0000200010F0C9FC8AE604AAD51D2A002B7079
:10BD100000213000FFF76EFD39234A46D35C74687A
:10BD2000B768002B00D0CBE03A234A46D35C002B07
:10BD300007D002232B70BC4200D107E123700134ED
:10BD400074603B234A46D35C002B00D149E60323B1
:10BD50002B70A74200D19EE023700134746040E64E
:10BD6000642138000EF010F8524601004846FFF7F3
:10BD7000ADFD17E6002C00D1C2E64946200010F0C8
:10BD80008BFCBDE604AA944607236344994603232B
:10BD90004A460024137021004A464046FFF72AFD18
:10BDA00043465C68996889E604ABDD1D01230024E5
:10BDB0002B7021002A003000FFF71CFD7468B76863
:10BDC000B2E704ABDD1D012300242B7021002A0003
:10BDD0003000FFF70FFD7468B16862E7A946002ED6
:10BDE00009D1002B00D01EE792E61E222800297EF2
:10BDF0000AF078FA17E73300012E00D197E60133F5
:10BE000000D010E700220023069207930023089336
:10BE10002A7F06AE002A00D0ADE06B7F002B00D059
:10BE2000E2E0AB7F002B00D004E14B46DB7F002B30
:10BE300000D0EAE00021002420234A46D35C002BF6
:10BE400000D0BEE0069D4E1BA54200D1D9E01DF0FA
:10BE5000A3FC611B0DF0C0FF6C5C002D00D1E3E67C
:10BE60003100280010F018FC4B46996966E6012362
:10BE70004A4613708C4200D1E7E6237043460134F2
:10BE80005C6083E6002C00D180E5F5E604ABDD1DA7
:10BE9000032300242B7021002A003000FFF7AAFCA6
:10BEA0007468B7689DE504ABDD1D032300242B7087
:10BEB00021002A003000FFF79DFC7468B16847E557
:10BEC00001232B70A74200D173E723700134746003
:10BED0002AE701232B70A14200D177E723700134B8
:10BEE0007460DEE604AA944607236344994602235D
:10BEF0004A460024137021004A464046FFF77AFC68
:10BF000043465C68996850E621004046FFF772FCA2
:10BF100043465C689968D7E5012338E51F22484607
:10BF2000C9B20AF0DFF9F3E504ABDD1D02230024FA
:10BF30002B7021002A003000FFF75CFC7468B168A8
:10BF4000BCE604ABDD1D022300242B7021002A0077
:10BF50003000FFF74FFC7468B768F2E6210030004C
:10BF6000FFF748FC7468B76841E53000FFF742FC12
:10BF70007468B168F2E404AAD51D00212B702A0070
:10BF80003000FFF737FC4B465B7F7468B168002BCD
:10BF900048D14B469B7F002B06D002232B70A14239
:10BFA0004DD02370013474604B46DB7F002B00D1F1
:10BFB00042E703232B70A1422CD02370013474601C
:10BFC0003AE704ABDA1D042313708C423FD0069D80
:10BFD0002370013474604E1BAC4200D037E731004F
:10BFE000200010F059FB93E504ABDD1D0123002474
:10BFF0002B7021002A003000FFF7FCFB7468B16849
:10C00000C7E7002C00D183E5E9E704ABDD1D03237E
:10C0100000242B7021002A003000FFF7EBFB74682E
:10C02000B16809E701232B70A142E2D023700134EB
:10C030007460AEE704ABDD1D022300242B702100E9
:10C040002A003000FFF7D6FB7468B168ACE7210026
:10C050003000FFF7CFFB7468B168F3E6036AF0B510
:10C06000013B9D05CE464746ED1AAD01ED186D002A
:10C07000ED18D44B80B59C4687B0ED0065440400B4
:10C080001DF08AFB32210DF07FFE002600234919A6
:10C09000E360616026611DF07FFBB42149000DF073
:10C0A00073FE2500080010F061F894235035A0605D
:10C0B000E55067681DF070FB14210DF065FE22004D
:10C0C000CB19210028000C3208310096FCF76AFADF
:10C0D000BD4B00211D682B6828005B689847FF2234
:10C0E0002B6800929F680022002300212800B84797
:10C0F000276A012F2CD0AF21B44D490028000AF047
:10C1000005F91E2363612300012240331A7328239B
:10C110000026A364253BA3626664A6830BF020FB84
:10C1200002230722FF33A387636820636163D91763
:10C130000A40D218A64BD210E81807210023643217
:10C14000009609F039FF07B0C0BCB946B046F0BD53
:10C15000A04DA14B039604960596EB5C002B00D0F6
:10C16000AFE09E4BEB5C002B00D0C5E19C4BEB5C41
:10C17000002B00D039E29B4BEB5C002B00D000E29F
:10C1800000210026984BEB5C002B00D0C5E0039FFC
:10C19000CB1B9846B74200D1C9E11DF0FDFAF11B57
:10C1A0000DF01AFE7E5C002F03D04146380010F0DF
:10C1B00073FA8E4B7336E95C183BF2B2E8180AF05A
:10C1C00091F82B6999464A460023AF18884A039391
:10C1D000BA18127804930593002A00D031E1854BF8
:10C1E000FB181B78002B00D078E1834BFB181B78E1
:10C1F000002B00D0EAE1814B9C4667443B78002B42
:10C2000000D0A0E1002100267D4A4B469446EB1861
:10C2100063441B78002B00D0FEE0039FCB1B9846A5
:10C22000B74200D187E11DF0B7FAF11B0DF0D4FD44
:10C230007E5C002F03D04146380010F02DFA32000A
:10C240006A4B4A44E95C183BD2B2E8180AF04AF853
:10C2500000236C4A039304930593AA5C002A00D040
:10C2600084E0694BEB5C002B00D051E1674BEB5C49
:10C27000002B00D094E1664BEB5C002B00D071E109
:10C2800000210026634BEB5C002B5BD1039FCB1B93
:10C290009846B74200D152E11DF07EFAF11B0DF035
:10C2A0009BFD7E5C002F03D04146380010F0F4F96E
:10C2B0004E4B2D36E95C183BF2B2E8180AF012F842
:10C2C00019E70B236B441E701A00002103A898463F
:10C2D000FFF790FA414B049EEB5C0599002B00D0D0
:10C2E000F4E03F4BEB5C002B08D002234246137076
:10C2F0008E4200D180E1337001360496394BEB5CFD
:10C30000002B00D13EE70323424613708E4200D13A
:10C310003EE133700136049634E70B2204236A446D
:10C3200013708E4200D176E1039F33700136CB1B30
:10C3300098460496BE4200D02FE74146300010F0E8
:10C34000ABF93EE70B2204236A4413708E4200D1FE
:10C350005AE1039F33700136CB1B98460496B742CF
:10C360009AD14146300010F097F9C4E60B226A4496
:10C370000021137003A89046FFF73CFA224B049E5D
:10C38000EB5C0599002B00D097E0204BEB5C002B79
:10C3900008D0022342461370B14200D107E1337046
:10C3A000013604961A4BEB5C002B00D16AE703239D
:10C3B000424613708E4200D1DBE0337001360496A2
:10C3C00060E7C0468813000030BA0210F0960020E3
:10C3D000B887FFFF701E00200F7900001079000061
:10C3E000117900001279000013790000987800009C
:10C3F0009C7800009D7800009E7800009F780000E7
:10C40000A0780000C9780000CA780000CB7800004E
:10C41000CC780000CD7800000B2204236A4413700E
:10C420008E4200D1CBE0039F33700136CB1B984680
:10C430000496B74200D0F6E64146300010F02CF9E1
:10C4400006E70B226A440021137003A89046FFF709
:10C45000D1F9744B049E9C4667443B780599002BA8
:10C4600022D1714A4B469446EB1863441B78002B4B
:10C4700008D00223424613708E4200D1ADE03370E3
:10C4800001360496694A4B469446EB1863441B7880
:10C49000002B00D1B8E60323424613708E4259D0D8
:10C4A000337001360496AFE60123424613708E4284
:10C4B0001BD0337001360496D3E701234246137034
:10C4C000B1422CD03370013604965EE743461F70AC
:10C4D0008E4216D037700136049602E70B236B4468
:10C4E00098460123424600211370424603A8FFF7F5
:10C4F00081F9049E0599B4E70B236B44984600210B
:10C500001F70424603A8FFF775F9049E0599E8E6F7
:10C510000B236B44984601234246002613703100DA
:10C52000424603A8FFF766F9049E05992DE7002E01
:10C5300000D146E601E7002E00D189E67CE7002E17
:10C5400000D1D8E50DE70B236B4498460323424600
:10C55000002613703100424603A8FFF74BF9049EF2
:10C56000059951E60B236B44984603234246002667
:10C5700013703100424603A8FFF73CF9049E059969
:10C5800080E60B236B449846032342460026137033
:10C590003100424603A8FFF72DF9049E0599F1E505
:10C5A0000B236B4498460223424600261370310049
:10C5B000424603A8FFF71EF9049E0599F2E63100F2
:10C5C00003A8FFF717F9049E059926E60B236B4491
:10C5D000984602234246002613703100424603A8C3
:10C5E000FFF708F9049E05994CE70B236B44984626
:10C5F00002234246002613703100424603A8FFF78B
:10C60000F9F8049E059979E6310003A8FFF7F2F8DE
:10C61000049E05993AE6310003A8FFF7EBF8049E63
:10C620000599B4E59D7800009E7800009F78000091
:10C63000036AF0B5013B9D05CE464746ED1AAD01B4
:10C64000ED186D00ED18D94B80B59C4687B0ED0014
:10C65000654404001DF0A0F832210DF095FB002682
:10C6600000234919E360616026611DF095F8B4214B
:10C6700049000DF089FB250008000FF077FD942399
:10C680005035A060E55067681DF086F814210DF064
:10C690007BFB2200CB19210028000C3208310096C8
:10C6A000FBF780FFC24B00211D682B6828005B68E8
:10C6B0009847FF222B6800929F68002200230021E8
:10C6C0002800B847276A012F2CD0AF21B94D490067
:10C6D000280009F01BFE1E23636123000122403362
:10C6E0001A7328230026A364253BA3626664A683ED
:10C6F0000BF036F802230722FF33A3876368206319
:10C700006163D9170A40D218AB4BD210E818072141
:10C7100000236432009609F04FFC07B0C0BCB94654
:10C72000B046F0BDA54DA64B039604960596EB5C6E
:10C73000002B00D0AEE0A34BEB5C002B00D0BAE1A5
:10C74000A14BEB5C002B00D032E2A04BEB5C002B4A
:10C7500000D0F9E1002100269D4BEB5C002B00D0BE
:10C76000C4E0039FCB1B9846BE4200D1BEE11DF042
:10C7700013F8F11B0DF030FB7E5C002F03D0414617
:10C7800038000FF089FF934B7336E95C183BF2B227
:10C79000E81809F0A7FD2B6999464A460023AF180F
:10C7A0008D4A0393BA18127804930593002A00D097
:10C7B00026E18A4BFB181B78002B00D06DE1884BDB
:10C7C000FB181B78002B00D0E3E1864B9C466744A6
:10C7D0003B78002B00D099E100210026824A4B468D
:10C7E0009446EB1863441B78002B00D0C8E0039FED
:10C7F000CB1B9846B74200D180E11CF0CDFFF11B66
:10C800000DF0EAFA7E5C002F03D0414638000FF0AD
:10C8100043FF32006F4B4A44E95C183BD2B2E81840
:10C8200009F060FD0023714A039304930593AA5C09
:10C83000002A7AD16E4BEB5C002B00D047E16D4BA8
:10C84000EB5C002B00D08EE16B4BEB5C002B00D03F
:10C850006BE100210026694BEB5C002B51D1039F5B
:10C86000CB1B9846B74200D14CE11CF095FFF11B61
:10C870000DF0B2FA7E5C002F03D0414638000FF075
:10C880000BFF544B2D36E95C183BF2B2E81809F067
:10C8900029FD1AE70B236B441E701A00002103A820
:10C8A0009846FEF7A7FF474B049EEB5C0599002BCB
:10C8B00000D0EAE0444BEB5C002B08D00223424658
:10C8C00013708E4200D17AE13370013604963F4BEB
:10C8D000EB5C002B00D13FE70323424613708E42EE
:10C8E00000D138E133700136049635E70B2204237A
:10C8F0006A4413708E4200D169E1337001360496A8
:10C900002FE70B2204236A4413708E4200D139E1D1
:10C91000039F33700136CB1B98460496B742A4D1CF
:10C92000414630000FF0B8FECFE60B226A440021EA
:10C93000137003A89046FEF75DFF2D4B049EEB5C41
:10C940000599002B00D08EE02A4BEB5C002B08D021
:10C95000022342461370B14200D10BE1337001361D
:10C960000496254BEB5C002B00D174E70323424671
:10C9700013708E4200D1DFE03370013604966AE70F
:10C980000B2204236A4413708E4200D126E1039FD8
:10C9900033700136CB1B98460496B74200D02CE783
:10C9A000414630000FF078FE3CE7C0468813000097
:10C9B00030BA0210F0960020B887FFFF701E0020EA
:10C9C0000F79000010790000117900001279000041
:10C9D00013790000987800009C7800009D78000092
:10C9E0009E7800009F780000A0780000C9780000C1
:10C9F000CA780000CB780000CC780000CD78000029
:10CA00000B226A440021137003A89046FEF7F2FE41
:10CA1000764B049E9C4667443B780599002B2BD1AE
:10CA2000734A4B469446EB1863441B78002B08D09E
:10CA30000223424613708E4200D1B1E033700136BA
:10CA400004966C4A4B469446EB1863441B78002BC3
:10CA500000D1C3E60323424613708E425DD033708B
:10CA600001360496BAE6012342461370B14235D02E
:10CA700033700136049667E70123424613708E42F5
:10CA800012D0337001360496CAE743461F708E42B7
:10CA900016D03770013604960CE70B236B4498468A
:10CAA0000123424600211370424603A8FEF7A2FE6E
:10CAB000049E0599B4E70B236B44984600211F7030
:10CAC000424603A8FEF796FE049E0599F2E60B2364
:10CAD0006B449846012342460026137031004246BB
:10CAE00003A8FEF787FE049E05992DE7002E00D1CE
:10CAF00051E6190030000FF0CFFD4CE6002E00D1BA
:10CB000090E64DE7002E00D1DFE509E70B236B44EB
:10CB1000984603234246002613703100424603A87C
:10CB2000FEF768FE049E059958E60B236B44984671
:10CB300003234246002613703100424603A8FEF745
:10CB400059FE049E059986E60B236B449846032301
:10CB50004246002613703100424603A8FEF74AFE03
:10CB6000049E0599F8E50B236B4498460223424640
:10CB7000002613703100424603A8FEF73BFE049ED8
:10CB80000599EEE6310003A8FEF734FE049E0599F0
:10CB900065E60B236B449846022342460026137039
:10CBA0003100424603A8FEF725FE049E059948E79A
:10CBB0000B236B4498460223424600261370310033
:10CBC000424603A8FEF716FE049E05997FE6310053
:10CBD00003A8FEF70FFE049E0599C2E5310003A8E5
:10CBE000FEF708FE049E059901E6C0469D78000008
:10CBF0009E7800009F780000F0B5CE46474601239E
:10CC000080B5002603270362973387B04762C6507A
:10CC100004001CF0C1FD32210DF0B6F8D94B26619D
:10CC20009C4600236144E36061601CF0B5FDB421C3
:10CC300049000DF0A9F8250008000FF097FA942399
:10CC40005035A060E550636898461CF0A5FD14219E
:10CC50000DF09AF822000B002100280043440C320A
:10CC600008310096FBF79EFCC74B00211D682B681E
:10CC700028005B689847FF222B6800929B6800227F
:10CC80009846002100232800C047236A9846012BBC
:10CC900035D0AF21BD4E4900300009F037FB1E23CF
:10CCA00063612300012240331A7328230025A36403
:10CCB000253BA3626564A5830AF052FD0223072287
:10CCC000FF33A387636820636163D9170A40D218D2
:10CCD000AF4BD2109C4666443000002307216432DB
:10CCE000009509F069F9002300220B21300000951E
:10CCF00009F062F907B0C0BCB946B046F0BDA54D19
:10CD0000A54B039604960596EB5C002B00D0AEE095
:10CD1000A24BEB5C002B00D0BAE1A14BEB5C002BEB
:10CD200000D031E29F4BEB5C002B00D0FAE10021F8
:10CD300000269D4BEB5C002B00D0C4E0039FCB1B77
:10CD40009846BE4200D1BFE11CF026FDF11B0DF05C
:10CD500043F87E5C002F03D0414638000FF09CFC66
:10CD6000924B7336E95C183BF2B2E81809F0BAFA54
:10CD70002B69984642460023AF188D4A0393BA1890
:10CD8000127804930593002A00D025E1894BFB1803
:10CD90001B78002B00D06DE1874BFB181B78002B14
:10CDA00000D0E2E1854B9C4667443B78002B00D0E5
:10CDB0009AE100210026824A43469446EB186344D8
:10CDC0001B78002B00D0C8E0039FCB1B9946B742CD
:10CDD00000D181E11CF0E0FCF11B0CF0FDFF7E5C5A
:10CDE000002F03D0494638000FF056FC32006F4B3D
:10CDF0004244E95C183BD2B2E81809F073FA002308
:10CE0000704A039304930593AA5C002A7AD16E4B6F
:10CE1000EB5C002B00D048E16C4BEB5C002B00D0AE
:10CE20008DE16B4BEB5C002B00D06CE10021002608
:10CE3000684BEB5C002B51D1039FCB1B9846B7424C
:10CE400000D14DE11CF0A8FCF11B0CF0C5FF7E5C8D
:10CE5000002F03D0414638000FF01EFC534B2D36F7
:10CE6000E95C183BF2B2E81809F03CFA11E70B2331
:10CE70006B441E701A00002103A89946FEF7BAFC05
:10CE8000464B049EEB5C0599002B00D0E9E0444B37
:10CE9000EB5C002B08D002234A4613708E4200D16F
:10CEA00079E13370013604963E4BEB5C002B00D1E8
:10CEB0003FE703234A4613708E4200D137E13370B7
:10CEC0000136049635E70B2204236A4413708E4220
:10CED00000D168E13370013604962FE70B2204235A
:10CEE0006A4413708E4200D138E1039F33700136DB
:10CEF000CB1B98460496B742A4D1414630000FF0B0
:10CF0000CBFBC6E60B226A440021137003A89146AE
:10CF1000FEF770FC2C4B049EEB5C0599002B00D0B7
:10CF20008DE02A4BEB5C002B08D002234A4613709D
:10CF3000B14200D10AE1337001360496244BEB5C18
:10CF4000002B00D174E703234A4613708E4200D1B0
:10CF5000E0E03370013604966AE70B2204236A444A
:10CF600013708E4200D125E1039F33700136CB1B35
:10CF700099460496B74200D02CE7494630000FF09E
:10CF80008BFB3CE78813000030BA0210F0960020BB
:10CF9000B887FFFF701E00200F7900001079000095
:10CFA00011790000127900001379000098780000D0
:10CFB0009C7800009D7800009E7800009F7800001B
:10CFC000A0780000C9780000CA780000CB78000083
:10CFD000CC780000CD7800000B226A440021137049
:10CFE00003A89146FEF706FC764B049E9C466744D8
:10CFF0003B780599002B2BD1734A43469446EB1896
:10D0000063441B78002B08D002234A4613708E42DB
:10D0100000D1B1E03370013604966C4A4346944621
:10D02000EB1863441B78002B00D1C4E603234A4667
:10D0300013708E425FD0337001360496BBE6012335
:10D040004A461370B14237D033700136049668E710
:10D0500001234A4613708E4213D033700136049672
:10D06000CAE74B4642461A708E4217D032700136DC
:10D0700004960CE70B236B44994601234A46002192
:10D0800013704A4603A8FEF7B5FB049E0599B3E763
:10D090000B2342466B44994600211A704A4603A866
:10D0A000FEF7A8FB049E0599F1E60B236B44994615
:10D0B00001234A460026137031004A4603A8FEF7B2
:10D0C00099FB049E05992CE7002E00D150E619002B
:10D0D00030000FF0E1FA4BE6002E00D18FE64CE76E
:10D0E000002E00D1D5E508E70B236B4499460323B6
:10D0F0004A460026137031004A4603A8FEF77AFB21
:10D10000049E059957E60B236B44994603234A4630
:10D110000026137031004A4603A8FEF76BFB049EFD
:10D12000059985E60B236B44994600261F70310054
:10D130004A4603A8FEF75EFB049E0599F9E50B231A
:10D140006B44994602234A460026137031004A4632
:10D1500003A8FEF74FFB049E0599EFE6310003A8F4
:10D16000FEF748FB049E059966E60B236B4499463F
:10D1700002234A460026137031004A4603A8FEF7F0
:10D1800039FB049E059948E70B236B44994602231B
:10D190004A460026137031004A4603A8FEF72AFBD0
:10D1A000049E059980E6310003A8FEF723FB049E48
:10D1B0000599C3E5310003A8FEF71CFB049E059901
:10D1C00002E6C0469D7800009E7800009F7800002F
:10D1D000F0B5CE46474680B50569040087B0002DFE
:10D1E00000D186E00327046BD84A23680770DB6808
:10D1F000934200D052E101230026236297336762F5
:10D20000E6501CF0C9FA32210CF0BEFDD04B26616D
:10D210009C4600236144E36061601CF0BDFAB421C8
:10D2200049000CF0B1FD250008000EF09FFF94238B
:10D230005035A060E550236D1B6898466368994699
:10D240001CF0AAFA14210CF09FFD22000B00210013
:10D2500028000C324B4408310096C047BD4B0021DA
:10D260001D682B6828005B689847FF222B68009296
:10D270009B6800229846002100232800C047236AAB
:10D280009846012B51D0AF21B34E4900300009F030
:10D290003DF81E2363612300012240331A732823C3
:10D2A0000025A364253BA3626564A5830AF058FAB0
:10D2B00002230722FF33A387636820636163D917C2
:10D2C0000A40D218A54BD2109C4666440023072181
:10D2D00030006432009508F06FFE002300220B211D
:10D2E0003000009508F068FE07B0C0BCB946B046F3
:10D2F000F0BD984B00211E68336830005B6898478A
:10D30000336800221B683000954998470123954AED
:10D310002370A354944B25611A685B682262636290
:10D32000A261E361A262E362DEE7904D904B039657
:10D3300004960596EB5C002B00D0DAE08D4BEB5C9D
:10D34000002B00D0ADE08C4BEB5C002B00D036E224
:10D350008A4BEB5C002B00D0F4E100210026884BC7
:10D36000EB5C002B00D082E1039FCB1B9846BE42B2
:10D3700000D1B9E11CF010FAF11B0CF02DFD7E5C20
:10D38000002F03D0414638000FF086F97D4B7336ED
:10D39000E95C183BF2B2E81808F0A4FF2B69984644
:10D3A00042460023AF18784A0393BA1812780493C0
:10D3B0000593002A00D0FBE0744BFB181B78002B70
:10D3C00000D074E1724BFB181B78002B00D0E7E112
:10D3D000704B9C4667443B78002B00D094E10021C1
:10D3E00000266D4A43469446EB1863441B78002B95
:10D3F00000D047E1039FCB1B9946B74200D17FE1A4
:10D400001CF0CAF9F11B0CF0E7FC7E5C002F03D086
:10D41000494638000FF040F932005A4B4244E95C6B
:10D42000183BD2B2E81808F05DFF00235B4A039373
:10D4300004930593AA5C002A00D0EEE0584BEB5C05
:10D44000002B00D041E1574BEB5C002B00D098E162
:10D45000554BEB5C002B00D065E100210026534BBF
:10D46000EB5C002B5DD1039FCB1B9846B74200D1EC
:10D4700042E11CF091F9F11B0CF0AEFC7E5C002F38
:10D4800003D0414638000FF007F93E4B2D36E95CDA
:10D49000183BF2B2E81808F025FFF4E620009847A0
:10D4A00022E70B2342466B44994600211A704A46F4
:10D4B00003A8FEF79FF9049E05992F4BEB5C002B08
:10D4C00008D002234A4613708E4200D17EE13370A9
:10D4D00001360496294BEB5C002B00D13FE7032378
:10D4E0004A4613708E4200D131E133700136049602
:10D4F00035E70B236B441E701A00002103A89946E0
:10D50000FEF778F91B4B049EEB5C0599002BD4D0F9
:10D510004B4642461A708E42C9D03270013604968C
:10D52000CBE70B2204236A4413708E4200D15CE1E6
:10D53000039F33700136CB1B98460496B74298D1AF
:10D54000414630000FF0A8F89DE6C046F9CB001028
:10D550008813000030BA0210F0960020B887FFFF51
:10D560000000344378780000A0BD0210701E002037
:10D570000F79000010790000117900001279000085
:10D5800013790000987800009C7800009D780000D6
:10D590009E7800009F780000A0780000C978000005
:10D5A000CA780000CB780000CC780000CD7800006D
:10D5B0000B226A440021137003A89146FEF71AF962
:10D5C000914B049E9C4667443B780599002B00D004
:10D5D000CEE08E4A43469446EB1863441B78002BFA
:10D5E00008D002234A4613708E4200D1DFE0337028
:10D5F00001360496864A43469446EB1863441B78EA
:10D60000002B00D1EDE603234A4613708E4200D171
:10D6100081E0337001360496E3E60B226A44002170
:10D62000137003A89146FEF7E5F87A4B049EEB5C75
:10D630000599002B00D092E0774BEB5C002B08D0D3
:10D6400002234A461370B14200D1A1E03370013683
:10D650000496724BEB5C002B00D100E703234A4693
:10D6600013708E4266D0337001360496F7E60B22B3
:10D6700004236A4413708E4200D1AFE03370013648
:10D68000049671E60B2204236A4413708E4200D183
:10D69000B2E0039F33700136CB1B99460496B74224
:10D6A00000D0ADE6494630000EF0F6FFBDE60B2394
:10D6B0006B44994601234A46002113704A4603A849
:10D6C000FEF798F8049E059983E70B236B4499466F
:10D6D00001234A460026137031004A4603A8FEF78C
:10D6E00089F8049E0599A7E7002E00D156E6190097
:10D6F00030000EF0D1FF51E6002E00D1C3E51FE748
:10D70000002E00D191E6CDE70B236B44994603230D
:10D710004A460026137031004A4603A8FEF76AF80D
:10D72000049E05995DE60B236B44994603234A4604
:10D730000026137031004A4603A8FEF75BF8049EEA
:10D7400005998CE60B236B44994600261F70310027
:10D750004A4603A8FEF74EF8049E0599FFE501230B
:10D760004A461370B142B7D033700136049663E76E
:10D7700001234A4613708E42A0D0337001360496BE
:10D7800027E70B236B44994602234A460026137071
:10D7900031004A4603A8FEF72DF8049E059958E784
:10D7A0000B236B44994602234A460026137031002E
:10D7B0004A4603A8FEF71EF8049E05991AE70B23B4
:10D7C0006B44994602234A460026137031004A46AC
:10D7D00003A8FEF70FF8049E05997BE6310003A825
:10D7E000FEF708F8049E0599BEE5310003A8FEF790
:10D7F00001F8049E059936E6310003A8FDF7FAFF0B
:10D80000049E0599F6E5C0469D7800009E780000CC
:10D810009F780000CA780000CB780000CC78000028
:10D82000F0B5CE46474680B5C74BC268596A04007A
:10D83000856887B0002091423DD39B6AAB423FD3BD
:10D8400009F08EFF0023C14A801859410B00802146
:10D85000020009068B4202D30122BD4B5242BD4F4A
:10D86000A2603800E36008F095FDBB4BBB4EE518A5
:10D87000280005F077FBA35D002B3BD12678032E13
:10D8800000D19BE01FD8012E3BD0022E12D16B6835
:10D89000002B00D098E0AC4BE16A5A6AA06A914232
:10D8A00000D9CDE09B6A834202D2914200D1C7E009
:10D8B00001232370012007B0C0BCB946B046F0BDBB
:10D8C0009142BDD1F7E7042EF4D1380008F034FDC1
:10D8D0000028EFD12569002D00D165E10323206BDD
:10D8E000237003689E4A1B6993426AD1FEF7A0FE2B
:10D8F0000120E0E7380008F01FFD0028DAD1A0552C
:10D90000BCE76B68002BD5D002AB00219846002005
:10D91000002302900391414602228B60F221914D37
:10D920002270C901695C002900D070E18E4BEB5C6C
:10D93000002B00D097E18D4BEB5C002B00D0FDE17C
:10D940008B4BEB5C002B00D09FE100210027894B23
:10D95000EB5C002B00D044E1029E8B1B9846BE423C
:10D9600000D18EE11BF018FFB91B0CF035FA775C83
:10D97000002E03D0414630000EF08EFE7E4B643701
:10D98000E95C183BFAB2E81808F0ACFC7B4B1A686B
:10D990005B68A262E36209F0E3FE0023784A801824
:10D9A00059410B008021020009068B4202D301225B
:10D9B000674B52420120226263627CE7206B03685E
:10D9C0005B699847012076E709F0CAFE00236D4A9B
:10D9D000801859410B008021020009068B4202D3B6
:10D9E00001225B4B5242E3626B68A262002B00D1C2
:10D9F00051E72269934227D1534BE1695A6AA069E2
:10DA0000914200D956E79B6A834202D2914200D1EB
:10DA100050E7380008F090FC002800D04AE7206B5F
:10DA2000042203689968584B994200D0E0E12369C9
:10DA3000934200DD42E12000FFF7CAFB01203AE7F4
:10DA40002369002B00D135E7380008F075FC002869
:10DA500004D02369002BCFD101202CE709F080FEF0
:10DA600000234A4A801859410B0080210200090610
:10DA70008B4202D30122364B5242E3616B68A261B2
:10DA80002361314B616A5A6A206A914254D89B6A79
:10DA9000834201D291424FD000220023029203938D
:10DAA00002AB9846002342462E4D9360384AAA5C4A
:10DAB000002A00D058E1374BEB5C002B00D09AE1F4
:10DAC000354BEB5C002B00D04DE2344BEB5C002B74
:10DAD00000D0EFE100210026314BEB5C002B00D0A1
