:020000041000EA
:1080000000200420F7800010C3800010C5800010FD
:10801000C1800010C1800010C1800010C18000101C
:10802000C1800010C1800010C1800010C780001006
:10803000C1800010C1800010C9800010CB800010EA
:10804000CD800010CD800010CD800010CD800010BC
:10805000CD800010CD800010CD800010CD800010AC
:10806000CD800010CD800010CD800010CD8000109C
:10807000CD800010CD800010CD800010CD8000108C
:10808000CD800010CD800010CD800010CD8000107C
:10809000CD800010CD800010CD800010CD8000106C
:1080A000CD800010CD800010CD800010CD8000105C
:1080B000CD800010CD800010CD800010CD8000104C
:1080C00000BE00BE00BE00BE00BE00BEEFF30580D5
:1080D000103800BEF2EB8871804402109C440210FC
:1080E0003481001090A31AE700201F49086006C8D9
:1080F00081F3088810471D48006800282FD10DA47F
:108100000ECC002902D000F012F8F9E71849194AFC
:10811000002000E001C19142FCD11749884717496E
:1081200088471749884700BEFDE701C901C29A4246
:10813000FBD370479C440210C00000205C1B002051
:10814000385F02100000042000000420385F021095
:1081500000100420001004200000000070470948AF
:108160000AF014F80047000008ED00E0000000D01D
:10817000601B0020806900204D080110115401107F
:10818000810901105756000006005250ABB36053EE
:10819000441C021006005250861C0302541C02109C
:1081A000060052505422A29D581C02100500525045
:1081B000DE65F468385F0210F8B5C0460648074926
:1081C000091A8B10C90FC91810B5491003D0044BF8
:1081D000002B00D0984710BD5C1B00205C1B0020CA
:1081E00000000000054B10B5002B03D004490548E2
:1081F00000E000BFFFF7E2FF10BDC0460000000036
:10820000505E00200019021010B50E210DF0C8FCC0
:1082100010BDC046F0B585B004000CF0C1F80728C9
:108220001CD8002818D0072803D84D4A80001358BE
:108230009F460CF0D9F84B4B20802C2401000025E0
:1082400018680023484EFF34994200DC7BE09A0016
:1082500001338650A342F7D105B0F0BD64285DD04C
:108260006528F9D10CF0D8F8C8200CF0DDF800230F
:10827000E05E0CF0E5F80223E05E0CF0E1F8042388
:10828000E05E0CF0DDF80623E05E0CF0D9F8082380
:10829000E05E0CF0D5F80A23E05E0CF0D1F8A0897E
:1082A0000CF0DEF80CF0ECF8D6E70CF09DF8A081AD
:1082B000D2E70CF083F8B42160806930FF304900C8
:1082C00009F096FF208800254843B421490009F0B1
:1082D0008FFF244B2C211C680023234E8700FF3185
:1082E000984206D09A000133A5508B42B4D09842F0
:1082F000F8D1431CE6518B42F2D1ADE70CF05EF8A9
:10830000A080A9E70CF05AF8E080A5E70CF056F839
:108310002081A1E70CF052F860819DE7A589042235
:10832000A35E0221625E218803950A26A55F0F489D
:1083300002950826A55F01950625645F00940CF060
:10834000FBFF89E713009A0085505A1CA24200D116
:1083500082E79142F6DD92008650023374E7C04610
:108360004C2802106814002000FFFFFF00190210C3
:10837000F0B5C6460D000400816800B528681600F7
:108380000BF09AFA2860A76880460021381C0BF091
:10839000E1FA00282BD10021381C0BF0F1FA00285B
:1083A0000AD020690BF0F6FA071C011C40460BF0BE
:1083B000E7FA002800D02F60E16830680BF07CFA03
:1083C0003060E468051C0021201C0BF0D9FA00285D
:1083D00019D0174B0A20185E0BF0DCFA011C281C80
:1083E0000BF0C6FA431E984180BCB846F0BD206928
:1083F0000BF0D0FA071C011C40460BF0ABFA00282A
:10840000DAD02F60D8E70021201C0BF0A3FA002857
:108410000CD0074B0A20185E40420BF0BBFA011C3F
:10842000281C0BF09DFA431E9841DDE70020DBE796
:10843000441400207047C04670B50400180013684B
:108440000D00E3600B6823610AF0DAF902000B000B
:10845000002018490AF04DF90AF032FA0023A06012
:10846000636018F04BFA3C2109F0C2FE04981E39F3
:108470000A304843142109F0BBFE2D68B4300600D1
:108480000D49281C0BF066FA002809D030000BF0CB
:1084900081FA291C0BF010FA0BF09EFA606170BD96
:1084A00030000BF077FA011C281C0BF002FA0BF0DD
:1084B00093FAF3E70000444000003443F8B5CE4699
:1084C0004746804680B51800170089460AF098F99B
:1084D000454B04000A20185E0D000AF091F90200D5
:1084E0000B000AF0FDF80022404B0AF020F92B00A7
:1084F00022000AF0FEF80AF0E3F94346D860061CB1
:10850000002138680BF03CFA002805D080231B06B8
:108510009C4643466644DE60089B002B62DD980063
:108520002D285DDC0F300BF035FA4346586018F00B
:10853000E5F9C3179B0DC0188005800DC01A0AF01D
:108540005FF900222A4B0AF0F2F80022294B0AF0C8
:10855000EEF80022264B0AF0C3F84346060058689E
:108560000F000BF09FFA02000B00300039000AF0F8
:10857000DEF80AF05DF9060018F0C0F9C00700D572
:1085800076424B461F6830000BF004FA391C0BF0A2
:1085900093F90BF021FAB4235B0098421CDD18001C
:1085A000434618610BF0F6F9391C0BF082F91249B9
:1085B0000BF099F90BF076FA02000B000AF090F834
:1085C0002B0022000AF095F80AF07AF943469860E9
:1085D000C0BCB946B046F8BDC343DB171840DFE75F
:1085E0002D209FE70548A0E74414002000004440E8
:1085F0000000E03F0000503F0000204200007041BA
:10860000F0B5CE4600B5070082B089468168406863
:1086100016000BF051F978600BF044FA02000B00E1
:108620000AF05EF800222F4B0AF051F804000D000A
:1086300000222D4B0AF07BF822002B000AF077F87D
:108640000022294B0AF04CF80400F8680D000BF0EA
:1086500029FA02000B00200029000AF068F80AF04D
:108660002FF9306078680BF01DFA204A204B0AF091
:108670005EF80AF047F93E690090019178690BF0C5
:1086800089F9311C0BF015F90BF00CFA009A019BDB
:1086900004000D00002013490AF019F80022124BC3
:1086A0000AF045F802000B00200029000AF03FF80C
:1086B0000400301C0D000BF0F5F902000B00200047
:1086C00029000AF00DF80AF0FBF84B46FE2118606D
:1086D000786889050BF054F9431E984102B080BCBC
:1086E000B946F0BD0000F03F0000E03F6E861BF091
:1086F000F921094010B5040098210BF0E1FB20009E
:1087000010BDC046F0B5C64600B5037D04000D009F
:108710001600002B13D0C7680021381C0BF030F96D
:108720000021002844D030680BF022F9002806D040
:1087300080231B069C4600236744E7602375A168DD
:1087400028680BF0B9F82860A76880460021381C1B
:108750000BF000F900284AD10021381C0BF010F969
:1087600000280AD020690BF015F9071C011C4046AF
:108770000BF006F9002800D02F60E16830680BF09C
:108780009BF83060E468051C0021201C0BF0F8F811
:10879000002819D01D4B0A20185E0BF0FBF8011CB5
:1087A000281C0BF0E5F8431E984180BCB846F0BD8C
:1087B000381C0BF0CFF80028C1D0002130680BF036
:1087C000CFF80028BBD0B3E70021201C0BF0C2F883
:1087D000002818D00D4B0A20185E40420BF0DAF842
:1087E000011C281C0BF0BCF8431E9841DDE72069F2
:1087F0000BF0D0F8071C011C40460BF0ABF800282A
:10880000BBD02F60B9E70020CFE7C046441400205A
:10881000F8B5CE464746804680B518001700894611
:1088200009F0EEFF474B04000A20185E0D0009F026
:10883000E7FF02000B0009F053FF0022424B09F052
:1088400076FF2B00220009F054FF0AF039F8434666
:10885000D860061C002138680BF092F8002805D07B
:1088600080231B069C4643466644DE60089B002B23
:1088700065DD98002D2860DC0F300BF08BF8434647
:10888000586018F03BF8C3179B0DC0188005800D89
:10889000C01A09F0B5FF00222C4B09F048FF002256
:1088A0002B4B09F044FF0022284B09F019FF4346E7
:1088B000060058680F000BF0F5F802000B003000BE
:1088C000390009F034FF09F0B3FF060018F016F87C
:1088D000C00700D576424B461F6830000BF05AF8AF
:1088E000391C0AF0E9FF0BF077F8B4235B009842DB
:1088F0001FDD1800434618610BF04CF8391C0AF0D4
:10890000D8FF14490AF0EFFF0BF0CCF802000B007F
:1089100009F0E6FE2B00220009F0EBFE09F0D0FF83
:1089200043464246986001231375C0BCB946B04621
:10893000F8BDC343DB171840DCE72D209CE7064851
:108940009DE7C04644140020000044400000E03F82
:108950000000503F000020420000704104230370DB
:108960007047C046F0B5D6464F4646460378C0B578
:10897000042B3ED0022B00D193E096214C4F4900AE
:108980003A88151C8A4239D8ADB2012B00D178E063
:10899000BC23DB00C6580021301C0AF0D3FF00289E
:1089A00031D0002D25D0434B00269946424B002460
:1089B0009846424B9A4606E0514669360134D150FA
:1089C000FF36A54215DD2900300009F011FC022315
:1089D000F95E0F22411A484604F0CCF84246A30043
:1089E00012680028E8D169360134D050FF36A5421C
:1089F000E9DCE0BCBA46B146A846F0BD0D1CADB2FC
:108A0000012BC5D13DE0002DF3D02B4B301C1C6851
:108A10000BF014F8C0B20202121812021218630707
:108A2000691E1202DB0F052940D9002B37D0012621
:108A30002260E81A41089B00E318C900C9181A60AF
:108A40005A6008338B42FAD101230342D1D09843B4
:108A500083199900581C62508542CADD6418991C1C
:108A600062608D42C5DDD91CA2608D42C1DD191D39
:108A7000E2608D42BDDD053322619D42B9DD626158
:108A8000B7E7BD23DB00C3185B68002B00D07FE78E
:108A9000B623DB009C46604401F092FEA9E7002665
:108AA000C7E7406A03685B699847A2E70023D0E7FD
:108AB000441400202023002068140020000A0AFF2C
:108AC00070B505000E0014000BF06AFC01280BD0F5
:108AD000022800D070BDB323013CDB00E2B2711C60
:108AE000E81805F019FFF5E72800013CE2B2711C17
:108AF000283004F0D1FDEDE770B5402200257D4C13
:108B0000D721A5527C4A002622637C4A7C4B6265B1
:108B10005C22A5527B4A7C48E2646C22A1527B4ACB
:108B20007B49A2677B4AA363E2678022A150C022EF
:108B3000A4219200890062500431655008316550CB
:108B4000043163500431655004316552043165507D
:108B50000431655018396050343166542031655005
:108B6000043125706563E5636564A5642565A565C5
:108B7000256665666350BD239B00E5500433E552CE
:108B8000A5500433644AE550143BE250634A2C3349
:108B9000E5500433E2500433E5500433E552043326
:108BA000E5505F4A0433E550183BE250DE222033A3
:108BB000E2525C4A0C33E2505B4A0433E2505B4AB7
:108BC0000433E2505A4A0C33E2505A4A0433E2501A
:108BD000594A0433E250594A0C33E250584A04339C
:108BE000E250584A0433E25000220C33E250564A15
:108BF0000433E250554A0433E250B323544ADB00B5
:108C0000E318A350043AA350B423DB00E55010331B
:108C1000E01801F0B3FD01224E4B0121E2504E4B12
:108C20009532E6540433E5504C4B4942E550043349
:108C3000E5508833E5504A4BE2504A4A0433A018C5
:108C40000022E5500833E3189A719961283398425D
:108C5000FAD1454B4549E2540433E250424BE31804
:108C6000635043496350434BE250FA2204335200AD
:108C7000E250414A414BA0180022E31819001C3170
:108C80009A711A6259629962DA6230338342F5D17D
:108C90003B4A3C4BA11800221A7030339942FBD159
:108CA000394B3A49E2540433E250374BE3186350EE
:108CB00037496350374B3849E250384B5A770122D5
:108CC0001A62374A196037491A65002259601E2115
:108CD0009A65DA65DA661A67334A596133495A6622
:108CE000334A596599661900DA67942250319950D0
:108CF00070BDC046381D002088880800E0B1FFFF25
:108D0000204E000011CA0800AAAA2A000CE4F43F71
:108D100074DF2D3E85417FBF55555500102700005B
:108D20005C8F0200CB74F33FEED67FBF0642493E14
:108D3000BC85BD3FA4BF7FBFABF68A3F433B1B3F13
:108D40004BAD7FBFA2F54B40F3827FBF3A23E94092
:108D50009C050000DC050000E4050000EC050000B7
:108D60007C060000A8090000AC090000B40900005E
:108D7000B8090000BC090000880D0000C809000007
:108D8000A40D00001C2700208C0D0000940D000095
:108D9000980D00009C0D0000A4280210781B0020F4
:108DA0007428021088130000842802100000344246
:108DB00094280210002310B500210370014802F02E
:108DC00089FA10BD6C14002070B5094D040028000C
:108DD000002102F07FFA28000022064902F096FAEC
:108DE0000123054A2370A3540023236170BDC046AC
:108DF0006C14002000003443E405000070B504004A
:108E00002830150004F034FCB323DB00E0182900FF
:108E100005F082FC0E4D0021280002F05BFA0022D2
:108E200028000C4902F072FA01230B4A2370A35464
:108E300000232361636A002B06D0B623DB000021E8
:108E4000E01801F0B3FC70BD044B6362F5E7C04667
:108E50006C14002000003443E4050000781B00205F
:108E6000F0B54E46DE4657464546E0B5846A0600F4
:108E70008BB0002C05D1C34B716B5A6A006B9142C9
:108E800043D9C14B1D88002D35D0C04BB06B1C6839
:108E90000AF0D4FD9623C0B2020212181202121870
:108EA000681E12025B0098422CDA6307DB0F062D66
:108EB00000DCE1E1002B00D196E0012622600121D7
:108EC000594009189B004D08E318ED00ED181A6091
:108ED0005A6008339D42FAD101230B420BD09943CB
:108EE0008B1999006250834205DA6418991C6260FC
:108EF000814200DC7AE00BB0F0BCBB46B246A9462A
:108F0000A046F0BD2C20FF30CFE79B6A834200D201
:108F100034E140239946B1444B469B4A1B7B904623
:108F20001788002B73D0726C9046032B00D1F7E1A9
:108F300000D935E1012B00D1A0E11000B36C7843DA
:108F400019009A4609F054F9BB1043D08F4A962570
:108F50001268040093467A1002927A00D219921095
:108F600003921A18049252469A4633005E469B4674
:108F70006D0005923900200009F03AF9A94203D2A8
:108F8000FF2389001B068B5153463900E01809F076
:108F90002FF9A94202D2002389008B51029B39008C
:108FA000181909F025F9A94203D2FF2389001B06ED
:108FB0008B51039B3900181909F01AF9A94202D202
:108FC000002389008B51049B01349C42D2D1059B24
:108FD0005E469A46434601337364D04500DA8AE719
:108FE00000234A46137386E7002668E7D91CA2606F
:108FF000814200DD7FE7191DE260814200DD7AE7F2
:1090000005332261834200DD75E7626173E79623D1
:109010003D1C5B009F4200D9AEE007AF3A005C4BBD
:10902000ADB203CB03C21B7813703369082B41DC4C
:10903000002D00D15FE7554B00211868AA00994622
:109040000AF02AFF7069BB79F9793A7AC70F3F189D
:10905000504E51487F108059012859D0002D00D121
:1090600049E71E06494B090499464C4B0E439A4664
:10907000434612021643B0461E0005E04146D15059
:109080000134A54200DC36E763001B191801C01A41
:109090002900C00009F0ACF80223F15E3A00411A41
:1090A000504603F067FD4A46A30012680028E5D148
:1090B000D050E5E7B3690133B361002D06D0334BDF
:1090C00000211868AA000AF0E7FEB36907220133FD
:1090D000D9170A40D218B3610123D110D20F8918D1
:1090E0000B409B1A0133DBB270695A00D218BB5C8B
:1090F000BA18C70F3F18274E2748517880599278E1
:109100007F100128AAD1002D00D1F4E61F48814626
:109110001B0609040B431202134302931F4BBB4669
:109120009A4607E04B46029A1B68DA510134A54281
:1091300000DCE0E663001B191801C01A2900C0001A
:1091400009F056F8434602269E5F5A46861B3100B8
:10915000504603F00FFDA7000028E3D131005A4626
:109160005046B43103F006FD4B461B68002800D181
:1091700080E0029ADA51D9E71D1C4EE7914200D0F7
:10918000C7E67EE600400540441400206814002035
:10919000BC280210EC050000381D00202023002010
:1091A000042B64D1100009F02BFB924A924B09F07A
:1091B000BEFA0022914B09F09CFA09F0A3FB0022B1
:1091C0008F4B09F08DFA00228E4B09F0B0FA09F0AE
:1091D0002FFBFF21404309F00BF8002F39D08A4BB9
:1091E000020619687B1E9C4696235B009C4500DBAB
:1091F000F5E04B07DB0F062F15DD002B01D0012416
:109200000A6001275F4067449B007D08CB18ED0092
:10921000ED181A605A6008339D42FAD101233B428F
:1092200017D09F43E419A300CA50A44511DDC91803
:10923000A31C4A609C450CDBE31C8A609C4508DB50
:10924000231DCA609C4504DB05340A61A44500DB8C
:109250004A61002300226D4CC1B20093200002F04D
:1092600041F88021200002F035F8736C9846B36C09
:109270009A46AFE6D85159E7002332E6B36C9A46D6
:109280009B1A18025146C01A08F0B2FFFF21404352
:1092900008F0AEFF002F00D19CE65B4B020419687A
:1092A000FF231B041A409623781E5B00984200DBC4
:1092B00099E04B07DB0F062F16DD002B01D00124B0
:1092C0000A6001275F403F189B007D08CB18ED0026
:1092D000ED181A605A6008339D42FAD101233B42CF
:1092E00000D177E69F43E419A300CA50844200DB13
:1092F00070E6C918A31C4A60984200DA6AE6E31CCB
:109300008A60984200DA65E6231DCA60984200DA56
:1093100060E605340A61A04200DA5BE64A6159E67C
:10932000100009F06DFA334A334B09F000FA0022BD
:10933000324B09F0DEF909F0E5FA0022304B09F072
:10934000CFF900222F4B09F0F2F909F071FAFF2151
:10935000404308F04DFF002F3BD02B4B01041A680F
:10936000FF231B0419407B1E9C4696235B009C45F3
:109370003CDA5307DB0F062F15DD002B01D001244B
:10938000116001275F4067449B007D08D318ED0002
:10939000ED181960596008339D42FAD101233B4210
:1093A00017D09F43E419A300D150644511DAD218B5
:1093B000A31C51609C450CDBE31C91609C4508DBC1
:1093C000231DD1609C4504DB05341161A44500DBFD
:1093D0005161002300210D4CC2B200933EE72C23C3
:1093E000FF339C4605E72C20FF3062E72C23FF3338
:1093F0009C46BEE76E861BF0F92109400000444000
:109400000000F03F00C05F40681400206C14002092
:10941000F0B5DE4657464E464546E0B5836A040041
:1094200085B0002B00D0A4E0D04B616B5A6A006B72
:1094300091424BD9A06B0AF035FBCD4ACD4B09F0D8
:1094400076F909F03DFAA0630AF0F8FACA4DC1B204
:10945000280001F03FFFC94805F0B4F900282ED1DB
:10946000C24B616B5A6A206B914228D89B6A834237
:1094700001D2914223D0C24EC24BF358002B00D1EF
:1094800095E0C14BA26AF15C443BD2B2F01805F002
:109490005DF906F099FB0023BC4A801859410B0086
:1094A0008021020009068B4202D30122B84B5242AE
:1094B0006363B84B2263A363A36A013BA36205B055
:1094C000F0BCBB46B246A946A046F0BD9B6A8342AB
:1094D0007FD3250028352B7D002B7ED100232B75D3
:1094E000237F002B4ED1A44D8021280001F0F2FEF5
:1094F000942326002700E058083603680C375B6881
:109500003A003100984764239846A04400286DD162
:10951000A3689946A04B0A27DF5F38000AF03AFAA1
:10952000E368061C191C9A460AF02AFA002800D0A3
:10953000564678420AF02EFA311C071C0AF00AFA45
:10954000002844D049462800321C01F0DFFE942355
:10955000E358434500D133E17C34A34200D1CCE051
:10956000FF230022009300210023280001F0BAFE0F
:10957000A5E7806B012B00DC5CE7FC2189050AF084
:10958000B2F960E77D4E300005F01CF9002896D155
:10959000627F236A002A00D029E1012B03D0636A8D
:1095A000002B00D026E17D4B734D9C466644002184
:1095B000280001F08FFE00222800794901F0A6FE64
:1095C0000123784A3370B3540023336177E73E1C9C
:1095D000B8E7914200D07CE72CE70023FA22032170
:1095E00071480093520004F0B3FF77E7A0680AF0D7
:1095F000F3F900218046E0680AF0ACF9002806D0B3
:109600004046B421B430490008F0F2FD8846636951
:109610004146DA0FD218654B52109A4618000132B3
:1096200003F0A8FA624B814653441B69012B00D119
:109630001AE14B46002B7BD0E06800210AF0A0F92C
:109640000200531E9A41584B012198460023404680
:10965000009304F07DFFAE209621C00040444900F5
:1096600005F088F8226901322261002A00DC0AE153
:109670004348454BC15C0B2A00DDD9E0B323DB0036
:109680009C46D2B2604405F061F823699A465023A3
:109690009B46A3445A464433E250236A022B00D12E
:1096A00020E1032B00D1B6E064229046A044012BB8
:1096B00004D15046032108F09BFD82464A46636868
:1096C000002A0FD0180009F09BF83A4A3A4B09F0EB
:1096D0002EF809F0ADF8FA2203009200904200DA69
:1096E000FDE060605A4651461268009112683100F0
:1096F000914658463A00C8470AE700230022002155
:1097000028000093FF3301F0EDFD2C4B0721186872
:10971000421C1A6008F06CFD002900D0CFE6AF2291
:109720000091962320485200023104F011FFC6E652
:109730001D4BC82298464B460021404600935200DC
:10974000002304F005FF2300022240331A734B4626
:10975000AE20636496211423C000A36440444900F2
:1097600005F008F82269013A7EE7C046004005404E
:109770009A9999999999E93F6C140020D022002078
:10978000381D0020EC050000DC05000040420F0001
:10979000FFFFFF7F00007F434414002068FAFFFFB3
:1097A00000003443E4050000601D00202023002059
:1097B00018FAFFFF333333333333EB3FF03D0020F0
:1097C000002400230022FF212800009401F08AFDDC
:1097D0006A4A1368591C11609B0700D16FE6322357
:1097E00002216748674A009404F0B2FE67E6042B42
:1097F00000D1D8E6644C0021200001F06BFD00226E
:109800006249200001F082FD03220121604B1A70A1
:10981000604A995453E6642253469046A044052B6F
:1098200000DD81E0032B71DC9423E3589B4645E780
:109830002300032240331A73C823A364B3230026F2
:10984000DB00C51828006532666404F07FFFFA214A
:109850002800C90004F08EFF0223FF33A383236A8C
:109860002661013323622AE6414663695046DA0FD6
:10987000D21852100132B43103F07CF94B46034345
:10988000DBB29946D5E62300042240331A73002543
:10989000C823C822AE26A3649200002300214046BC
:1098A0006564009504F054FEFA21F6004644300049
:1098B000490004F05FFF4346324A283B995C300080
:1098C000672204F043FFFA213000890004F052FFC0
:1098D0000123A383636A2561013B6362EFE5130003
:1098E0006260FFE65346DB0F53445B10039364232F
:1098F00098465346A044082B32DC5346062B1FDC07
:109900009423E3589B46039B9A46D7E616F0F6FF4E
:10991000032108F06DFC002986D17C239B46A344DB
:109920005A461833E250C9E616F0E8FF032108F062
:109930005FFC002902D194234246E250236971E77B
:1099400016F0DCFF052108F053FC0029D8D17C2358
:109950009B46A3445A461833E250039B9A46ADE611
:1099600016F0CCFF052108F043FC002902D1942316
:109970004246E25023699A46BFE7C046EC3D0020CC
:10998000601D0020DC0500006C1400200000344342
:10999000381D0020E4050000F0B5C64600B50700FC
:1099A00084B07F480BF0C8FC01233B6202337B622A
:1099B0007C4B7B6000233B610023FB60984616F0E4
:1099C0009DFFB421490008F013FC080009F0E2FFF4
:1099D0003A0094235032B860FA50786808F010FFCB
:1099E000714B04000A20185E0D0008F009FF020008
:1099F0000B0008F075FE00226C4B08F098FE220068
:109A00002B0008F076FE08F05BFF4146061CF86567
:109A1000F86809F0B5FF002804D080231B069C4697
:109A20006644FE65624B7B6516F068FFC3179B0DAD
:109A3000C0188005800DC01A08F0E2FE00225D4BC0
:109A400008F075FE00225C4B08F071FE0022594BB5
:109A500008F046FE02900391786D0AF023F80200A8
:109A60000B000298039908F062FE08F0E1FE060080
:109A700016F044FFC00700D57642BB683000984618
:109A800009F088FF414609F017FF09F0A5FFB4234C
:109A90005B00984200DC76E01800386609F07AFF37
:109AA000414609F006FF454909F01DFF09F0FAFF9C
:109AB00002000B0008F014FE22002B0008F019FE33
:109AC00008F0FEFEFF233E4CB86500220021200076
:109AD0000093002301F006FC0021200001F0FAFBB6
:109AE0003B6A012B5ADD374C374D7A6A615D012A9A
:109AF0004DD0B323DB00E618D2B2300004F026FECE
:109B00003221300004F036FE6A223000615D04F03C
:109B10001DFEAF212D4C4900200004F02BFE20003B
:109B2000322104F027FE2A4B274DE6186922200037
:109B3000715D04F00BFE2000322104F01BFE3A6A36
:109B40002000715DD2B204F001FE2000FA2104F081
:109B500011FE1E237B613B00012440331C73002354
:109B600028227B64BB830333BB621A4BBA64BB639A
:109B700006F02AF83B002833386379631C7504B07B
:109B800080BCB846F0BDC343DB17184085E7B3235C
:109B9000DB00E0186A3204F0D9FDBAE70B4CBEE7EF
:109BA0001C190210881300004414002000004440D7
:109BB000000070410000E03F0000503F00002042E4
:109BC0006C140020381D0020DC050000D02200208D
:109BD00068FAFFFF00007F43F0B5C646070000B5F6
:109BE000016A84B082480BF0A7FB3A6A013A9305F8
:109BF0009B1A9B019B185B009B187E4ADB009446D6
:109C000063447B6000233B610023FB60984616F0B1
:109C100075FEB421490008F0EBFA080009F0BAFE1D
:109C20003A0094235032B860FA50786808F0E8FDA2
:109C3000714B04000A20185E0D0008F0E1FD0200DF
:109C40000B0008F04DFD00226C4B08F070FD220067
:109C50002B0008F04EFD08F033FE4146061CF86567
:109C6000F86809F08DFE002804D080231B069C466E
:109C70006644FE65624B7B6516F040FEC3179B0D84
:109C8000C0188005800DC01A08F0BAFD00225D4B97
:109C900008F04DFD00225C4B08F049FD0022594BB5
:109CA00008F01EFD02900391786D09F0FBFE0200A2
:109CB0000B000298039908F03AFD08F0B9FD060080
:109CC00016F01CFEC00700D57642BB6830009846EF
:109CD00009F060FE414609F0EFFD09F07DFEB42376
:109CE0005B00984200DC76E01800386609F052FE0E
:109CF000414609F0DEFD454909F0F5FD09F0D2FEC7
:109D000002000B0008F0ECFC22002B0008F0F1FC34
:109D100008F0D6FDFF233E4CB8650022002120004C
:109D20000093002301F0DEFA0021200001F0D2FAB6
:109D30003B6A012B5ADD374C374D7A6A615D012A47
:109D40004DD0B323DB00E618D2B2300004F0FEFCA5
:109D50003221300004F00EFD6A223000615D04F013
:109D6000F5FCAF212D4C4900200004F003FD20003C
:109D7000322104F0FFFC2A4B274DE618692220000F
:109D8000715D04F0E3FC2000322104F0F3FC3A6A38
:109D90002000715DD2B204F0D9FC2000FA2104F059
:109DA000E9FC1E237B613B00012440331C7300232C
:109DB00028227B64BB830333BB621A4BBA64BB6348
:109DC00005F002FF3B002833386379631C7504B04B
:109DD00080BCB846F0BDC343DB17184085E7B3230A
:109DE000DB00E0186A3204F0B1FCBAE70B4CBEE7C6
:109DF0002C19021088130000441400200000444075
:109E0000000070410000E03F0000503F0000204291
:109E10006C140020381D0020DC050000D02200203A
:109E200068FAFFFF00007F43F0B5C64600B505693C
:109E3000040084B0002D00D1FFE00223476A0370C4
:109E40003B688B4A9B68934200D006E189480BF03F
:109E500073FA01233B6202337B62874B7B600023F2
:109E60003B610023FB60984616F048FDB421490091
:109E700008F0BEF9080009F08DFD3B009422503334
:109E8000B860BB50786808F0BBFC7C4B04000A202B
:109E9000185E0D0008F0B4FC02000B0008F020FC76
:109EA0000022774B08F043FC22002B0008F021FC35
:109EB00008F006FD4146061CF865F86809F060FDEB
:109EC000002804D080231B069C466644FE656D4B2B
:109ED0007B6516F013FDC3179B0DC0188005800D20
:109EE000C01A08F08DFC0022674B08F020FC00220D
:109EF000664B08F01CFC0022634B08F0F1FB02905B
:109F00000391786D09F0CEFD02000B0002980399D1
:109F100008F00DFC08F08CFC060016F0EFFCC00702
:109F200000D57642BB683000984609F033FD4146C3
:109F300009F0C2FC09F050FDB4235B00984200DD3B
:109F400077E0C343DB171840386609F023FD41462C
:109F500009F0AFFC4E4909F0C6FC09F0A3FD020070
:109F60000B0008F0BDFB22002B0008F0C2FB08F03C
:109F7000A7FCFF23474CB865002200212000009376
:109F8000002301F0AFF90021200001F0A3F93B6AA2
:109F9000012B50DD404C414D7A6A615D012A5FD052
:109FA000B323DB00E618D2B2300004F0CFFB32213D
:109FB000300004F0DFFB6A223000615D04F0C6FB74
:109FC000AF21374C4900200004F0D4FB200032219F
:109FD00004F0D0FB334B314DE61869222000715D4F
:109FE00004F0B4FB2000322104F0C4FB3A6A2000E4
:109FF000D2B2715D04F0AAFB2000FA2104F0BAFB92
:10A000001E237B613B00012440331C730023282264
:10A010007B64BB830333BB62234BBA64BB6305F031
:10A02000D3FD2837B860F9603C7504B080BCB846F1
:10A03000F0BD180088E71A4CC8E7164E0021300022
:10A0400001F048F900223000184901F05FF90123BE
:10A05000174A2370A3542561E7E738009847E4E7DF
:10A06000B323DB00E0186A3204F070FBA8E7C046B7
:10A07000999900101C190210881300004414002044
:10A0800000004440000070410000E03F0000503FED
:10A09000000020426C140020381D0020DC05000068
:10A0A000D022002068FAFFFF00007F430000344305
:10A0B000E4050000F0B5C64600B5DB4BC1685A6A3E
:10A0C0000400856884B0002091422DD89B6AAB4281
:10A0D0002ED305F079FD0023D44A801859410B0096
:10A0E0008021020009068B4202D30122D04B52424A
:10A0F000E360B323DB00E5182800A26004F07EFBD8
:10A10000BD23DB00E618CB4F300002F0C9FCE35D55
:10A11000002B00D035E12378022B00D139E1032B4D
:10A1200025D0012B07D0012004B080BCB846F0BD7B
:10A130009142CED1F8E723697268934200D02EE1B4
:10A14000002BF0D0B84BE1695A6AA0699142EAD875
:10A150009B6A834201D29142E5D0280004F032FB91
:10A160000028E0D12000FFF75FFE0120DCE7280097
:10A1700004F028FB051ED6D12669002E00D141E14E
:10A180000223676A23703B68AB4ADB68934200D0C6
:10A1900076E1396AA9480BF0CFF83A6A3D61013A95
:10A1A00093059B1A9B019B185B009B18A44ADB003C
:10A1B000944663447B600023FB60984616F09EFB48
:10A1C000B421490008F014F8080009F0E3FB3B0053
:10A1D00094225033B860BB50786808F011FB994B5B
:10A1E00004000A20185E0D0008F00AFB02000B00B4
:10A1F00008F076FA0022944B08F099FA22002B001E
:10A2000008F077FA08F05CFB4146061CF865F86830
:10A2100009F0B6FB002804D080231B069C46664448
:10A22000FE658A4B7B6516F069FBC3179B0DC01852
:10A230008005800DC01A08F0E3FA0022844B08F074
:10A2400076FA0022834B08F072FA0022804B08F065
:10A2500047FA02900391786D09F024FC02000B008C
:10A260000298039908F063FA08F0E2FA060016F083
:10A2700045FBC00700D57642BB683000984609F020
:10A2800089FB414609F018FB09F0A6FBB4235B00EB
:10A29000984200DCB2E01800386609F07BFB4146CA
:10A2A00009F007FB6C4909F01EFB09F0FBFB0200FB
:10A2B0000B0008F015FA22002B0008F01AFA08F03B
:10A2C000FFFAFF23654CB8650022002120000093AF
:10A2D000002301F007F80021200000F0FBFF3B6A9B
:10A2E000012B00DCCAE05E4C5E4E7A6AA15D012A59
:10A2F00000D1C9E0B323DB00E518D2B2280004F096
:10A3000025FA3221280004F035FA6A222800A15DDE
:10A3100004F01CFAAF21544C4900200004F02AFA42
:10A320002000322104F026FA504B4E4DE6186922E7
:10A330002000715D04F00AFA2000322104F01AFABC
:10A340003A6A2000D2B2715D04F000FA2000FA21CE
:10A3500004F010FA1E237B613B00012440331C7380
:10A36000002328227B64BB830333BB62404BBA6467
:10A37000BB6305F029FC2837B860F96001203C7503
:10A38000D2E6280004F01EFA002800D0CBE6E05503
:10A39000C1E6606A03681B6998470120C4E605F0BE
:10A3A00013FC0023334A801859410B00802102001E
:10A3B00009068B4202D301221D4B5242E3617368AE
:10A3C000A2612361002B0DDD264E280004F0E8F980
:10A3D0002800227CA15D04F0B9F966222800A15D65
:10A3E00004F0B4F900232362BC230022DB001B48E5
:10A3F0000021E25000F06EFF012095E6C343DB1719
:10A40000184049E7154D0021280000F063FF0022A5
:10A410002800194900F07AFF0123064A2370012021
:10A42000A354266180E6C04600400540409C0000E1
:10A43000FFFFFF7FE4050000D99B00102C190210DC
:10A4400088130000441400200000444000007041C4
:10A450000000E03F0000503F000020426C1400204C
:10A46000381D0020DC050000D022002068FAFFFF24
:10A4700000007F43C0C62D0000003443064C4FE768
:10A480003800984701204FE6B323DB00E0186A321A
:10A4900004F05CF93EE7C046D02200207047C04679
:10A4A000F8B5070005000026094B041D1B8820375E
:10A4B000836516F023FAA96D07F09AFE080009F0EB
:10A4C00069FAA6632060E0610434BC42F1D1F8BDB2
:10A4D0004414002010B504005C2109F0F1FC2000B8
:10A4E00010BDC046F0B5DE4657464E464546E0B57F
:10A4F000826D87B00490002A0CDD9623013A5B0040
:10A500009A4200DB18E18E4B01320021186892005C
:10A5100009F0C2FC049B1C1D25001833059316F09E
:10A52000EDF9FA21C90007F063FE864BC81808F060
:10A5300067F90022844B08F0DCF80600A86B0F00D6
:10A5400009F0B0FA02000B003000390008F0C8F83A
:10A5500008F0B6F9041C09F0A5FA7C4A7C4B060009
:10A560000F0008F027F9002800D1DFE030003900A3
:10A57000764A784B08F02CF9002800D1D9E0211C4C
:10A58000201C09F0B0F9211C09F0ADF92968AC6371
:10A5900009F092F9EC692860211C804609F089F9DC
:10A5A00009F080FA6C4A6D4B08F0C1F80600201CD7
:10A5B0000F0009F077FA02000B003000390008F0B4
:10A5C0008FF808F07DF9049BE8619B6D041C18006E
:10A5D0009A4609F0DFF9061C011C404609F0C8F94B
:10A5E00000280AD0311C404609F063F9311C28606C
:10A5F000201C09F05EF9041CE8612B680021181C7E
:10A60000994609F0A7F900280BD04846311C09F0FB
:10A6100053F9311C28608146201C09F04DF9041CB7
:10A62000E861211C484609F095F9431E9841430012
:10A63000984601235B429C464946201CE04409F0B1
:10A6400038F9FE2140008905400809F035F909F084
:10A65000C3F9834600285DDD394B00241B680027C1
:10A66000029309F097F90395019023E00021301C33
:10A6700009F086F9002848D0301C09F0DFF9C2B291
:10A6800013029B181B029A18190C1B0A96204000F3
:10A6900085420BD2FF201B0400041206120C03405B
:10A6A00013430906029AAD000B43AB5001374444F3
:10A6B000BB452ED0380009F06DF9019909F0FFF87B
:10A6C000011CFE20800509F0F4F8061C200009F0AA
:10A6D00061F9494609F0F0F809F07EF9514607F0B2
:10A6E00087FD0D1E00DA5544311C301C09F0FBF8C3
:10A6F0001B4909F0F8F81A49061C09F02BF9002843
:10A70000B4D1FF21174B184AC0E7002300210022D3
:10A71000BCE7039D059B0435AB4200D0FFE607B0C4
:10A72000F0BCBB46B246A946A046F0BD0F48104C4F
:10A730002CE71048104C29E72C22FF32E3E6C046F4
:10A740006814002018FCFFFF0088C3406666666638
:10A750006666F63F6666F6BF9A9999999999B93FE8
:10A7600000007F43FFFF0000FFFFFF00B29D2F406E
:10A770003333B33FB29D2FC03333B3BF002370B523
:10A7800028220400002108C009F086FB5C2009F0A3
:10A790008FFB05005C22002109F07EFB024B2000AC
:10A7A0002B60656070BDC046D028021010B50160F6
:10A7B0008900401840680368DB68984710BDC046B0
:10A7C000036810B59B00C018406803689B689847F1
:10A7D00010BDC04630B50B7C0C0085B0012B0DD0F0
:10A7E00001238A68A02193408622C905D2008B509C
:10A7F000032323740020002105B030BD0868002128
:10A8000005F0CEFD0223237404F0CEFF050005F011
:10A81000DBF90C22002312184B41802109068B42E0
:10A8200002D30122054B5242012102910449280022
:10A830000194009104F0BCFFDCE7C046FFFFFF7FFE
:10A84000D5A7001070B504001000626021600221DD
:10A8500004F0A6F91349206805F09EFC00230222AB
:10A860000821206805F05EFDA368013300D070BDAB
:10A8700001200BF045FA21680B4B0C4DCB185A42C6
:10A880005341C2020A332A401B04134311221343CB
:10A89000A022D2059446A06080016044E360036179
:10A8A0004160E4E790D003000080FCBFFD7F00FF23
:10A8B00030B583680400A020C00584469B01634432
:10A8C00019609A6001230121237485B0206805F086
:10A8D00067FD04F069FF050005F076F964220023A6
:10A8E00012184B41802109068B4202D30122064BEC
:10A8F000524201210291054928000194009104F07F
:10A9000057FF012005B030BDFFFFFF7FD5A7001026
:10A91000037C0200032B03D05A425341D8B2704744
:10A92000A021C9058C46836800209B0163441B69F4
:10A93000DB01F4D413689B691B07F0D41074013059
:10A94000EDE7C046002303747047C04610B5816828
:10A95000027C02480AF0F0FC10BDC0464819021003
:10A96000F0B5DE4657464E464546414BE0B51C68BD
:10A9700085B0A369DB0629D43E4B102506229B5ED9
:10A980003D4F9A463D4B3A78197803933C4B3D4EE8
:10A9900099463D4B01933D4B029301239846A36991
:10A9A0001D42FCD12068092A0DD8531CDBB2B054DB
:10A9B0003B701A00002910D1072B04D1344B3268A8
:10A9C0009A4243D00722A3691D42E8D005B0F0BCEB
:10A9D000BB46B246A946A046F0BD052BF3D1B42133
:10A9E000B0787378C001C0188011490007F000FCEE
:10A9F0003379F2781B029B189B109A4506DC002BDA
:10AA000031D100233B7001210022DCE7214B009370
:10AA10004A46525C002A14D01F4A944660464A00B7
:10AA2000805A8346984221DC5B469BB26046835243
:10AA3000019B009898524246029B5A544B465A54E6
:10AA4000DFE7154A009B94464A00EFE78023B2886F
:10AA5000DB019A42B6D1B379812BB3D1039A803B03
:10AA600013703970CFE79AB20092D1E79B46DBE7CB
:10AA7000485C0020441400207269002073690020A3
:10AA8000E05A002064520020705200204C5C0020EC
:10AA9000A55A0500E02E0000105800202021074B89
:10AAA0001B689A691142FCD1A52220211A609A697B
:10AAB0001142FCD140221A607047C046485C002019
:10AAC0002021094B1A6893691942FCD1A523202142
:10AAD00013600800936918401942FAD1034B1160C2
:10AAE0001870034B18707047485C00207369002091
:10AAF000726900202021074B1B689A691142FCD122
:10AB0000A52220211A609A691142FCD125221A60DF
:10AB10007047C046485C0020F0B557464E46DE46BA
:10AB20004546E0B5334B87B01A68334B514201922A
:10AB3000029106201B5E314F9846314B16001B6870
:10AB400094469B462F4B30481B686A3605932F4B23
:10AB500060449A461300CB1A013B04933B002C4AF5
:10AB6000474691469846FF360390019B029A9342CE
:10AB70003DDB049B264D9C1905E04D4500DD244D31
:10AB80000134B4420FD0B4212000490007F030FB5B
:10AB9000434649005B5A9F42EFDC9D42F0DD0134A1
:10ABA0001D00B442EFD1AB451EDA5B46E81A08F04F
:10ABB000F1FE059908F097FE08F00EFF5346188045
:10ABC00002239C46039B0136E2449E42CDD1B4222F
:10ABD000002152000F4809F05FF907B0F0BCBB46F6
:10ABE000B246A946A046F0BD53461D80E8E7084D91
:10ABF000D9E7C04654140020441400201058002007
:10AC0000601400205C140020D1020000944F00204A
:10AC1000E02E0000E05A002070B50C00E121060093
:10AC2000154D1000C9022A6005F0B6FA3000022165
:10AC300003F0B6FF2000022103F0B2FF0F4B2C6897
:10AC40009C466444631E9C41143420000C4904F06B
:10AC500007F90121200004F0DDF8502238212B688B
:10AC60009A635A6B343311408022520113430022FD
:10AC70001960044B1A7070BD485C002000C0FCBF16
:10AC800061A9001074690020F0B557464E46DE46B3
:10AC90004546E0B5394B87B01A68394B56420396A2
:10ACA00006215B5E17009A46364B374C1B686A37A5
:10ACB0000293364BFF379846B4235B009B1A0093F0
:10ACC000A3180193324B04929B46324B059499464C
:10ACD00007E002239C46009B0136E0440137B34263
:10ACE00036D0019B9B5D002BF3D0049B039A9342CB
:10ACF00042DB34006934264DFF3405E09D4200DD1F
:10AD00001D000134A7420FD0B4212000490007F0F4
:10AD10006FFA4B4649005B5A9A45EFDD5D45F0DD21
:10AD200001341B4DA742EFD14346029A1B88AD1A4E
:10AD30009D421BDD184A93421AD842463233138093
:10AD400002239C46009B0136E0440137B342C8D140
:10AD5000B422059C00212000520009F09DF807B0A4
:10AD6000F0BCBB46B246A946A046F0BD0A2BB0D9FE
:10AD700042460A3B1380ACE7054DD5E7541400204A
:10AD80004414002060140020E05A0020944F00205A
:10AD9000E02E000010580020DF2E0000F8B54546D8
:10ADA000DE4657464E46E0B5814D28000BF06AFF5F
:10ADB00000282CD17F4C804B61685A6A20689142F0
:10ADC00006D90020F0BCBB46B246A946A046F8BD55
:10ADD0009B6A834218D304F0F7FE0023774A801859
:10ADE00059410B008021020009068B4202D3012247
:10ADF000734B5242734D63602B782260052BE0D871
:10AE0000714A9B00D3589F469142E4D1D9E704F0A0
:10AE1000DBFE684C2060616028000BF04FFFCAE742
:10AE2000FFF77AFE022369482B700AF085FAC8E71B
:10AE300067480AF081FA04F0C7FE0023654A8018CB
:10AE400059410B008021020009068B4202D30122E6
:10AE50005B4B52420CC4B42200215F48520009F0FF
:10AE60001BF805232B70ACE75C480AF065FA04F088
:10AE7000ABFE00235A4A801859410B008021020082
:10AE800009068B4202D301224D4B52420CC40423CB
:10AE90002B7096E7534BB4249A4606229B5E524E83
:10AEA0009946524B524D984619000023514FA40029
:10AEB0000A78002A48D0EA5A002A45D0F85A904227
:10AEC00042D9914540DAF25202330131A342EFD127
:10AED000B42200215200404608F0DEFF464C2368B1
:10AEE0005A1C0A2B5FD0534622600427DF5F434B76
:10AEF000B1461B689B461D00002398466933FF330B
:10AF00009A4608E001239C460133E0449C46013503
:10AF1000E144D04545D04B461B88BB42F2DA5B4644
:10AF2000002BEFDD444602E00134AC42EAD0B4210C
:10AF30002000490007F05CF94900735A9F42F3DA98
:10AF40004B462F4A1A80DDE72D4A0131F252023377
:10AF5000A342ADD1BCE720212A4B1A68936919425C
:10AF6000FCD1A523202113600800936918401942E1
:10AF7000FAD1254B11601870244B187004F024FE90
:10AF80000023144A801859410B0080210200090651
:10AF90008B4202D301220A4B52420CC402232B7073
:10AFA0000FE701200EE7FFF76FFE00229BE7C04688
:10AFB0009C2D0020681B002000400540A086010059
:10AFC000FFFFFF7F74690020E0280210841902103F
:10AFD0007419021040420F00E05A00206419021058
:10AFE00000093D0044140020405500204C5C002026
:10AFF00070520020944F0020E03D002058140020A3
:10B00000E02E0000485C0020736900207269002077
:10B0100010B5034B034819780AF08EF910BDC046ED
:10B020007469002094190210014B18707047C046D3
:10B0300074690020F0B5CE464746040003000D00B9
:10B04000002180B587B016000091021D210038480C
:10B05000083309F01FFA002804D107B0C0BCB94674
:10B06000B046F0BD636827689846A3680124AC40E9
:10B070009946220023004146380009F0A9FB22002E
:10B0800023004146380009F0F7FB2A4B2800F91845
:10B090004B1E9941063103F083FD80235B0202932E
:10B0A0004B464A460333D2011B031343224A052071
:10B0B00013408022D2051343204A0393204B2A4099
:10B0C0001343AD022B4305931E4B049305F0FCFA8A
:10B0D00008F05BFC041CF00008F057FC011C201C6D
:10B0E00008F0EDFB051C08F0A9FC84B20023002C3D
:10B0F0000ED0200008F049FC011C281C08F0D9FBE8
:10B100008721C90508F0EFFB08F098FCC3B21B02C9
:10B1100024044A4641461C43380002AB029409F01D
:10B1200053FC012341468B403A6813433B6094E74C
:10B13000F82802100000E0AFFFFFFF9FFF83FFFF32
:10B140000000104000000C4010B504684068012267
:10B15000030010339A4063681A42FCD10430800027
:10B16000015110BD0EC8064810B58446042482B0B3
:10B1700061440448090D00940AF0DEF802B010BDE5
:10B180000000E0AFA819021010B50378282B48D0B2
:10B1900006D9292B37D0642B01D10AF08BFE10BDC4
:10B1A0000A2B0FD0142BFAD1264BC1781C68837858
:10B1B00009041B060B4301794278090292000B43F4
:10B1C0001351ECE74378002B39D01F4B1A681D4B05
:10B1D00019684807C30F002800DA0A602C2495205C
:10B1E000FF34E41A9B00CB18C00018181A605A608C
:10B1F00008339842FAD195235B009C42CFD0952327
:10B20000DB00CA50CBE7837842781B021343C27835
:10B2100012041A4303791B0613430B4A1BBA13602B
:10B22000BDE7837842781B021343C27812041A43A5
:10B2300003791B061343054A1BBA1360AFE7034BA0
:10B240001A68C4E76814002064140020883F0020B6
:10B2500010B50021022003F0CDFC002102200AF0ED
:10B2600061FD10BD70B5164B164C5A6A616800201E
:10B270002568914220D89B6AAB421ED304F0A4FCFF
:10B280000023114A801859410B0080210200090651
:10B290008B4202D301220D4B52420CC496230C491F
:10B2A000DB00CC181A00200008F0FCFD96212000DD
:10B2B00049000AF0BFFD012070BD9142DED1FBE7DD
:10B2C00000400540601B002010270000FFFFFF7FAB
:10B2D000104600204268024B9B1899717047C04687
:10B2E0000041002070B504AC26784568064C65190D
:10B2F0002972416861184A724268A21893724368C1
:10B30000E418E67270BDC04600410020F0B5464624
:10B310004F468846D6464549C0B506004046171CEC
:10B3200008F018FB002853D00021404608F028FB05
:10B33000002800D175E0404608F0B4FB04000D0081
:10B34000381C3B4908F006FB00284BD1C2239A4623
:10B3500028339946364F374B988907F051FA002227
:10B36000354B07F0C6F92B00220007F0E0F907F093
:10B3700083FA7268314B010A9954494672689A18E7
:10B38000507072689A18D17072689B1852461A7180
:10B3900009F042F8652009F047F884214046C905C4
:10B3A00008F0A1FA08F018FB00B209F049F884216E
:10B3B000381CC90508F097FA08F00EFB00B209F036
:10B3C0003FF809F05DF8E0BCBA46B146A846F0BDCA
:10B3D000164B00249846184D1549381C08F0BAFA47
:10B3E0000028B3D01649381C08F0CAFA002812D039
:10B3F000381C08F057FB134A134B07F098F9134B0E
:10B40000002207F06DF907F037FA030ADBB299461C
:10B41000C3B29A469FE73E239A46293B9946084F76
:10B4200099E70023002400259846D5E70000B4439F
:10B430000000B44244140020008076400041002007
:10B440000000B4C2ABAAAAAAAAFA72400000E04067
:10B4500070B5541A82B005000E0001940F2C0FD85D
:10B4600003681800012C08D10A781A702B68002193
:10B47000019A6A60995402B070BD002CF7D006E0C2
:10B48000002201A90BF08CFF019B2860AB60220019
:10B49000310008F007FD2B68E9E7C046F8B50AF06F
:10B4A000DDFB08220A212648FDF7A8FC0023254DD4
:10B4B000A0262B80244B254C9C4676016544200019
:10B4C00008F068FA224908F00EFA08F0F5FA214966
:10B4D00008F009FA08F080FA2F1902343880B442D3
:10B4E000EDD10E2003F096FBD02480232406DB014F
:10B4F000A362002201210E2003F06AFB0B2003F05F
:10B5000089FB80231B016362A361134B042219682A
:10B510001248FFF797F9052003F07CFB20236362B4
:10B52000A361FFF795FE0E4B0D211A680C20FFF763
:10B5300073FBC82004F05CFA0120FFF775FDF8BD2D
:10B54000381D0020C02D002000FCFFFF0204000079
:10B55000DB0FC93A00FEFF4674140020EC400020C7
:10B5600078140020F8B5DE464E4657464546E0B50D
:10B5700008F052FF642008F057FF08F081FF974E53
:10B58000974BF458974BF3189C4275D09846BD23BF
:10B59000DB009A46944BB244994605E020000BF03C
:10B5A00061FC0400404567D0904925698C46AF0096
:10B5B0007B19DB00F21862441278002AEED0D22206
:10B5C000D2009446F318634403CB002900D1D4E0A1
:10B5D000FA220023920006F071FEFA235B009B46DC
:10B5E000834404F0F1FA002900D1C1E0FA220023DB
:10B5F000920006F063FE8345D0D2D322D200944657
:10B600007B19DB00F318634403CB002900D1D3E09E
:10B61000FA220023920006F051FE0700F537FF37AB
:10B6200004F0D2FA002900D1D2E0FA2200239200DD
:10B6300006F044FE8742B1D32900504601F070FA6B
:10B6400007004845AAD008F0E7FE6E2008F0ECFE9F
:10B65000E8B208F0E9FE388808F002FF788808F0C0
:10B66000FFFEB88808F0FCFE08F00AFF20000BF08F
:10B67000F9FB0400404597D15D4BF4585D4BF3183E
:10B680009C426FD098465C4B43449A46564B994631
:10B6900005E020000BF0E6FB0400404562D057496E
:10B6A00025698C466F007B191B01F21862441278E1
:10B6B000002AEED09D2212019446F318634403CB76
:10B6C000002964D0FA220023920006F0F7FDFA2345
:10B6D0005B009B46834404F077FA002952D0FA229B
:10B6E0000023920006F0EAFD8345D2D2444A7B193A
:10B6F00094461B01F318634403CB00294CD0FA2273
:10B700000023920006F0DAFD0700F537FF3704F05A
:10B710005BFA00294BD0FA220023920006F0CEFDFE
:10B720008742B6D32900504601F00CFA070048457D
:10B73000AFD008F071FE6F2008F076FEE8B208F096
:10B7400073FE388808F08CFE788808F089FEB88887
:10B7500008F086FE08F094FE20000BF083FB040046
:10B7600040459CD1F0BCBB46B246A946A046F8BDB8
:10B77000FA21890006F064FD3DE7FA21890006F010
:10B780005FFD2AE7FA21890006F05AFDACE7FA21AD
:10B79000890006F055FD9AE7FA21890006F050FD70
:10B7A0000700F537FF3704F00FFA0029B3D1FA216B
:10B7B000890006F045FDB3E7FA21890006F040FD57
:10B7C0000700F537FF3704F0FFF9002900D02CE718
:10B7D000FA21890006F034FD2CE7C046381D002010
:10B7E000B4090000AC090000485E00208E0600008D
:10B7F000940D00008C0D00005CF8FFFFCE090000E6
:10B80000D8090000F8B55A4C5A4B61685A6A20684A
:10B81000914226D89B6A834265D30121564A137808
:10B820004B40137067D0D02380221B0692045A61CC
:10B83000524B1D6804F0C8F9FA2206000F000023DD
:10B8400092002800002108F017F8801979410B00B8
:10B850008021020009068B4202D30122484B52424A
:10B860000CC4D0231B065A6846490B68520431D5D4
:10B87000002B4BDD013B0B60434B1978434B1A788F
:10B880008A4203D04248197008F076FD04F09CF912
:10B89000404C20606160FFF781FA002859D104F024
:10B8A00093F93D4C3D4D206061602800FEF702FC9D
:10B8B000002844D104F088F9394C20606160FFF71A
:10B8C000D1FC00282ED1374C2000FFF721F80028AA
:10B8D00021D1F8BDFA229200934212DA01330B60B3
:10B8E000294B1978CAE79142BBD00121224A13782B
:10B8F0004B40137097D1D02380221B0692049A618B
:10B9000096E70122204B01211A70B7E700221E4B57
:10B9100000211A70B2E78022200023495200FEF76E
:10B92000C7FFD6E72800FDF71DF82668676804F012
:10B930004BF9801BB941236918182061C3E72668B9
:10B94000676804F041F9801BB94123691818206128
:10B95000B0E71649164800F033FC2668676804F023
:10B9600033F9801BB94123691818206197E7C04655
:10B97000701B002000400540666900207C140020F8
:10B98000FFFFFF7F8C4000206A6900206B69002068
:10B99000C4190210082B0020D82A0020381D0020CE
:10B9A000382B0020EC4000200041002040550020B2
:10B9B00020230020F0B585B00A0001A90C00114B2E
:10B9C000E0CBE0C40378452B08D00A2A04D90B2227
:10B9D00013F0F2FE002806D005B0F0BD411C0A4865
:10B9E00008F0CAFCF8E7094808F036FBFFF782F8D0
:10B9F000FA20400003F0FCFF0AF03EF9FFF760F880
:10BA0000EAE7C046E4190210CC190210D41902105A
:10BA1000B42110B5034889000AF0C2F80248FCF7C7
:10BA2000F3FB10BD944F002044140020F0B5070034
:10BA3000083704000E0083B00760002925D00800F5
:10BA400015F078F90500030001900F280CD80128A3
:10BA500007D132782272002220006360FA5403B0CA
:10BA6000F0BD0028F7D008E00022200001A90BF06B
:10BA700097FC0700019B2060A36038002A0031007A
:10BA800008F010FA019B2768E5E701480BF058FC25
:10BA9000F019021001221F4B524200B59A60002299
:10BAA00089B01A741C4901AA02A8FFF7BFFF1B48FE
:10BAB00002990300039A1C3343618A181430FFF77C
:10BAC000C7FC02A80BF08AFC01AA154902A8FFF7DF
:10BAD000ADFF144802990300039A1C3343618A188E
:10BAE0001430FFF7B5FC02A80BF078FC01AA0E4950
:10BAF00002A8FFF79BFF0D4802990300039A1C332D
:10BB000043618A181430FFF7A3FC02A80BF066FC0F
:10BB100009B000BDEC400020241A0210382B002090
:10BB20002C1A0210082B0020341A0210D82A0020E8
:10BB3000F8B5CE46474680B504000D0008F030FC4D
:10BB40001E2807D96438C3B2682B0BD8CF4A9B0094
:10BB5000D3589F46002805D01E2803D8CC4A800021
:10BB600013589F46CB4808F007FC002D08D000264C
:10BB7000C94FA15D3800013608F0FEFBB542F8DC84
:10BB80000A2008F01DFAC0BCB946B046F8BD08F05E
:10BB900007FC8300C14A1B185B001360F3E708F041
:10BBA000FFFB0528EFD8BE4B80001B589F46B923EA
:10BBB000BC4F9B003D009C4600261435674408F0AE
:10BBC0002BFC142008F030FC2C00F0B208F02CFC08
:10BBD000143C2088023408F043FCAC42F9D11435FF
:10BBE00008F04EFC0136BD42E9D1CCE7B923AE4F97
:10BBF0009B003D009C4600261435674408F00CFC71
:10BC0000152008F011FC2C00F0B208F00DFC143CDB
:10BC10002088023408F024FCAC42F9D1143508F035
:10BC20002FFC0136BD42E9D1ADE7A04B984618691B
:10BC300006F0E2FD00229E4B06F079FD4346060029
:10BC40009C68DD680F0003F0BFFF001BA94106F0F0
:10BC50002BFE02000B003000390006F04AFD06F012
:10BC60002FFE07F01FFF0B00414602009148496973
:10BC7000804609F061FB904B9946186906F0BCFDBF
:10BC800000228B4B06F053FD4B4606009C68DD6896
:10BC90000F0003F099FF001BA94106F005FE02000A
:10BCA0000B003000390006F024FD06F009FE07F015
:10BCB000F9FE0B00494602004969404609F03CFB89
:10BCC0007E4B9946186906F097FD0022784B06F0E6
:10BCD0002EFD4B4606009C68DD680F0003F074FFE4
:10BCE000001BA94106F0E0FD02000B003000390006
:10BCF00006F0FFFC06F0E4FD07F0D4FE0B00494619
:10BD000002004969404609F017FB3CE70024674DF3
:10BD10002C6103F059FFA860E960674D2C6103F0C6
:10BD200053FFA860E960654D2C6103F04DFFA860EA
:10BD3000E96028E7013D6248EAB2611CFCF76AFA53
:10BD400021E7013D5F48EAB2611CFCF7B9FE1AE742
:10BD5000B9235D4F9B003D009C4600261435674487
:10BD600008F05AFB162008F05FFB2C00F0B208F038
:10BD70005BFB143C2088023408F072FBAC42F9D122
:10BD8000143508F07DFB0136BD42E9D1FBE6013DEB
:10BD9000E9B2601CFFF7F8F9F5E64C48FEF7D6FD6E
:10BDA000F1E64848FDF706F8EDE64648FCF7D6FD13
:10BDB000E9E608F019FB464B1860E4E608F014FBCE
:10BDC000444B1860DFE608F00FFB434B1860DAE6DF
:10BDD00009F000FBD7E63D48FEF7B4FDD3E608F0D6
:10BDE00003FB3E4B01001A5C3D4808F0C5FACAE669
:10BDF00008F0FAFA06F004FD00223A4B06F097FC30
:10BE000006F05EFD041C08F0D9FA06F0F9FC0022E9
:10BE1000344B06F08CFC06F053FD334B021C211C06
:10BE20001800FFF773FAAEE608F0DEFA040008F037
:10BE3000B7FA2A4B1855A6E6FFF794FBA3E622496A
:10BE40002A4801F047FA9EE61E48FCF7BDFF9AE635
:10BE50001C48FDF7E9FF96E60320FFF7E5F892E6B8
:10BE6000FEF75AFE8FE6FEF72BFE0220FFF7DCF806
:10BE700089E6FEF73FFE0020FFF7D6F883E6FEF7DF
:10BE80000DFE80E6FFF7C4F87DE6C0461C290210CF
:10BE9000C02A0210581A0210601A02107C140020E6
:10BEA0003C2B021070520020944F0020382B0020B1
:10BEB000000059403C1A0210082B0020D82A00200C
:10BEC00044140020381D002040550020EC40002084
:10BED0005414002058140020601400200041002059
:10BEE0004C1A02100000A03F6C14002020230020F8
:10BEF000F8B54746CE468468031D80B588460700DE
:10BF000099460D68002C05D132E0A3680126002B6C
:10BF100007D01C0022699542F7DBE3680026002B5E
:10BF2000F7D1002E1CD1AA4216DAA14524D02269ED
:10BF30000123954200DB0023DDB2142007F0B8FF97
:10BF400043461B680100036122004B4628000AF0AB
:10BF5000BDFF7B6901337B61C0BCB946B046F8BD0B
:10BF6000FB689C42E1D020000AF094FF0269DAE706
:10BF7000C3684C469945F6D10125DEE7F0B5C646C3
:10BF8000040000B514200D0007F092FF236906009D
:10BF9000036123784560037000238360C360E06819
:10BFA000002803D03100FFF7E9FFF060A568002DFD
:10BFB0001ED0002337009846142007F079FF2B6924
:10BFC000040003612B78037043468360C360B8604C
:10BFD0004760E868002808D02100FFF7CFFFE06045
:10BFE000AD68002D04D02700E6E7AD68002DFAD13A
:10BFF000300080BCB846F0BDF0B5DE4657464E4630
:10C000004546E0B583B00190002876D0019BDB68FF
:10C010009946002B68D04B46DB689A46002B59D0D6
:10C020005346DB689B46002B4AD05B46DC68002CFD
:10C0300032D0E568002D1DD0EB689846002B22D049
:10C040004346DE68002E31D0F768002F09D0F8682B
:10C05000FFF7D2FF3800BF68142107F031FF002F2F
:10C06000F5D1B7681421300007F02AFF002F1DD04A
:10C070003E00E9E7A5681421200007F021FF002D0C
:10C080000AD02C00D5E7AE681421280007F018FF6D
:10C09000002EEFD03500CFE75B469C681421584650
:10C0A00007F00EFF002C0BD0A346BEE743469E6868
:10C0B0001421404607F004FF002EE4D0B046BFE74D
:10C0C00053469C681421504607F0FAFE002C01D01C
:10C0D000A246A5E74B469C681421484607F0F0FEAF
:10C0E000002C01D0A14696E701981421846807F03E
:10C0F000E7FE002C01D0019488E703B0F0BCBB46FA
:10C10000B246A946A046F0BDF0B5C6468368050014
:10C110009C4600B5071D002B4AD03E001C0002E0E3
:10C12000E468002C07D023699942F9DCA26812DA8E
:10C130002600141EF7D1EB68B34209D1B74207D1EC
:10C140006046FFF759FF0023EF60AB602F616B6122
:10C1500080BCB846F0BDE368002A06D01069814271
:10C1600024DC14009268002AF8D1002B06D01A694A
:10C17000914219DA1E009B68002BF8D1EB689C42B3
:10C180000FD119E020000AF06DFEA046390004002E
:10C1900040460AF05DFF142107F092FE6B69013BF7
:10C1A0006B61B442EED1D3E7DB68DEE7D268D3E758
:10C1B000C3689F42C4D0CBE7B742F2D1C0E7C046C4
:10C1C000F0B5982357464E464546DE460A00E0B590
:10C1D000C1500021B425083B734EC1508246002750
:10C1E00000240423F05E8DB06D0006E00137062FB9
:10C1F00000D17DE00134AC4207D06300D35A8342C2
:10C20000F4DA01340027AC42F7D10821735E002133
:10C210000393B4235B0099460023A144884602910E
:10C22000494699465346002582469346009101931C
:10C230000AE0002D56D101230027984602910135CE
:10C24000009B01349C4235D0B4212000490005F008
:10C25000CFFF5A464B009E5AB245EADC0137002D0B
:10C26000EED0042F3FDD4B46132B47DC42465D00EA
:10C27000019B4D449C46D00F029A6D006544944644
:10C280004044039A40106044B421944649006044FD
:10C2900005F0AEFFC822AA83C73A9446E144298339
:10C2A0004946019B8F326E839950009B01340025D3
:10C2B0009C42C9D1019B4A469A4606AB9B46002345
:10C2C000594607AE0B718B60CE600E614B61002A40
:10C2D00020DC524613600DB0F0BCBB46B246A94606
:10C2E000A046F0BD002701239C460125E044A7E7B6
:10C2F0006821FF318C4200D087E7ECE7019B07AE55
:10C300009A4606AB9B4600235A4613719360D6604B
:10C310001661536100235746994618379033984663
:10C320003B004F4699464B461D8834000595B44264
:10C3300006D122E020000AF095FD0400B0421CD096
:10C34000E1239B009C46B42120694900281A6044DF
:10C3500005F04EFF83396229ECD8062342469C46FD
:10C3600053469B580137E144BB420BDD5B46DC681A
:10C370004B461D880595B442E2D1584605A9FFF702
:10C38000B7FDEAE75B4652469C685B691360002C88
:10C39000A1D0E068FFF730FE2000A468142107F068
:10C3A0008FFD002CF5D196E744140020F8B5F0235A
:10C3B0009B004E46994681444B46DC68F1239B0026
:10C3C00045469846DE4657468044E0B50600A045FF
:10C3D00025D000239A462769BD00EB19DB00F3182E
:10C3E000B03303CB002900D172E0FA22002392007F
:10C3F00005F064FFFA235B019B46834403F0E4FBF2
:10C40000002945D0FA220023920005F057FF83450A
:10C4100044D320000AF026FD04008045DBD1F4233C
:10C42000DB009946B1444B46DC683F4B9846B0442C
:10C43000444527D000239A46FC229200944627695F
:10C440007D00EB191B01F318634403CB002966D070
:10C45000FA220023920005F031FFFA235B019B468C
:10C46000834403F0B1FB002937D0FA220023920065
:10C4700005F024FF834536D320000AF0F3FC0400C6
:10C480004045D9D1F0BCBB46B246A946A046F8BD4E
:10C49000FA21890005F0D4FE8345BAD25346ED193E
:10C4A000ED007519A6352B7020000AF0DBFC414623
:10C4B000050020000AF0CCFD142107F001FD4B46D9
:10C4C0004A465B69013B5361A845A8D02C0082E72E
:10C4D000FA21890005F0B4FE8CE7FA21890005F005
:10C4E000AFFE8345C8D2114BED199C4653462D0132
:10C4F000751965442B7020000AF0B4FC4146050014
:10C5000020000AF0A5FD142107F0DAFC4B464A464C
:10C510005B69013B53614545B4D02C008CE7FA219F
:10C52000890005F08DFE98E7A4070000E6030000EF
:10C53000F023F0B54E468146DE4657464546F42187
:10C540009B004B44DA68F123E0B5C90093B049443D
:10C550000E91E0499B004B4449448B4609920C9351
:10C56000934200D132E101915FE0F82189008C46CD
:10C5700062444A4490464146A0334B445E889F88BB
:10C5800018880B889288C01A4C88009206F038F9F7
:10C59000D14AD24B06F0CBF80022D14B06F0A9F8D5
:10C5A00006F0B0F9330073430290039118002300A2
:10C5B0006343C01806F024F97443049005916000A9
:10C5C00006F01EF9029A039B06F0B1F802000B0078
:10C5D0000498059906F07BF806F07EF906F028F934
:10C5E000009ABB185B100022984202DDC01A0004BA
:10C5F000020CF62349469B00CB58934200DB3FE1F7
:10C600000A9901220B0040465B44DB004B44B833DF
:10C6100052421A601830FFF777FD09980AF022FCA1
:10C620000C9B0990834200D1CEE0099B1B699A00C4
:10C6300093464A460A935B44DB00D218B832156829
:10C640006A1C0CD0A748494684466A009246521993
:10C650001201891861440978002900D085E70E9BF2
:10C66000DF68019B9F4200D16DE10A9BBA465B44A3
:10C67000DB00A0334B445A880292524304921A883A
:10C680009B8806920793984B089301235B420B9378
:10C690005B460D935346F8221B6992009B469446D5
:10C6A0005B005B441B0163444B44598818888846EF
:10C6B00006999A88081A009206F0A2F8864A874BD3
:10C6C00006F035F80022864B06F013F806F01AF94A
:10C6D000060040460F00049940438C46604406F033
:10C6E0008FF8040040460D0002994843400006F0D0
:10C6F00087F832003B0006F01AF802000B00200019
:10C70000290005F0E4FF06F0E7F806F091F8079A33
:10C71000009B9446634400225B10984202DDC01ADD
:10C720000004020CF62349469B00CB58934205DDDA
:10C73000089B934202DD5B4608920B9350460AF039
:10C7400091FB019B82468342A4D10D9B9B460B9B90
:10C75000013300D1F7E00A9F3C005C44E4004C4404
:10C760002300A6331B78002B00D156E70B9A4B46CB
:10C770009446550065442D015E195A4BF3181B78F9
:10C78000002B00D149E72300B8331A6003F01CFAEC
:10C79000FE23C0349B009C4620606160300011A9DC
:10C7A00060441197FFF7A4FB03F00EFAFC239B00F3
:10C7B0009C4666443060716009980AF053FB0C9BFC
:10C7C0000990834200D030E7019B9B460E9BDB68BB
:10C7D0009B4500D1B0E01D005B464E46029307E04A
:10C7E00028000AF03FFB029B0500834200D1A3E032
:10C7F0002B6999465B001C009B46FE239B009C46D0
:10C800004C4424016444341963690193002BE7D03C
:10C81000E068231D9A46834200D11CE1002188462E
:10C82000B4398C46036900279A000692D218D200C8
:10C83000B218A03212880795944461460091B42141
:10C840008C4694446146A4464446E04604910699C9
:10C85000CB18DB00F318A2331B88A418FF180AF0CA
:10C8600001FB824542D00369009D9900CA18D2009D
:10C87000B218A0321288954225DD6932FF32E7E70F
:10C880000A9E34005C44E4004C442300A6331B7829
:10C89000002B00D1C1E603F097F9C034206061603D
:10C8A000404611A918301196FFF722FB03F08CF9CE
:10C8B000FC222B009200944653441B014B446344DA
:10C8C00018605960A9E6049D9542C1DA693AFF3AB9
:10C8D000BEE7C046A407000026E4839ECD2A094097
:10C8E00000806640E6030000E02E00004346A046BC
:10C8F000019940461C0005F0A3FCB4216930FF30CB
:10C90000490005F09DFC3800079D89B25B46F8227E
:10C910004B441B01F31892009A1811805E4A61691A
:10C920009F1805F08DFC388028000AF09BFA029BC6
:10C930000500834200D05BE713B0F0BCBB46B246B3
:10C94000A946A046F0BD0A9B5B44DB004B441A009D
:10C95000A6321278002A00D15FE6A83303CB002963
:10C9600000D17BE0FA220023920005F0A7FC04002E
:10C97000F534FF3403F028F9002900D17AE0FA22D7
:10C980000023920005F09AFC844200D345E60A9BFE
:10C990005B44DB004B44B03303CB00296FD0FA2259
:10C9A0000023920005F08AFC0400F534FF3403F004
:10C9B0000BF900296BD0FA220023920005F07EFCCF
:10C9C000844200D229E60E9B5B69142B00D124E639
:10C9D00000230021314A08000F9C11934A4404E0CF
:10C9E00001303032142850D0040019001378002B85
:10C9F000F6D10B900F94002900D011940B9B0121CC
:10CA00009C465C00F823644424019B00E218234BFD
:10CA10004C44E31819700A9B4A445B44DB004B44C6
:10CA20001900A031098811801900A2310988A433A6
:10CA300051801B88938003F0C7F8FC239B00E31808
:10CA400003C3FA239B009C46644403C40E9811A9B7
:10CA5000FFF74EFA7FE60020002157E7FA21890010
:10CA600005F0EEFB0400F534FF3403F0ADF80029C7
:10CA700000D084E7FA21890005F0E2FB84E7FA217F
:10CA8000890005F0DDFB04008FE70F94C5E5FA216E
:10CA9000890005F0D5FB93E7E2030000E603000000
:10CAA0000368426870B504009A4225D082689342B8
:10CAB0000FD1174B0569596A4069884208D89B6AAB
:10CAC000AB4222D3134B62601A685B6822616361D8
:10CAD00070BD836003F078F800230F4A8018594135
:10CAE0000B008021020009068B4202D301220B4B6E
:10CAF000524222616361EBE7064B1A685B68026190
:10CB0000436101235B428360E2E78842DAD1DFE7D9
:10CB100000400540102C021060E31600FFFFFF7F6D
:10CB2000132907D88B005B18DB00C218A6321278D5
:10CB3000002A01D102487047A033C018FBE7C04665
:10CB4000485E0020132909D84B005B1807491B01D8
:10CB50008C46C21862441278002A01D104487047FA
:10CB6000F822920094466344C018F8E7E6030000F8
:10CB7000485E0020F8B59023C3580E001700002B24
:10CB80001BDD5D00ED1818306D000400451902E052
:10CB90000634A54211D0E1239B009C46B421208895
:10CBA0004900801B604405F023FBB439CB17C9183A
:10CBB0005940B942ECDA012000E00020F8BDC0463F
:10CBC000F0B557464546DE464E46E0B583B00768A9
:10CBD000009343689346DA1BD2109A46D3009B1801
:10CBE0000D0099015B18DB009B18D9035B18DB0073
:10CBF0009B183F4A5B428046934200D174E0EE1B93
:10CC0000574563D059008B4255D8002961D1002384
:10CC10003824994601935B461B684E449B46062286
:10CC20003000009907F03EF95B46B36001235B4298
:10CC3000F360AF4216D04E463C002100300038224F
:10CC4000383407F02FF93836AC42F6D12A00383A9A
:10CC5000284BD21BD2085343DB00DC081C1BE4002A
:10CC600070344C44AA4511D053465E1B383E214BCC
:10CC7000F6087343DB00DB080133DE00F61AF6002A
:10CC800020003200290007F00DF9A419002F05D06B
:10CC9000434699683800C91B07F012F943464A46D3
:10CCA0001A60019A5C609A6003B0F0BCBB46B24661
:10CCB000A946A046F0BD104C200007F0F9F823006B
:10CCC000814604004B4401933834A4E7591C0133D6
:10CCD000F1D2914203D8CB005B1ADC00ECE71100E3
:10CCE000CB005B1ADC00E7E704480AF041FBC046D2
:10CCF00092244902B76DDB16F0FFFF7F641A021021
:10CD0000F8B54E4657464546DE460368E0B54768E7
:10CD10001400FA1AD2109846D3009B180E009901FD
:10CD20005B18DB009B18D9035B18DB009B18444A97
:10CD30005B428146934200D17EE04146751AB84578
:10CD400062D059008B424DD800296DD12100382284
:10CD5000280007F0A7F8002338249B469A46B045E0
:10CD600019D055464446210028003822383407F0AF
:10CD700099F83835B442F6D132004346383AD21ADF
:10CD8000304BD2085343DB00DC081C1BE40070343A
:10CD90005444B74210D0BF1B2A4B383FFF087B4397
:10CDA000DB00DB080133DD00ED1AED0020002A0076
:10CDB000310007F077F864194346002B06D04B4644
:10CDC000996843464046C91A07F07AF84B465246DE
:10CDD0001A605A465C609A60F0BCBB46B246A946EF
:10CDE000A046F8BD184B9B46584607F061F88246AE
:10CDF0002800210054463822504407F053F8D34409
:10CE00003834B045ADD1C4E7591C0133EAD2914260
:10CE100004D8CB005B1ADB009B46E5E71100CB0092
:10CE20005B1ADB009B46DFE7914200D91100CB0083
:10CE3000591ACB009B46D7E704480AF099FAC04636
:10CE400092244902B76DDB16F0FFFF7F641A0210CF
:10CE5000F0B54546DE4657464E46E0B50023020093
:10CE6000A1B0002109900020149318931A939033D5
:10CE7000D35812901391984616901791002B00DC0E
:10CE800008E216001AAA002700240B9290221836F6
:10CE90000125B9469246370026006D424C4500D127
:10CEA000CEE139002000062206F0FCFFA660E56016
:10CEB0000136383413941A960637B045EEDC4F46E7
:10CEC000129B0D94FA1A0E920D9A0A93D21AD1104F
:10CED000CB005B1898011B18DB005B18D8031B18EC
:10CEE000DB005B185B429846099B002A00DCD8E116
:10CEF000F02189001A008C466244D76892460A9A4B
:10CF000000269346F12292009446634404935B46C4
:10CF100044460C970393049B0C9A934268D0039960
:10CF2000B0464B88A14605935B4306930B88079355
:10CF30008B8808930C9B9B460BE0C01A0834039B1C
:10CF40006200D052584609F08DFF049B834683420D
:10CF50004CD05B46099A1C699446A3001B19DB0060
:10CF6000A0336344188807999A88081A5D8802924A
:10CF700005F046FCCE4ACF4B05F0D9FB0022CE4B44
:10CF800005F0B7FB05F0BEFC060028000F0006996F
:10CF900068438C46604405F033FC0090019105998C
:10CFA0006943480005F02CFC32003B0005F0BFFB54
:10CFB00002000B000098019905F089FB05F08CFC3C
:10CFC00005F036FC089A029B944663445B10984235
:10CFD000B3DC23000021039A08335B0058469952C2
:10CFE00009F040FF049B83468342B2D146464C463B
:10CFF000039B013638330393A6428CDB00230B9A44
:10D000001BAF13719360536153469868D760002338
:10D010001761002813D03900FEF7B0FF03001A0093
:10D020009B68002BFBD103001D921A00DB68002BCC
:10D03000FBD153461E925B690B9A53611C900022F0
:10D040000A99934602920D9A8A4200D1C4E0524650
:10D0500000920D9A9246002B54D00A9B1E00534515
:10D0600000D101E10B9B3400DB68FA2599460023CF
:10D07000A0461E00AD00B9450ED048460269130017
:10D0800008335B001B5BAB4202DA1600A0461D00B2
:10D0900009F0E8FEB842F1D13834A245EBD143465D
:10D0A000B0461E00029B9B4500D1BFE05846382287
:10D0B000310006F0F7FE38239C46E3445B461793A5
:10D0C0005B4631004246383B3831DA608A4507D04A
:10D0D00053465A1A382A00DCD5E0300013F07AF9AA
:10D0E00038235B429C46E24453460B9C4146200059
:10D0F0001393FFF709F80A9B534500D1B7E0636922
:10D10000002BAAD153460D93009B169D9A46029B75
:10D110005B1B02935D451AD02E00A8465D46099F11
:10D12000F36830889C00E418E40023007188B2881A
:10D13000A033FB18188059809A8002F045FD3C19F5
:10D14000B034383620606160B542E9D145460A9B6B
:10D150000D9A1E0093423ED001239846099B00275A
:10D160009946AB460F9D53465B69142B00D1A5E051
:10D170004946002200231197A63104E001332831EB
:10D18000142B23D01D0010000A78002AF6D10028A5
:10D1900000D011959C00E418E40023004C442200C8
:10D1A0004146A63211703288A0334B441A807288EF
:10D1B0005A80B2889A8002F007FD2300A834B03369
:10D1C00003C303C4504611A9FEF792FE0D9B3836E7
:10D1D0009E42C8D15D46AB46099C2000FFF7A8F9E6
:10D1E0002000FFF7E3F80B9B9C68002C09D0E06857
:10D1F000FEF702FF2000A468142106F061FE002C57
:10D20000F5D15B46002B03D05846029906F058FE34
:10D210000A9B002B03D018000E9906F051FE21B096
:10D22000F0BCBB46B246A946A046F0BD5946320006
:10D2300016A8FFF765FD179B9B46189B02933FE7D7
:10D240003B0021000B9A12A8FFF7BAFC5246099B3B
:10D2500001369B58139C9846149B1A96994606379C
:10D26000464500DA1AE62AE6002398461AE75346AE
:10D270000D93009B169D9A46029B5B1B02935D4596
:10D2800000D049E7A8E7382A00D029E7300006F0A7
:10D2900009FE25E700230E930A930D931AAB0B9317
:10D2A0001300F0229200944663449A46A6E6C046D4
:10D2B00026E4839ECD2A0940008066400D9B3836C7
:10D2C0005D46B34200D186E70D9B3836B342FBD1B1
:10D2D000AB4681E7F0B5DE464E46574645469823B5
:10D2E0000022E0B5C150083BC2500433C35889B096
:10D2F00006901804000C9946884605F081FA002231
:10D30000A44B05F014FAA44B049005910793042252
:10D310009B5E00260293FA239B00019301235B424C
:10D320009A4616E0B421701C490004F061FF534690
:10D3300001335A1E934152465B421A400E009246F8
:10D34000564500D199E0019B013B0193002B00D190
:10D350000BE1424673009F5A029BBB42E2DD38005C
:10D3600005F04EFA8D4A8E4B05F0E1F90B000200F4
:10D370000498059905F0BDF905F07EFA80B24308DE
:10D380003000B42168304900FF30039304F030FFCF
:10D39000B14200D1EEE000231C00039BFA259B461E
:10D3A00033000096AD004E4699460FE00134A34588
:10D3B0006DDD6831FF310800B421490004F018FF29
:10D3C00049450FD0013D002D00D1C4E042464B003D
:10D3D0009B5ADB1BDA179B1853409E42E6DD002464
:10D3E0000091E6E74B46B1461E0001339B46B4214F
:10D3F0005846490004F0FCFE53460D00013330D07E
:10D40000AA452ED000233200FA241E00039B2900D7
:10D4100093464D46A40099460EE00136B14500DC26
:10D4200085E0481CB421490004F0E2FE8A4515D08D
:10D43000013C002C00D193E042464B009B5ADB1B81
:10D44000DA179B1853409D42E7DD8B46481CB421F8
:10D450004900002604F0CCFE8A45E9D1A9465E4683
:10D460000D00009BB421F01A87239B009C464900C5
:10D47000604404F0BDFEB4291CD10698FFF7E8FC17
:10D4800009B0F0BCBB46B246A946A046F0BD4B462B
:10D490000C00B421B1461E000133180049009B4620
:10D4A00004F0A6FE0D00B442A1D053460133A7D12B
:10D4B000A246A5E7AA46B439CB17CE185E40902203
:10D4C00006998C468B585C00581CE418009B64003D
:10D4D00088506444B4219C468346701060444900DF
:10D4E00004F086FE079B0820185E0818B421490046
:10D4F00004F07EFE300021837843678305F080F9D5
:10D50000264A274B05F013F9224B002205F0F1F8CB
:10D5100005F0B2F95B46A083142B37D0AA45ACD0F6
:10D52000B421681C490004F063FE0E0008E75E4663
:10D53000009BA946F01A87239B000D009C46B4214E
:10D540006044490004F054FEB429E7D0B439CB1745
:10D55000CE185E40B3E71349134807F0EDFE8FE79E
:10D560001249114807F0E8FE8AE711490E4807F012
:10D57000E3FE85E7B421701C490004F039FE5346F0
:10D580000D00013300D178E7009639E7094807F02C
:10D59000D3FE72E700806640441400206E861BF0C4
:10D5A000F9210940B01A0210941A0210BC1A021094
:10D5B000801A0210C81A0210F8B5CE4647461E005F
:10D5C000234B80B50700180099460D00140009F0A0
:10D5D00059FB204B9846002822D11F4B1800994632
:10D5E00009F050FB1D4F002826D121002A001C48BD
:10D5F0003E7008F0D1FD01211A4C3A0020604942EA
:10D60000404608F0F5FD00281FD00021206808F0F2
:10D6100077FF012008F00EFFC0BCB946B046F8BD48
:10D6200048461F6009F04AFB0B4B1800994609F069
:10D6300029FB0A4F0028D8D0042238000A4906F0F6
:10D6400031FC484609F03AFBCFE7084803F09CF963
:10D65000942D002088140020982D0020DC3D00200F
:10D66000801400208C5E0020B82E0210F01A0210E8
:10D6700010B504000B00032240210448FFF79CFF73
:10D68000034B04481C6009F0D1FA10BDC05D0000D6
:10D69000A02D002041E50010F0B5CE46474680B5EC
:10D6A00085B0040006F07CFE032800D17BE033D86F
:10D6B000012800D17FE0022829D106F07FFE06F084
:10D6C00069F98A21C90506F00EF98F21C90506F00E
:10D6D0000AF9DE4906F0F3F806F07EF9A06006F0DC
:10D6E0006DFE206106F06AFE06F054F98A21C90534
:10D6F00006F0F9F88F21C90506F0F5F8D34906F0D0
:10D70000DEF806F069F9606206F058FEE06205B0E6
:10D71000C0BCB946B046F0BD0428F8D106F040FEC2
:10D72000050006F04BFE804606F048FE814606F0F6
:10D7300045FE022D00D18CE050D8002D00D1C4E16F
:10D740004346002B00DCA7E1A423C14A9B00E31859
:10D75000DA6000227820BF491A61013218605960EE
:10D760001A75AC23C820BC499B00E318000218605E
:10D7700059609C23B94A9B00E25002F025FA9C2391
:10D780009B009C460023B64A6444801859410B0014
:10D790008021020009068B4202D30122B14B524282
:10D7A000A264E364B3E706F0FBFD0528AFD8AE4BF7
:10D7B00080001B589F46206806F074F9AB4AAC4BBA
:10D7C00004000D0004F0B3FF0B00AA49020000940E
:10D7D0000195A948029107F0AFFD98E7032D96D176
:10D7E00002F0F2F9BA23FA229B0006000F00920021
:10D7F00040460021E518002306F03EF880197941E3
:10D800000B008021020009068B4202D30122954BB6
:10D810005242AA67EB6702F0D7F9DA2306004046C6
:10D820009B00FA229C46F5300F0000239200002155
:10D83000FF30644406F020F8801979410B00802104
:10D84000020009068B4202D30122864B52420CC4CD
:10D850005DE7404606F09EF88A21C90506F043F8C8
:10D860008F21C90506F03FF8784906F028F806F040
:10D87000B3F8B0239B00E05002F0A6F9B0239B0060
:10D880009C46FA2206000F0000234846644492009A
:10D89000002105F0F1FF801979410B008021020081
:10D8A00009068B4202D301226E4B5242226263620E
:10D8B0002DE702F089F90023704A801859410B00C6
:10D8C0008021020009068B4202D30122654B52429D
:10D8D000226663661BE706F071FD060006F06EFD2A
:10D8E000050006F06BFDA4239B00E718594B80460A
:10D8F0007B60A4239B00E6507308002B00DC01230F
:10D9000080205900C918C900400404F071FC0023AC
:10D910003B6101333B759C239B00F860E7182B02A9
:10D920003B6443465649980304F062FCE9176B0BCD
:10D93000C904534A78641943E804002304F0A6FCA0
:10D940009C239B00E05002F03FF9FA2204000D00F6
:10D95000002392000021700005F08EFF001969413C
:10D960000B008021020009068B4202D301223D4BAD
:10D970005242BA64FB64CAE606F020FD060006F0D7
:10D980001DFD0500300006F005F88A21C90505F0E7
:10D99000AAFF8F21C90505F0A6FF2C4905F08FFFCE
:10D9A00006F01AF8B0239B00E05002F00DF9B02306
:10D9B0009B009C46FA2206000F00002328006444C6
:10D9C000920065E706F0FAFC804606F0F7FC0700D7
:10D9D00006F0F4FC060006F0F1FC0500404605F0F8
:10D9E000D9FF8A21C90505F07EFF8F21C90505F001
:10D9F0007AFF164905F063FF05F0EEFF9B239B00BD
:10DA0000A060E750300004F0FBFE1E4A1E4B04F0FD
:10DA10008EFE00221D4B04F06CFE02000B00002065
:10DA20001B4904F054FE00221A4B04F080FE04F05F
:10DA300023FF021C80B2FF2800D9FF2223004033BD
:10DA40009A809A239B00E55061E6C0460080BB4661
:10DA5000822D000022220200550D0000111100004D
:10DA600080A90300FFFFFF7F542B021033333333B1
:10DA70003333A33F6A0A00001C1B0210801A060001
:10DA8000C05D00006E861BF0F92119400070D74080
:10DA90000000F03F00007040A423134A9B00E318ED
:10DAA000DA600022782011491A6101321860596049
:10DAB0001A75AC23FA200E499B00E3188002186007
:10DAC00059609C230B4A9B0056E602F07DF8FA222F
:10DAD00006000F00002340460021920005F0CCFE16
