:020000041000EA
:1080000000200420F7800010C3800010C5800010FD
:10801000C1800010C1800010C1800010C18000101C
:10802000C1800010C1800010C1800010C780001006
:10803000C1800010C1800010C9800010CB800010EA
:10804000CD800010CD800010CD800010CD800010BC
:10805000CD800010CD800010CD800010CD800010AC
:10806000CD800010CD800010CD800010CD8000109C
:10807000CD800010CD800010CD800010CD8000108C
:10808000CD800010CD800010CD800010CD8000107C
:10809000CD800010CD800010CD800010CD8000106C
:1080A000CD800010CD800010CD800010CD8000105C
:1080B000CD800010CD800010CD800010CD8000104C
:1080C00000BE00BE00BE00BE00BE00BEEFF30580D5
:1080D000103800BEF2EB88713CF7011058F7011020
:1080E0003481001090A31AE700201F49086006C8D9
:1080F00081F3088810471D48006800282FD10DA47F
:108100000ECC002902D000F012F8F9E71849194AFC
:10811000002000E001C19142FCD11749884717496E
:1081200088471749884700BEFDE701C901C29A4246
:10813000FBD3704758F70110C0000020601B0020DF
:10814000F81102100000042000000420F8110210B1
:1081500000100420001004200000000070470948AF
:1081600006F0AEFC0047000008ED00E0000000D083
:10817000601B002020530020B1D10010A911011074
:10818000E5D200105756000006005250ABB36053C2
:1081900030D1011006005250861C030240D101105C
:1081A000060052505422A29D44D1011005005250A5
:1081B000DE65F468F8110210F8B5C04606480749B4
:1081C000091A8B10C90FC91810B5491003D0044BF8
:1081D000002B00D0984710BD601B0020601B0020C2
:1081E00000000000054B10B5002B03D004490548E2
:1081F00000E000BFFFF7E2FF10BDC0460000000036
:10820000A047002000CF011010B50E2109F094FB0B
:1082100010BDC04670B584B0040007F061FF0728A8
:108220002DD8002829D0072800D977E04A4A8000B5
:1082300013589F4607F062FF484960804B07DA0FEA
:10824000002B00DB84E0464B0B600233FF332C260F
:108250009520FF36B61A92008A18C000404C404D57
:10826000101830C29042FCD195222B33FF335200BC
:10827000964202D03A4A9B00CA5004B070BD6428AE
:1082800038D06528F9D107F067FFC82007F06CFFE8
:108290000023E05E07F074FF0223E05E07F070FF4A
:1082A0000423E05E07F06CFF0623E05E07F068FF42
:1082B0000823E05E07F064FF0A23E05E07F060FF3A
:1082C000A08907F06DFF07F07BFFD6E707F02CFFD2
:1082D000A081D2E707F012FFA080CEE707F00EFFE3
:1082E000E080CAE707F00AFF2081C6E707F006FF33
:1082F0006081C2E7A5890422A35E0221625E218813
:1083000003950A26A55F174802950826A55F0195E3
:108310000625645F009408F0DBFEAEE707F004FF7B
:108320000E4920804B07DA0F002B13DA0C4B0B6041
:108330000233FF332C269520FF36B61A92008A1896
:10834000C000074C064D101830C29042FCD18BE79C
:1083500000237CE70023EDE7DCDC0110C01C0020DB
:1083600000FFFFFF00CF01107047C046F0B5574631
:10837000DE4646468023C0B55B049A463C4B0E0061
:108380000500170000249B46017E82B018E00029FA
:1083900038D06B69AA689B1853453EDA01216B619E
:1083A0009B133A595A43D3179B059B0D9B1832597F
:1083B0009B12D3183351802304345B009C4250D06D
:1083C00002290AD0E3D96B69032904D12A699B1ACF
:1083D000002B1EDD6B619B13E3E753466B612B6A39
:1083E0006A6A98465B465B6A9A420FD85846806A2A
:1083F000404501D29A4209D003232B7680230321E2
:10840000DB00CEE7696100210023CAE78023DB009F
:10841000C7E700236B612B76F5E753466B616B680A
:10842000984604F083F8FA2200230090019192000C
:108430004046002107F0F0F9009A019B801859414D
:108440000B008021020009068B4202D30122094B56
:1084500052426B6202232B766B6902212A629B13C4
:108460009FE702B0E0BCBB46B246A846F0BDC0469E
:1084700000400540FFFFFF7F70B504000B4B0D006F
:108480005A6A616C006C914205D89B6A834200D3A2
:1084900070BD9142FCD12900201D02F0E1F92000BD
:1084A0002900203002F0DCF9F2E7C0460040054028
:1084B00010B50400202107F04BFC200010BDC04681
:1084C000F0B5DE46574645464E468022E0B50700E9
:1084D000C3B052000C0002A8002107F029FC381D8F
:1084E00002A902F08FF920239846B84443461A7E29
:1084F00080235B049A46424B02AD9B4642AE15E098
:10850000002A36D07B6BBA6A9B1853453DDA0122AC
:108510007B639B1302CD5943CB179B059B0D5B18C7
:1085200021689B12CB1808C4AE4253D0022A0AD04D
:10853000E6D97B6B032A04D1396B5B1A002B1FDD54
:108540007B639B13E6E753467B633B6C796C9946F0
:108550005B465B6A994210D85846806A484501D20A
:1085600099420AD003234246137680230322DB007C
:10857000D0E77A6300220023CCE78023DB00C9E741
:10858000002342467B631376F4E753467B637B6AA2
:10859000994603F0CBFFFA2200230090019192004C
:1085A0004846002107F038F9009A019B801859418C
:1085B0000B008021020009068B4202D30122114BDD
:1085C00052423A647B644246022313767B6B02225A
:1085D0009B139FE7B86CFB6C0B4AC018C117430B89
:1085E000C904B8641943C004002306F0E9FA7860AE
:1085F00043B0F0BCBB46B246A946A046F0BDC0465B
:1086000000400540FFFFFF7FC05D0000F0B557460A
:10861000DE464E464546E0B507005D4B0C005A6A03
:10862000F96C806CC5B0914200D9A6E09B6A834288
:1086300000D29FE080220021520004A807F078FBBE
:10864000380004A9543002F0DDF870239946B9448B
:108650004B461A7E44AB9A4680235B048426984698
:10866000CB4604AD15E0002A38D0BB59BA6F9B1831
:1086700043453FDA0122BB519B1302CD5943CB172F
:108680009B059B0D5B1821689B12CB1808C4AA455B
:1086900059D0022A0BD0E6D9BB59032A05D1802133
:1086A00079585B1A002B20DDBB519B13E5E743464D
:1086B000BB513B00903319685868354B8C46596A5A
:1086C00088420FD89B6A634501D288420AD00323AF
:1086D0005A46137680230322DB00CEE7BA510022EC
:1086E0000023CAE78023DB00C7E700235A46BB51BB
:1086F0001376F4E74346BB517B6F039303F016FFF9
:1087000090229146FA2200230090019192000021CC
:10871000039807F081F8009A019B801859410B00DB
:1087200080210200B94409068B4202D30122194B71
:10873000524249460A604B605A4602231376BB599F
:1087400002229B1399E798239C22F858BA58801864
:10875000C117F850C904430B0F4A1943C004002342
:1087600006F02EFA786545B0F0BCBB46B246A94685
:10877000A046F0BD914200D05CE7380021000C30EB
:1087800002F06EF838002100283002F069F851E755
:1087900000400540FFFFFF7FC05D0000F0B54E4682
:1087A000DE46574645469622E0B5614852000388AA
:1087B000914687B0934200D8B0E04A465D4E511EC4
:1087C0007307DB0F052900D8B0E0002B00D1ABE028
:1087D000F0210122490531604946F024F025CF1AE5
:1087E00079089B00F318C900C91864056D0530C3EA
:1087F0008B42FCD101233B421ED09F43BB18F0218A
:108800009C00490531515C1CA14515DDA400315186
:108810009C1CA14510DDA4003151DC1CA1450BDDE1
:10882000A40031511C1D4C4506DAA400053331511A
:108830004B4501DA9B00F1503F4B1968002966DD7A
:108840003E4B49001C689626E30F1B195B105B42E8
:1088500003930222835E4D460193394B76009A467C
:108860000B00534404934B4601339BB20593314BA9
:108870009B4653461C88019BB4219C46039F49009C
:10888000E01960440230684306F04CF9019BB421C2
:108890009C468146E01B60446843490006F042F96B
:1088A0004B4601330290984215DD4B46471EFF1A96
:1088B000059B00244B44984643462900181906F0AE
:1088C00031F9B14204D2FF225B4689001202CA503C
:1088D0000134A742F0D14B462900E81806F022F9EE
:1088E000B14203D2134B174A8900CA50029B290098
:1088F000E81806F017F9B14203D20E4B114A89006D
:10890000CA5002239C46049BE2449A45B1D107B069
:10891000F0BCBB46B246A946A046F0BD9BB2994604
:10892000002B00D049E787E7002255E7002366E7E0
:1089300044140020C01C0020CC4700207C140020E0
:10894000D04700200000FFFF70B505000E001400A6
:1089500007F0C6FB01280AD0022800D070BD28000D
:10896000013CE2B2711CD03002F072FBF6E7280045
:10897000013CE2B2711C283002F014F8EEE7C04668
:10898000284B294910B519632849002299634C21C5
:108990005A5227498024D9632649274819666821F5
:1089A0005A5226495864996525491A7019518421EB
:1089B000244C1A645C5004315A5004315850A020A1
:1089C00004315A5004315A5004315A5004315A502B
:1089D0001D499A6419500020B8211A655A65DA6554
:1089E0005A66DA661A6758541900D420D0311950E3
:1089F00004381950D821CF385A5010315850083106
:108A00005A5004315A500132FF32CC3999500F4B31
:108A10000F4A1A600F4A5A600F4A1A6100225A61BF
:108A20009A6110BD7021002028DD011004DD0110C5
:108A300088880800E0B1FFFF204E000011CA08003E
:108A40001CDD0110AAAA2A0010DD0110A44A002092
:108A500034DD01108813000000003442002310B5FB
:108A600000210370014801F085FA10BD6814002050
:108A700070B5084D04002800002101F07BFA2800A1
:108A80000022054901F092FA01232370002323619B
:108A900070BDC046681400200000344370B5040067
:108AA0002830150001F06AFF20002900D03002F0C4
:108AB000CFF9084D0021280001F05CFA28000022BF
:108AC000054901F073FA0123237000232361034B4E
:108AD000636270BD6814002000003443A44A002083
:108AE000F0B5D64646464F46C0B50400416982B04F
:108AF000806806F0B1FEA669E168A060071C301C22
:108B000006F0AAFEC34DE0600A22AB5E804600215B
:108B1000301C9A4606F0FCFE002827D0504606F08E
:108B200001FF061C011C404606F0EAFE002830D179
:108B30005346584206F0F6FE81464146301C06F088
:108B4000E7FE002800D046464946301C06F0E0FE0D
:108B5000002800D14E46B048321C391C01F026FADC
:108B600002B0E0BCBA46B146A846F0BD53465842F2
:108B700006F0D8FE00218146301C06F0B3FE002826
:108B800000D1E9E04946404606F0B2FE002800D197
:108B9000E2E0381C06F0E8FE00210700404606F03F
:108BA000A1FE002806D03800B421B430490005F0F9
:108BB000B9FF0F00994B1B68002B00DCD1E05B0074
:108BC0009846974A974E1168B044CA0F52185210EF
:108BD000914603E00236464500D1C2E0B421308818
:108BE0004900C01BB43005F09DFFB439CB17C9183C
:108BF00059404945EEDC01218B4808F069FAE068EC
:108C0000002106F085FE0200531E9A410023874E84
:108C100000930121300002F0C9F830009621A830FD
:108C2000490002F043F9606806F078FA804B814A07
:108C300006F00BFA06F08AFA96236060DB00984291
:108C400000DAA9E0E269606001327B4BE26198469C
:108C5000E8234146C95C002A00DCD7E00B2A00DD8E
:108C6000B9E04046D2B2D03002F00CF90021A06940
:108C700006F04EFE002800D190E00A23E85E06F0E0
:108C80004DFA02000B0006F0B9F9802342465B0062
:108C90000600D0580F0006F041FA0B000200390020
:108CA000300006F0D2F9802306001B06CF1860685A
:108CB00006F034FA02000B003000390006F0A7F984
:108CC00006F074FAA061A66813F018F9C3175B0DDB
:108CD000C0184005400DC01A584BA7689C46604418
:108CE00006F020FEEA2181468905206906F0CBFDC9
:108CF000011C484606F0C7FD311C06F0ADFD06F02C
:108D000033FEB4235B00984261DD180006F00AFED2
:108D1000391C06F09EFD802342465B00061CD0589D
:108D200006F000FE011C301C06F0ADFD061C60685C
:108D300006F0F8FD011C301C06F091FD60610A236D
:108D4000ED5E280006F0EEFDE368061C68429846DA
:108D500006F0E8FD8146F0E6504606F0E3FD061C0D
:108D6000EBE60021304808F0B3F900232F4E002233
:108D700000930021300002F019F830009621A8304D
:108D8000490002F093F896236268DB009A4200DA09
:108D90006360E269013A58E7180053E70A23E85E86
:108DA00006F0BCF902000B0006F028F980234246C9
:108DB0005B000600D0580F0006F0B0F902000B006F
:108DC0003000390006F041F906000F006FE7C34399
:108DD000DB1718409AE744466822D034200002F09E
:108DE00051F8FA212000890002F060F80A4C0021B5
:108DF000200001F0BFF800222000114901F0D6F850
:108E000001234246137000231361A9E644466722FA
:108E1000D034E3E74414002068140020CC4700203D
:108E20007C140020D04700201CCF01109821002086
:108E30003333EB3F333333337021002000FCFFFF2B
:108E4000000034432F4BF0B500254360002383B06E
:108E5000C361C560040013F051F8B421490005F066
:108E600061FEB439080006F05DFD274B6561A06026
:108E70000A20185E06F052F902000B0006F0BEF858
:108E80008023224D5B000600E8580F0006F046F9EB
:108E900002000B003000390006F0D7F806006068C9
:108EA0000F0006F03BF902000B003000390006F01D
:108EB000AEF806F07BF9FF23A061154C00222000DC
:108EC00000930021002301F05DF820002C00E8262B
:108ED000D034802101F04EF865222000A95D01F018
:108EE000D1FF2000642101F0E1FF01222000A95DF3
:108EF00001F0C8FFFA212000490001F0D7FF03B0BC
:108F0000F0BDC046881300004414002070210020EA
:108F1000681400200323F0B5446A03702368324AC2
:108F20009B6883B093425BD1304B00256360002384
:108F3000E560E36112F0E2FFB421490005F0F2FDC3
:108F4000B439080006F0EEFC294B6561A0600A20E8
:108F5000185E06F0E3F802000B0006F04FF88023DD
:108F6000244D5B000600E8580F0006F0D7F8020019
:108F70000B003000390006F068F8060060680F004A
:108F800006F0CCF802000B003000390006F03FF884
:108F900006F00CF9FF23A061174C002220000021ED
:108FA0000093002300F0EEFF20002C00E826D034D0
:108FB000802100F0DFFF65222000A95D01F062FF43
:108FC0006421200001F072FF2000A95D012201F060
:108FD00059FFFA212000490001F068FF03B0F0BDFD
:108FE00020009847FAE7C046458E0010881300001D
:108FF000441400207021002068140020F0B5D646EB
:109000004F46464605000400C0B5D035280082B062
:1090100001F090FF2000F03001F0B0FBA34BE168BD
:109020005A6AA068914200D93AE19B6A834200D211
:1090300033E180235B00E358984603F077FAFA2285
:1090400006000F00002392004046002106F0E4FBDA
:10905000801979410B008021020009068B4202D35E
:109060000122934B5242E3602378A260012B00D18E
:10907000BAE1022B00D133E1002B00D110E1646A88
:109080008C4A2368DB68934200D00DE26169A068D6
:1090900006F0E2FBA669E168A060071C301C06F040
:1090A000DBFB854DE0600A22AB5E80460021301C70
:1090B0009A4606F02DFC002800D1B7E1504606F094
:1090C00031FC061C011C404606F01AFC002800D1A9
:1090D00093E1381C06F048FC00210700404606F0EA
:1090E00001FC002806D03800B421B430490005F056
:1090F00019FD0F00714B1B68002B00DCDBE15B00EE
:1091000098466F4A6F4E1168B044CA0F52185210F9
:10911000914603E00236464500D1CCE1B4213088C7
:109120004900C01BB43005F0FDFCB439CB17C91899
:1091300059404945EEDC0121634807F0C9FFE0686A
:10914000002106F0E5FB0200531E9A4100235F4E0A
:1091500000930121300001F029FE30009621A83053
:10916000490001F0A3FE606805F0D8FF584B594A4A
:1091700005F06BFF05F0EAFF96236060DB00984284
:1091800000DA1800E26960600132534BE2619846F0
:10919000E8234146C95C002A00DCDBE10B2A00DD44
:1091A000A4E14046D2B2D03001F06CFE0021A069AB
:1091B00006F0AEFB002800D1B3E10A23E85E05F01B
:1091C000ADFF02000B0005F019FF802342465B0053
:1091D0000600D0580F0005F0A1FF0B000200390077
:1091E000300005F032FF802306001B06CF186068B0
:1091F00005F094FF02000B003000390005F007FF76
:1092000005F0D4FFA061A66812F078FEC3175B0DCD
:10921000C0184005400DC01A304BA7689C466044FA
:1092200006F080FBEA2181468905206906F02BFBC8
:10923000011C484606F027FB311C06F00DFB06F02A
:1092400093FBB4235B00984200DC30E1180006F089
:1092500069FB391C06F0FDFA802342465B00061CC0
:10926000D05806F05FFB011C301C06F00CFB061CFE
:10927000606806F057FB011C301C06F0F0FA6061D4
:109280000A23ED5E280006F04DFBE368061C6842E9
:10929000984606F047FB8146B4E0914200D0C8E60C
:1092A00002B0E0BCBA46B146A846F0BD0040054059
:1092B000FFFFFF7FE18A001044140020CC4700200C
:1092C0007C140020D04700201CCF011098210020E2
:1092D0003333EB3F333333337021002000FCFFFF87
:1092E000F0222369A258934200D0B6E0002BD7D0D9
:1092F000A94BE1695A6AA0699142D1D89B6A83421D
:1093000001D29142CCD0280001F0F8FD0028C7D14D
:10931000236A01332362032B00DC1FE10323656A08
:1093200023702B689D4A9B68934200D030E1002651
:109330009B4BEE606B60E86112F0E0FDB4214900E8
:1093400005F0F0FBB439080006F0ECFA954B6E61BD
:10935000A8600A20185E05F0E1FE02000B0005F08F
:109360004DFE8023904A5B000600D05890460F00C7
:1093700005F0D4FE02000B003000390005F065FE58
:10938000060068680F0005F0C9FE02000B003000FF
:10939000390005F03CFE05F009FFFF23A861834D6D
:1093A0000022280000930021002300F0EBFD28009C
:1093B0008021454600F0DEFDE8264346D035995D24
:1093C0006522280001F05EFD2800642101F06EFD99
:1093D00043462800995D012201F054FDFA2128003E
:1093E000490001F063FD4AE6280001F087FD0028EE
:1093F00000D055E70223237052E75346584206F047
:1094000091FA81464146301C06F082FA002800D0CD
:1094100046464946301C06F07BFA002800D14E46ED
:109420006248321C391C00F0C1FD39E753465842EE
:1094300006F078FA00218146301C06F053FA002825
:1094400006D04946404606F053FA002800D040E6D0
:10945000504606F067FA061CD4E703F067F80023CD
:10946000534A801859410B008021020009068B42A3
:1094700002D301224F4B5242E361F023E358A26131
:109480002361002B0DDDE826280001F025FD2800D2
:10949000227CA15D01F0F6FC66222800A15D01F0AE
:1094A000F1FC00232362FBE620009847F8E6C34363
:1094B000DB171840CBE600213F4807F009FE0023E8
:1094C0003E4E002200930021300001F06FFC30007E
:1094D0009621A830490001F0E9FC96236268DB0080
:1094E0009A4200DA6360E269013A4EE64446682235
:1094F000D034200001F0C6FCFA212000890001F0E0
:10950000D5FC2A4C0021200000F034FD0022200070
:109510002B4900F04BFD01234246137000231361D9
:10952000BEE60A23E85E05F0F9FD02000B0005F037
:1095300065FD802342465B000600D0580F0005F011
:10954000EDFD02000B003000390005F07EFD060045
:109550000F004CE644466722D034CAE70422D21AF0
:10956000E823D2B2E15C280001F08CFC02F0DEFFBF
:109570000023144A801859410B008021020009067B
:109580008B4202D301220B4B5242A261E36187E678
:109590002800984773E5C04600400540458E0010FE
:1095A000881300004414002070210020681400205B
:1095B000C0C62D00FFFFFF7F1CCF011098210020A7
:1095C0000000344340420F0030B50B7C0C0085B0E6
:1095D000012B0DD001238A68A02193408622C90562
:1095E000D2008B50032323740020002105B030BD2E
:1095F0000868002103F086FB0223237402F07EFC3E
:10960000050002F093FF0C22002312184B41802129
:1096100009068B4202D30122054B524201210291DD
:10962000044928000194009102F06CFCDCE7C0467C
:10963000FFFFFF7FC995001070B504001000626045
:109640002160022101F048FE1349206803F056FA18
:10965000002302220821206803F016FBA3680133CF
:1096600000D070BD012008F017FA21680B4B0C4D9B
:10967000CB185A425341C2020A332A401B041343F7
:1096800011221343A022D2059446A06080016044B9
:10969000E36003614160E4E790D003000080FCBF19
:1096A000FD7F00FF30B583680400A020C00584461C
:1096B0009B01634419609A6001230121237485B0E2
:1096C000206803F01FFB02F019FC050002F02EFFDA
:1096D0006422002312184B41802109068B4202D3D9
:1096E0000122064B524201210291054928000194B2
:1096F000009102F007FC012005B030BDFFFFFF7FA5
:10970000C9950010037C0200032B03D05A42534139
:10971000D8B27047A021C9058C46836800209B0100
:1097200063441B69DB01F4D413689B691B07F0D405
:1097300010740130EDE7C046002303747047C04643
:1097400010B58168027C024807F0C2FC10BDC0461B
:1097500028CF0110F8B5DE4657464E464546334BF6
:10976000E0B51C68A369DB0620D4314B10259A466E
:109770001978002399462F4B2F4F98463A782F4E51
:10978000A3691D42FCD12068092A0CD8531CDBB206
:10979000B0543B701A0000290ED1072B03D1336857
:1097A00043452CD00722A3691D42E9D0F0BCBB463B
:1097B000B246A946A046F8BD052BF4D13379F2781C
:1097C0001B029B189B109B4614D0B421B078737871
:1097D000C001C0188011490005F0A4F9184B1B788E
:1097E000002B19D15B4617489BB24A0083520122D5
:1097F000154B5A544B463B7001210022D3E780237E
:10980000B288DB019A42CDD1B379812BCAD15246BD
:10981000803B13703970EFE70A484A00835A5B4572
:1098200001DC9BB2E2E75B469BB2DFE7A04500208C
:109830000F530020A55A05000E530020F43F0020CE
:109840001053002000400020A44500202021074B99
:109850001B689A691142FCD1A52220211A609A69DD
:109860001142FCD140221A607047C046A04500203A
:109870002021094B1A6893691942FCD1A5232021A4
:1098800013600800936918401942FAD1034B116024
:109890001870034B18707047A04500200F5300202C
:1098A0000E5300202021074B1B689A691142FCD1FE
:1098B000A52220211A609A691142FCD125221A6042
:1098C0007047C046A0450020F0B557464E46DE46DC
:1098D0004546264BE0B51B6885B09A465B429B46E1
:1098E000234B52461B6856469946224B6A361B68E4
:1098F000214F0393214BFF369846214B534401934C
:109900005B469B1A013B0293DA452DDB029B1D4D02
:109910009C19B4212000490005F004F949007B5A44
:109920009D4200DD1D000134A642F2D1A94518DA9E
:109930004B46E81A05F0F6FF039905F0A4FF06F080
:1099400013F84346188002239C46019B0136E044ED
:10995000B342D9D105B0F0BCBB46B246A946A04639
:10996000F0BD43461D80EEE7064DDFE754140020AE
:10997000601400205C14002000400020243D0020E2
:10998000D1020000E02E000070B50C00E1210600BD
:10999000164D1000C9022A6003F0B0F83000022111
:1099A00001F09AFC2000022101F096FC104B2C687B
:1099B0009C466444631E9C41143420000D4901F010
:1099C000EBFD0121200001F0C1FD502238212B6860
:1099D0009A635A6B343311408022520113430022A0
:1099E0001960054B1A70054B1A7070BDA045002018
:1099F00000C0FCBF559700101053002011530020E9
:109A0000F0B5DE4657464E464546E0B5AA4CAB4B50
:109A100061685A6A206885B0914207D9002005B074
:109A2000F0BCBB46B246A946A046F0BD9B6A834245
:109A300019D302F07BFD0023A14A801859410B0085
:109A40008021020009068B4202D301229D4B524223
:109A500063609D4B226003931B78052BDED89B4AE5
:109A60009B00D3589F469142E3D1D7E7984B994F3B
:109A70001B689A465B429B46974B52461B6856466C
:109A80009946964B6A361B68FF360293944B98466C
:109A9000944B534400935B469B1A013B0193DA4578
:109AA00000DA04E1019B904D9C19B421200049008B
:109AB00005F038F849007B5A9D4200DD1D00013455
:109AC000A642F2D1A94500DBEEE04B46E81A05F0CC
:109AD00029FF029905F0D7FE05F046FF434618809E
:109AE00002239C46009B0136E0449E42D7D10022CF
:109AF00020217E4B7E4C1A7023689A691142FCD15A
:109B0000A52220211A609A691142FCD12522FA204F
:109B10001A60400002F01EFC20212268936919425D
:109B2000FCD1A52320211360080093691840194235
:109B3000FAD1704B116018706F4B039A18700223A2
:109B40006E48137007F0C4FA68E76D4807F0C0FA72
:109B500002F0ECFC00236B4A801859410B00802175
:109B6000020009068B4202D30122564B52420CC41A
:109B700001225E4B1A700523039A13704EE7624868
:109B800007F0A6FA02F0D2FC0023604A801859417F
:109B90000B008021020009068B4202D30122494BAF
:109BA00052420CC40423039A137037E7584F4C48B1
:109BB000B4243900BC4600230700564E454DA4008E
:109BC0000A78002A42D0EA5A002A3FD0F85A904236
:109BD0003CD9F25202330131A342F1D16746B4229B
:109BE00038000021520006F0A3F84B4BB146042781
:109BF000DF5F4A4B1B689B461D0000239846693374
:109C0000FF3346469A46C84606E002239C46013684
:109C1000E144013556454CD04B461B88BB42F4DA33
:109C20005B46002BF1DD340002E00134AC42ECD0A5
:109C3000B4212000490004F075FF434649005B5AF7
:109C40009F42F2DA4B46284A1A80DEE7264A013163
:109C5000F2520233A342B3D1C0E72021244B1A6849
:109C600093691942FCD1A523202113600800936950
:109C700018401942FAD11F4B116018701E4B187012
:109C800002F054FC00231F4A801859410B00802128
:109C9000020009068B4202D301220A4B52420CC435
:109CA0000223039A1370B9E643461D8018E70E4D50
:109CB00008E70120B3E6C046881B002000400540AD
:109CC000A0860100FFFFFF7F1153002044DD01103B
:109CD0005414002000400020601400205C14002078
:109CE000243D0020D1020000E02E0000105300208F
:109CF000A04500200F5300200E53002064CF011018
:109D000054CF011040420F0044CF011000093D0024
:109D1000A4450020D0420020441400205814002004
:109D20007047C046F0B5CE464746040003000D001C
:109D3000002180B587B016000091021D210038482F
:109D4000083306F047FA002804D107B0C0BCB94672
:109D5000B046F0BD636827689846A3680124AC400C
:109D60009946220023004146380006F0D1FB22002C
:109D700023004146380006F01FFC2A4B2800F91842
:109D80004B1E9941063101F0A7FA80235B02029332
:109D90004B464A460333D2011B031343224A052094
:109DA00013408022D2051343204A0393204B2A40BC
:109DB0001343AD022B4305931E4B049303F036F976
:109DC00005F0ABFD041CF00005F0A7FD011C201CF4
:109DD00005F045FD051C05F0F9FD84B20023002CBB
:109DE0000ED0200005F099FD011C281C05F031FD66
:109DF0008721C90505F047FD05F0E8FDC3B21B0248
:109E000024044A4641461C43380002AB029406F043
:109E10007BFC012341468B403A6813433B6094E747
:109E20005CDD01100000E0AFFFFFFF9FFF83FFFF3D
:109E30000000104000000C4010B50468406801228A
:109E4000030010339A4063681A42FCD1043080004A
:109E5000015110BD0EC8064810B58446042482B0D6
:109E600061440448090D009407F032F902B010BDB6
:109E70000000E0AF74CF0110962110B502484900F0
:109E800007F0A4FE012010BDC01C002010B503780F
:109E9000282B39D006D9292B28D0642B01D107F0E3
:109EA000D5FE10BD0A2B0ED0142BFAD18378C178C1
:109EB0001B0609040B43017942781C4C09029200ED
:109EC0000B431351EDE74378002B2BD0184B1A6846
:109ED000164995200B00C00008181A605A60083314
:109EE0009842FAD19523DB00CA50DAE783784278AA
:109EF0001B021343C27812041A4303791B0613434F
:109F00000B4A1BBA1360CCE7837842781B021343D9
:109F1000C27812041A4303791B061343054A1BBA7D
:109F20001360BEE7034B1A68D2E7C046C01C00208E
:109F3000641400207836002000B5002185B002208E
:109F400001F0F4F90021022007F0B8FD01F0D6FF7E
:109F5000054B064A029300230193054B009300230F
:109F600002F08EF805B000BD701B0020204E0000EE
:109F7000799E00104268024B9B1899717047C04649
:109F8000F037002070B504AC26784568064C65199A
:109F90002972416861184A724268A2189372436834
:109FA000E418E67270BDC046F0370020F0B54646B2
:109FB0004F468846D6464549C0B506004046171C60
:109FC00005F090FC002853D00021404605F0A0FC8D
:109FD000002800D175E0404605F004FD04000D00A6
:109FE000381C3B4905F07EFC00284BD1C2239A4621
:109FF00028339946364F374B988905F08FF8002261
:10A00000354B05F004F82B00220005F01EF805F092
:10A01000C1F87268314B010A9954494672689A181E
:10A02000507072689A18D17072689B1852461A71F3
:10A0300006F092F8652006F097F884214046C9059D
:10A0400005F021FC05F090FC00B206F099F884219F
:10A05000381CC90505F017FC05F086FC00B206F0B7
:10A060008FF806F0ADF8E0BCBA46B146A846F0BDA0
:10A07000164B00249846184D1549381C05F032FC43
:10A080000028B3D01649381C05F042FC002812D035
:10A09000381C05F0A7FC134A134B04F0D6FF134BF2
:10A0A000002204F0ABFF05F075F8030ADBB2994615
:10A0B000C3B29A469FE73E239A46293B9946084FEA
:10A0C00099E70023002400259846D5E70000B44313
:10A0D0000000B4424414002000807640F037002095
:10A0E0000000B4C2ABAAAAAAAAFA72400000E040DB
:10A0F000F8B508220A212748FEF7D0FC0023264D98
:10A10000A0262B80254B264C9C46760165442000DA
:10A1100005F008FC234905F0B6FB05F06DFC22496B
:10A1200005F0B1FB05F020FC2F1902343880B44251
:10A13000EDD10E2001F00AF9D02480232406DB01A2
:10A14000A362002201210E2001F0DEF80B2001F0B5
:10A15000FDF880231B016362A361144B042219687C
:10A160001348FFF769FA052001F0F0F82023636235
:10A17000A361FFF7E1FE0F4B0D211A680C20FFF7DA
:10A1800003FCC82002F0E6F801220B4B1A7007F01E
:10A1900031FCF8BD70210020CC24002000FCFFFF22
:10A1A00002040000DB0FC93A00FEFF4670140020D5
:10A1B000DC3700207414002011530020F8B54B4CFC
:10A1C0004B4B61685A6A2068914226D89B6A834249
:10A1D00050D30121474A13784B40137052D0D023FB
:10A1E00080221B0692045A61434B1D6802F09EF9BF
:10A1F000FA2206000F00002392002800002105F03B
:10A200000BFB801979410B008021020009068B426B
:10A2100002D30122394B52420CC4D0231B065A6888
:10A2200037490B6852041CD5002B36DD013B0B600F
:10A23000344B1978344B1A788A4203D0334819705A
:10A2400006F046FFFFF7DCFB002832D1304C20003F
:10A25000FEF7D4FE2F4C2000FFF754FA002821D13E
:10A26000F8BDFA229200934212DA01330B60254BBB
:10A270001978DFE79142D0D001211E4A13784B4074
:10A280001370ACD1D02380221B0692049A61ABE7F5
:10A2900001221C4B01211A70CCE70022194B00212E
:10A2A0001A70C7E7802220001B495200FFF7FAF915
:10A2B000D6E71A4800F0D0F905F04EFF642005F00B
:10A2C00053FF174E3368002B09DD0024154D2888F5
:10A2D00005F066FF336801340235A342F7DC05F070
:10A2E0006FFF0B4C2000FEF759FAB0E7901B0020DF
:10A2F000004005400253002078140020FFFFFF7F3C
:10A300007C370020065300200753002090CF011017
:10A3100070210020DC370020F0370020D0420020E0
:10A32000CC470020D0470020F0B585B00A0001A935
:10A330000C00114BE0CBE0C40378452B08D00A2A6F
:10A3400004D90B2210F038FD002806D005B0F0BD6E
:10A35000411C0A4806F0BCFEF8E7094806F0B8FEC2
:10A36000FFF7A0FAFA20400001F0F4FF07F050FBDD
:10A37000FFF77EFAEAE7C046B4CF011098CF01108C
:10A38000A0CF0110B42110B50348890007F0D4FA1A
:10A390000248FDF739FF10BD243D00204414002081
:10A3A0000122034B52429A6000221A747047C04641
:10A3B000DC370020F8B504000D0005F091FE992867
:10A3C00013D8632809D8431EDBB21D2B1AD81E28C8
:10A3D00018D88C4A800013589F466438C0B235287C
:10A3E00010D8894A8300D3589F4603003833DBB224
:10A3F000042B07D83730C0B203281ED8834B800007
:10A400001B589F46824806F063FE002D08D00026A8
:10A41000804FA15D3800013606F05AFEAE42F8DBEF
:10A420000A2006F029FE07E005F07EFE7A4B0100C7
:10A430001A5C7A4806F04CFEF8BD05F075FE040083
:10A4400005F04EFE744B1855F6E705F06DFE04F06E
:10A4500065FE0022724B04F0F8FD04F0A7FE041C18
:10A4600005F04CFE04F05AFE00226D4B04F0EDFDA9
:10A4700004F09CFE6B4B021C211C1800FFF796FD9C
:10A48000DAE76948FFF758F9D6E76748FFF758F960
:10A49000D2E705F025FE8300644A1B185B001360B9
:10A4A000CAE7B923624F9B003D009C460026143545
:10A4B000674405F051FE152005F056FE2C00F0B261
:10A4C00005F052FE143C2088023405F069FEAC42CF
:10A4D000F9D1143505F074FE0136BD42E9D1ABE780
:10A4E000B923544F9B003D009C4600261435674419
:10A4F00005F032FE142005F037FE2C00F0B205F016
:10A5000033FE143C2088023405F04AFEAC42F9D1F7
:10A51000143505F055FE0136BD42E9D18CE7013D09
:10A520004548EAB2611CFEF70FFA85E7B923434FAD
:10A530009B003D009C4600261435674405F00CFE48
:10A54000162005F011FE2C00F0B205F00DFE143CB3
:10A550002088023405F024FEAC42F9D1143505F010
:10A560002FFE0136BD42E9D166E7013DE9B2601C2C
:10A57000FFF78CFC60E7013D3148EAB2611CFDF752
:10A5800049FE59E705F0ACFD052800D954E72D4BED
:10A5900080001B589F4603222B4B1A704CE7FFF795
:10A5A00093F949E7FFF764F90222274B1A7043E752
:10A5B000FFF778F90022244B1A703DE7FFF746F9C0
:10A5C0003AE7FFF7ADFB37E706F0D0FD34E705F0DB
:10A5D000ABFD1E4B18602FE705F0A6FD1C4B186065
:10A5E0002AE71548FEF744FA26E71348FEF792FCDF
:10A5F00022E71148FEF732FA1EE705F095FD154BEC
:10A60000186019E780DD0110FCDD0110D4DE0110B7
:10A61000CCCF0110D4CF0110F0370020C0CF0110F3
:10A620000000A03F68140020DC37002078140020D0
:10A63000243D00200040002070210020D042002056
:10A6400044140020E4DE01101153002058140020AF
:10A650006014002054140020F0B5DE4657464E46E4
:10A6600045460022E0B58346B4264049404B0A6087
:10A6700004201A5E3F489C460027002415005B46D4
:10A68000006887B0760002E00134B4426AD062000C
:10A690009A5A0137AA4200DA0027B842F4DAAA46E9
:10A6A0006825FF359B466346AC424BD008229B5E33
:10A6B000314A0393B4235B00984600230026994651
:10A6C0000025A0440293049200900193059109E0B3
:10A6D000002D3ED101230027994601910135013417
:10A6E000A0452AD0B4212000490004F01BFA5A46A4
:10A6F0004B009B5A9A45EBDC0137002DEFD0009BB5
:10A70000BB422ADC132E18DC4B46D80F019B484471
:10A710009C46039B40106044B4219C464900604421
:10A7200004F000FA049B751C760099530123013450
:10A730002E0002930025A045D4D1029B0599002B41
:10A7400000D00E6007B0F0BCBB46B246A946A0469A
:10A75000F0BD0027009BBB42D4DD01239C460125B0
:10A76000E144BCE79B46AA4663469FE7CC470020EE
:10A77000441400207C140020D04700201C4B0268A9
:10A780001B6870B504009A4225D0426893420FD1ED
:10A79000184B8568596AC068884208D89B6AAB42E2
:10A7A00022D3154B22601A685B68A260E36070BD1B
:10A7B000436001F0BBFE0023104A801859410B0092
:10A7C0008021020009068B4202D301220C4B524227
:10A7D000A260E360EBE7084B1A685B688260C360C5
:10A7E00001235B424360E2E78842DAD1DFE7C046FB
:10A7F000CC47002000400540A0DF011060E31600B8
:10A80000FFFFFF7F8022F0B54D1C8668134CFF359B
:10A81000120514E0F8273F06BC46634443601F144A
:10A82000DB175B0DFF187F057F0DFB1A5B00E35EF6
:10A830000F6873431B14FB1808C1A9420DD0876928
:10A840000368DB194768DB199342E3DA002BE5DA8A
:10A8500080273F05BC466344E0E7F0BDCC240020E0
:10A86000802270B54C1C8568FF34120510E0F82674
:10A870003606B44663440E4E4360B446DB121BB248
:10A8800063446B430E681B14F31808C1A1420DD03A
:10A89000866903689B1946689B199342E7DA002B87
:10A8A000E9DA80263605B4466344E4E770BDC04665
:10A8B0000080FFFF0022024B1B605B609A607047C4
:10A8C000601B0020F8B5CE4647461E00234B80B5DE
:10A8D0000700180099460D00140008F09FF8204B5F
:10A8E0009846002822D11F4B1800994608F096F888
:10A8F0001D4F002826D121002A001C483E7007F079
:10A9000017FB01211A4C3A0020604942404607F0EB
:10A910003BFB00281FD00021206807F0BDFC012070
:10A9200007F054FCC0BCB946B046F8BD48461F60AD
:10A9300008F090F80B4B1800994608F06FF80A4F92
:10A940000028D8D0042238000A4905F0F7F9484613
:10A9500008F080F8CFE7084802F0C8FCA4240020E3
:10A9600088140020A8240020D8340020801400205F
:10A970000848002048E20110D8CF011010B50400AB
:10A980000B00032240210448FFF79CFF034B0448BF
:10A990001C6008F017F810BDC05D0000AC2400205A
:10A9A0009DAD0010F0B585B0040005F099FB0228BC
:10A9B00031D0032815D0012811D1206805F012F8F4
:10A9C000504A514B04000D0004F03FFB0B004F496F
:10A9D0000200009401954E48029106F079FB05B003
:10A9E000F0BD05F07DFB022840D0032853D001289C
:10A9F000F5D101F09BFD0023464A801859410B0018
:10AA00008021020009068B4202D30122424B5242AE
:10AA100022656365E3E705F071FB04F083FF8A219B
:10AA2000C90504F030FF8F21C90504F02CFF3B4914
:10AA300004F015FF04F098FF606105F05FFBE06132
:10AA400005F05CFB04F06EFF8A21C90504F01BFFD2
:10AA50008F21C90504F017FF304904F000FF04F00E
:10AA600083FF206305F04AFBA063B8E780232C4AEC
:10AA70000021E250083BE36723002A48883318602E
:10AA80005960C8200122284900029861D9611A72D0
:10AA9000264BE365A3E705F031FB050005F02EFB2F
:10AAA000060005F02BFB80231D4A0700E250E567F6
:10AAB0006D08002D23DD802069004919C90040047C
:10AAC00004F030F888230022E0500433E2502300E1
:10AAD000013278331A76A0233202E2501449B803C7
:10AAE00004F020F8A423F117E050C904730B1943B4
:10AAF0000F4A0023F00404F063F8E0656FE70125D6
:10AB0000D9E7C046333333333333A33F6A0A0000F7
:10AB100004D00110801A0600FFFFFF7F0080BB46B3
:10AB200022220200822D0000550D000011110000AC
:10AB3000C05D0000F0B5DE4657464E464546E0B5DE
:10AB40008E4B8F4C0700A544012118689A4607F0E8
:10AB50000FFA802203685200002106900AA85E685E
:10AB600005F0E6F801F0E2FC864B05915A6A796D32
:10AB70000490386D914200D9F4E09B6A834200D280
:10AB8000EDE08022002152004AA805F0D1F83800FB
:10AB90004AA95C30FFF736FE8AA978238B468C21C0
:10ABA0009C4689468021BC444904634688465146F8
:10ABB0000AAD1A7EE2464AAC09950796089118E05C
:10ABC000002A3CD04B468022FB58BA589B1843457C
:10ABD00043DA4A46BB5001229B1302CC5943CB17A0
:10ABE0009B059B0D5B1829689B12CB1808C55C451B
:10ABF0005BD0022A0DD0E3D94B46FB58032A06D17D
:10AC0000882179585B1A002B21DD49467B509B1324
:10AC1000E3E74B464146F9503B00983341CB594B53
:10AC2000596A8E4210D89B6A834201D28E420BD061
:10AC300003235246137680230322DB00CDE74B46E5
:10AC4000FA5000220023C8E78023DB00C5E7002379
:10AC50004A46BB5052461376F3E742464B46FA50FB
:10AC6000FB6F3E00039301F061FCFA220023009089
:10AC7000019192000021039804F0CEFD009A019BFF
:10AC8000801859410B0080210200983609068B423A
:10AC900002D301223C4B52420CC602235246137689
:10ACA0004B46FB5802229B1397E7089BA4229A4627
:10ACB000A023BA58F858079E8018C117F850C90445
:10ACC000430B1943314A0023C00403F079FF069B6C
:10ACD000F865D968002912D08020320049002C4C38
:10ACE000099D711800022B68A34200DA284B8342A9
:10ACF00000DB284B1380023204358A42F3D101F085
:10AD000015FC049B059C3E68C01AA14104F00AFE94
:10AD1000311C04F09EFD04F065FE00221E4B04F081
:10AD200094F90400301C0D0004F05CFE02000B00DE
:10AD30002000290004F062F904F038FA069938601E
:10AD4000CB688B605346186807F004F98B239B008F
:10AD50009D44F0BCBB46B246A946A046F0BD914218
:10AD600000D00EE738000AA91430FFF779FD38004B
:10AD70000AA93030FFF774FD03E7C04608480020F9
:10AD8000D4FDFFFF00400540FFFFFF7FC05D0000D6
:10AD90000180FFFFFF7F00000000B03F10B5024CB4
:10ADA0002068FFF7C7FEFBE7AC240020D0B5040005
:10ADB000002918D0012900D0D0BD8023002A24DD2D
:10ADC0001B4A0027C250083BC3670300C8208833D2
:10ADD0001972184E184900021E605F609861D961AF
:10ADE000164BE365E8E701F0A1FB0023144A801845
:10ADF00059410B008021020009068B4202D3012237
:10AE0000104B524222656365D6E7094A0027C250BB
:10AE1000083BC3670300FA2088331972054E0A49BC
:10AE200080021E605F609861D961084BE365C3E7EB
:10AE300022220200822D0000550D00001111000099
:10AE4000801A0600FFFFFF7FABF2FFFF55550000A1
:10AE5000962210B507489201FEF764FFC822064CFF
:10AE60000649D20106482160626006F031F90023EC
:10AE7000A36010BD94470020CC34002000381F1080
:10AE800020D00110836870B504000D0016001F2B40
:10AE90000BD80C2004F058FF290489198160210087
:10AEA00007F0A0FEA3680133A36070BD836870B58E
:10AEB00004000D001F2B0DD80C2004F045FFFF23CC
:10AEC0001B069C4665442100856007F08BFEA36845
:10AED0000133A36070BDC04670B5046805008442AC
:10AEE00006D0200024680C2104F032FFAC42F8D1D7
:10AEF00000236D602D60AB6070BDC0460C4A30B55C
:10AF0000516A44690300056901208C4207D8926A9E
:10AF1000AA4205D31868C01A431E9841C0B230BD7A
:10AF20008C42FCD01868C01A431E9841C0B2F6E7A4
:10AF300000400540F0B50400C646414B6269596ABD
:10AF400000B50069914226D39B6A834226D32568C7
:10AF5000A54220D0A368AE68013BA360280007F09B
:10AF600047FE0C21280004F0F3FE330E19D0FF2B0E
:10AF700050D0FA260027B60001F0D8FA801979419E
:10AF80000B008021020009068B4202D301222D4BC7
:10AF900052422261636180BCB846F0BD9142D6D175
:10AFA000F9E7330C632B40D8002B45D0DAB290463A
:10AFB000013B1F02244D7E212800FEF73DFFFF21AB
:10AFC0002800FEF739FF06212800FEF735FF0F2184
:10AFD0002800FEF731FF00212800FEF72DFF414633
:10AFE0002800FEF729FF2800F1B2FEF725FFEF2128
:10AFF0002800FEF721FFFF23144933408A68DB193C
:10B000005B00002A16D09B181B889800C0184000CF
:10B01000323001E03004000CFA22002300219200BB
:10B0200004F0FAFB06000F00A6E7C4276323FF0124
:10B030009846BFE70A68E6E7012300279846B9E784
:10B0400000400540FFFFFF7F94470020CC340020E4
:10B05000F0B583B0040005F043F80A38C0B22828E0
:10B0600028D8964A8300D3589F4605F05DF805001E
:10B07000934C7E212000FEF7DFFEFF212000FEF72B
:10B08000DBFE06212000FEF7D7FE03212000FEF79D
:10B09000D3FE00212000FEF7CFFE290AC9B220000E
:10B0A000FEF7CAFEE9B22000FEF7C6FEEF2120003F
:10B0B000FEF7C2FE03B0F0BD824B60695A6A0121FF
:10B0C0002569904208D89B6AAB4201D2904203D0D6
:10B0D0002168091B4B1E99417B4805F0F9FFE9E700
:10B0E0007A4FBB68002BE5D17C680221200004F078
:10B0F000C7FD6100B860764805F0EAFF7B68002B69
:10B10000D8D000243B68B868610040180222C918F2
:10B1100004F014FE7B6801349C42F3D3CAE705F0C7
:10B1200003F86B460A24694F46009D1D04F0FCFF9E
:10B130002880B868002804D002222900801904F071
:10B14000FDFD013C0236002CF0D1B3E75F4CA36853
:10B15000002BAFD0EFF3108572B6F0231B069C4690
:10B16000616820684900604411F082FEF0231B06EC
:10B170009C4662682068A1685200604411F048FE55
:10B1800085F31088A068002800D193E704F0B8FD8B
:10B190000023A3608EE704F0C7FF4C4A01009368C8
:10B1A000002B00D186E042009B181A88494805F020
:10B1B0008FFF7FE704F094FF0500414C7E212000C3
:10B1C000FEF73AFEFF212000FEF736FE06212000A2
:10B1D000FEF732FE06212000FEF72EFE00212000A1
:10B1E000FEF72AFE00212000FEF726FE291C1E2D58
:10B1F0004FD8C9B257E73248FEF72CFE5AE704F0A1
:10B200006FFF2F4B01001800FEF716FE52E704F007
:10B2100067FF050004F064FF294C7E210600200032
:10B22000FEF70AFEFF212000FEF706FE06212000A1
:10B23000FEF702FE0F212000FEF7FEFD0021200098
:10B24000FEF7FAFD002D22D0E9B263291DD82000B7
:10B25000FEF7F2FD310026E704F042FF060004F09D
:10B260004DFFA368051E17DB1F2B00D922E70C201A
:10B2700004F06AFD3604EDB276198660210007F00D
:10B28000B1FCA3680133A36014E76321DFE7012168
:10B29000DDE71E21C9B206E71F2B00D90AE70C2003
:10B2A00004F052FDFF22120694466B429BB26344A7
:10B2B0008360E3E7126843009B1876E7FCDE011029
:10B2C000944700200040054080D00110CC3400207D
:10B2D00048D001106CD00110094A10B594464024A2
:10B2E000830063441A68C0006240803414408022A6
:10B2F000520113431C60034B9C466044416010BDE7
:10B3000004C0014000400140074B80009C4660445F
:10B310000368C90092000A435A400C231A40802354
:10B320005B0103431A60704704C00140064B800074
:10B330009C466044036809015940802330225B0128
:10B340000A4003431A60704704C001400123D02221
:10B350008340120693629361094A40219446830018
:10B3600063441A68C0004A40803111408022520173
:10B3700013431960034B9C460523604443607047A8
:10B3800004C0014000400140024B18688007C00F14
:10B390007047C04600C00640EFF3108072B6034A03
:10B3A0001368002BFCD0BFF35F8F70472C0100D0D7
:10B3B000BFF35F8F0022024B1A6080F31088704742
:10B3C0002C0100D070B5EFF3108C72B60D4D2B68C8
:10B3D000002BFCD0BFF35F8F0724CB08C618C05CDE
:10B3E00001230C40A3401C000440034207D1184332
:10B3F0003070BFF35F8F2C608CF3108870BD10002D
:10B4000001F074FF2C0100D0F8B54746CE468846BF
:10B4100080B5EFF3108C72B6214D2C68002CFCD057
:10B42000BFF35F8F9A422CD8D4080727055D061911
:10B4300001241740BC402C421FD007210127894618
:10B4400009E0D408055D06194C4639001440A140B6
:10B450000C00294211D001329342F2D20120404225
:10B46000BFF35F8F00220E4B1A608CF31088002808
:10B470000FDBC0BCB946B046F8BD2543100035709F
:10B48000EEE7BFF35F8F00232B608CF31088012061
:10B4900040424346002BECD0089801F027FFC046FD
:10B4A0002C0100D030B5EFF3108C72B60A4C236833
:10B4B000002BFCD0BFF35F8F072301220B409A4083
:10B4C000CD08435D93434355BFF35F8F0023236053
:10B4D0008CF3108830BDC0462C0100D00021044BF5
:10B4E000044ABFF35F8F02C39342FAD17047C0464C
:10B4F000000100D0800100D0044B9C4660448000D5
:10B50000BFF35F8F002303607047C04640000034E4
:10B51000044A1078431CDBB2172B00D91023137098
:10B520007047C0469014002010B5064B064C82B000
:10B530000100009318221F232000FFF765FF02B0CF
:10B5400010BDC04690D001108037002001238340F9
:10B55000002904D0034A1360034A13607047034A6A
:10B560001360FBE780E200E000E100E080E100E042
:10B5700001228240034B1B6813405A1E9341D8B2EC
:10B580007047C04600E100E0024B10309B6880002D
:10B59000C058704700ED00E070B50D00EFF3108665
:10B5A00072B60F4A1368002BFCD0BFF35F8F0D4BB0
:10B5B00010309B6884001B590B4A934203D09D4274
:10B5C00001D001F0ABFE074B9B681D51BFF35F8FAD
:10B5D000BFF35F8F0022024B1A6086F3108870BDA4
:10B5E000240100D000ED00E0CD800010EFF31081C9
:10B5F00072B60E4B1A68002AFCD0BFF35F8F0C4A5C
:10B600001030926880008058BFF35F8F00221A606C
:10B6100081F31088074B984206D02F23064A821ADE
:10B6200093429B41184070470020FCE7240100D062
:10B6300000ED00E0CD80001094140020F0B55746D6
:10B640004E46DE464546E0B585B00600009117003F
:10B65000EFF3108B72B66A4A1368002BFCD0BFF36D
:10B660005F8F0025674B5D579A46002D00DAA9E0F1
:10B670006B00654C01935B199B009846A146C14441
:10B680004B4652469B7910361370604BB6009B6850
:10B6900099590B1B2F2B33D95D4B994200D0ACE04D
:10B6A000019B42469C465B4B6544AD0063535A4B3D
:10B6B0000232A218043B9B1A1B05584A5B0D651900
:10B6C00013436B80564B0121AB80FF23AB71009B72
:10B6D000EF71AB604B460B4319004C4B9B68995183
:10B6E000BFF35F8FBFF35F8F0022454B1A608BF370
:10B6F000108805B0F0BCBB46B246A946A046F0BDD6
:10B7000001200A008243D3798C46BB4231D845469A
:10B71000130044491B1B5B415943090D3D4B6353C7
:10B720003D4B02356519043B5B1B1B053B4D5B0D17
:10B730002B43AA464D466B800425AC465546E04453
:10B74000131F44441B1B1B055B0D1D434B46997186
:10B7500000999D8099604946DF71334B0143136026
:10B76000BBE75800C01880002018C179B9422FD912
:10B7700002000623D356002BF3DA02932B4B6146CB
:10B780000393131D9A4604235B429C46E1445046B2
:10B790004B461B1A1B055B0D9C46204B957198462A
:10B7A0006346404603439380019B5A199200039BD2
:10B7B000A418A380029B1C4AA371009B2260E7711E
:10B7C000A3608AE701F0AAFD002553465D574FE7C5
:10B7D000908802934005131D9A46031561469C46C6
:10B7E0004046D444634604302018181AE02300056C
:10B7F000400D1B0218430390C5E701F08FFD4FE792
:10B80000240100D00C5300209414002000ED00E02F
:10B81000CD80001000A1FFFFC414002000E0FFFF56
:10B8200001BDFFFFAAAA00000148804701BD00003A
:10B83000F0B5DE4657464E464546E0B50C0083B0AF
:10B84000EFF3108872B65D4A1368002BFCD0BFF38B
:10B850005F8F5B4B5B499A68030010339F00D5599B
:10B860008D4239D0A5424AD0574EAA1B2F2A33D831
:10B8700001229246824091464846544A126810403E
:10B8800001904846524A1060BFF35F8FEFF3058284
:10B890009346002A35D0934201D001F03FFD2A00A3
:10B8A00053469A439068844208D175E04B005B1878
:10B8B0009B00F3189868A04234D01A000621515614
:10B8C0000029F3DA844253D0019B002B26D04A464C
:10B8D000404B1A603D4B1A60394B9B68DD51BFF3FA
:10B8E0005F8FBFF35F8F0022344B1A6088F310889C
:10B8F00003B0F0BCBB46B246A946A046F0BD0D0061
:10B90000EAE72A0053469A4390688442D6D106203B
:10B9100010561300002809DA0D0031E04A462C4B7E
:10B920001A60D9E706201856002822DB42001118B9
:10B93000890074188A46A1689960E179D971062155
:10B9400061569971002925DBA488F11A6405241534
:10B9500054440919E0240905490D24022143998022
:10B9600013181D4A9B001178F31899711070ABE7FA
:10B9700013005946002914D1FF3191711749918064
:10B9800015490A789A71164A9B1B5B415A43120D5E
:10B990000A7099E71349E2E70620105613000028C1
:10B9A000C4DA114A1149D21A083A5002400D014333
:10B9B00099800F4952080A43DA8085E7240100D0B4
:10B9C00000ED00E0CD8000109414002000E100E0C4
:10B9D00080E100E080E200E00C53002001BDFFFFA9
:10B9E000AAAA000001BD0000CE14002000F0FFFF55
:10B9F00000F8FFFF70B5EFF3058101240443EFF376
:10BA0000108C72B6214A1368002BFCD0BFF35F8FF5
:10BA10001F4B05001F4AED1A6D416A43120D1E4D62
:10BA20008900AE6852B27658A6421CD006215956FB
:10BA300091421CD012215956914222D01E215956B2
:10BA4000914220D02A2159560324914210D0134B01
:10BA500019781A708171BFF35F8F00220B4B1A6047
:10BA60008CF3108870BDAB680D4C5C50EFE7002480
:10BA70006100091989005B18FF21997109499980B2
:10BA8000E5E70124F4E70224F2E7C046240100D0F0
:10BA900094140020AAAA000000ED00E00C5300203E
:10BAA000CD80001001BDFFFF054B064A1360064A1A
:10BAB000136053609360D360136153619361704767
:10BAC0008080808000E400E004E400E070B50400C1
:10BAD0000E001500FFF71CFD0100200000F006F825
:10BAE000A680E580BFF35F8F70BDC046024B9C46C9
:10BAF00061448900016070474000003410B50400C3
:10BB0000FFF706FD01002000FFF7F0FFFF23237180
:10BB1000BFF35F8F10BDC04610B50400FFF7F8FCFF
:10BB200001002000FFF7E2FFFF23A380BFF35F8F38
:10BB300010BDC04610B504000120FFF7F5FC034B13
:10BB4000C3189B002360BFF35F8F10BD400000341B
:10BB500083680B4810B584466144624412010901B0
:10BB600059189B185C684A680120944201D802D099
:10BB70000020C0B210BD1A680B689A42F9D8F7E7E6
:10BB8000FFFFFF0F10B508000B690C009847002855
:10BB900002D02068616810BDE06000210020FAE753
:10BBA0000A4B1968EFF3108072B60A68002AFCD0BD
:10BBB000BFF35F8F1B68BFF35F8F00221A6080F3B3
:10BBC000108840BF002000217047C046C44A0020B2
:10BBD000F8B5574645464E46DE46E0B598460CABAE
:10BBE0001C780DAB1B78070091469A460568002C1F
:10BBF00059D1AC7B002C3BD0660029683619033E36
:10BC000089194B78AB73002B00D1EB7300238B7039
:10BC10004B700B702D4BE218BB6812019B184A4603
:10BC20001A6042465A600A9A9A600B9ADA600023B8
:10BC30008B704B700B706B7B9B46002B26D02200C9
:10BC40006B685946A86898475B465B005B442A6866
:10BC5000033B002812D058469619B070D118D35C17
:10BC6000002B00D073705B460C706B735C450ED07C
:10BC7000F0BCBB46B246A946A046F8BDD3189C709E
:10BC80009119925D002A1CD15B460B706C734A4679
:10BC90004346387D00F0DEFC051E0AD10E9B002BCA
:10BCA000E6D01D70E4E7660029683619033E89195D
:10BCB000B0E75346002BF1D12100386800F0E2FED6
:10BCC000ECE75A705B460B706C73E0E7FFFFFF0F09
:10BCD000F0B5DE4657464E4645460023E0B58BB0EC
:10BCE0000893684B8200D45800239B46099000F0CB
:10BCF0001DFC02000B006068EFF3108A72B6564616
:10BD000001680029FCD0B246BFF35F8F21684F7BEA
:10BD10008C46002F2ED0A5685B49A94679180901E9
:10BD2000894449460868496805000E00AD1A9E41DD
:10BD3000002E5FDD02000B00099800F08BFC002351
:10BD400000229946002306920793002398466368D1
:10BD5000BFF35F8F5A461A608AF310884346002B60
:10BD600012D10028C3D10BB0F0BCBB46B246A946E5
:10BD7000A046F0BD002300229946002306920793B7
:10BD8000002300209846E2E7089B49461802384302
:10BD9000C047626805000E00EFF3108A72B61368A0
:10BDA000002BFCD0BFF35F8F002E41DB2B00334311
:10BDB00002D02369002B56D12368D97B002905D0F6
:10BDC0001A68480041185218033A57709A7B002AA3
:10BDD00000D19F73DF73E268013FD35D0133D35518
:10BDE0005B4623616368BFF35F8F5A461A608AF32C
:10BDF00010887CE7002E02D1002D00D09AE70021A8
:10BE0000604600F0BDFD4B461A685B6806920793DA
:10BE10004B469B6898464B46DB689946E368DB19BE
:10BE2000013B1B7808931B020343236100208EE72C
:10BE30002369002BC0D0069A079B8021521BB34177
:10BE400009068B4202D30122104B52420021049179
:10BE5000013103914946019141462000029700912A
:10BE6000FFF7B6FEBCE700F061FB2A0033001218B2
:10BE70004B41802109068B42E8D30122034B5242F9
:10BE8000E4E7C046F8470020FFFFFF0FFFFFFF7FFA
:10BE900010B5144C6368002B04D00A211248FFF738
:10BEA00025FE10BD2300114A1021206800F084FCFB
:10BEB000032000F02FFB032000F034FC03200C498A
:10BEC00000F082FBFFF724FB0A4B9C4603232375FB
:10BED000D0231B061B6860446375074B80006060BD
:10BEE000DC60DAE7DC140020C44A002051BB0010FB
:10BEF000D1BC001040000034F847002000487047D3
:10BF0000DC140020F0B557464E464546DE46E0B507
:10BF100085B0019310AB1B780600039300239A466B
:10BF2000984600927268EFF3108B72B61368002B7C
:10BF3000FCD0BFF35F8F3568AC7B002C00D16EE086
:10BF400067002B683F19033FDB195A78AA73002A50
:10BF500000D1EA73484AA118B26809015218009842
:10BF60000199106051600E9991600F99D16042461D
:10BF70009A705A701A706B7B9946002B00D16BE057
:10BF800022006B684946A86898474B465B004B44C3
:10BF90002A68033B002856D04846D719B870D118F4
:10BFA000D35C002B00D07B704B460C706B734C4500
:10BFB00053D0F3681B19013B18787368BFF35F8F88
:10BFC00042461A608BF310885346002B08D10002BA
:10BFD000204305B0F0BCBB46B246A946A046F0BD22
:10BFE000039B002B46D00E9B00200F99984703001F
:10BFF0000B433FD004000D1E1ADA009A019B121B5E
:10C00000AB410092019380221206934204D3012394
:10C010001A4C5B4200930194039B9A4682E7736833
:10C02000BFF35F8F1C608BF3108801204042D0E784
:10C0300000F07CFA802200196941120600900191FB
:10C040009142E9D3E3E7D3189C70D119D25D002A5D
:10C0500000D05A704B460B706C73307D009A019B78
:10C0600000F0F8FA82460028A3D02100306800F0E2
:10C0700009FD9EE70020ACE7FFFFFF0FFFFFFF7FFA
:10C08000F0B557464E46DE4645461100E0B585B050
:10C0900006009C46109F194300D1E9E06146DB177A
:10C0A0000193009353401C00019B4B401D000098DE
:10C0B0000199241A8D4163460E997B600F9BBE60E7
:10C0C0007B6139613A6000F031FA802300196941DF
:10C0D0001B0600900191994204D30123694C5B42F5
:10C0E0000093019400239846674B10970393002315
:10C0F0009946109B3700464698467A68EFF3108BB6
:10C1000072B61368002BFCD0BFF35F8F3D68AC7B29
:10C11000002C00D179E063001B19033B1A00944600
:10C1200002932B6863445A78AA73002A00D1EA73F9
:10C13000564AA118BA68090152180098019910606E
:10C140005160039991604146D1604A469A705A7095
:10C150001A706B7B9A46002B00D17BE022006B6843
:10C160005146A868984753465B0053442A68033BEE
:10C17000002800D164E0D1188C465146029810186E
:10C180008170D35C002B00D0437063461C70534613
:10C190006B73350054455ED0FB687A681B19013B10
:10C1A0001B78BFF35F8F494611608BF31088002D19
:10C1B0000CD147461B02234301352800FB6005B024
:10C1C000F0BCBB46B246A946A046F0BD4346404639
:10C1D0001B699847061E24D043460CCB1000184319
:10C1E0004CD014001D1E1FDA009A019B121BAB419C
:10C1F0000092019380221206934200D27DE7012330
:10C20000204C5B420093019477E73E0047467368F9
:10C21000BFF35F8F1C608BF31088012300255B4206
:10C22000CBE747460023C8E700F080F980220019D9
:10C230006941120600900191914200D25DE7DEE76C
:10C240000298D3189C701118125C002A00D05A7002
:10C2500053460B706C73387D009A019B00F0FAF91D
:10C26000051E00D198E72100386800F00BFC93E729
:10C2700000230124002501229C461CE74746350087
:10C2800000239AE7FFFFFF7F85BB0010FFFFFF0F32
:10C29000F0B504000D0006267642F717C64636199B
:10C2A0006F4100B584B08F4214D811D000F03EF930
:10C2B00032003B00121A8B41002B15DC002B3ED0C4
:10C2C0002000290000F070F904B080BCB846F0BD31
:10C2D0008642EBD90026002700F028F932003B0007
:10C2E000121A8B41002BE9DD002302930193154BB9
:10C2F0003200009314483B00FFF704FE0028DFDB08
:10C3000000239846BC46114A114F7B6A9C4504D8CD
:10C31000B96A8E42D4D99C45D2D11168EFF310800E
:10C3200072B60B68002BFCD0BFF35F8F1368BFF3AE
:10C330005F8F4146196080F3108820BFE5E7002A2F
:10C34000BED0D1E7A1BB0010DC140020C44A0020FD
:10C350000040054070B5060000F0E8F8FA2204003D
:10C360000D00002330000021920003F055FA8023D5
:10C37000001969411B06994202D30120024940423B
:10C38000FFF786FF70BDC046FFFFFF7FF0B5EFF3FC
:10C390000583CE46474680B505000C0085B0002BCE
:10C3A00012D02A4A0020536AA34203D3926A013072
:10C3B000AA4204D305B0C0BCB946B046F0BD1B1BB1
:10C3C0005A1E9341D8B2F5E7214E02930193214BB7
:10C3D0000200009330000B00FFF794FD031EE0DD28
:10C3E00020BF7168EFF3108772B60A68002AFCD08C
:10C3F000BFF35F8FDAB29446FF2230681A40417B68
:10C4000061450FD0016889465100884649469044ED
:10C41000414403398978002904D13269934209D112
:10C42000316107E0F1681B0A8A18013A1278DBB221
:10C430009A4207D07368BFF35F8F00221A6087F3B8
:10C440001088AEE7614600F01DFBF3E700400540B1
:10C45000DC140020A1BB0010F0B5EFF30582D64636
:10C460004F4646461000C0B51038EFF3108872B63C
:10C47000214C2368002BFCD0BFF35F8F01231900F0
:10C4800081401E4D1F006963AA461D4D29601D4D48
:10C490002E78AC463500C5402F402B4215D0534670
:10C4A0005F6A194B8500EB589F4218D36246174BC1
:10C4B0008E43EB581670BFF35F8F0022226088F323
:10C4C0001088002B06D0984704E0BFF35F8F2760E9
:10C4D00088F31088E0BCBA46B146A846F0BD0C4BC4
:10C4E00092009C46624413681360BFF35F8F002381
:10C4F000236088F31088EDE7280100D00040054054
:10C500003C7005401B530020D04A002068360020B4
:10C51000D03F054010B5034B01001800024AFEF75A
:10C5200051FF10BD08530020ACD00110034B596AD5
:10C530000A00986A596A8A42FAD170470040054059
:10C5400070B504000D00174A536A1900966A536AC1
:10C550008B42FAD13000190024184D41AB4216D855
:10C5600013D0104B2A005B6A9D4203D90D494B6AD8
:10C570009342FCD3934207D10A4A02E0516A99429E
:10C5800002D1916AA142F9D370BDA642E9D9054B07
:10C590005B6A1C005A1CEFD0012201246442E5179B
:10C5A0005242E3E700400540064A536A9942FCD8EC
:10C5B00007D1044B02E05A6A914202D19A6A824240
:10C5C000F9D370470040054070B504000D00EFF34B
:10C5D000108672B61A4A1368002BFCD0BFF35F8F27
:10C5E000002D1BD02000FEF7CFFF164981420AD054
:10C5F0002000FEF7D1FF01212000FEF7A7FF012355
:10C60000A340114A1360114BA400E550BFF35F8FA4
:10C6100000220B4B1A6086F3108870BD0121A140E7
:10C620000A4BA200D5500A4B20001A788A430549CC
:10C630001A70FFF7FDF800212000FEF787FFE5E7FD
:10C64000280100D059C40010386005406836002029
:10C650001B530020F0B54F46D6464646C0B50700EE
:10C660002B4C616A0D00A66A616AA942FAD18B421D
:10C6700008D805D00120E0BCBA46B146A846F0BDB6
:10C68000B242F7D9EFF3108A72B622480168002946
:10C69000FCD0BFF35F8F0125BD401F491C4C88466D
:10C6A000097889462943C9B28C46414660460870DC
:10C6B000391D890065630A511849B8004350216A41
:10C6C0000020294219D0616A0800A66A616A814285
:10C6D000FAD18B4219D801D1B24216D8CC450BD031
:10C6E0000B4B1F221D625D6301233A4093400C4AAD
:10C6F000136043464A461A700120BFF35F8F002241
:10C70000044B1A608AF31088B5E70020F5E7C046AD
:10C7100000400540280100D01B530020D04A0020D3
:10C7200080E200E0EFF3108C72B60A490B68002B30
:10C73000FCD0BFF35F8F01238340074A0748136291
:10C7400002789A430270BFF35F8F00230B608CF373
:10C7500010887047280100D0004005401B5300207E
:10C7600070B506000D00140000291DD0002A12D05B
:10C7700073688068984762006B0012195B19316812
:10C78000033A033B002808D08A189570C818CB5C80
:10C79000002B0BD10470280070BDCB189C7088183A
:10C7A0008A5C002A05D105702000F5E753700470FB
:10C7B000F1E75A700570F7E710B583600023CCB23B
:10C7C00043730133426004738373C4730068421C73
:10C7D000012C05D90133DBB2137003329C42F9D12D
:10C7E000FF230B405A00D318C018002303384370AE
:10C7F00010BDC04670B505000C1E07D0630001686F
:10C800001B19033BCB185A78002A01D1200070BDB8
:10C81000500080180338091800204E784870210015
:10C8200058702800FFF79CFF310004002800FFF734
:10C83000E1FF0600002C20D00028E7D032002100C4
:10C840006B68A86898477200630092191B192968E1
:10C85000033A033B002808D08A189470C818CB5CB0
:10C86000002B00D053700670D0E7CB189E7088184C
:10C870008A5C002A00D05A7004703400C6E7C046B3
:10C88000F0B557464546DE464E46E0B50D006F0012
:10C8900001687F19033F0400C85D83B00192CA1983
:10C8A000002850D043001B18033BCB185E78B446D9
:10C8B000002E1AD1019E002E42D0E67B002E04D01D
:10C8C00073009B19CB18033B5D70A37B002B00D139
:10C8D000A573E57300282FD10023537003B0F0BC7B
:10C8E000BB46B246A946A046F0BD72006244033A78
:10C8F0008A18517888460021517089465970320053
:10C9000001002000FFF72CFF43468246002B07D092
:10C910005B0021684344033BCB185A78002A16D1A8
:10C92000424651462000FFF71BFF2168019BCA19B0
:10C93000002BC2D10028CFD043001B18033BCB18DB
:10C9400000219970C8E7019B002BB6D1C4E75000C5
:10C95000801803380918487883464846487058704C
:10C9600041462000FFF7FCFE594680462000FFF7B5
:10C9700041FF414602002000FFF7F2FE8046CFE76C
:10C98000F0B557464546DE464E46E0B583B00191C8
:10C99000457B04006F0000687F19033FC15DC21929
:10C9A000002952D04B005B18033BC3185E78B44695
:10C9B000002E1CD1019E002E44D0E67B002E04D018
:10C9C00073009B19C318033B5D70A37B002B00D140
:10C9D000A573E573002931D10023280053706173DA
:10C9E00003B0F0BCBB46B246A946A046F0BD7200FB
:10C9F0006244033A82185078804600205070814685
:10CA0000587032002000FFF7ABFE43468246002BF1
:10CA100007D05B0021684344033BCB185A78002AB7
:10CA200017D1424651462000FFF79AFE019B0100B4
:10CA30002068C219002BC0D10029CDD04B005B1853
:10CA4000033BC31800209870C6E7019B002BB4D1AC
:10CA5000C2E75000801803380918487883464846D2
:10CA60004870587041462000FFF77AFE59468046CC
:10CA70002000FFF7BFFE414602002000FFF770FED6
:10CA80008046CEE770B5050000292CD0437B8B4251
:10CA90002ED04C0000686418033C0419A278002AC8
:10CAA00021D053009B18033BC25CC6188A4202D1B6
:10CAB0001BE0002A08D053009B18033BC3185A7888
:10CAC0008A42F6D162785A70002301222800A370AE
:10CAD0006370FFF7D5FE697B02002800FFF740FE78
:10CAE0006873012000E0002070BD63783370EBE7CD
:10CAF00001221900FFF7C4FEF2E7C046F8B5CE46A2
:10CB00004746040080B506200D0000F08FFA061E8F
:10CB100053D0534B5349E3185A1E934180221204B9
:10CB200094465B429B0D504A9B05634413604F4AF9
:10CB3000136018008A689043FBD1494B4C4AE318B4
:10CB400059424B4180215B0049000620995200F078
:10CB50006DFA2900C00002F00DF8C30932D140225D
:10CB6000012190466162A362266BF30736D4270049
:10CB70008025E36A00232C376D013D432B6006209E
:10CB8000266300F053FA4146800001F0F3FF236B67
:10CB900006009846DB073BD46023E26A5A400E3316
:10CBA00013402B6043462363802310229B013B43A9
:10CBB0001A60304B23630323A3643000C0BCB94622
:10CBC000B046F8BD2C4A93423FD900232B492C4A4A
:10CBD0006162A362266B9046F307C8D52200C0238A
:10CBE00030329B011343234A06201A60656AA36A08
:10CBF000AD01ED1800F01AFA224901F0BBFFAD02B9
:10CC00000100280001F0B6FF0021FFF799FCAEE714
:10CC10002200C02330329B011343164A06201A60BB
:10CC2000636AA26A9B019946914400F0FFF94B4662
:10CC300014499B02994601F09DFF0100484601F00E
:10CC400099FF0021FFF77CFCA6E77F229901884627
:10CC500002400132520819009044130082E7C04696
:10CC60000080FCBF00C0004000E0004000F0004039
:10CC7000F852002001030000FEFF0000FFFF00004B
:10CC8000C0FF3F004E0E00000539013AF8B5D20052
:10CC90004C0105001443002B06D0013B5A4253417E
:10CCA0009B00234302241C432E6BF3070BD46E22FC
:10CCB000EB6A290063401A4080232C315B010B434F
:10CCC0001A602E63F8BD2A00C02330329B01134343
:10CCD0000A4A06201A606F6AAB6ABF01FF1800F0AB
:10CCE000A5F9074901F046FFBF020100380001F035
:10CCF00041FF0021FFF724FCD9E7C04601030000F3
:10CD00004E0E0000F8B5056B04000E00EB070BD4C7
:10CD10000121E36A22007340194080232C325B0119
:10CD2000134319602563F8BD0200C02330329B0114
:10CD300013430A4A1A60476A836ABF010620FF1834
:10CD400000F074F9064901F015FFBF020100380038
:10CD500001F010FF0021FFF7F3FBD9E7010300000A
:10CD60004E0E000010B50C2082B000F0B7F9FEF7AF
:10CD70000BFB002810D08B4B8B488B498B4A1860DB
:10CD800059609860D960186159619861D9611862D9
:10CD900059625A6202B010BD854CA06700F0F4F9E8
:10CDA0000122844B1A60636C012BFCD10322824B5D
:10CDB0001A607F4A936B012BFCD1013301217F4A1A
:10CDC0007F480093043300F037F905237D4A009330
:10CDD00001217D4800F030F97C4B5A68FF2A02D8C7
:10CDE000802252005A608022734B6E4C12011A60EE
:10CDF0002169002907D0606901F0BCFE01304300C1
:10CE00001B18033BFDD2E022704B714819680A40A1
:10CE1000026002221968514001320A400421026076
:10CE20009A681142FCD080216A4A0901116080226F
:10CE300052005A60684B2361684B5968FF2900D83B
:10CE40005A60032201215B4B1A60644A93681942BD
:10CE5000FCD0E0231068034061480360126803239C
:10CE60004A40022113405D4A036093681942FCD096
:10CE700080215C4B0901196080215B4B49005160A6
:10CE800063615A4B5A68FF2A00D859608022584B78
:10CE900012011A60E169002907D0606901F06AFE99
:10CEA000013043001B18033BFDD2E0234F4A1168B9
:10CEB0000B4050490B6080214F4B090119608021C4
:10CEC000394B49005160E3614C4B5A68FF2A00D846
:10CED000596080224A4B12011A60216A002907D04A
:10CEE000606901F047FE013043001B18033BFDD28F
:10CEF000E023424A11680B4042490B608021424BBB
:10CF00000901196080235B0053608022264BD20206
:10CF100023623E4B5968914200D25A6080223C4BBA
:10CF200012011A60616A002907D0606901F022FECF
:10CF3000013043001B18033BFDD2E023334A116844
:10CF40000B4034490B608021334B09011960802369
:10CF5000DB025360154B6362304B5A68FF2A02D8DC
:10CF6000802252005A6080222D4B12011A60A16962
:10CF7000002907D0606901F0FDFD013043001B1856
:10CF8000033BFDD2E023254A11680B4025490B6085
:10CF90008021254B0901196080235B005360124BEF
:10CFA000A361F7E6981B0020006CDC021BB70000B1
:10CFB000008000403CB0004030B00040002F685975
:10CFC00000800240008C864700C002403080004054
:10CFD0003090004030A00040001BB7003C80004073
:10CFE0003C9000403CA000404059730754800040F2
:10CFF00054B000405490004054A000406080004075
:10D0000060B000406090004060A000406C80004034
:10D010006CB000406C9000406CA000404880004024
:10D0200048B000404890004048A00040014B8000BC
:10D03000C0587047981B0020F8B5040022481E0015
:10D0400017000D0001F096FD0100380001F092FD7F
:10D05000069B36041B031E432368002B22DB1B4B5D
:10D060001B49E3185A1E93418022920194465B4269
:10D070001B0B184A1B0363441360174A13601F00FD
:10D080008A689743FBD1C022231D92011A432123B2
:10D090002560A06013602368002BFCDA0823E6609B
:10D0A0001360F8BD3F2322681340AB42D7D1A36879
:10D0B0001B051B0D8342D2D1EE22E368D20213403E
:10D0C000B342CCD1EDE7C046001BB7000040FDBF26
:10D0D00000C0004000E0004000F000408023024A11
:10D0E0009B000343D36270470080054010B5802445
:10D0F0001C4BE4051C6000281AD001231A4C18436D
:10D100001A4BDC611A4C44401C62596298628021BF
:10D11000144BC9051960174817490860E021C90474
:10D120001960002A07D18022144B12061A6010BD24
:10D130000E4BD861EBE753019B1A9B009A18802392
:10D1400012015B049A4209D213000D490B60074B90
:10D150005A608022094BD2051A60E8E7094B1A0091
:10D16000F3E7C04600B00540D3C007B000800540DB
:10D170002D3FF84FFCFF01000820014000A00540B2
:10D180004C470020FFFFFF00AA23064A1B01136043
:10D190002F230549D360054B19605368002BFCDA37
:10D1A0007047C0460040024000B0FA0000600240F4
:10D1B0002C4B2D4A70B51A602C4A2D4B2D491A6004
:10D1C00014008B689C43FBD12B4D2C4EB54208D2EA
:10D1D000013E761BB60808CD984723000134B342C0
:10D1E000F9D1FFF7BFFD264A214B1A60214A936807
:10D1F000DB43DB01DD09002BF9D14022214B224C1E
:10D20000224E9A675A671A67DA66B44208D22368D0
:10D210002000002B20D00834FEF77EFCB442F6D369
:10D220001B4C1C4EC022B168200002F087FDB46088
:10D23000FEF754F9FEF738FCFEF72AFE164C174E9F
:10D24000B44208D2013E361BB60808CC98472B00E2
:10D2500001359E42F9D170BD0834FEF74FFCB4424F
:10D26000D5D3DDE700E00040BFCDFBFEFE7F3C00F4
:10D2700000F0004000C00040381B0020481B002088
:10D28000FFFFFF0100F00140281B0020381B002099
:10D290000000002000ED00E0481B0020601B002083
:10D2A00000BEFDE7094A03001068002805D00849C0
:10D2B000C3188B4207D81360704706480449C31847
:10D2C00010608B42F7D901204042F5E7083D00206D
:10D2D000000004202053002000207047012040421D
:10D2E0007047C04610B5FFF7DBFFC0460FB400B56E
:10D2F000084883B002F0C6FD049B002B07D005A9A7
:10D300001800019101F0B6FB034802F0BBFD0120BB
:10D31000FFF7C6FFD0D00110E0D0011010B50148D2
:10D32000FFF7E4FFE4D001109A4200D2885470471E
:10D330007047C046F8B55746DE464E464546E0B50E
:10D3400099460A9B07009A460D9B884693460B9C7C
:10D350009B073BD10C9B9C423DD21E1B0B9415009E
:10D360000C005E442A004B46013521002020B847BE
:10D37000B542F7D1A0460B9C002C20D0454636196B
:10D380005346321B013C185D29004B46B847002C20
:10D39000F6D12B00350098460D9B9B070FD55B46B9
:10D3A000EC1A0C9BA3420AD9464698462A004B46E3
:10D3B000310020200134B84701354445F6D3280018
:10D3C000F0BCBB46B246A946A046F8BD1600150003
:10D3D000002CD3D1E0E71600002CCFD11500EEE7EA
:10D3E000F0B54F464646D646C0B584B098460EAB1B
:10D3F0001B7894469946129B0D9C109F119E9A078C
:10D4000025D4002E65D1BC4221D201221A40924679
:10D41000202C00D1E9E00C9A551E302202E0202C8D
:10D4200000D17BE001342A55A742F8D85246002AA1
:10D430000DD0B4420BD20C9A551E3022202C02D1B2
:10D4400071E0202C2DD001342A55B442F9D1DA06EE
:10D450003CD55A052ED4002C28D10F9A102A00D181
:10D46000B6E0022A00D1BCE030220C9C22700124DC
:10D470004A46002A65D15A0700D499E02B220C9D18
:10D480002A55013403930C9B62460093029643464F
:10D490000194FFF74FFF04B0E0BCBA46B146A8467E
:10D4A000F0BD2024DA06EDD55A0503D4A74266D094
:10D4B000B44264D00F9A102A71D0022A57D0202C7F
:10D4C000E0D02200013430250C9FBD54202CD9D04F
:10D4D000CEE7012215001D40AA461A4236D04A4620
:10D4E000002A4AD10C321A4247D1BC42A1D2202C88
:10D4F00091D1202E17D82024DA06C3D55A051BD483
:10D50000202F01D0202ED5D11F220F9D102D6FD09E
:10D51000022DD8D162250C9FBD54D0E75246002A77
:10D5200079D0202EBDD92024DA06ABD55A0503D4F4
:10D53000202FE9D0202EE7D00F9A102AA2D1202444
:10D54000A0E72D220C9D2A5501349BE7BC4200D355
:10D550007DE7202C00D05EE7DA06F0D55A05EED440
:10D56000202F62D0202EEAD134001F22CDE7202CBC
:10D5700000D187E722000134CCE7013EB5E7621E07
:10D58000012CC2D10F9A102A00D06AE79A063BD527
:10D5900058220C9C2270283A6270022468E79A068E
:10D5A0000ED4202CCBD078220C9D2A55013486E74E
:10D5B0001A0700D466E720220C9D2A55013461E742
:10D5C000202CBCD058250C9A12191570013476E71E
:10D5D0009A0608D558220C9C2270302262700224D0
:10D5E00046E76032F7E77822F5E7002A83D1B3E710
:10D5F000A21E013C9D0603D478250C9FBD5460E714
:10D6000058250C9FBD545CE778220C9C2270483A48
:10D61000627002242CE7DA0600D433E75A058BD473
:10D62000202F00D044E71F226FE73C001F226CE749
:10D6300010B5002800D110BD02F0D8FBFBE7C046B2
:10D64000F0B557464E464546DE46E0B599B08246AF
:10D65000894690460893229A239B1000190001F0F6
:10D660004AFD002800D0CDE0229823990122D94B11
:10D67000524201F03BFD002800D0C3E022982399DC
:10D680000122D54B524201F023FD002800D0B9E021
:10D69000229823990022002301F01AFD002800D0CF
:10D6A000F1E1229E239F8023269ADB001A400D92EF
:10D6B000269A1A4201D1062324938023269A1B011D
:10D6C0001A403B0093460996334300D0B3E0002A4A
:10D6D00000D0C2E1002300240A930B940023042508
:10D6E0000993259B0024AB4200D95C1B0223269A98
:10D6F0001A400C92269A134203D06B426B415B4254
:10D700001C40099B002B07D00A9A0B9B3000390064
:10D7100001F07DFC06000F002298239900220023CF
:10D7200001F0D6FC002803D0802109067B181F00D9
:10D73000269AAA4B009601971340089E0493249BB7
:10D7400003940293424633004946504600F0AAF93A
:10D750000400002D67D02020269A4946024013007D
:10D760005A4253415B42621C18400A923300220025
:10D770004530D047099A6F1ED317D4185C40D30F99
:10D780009B46002501E0202D13D008AA94461F23B4
:10D79000200063440A2101355E1901F0EBF93031B4
:10D7A000317020000A2101F0E5F926000400092E5D
:10D7B000E9D805230693002304930A3303935B46B9
:10D7C000089E029310AB0A9A0093494633005046D4
:10D7D00005970195FFF704FE0C9A0400002A22D059
:10D7E0004246851A259AAA421DD9B04657461600C8
:10D7F00022004346494620200135B8470134AE4255
:10D80000F6D810E0269B42460493259B4946039395
:10D81000249B50460293229B239C00930194089BD7
:10D8200000F040F90400200019B0F0BCBB46B2463D
:10D83000A946A046F0BD6A4B78009C46400D604466
:10D8400001F06CFC674A684B01F0FFFB674A684BCC
:10D8500001F0D4FB674A3B031B0B1A4304000D0085
:10D8600009981100644B002201F0BFFB634A644B2E
:10D8700001F0EBFB02000B002000290001F0BEFBD1
:10D8800001F064FC099001F049FC5E4A5E4B040023
:10D890000D0001F0DAFB00225C4B01F0AFFB01F060
:10D8A00055FC5B4A5B4B29000C90200001F0CDFB3E
:10D8B00004000C980D0001F031FC574A574B01F061
:10D8C000C4FB02000B002000290001F08EFB0400C5
:10D8D0000D0002000B000A940B9501F0B6FB04004A
:10D8E0000D000A980B9902000B0001F087FB002243
:10D8F0000E900F914A4B2000290001F088FB002276
:10D90000484B01F07BFB02000B002000290001F0D6
:10D910007EFB0022444B01F071FB02000B00200053
:10D92000290001F074FB0A9A0B9B0D008021040072
:10D93000C905002001F059FB02000B00200029005E
:10D9400001F05CFB02000B000E980F9901F05FFBE9
:10D950000022284B01F052FB344B0C9C9C46644443
:10D960002305002201F071FB04000D0002000B00F2
:10D97000300039000A940B9501F0AAFB00285DD114
:10D9800023002A00C625099963318D42AD415946CD
:10D990006D420435002900D1A3E6134363D0300063
:10D9A0003900234A234B01F099FB002807D00022BD
:10D9B00030003900204B01F08BFB002853D1249B11
:10D9C000002B00D18DE60D9B5A1E9341249AD31A49
:10D9D000249386E6FFFFEF7FFFFFEFFFFFF7FFFFD8
:10D9E00001FCFFFFFB799F501344D33FB3C8608B0A
:10D9F000288AC63F0000F03F0000F83F61436F6394
:10DA0000A787D23F71A379094F930A400000E03FF6
:10DA10001655B5BBB16B0240EF39FAFE422EE63F18
:10DA200000002C400000244000001840FF030000CC
:10DA30002D431CEBE2361A3F80842E41099B0022C5
:10DA4000013B09932000164B290001F0E0FA0A007F
:10DA5000010003000A910B9294E7002300240A932B
:10DA60000B9400230993249A099B9A4214DDD31A3C
:10DA7000013B24938023269ADB001A4300230025D0
:10DA8000269209932DE6802212069446229B1E00C0
:10DA9000239B63441F0006E600232493EAE7C04665
:10DAA00000002440F0B54546DE464E465746E0B5F8
:10DAB00095B08B46904699461E9A1F9B0A90190076
:10DAC0001000209D01F017FB002800D0B0E11E9847
:10DAD0001F990122C74B524201F0FAFA002800D0E8
